{
  "_format": "hh-sol-artifact-1",
  "contractName": "GoTokensRoles",
  "sourceName": "utils/GoTokensRole.sol",
  "abi": [
    {
      "inputs": [
        {
          "internalType": "address",
          "name": "admin",
          "type": "address"
        },
        {
          "internalType": "address",
          "name": "minter",
          "type": "address"
        }
      ],
      "stateMutability": "nonpayable",
      "type": "constructor"
    },
    {
      "anonymous": false,
      "inputs": [
        {
          "indexed": true,
          "internalType": "bytes32",
          "name": "role",
          "type": "bytes32"
        },
        {
          "indexed": true,
          "internalType": "bytes32",
          "name": "previousAdminRole",
          "type": "bytes32"
        },
        {
          "indexed": true,
          "internalType": "bytes32",
          "name": "newAdminRole",
          "type": "bytes32"
        }
      ],
      "name": "RoleAdminChanged",
      "type": "event"
    },
    {
      "anonymous": false,
      "inputs": [
        {
          "indexed": true,
          "internalType": "bytes32",
          "name": "role",
          "type": "bytes32"
        },
        {
          "indexed": true,
          "internalType": "address",
          "name": "account",
          "type": "address"
        },
        {
          "indexed": true,
          "internalType": "address",
          "name": "sender",
          "type": "address"
        }
      ],
      "name": "RoleGranted",
      "type": "event"
    },
    {
      "anonymous": false,
      "inputs": [
        {
          "indexed": true,
          "internalType": "bytes32",
          "name": "role",
          "type": "bytes32"
        },
        {
          "indexed": true,
          "internalType": "address",
          "name": "account",
          "type": "address"
        },
        {
          "indexed": true,
          "internalType": "address",
          "name": "sender",
          "type": "address"
        }
      ],
      "name": "RoleRevoked",
      "type": "event"
    },
    {
      "inputs": [],
      "name": "DEFAULT_ADMIN_ROLE",
      "outputs": [
        {
          "internalType": "bytes32",
          "name": "",
          "type": "bytes32"
        }
      ],
      "stateMutability": "view",
      "type": "function"
    },
    {
      "inputs": [],
      "name": "MINTER_ROLE",
      "outputs": [
        {
          "internalType": "bytes32",
          "name": "",
          "type": "bytes32"
        }
      ],
      "stateMutability": "view",
      "type": "function"
    },
    {
      "inputs": [
        {
          "internalType": "bytes32",
          "name": "role",
          "type": "bytes32"
        }
      ],
      "name": "getRoleAdmin",
      "outputs": [
        {
          "internalType": "bytes32",
          "name": "",
          "type": "bytes32"
        }
      ],
      "stateMutability": "view",
      "type": "function"
    },
    {
      "inputs": [
        {
          "internalType": "bytes32",
          "name": "role",
          "type": "bytes32"
        },
        {
          "internalType": "address",
          "name": "account",
          "type": "address"
        }
      ],
      "name": "grantRole",
      "outputs": [],
      "stateMutability": "nonpayable",
      "type": "function"
    },
    {
      "inputs": [
        {
          "internalType": "bytes32",
          "name": "role",
          "type": "bytes32"
        },
        {
          "internalType": "address",
          "name": "account",
          "type": "address"
        }
      ],
      "name": "hasRole",
      "outputs": [
        {
          "internalType": "bool",
          "name": "",
          "type": "bool"
        }
      ],
      "stateMutability": "view",
      "type": "function"
    },
    {
      "inputs": [
        {
          "internalType": "bytes32",
          "name": "role",
          "type": "bytes32"
        },
        {
          "internalType": "address",
          "name": "account",
          "type": "address"
        }
      ],
      "name": "renounceRole",
      "outputs": [],
      "stateMutability": "nonpayable",
      "type": "function"
    },
    {
      "inputs": [
        {
          "internalType": "bytes32",
          "name": "role",
          "type": "bytes32"
        },
        {
          "internalType": "address",
          "name": "account",
          "type": "address"
        }
      ],
      "name": "revokeRole",
      "outputs": [],
      "stateMutability": "nonpayable",
      "type": "function"
    },
    {
      "inputs": [
        {
          "internalType": "bytes4",
          "name": "interfaceId",
          "type": "bytes4"
        }
      ],
      "name": "supportsInterface",
      "outputs": [
        {
          "internalType": "bool",
          "name": "",
          "type": "bool"
        }
      ],
      "stateMutability": "view",
      "type": "function"
    }
  ],
  "bytecode": "0x60a06040527f9f2df0fed2c77648de5860a4cc508cd0818c85b8b8a1ab4ceeef8d981c8956a660805234801561003457600080fd5b506040516109313803806109318339810160408190526100539161012d565b61005e600083610072565b60805161006b9082610072565b5050610160565b6000828152602081815260408083206001600160a01b038516845290915290205460ff1661010d576000828152602081815260408083206001600160a01b03851684529091529020805460ff191660011790556100cc3390565b6001600160a01b0316816001600160a01b0316837f2f8788117e7eff1d82e926ec794901d17c78024a50270940304540a733656f0d60405160405180910390a45b5050565b80516001600160a01b038116811461012857600080fd5b919050565b6000806040838503121561014057600080fd5b61014983610111565b915061015760208401610111565b90509250929050565b6080516107b661017b600039600061012e01526107b66000f3fe608060405234801561001057600080fd5b50600436106100885760003560e01c806391d148541161005b57806391d148541461010e578063a217fddf14610121578063d539139314610129578063d547741f1461015057600080fd5b806301ffc9a71461008d578063248a9ca3146100b55780632f2ff15d146100e657806336568abe146100fb575b600080fd5b6100a061009b366004610599565b610163565b60405190151581526020015b60405180910390f35b6100d86100c33660046105c3565b60009081526020819052604090206001015490565b6040519081526020016100ac565b6100f96100f43660046105dc565b61019a565b005b6100f96101093660046105dc565b6101c4565b6100a061011c3660046105dc565b610247565b6100d8600081565b6100d87f000000000000000000000000000000000000000000000000000000000000000081565b6100f961015e3660046105dc565b610270565b60006001600160e01b03198216637965db0b60e01b148061019457506301ffc9a760e01b6001600160e01b03198316145b92915050565b6000828152602081905260409020600101546101b581610295565b6101bf83836102a2565b505050565b6001600160a01b03811633146102395760405162461bcd60e51b815260206004820152602f60248201527f416363657373436f6e74726f6c3a2063616e206f6e6c792072656e6f756e636560448201526e103937b632b9903337b91039b2b63360891b60648201526084015b60405180910390fd5b6102438282610326565b5050565b6000918252602082815260408084206001600160a01b0393909316845291905290205460ff1690565b60008281526020819052604090206001015461028b81610295565b6101bf8383610326565b61029f813361038b565b50565b6102ac8282610247565b610243576000828152602081815260408083206001600160a01b03851684529091529020805460ff191660011790556102e23390565b6001600160a01b0316816001600160a01b0316837f2f8788117e7eff1d82e926ec794901d17c78024a50270940304540a733656f0d60405160405180910390a45050565b6103308282610247565b15610243576000828152602081815260408083206001600160a01b0385168085529252808320805460ff1916905551339285917ff6391f5c32d9c69d2a47ea670b442974b53935d1edc7fd64eb21e047a839171b9190a45050565b6103958282610247565b610243576103a2816103e4565b6103ad8360206103f6565b6040516020016103be929190610648565b60408051601f198184030181529082905262461bcd60e51b8252610230916004016106bd565b60606101946001600160a01b03831660145b60606000610405836002610706565b610410906002610725565b67ffffffffffffffff8111156104285761042861073d565b6040519080825280601f01601f191660200182016040528015610452576020820181803683370190505b509050600360fc1b8160008151811061046d5761046d610753565b60200101906001600160f81b031916908160001a905350600f60fb1b8160018151811061049c5761049c610753565b60200101906001600160f81b031916908160001a90535060006104c0846002610706565b6104cb906001610725565b90505b6001811115610543576f181899199a1a9b1b9c1cb0b131b232b360811b85600f16601081106104ff576104ff610753565b1a60f81b82828151811061051557610515610753565b60200101906001600160f81b031916908160001a90535060049490941c9361053c81610769565b90506104ce565b5083156105925760405162461bcd60e51b815260206004820181905260248201527f537472696e67733a20686578206c656e67746820696e73756666696369656e746044820152606401610230565b9392505050565b6000602082840312156105ab57600080fd5b81356001600160e01b03198116811461059257600080fd5b6000602082840312156105d557600080fd5b5035919050565b600080604083850312156105ef57600080fd5b8235915060208301356001600160a01b038116811461060d57600080fd5b809150509250929050565b60005b8381101561063357818101518382015260200161061b565b83811115610642576000848401525b50505050565b7f416363657373436f6e74726f6c3a206163636f756e7420000000000000000000815260008351610680816017850160208801610618565b7001034b99036b4b9b9b4b733903937b6329607d1b60179184019182015283516106b1816028840160208801610618565b01602801949350505050565b60208152600082518060208401526106dc816040850160208701610618565b601f01601f19169190910160400192915050565b634e487b7160e01b600052601160045260246000fd5b6000816000190483118215151615610720576107206106f0565b500290565b60008219821115610738576107386106f0565b500190565b634e487b7160e01b600052604160045260246000fd5b634e487b7160e01b600052603260045260246000fd5b600081610778576107786106f0565b50600019019056fea26469706673582212201482bf2f51fd395459b69a5d759a1e8e63bd7aab0eb967e48c950c6ab35b0c1564736f6c634300080e0033",
  "linkReferences": {},
  "deployedLinkReferences": {}
}