{
  "_format": "hh-sol-artifact-1",
  "contractName": "COPF",
  "sourceName": "contracts/COPF.sol",
  "abi": [
    {
      "inputs": [
        {
          "internalType": "address",
          "name": "_minter",
          "type": "address"
        },
        {
          "internalType": "address",
          "name": "_initialOwner",
          "type": "address"
        },
        {
          "internalType": "uint8",
          "name": "_assetType",
          "type": "uint8"
        },
        {
          "internalType": "uint16",
          "name": "_projectStart",
          "type": "uint16"
        },
        {
          "internalType": "uint16",
          "name": "_projectEnd",
          "type": "uint16"
        },
        {
          "internalType": "uint8",
          "name": "_assetclass",
          "type": "uint8"
        },
        {
          "internalType": "string",
          "name": "_baseURI",
          "type": "string"
        },
        {
          "internalType": "string",
          "name": "tokenURI_",
          "type": "string"
        }
      ],
      "stateMutability": "nonpayable",
      "type": "constructor"
    },
    {
      "anonymous": false,
      "inputs": [
        {
          "indexed": true,
          "internalType": "address",
          "name": "owner",
          "type": "address"
        },
        {
          "indexed": true,
          "internalType": "address",
          "name": "approved",
          "type": "address"
        },
        {
          "indexed": true,
          "internalType": "uint256",
          "name": "tokenId",
          "type": "uint256"
        }
      ],
      "name": "Approval",
      "type": "event"
    },
    {
      "anonymous": false,
      "inputs": [
        {
          "indexed": true,
          "internalType": "address",
          "name": "owner",
          "type": "address"
        },
        {
          "indexed": true,
          "internalType": "address",
          "name": "operator",
          "type": "address"
        },
        {
          "indexed": false,
          "internalType": "bool",
          "name": "approved",
          "type": "bool"
        }
      ],
      "name": "ApprovalForAll",
      "type": "event"
    },
    {
      "anonymous": false,
      "inputs": [
        {
          "indexed": false,
          "internalType": "bool",
          "name": "availability",
          "type": "bool"
        }
      ],
      "name": "AssetAvailabilityUpdated",
      "type": "event"
    },
    {
      "anonymous": false,
      "inputs": [
        {
          "indexed": false,
          "internalType": "uint8",
          "name": "assetId",
          "type": "uint8"
        },
        {
          "indexed": false,
          "internalType": "bool",
          "name": "wasBurned",
          "type": "bool"
        }
      ],
      "name": "AssetBurned",
      "type": "event"
    },
    {
      "anonymous": false,
      "inputs": [
        {
          "indexed": false,
          "internalType": "uint32",
          "name": "AssetId",
          "type": "uint32"
        },
        {
          "indexed": false,
          "internalType": "address",
          "name": "tokenOwner",
          "type": "address"
        },
        {
          "indexed": false,
          "internalType": "uint8",
          "name": "assetId",
          "type": "uint8"
        }
      ],
      "name": "AssetMinted",
      "type": "event"
    },
    {
      "anonymous": false,
      "inputs": [
        {
          "indexed": false,
          "internalType": "uint8",
          "name": "assetId",
          "type": "uint8"
        },
        {
          "indexed": false,
          "internalType": "address",
          "name": "newOwner",
          "type": "address"
        },
        {
          "indexed": false,
          "internalType": "bool",
          "name": "transferred",
          "type": "bool"
        }
      ],
      "name": "AssetTransferred",
      "type": "event"
    },
    {
      "anonymous": false,
      "inputs": [
        {
          "indexed": false,
          "internalType": "uint32",
          "name": "value",
          "type": "uint32"
        },
        {
          "indexed": false,
          "internalType": "bool",
          "name": "valuationSet",
          "type": "bool"
        }
      ],
      "name": "AssetValuationWevent",
      "type": "event"
    },
    {
      "anonymous": false,
      "inputs": [
        {
          "indexed": true,
          "internalType": "address",
          "name": "previousOwner",
          "type": "address"
        },
        {
          "indexed": true,
          "internalType": "address",
          "name": "newOwner",
          "type": "address"
        }
      ],
      "name": "OwnershipTransferred",
      "type": "event"
    },
    {
      "anonymous": false,
      "inputs": [
        {
          "indexed": true,
          "internalType": "bytes32",
          "name": "role",
          "type": "bytes32"
        },
        {
          "indexed": true,
          "internalType": "bytes32",
          "name": "previousAdminRole",
          "type": "bytes32"
        },
        {
          "indexed": true,
          "internalType": "bytes32",
          "name": "newAdminRole",
          "type": "bytes32"
        }
      ],
      "name": "RoleAdminChanged",
      "type": "event"
    },
    {
      "anonymous": false,
      "inputs": [
        {
          "indexed": true,
          "internalType": "bytes32",
          "name": "role",
          "type": "bytes32"
        },
        {
          "indexed": true,
          "internalType": "address",
          "name": "account",
          "type": "address"
        },
        {
          "indexed": true,
          "internalType": "address",
          "name": "sender",
          "type": "address"
        }
      ],
      "name": "RoleGranted",
      "type": "event"
    },
    {
      "anonymous": false,
      "inputs": [
        {
          "indexed": true,
          "internalType": "bytes32",
          "name": "role",
          "type": "bytes32"
        },
        {
          "indexed": true,
          "internalType": "address",
          "name": "account",
          "type": "address"
        },
        {
          "indexed": true,
          "internalType": "address",
          "name": "sender",
          "type": "address"
        }
      ],
      "name": "RoleRevoked",
      "type": "event"
    },
    {
      "anonymous": false,
      "inputs": [
        {
          "indexed": true,
          "internalType": "address",
          "name": "from",
          "type": "address"
        },
        {
          "indexed": true,
          "internalType": "address",
          "name": "to",
          "type": "address"
        },
        {
          "indexed": true,
          "internalType": "uint256",
          "name": "tokenId",
          "type": "uint256"
        }
      ],
      "name": "Transfer",
      "type": "event"
    },
    {
      "inputs": [],
      "name": "DEFAULT_ADMIN_ROLE",
      "outputs": [
        {
          "internalType": "bytes32",
          "name": "",
          "type": "bytes32"
        }
      ],
      "stateMutability": "view",
      "type": "function"
    },
    {
      "inputs": [],
      "name": "MINTER_ROLE",
      "outputs": [
        {
          "internalType": "bytes32",
          "name": "",
          "type": "bytes32"
        }
      ],
      "stateMutability": "view",
      "type": "function"
    },
    {
      "inputs": [
        {
          "internalType": "address",
          "name": "to",
          "type": "address"
        },
        {
          "internalType": "uint256",
          "name": "tokenId",
          "type": "uint256"
        }
      ],
      "name": "approve",
      "outputs": [],
      "stateMutability": "nonpayable",
      "type": "function"
    },
    {
      "inputs": [],
      "name": "assetClassif",
      "outputs": [
        {
          "internalType": "enum COPF.AssetClassification",
          "name": "",
          "type": "uint8"
        }
      ],
      "stateMutability": "view",
      "type": "function"
    },
    {
      "inputs": [],
      "name": "assetId",
      "outputs": [
        {
          "internalType": "uint8",
          "name": "",
          "type": "uint8"
        }
      ],
      "stateMutability": "view",
      "type": "function"
    },
    {
      "inputs": [],
      "name": "assetType",
      "outputs": [
        {
          "internalType": "enum COPF.AssetType",
          "name": "",
          "type": "uint8"
        }
      ],
      "stateMutability": "view",
      "type": "function"
    },
    {
      "inputs": [
        {
          "internalType": "uint256",
          "name": "",
          "type": "uint256"
        }
      ],
      "name": "assets",
      "outputs": [
        {
          "internalType": "address",
          "name": "initialOwner",
          "type": "address"
        },
        {
          "internalType": "enum COPF.AssetType",
          "name": "assetType",
          "type": "uint8"
        },
        {
          "internalType": "uint16",
          "name": "projectStart",
          "type": "uint16"
        },
        {
          "internalType": "uint16",
          "name": "projectEnd",
          "type": "uint16"
        },
        {
          "internalType": "enum COPF.AssetClassification",
          "name": "assetClassification",
          "type": "uint8"
        },
        {
          "internalType": "uint32",
          "name": "AssetValuation",
          "type": "uint32"
        },
        {
          "internalType": "bool",
          "name": "isCurrentAssetAvailableForTransfer",
          "type": "bool"
        },
        {
          "internalType": "address",
          "name": "tokenOwner",
          "type": "address"
        },
        {
          "internalType": "string",
          "name": "tokenURI",
          "type": "string"
        }
      ],
      "stateMutability": "view",
      "type": "function"
    },
    {
      "inputs": [
        {
          "internalType": "address",
          "name": "owner",
          "type": "address"
        }
      ],
      "name": "balanceOf",
      "outputs": [
        {
          "internalType": "uint256",
          "name": "",
          "type": "uint256"
        }
      ],
      "stateMutability": "view",
      "type": "function"
    },
    {
      "inputs": [
        {
          "internalType": "uint8",
          "name": "_assetId",
          "type": "uint8"
        },
        {
          "internalType": "address",
          "name": "_initialOwner",
          "type": "address"
        }
      ],
      "name": "burn",
      "outputs": [],
      "stateMutability": "nonpayable",
      "type": "function"
    },
    {
      "inputs": [],
      "name": "checkOwnership",
      "outputs": [
        {
          "internalType": "address",
          "name": "",
          "type": "address"
        }
      ],
      "stateMutability": "view",
      "type": "function"
    },
    {
      "inputs": [],
      "name": "currentYear",
      "outputs": [
        {
          "internalType": "uint16",
          "name": "",
          "type": "uint16"
        }
      ],
      "stateMutability": "view",
      "type": "function"
    },
    {
      "inputs": [
        {
          "internalType": "uint256",
          "name": "tokenId",
          "type": "uint256"
        }
      ],
      "name": "getApproved",
      "outputs": [
        {
          "internalType": "address",
          "name": "",
          "type": "address"
        }
      ],
      "stateMutability": "view",
      "type": "function"
    },
    {
      "inputs": [],
      "name": "getCurrentYear",
      "outputs": [
        {
          "internalType": "uint256",
          "name": "",
          "type": "uint256"
        }
      ],
      "stateMutability": "view",
      "type": "function"
    },
    {
      "inputs": [
        {
          "internalType": "bytes32",
          "name": "role",
          "type": "bytes32"
        }
      ],
      "name": "getRoleAdmin",
      "outputs": [
        {
          "internalType": "bytes32",
          "name": "",
          "type": "bytes32"
        }
      ],
      "stateMutability": "view",
      "type": "function"
    },
    {
      "inputs": [
        {
          "internalType": "bytes32",
          "name": "role",
          "type": "bytes32"
        },
        {
          "internalType": "address",
          "name": "account",
          "type": "address"
        }
      ],
      "name": "grantRole",
      "outputs": [],
      "stateMutability": "nonpayable",
      "type": "function"
    },
    {
      "inputs": [
        {
          "internalType": "uint8",
          "name": "_assetId",
          "type": "uint8"
        }
      ],
      "name": "hasAssetValuationBeenSet",
      "outputs": [
        {
          "internalType": "bool",
          "name": "",
          "type": "bool"
        }
      ],
      "stateMutability": "view",
      "type": "function"
    },
    {
      "inputs": [
        {
          "internalType": "bytes32",
          "name": "role",
          "type": "bytes32"
        },
        {
          "internalType": "address",
          "name": "account",
          "type": "address"
        }
      ],
      "name": "hasRole",
      "outputs": [
        {
          "internalType": "bool",
          "name": "",
          "type": "bool"
        }
      ],
      "stateMutability": "view",
      "type": "function"
    },
    {
      "inputs": [
        {
          "internalType": "address",
          "name": "owner",
          "type": "address"
        },
        {
          "internalType": "address",
          "name": "operator",
          "type": "address"
        }
      ],
      "name": "isApprovedForAll",
      "outputs": [
        {
          "internalType": "bool",
          "name": "",
          "type": "bool"
        }
      ],
      "stateMutability": "view",
      "type": "function"
    },
    {
      "inputs": [
        {
          "internalType": "address",
          "name": "_initialOwner",
          "type": "address"
        },
        {
          "internalType": "enum COPF.AssetType",
          "name": "_assetType",
          "type": "uint8"
        },
        {
          "internalType": "uint16",
          "name": "_projectStart",
          "type": "uint16"
        },
        {
          "internalType": "uint16",
          "name": "_projectEnd",
          "type": "uint16"
        },
        {
          "internalType": "enum COPF.AssetClassification",
          "name": "_assetclass",
          "type": "uint8"
        },
        {
          "internalType": "uint32",
          "name": "_assetValuation",
          "type": "uint32"
        },
        {
          "internalType": "string",
          "name": "tokenURI_",
          "type": "string"
        }
      ],
      "name": "mint",
      "outputs": [],
      "stateMutability": "nonpayable",
      "type": "function"
    },
    {
      "inputs": [],
      "name": "name",
      "outputs": [
        {
          "internalType": "string",
          "name": "",
          "type": "string"
        }
      ],
      "stateMutability": "view",
      "type": "function"
    },
    {
      "inputs": [],
      "name": "owner",
      "outputs": [
        {
          "internalType": "address",
          "name": "",
          "type": "address"
        }
      ],
      "stateMutability": "view",
      "type": "function"
    },
    {
      "inputs": [
        {
          "internalType": "uint256",
          "name": "tokenId",
          "type": "uint256"
        }
      ],
      "name": "ownerOf",
      "outputs": [
        {
          "internalType": "address",
          "name": "",
          "type": "address"
        }
      ],
      "stateMutability": "view",
      "type": "function"
    },
    {
      "inputs": [],
      "name": "renounceOwnership",
      "outputs": [],
      "stateMutability": "nonpayable",
      "type": "function"
    },
    {
      "inputs": [
        {
          "internalType": "bytes32",
          "name": "role",
          "type": "bytes32"
        },
        {
          "internalType": "address",
          "name": "account",
          "type": "address"
        }
      ],
      "name": "renounceRole",
      "outputs": [],
      "stateMutability": "nonpayable",
      "type": "function"
    },
    {
      "inputs": [
        {
          "internalType": "bytes32",
          "name": "role",
          "type": "bytes32"
        },
        {
          "internalType": "address",
          "name": "account",
          "type": "address"
        }
      ],
      "name": "revokeRole",
      "outputs": [],
      "stateMutability": "nonpayable",
      "type": "function"
    },
    {
      "inputs": [
        {
          "internalType": "address",
          "name": "from",
          "type": "address"
        },
        {
          "internalType": "address",
          "name": "to",
          "type": "address"
        },
        {
          "internalType": "uint256",
          "name": "tokenId",
          "type": "uint256"
        }
      ],
      "name": "safeTransferFrom",
      "outputs": [],
      "stateMutability": "nonpayable",
      "type": "function"
    },
    {
      "inputs": [
        {
          "internalType": "address",
          "name": "from",
          "type": "address"
        },
        {
          "internalType": "address",
          "name": "to",
          "type": "address"
        },
        {
          "internalType": "uint256",
          "name": "tokenId",
          "type": "uint256"
        },
        {
          "internalType": "bytes",
          "name": "data",
          "type": "bytes"
        }
      ],
      "name": "safeTransferFrom",
      "outputs": [],
      "stateMutability": "nonpayable",
      "type": "function"
    },
    {
      "inputs": [
        {
          "internalType": "address",
          "name": "operator",
          "type": "address"
        },
        {
          "internalType": "bool",
          "name": "approved",
          "type": "bool"
        }
      ],
      "name": "setApprovalForAll",
      "outputs": [],
      "stateMutability": "nonpayable",
      "type": "function"
    },
    {
      "inputs": [
        {
          "internalType": "uint8",
          "name": "_assetId",
          "type": "uint8"
        },
        {
          "internalType": "bool",
          "name": "_availability",
          "type": "bool"
        }
      ],
      "name": "setAssetAvailabilityForTransfer",
      "outputs": [
        {
          "internalType": "bool",
          "name": "",
          "type": "bool"
        }
      ],
      "stateMutability": "nonpayable",
      "type": "function"
    },
    {
      "inputs": [
        {
          "internalType": "uint8",
          "name": "_assetId",
          "type": "uint8"
        },
        {
          "internalType": "uint32",
          "name": "_assetValuation",
          "type": "uint32"
        }
      ],
      "name": "setAssetValuation",
      "outputs": [
        {
          "internalType": "uint32",
          "name": "",
          "type": "uint32"
        }
      ],
      "stateMutability": "nonpayable",
      "type": "function"
    },
    {
      "inputs": [
        {
          "internalType": "string",
          "name": "baseURI_",
          "type": "string"
        }
      ],
      "name": "setBaseURI",
      "outputs": [],
      "stateMutability": "nonpayable",
      "type": "function"
    },
    {
      "inputs": [
        {
          "internalType": "uint16",
          "name": "_currentYear",
          "type": "uint16"
        }
      ],
      "name": "setCurrentYear",
      "outputs": [],
      "stateMutability": "nonpayable",
      "type": "function"
    },
    {
      "inputs": [
        {
          "internalType": "uint8",
          "name": "tokenId",
          "type": "uint8"
        },
        {
          "internalType": "string",
          "name": "_tokenURI",
          "type": "string"
        }
      ],
      "name": "setTokenURI",
      "outputs": [],
      "stateMutability": "nonpayable",
      "type": "function"
    },
    {
      "inputs": [
        {
          "internalType": "bytes4",
          "name": "interfaceId",
          "type": "bytes4"
        }
      ],
      "name": "supportsInterface",
      "outputs": [
        {
          "internalType": "bool",
          "name": "",
          "type": "bool"
        }
      ],
      "stateMutability": "view",
      "type": "function"
    },
    {
      "inputs": [],
      "name": "symbol",
      "outputs": [
        {
          "internalType": "string",
          "name": "",
          "type": "string"
        }
      ],
      "stateMutability": "view",
      "type": "function"
    },
    {
      "inputs": [
        {
          "internalType": "uint256",
          "name": "tokenId",
          "type": "uint256"
        }
      ],
      "name": "tokenURI",
      "outputs": [
        {
          "internalType": "string",
          "name": "",
          "type": "string"
        }
      ],
      "stateMutability": "view",
      "type": "function"
    },
    {
      "inputs": [
        {
          "internalType": "uint8",
          "name": "_assetId",
          "type": "uint8"
        },
        {
          "internalType": "address",
          "name": "_newOwner",
          "type": "address"
        }
      ],
      "name": "transferAsset",
      "outputs": [],
      "stateMutability": "nonpayable",
      "type": "function"
    },
    {
      "inputs": [
        {
          "internalType": "address",
          "name": "from",
          "type": "address"
        },
        {
          "internalType": "address",
          "name": "to",
          "type": "address"
        },
        {
          "internalType": "uint256",
          "name": "tokenId",
          "type": "uint256"
        }
      ],
      "name": "transferFrom",
      "outputs": [],
      "stateMutability": "nonpayable",
      "type": "function"
    },
    {
      "inputs": [
        {
          "internalType": "address",
          "name": "newOwner",
          "type": "address"
        }
      ],
      "name": "transferOwnership",
      "outputs": [],
      "stateMutability": "nonpayable",
      "type": "function"
    }
  ],
  "bytecode": "0x60a06040527f9f2df0fed2c77648de5860a4cc508cd0818c85b8b8a1ab4ceeef8d981c8956a66080526009805462ffffff19166207e700179055600c805460ff191690553480156200005057600080fd5b5060405162003ba838038062003ba8833981016040819052620000739162000c69565b6040518060400160405280601e81526020017f4365727469666963617465206f6620506c616e746564466c6f726573747300008152506040518060400160405280600481526020016321a7a82360e11b815250338a620000e2620000dc6200038760201b60201c565b6200038b565b620000ef600083620003db565b608051620000fe9082620003db565b505081516200011590600290602085019062000aab565b5080516200012b90600390602084019062000aab565b505050600d604051806101200160405280896001600160a01b031681526020018860ff16600181111562000163576200016362000d44565b600181111562000177576200017762000d44565b81526020018761ffff1681526020018661ffff1681526020018560ff166001811115620001a857620001a862000d44565b6001811115620001bc57620001bc62000d44565b815260006020808301829052604083018290526001600160a01b03808d16606085015260809093018690528454600181810187559583529181902084516003909302018054929093166001600160a01b031983168117845590840151939492939284926001600160a81b03191690911790600160a01b90849081111562000247576200024762000d44565b021790555060408201518154606084015161ffff908116600160b81b0261ffff60b81b1991909316600160a81b021663ffffffff60a81b199091161717808255608083015190829060ff60c81b1916600160c81b836001811115620002b057620002b062000d44565b021790555060a0820151815460c08401511515600160f01b0260ff60f01b1963ffffffff909316600160d01b029290921664ffffffffff60d01b199091161717815560e08201516001820180546001600160a01b039092166001600160a01b031990921691909117905561010082015180516200033891600284019160209091019062000aab565b50508251620003509150600b90602085019062000aab565b506200035e87600062000464565b6200036c8733600162000609565b620003796000826200062a565b505050505050505062000ee1565b3390565b600080546001600160a01b038381166001600160a01b0319831681178455604051919092169283917f8be0079c531659141344cd1fd0a4f28419497f9722a3daafe3b4186f6b6457e09190a35050565b60008281526001602090815260408083206001600160a01b038516845290915290205460ff16620004605760008281526001602081815260408084206001600160a01b0386168086529252808420805460ff19169093179092559051339285917f2f8788117e7eff1d82e926ec794901d17c78024a50270940304540a733656f0d9190a45b5050565b6001600160a01b038216620004c05760405162461bcd60e51b815260206004820181905260248201527f4552433732313a206d696e7420746f20746865207a65726f206164647265737360448201526064015b60405180910390fd5b6000818152600460205260409020546001600160a01b031615620005275760405162461bcd60e51b815260206004820152601c60248201527f4552433732313a20746f6b656e20616c7265616479206d696e746564000000006044820152606401620004b7565b62000537600083836001620006cd565b6000818152600460205260409020546001600160a01b0316156200059e5760405162461bcd60e51b815260206004820152601c60248201527f4552433732313a20746f6b656e20616c7265616479206d696e746564000000006044820152606401620004b7565b6001600160a01b038216600081815260056020908152604080832080546001019055848352600490915280822080546001600160a01b0319168417905551839291907fddf252ad1be2c89b69c2b068fc378daa952ba7f163c4a11628f55a4df523b3ef908290a45050565b60805162000617816200075c565b620006248484846200076b565b50505050565b6000828152600460205260409020546001600160a01b0316620006a75760405162461bcd60e51b815260206004820152602e60248201527f45524337323155524953746f726167653a2055524920736574206f66206e6f6e60448201526d32bc34b9ba32b73a103a37b5b2b760911b6064820152608401620004b7565b60008281526008602090815260409091208251620006c89284019062000aab565b505050565b600181111562000624576001600160a01b0384161562000717576001600160a01b038416600090815260056020526040812080548392906200071190849062000d70565b90915550505b6001600160a01b0383161562000624576001600160a01b038316600090815260056020526040812080548392906200075190849062000d8a565b909155505050505050565b6200076881336200083b565b50565b816001600160a01b0316836001600160a01b031603620007ce5760405162461bcd60e51b815260206004820152601960248201527f4552433732313a20617070726f766520746f2063616c6c6572000000000000006044820152606401620004b7565b6001600160a01b03838116600081815260076020908152604080832094871680845294825291829020805460ff191686151590811790915591519182527f17307eab39ab6107e8899845ad3d59bd9653f200f220920489ca2b5937696c31910160405180910390a3505050565b60008281526001602090815260408083206001600160a01b038516845290915290205460ff1662000460576200087c81620008cd60201b6200141d1760201c565b620008928360206200142f620008eb821b17811c565b604051602001620008a592919062000da5565b60408051601f198184030181529082905262461bcd60e51b8252620004b79160040162000e1e565b6060620008e56001600160a01b0383166014620008eb565b92915050565b60606000620008fc83600262000e53565b6200090990600262000d8a565b6001600160401b0381111562000923576200092362000b93565b6040519080825280601f01601f1916602001820160405280156200094e576020820181803683370190505b509050600360fc1b816000815181106200096c576200096c62000e75565b60200101906001600160f81b031916908160001a905350600f60fb1b816001815181106200099e576200099e62000e75565b60200101906001600160f81b031916908160001a9053506000620009c484600262000e53565b620009d190600162000d8a565b90505b600181111562000a53576f181899199a1a9b1b9c1cb0b131b232b360811b85600f166010811062000a095762000a0962000e75565b1a60f81b82828151811062000a225762000a2262000e75565b60200101906001600160f81b031916908160001a90535060049490941c9362000a4b8162000e8b565b9050620009d4565b50831562000aa45760405162461bcd60e51b815260206004820181905260248201527f537472696e67733a20686578206c656e67746820696e73756666696369656e746044820152606401620004b7565b9392505050565b82805462000ab99062000ea5565b90600052602060002090601f01602090048101928262000add576000855562000b28565b82601f1062000af857805160ff191683800117855562000b28565b8280016001018555821562000b28579182015b8281111562000b2857825182559160200191906001019062000b0b565b5062000b3692915062000b3a565b5090565b5b8082111562000b36576000815560010162000b3b565b80516001600160a01b038116811462000b6957600080fd5b919050565b805160ff8116811462000b6957600080fd5b805161ffff8116811462000b6957600080fd5b634e487b7160e01b600052604160045260246000fd5b60005b8381101562000bc657818101518382015260200162000bac565b83811115620006245750506000910152565b600082601f83011262000bea57600080fd5b81516001600160401b038082111562000c075762000c0762000b93565b604051601f8301601f19908116603f0116810190828211818310171562000c325762000c3262000b93565b8160405283815286602085880101111562000c4c57600080fd5b62000c5f84602083016020890162000ba9565b9695505050505050565b600080600080600080600080610100898b03121562000c8757600080fd5b62000c928962000b51565b975062000ca260208a0162000b51565b965062000cb260408a0162000b6e565b955062000cc260608a0162000b80565b945062000cd260808a0162000b80565b935062000ce260a08a0162000b6e565b60c08a01519093506001600160401b038082111562000d0057600080fd5b62000d0e8c838d0162000bd8565b935060e08b015191508082111562000d2557600080fd5b5062000d348b828c0162000bd8565b9150509295985092959890939650565b634e487b7160e01b600052602160045260246000fd5b634e487b7160e01b600052601160045260246000fd5b60008282101562000d855762000d8562000d5a565b500390565b6000821982111562000da05762000da062000d5a565b500190565b7f416363657373436f6e74726f6c3a206163636f756e742000000000000000000081526000835162000ddf81601785016020880162000ba9565b7001034b99036b4b9b9b4b733903937b6329607d1b601791840191820152835162000e1281602884016020880162000ba9565b01602801949350505050565b602081526000825180602084015262000e3f81604085016020870162000ba9565b601f01601f19169190910160400192915050565b600081600019048311821515161562000e705762000e7062000d5a565b500290565b634e487b7160e01b600052603260045260246000fd5b60008162000e9d5762000e9d62000d5a565b506000190190565b600181811c9082168062000eba57607f821691505b60208210810362000edb57634e487b7160e01b600052602260045260246000fd5b50919050565b608051612c9662000f12600039600081816104ff0152818161080e0152818161135d0152611ade0152612c966000f3fe608060405234801561001057600080fd5b506004361061023d5760003560e01c80638da5cb5b1161013b578063caca36e1116100b8578063e79eee5e1161007c578063e79eee5e14610534578063e985e9c51461055c578063ea3994bc14610598578063f2fde38b146105ab578063fe9ef85f146105be57600080fd5b8063caca36e1146104ae578063ce41607a146104c1578063cf35bdd0146104d2578063d5391393146104fa578063d547741f1461052157600080fd5b8063a22cb465116100ff578063a22cb4651461044f578063aeaf902014610462578063b19b5b4c14610475578063b88d4fde14610488578063c87b56dd1461049b57600080fd5b80638da5cb5b146102e557806391d148541461041957806395d89b411461042c5780639c83aecc14610434578063a217fddf1461044757600080fd5b806333e3328c116101c957806355f804b31161018d57806355f804b3146103c55780636352211e146103d857806370a08231146103eb578063715018a6146103fe57806387fec7751461040657600080fd5b806333e3328c1461034e57806336568abe146103615780633fe3347a1461037457806342842e0e1461039357806344de240a146103a657600080fd5b80630b5a006b116102105780630b5a006b146102bf578063219a1d77146102e557806323b872dd146102f6578063248a9ca3146103095780632f2ff15d1461033b57600080fd5b806301ffc9a71461024257806306fdde031461026a578063081812fc1461027f578063095ea7b3146102aa575b600080fd5b6102556102503660046123b5565b6105d1565b60405190151581526020015b60405180910390f35b6102726105e2565b604051610261919061242a565b61029261028d36600461243d565b610674565b6040516001600160a01b039091168152602001610261565b6102bd6102b8366004612472565b61069b565b005b6009546102d290610100900461ffff1681565b60405161ffff9091168152602001610261565b6000546001600160a01b0316610292565b6102bd61030436600461249c565b6107b5565b61032d61031736600461243d565b6000908152600160208190526040909120015490565b604051908152602001610261565b6102bd6103493660046124d8565b6107e6565b6102bd61035c3660046125e3565b61080c565b6102bd61036f3660046124d8565b610a73565b600c5461038690610100900460ff1681565b60405161026191906126bc565b6102bd6103a136600461249c565b610af1565b6009546103b39060ff1681565b60405160ff9091168152602001610261565b6102bd6103d33660046126cf565b610b0c565b6102926103e636600461243d565b610b27565b61032d6103f9366004612704565b610b87565b6102bd610c0d565b610255610414366004612740565b610c21565b6102556104273660046124d8565b610c9a565b610272610cc5565b6102bd61044236600461276a565b610cd4565b61032d600081565b6102bd61045d3660046127b8565b610ce1565b6102556104703660046127d4565b610cec565b6102bd6104833660046127ef565b610d29565b6102bd610496366004612819565b610ec6565b6102726104a936600461243d565b610efe565b6102bd6104bc3660046127ef565b611001565b600954610100900461ffff1661032d565b6104e56104e036600461243d565b611199565b60405161026199989796959493929190612895565b61032d7f000000000000000000000000000000000000000000000000000000000000000081565b6102bd61052f3660046124d8565b6112aa565b61054761054236600461291a565b6112d0565b60405163ffffffff9091168152602001610261565b61025561056a366004612944565b6001600160a01b03918216600090815260076020908152604080832093909416825291909152205460ff1690565b6102bd6105a6366004612960565b61135b565b6102bd6105b9366004612704565b6113a4565b600c546103869062010000900460ff1681565b60006105dc826115d2565b92915050565b6060600280546105f19061297b565b80601f016020809104026020016040519081016040528092919081815260200182805461061d9061297b565b801561066a5780601f1061063f5761010080835404028352916020019161066a565b820191906000526020600020905b81548152906001019060200180831161064d57829003601f168201915b5050505050905090565b600061067f82611612565b506000908152600660205260409020546001600160a01b031690565b60006106a682610b27565b9050806001600160a01b0316836001600160a01b0316036107185760405162461bcd60e51b815260206004820152602160248201527f4552433732313a20617070726f76616c20746f2063757272656e74206f776e656044820152603960f91b60648201526084015b60405180910390fd5b336001600160a01b03821614806107345750610734813361056a565b6107a65760405162461bcd60e51b815260206004820152603d60248201527f4552433732313a20617070726f76652063616c6c6572206973206e6f7420746f60448201527f6b656e206f776e6572206f7220617070726f76656420666f7220616c6c000000606482015260840161070f565b6107b08383611671565b505050565b6107bf33826116df565b6107db5760405162461bcd60e51b815260040161070f906129b5565b6107b083838361175d565b60008281526001602081905260409091200154610802816118ce565b6107b083836118d8565b7f0000000000000000000000000000000000000000000000000000000000000000610836816118ce565b6009805460009160ff909116908261084d83612a18565b91906101000a81548160ff021916908360ff1602179055509050600d6040518061012001604052808b6001600160a01b031681526020018a600181111561089657610896612688565b81526020018961ffff1681526020018861ffff1681526020018760018111156108c1576108c1612688565b815263ffffffff87166020808301919091526000604083018190526001600160a01b03808f16606085015260809093018890528454600181810187559582529082902084516003909202018054919093166001600160a01b031982168117845591840151939492939284926001600160a81b031990921690911790600160a01b90849081111561095357610953612688565b021790555060408201518154606084015161ffff908116600160b81b0261ffff60b81b1991909316600160a81b021663ffffffff60a81b199091161717808255608083015190829060ff60c81b1916600160c81b8360018111156109b9576109b9612688565b021790555060a0820151815460c08401511515600160f01b0260ff60f01b1963ffffffff909316600160d01b029290921664ffffffffff60d01b199091161717815560e08201516001820180546001600160a01b039092166001600160a01b03199092169190911790556101008201518051610a3f9160028401916020909101906122d0565b505050610a4f898260ff16611943565b610a5b89336001611adc565b610a688160ff1684611b11565b505050505050505050565b6001600160a01b0381163314610ae35760405162461bcd60e51b815260206004820152602f60248201527f416363657373436f6e74726f6c3a2063616e206f6e6c792072656e6f756e636560448201526e103937b632b9903337b91039b2b63360891b606482015260840161070f565b610aed8282611bab565b5050565b6107b083838360405180602001604052806000815250610ec6565b610b14611c12565b8051610aed90600b9060208401906122d0565b6000818152600460205260408120546001600160a01b0316806105dc5760405162461bcd60e51b8152602060048201526018602482015277115490cdcc8c4e881a5b9d985b1a59081d1bdad95b88125160421b604482015260640161070f565b60006001600160a01b038216610bf15760405162461bcd60e51b815260206004820152602960248201527f4552433732313a2061646472657373207a65726f206973206e6f7420612076616044820152683634b21037bbb732b960b91b606482015260840161070f565b506001600160a01b031660009081526005602052604090205490565b610c15611c12565b610c1f6000611c6c565b565b600081600d8460ff1681548110610c3a57610c3a612a37565b9060005260206000209060030201600001601e6101000a81548160ff021916908315150217905550600d8360ff1681548110610c7857610c78612a37565b6000918252602090912060039091020154600160f01b900460ff169392505050565b60009182526001602090815260408084206001600160a01b0393909316845291905290205460ff1690565b6060600380546105f19061297b565b610aed8260ff1682611b11565b610aed338383611cbc565b6000600d8260ff1681548110610d0457610d04612a37565b6000918252602090912060039091020154600160d01b900463ffffffff161592915050565b8181600d8260ff1681548110610d4157610d41612a37565b60009182526020909120600390910201546001600160a01b03828116911614610dc85760405162461bcd60e51b815260206004820152603360248201527f4f6e6c7920666c6f72657374277320696e697469616c206f776e6572206973206044820152720c2d8d8deeecac840ccdee440e8d0d2e640e8f606b1b606482015260840161070f565b83600d8160ff1681548110610ddf57610ddf612a37565b906000526020600020906003020160000160179054906101000a900461ffff1661ffff16306001600160a01b031663ce41607a6040518163ffffffff1660e01b8152600401602060405180830381865afa158015610e41573d6000803e3d6000fd5b505050506040513d601f19601f82011682018060405250810190610e659190612a4d565b1115610eb35760405162461bcd60e51b815260206004820152601960248201527f70726f6a656374206973207374696c6c206f6e676f696e672100000000000000604482015260640161070f565b610ebf8560ff16611d8a565b5050505050565b610ed033836116df565b610eec5760405162461bcd60e51b815260040161070f906129b5565b610ef884848484611dca565b50505050565b6060610f0982611612565b60008281526008602052604081208054610f229061297b565b80601f0160208091040260200160405190810160405280929190818152602001828054610f4e9061297b565b8015610f9b5780601f10610f7057610100808354040283529160200191610f9b565b820191906000526020600020905b815481529060010190602001808311610f7e57829003601f168201915b505050505090506000610fac611dfd565b90508051600003610fbe575092915050565b815115610ff0578082604051602001610fd8929190612a66565b60405160208183030381529060405292505050919050565b610ff984611e0c565b949350505050565b61100a82611e72565b61106c5760405162461bcd60e51b815260206004820152602d60248201527f61737365742069732063757272656e746c79206e6f7420617661696c61626c6560448201526c103337b9103a3930b739b332b960991b606482015260840161070f565b6000600d8360ff168154811061108457611084612a37565b6000918252602090912060016003909202018101546001600160a01b031691506110b19082903390611adc565b6110bf81838560ff16610af1565b81600d8460ff16815481106110d6576110d6612a37565b906000526020600020906003020160010160006101000a8154816001600160a01b0302191690836001600160a01b031602179055507f2e72e059585d8687c8e378e3c55bdd48912ea1dcbb4b26e097af901e297ad2858383846001600160a01b0316600d8760ff168154811061114e5761114e612a37565b6000918252602091829020600390910201600101546040805160ff90961686526001600160a01b039485169286019290925292909216149082015260600160405180910390a1505050565b600d81815481106111a957600080fd5b60009182526020909120600390910201805460018201546002830180546001600160a01b03808516965060ff600160a01b860481169661ffff600160a81b8804811697600160b81b810490911696600160c81b820484169663ffffffff600160d01b84041696600160f01b909304909416941692906112279061297b565b80601f01602080910402602001604051908101604052809291908181526020018280546112539061297b565b80156112a05780601f10611275576101008083540402835291602001916112a0565b820191906000526020600020905b81548152906001019060200180831161128357829003601f168201915b5050505050905089565b600082815260016020819052604090912001546112c6816118ce565b6107b08383611bab565b60006112da611c12565b81600d8460ff16815481106112f1576112f1612a37565b9060005260206000209060030201600001601a6101000a81548163ffffffff021916908363ffffffff160217905550600d8360ff168154811061133657611336612a37565b6000918252602090912060039091020154600160d01b900463ffffffff169392505050565b7f0000000000000000000000000000000000000000000000000000000000000000611385816118ce565b506009805461ffff9092166101000262ffff0019909216919091179055565b6113ac611c12565b6001600160a01b0381166114115760405162461bcd60e51b815260206004820152602660248201527f4f776e61626c653a206e6577206f776e657220697320746865207a65726f206160448201526564647265737360d01b606482015260840161070f565b61141a81611c6c565b50565b60606105dc6001600160a01b03831660145b6060600061143e836002612a95565b611449906002612ab4565b67ffffffffffffffff81111561146157611461612537565b6040519080825280601f01601f19166020018201604052801561148b576020820181803683370190505b509050600360fc1b816000815181106114a6576114a6612a37565b60200101906001600160f81b031916908160001a905350600f60fb1b816001815181106114d5576114d5612a37565b60200101906001600160f81b031916908160001a90535060006114f9846002612a95565b611504906001612ab4565b90505b600181111561157c576f181899199a1a9b1b9c1cb0b131b232b360811b85600f166010811061153857611538612a37565b1a60f81b82828151811061154e5761154e612a37565b60200101906001600160f81b031916908160001a90535060049490941c9361157581612acc565b9050611507565b5083156115cb5760405162461bcd60e51b815260206004820181905260248201527f537472696e67733a20686578206c656e67746820696e73756666696369656e74604482015260640161070f565b9392505050565b60006001600160e01b031982166380ac58cd60e01b148061160357506001600160e01b03198216635b5e139f60e01b145b806105dc57506105dc82611eab565b6000818152600460205260409020546001600160a01b031661141a5760405162461bcd60e51b8152602060048201526018602482015277115490cdcc8c4e881a5b9d985b1a59081d1bdad95b88125160421b604482015260640161070f565b600081815260066020526040902080546001600160a01b0319166001600160a01b03841690811790915581906116a682610b27565b6001600160a01b03167f8c5be1e5ebec7d5bd14f71427d1e84f3dd0314c0f7b2291e5b200ac8c7c3b92560405160405180910390a45050565b6000806116eb83610b27565b9050806001600160a01b0316846001600160a01b0316148061173257506001600160a01b0380821660009081526007602090815260408083209388168352929052205460ff165b80610ff95750836001600160a01b031661174b84610674565b6001600160a01b031614949350505050565b826001600160a01b031661177082610b27565b6001600160a01b0316146117965760405162461bcd60e51b815260040161070f90612ae3565b6001600160a01b0382166117f85760405162461bcd60e51b8152602060048201526024808201527f4552433732313a207472616e7366657220746f20746865207a65726f206164646044820152637265737360e01b606482015260840161070f565b6118058383836001611ee0565b826001600160a01b031661181882610b27565b6001600160a01b03161461183e5760405162461bcd60e51b815260040161070f90612ae3565b600081815260066020908152604080832080546001600160a01b03199081169091556001600160a01b0387811680865260058552838620805460001901905590871680865283862080546001019055868652600490945282852080549092168417909155905184937fddf252ad1be2c89b69c2b068fc378daa952ba7f163c4a11628f55a4df523b3ef91a4505050565b61141a8133611f68565b6118e28282610c9a565b610aed5760008281526001602081815260408084206001600160a01b0386168086529252808420805460ff19169093179092559051339285917f2f8788117e7eff1d82e926ec794901d17c78024a50270940304540a733656f0d9190a45050565b6001600160a01b0382166119995760405162461bcd60e51b815260206004820181905260248201527f4552433732313a206d696e7420746f20746865207a65726f2061646472657373604482015260640161070f565b6000818152600460205260409020546001600160a01b0316156119fe5760405162461bcd60e51b815260206004820152601c60248201527f4552433732313a20746f6b656e20616c7265616479206d696e74656400000000604482015260640161070f565b611a0c600083836001611ee0565b6000818152600460205260409020546001600160a01b031615611a715760405162461bcd60e51b815260206004820152601c60248201527f4552433732313a20746f6b656e20616c7265616479206d696e74656400000000604482015260640161070f565b6001600160a01b038216600081815260056020908152604080832080546001019055848352600490915280822080546001600160a01b0319168417905551839291907fddf252ad1be2c89b69c2b068fc378daa952ba7f163c4a11628f55a4df523b3ef908290a45050565b7f0000000000000000000000000000000000000000000000000000000000000000611b06816118ce565b610ef8848484611cbc565b6000828152600460205260409020546001600160a01b0316611b8c5760405162461bcd60e51b815260206004820152602e60248201527f45524337323155524953746f726167653a2055524920736574206f66206e6f6e60448201526d32bc34b9ba32b73a103a37b5b2b760911b606482015260840161070f565b600082815260086020908152604090912082516107b0928401906122d0565b611bb58282610c9a565b15610aed5760008281526001602090815260408083206001600160a01b0385168085529252808320805460ff1916905551339285917ff6391f5c32d9c69d2a47ea670b442974b53935d1edc7fd64eb21e047a839171b9190a45050565b6000546001600160a01b03163314610c1f5760405162461bcd60e51b815260206004820181905260248201527f4f776e61626c653a2063616c6c6572206973206e6f7420746865206f776e6572604482015260640161070f565b600080546001600160a01b038381166001600160a01b0319831681178455604051919092169283917f8be0079c531659141344cd1fd0a4f28419497f9722a3daafe3b4186f6b6457e09190a35050565b816001600160a01b0316836001600160a01b031603611d1d5760405162461bcd60e51b815260206004820152601960248201527f4552433732313a20617070726f766520746f2063616c6c657200000000000000604482015260640161070f565b6001600160a01b03838116600081815260076020908152604080832094871680845294825291829020805460ff191686151590811790915591519182527f17307eab39ab6107e8899845ad3d59bd9653f200f220920489ca2b5937696c31910160405180910390a3505050565b611d9381611fc1565b60008181526008602052604090208054611dac9061297b565b15905061141a57600081815260086020526040812061141a91612354565b611dd584848461175d565b611de184848484612064565b610ef85760405162461bcd60e51b815260040161070f90612b28565b6060600b80546105f19061297b565b6060611e1782611612565b6000611e21611dfd565b90506000815111611e4157604051806020016040528060008152506115cb565b80611e4b84612165565b604051602001611e5c929190612a66565b6040516020818303038152906040529392505050565b6000600d8260ff1681548110611e8a57611e8a612a37565b6000918252602090912060039091020154600160f01b900460ff1692915050565b60006001600160e01b03198216637965db0b60e01b14806105dc57506301ffc9a760e01b6001600160e01b03198316146105dc565b6001811115610ef8576001600160a01b03841615611f26576001600160a01b03841660009081526005602052604081208054839290611f20908490612b7a565b90915550505b6001600160a01b03831615610ef8576001600160a01b03831660009081526005602052604081208054839290611f5d908490612ab4565b909155505050505050565b611f728282610c9a565b610aed57611f7f8161141d565b611f8a83602061142f565b604051602001611f9b929190612b91565b60408051601f198184030181529082905262461bcd60e51b825261070f9160040161242a565b6000611fcc82610b27565b9050611fdc816000846001611ee0565b611fe582610b27565b600083815260066020908152604080832080546001600160a01b03199081169091556001600160a01b0385168085526005845282852080546000190190558785526004909352818420805490911690555192935084927fddf252ad1be2c89b69c2b068fc378daa952ba7f163c4a11628f55a4df523b3ef908390a45050565b60006001600160a01b0384163b1561215a57604051630a85bd0160e11b81526001600160a01b0385169063150b7a02906120a8903390899088908890600401612c06565b6020604051808303816000875af19250505080156120e3575060408051601f3d908101601f191682019092526120e091810190612c43565b60015b612140573d808015612111576040519150601f19603f3d011682016040523d82523d6000602084013e612116565b606091505b5080516000036121385760405162461bcd60e51b815260040161070f90612b28565b805181602001fd5b6001600160e01b031916630a85bd0160e11b149050610ff9565b506001949350505050565b60606000612172836121f8565b600101905060008167ffffffffffffffff81111561219257612192612537565b6040519080825280601f01601f1916602001820160405280156121bc576020820181803683370190505b5090508181016020015b600019016f181899199a1a9b1b9c1cb0b131b232b360811b600a86061a8153600a85049450846121c657509392505050565b60008072184f03e93ff9f4daa797ed6e38ed64bf6a1f0160401b83106122375772184f03e93ff9f4daa797ed6e38ed64bf6a1f0160401b830492506040015b6d04ee2d6d415b85acef81000000008310612263576d04ee2d6d415b85acef8100000000830492506020015b662386f26fc10000831061228157662386f26fc10000830492506010015b6305f5e1008310612299576305f5e100830492506008015b61271083106122ad57612710830492506004015b606483106122bf576064830492506002015b600a83106105dc5760010192915050565b8280546122dc9061297b565b90600052602060002090601f0160209004810192826122fe5760008555612344565b82601f1061231757805160ff1916838001178555612344565b82800160010185558215612344579182015b82811115612344578251825591602001919060010190612329565b5061235092915061238a565b5090565b5080546123609061297b565b6000825580601f10612370575050565b601f01602090049060005260206000209081019061141a91905b5b80821115612350576000815560010161238b565b6001600160e01b03198116811461141a57600080fd5b6000602082840312156123c757600080fd5b81356115cb8161239f565b60005b838110156123ed5781810151838201526020016123d5565b83811115610ef85750506000910152565b600081518084526124168160208601602086016123d2565b601f01601f19169290920160200192915050565b6020815260006115cb60208301846123fe565b60006020828403121561244f57600080fd5b5035919050565b80356001600160a01b038116811461246d57600080fd5b919050565b6000806040838503121561248557600080fd5b61248e83612456565b946020939093013593505050565b6000806000606084860312156124b157600080fd5b6124ba84612456565b92506124c860208501612456565b9150604084013590509250925092565b600080604083850312156124eb57600080fd5b823591506124fb60208401612456565b90509250929050565b6002811061141a57600080fd5b803561ffff8116811461246d57600080fd5b803563ffffffff8116811461246d57600080fd5b634e487b7160e01b600052604160045260246000fd5b600067ffffffffffffffff8084111561256857612568612537565b604051601f8501601f19908116603f0116810190828211818310171561259057612590612537565b816040528093508581528686860111156125a957600080fd5b858560208301376000602087830101525050509392505050565b600082601f8301126125d457600080fd5b6115cb8383356020850161254d565b600080600080600080600060e0888a0312156125fe57600080fd5b61260788612456565b9650602088013561261781612504565b955061262560408901612511565b945061263360608901612511565b9350608088013561264381612504565b925061265160a08901612523565b915060c088013567ffffffffffffffff81111561266d57600080fd5b6126798a828b016125c3565b91505092959891949750929550565b634e487b7160e01b600052602160045260246000fd5b6002811061141a57634e487b7160e01b600052602160045260246000fd5b602081016126c98361269e565b91905290565b6000602082840312156126e157600080fd5b813567ffffffffffffffff8111156126f857600080fd5b610ff9848285016125c3565b60006020828403121561271657600080fd5b6115cb82612456565b803560ff8116811461246d57600080fd5b8035801515811461246d57600080fd5b6000806040838503121561275357600080fd5b61275c8361271f565b91506124fb60208401612730565b6000806040838503121561277d57600080fd5b6127868361271f565b9150602083013567ffffffffffffffff8111156127a257600080fd5b6127ae858286016125c3565b9150509250929050565b600080604083850312156127cb57600080fd5b61275c83612456565b6000602082840312156127e657600080fd5b6115cb8261271f565b6000806040838503121561280257600080fd5b61280b8361271f565b91506124fb60208401612456565b6000806000806080858703121561282f57600080fd5b61283885612456565b935061284660208601612456565b925060408501359150606085013567ffffffffffffffff81111561286957600080fd5b8501601f8101871361287a57600080fd5b6128898782356020840161254d565b91505092959194509250565b6001600160a01b038a81168252600090610120906128b28c61269e565b602084018c905261ffff8b811660408601528a1660608501526128d48961269e565b88608085015263ffffffff881660a085015286151560c085015280861660e0850152508061010084015261290a818401856123fe565b9c9b505050505050505050505050565b6000806040838503121561292d57600080fd5b6129368361271f565b91506124fb60208401612523565b6000806040838503121561295757600080fd5b61280b83612456565b60006020828403121561297257600080fd5b6115cb82612511565b600181811c9082168061298f57607f821691505b6020821081036129af57634e487b7160e01b600052602260045260246000fd5b50919050565b6020808252602d908201527f4552433732313a2063616c6c6572206973206e6f7420746f6b656e206f776e6560408201526c1c881bdc88185c1c1c9bdd9959609a1b606082015260800190565b634e487b7160e01b600052601160045260246000fd5b600060ff821660ff8103612a2e57612a2e612a02565b60010192915050565b634e487b7160e01b600052603260045260246000fd5b600060208284031215612a5f57600080fd5b5051919050565b60008351612a788184602088016123d2565b835190830190612a8c8183602088016123d2565b01949350505050565b6000816000190483118215151615612aaf57612aaf612a02565b500290565b60008219821115612ac757612ac7612a02565b500190565b600081612adb57612adb612a02565b506000190190565b60208082526025908201527f4552433732313a207472616e736665722066726f6d20696e636f72726563742060408201526437bbb732b960d91b606082015260800190565b60208082526032908201527f4552433732313a207472616e7366657220746f206e6f6e20455243373231526560408201527131b2b4bb32b91034b6b83632b6b2b73a32b960711b606082015260800190565b600082821015612b8c57612b8c612a02565b500390565b7f416363657373436f6e74726f6c3a206163636f756e7420000000000000000000815260008351612bc98160178501602088016123d2565b7001034b99036b4b9b9b4b733903937b6329607d1b6017918401918201528351612bfa8160288401602088016123d2565b01602801949350505050565b6001600160a01b0385811682528416602082015260408101839052608060608201819052600090612c39908301846123fe565b9695505050505050565b600060208284031215612c5557600080fd5b81516115cb8161239f56fea26469706673582212202d5edcae4d0bc93133e1ba27571b8435b62642975ec43fc21826025396d071c864736f6c634300080e0033",
  "linkReferences": {},
  "deployedLinkReferences": {}
}