{
	"data": {
		"bytecode": {
			"linkReferences": {},
			"object": "60a06040527f9f2df0fed2c77648de5860a4cc508cd0818c85b8b8a1ab4ceeef8d981c8956a6608052600a80546bffffffff000000ffffffffff19166a0138800000000007e701011790553480156200005757600080fd5b5060405162004c1938038062004c198339810160408190526200007a916200033b565b60405180606001604052806027815260200162004bf2602791393384620000a182620000d6565b620000ae60008362000126565b608051620000bd908262000126565b50620000cb905081620001af565b505050505062000407565b600080546001600160a01b038381166001600160a01b0319831681178455604051919092169283917f8be0079c531659141344cd1fd0a4f28419497f9722a3daafe3b4186f6b6457e09190a35050565b60008281526001602090815260408083206001600160a01b038516845290915290205460ff16620001ab5760008281526001602081815260408084206001600160a01b0386168086529252808420805460ff19169093179092559051339285917f2f8788117e7eff1d82e926ec794901d17c78024a50270940304540a733656f0d9190a45b5050565b8051620001ab906004906020840190828054620001cc90620003cb565b90600052602060002090601f016020900481019282620001f057600085556200023b565b82601f106200020b57805160ff19168380011785556200023b565b828001600101855582156200023b579182015b828111156200023b5782518255916020019190600101906200021e565b50620002499291506200024d565b5090565b5b808211156200024957600081556001016200024e565b80516001600160a01b03811681146200027c57600080fd5b919050565b634e487b7160e01b600052604160045260246000fd5b600082601f830112620002a957600080fd5b815160206001600160401b0380831115620002c857620002c862000281565b8260051b604051601f19603f83011681018181108482111715620002f057620002f062000281565b6040529384528581018301938381019250878511156200030f57600080fd5b83870191505b84821015620003305781518352918301919083019062000315565b979650505050505050565b600080600080608085870312156200035257600080fd5b6200035d8562000264565b93506200036d6020860162000264565b60408601519093506001600160401b03808211156200038b57600080fd5b620003998883890162000297565b93506060870151915080821115620003b057600080fd5b50620003bf8782880162000297565b91505092959194509250565b600181811c90821680620003e057607f821691505b6020821081036200040157634e487b7160e01b600052602260045260246000fd5b50919050565b6080516147ba620004386000396000818161054101528181611b810152818161211b01526129ef01526147ba6000f3fe608060405234801561001057600080fd5b50600436106102685760003560e01c80638ec3ca1411610151578063dbcd5b60116100c3578063f242432a11610087578063f242432a14610659578063f2fde38b1461066c578063f5298aca1461067f578063f70efa9714610692578063fa7a02a5146106a5578063fc851323146106d257600080fd5b8063dbcd5b6014610576578063e985e9c5146105e6578063ea3994bc14610622578063ed00892114610635578063f0e404c01461063d57600080fd5b8063a768396a11610115578063a768396a146104ee578063a9f920ed146104f6578063b61e95f014610509578063c781b9491461051c578063d53913931461053c578063d547741f1461056357600080fd5b80638ec3ca14146104a457806391d14854146104ad5780639727756a146104c0578063a217fddf146104d3578063a22cb465146104db57600080fd5b80632f2ff15d116101ea57806358609177116101ae578063586091771461042d57806358d572a4146104525780636b20c45414610465578063715018a614610478578063764c1d96146104805780638da5cb5b1461049357600080fd5b80632f2ff15d146103a857806336568abe146103bb57806344de240a146103ce5780634b5e91d4146103ed5780634e1273f41461040d57600080fd5b806313516037116102315780631351603714610310578063219a1d7714610325578063248a9ca31461034a5780632d9c98dc1461036e5780632eb2c2d61461039557600080fd5b8062fdd58e1461026d57806301ffc9a714610293578063072a27a7146102b65780630b5a006b146102dc5780630e89341c146102f0575b600080fd5b61028061027b366004613493565b6106e0565b6040519081526020015b60405180910390f35b6102a66102a13660046134d3565b610778565b604051901515815260200161028a565b6102c96102c436600461352e565b610789565b60405161ffff909116815260200161028a565b600a546102c99062010000900461ffff1681565b6103036102fe366004613575565b61086d565b60405161028a91906135e6565b61032361031e36600461360a565b610901565b005b6000546001600160a01b03165b6040516001600160a01b03909116815260200161028a565b610280610358366004613575565b6000908152600160208190526040909120015490565b61038161037c36600461363d565b61093f565b60405161028a98979695949392919061369a565b6103236103a33660046138ba565b610b5a565b6103236103b6366004613963565b610ba6565b6103236103c9366004613963565b610bd1565b600a546103db9060ff1681565b60405160ff909116815260200161028a565b6104006103fb366004613986565b610c4f565b60405161028a91906139a1565b61042061041b366004613a07565b610db3565b60405161028a9190613b0c565b600f5461043d9063ffffffff1681565b60405163ffffffff909116815260200161028a565b610323610460366004613c18565b610edc565b610323610473366004613cb4565b61161b565b61032361165e565b61040061048e366004613d27565b611672565b6000546001600160a01b0316610332565b61028060055481565b6102a66104bb366004613963565b611b54565b6103236104ce366004613e34565b611b7f565b610280600081565b6103236104e9366004613eb4565b611c7c565b610303611c87565b610323610504366004613ede565b611d15565b61043d61051736600461363d565b611dba565b61052f61052a366004613f3b565b611e03565b60405161028a9190613f65565b6102807f000000000000000000000000000000000000000000000000000000000000000081565b610323610571366004613963565b6120f3565b6105d461058436600461402c565b600d6020526000908152604090205463ffffffff8082169160ff600160201b820481169261ffff600160281b84041692600160381b810490911691600160581b8204811691600160601b90041686565b60405161028a96959493929190614047565b6102a66105f436600461409a565b6001600160a01b03918216600090815260036020908152604080832093909416825291909152205460ff1690565b61032361063036600461402c565b612119565b610303612164565b600a5461043d9068010000000000000000900463ffffffff1681565b6103236106673660046140c4565b612171565b61032361067a366004614128565b6121b6565b61032361068d366004614143565b61222f565b6104006106a036600461360a565b612272565b6103db6106b3366004613986565b60ff9081166000908152600d6020526040902054600160601b90041690565b6008546102c99061ffff1681565b60006001600160a01b0383166107505760405162461bcd60e51b815260206004820152602a60248201527f455243313135353a2061646472657373207a65726f206973206e6f742061207660448201526930b634b21037bbb732b960b11b60648201526084015b60405180910390fd5b5060009081526002602090815260408083206001600160a01b03949094168352929052205490565b6000610783826123dd565b92915050565b600061079361241d565b620138808363ffffffff1611156107d75760405162461bcd60e51b81526020600482015260086024820152673830252072756c6560c01b6044820152606401610747565b600a54610100900460ff166000908152600d6020526040902080548390829064ff000000001916600160201b83600181111561081557610815613659565b0217905550805463ffffffff8516600160381b026affffffff000000ffffffff1961ffff8816600160281b02166affffffffffff00ffffffff199092169190911717905550600a5460ff610100909104169392505050565b60606004805461087c90614176565b80601f01602080910402602001604051908101604052809291908181526020018280546108a890614176565b80156108f55780601f106108ca576101008083540402835291602001916108f5565b820191906000526020600020905b8154815290600101906020018083116108d857829003601f168201915b50505050509050919050565b61090961241d565b60ff9091166000908152600d60205260409020805461ffff92909216600160281b0266ffff000000000019909216919091179055565b600c602052816000526040600020818154811061095b57600080fd5b90600052602060002090600502016000915091505080600001805461097f90614176565b80601f01602080910402602001604051908101604052809291908181526020018280546109ab90614176565b80156109f85780601f106109cd576101008083540402835291602001916109f8565b820191906000526020600020905b8154815290600101906020018083116109db57829003601f168201915b505050505090806001018054610a0d90614176565b80601f0160208091040260200160405190810160405280929190818152602001828054610a3990614176565b8015610a865780601f10610a5b57610100808354040283529160200191610a86565b820191906000526020600020905b815481529060010190602001808311610a6957829003601f168201915b5050505060028301546003840154600485018054949560ff808516966101009095046001600160a01b039081169650841694600160a01b8504821694600160a81b90049091169290610ad790614176565b80601f0160208091040260200160405190810160405280929190818152602001828054610b0390614176565b8015610b505780601f10610b2557610100808354040283529160200191610b50565b820191906000526020600020905b815481529060010190602001808311610b3357829003601f168201915b5050505050905088565b6001600160a01b038516331480610b765750610b7685336105f4565b610b925760405162461bcd60e51b8152600401610747906141b0565b610b9f8585858585612477565b5050505050565b60008281526001602081905260409091200154610bc28161260e565b610bcc8383612618565b505050565b6001600160a01b0381163314610c415760405162461bcd60e51b815260206004820152602f60248201527f416363657373436f6e74726f6c3a2063616e206f6e6c792072656e6f756e636560448201526e103937b632b9903337b91039b2b63360891b6064820152608401610747565b610c4b8282612683565b5050565b610c7e6040805160a0810182526060808252600060208301819052928201839052810182905290608082015290565b60ff82166000908152600b6020526040812080548290610ca057610ca06141fe565b90600052602060002090600202019050806040518060a0016040529081600082018054610ccc90614176565b80601f0160208091040260200160405190810160405280929190818152602001828054610cf890614176565b8015610d455780601f10610d1a57610100808354040283529160200191610d45565b820191906000526020600020905b815481529060010190602001808311610d2857829003601f168201915b505050918352505060018281015461ffff808216602085015262010000820481166040850152600160201b8204166060840152608090920191600160301b900460ff1690811115610d9857610d98613659565b6001811115610da957610da9613659565b9052509392505050565b60608151835114610e185760405162461bcd60e51b815260206004820152602960248201527f455243313135353a206163636f756e747320616e6420696473206c656e677468604482015268040dad2e6dac2e8c6d60bb1b6064820152608401610747565b600083516001600160401b03811115610e3357610e33613723565b604051908082528060200260200182016040528015610e5c578160200160208202803683370190505b50905060005b8451811015610ed457610ea7858281518110610e8057610e806141fe565b6020026020010151858381518110610e9a57610e9a6141fe565b60200260200101516106e0565b828281518110610eb957610eb96141fe565b6020908102919091010152610ecd8161422a565b9050610e62565b509392505050565b61ffff83166000908152600d60205260409020805463ffffffff600160381b90910481169087161115610f415760405162461bcd60e51b815260206004820152600d60248201526c6e6f7420616c6c6f776564202560981b6044820152606401610747565b60408051808201909152600381526269643160e81b6020820152600a54610f6b919060ff166126ea565b600a5460ff1660010361119d57600c60008561ffff1661ffff168152602001908152602001600020604051806101000160405280876000015181526020018760200151815260200187604001516001811115610fc957610fc9613659565b815260200187606001516001600160a01b0316815260200187608001516001600160a01b031681526020018760a00151600181111561100a5761100a613659565b815260c0880151151560208083019190915260e089015160409092019190915282546001810184556000938452928190208251805193946005029091019261105592849201906133de565b50602082810151805161106e92600185019201906133de565b50604082015160028201805460ff19166001838181111561109157611091613659565b021790555060608201516002820180546001600160a01b0392831661010002610100600160a81b03199091161790556080830151600383018054919092166001600160a01b031982168117835560a085015192916001600160a81b03191617600160a01b83600181111561110757611107613659565b021790555060c0820151600382018054911515600160a81b0260ff60a81b1990921691909117905560e0820151805161114a9160048401916020909101906133de565b50505061ffff84166000908152600e602090815260408220805460018101825590835291206008820401805460079092166004026101000a63ffffffff8181021990931692891602919091179055611567565b61ffff84166000908152600c60205260409020546111ba9061272f565b60005b61ffff85166000908152600c602052604090205460ff821610156113455761ffff85166000908152600c60205260408120805460ff8416908110611203576112036141fe565b906000526020600020906005020160000190506112a881805461122590614176565b80601f016020809104026020016040519081016040528092919081815260200182805461125190614176565b801561129e5780601f106112735761010080835404028352916020019161129e565b820191906000526020600020905b81548152906001019060200180831161128157829003601f168201915b5050505050612774565b806040516020016112b99190614243565b60408051601f19818403018152908290528051602091820120895190926112e092016142de565b60405160208183030381529060405280519060200120036113325760405162461bcd60e51b815260206004820152600c60248201526b61737365742065786973747360a01b6044820152606401610747565b508061133d816142fa565b9150506111bd565b50600c60008561ffff1661ffff16815260200190815260200160002060405180610100016040528087600001518152602001876020015181526020018760400151600181111561139757611397613659565b815260200187606001516001600160a01b0316815260200187608001516001600160a01b031681526020018760a0015160018111156113d8576113d8613659565b815260c0880151151560208083019190915260e089015160409092019190915282546001810184556000938452928190208251805193946005029091019261142392849201906133de565b50602082810151805161143c92600185019201906133de565b50604082015160028201805460ff19166001838181111561145f5761145f613659565b021790555060608201516002820180546001600160a01b0392831661010002610100600160a81b03199091161790556080830151600383018054919092166001600160a01b031982168117835560a085015192916001600160a81b03191617600160a01b8360018111156114d5576114d5613659565b021790555060c0820151600382018054911515600160a81b0260ff60a81b1990921691909117905560e082015180516115189160048401916020909101906133de565b50505061ffff84166000908152600e602090815260408220805460018101825590835291206008820401805460079092166004026101000a63ffffffff81810219909316928916029190911790555b611570846127b7565b506115908560800151848460405180602001604052806000815250612867565b6115a085608001513360016129ed565b600a805460ff169060006115b3836142fa565b82546101009290920a60ff8181021990931691831602179091556040805180820190915260028152611a5960f21b6020820152600a546115f693509091166126ea565b61ffff84166000908152600c60205260409020546116139061272f565b505050505050565b6001600160a01b038316331480611637575061163783336105f4565b6116535760405162461bcd60e51b8152600401610747906141b0565b610bcc838383612a28565b61166661241d565b6116706000612bb5565b565b6116a16040805160a0810182526060808252600060208301819052928201839052810182905290608082015290565b60ff8083166000908152600d6020526040902080549091600160281b820461ffff16916116d891600160601b909104166001614319565b60ff1611156117145760405162461bcd60e51b8152602060048201526008602482015267195e18d95959195960c21b6044820152606401610747565b8360800151600181111561172a5761172a613659565b8154600160201b900460ff16600181111561174757611747613659565b1461177f5760405162461bcd60e51b8152602060048201526008602482015267191a59999ddbdbd960c21b6044820152606401610747565b8054600160601b900460ff166000036118f557600b60008460ff1661ffff1681526020019081526020016000206040518060a0016040528086600001518152602001866020015161ffff168152602001866040015161ffff168152602001866060015161ffff1681526020018660800151600181111561180157611801613659565b90528154600181018355600092835260209283902082518051939460029093029091019261183292849201906133de565b506020820151600180830180546040860151606087015161ffff908116600160201b0265ffff0000000019928216620100000263ffffffff1990941691909616179190911790811684178255608086015193919266ff0000000000001990921666ffffff00000000199091161790600160301b9084908111156118b7576118b7613659565b0217905550508154600160601b900460ff16905081600c6118d7836142fa565b91906101000a81548160ff021916908360ff16021790555050611b4d565b60ff83166000908152600b6020526040812080548290611917576119176141fe565b906000526020600020906002020190508060010160069054906101000a900460ff16600181111561194a5761194a613659565b8560800151600181111561196057611960613659565b1461199e5760405162461bcd60e51b815260206004820152600e60248201526d3bb7b7b2103a3cb832903730b4b360911b6044820152606401610747565b6001810154602086015161ffff9081169116146119ed5760405162461bcd60e51b815260206004820152600d60248201526c383637ba1030b3b2903730b4b360991b6044820152606401610747565b600b60008560ff1661ffff1681526020019081526020016000206040518060a0016040528087600001518152602001876020015161ffff168152602001876040015161ffff168152602001876060015161ffff16815260200187608001516001811115611a5c57611a5c613659565b905281546001810183556000928352602092839020825180519394600290930290910192611a8d92849201906133de565b506020820151600180830180546040860151606087015161ffff908116600160201b0265ffff0000000019928216620100000263ffffffff1990941691909616179190911790811684178255608086015193919266ff0000000000001990921666ffffff00000000199091161790600160301b908490811115611b1257611b12613659565b0217905550508254600160601b900460ff16905082600c611b32836142fa565b91906101000a81548160ff021916908360ff16021790555050505b5092915050565b60009182526001602090815260408084206001600160a01b0393909316845291905290205460ff1690565b7f0000000000000000000000000000000000000000000000000000000000000000611ba98161260e565b600a805460009160ff9091169082611bc0836142fa565b91906101000a81548160ff021916908360ff1602179055509050611c678787878080602002602001604051908101604052809392919081815260200183836020028082843760009201919091525050604080516020808b0282810182019093528a82529093508a925089918291850190849080828437600092019190915250506040805180820190915260078152666d696e74696e6760c81b602082015291506128679050565b611c73873360016129ed565b50505050505050565b610c4b338383612c05565b60078054611c9490614176565b80601f0160208091040260200160405190810160405280929190818152602001828054611cc090614176565b8015611d0d5780601f10611ce257610100808354040283529160200191611d0d565b820191906000526020600020905b815481529060010190602001808311611cf057829003601f168201915b505050505081565b60ff81166000908152600d60205260409020805463ffffffff600160381b90910481169084161115611d9d5760405162461bcd60e51b815260206004820152602b60248201527f666c6f72657374206e6f7420616c6c6f77656420746f20746f6b656e697a652060448201526a1d1a1a5cc8185b5bdd5b9d60aa1b6064820152608401610747565b805463ffffffff191663ffffffff93909316929092179091555050565b600e6020528160005260406000208181548110611dd657600080fd5b9060005260206000209060089182820401919006600402915091509054906101000a900463ffffffff1681565b611e4c6040805161010081018252606080825260208201529081016000815260006020820181905260408201819052606090910190815260006020820152606060409091015290565b61ffff83166000908152600c60205260409020805460ff8416908110611e7457611e746141fe565b906000526020600020906005020160405180610100016040529081600082018054611e9e90614176565b80601f0160208091040260200160405190810160405280929190818152602001828054611eca90614176565b8015611f175780601f10611eec57610100808354040283529160200191611f17565b820191906000526020600020905b815481529060010190602001808311611efa57829003601f168201915b50505050508152602001600182018054611f3090614176565b80601f0160208091040260200160405190810160405280929190818152602001828054611f5c90614176565b8015611fa95780601f10611f7e57610100808354040283529160200191611fa9565b820191906000526020600020905b815481529060010190602001808311611f8c57829003601f168201915b5050509183525050600282015460209091019060ff166001811115611fd057611fd0613659565b6001811115611fe157611fe1613659565b8152600282015461010090046001600160a01b03908116602083015260038301549081166040830152606090910190600160a01b900460ff16600181111561202b5761202b613659565b600181111561203c5761203c613659565b81526003820154600160a81b900460ff161515602082015260048201805460409092019161206990614176565b80601f016020809104026020016040519081016040528092919081815260200182805461209590614176565b80156120e25780601f106120b7576101008083540402835291602001916120e2565b820191906000526020600020905b8154815290600101906020018083116120c557829003601f168201915b505050505081525050905092915050565b6000828152600160208190526040909120015461210f8161260e565b610bcc8383612683565b7f00000000000000000000000000000000000000000000000000000000000000006121438161260e565b50600a805461ffff909216620100000263ffff000019909216919091179055565b60068054611c9490614176565b6001600160a01b03851633148061218d575061218d85336105f4565b6121a95760405162461bcd60e51b8152600401610747906141b0565b610b9f8585858585612ce5565b6121be61241d565b6001600160a01b0381166122235760405162461bcd60e51b815260206004820152602660248201527f4f776e61626c653a206e6577206f776e657220697320746865207a65726f206160448201526564647265737360d01b6064820152608401610747565b61222c81612bb5565b50565b6001600160a01b03831633148061224b575061224b83336105f4565b6122675760405162461bcd60e51b8152600401610747906141b0565b610bcc838383612e13565b6122a16040805160a0810182526060808252600060208301819052928201839052810182905290608082015290565b60ff83166000908152600b60205260408120805461ffff85169081106122c9576122c96141fe565b90600052602060002090600202019050806040518060a00160405290816000820180546122f590614176565b80601f016020809104026020016040519081016040528092919081815260200182805461232190614176565b801561236e5780601f106123435761010080835404028352916020019161236e565b820191906000526020600020905b81548152906001019060200180831161235157829003601f168201915b505050918352505060018281015461ffff808216602085015262010000820481166040850152600160201b8204166060840152608090920191600160301b900460ff16908111156123c1576123c1613659565b60018111156123d2576123d2613659565b905250949350505050565b60006001600160e01b03198216636cdb3d1360e11b148061240e57506001600160e01b031982166303a24d0760e21b145b80610783575061078382612f1a565b6000546001600160a01b031633146116705760405162461bcd60e51b815260206004820181905260248201527f4f776e61626c653a2063616c6c6572206973206e6f7420746865206f776e65726044820152606401610747565b81518351146124985760405162461bcd60e51b81526004016107479061433e565b6001600160a01b0384166124be5760405162461bcd60e51b815260040161074790614386565b3360005b84518110156125a85760008582815181106124df576124df6141fe565b6020026020010151905060008583815181106124fd576124fd6141fe565b60209081029190910181015160008481526002835260408082206001600160a01b038e16835290935291909120549091508181101561254e5760405162461bcd60e51b8152600401610747906143cb565b60008381526002602090815260408083206001600160a01b038e8116855292528083208585039055908b1682528120805484929061258d908490614415565b92505081905550505050806125a19061422a565b90506124c2565b50846001600160a01b0316866001600160a01b0316826001600160a01b03167f4a39dc06d4c0dbc64b70af90fd698a233a518aa5d07e595d983b8c0526c8f7fb87876040516125f892919061442d565b60405180910390a4611613818787878787612f4f565b61222c81336130aa565b6126228282611b54565b610c4b5760008281526001602081815260408084206001600160a01b0386168086529252808420805460ff19169093179092559051339285917f2f8788117e7eff1d82e926ec794901d17c78024a50270940304540a733656f0d9190a45050565b61268d8282611b54565b15610c4b5760008281526001602090815260408083206001600160a01b0385168085529252808320805460ff1916905551339285917ff6391f5c32d9c69d2a47ea670b442974b53935d1edc7fd64eb21e047a839171b9190a45050565b610c4b828260405160240161270092919061445b565b60408051601f198184030181529190526020810180516001600160e01b0316632d839cb360e21b179052613103565b61222c8160405160240161274591815260200190565b60408051601f198184030181529190526020810180516001600160e01b031663f82c50f160e01b179052613103565b61222c8160405160240161278891906135e6565b60408051601f198184030181529190526020810180516001600160e01b031663104c13eb60e21b179052613103565b61ffff81166000908152600960209081526040808320600e909252822082805b825460ff821610156128505761ffff86166000908152600e60205260409020805460ff831690811061280b5761280b6141fe565b90600052602060002090600891828204019190066004029054906101000a900463ffffffff168261283c919061447d565b915080612848816142fa565b9150506127d7565b506201388063ffffffff9091161115949350505050565b6001600160a01b0384166128c75760405162461bcd60e51b815260206004820152602160248201527f455243313135353a206d696e7420746f20746865207a65726f206164647265736044820152607360f81b6064820152608401610747565b81518351146128e85760405162461bcd60e51b81526004016107479061433e565b3360005b845181101561298557838181518110612907576129076141fe565b602002602001015160026000878481518110612925576129256141fe565b602002602001015181526020019081526020016000206000886001600160a01b03166001600160a01b03168152602001908152602001600020600082825461296d9190614415565b9091555081905061297d8161422a565b9150506128ec565b50846001600160a01b031660006001600160a01b0316826001600160a01b03167f4a39dc06d4c0dbc64b70af90fd698a233a518aa5d07e595d983b8c0526c8f7fb87876040516129d692919061442d565b60405180910390a4610b9f81600087878787612f4f565b7f0000000000000000000000000000000000000000000000000000000000000000612a178161260e565b612a22848484612c05565b50505050565b6001600160a01b038316612a4e5760405162461bcd60e51b8152600401610747906144a5565b8051825114612a6f5760405162461bcd60e51b81526004016107479061433e565b604080516020810190915260009081905233905b8351811015612b48576000848281518110612aa057612aa06141fe565b602002602001015190506000848381518110612abe57612abe6141fe565b60209081029190910181015160008481526002835260408082206001600160a01b038c168352909352919091205490915081811015612b0f5760405162461bcd60e51b8152600401610747906144e8565b60009283526002602090815260408085206001600160a01b038b1686529091529092209103905580612b408161422a565b915050612a83565b5060006001600160a01b0316846001600160a01b0316826001600160a01b03167f4a39dc06d4c0dbc64b70af90fd698a233a518aa5d07e595d983b8c0526c8f7fb8686604051612b9992919061442d565b60405180910390a4604080516020810190915260009052612a22565b600080546001600160a01b038381166001600160a01b0319831681178455604051919092169283917f8be0079c531659141344cd1fd0a4f28419497f9722a3daafe3b4186f6b6457e09190a35050565b816001600160a01b0316836001600160a01b031603612c785760405162461bcd60e51b815260206004820152602960248201527f455243313135353a2073657474696e6720617070726f76616c20737461747573604482015268103337b91039b2b63360b91b6064820152608401610747565b6001600160a01b03838116600081815260036020908152604080832094871680845294825291829020805460ff191686151590811790915591519182527f17307eab39ab6107e8899845ad3d59bd9653f200f220920489ca2b5937696c31910160405180910390a3505050565b6001600160a01b038416612d0b5760405162461bcd60e51b815260040161074790614386565b336000612d1785613124565b90506000612d2485613124565b905060008681526002602090815260408083206001600160a01b038c16845290915290205485811015612d695760405162461bcd60e51b8152600401610747906143cb565b60008781526002602090815260408083206001600160a01b038d8116855292528083208985039055908a16825281208054889290612da8908490614415565b909155505060408051888152602081018890526001600160a01b03808b16928c821692918816917fc3d58168c5ae7397731d063d5bbf3d657854427343f4c083240f7aacaa2d0f62910160405180910390a4612e08848a8a8a8a8a61316f565b505050505050505050565b6001600160a01b038316612e395760405162461bcd60e51b8152600401610747906144a5565b336000612e4584613124565b90506000612e5284613124565b6040805160208082018352600091829052888252600281528282206001600160a01b038b1683529052205490915084811015612ea05760405162461bcd60e51b8152600401610747906144e8565b60008681526002602090815260408083206001600160a01b038b81168086529184528285208a8703905582518b81529384018a90529092908816917fc3d58168c5ae7397731d063d5bbf3d657854427343f4c083240f7aacaa2d0f62910160405180910390a4604080516020810190915260009052611c73565b60006001600160e01b03198216637965db0b60e01b148061078357506301ffc9a760e01b6001600160e01b0319831614610783565b6001600160a01b0384163b156116135760405163bc197c8160e01b81526001600160a01b0385169063bc197c8190612f93908990899088908890889060040161452c565b6020604051808303816000875af1925050508015612fce575060408051601f3d908101601f19168201909252612fcb9181019061458a565b60015b61307a57612fda6145a7565b806308c379a0036130135750612fee6145c3565b80612ff95750613015565b8060405162461bcd60e51b815260040161074791906135e6565b505b60405162461bcd60e51b815260206004820152603460248201527f455243313135353a207472616e7366657220746f206e6f6e2d455243313135356044820152732932b1b2b4bb32b91034b6b83632b6b2b73a32b960611b6064820152608401610747565b6001600160e01b0319811663bc197c8160e01b14611c735760405162461bcd60e51b81526004016107479061464c565b6130b48282611b54565b610c4b576130c18161322a565b6130cc83602061323c565b6040516020016130dd929190614694565b60408051601f198184030181529082905262461bcd60e51b8252610747916004016135e6565b80516a636f6e736f6c652e6c6f67602083016000808483855afa5050505050565b6040805160018082528183019092526060916000919060208083019080368337019050509050828160008151811061315e5761315e6141fe565b602090810291909101015292915050565b6001600160a01b0384163b156116135760405163f23a6e6160e01b81526001600160a01b0385169063f23a6e61906131b39089908990889088908890600401614709565b6020604051808303816000875af19250505080156131ee575060408051601f3d908101601f191682019092526131eb9181019061458a565b60015b6131fa57612fda6145a7565b6001600160e01b0319811663f23a6e6160e01b14611c735760405162461bcd60e51b81526004016107479061464c565b60606107836001600160a01b03831660145b6060600061324b83600261474e565b613256906002614415565b6001600160401b0381111561326d5761326d613723565b6040519080825280601f01601f191660200182016040528015613297576020820181803683370190505b509050600360fc1b816000815181106132b2576132b26141fe565b60200101906001600160f81b031916908160001a905350600f60fb1b816001815181106132e1576132e16141fe565b60200101906001600160f81b031916908160001a905350600061330584600261474e565b613310906001614415565b90505b6001811115613388576f181899199a1a9b1b9c1cb0b131b232b360811b85600f1660108110613344576133446141fe565b1a60f81b82828151811061335a5761335a6141fe565b60200101906001600160f81b031916908160001a90535060049490941c936133818161476d565b9050613313565b5083156133d75760405162461bcd60e51b815260206004820181905260248201527f537472696e67733a20686578206c656e67746820696e73756666696369656e746044820152606401610747565b9392505050565b8280546133ea90614176565b90600052602060002090601f01602090048101928261340c5760008555613452565b82601f1061342557805160ff1916838001178555613452565b82800160010185558215613452579182015b82811115613452578251825591602001919060010190613437565b5061345e929150613462565b5090565b5b8082111561345e5760008155600101613463565b80356001600160a01b038116811461348e57600080fd5b919050565b600080604083850312156134a657600080fd5b6134af83613477565b946020939093013593505050565b6001600160e01b03198116811461222c57600080fd5b6000602082840312156134e557600080fd5b81356133d7816134bd565b803561ffff8116811461348e57600080fd5b803563ffffffff8116811461348e57600080fd5b6002811061222c57600080fd5b803561348e81613516565b60008060006060848603121561354357600080fd5b61354c846134f0565b925061355a60208501613502565b9150604084013561356a81613516565b809150509250925092565b60006020828403121561358757600080fd5b5035919050565b60005b838110156135a9578181015183820152602001613591565b83811115612a225750506000910152565b600081518084526135d281602086016020860161358e565b601f01601f19169290920160200192915050565b6020815260006133d760208301846135ba565b803560ff8116811461348e57600080fd5b6000806040838503121561361d57600080fd5b613626836135f9565b9150613634602084016134f0565b90509250929050565b6000806040838503121561365057600080fd5b6134af836134f0565b634e487b7160e01b600052602160045260246000fd5b6002811061222c57634e487b7160e01b600052602160045260246000fd5b6136968161366f565b9052565b60006101008083526136ae8184018c6135ba565b905082810360208401526136c2818b6135ba565b90506136cd8961366f565b604083018990526001600160a01b038881166060850152871660808401526136f48661366f565b8560a084015284151560c084015282810360e084015261371481856135ba565b9b9a5050505050505050505050565b634e487b7160e01b600052604160045260246000fd5b60a081018181106001600160401b038211171561375857613758613723565b60405250565b601f8201601f191681016001600160401b038111828210171561378357613783613723565b6040525050565b60405161010081016001600160401b03811182821017156137ad576137ad613723565b60405290565b60006001600160401b038211156137cc576137cc613723565b5060051b60200190565b600082601f8301126137e757600080fd5b813560206137f4826137b3565b604051613801828261375e565b83815260059390931b850182019282810191508684111561382157600080fd5b8286015b8481101561383c5780358352918301918301613825565b509695505050505050565b600082601f83011261385857600080fd5b81356001600160401b0381111561387157613871613723565b604051613888601f8301601f19166020018261375e565b81815284602083860101111561389d57600080fd5b816020850160208301376000918101602001919091529392505050565b600080600080600060a086880312156138d257600080fd5b6138db86613477565b94506138e960208701613477565b935060408601356001600160401b038082111561390557600080fd5b61391189838a016137d6565b9450606088013591508082111561392757600080fd5b61393389838a016137d6565b9350608088013591508082111561394957600080fd5b5061395688828901613847565b9150509295509295909350565b6000806040838503121561397657600080fd5b8235915061363460208401613477565b60006020828403121561399857600080fd5b6133d7826135f9565b602081526000825160a060208401526139bd60c08401826135ba565b9050602084015161ffff8082166040860152806040870151166060860152806060870151166080860152505060808401516139f78161366f565b60a0939093019290925250919050565b60008060408385031215613a1a57600080fd5b82356001600160401b0380821115613a3157600080fd5b818501915085601f830112613a4557600080fd5b81356020613a52826137b3565b604051613a5f828261375e565b83815260059390931b8501820192828101915089841115613a7f57600080fd5b948201945b83861015613aa457613a9586613477565b82529482019490820190613a84565b96505086013592505080821115613aba57600080fd5b50613ac7858286016137d6565b9150509250929050565b600081518084526020808501945080840160005b83811015613b0157815187529582019590820190600101613ae5565b509495945050505050565b6020815260006133d76020830184613ad1565b8035801515811461348e57600080fd5b60006101008284031215613b4257600080fd5b613b4a61378a565b905081356001600160401b0380821115613b6357600080fd5b613b6f85838601613847565b83526020840135915080821115613b8557600080fd5b613b9185838601613847565b6020840152613ba260408501613523565b6040840152613bb360608501613477565b6060840152613bc460808501613477565b6080840152613bd560a08501613523565b60a0840152613be660c08501613b1f565b60c084015260e0840135915080821115613bff57600080fd5b50613c0c84828501613847565b60e08301525092915050565b600080600080600060a08688031215613c3057600080fd5b613c3986613502565b945060208601356001600160401b0380821115613c5557600080fd5b613c6189838a01613b2f565b9550613c6f604089016134f0565b94506060880135915080821115613c8557600080fd5b613c9189838a016137d6565b93506080880135915080821115613ca757600080fd5b50613956888289016137d6565b600080600060608486031215613cc957600080fd5b613cd284613477565b925060208401356001600160401b0380821115613cee57600080fd5b613cfa878388016137d6565b93506040860135915080821115613d1057600080fd5b50613d1d868287016137d6565b9150509250925092565b60008060408385031215613d3a57600080fd5b82356001600160401b0380821115613d5157600080fd5b9084019060a08287031215613d6557600080fd5b604051613d7181613739565b823582811115613d8057600080fd5b613d8c88828601613847565b825250613d9b602084016134f0565b6020820152613dac604084016134f0565b6040820152613dbd606084016134f0565b606082015260808301359250613dd283613516565b6080810192909252509150613634602084016135f9565b60008083601f840112613dfb57600080fd5b5081356001600160401b03811115613e1257600080fd5b6020830191508360208260051b8501011115613e2d57600080fd5b9250929050565b600080600080600060608688031215613e4c57600080fd5b613e5586613477565b945060208601356001600160401b0380821115613e7157600080fd5b613e7d89838a01613de9565b90965094506040880135915080821115613e9657600080fd5b50613ea388828901613de9565b969995985093965092949392505050565b60008060408385031215613ec757600080fd5b613ed083613477565b915061363460208401613b1f565b600080600060608486031215613ef357600080fd5b83356001600160401b03811115613f0957600080fd5b613f1586828701613b2f565b935050613f2460208501613502565b9150613f32604085016135f9565b90509250925092565b60008060408385031215613f4e57600080fd5b613f57836134f0565b9150613634602084016135f9565b6020815260008251610100806020850152613f846101208501836135ba565b91506020850151601f1980868503016040870152613fa284836135ba565b935060408701519150613fb8606087018361368d565b60608701516001600160a01b0381166080880152915060808701516001600160a01b03811660a0880152915060a08701519150613ff860c087018361368d565b60c087015180151560e0880152915060e087015191508086850301838701525061402283826135ba565b9695505050505050565b60006020828403121561403e57600080fd5b6133d7826134f0565b63ffffffff878116825260c082019061405f8861366f565b6020830188905261ffff87166040840152851660608301526140808461366f565b83608083015260ff831660a0830152979650505050505050565b600080604083850312156140ad57600080fd5b6140b683613477565b915061363460208401613477565b600080600080600060a086880312156140dc57600080fd5b6140e586613477565b94506140f360208701613477565b9350604086013592506060860135915060808601356001600160401b0381111561411c57600080fd5b61395688828901613847565b60006020828403121561413a57600080fd5b6133d782613477565b60008060006060848603121561415857600080fd5b61416184613477565b95602085013595506040909401359392505050565b600181811c9082168061418a57607f821691505b6020821081036141aa57634e487b7160e01b600052602260045260246000fd5b50919050565b6020808252602e908201527f455243313135353a2063616c6c6572206973206e6f7420746f6b656e206f776e60408201526d195c881bdc88185c1c1c9bdd995960921b606082015260800190565b634e487b7160e01b600052603260045260246000fd5b634e487b7160e01b600052601160045260246000fd5b60006001820161423c5761423c614214565b5060010190565b600080835481600182811c91508083168061425f57607f831692505b6020808410820361427e57634e487b7160e01b86526022600452602486fd5b81801561429257600181146142a3576142d0565b60ff198616895284890196506142d0565b60008a81526020902060005b868110156142c85781548b8201529085019083016142af565b505084890196505b509498975050505050505050565b600082516142f081846020870161358e565b9190910192915050565b600060ff821660ff810361431057614310614214565b60010192915050565b600060ff821660ff84168060ff0382111561433657614336614214565b019392505050565b60208082526028908201527f455243313135353a2069647320616e6420616d6f756e7473206c656e677468206040820152670dad2e6dac2e8c6d60c31b606082015260800190565b60208082526025908201527f455243313135353a207472616e7366657220746f20746865207a65726f206164604082015264647265737360d81b606082015260800190565b6020808252602a908201527f455243313135353a20696e73756666696369656e742062616c616e636520666f60408201526939103a3930b739b332b960b11b606082015260800190565b6000821982111561442857614428614214565b500190565b6040815260006144406040830185613ad1565b82810360208401526144528185613ad1565b95945050505050565b60408152600061446e60408301856135ba565b90508260208301529392505050565b600063ffffffff80831681851680830382111561449c5761449c614214565b01949350505050565b60208082526023908201527f455243313135353a206275726e2066726f6d20746865207a65726f206164647260408201526265737360e81b606082015260800190565b60208082526024908201527f455243313135353a206275726e20616d6f756e7420657863656564732062616c604082015263616e636560e01b606082015260800190565b6001600160a01b0386811682528516602082015260a06040820181905260009061455890830186613ad1565b828103606084015261456a8186613ad1565b9050828103608084015261457e81856135ba565b98975050505050505050565b60006020828403121561459c57600080fd5b81516133d7816134bd565b600060033d11156145c05760046000803e5060005160e01c5b90565b600060443d10156145d15790565b6040516003193d81016004833e81513d6001600160401b03816024840111818411171561460057505050505090565b82850191508151818111156146185750505050505090565b843d87010160208285010111156146325750505050505090565b6146416020828601018761375e565b509095945050505050565b60208082526028908201527f455243313135353a204552433131353552656365697665722072656a656374656040820152676420746f6b656e7360c01b606082015260800190565b7f416363657373436f6e74726f6c3a206163636f756e74200000000000000000008152600083516146cc81601785016020880161358e565b7001034b99036b4b9b9b4b733903937b6329607d1b60179184019182015283516146fd81602884016020880161358e565b01602801949350505050565b6001600160a01b03868116825285166020820152604081018490526060810183905260a060808201819052600090614743908301846135ba565b979650505050505050565b600081600019048311821515161561476857614768614214565b500290565b60008161477c5761477c614214565b50600019019056fea2646970667358221220fa1815ad8557ecfecb1cef9ddc8e09990d33ae7508ca51d985965e30eb949a4264736f6c634300080e003368747470733a2f2f67616d652e6578616d706c652f6170692f6974656d2f7b69647d2e6a736f6e",
			"opcodes": "PUSH1 0xA0 PUSH1 0x40 MSTORE PUSH32 0x9F2DF0FED2C77648DE5860A4CC508CD0818C85B8B8A1AB4CEEEF8D981C8956A6 PUSH1 0x80 MSTORE PUSH1 0xA DUP1 SLOAD PUSH12 0xFFFFFFFF000000FFFFFFFFFF NOT AND PUSH11 0x138800000000007E70101 OR SWAP1 SSTORE CALLVALUE DUP1 ISZERO PUSH3 0x57 JUMPI PUSH1 0x0 DUP1 REVERT JUMPDEST POP PUSH1 0x40 MLOAD PUSH3 0x4C19 CODESIZE SUB DUP1 PUSH3 0x4C19 DUP4 CODECOPY DUP2 ADD PUSH1 0x40 DUP2 SWAP1 MSTORE PUSH3 0x7A SWAP2 PUSH3 0x33B JUMP JUMPDEST PUSH1 0x40 MLOAD DUP1 PUSH1 0x60 ADD PUSH1 0x40 MSTORE DUP1 PUSH1 0x27 DUP2 MSTORE PUSH1 0x20 ADD PUSH3 0x4BF2 PUSH1 0x27 SWAP2 CODECOPY CALLER DUP5 PUSH3 0xA1 DUP3 PUSH3 0xD6 JUMP JUMPDEST PUSH3 0xAE PUSH1 0x0 DUP4 PUSH3 0x126 JUMP JUMPDEST PUSH1 0x80 MLOAD PUSH3 0xBD SWAP1 DUP3 PUSH3 0x126 JUMP JUMPDEST POP PUSH3 0xCB SWAP1 POP DUP2 PUSH3 0x1AF JUMP JUMPDEST POP POP POP POP POP PUSH3 0x407 JUMP JUMPDEST PUSH1 0x0 DUP1 SLOAD PUSH1 0x1 PUSH1 0x1 PUSH1 0xA0 SHL SUB DUP4 DUP2 AND PUSH1 0x1 PUSH1 0x1 PUSH1 0xA0 SHL SUB NOT DUP4 AND DUP2 OR DUP5 SSTORE PUSH1 0x40 MLOAD SWAP2 SWAP1 SWAP3 AND SWAP3 DUP4 SWAP2 PUSH32 0x8BE0079C531659141344CD1FD0A4F28419497F9722A3DAAFE3B4186F6B6457E0 SWAP2 SWAP1 LOG3 POP POP JUMP JUMPDEST PUSH1 0x0 DUP3 DUP2 MSTORE PUSH1 0x1 PUSH1 0x20 SWAP1 DUP2 MSTORE PUSH1 0x40 DUP1 DUP4 KECCAK256 PUSH1 0x1 PUSH1 0x1 PUSH1 0xA0 SHL SUB DUP6 AND DUP5 MSTORE SWAP1 SWAP2 MSTORE SWAP1 KECCAK256 SLOAD PUSH1 0xFF AND PUSH3 0x1AB JUMPI PUSH1 0x0 DUP3 DUP2 MSTORE PUSH1 0x1 PUSH1 0x20 DUP2 DUP2 MSTORE PUSH1 0x40 DUP1 DUP5 KECCAK256 PUSH1 0x1 PUSH1 0x1 PUSH1 0xA0 SHL SUB DUP7 AND DUP1 DUP7 MSTORE SWAP3 MSTORE DUP1 DUP5 KECCAK256 DUP1 SLOAD PUSH1 0xFF NOT AND SWAP1 SWAP4 OR SWAP1 SWAP3 SSTORE SWAP1 MLOAD CALLER SWAP3 DUP6 SWAP2 PUSH32 0x2F8788117E7EFF1D82E926EC794901D17C78024A50270940304540A733656F0D SWAP2 SWAP1 LOG4 JUMPDEST POP POP JUMP JUMPDEST DUP1 MLOAD PUSH3 0x1AB SWAP1 PUSH1 0x4 SWAP1 PUSH1 0x20 DUP5 ADD SWAP1 DUP3 DUP1 SLOAD PUSH3 0x1CC SWAP1 PUSH3 0x3CB JUMP JUMPDEST SWAP1 PUSH1 0x0 MSTORE PUSH1 0x20 PUSH1 0x0 KECCAK256 SWAP1 PUSH1 0x1F ADD PUSH1 0x20 SWAP1 DIV DUP2 ADD SWAP3 DUP3 PUSH3 0x1F0 JUMPI PUSH1 0x0 DUP6 SSTORE PUSH3 0x23B JUMP JUMPDEST DUP3 PUSH1 0x1F LT PUSH3 0x20B JUMPI DUP1 MLOAD PUSH1 0xFF NOT AND DUP4 DUP1 ADD OR DUP6 SSTORE PUSH3 0x23B JUMP JUMPDEST DUP3 DUP1 ADD PUSH1 0x1 ADD DUP6 SSTORE DUP3 ISZERO PUSH3 0x23B JUMPI SWAP2 DUP3 ADD JUMPDEST DUP3 DUP2 GT ISZERO PUSH3 0x23B JUMPI DUP3 MLOAD DUP3 SSTORE SWAP2 PUSH1 0x20 ADD SWAP2 SWAP1 PUSH1 0x1 ADD SWAP1 PUSH3 0x21E JUMP JUMPDEST POP PUSH3 0x249 SWAP3 SWAP2 POP PUSH3 0x24D JUMP JUMPDEST POP SWAP1 JUMP JUMPDEST JUMPDEST DUP1 DUP3 GT ISZERO PUSH3 0x249 JUMPI PUSH1 0x0 DUP2 SSTORE PUSH1 0x1 ADD PUSH3 0x24E JUMP JUMPDEST DUP1 MLOAD PUSH1 0x1 PUSH1 0x1 PUSH1 0xA0 SHL SUB DUP2 AND DUP2 EQ PUSH3 0x27C JUMPI PUSH1 0x0 DUP1 REVERT JUMPDEST SWAP2 SWAP1 POP JUMP JUMPDEST PUSH4 0x4E487B71 PUSH1 0xE0 SHL PUSH1 0x0 MSTORE PUSH1 0x41 PUSH1 0x4 MSTORE PUSH1 0x24 PUSH1 0x0 REVERT JUMPDEST PUSH1 0x0 DUP3 PUSH1 0x1F DUP4 ADD SLT PUSH3 0x2A9 JUMPI PUSH1 0x0 DUP1 REVERT JUMPDEST DUP2 MLOAD PUSH1 0x20 PUSH1 0x1 PUSH1 0x1 PUSH1 0x40 SHL SUB DUP1 DUP4 GT ISZERO PUSH3 0x2C8 JUMPI PUSH3 0x2C8 PUSH3 0x281 JUMP JUMPDEST DUP3 PUSH1 0x5 SHL PUSH1 0x40 MLOAD PUSH1 0x1F NOT PUSH1 0x3F DUP4 ADD AND DUP2 ADD DUP2 DUP2 LT DUP5 DUP3 GT OR ISZERO PUSH3 0x2F0 JUMPI PUSH3 0x2F0 PUSH3 0x281 JUMP JUMPDEST PUSH1 0x40 MSTORE SWAP4 DUP5 MSTORE DUP6 DUP2 ADD DUP4 ADD SWAP4 DUP4 DUP2 ADD SWAP3 POP DUP8 DUP6 GT ISZERO PUSH3 0x30F JUMPI PUSH1 0x0 DUP1 REVERT JUMPDEST DUP4 DUP8 ADD SWAP2 POP JUMPDEST DUP5 DUP3 LT ISZERO PUSH3 0x330 JUMPI DUP2 MLOAD DUP4 MSTORE SWAP2 DUP4 ADD SWAP2 SWAP1 DUP4 ADD SWAP1 PUSH3 0x315 JUMP JUMPDEST SWAP8 SWAP7 POP POP POP POP POP POP POP JUMP JUMPDEST PUSH1 0x0 DUP1 PUSH1 0x0 DUP1 PUSH1 0x80 DUP6 DUP8 SUB SLT ISZERO PUSH3 0x352 JUMPI PUSH1 0x0 DUP1 REVERT JUMPDEST PUSH3 0x35D DUP6 PUSH3 0x264 JUMP JUMPDEST SWAP4 POP PUSH3 0x36D PUSH1 0x20 DUP7 ADD PUSH3 0x264 JUMP JUMPDEST PUSH1 0x40 DUP7 ADD MLOAD SWAP1 SWAP4 POP PUSH1 0x1 PUSH1 0x1 PUSH1 0x40 SHL SUB DUP1 DUP3 GT ISZERO PUSH3 0x38B JUMPI PUSH1 0x0 DUP1 REVERT JUMPDEST PUSH3 0x399 DUP9 DUP4 DUP10 ADD PUSH3 0x297 JUMP JUMPDEST SWAP4 POP PUSH1 0x60 DUP8 ADD MLOAD SWAP2 POP DUP1 DUP3 GT ISZERO PUSH3 0x3B0 JUMPI PUSH1 0x0 DUP1 REVERT JUMPDEST POP PUSH3 0x3BF DUP8 DUP3 DUP9 ADD PUSH3 0x297 JUMP JUMPDEST SWAP2 POP POP SWAP3 SWAP6 SWAP2 SWAP5 POP SWAP3 POP JUMP JUMPDEST PUSH1 0x1 DUP2 DUP2 SHR SWAP1 DUP3 AND DUP1 PUSH3 0x3E0 JUMPI PUSH1 0x7F DUP3 AND SWAP2 POP JUMPDEST PUSH1 0x20 DUP3 LT DUP2 SUB PUSH3 0x401 JUMPI PUSH4 0x4E487B71 PUSH1 0xE0 SHL PUSH1 0x0 MSTORE PUSH1 0x22 PUSH1 0x4 MSTORE PUSH1 0x24 PUSH1 0x0 REVERT JUMPDEST POP SWAP2 SWAP1 POP JUMP JUMPDEST PUSH1 0x80 MLOAD PUSH2 0x47BA PUSH3 0x438 PUSH1 0x0 CODECOPY PUSH1 0x0 DUP2 DUP2 PUSH2 0x541 ADD MSTORE DUP2 DUP2 PUSH2 0x1B81 ADD MSTORE DUP2 DUP2 PUSH2 0x211B ADD MSTORE PUSH2 0x29EF ADD MSTORE PUSH2 0x47BA PUSH1 0x0 RETURN INVALID PUSH1 0x80 PUSH1 0x40 MSTORE CALLVALUE DUP1 ISZERO PUSH2 0x10 JUMPI PUSH1 0x0 DUP1 REVERT JUMPDEST POP PUSH1 0x4 CALLDATASIZE LT PUSH2 0x268 JUMPI PUSH1 0x0 CALLDATALOAD PUSH1 0xE0 SHR DUP1 PUSH4 0x8EC3CA14 GT PUSH2 0x151 JUMPI DUP1 PUSH4 0xDBCD5B60 GT PUSH2 0xC3 JUMPI DUP1 PUSH4 0xF242432A GT PUSH2 0x87 JUMPI DUP1 PUSH4 0xF242432A EQ PUSH2 0x659 JUMPI DUP1 PUSH4 0xF2FDE38B EQ PUSH2 0x66C JUMPI DUP1 PUSH4 0xF5298ACA EQ PUSH2 0x67F JUMPI DUP1 PUSH4 0xF70EFA97 EQ PUSH2 0x692 JUMPI DUP1 PUSH4 0xFA7A02A5 EQ PUSH2 0x6A5 JUMPI DUP1 PUSH4 0xFC851323 EQ PUSH2 0x6D2 JUMPI PUSH1 0x0 DUP1 REVERT JUMPDEST DUP1 PUSH4 0xDBCD5B60 EQ PUSH2 0x576 JUMPI DUP1 PUSH4 0xE985E9C5 EQ PUSH2 0x5E6 JUMPI DUP1 PUSH4 0xEA3994BC EQ PUSH2 0x622 JUMPI DUP1 PUSH4 0xED008921 EQ PUSH2 0x635 JUMPI DUP1 PUSH4 0xF0E404C0 EQ PUSH2 0x63D JUMPI PUSH1 0x0 DUP1 REVERT JUMPDEST DUP1 PUSH4 0xA768396A GT PUSH2 0x115 JUMPI DUP1 PUSH4 0xA768396A EQ PUSH2 0x4EE JUMPI DUP1 PUSH4 0xA9F920ED EQ PUSH2 0x4F6 JUMPI DUP1 PUSH4 0xB61E95F0 EQ PUSH2 0x509 JUMPI DUP1 PUSH4 0xC781B949 EQ PUSH2 0x51C JUMPI DUP1 PUSH4 0xD5391393 EQ PUSH2 0x53C JUMPI DUP1 PUSH4 0xD547741F EQ PUSH2 0x563 JUMPI PUSH1 0x0 DUP1 REVERT JUMPDEST DUP1 PUSH4 0x8EC3CA14 EQ PUSH2 0x4A4 JUMPI DUP1 PUSH4 0x91D14854 EQ PUSH2 0x4AD JUMPI DUP1 PUSH4 0x9727756A EQ PUSH2 0x4C0 JUMPI DUP1 PUSH4 0xA217FDDF EQ PUSH2 0x4D3 JUMPI DUP1 PUSH4 0xA22CB465 EQ PUSH2 0x4DB JUMPI PUSH1 0x0 DUP1 REVERT JUMPDEST DUP1 PUSH4 0x2F2FF15D GT PUSH2 0x1EA JUMPI DUP1 PUSH4 0x58609177 GT PUSH2 0x1AE JUMPI DUP1 PUSH4 0x58609177 EQ PUSH2 0x42D JUMPI DUP1 PUSH4 0x58D572A4 EQ PUSH2 0x452 JUMPI DUP1 PUSH4 0x6B20C454 EQ PUSH2 0x465 JUMPI DUP1 PUSH4 0x715018A6 EQ PUSH2 0x478 JUMPI DUP1 PUSH4 0x764C1D96 EQ PUSH2 0x480 JUMPI DUP1 PUSH4 0x8DA5CB5B EQ PUSH2 0x493 JUMPI PUSH1 0x0 DUP1 REVERT JUMPDEST DUP1 PUSH4 0x2F2FF15D EQ PUSH2 0x3A8 JUMPI DUP1 PUSH4 0x36568ABE EQ PUSH2 0x3BB JUMPI DUP1 PUSH4 0x44DE240A EQ PUSH2 0x3CE JUMPI DUP1 PUSH4 0x4B5E91D4 EQ PUSH2 0x3ED JUMPI DUP1 PUSH4 0x4E1273F4 EQ PUSH2 0x40D JUMPI PUSH1 0x0 DUP1 REVERT JUMPDEST DUP1 PUSH4 0x13516037 GT PUSH2 0x231 JUMPI DUP1 PUSH4 0x13516037 EQ PUSH2 0x310 JUMPI DUP1 PUSH4 0x219A1D77 EQ PUSH2 0x325 JUMPI DUP1 PUSH4 0x248A9CA3 EQ PUSH2 0x34A JUMPI DUP1 PUSH4 0x2D9C98DC EQ PUSH2 0x36E JUMPI DUP1 PUSH4 0x2EB2C2D6 EQ PUSH2 0x395 JUMPI PUSH1 0x0 DUP1 REVERT JUMPDEST DUP1 PUSH3 0xFDD58E EQ PUSH2 0x26D JUMPI DUP1 PUSH4 0x1FFC9A7 EQ PUSH2 0x293 JUMPI DUP1 PUSH4 0x72A27A7 EQ PUSH2 0x2B6 JUMPI DUP1 PUSH4 0xB5A006B EQ PUSH2 0x2DC JUMPI DUP1 PUSH4 0xE89341C EQ PUSH2 0x2F0 JUMPI JUMPDEST PUSH1 0x0 DUP1 REVERT JUMPDEST PUSH2 0x280 PUSH2 0x27B CALLDATASIZE PUSH1 0x4 PUSH2 0x3493 JUMP JUMPDEST PUSH2 0x6E0 JUMP JUMPDEST PUSH1 0x40 MLOAD SWAP1 DUP2 MSTORE PUSH1 0x20 ADD JUMPDEST PUSH1 0x40 MLOAD DUP1 SWAP2 SUB SWAP1 RETURN JUMPDEST PUSH2 0x2A6 PUSH2 0x2A1 CALLDATASIZE PUSH1 0x4 PUSH2 0x34D3 JUMP JUMPDEST PUSH2 0x778 JUMP JUMPDEST PUSH1 0x40 MLOAD SWAP1 ISZERO ISZERO DUP2 MSTORE PUSH1 0x20 ADD PUSH2 0x28A JUMP JUMPDEST PUSH2 0x2C9 PUSH2 0x2C4 CALLDATASIZE PUSH1 0x4 PUSH2 0x352E JUMP JUMPDEST PUSH2 0x789 JUMP JUMPDEST PUSH1 0x40 MLOAD PUSH2 0xFFFF SWAP1 SWAP2 AND DUP2 MSTORE PUSH1 0x20 ADD PUSH2 0x28A JUMP JUMPDEST PUSH1 0xA SLOAD PUSH2 0x2C9 SWAP1 PUSH3 0x10000 SWAP1 DIV PUSH2 0xFFFF AND DUP2 JUMP JUMPDEST PUSH2 0x303 PUSH2 0x2FE CALLDATASIZE PUSH1 0x4 PUSH2 0x3575 JUMP JUMPDEST PUSH2 0x86D JUMP JUMPDEST PUSH1 0x40 MLOAD PUSH2 0x28A SWAP2 SWAP1 PUSH2 0x35E6 JUMP JUMPDEST PUSH2 0x323 PUSH2 0x31E CALLDATASIZE PUSH1 0x4 PUSH2 0x360A JUMP JUMPDEST PUSH2 0x901 JUMP JUMPDEST STOP JUMPDEST PUSH1 0x0 SLOAD PUSH1 0x1 PUSH1 0x1 PUSH1 0xA0 SHL SUB AND JUMPDEST PUSH1 0x40 MLOAD PUSH1 0x1 PUSH1 0x1 PUSH1 0xA0 SHL SUB SWAP1 SWAP2 AND DUP2 MSTORE PUSH1 0x20 ADD PUSH2 0x28A JUMP JUMPDEST PUSH2 0x280 PUSH2 0x358 CALLDATASIZE PUSH1 0x4 PUSH2 0x3575 JUMP JUMPDEST PUSH1 0x0 SWAP1 DUP2 MSTORE PUSH1 0x1 PUSH1 0x20 DUP2 SWAP1 MSTORE PUSH1 0x40 SWAP1 SWAP2 KECCAK256 ADD SLOAD SWAP1 JUMP JUMPDEST PUSH2 0x381 PUSH2 0x37C CALLDATASIZE PUSH1 0x4 PUSH2 0x363D JUMP JUMPDEST PUSH2 0x93F JUMP JUMPDEST PUSH1 0x40 MLOAD PUSH2 0x28A SWAP9 SWAP8 SWAP7 SWAP6 SWAP5 SWAP4 SWAP3 SWAP2 SWAP1 PUSH2 0x369A JUMP JUMPDEST PUSH2 0x323 PUSH2 0x3A3 CALLDATASIZE PUSH1 0x4 PUSH2 0x38BA JUMP JUMPDEST PUSH2 0xB5A JUMP JUMPDEST PUSH2 0x323 PUSH2 0x3B6 CALLDATASIZE PUSH1 0x4 PUSH2 0x3963 JUMP JUMPDEST PUSH2 0xBA6 JUMP JUMPDEST PUSH2 0x323 PUSH2 0x3C9 CALLDATASIZE PUSH1 0x4 PUSH2 0x3963 JUMP JUMPDEST PUSH2 0xBD1 JUMP JUMPDEST PUSH1 0xA SLOAD PUSH2 0x3DB SWAP1 PUSH1 0xFF AND DUP2 JUMP JUMPDEST PUSH1 0x40 MLOAD PUSH1 0xFF SWAP1 SWAP2 AND DUP2 MSTORE PUSH1 0x20 ADD PUSH2 0x28A JUMP JUMPDEST PUSH2 0x400 PUSH2 0x3FB CALLDATASIZE PUSH1 0x4 PUSH2 0x3986 JUMP JUMPDEST PUSH2 0xC4F JUMP JUMPDEST PUSH1 0x40 MLOAD PUSH2 0x28A SWAP2 SWAP1 PUSH2 0x39A1 JUMP JUMPDEST PUSH2 0x420 PUSH2 0x41B CALLDATASIZE PUSH1 0x4 PUSH2 0x3A07 JUMP JUMPDEST PUSH2 0xDB3 JUMP JUMPDEST PUSH1 0x40 MLOAD PUSH2 0x28A SWAP2 SWAP1 PUSH2 0x3B0C JUMP JUMPDEST PUSH1 0xF SLOAD PUSH2 0x43D SWAP1 PUSH4 0xFFFFFFFF AND DUP2 JUMP JUMPDEST PUSH1 0x40 MLOAD PUSH4 0xFFFFFFFF SWAP1 SWAP2 AND DUP2 MSTORE PUSH1 0x20 ADD PUSH2 0x28A JUMP JUMPDEST PUSH2 0x323 PUSH2 0x460 CALLDATASIZE PUSH1 0x4 PUSH2 0x3C18 JUMP JUMPDEST PUSH2 0xEDC JUMP JUMPDEST PUSH2 0x323 PUSH2 0x473 CALLDATASIZE PUSH1 0x4 PUSH2 0x3CB4 JUMP JUMPDEST PUSH2 0x161B JUMP JUMPDEST PUSH2 0x323 PUSH2 0x165E JUMP JUMPDEST PUSH2 0x400 PUSH2 0x48E CALLDATASIZE PUSH1 0x4 PUSH2 0x3D27 JUMP JUMPDEST PUSH2 0x1672 JUMP JUMPDEST PUSH1 0x0 SLOAD PUSH1 0x1 PUSH1 0x1 PUSH1 0xA0 SHL SUB AND PUSH2 0x332 JUMP JUMPDEST PUSH2 0x280 PUSH1 0x5 SLOAD DUP2 JUMP JUMPDEST PUSH2 0x2A6 PUSH2 0x4BB CALLDATASIZE PUSH1 0x4 PUSH2 0x3963 JUMP JUMPDEST PUSH2 0x1B54 JUMP JUMPDEST PUSH2 0x323 PUSH2 0x4CE CALLDATASIZE PUSH1 0x4 PUSH2 0x3E34 JUMP JUMPDEST PUSH2 0x1B7F JUMP JUMPDEST PUSH2 0x280 PUSH1 0x0 DUP2 JUMP JUMPDEST PUSH2 0x323 PUSH2 0x4E9 CALLDATASIZE PUSH1 0x4 PUSH2 0x3EB4 JUMP JUMPDEST PUSH2 0x1C7C JUMP JUMPDEST PUSH2 0x303 PUSH2 0x1C87 JUMP JUMPDEST PUSH2 0x323 PUSH2 0x504 CALLDATASIZE PUSH1 0x4 PUSH2 0x3EDE JUMP JUMPDEST PUSH2 0x1D15 JUMP JUMPDEST PUSH2 0x43D PUSH2 0x517 CALLDATASIZE PUSH1 0x4 PUSH2 0x363D JUMP JUMPDEST PUSH2 0x1DBA JUMP JUMPDEST PUSH2 0x52F PUSH2 0x52A CALLDATASIZE PUSH1 0x4 PUSH2 0x3F3B JUMP JUMPDEST PUSH2 0x1E03 JUMP JUMPDEST PUSH1 0x40 MLOAD PUSH2 0x28A SWAP2 SWAP1 PUSH2 0x3F65 JUMP JUMPDEST PUSH2 0x280 PUSH32 0x0 DUP2 JUMP JUMPDEST PUSH2 0x323 PUSH2 0x571 CALLDATASIZE PUSH1 0x4 PUSH2 0x3963 JUMP JUMPDEST PUSH2 0x20F3 JUMP JUMPDEST PUSH2 0x5D4 PUSH2 0x584 CALLDATASIZE PUSH1 0x4 PUSH2 0x402C JUMP JUMPDEST PUSH1 0xD PUSH1 0x20 MSTORE PUSH1 0x0 SWAP1 DUP2 MSTORE PUSH1 0x40 SWAP1 KECCAK256 SLOAD PUSH4 0xFFFFFFFF DUP1 DUP3 AND SWAP2 PUSH1 0xFF PUSH1 0x1 PUSH1 0x20 SHL DUP3 DIV DUP2 AND SWAP3 PUSH2 0xFFFF PUSH1 0x1 PUSH1 0x28 SHL DUP5 DIV AND SWAP3 PUSH1 0x1 PUSH1 0x38 SHL DUP2 DIV SWAP1 SWAP2 AND SWAP2 PUSH1 0x1 PUSH1 0x58 SHL DUP3 DIV DUP2 AND SWAP2 PUSH1 0x1 PUSH1 0x60 SHL SWAP1 DIV AND DUP7 JUMP JUMPDEST PUSH1 0x40 MLOAD PUSH2 0x28A SWAP7 SWAP6 SWAP5 SWAP4 SWAP3 SWAP2 SWAP1 PUSH2 0x4047 JUMP JUMPDEST PUSH2 0x2A6 PUSH2 0x5F4 CALLDATASIZE PUSH1 0x4 PUSH2 0x409A JUMP JUMPDEST PUSH1 0x1 PUSH1 0x1 PUSH1 0xA0 SHL SUB SWAP2 DUP3 AND PUSH1 0x0 SWAP1 DUP2 MSTORE PUSH1 0x3 PUSH1 0x20 SWAP1 DUP2 MSTORE PUSH1 0x40 DUP1 DUP4 KECCAK256 SWAP4 SWAP1 SWAP5 AND DUP3 MSTORE SWAP2 SWAP1 SWAP2 MSTORE KECCAK256 SLOAD PUSH1 0xFF AND SWAP1 JUMP JUMPDEST PUSH2 0x323 PUSH2 0x630 CALLDATASIZE PUSH1 0x4 PUSH2 0x402C JUMP JUMPDEST PUSH2 0x2119 JUMP JUMPDEST PUSH2 0x303 PUSH2 0x2164 JUMP JUMPDEST PUSH1 0xA SLOAD PUSH2 0x43D SWAP1 PUSH9 0x10000000000000000 SWAP1 DIV PUSH4 0xFFFFFFFF AND DUP2 JUMP JUMPDEST PUSH2 0x323 PUSH2 0x667 CALLDATASIZE PUSH1 0x4 PUSH2 0x40C4 JUMP JUMPDEST PUSH2 0x2171 JUMP JUMPDEST PUSH2 0x323 PUSH2 0x67A CALLDATASIZE PUSH1 0x4 PUSH2 0x4128 JUMP JUMPDEST PUSH2 0x21B6 JUMP JUMPDEST PUSH2 0x323 PUSH2 0x68D CALLDATASIZE PUSH1 0x4 PUSH2 0x4143 JUMP JUMPDEST PUSH2 0x222F JUMP JUMPDEST PUSH2 0x400 PUSH2 0x6A0 CALLDATASIZE PUSH1 0x4 PUSH2 0x360A JUMP JUMPDEST PUSH2 0x2272 JUMP JUMPDEST PUSH2 0x3DB PUSH2 0x6B3 CALLDATASIZE PUSH1 0x4 PUSH2 0x3986 JUMP JUMPDEST PUSH1 0xFF SWAP1 DUP2 AND PUSH1 0x0 SWAP1 DUP2 MSTORE PUSH1 0xD PUSH1 0x20 MSTORE PUSH1 0x40 SWAP1 KECCAK256 SLOAD PUSH1 0x1 PUSH1 0x60 SHL SWAP1 DIV AND SWAP1 JUMP JUMPDEST PUSH1 0x8 SLOAD PUSH2 0x2C9 SWAP1 PUSH2 0xFFFF AND DUP2 JUMP JUMPDEST PUSH1 0x0 PUSH1 0x1 PUSH1 0x1 PUSH1 0xA0 SHL SUB DUP4 AND PUSH2 0x750 JUMPI PUSH1 0x40 MLOAD PUSH3 0x461BCD PUSH1 0xE5 SHL DUP2 MSTORE PUSH1 0x20 PUSH1 0x4 DUP3 ADD MSTORE PUSH1 0x2A PUSH1 0x24 DUP3 ADD MSTORE PUSH32 0x455243313135353A2061646472657373207A65726F206973206E6F7420612076 PUSH1 0x44 DUP3 ADD MSTORE PUSH10 0x30B634B21037BBB732B9 PUSH1 0xB1 SHL PUSH1 0x64 DUP3 ADD MSTORE PUSH1 0x84 ADD JUMPDEST PUSH1 0x40 MLOAD DUP1 SWAP2 SUB SWAP1 REVERT JUMPDEST POP PUSH1 0x0 SWAP1 DUP2 MSTORE PUSH1 0x2 PUSH1 0x20 SWAP1 DUP2 MSTORE PUSH1 0x40 DUP1 DUP4 KECCAK256 PUSH1 0x1 PUSH1 0x1 PUSH1 0xA0 SHL SUB SWAP5 SWAP1 SWAP5 AND DUP4 MSTORE SWAP3 SWAP1 MSTORE KECCAK256 SLOAD SWAP1 JUMP JUMPDEST PUSH1 0x0 PUSH2 0x783 DUP3 PUSH2 0x23DD JUMP JUMPDEST SWAP3 SWAP2 POP POP JUMP JUMPDEST PUSH1 0x0 PUSH2 0x793 PUSH2 0x241D JUMP JUMPDEST PUSH3 0x13880 DUP4 PUSH4 0xFFFFFFFF AND GT ISZERO PUSH2 0x7D7 JUMPI PUSH1 0x40 MLOAD PUSH3 0x461BCD PUSH1 0xE5 SHL DUP2 MSTORE PUSH1 0x20 PUSH1 0x4 DUP3 ADD MSTORE PUSH1 0x8 PUSH1 0x24 DUP3 ADD MSTORE PUSH8 0x3830252072756C65 PUSH1 0xC0 SHL PUSH1 0x44 DUP3 ADD MSTORE PUSH1 0x64 ADD PUSH2 0x747 JUMP JUMPDEST PUSH1 0xA SLOAD PUSH2 0x100 SWAP1 DIV PUSH1 0xFF AND PUSH1 0x0 SWAP1 DUP2 MSTORE PUSH1 0xD PUSH1 0x20 MSTORE PUSH1 0x40 SWAP1 KECCAK256 DUP1 SLOAD DUP4 SWAP1 DUP3 SWAP1 PUSH5 0xFF00000000 NOT AND PUSH1 0x1 PUSH1 0x20 SHL DUP4 PUSH1 0x1 DUP2 GT ISZERO PUSH2 0x815 JUMPI PUSH2 0x815 PUSH2 0x3659 JUMP JUMPDEST MUL OR SWAP1 SSTORE POP DUP1 SLOAD PUSH4 0xFFFFFFFF DUP6 AND PUSH1 0x1 PUSH1 0x38 SHL MUL PUSH11 0xFFFFFFFF000000FFFFFFFF NOT PUSH2 0xFFFF DUP9 AND PUSH1 0x1 PUSH1 0x28 SHL MUL AND PUSH11 0xFFFFFFFFFFFF00FFFFFFFF NOT SWAP1 SWAP3 AND SWAP2 SWAP1 SWAP2 OR OR SWAP1 SSTORE POP PUSH1 0xA SLOAD PUSH1 0xFF PUSH2 0x100 SWAP1 SWAP2 DIV AND SWAP4 SWAP3 POP POP POP JUMP JUMPDEST PUSH1 0x60 PUSH1 0x4 DUP1 SLOAD PUSH2 0x87C SWAP1 PUSH2 0x4176 JUMP JUMPDEST DUP1 PUSH1 0x1F ADD PUSH1 0x20 DUP1 SWAP2 DIV MUL PUSH1 0x20 ADD PUSH1 0x40 MLOAD SWAP1 DUP2 ADD PUSH1 0x40 MSTORE DUP1 SWAP3 SWAP2 SWAP1 DUP2 DUP2 MSTORE PUSH1 0x20 ADD DUP3 DUP1 SLOAD PUSH2 0x8A8 SWAP1 PUSH2 0x4176 JUMP JUMPDEST DUP1 ISZERO PUSH2 0x8F5 JUMPI DUP1 PUSH1 0x1F LT PUSH2 0x8CA JUMPI PUSH2 0x100 DUP1 DUP4 SLOAD DIV MUL DUP4 MSTORE SWAP2 PUSH1 0x20 ADD SWAP2 PUSH2 0x8F5 JUMP JUMPDEST DUP3 ADD SWAP2 SWAP1 PUSH1 0x0 MSTORE PUSH1 0x20 PUSH1 0x0 KECCAK256 SWAP1 JUMPDEST DUP2 SLOAD DUP2 MSTORE SWAP1 PUSH1 0x1 ADD SWAP1 PUSH1 0x20 ADD DUP1 DUP4 GT PUSH2 0x8D8 JUMPI DUP3 SWAP1 SUB PUSH1 0x1F AND DUP3 ADD SWAP2 JUMPDEST POP POP POP POP POP SWAP1 POP SWAP2 SWAP1 POP JUMP JUMPDEST PUSH2 0x909 PUSH2 0x241D JUMP JUMPDEST PUSH1 0xFF SWAP1 SWAP2 AND PUSH1 0x0 SWAP1 DUP2 MSTORE PUSH1 0xD PUSH1 0x20 MSTORE PUSH1 0x40 SWAP1 KECCAK256 DUP1 SLOAD PUSH2 0xFFFF SWAP3 SWAP1 SWAP3 AND PUSH1 0x1 PUSH1 0x28 SHL MUL PUSH7 0xFFFF0000000000 NOT SWAP1 SWAP3 AND SWAP2 SWAP1 SWAP2 OR SWAP1 SSTORE JUMP JUMPDEST PUSH1 0xC PUSH1 0x20 MSTORE DUP2 PUSH1 0x0 MSTORE PUSH1 0x40 PUSH1 0x0 KECCAK256 DUP2 DUP2 SLOAD DUP2 LT PUSH2 0x95B JUMPI PUSH1 0x0 DUP1 REVERT JUMPDEST SWAP1 PUSH1 0x0 MSTORE PUSH1 0x20 PUSH1 0x0 KECCAK256 SWAP1 PUSH1 0x5 MUL ADD PUSH1 0x0 SWAP2 POP SWAP2 POP POP DUP1 PUSH1 0x0 ADD DUP1 SLOAD PUSH2 0x97F SWAP1 PUSH2 0x4176 JUMP JUMPDEST DUP1 PUSH1 0x1F ADD PUSH1 0x20 DUP1 SWAP2 DIV MUL PUSH1 0x20 ADD PUSH1 0x40 MLOAD SWAP1 DUP2 ADD PUSH1 0x40 MSTORE DUP1 SWAP3 SWAP2 SWAP1 DUP2 DUP2 MSTORE PUSH1 0x20 ADD DUP3 DUP1 SLOAD PUSH2 0x9AB SWAP1 PUSH2 0x4176 JUMP JUMPDEST DUP1 ISZERO PUSH2 0x9F8 JUMPI DUP1 PUSH1 0x1F LT PUSH2 0x9CD JUMPI PUSH2 0x100 DUP1 DUP4 SLOAD DIV MUL DUP4 MSTORE SWAP2 PUSH1 0x20 ADD SWAP2 PUSH2 0x9F8 JUMP JUMPDEST DUP3 ADD SWAP2 SWAP1 PUSH1 0x0 MSTORE PUSH1 0x20 PUSH1 0x0 KECCAK256 SWAP1 JUMPDEST DUP2 SLOAD DUP2 MSTORE SWAP1 PUSH1 0x1 ADD SWAP1 PUSH1 0x20 ADD DUP1 DUP4 GT PUSH2 0x9DB JUMPI DUP3 SWAP1 SUB PUSH1 0x1F AND DUP3 ADD SWAP2 JUMPDEST POP POP POP POP POP SWAP1 DUP1 PUSH1 0x1 ADD DUP1 SLOAD PUSH2 0xA0D SWAP1 PUSH2 0x4176 JUMP JUMPDEST DUP1 PUSH1 0x1F ADD PUSH1 0x20 DUP1 SWAP2 DIV MUL PUSH1 0x20 ADD PUSH1 0x40 MLOAD SWAP1 DUP2 ADD PUSH1 0x40 MSTORE DUP1 SWAP3 SWAP2 SWAP1 DUP2 DUP2 MSTORE PUSH1 0x20 ADD DUP3 DUP1 SLOAD PUSH2 0xA39 SWAP1 PUSH2 0x4176 JUMP JUMPDEST DUP1 ISZERO PUSH2 0xA86 JUMPI DUP1 PUSH1 0x1F LT PUSH2 0xA5B JUMPI PUSH2 0x100 DUP1 DUP4 SLOAD DIV MUL DUP4 MSTORE SWAP2 PUSH1 0x20 ADD SWAP2 PUSH2 0xA86 JUMP JUMPDEST DUP3 ADD SWAP2 SWAP1 PUSH1 0x0 MSTORE PUSH1 0x20 PUSH1 0x0 KECCAK256 SWAP1 JUMPDEST DUP2 SLOAD DUP2 MSTORE SWAP1 PUSH1 0x1 ADD SWAP1 PUSH1 0x20 ADD DUP1 DUP4 GT PUSH2 0xA69 JUMPI DUP3 SWAP1 SUB PUSH1 0x1F AND DUP3 ADD SWAP2 JUMPDEST POP POP POP POP PUSH1 0x2 DUP4 ADD SLOAD PUSH1 0x3 DUP5 ADD SLOAD PUSH1 0x4 DUP6 ADD DUP1 SLOAD SWAP5 SWAP6 PUSH1 0xFF DUP1 DUP6 AND SWAP7 PUSH2 0x100 SWAP1 SWAP6 DIV PUSH1 0x1 PUSH1 0x1 PUSH1 0xA0 SHL SUB SWAP1 DUP2 AND SWAP7 POP DUP5 AND SWAP5 PUSH1 0x1 PUSH1 0xA0 SHL DUP6 DIV DUP3 AND SWAP5 PUSH1 0x1 PUSH1 0xA8 SHL SWAP1 DIV SWAP1 SWAP2 AND SWAP3 SWAP1 PUSH2 0xAD7 SWAP1 PUSH2 0x4176 JUMP JUMPDEST DUP1 PUSH1 0x1F ADD PUSH1 0x20 DUP1 SWAP2 DIV MUL PUSH1 0x20 ADD PUSH1 0x40 MLOAD SWAP1 DUP2 ADD PUSH1 0x40 MSTORE DUP1 SWAP3 SWAP2 SWAP1 DUP2 DUP2 MSTORE PUSH1 0x20 ADD DUP3 DUP1 SLOAD PUSH2 0xB03 SWAP1 PUSH2 0x4176 JUMP JUMPDEST DUP1 ISZERO PUSH2 0xB50 JUMPI DUP1 PUSH1 0x1F LT PUSH2 0xB25 JUMPI PUSH2 0x100 DUP1 DUP4 SLOAD DIV MUL DUP4 MSTORE SWAP2 PUSH1 0x20 ADD SWAP2 PUSH2 0xB50 JUMP JUMPDEST DUP3 ADD SWAP2 SWAP1 PUSH1 0x0 MSTORE PUSH1 0x20 PUSH1 0x0 KECCAK256 SWAP1 JUMPDEST DUP2 SLOAD DUP2 MSTORE SWAP1 PUSH1 0x1 ADD SWAP1 PUSH1 0x20 ADD DUP1 DUP4 GT PUSH2 0xB33 JUMPI DUP3 SWAP1 SUB PUSH1 0x1F AND DUP3 ADD SWAP2 JUMPDEST POP POP POP POP POP SWAP1 POP DUP9 JUMP JUMPDEST PUSH1 0x1 PUSH1 0x1 PUSH1 0xA0 SHL SUB DUP6 AND CALLER EQ DUP1 PUSH2 0xB76 JUMPI POP PUSH2 0xB76 DUP6 CALLER PUSH2 0x5F4 JUMP JUMPDEST PUSH2 0xB92 JUMPI PUSH1 0x40 MLOAD PUSH3 0x461BCD PUSH1 0xE5 SHL DUP2 MSTORE PUSH1 0x4 ADD PUSH2 0x747 SWAP1 PUSH2 0x41B0 JUMP JUMPDEST PUSH2 0xB9F DUP6 DUP6 DUP6 DUP6 DUP6 PUSH2 0x2477 JUMP JUMPDEST POP POP POP POP POP JUMP JUMPDEST PUSH1 0x0 DUP3 DUP2 MSTORE PUSH1 0x1 PUSH1 0x20 DUP2 SWAP1 MSTORE PUSH1 0x40 SWAP1 SWAP2 KECCAK256 ADD SLOAD PUSH2 0xBC2 DUP2 PUSH2 0x260E JUMP JUMPDEST PUSH2 0xBCC DUP4 DUP4 PUSH2 0x2618 JUMP JUMPDEST POP POP POP JUMP JUMPDEST PUSH1 0x1 PUSH1 0x1 PUSH1 0xA0 SHL SUB DUP2 AND CALLER EQ PUSH2 0xC41 JUMPI PUSH1 0x40 MLOAD PUSH3 0x461BCD PUSH1 0xE5 SHL DUP2 MSTORE PUSH1 0x20 PUSH1 0x4 DUP3 ADD MSTORE PUSH1 0x2F PUSH1 0x24 DUP3 ADD MSTORE PUSH32 0x416363657373436F6E74726F6C3A2063616E206F6E6C792072656E6F756E6365 PUSH1 0x44 DUP3 ADD MSTORE PUSH15 0x103937B632B9903337B91039B2B633 PUSH1 0x89 SHL PUSH1 0x64 DUP3 ADD MSTORE PUSH1 0x84 ADD PUSH2 0x747 JUMP JUMPDEST PUSH2 0xC4B DUP3 DUP3 PUSH2 0x2683 JUMP JUMPDEST POP POP JUMP JUMPDEST PUSH2 0xC7E PUSH1 0x40 DUP1 MLOAD PUSH1 0xA0 DUP2 ADD DUP3 MSTORE PUSH1 0x60 DUP1 DUP3 MSTORE PUSH1 0x0 PUSH1 0x20 DUP4 ADD DUP2 SWAP1 MSTORE SWAP3 DUP3 ADD DUP4 SWAP1 MSTORE DUP2 ADD DUP3 SWAP1 MSTORE SWAP1 PUSH1 0x80 DUP3 ADD MSTORE SWAP1 JUMP JUMPDEST PUSH1 0xFF DUP3 AND PUSH1 0x0 SWAP1 DUP2 MSTORE PUSH1 0xB PUSH1 0x20 MSTORE PUSH1 0x40 DUP2 KECCAK256 DUP1 SLOAD DUP3 SWAP1 PUSH2 0xCA0 JUMPI PUSH2 0xCA0 PUSH2 0x41FE JUMP JUMPDEST SWAP1 PUSH1 0x0 MSTORE PUSH1 0x20 PUSH1 0x0 KECCAK256 SWAP1 PUSH1 0x2 MUL ADD SWAP1 POP DUP1 PUSH1 0x40 MLOAD DUP1 PUSH1 0xA0 ADD PUSH1 0x40 MSTORE SWAP1 DUP2 PUSH1 0x0 DUP3 ADD DUP1 SLOAD PUSH2 0xCCC SWAP1 PUSH2 0x4176 JUMP JUMPDEST DUP1 PUSH1 0x1F ADD PUSH1 0x20 DUP1 SWAP2 DIV MUL PUSH1 0x20 ADD PUSH1 0x40 MLOAD SWAP1 DUP2 ADD PUSH1 0x40 MSTORE DUP1 SWAP3 SWAP2 SWAP1 DUP2 DUP2 MSTORE PUSH1 0x20 ADD DUP3 DUP1 SLOAD PUSH2 0xCF8 SWAP1 PUSH2 0x4176 JUMP JUMPDEST DUP1 ISZERO PUSH2 0xD45 JUMPI DUP1 PUSH1 0x1F LT PUSH2 0xD1A JUMPI PUSH2 0x100 DUP1 DUP4 SLOAD DIV MUL DUP4 MSTORE SWAP2 PUSH1 0x20 ADD SWAP2 PUSH2 0xD45 JUMP JUMPDEST DUP3 ADD SWAP2 SWAP1 PUSH1 0x0 MSTORE PUSH1 0x20 PUSH1 0x0 KECCAK256 SWAP1 JUMPDEST DUP2 SLOAD DUP2 MSTORE SWAP1 PUSH1 0x1 ADD SWAP1 PUSH1 0x20 ADD DUP1 DUP4 GT PUSH2 0xD28 JUMPI DUP3 SWAP1 SUB PUSH1 0x1F AND DUP3 ADD SWAP2 JUMPDEST POP POP POP SWAP2 DUP4 MSTORE POP POP PUSH1 0x1 DUP3 DUP2 ADD SLOAD PUSH2 0xFFFF DUP1 DUP3 AND PUSH1 0x20 DUP6 ADD MSTORE PUSH3 0x10000 DUP3 DIV DUP2 AND PUSH1 0x40 DUP6 ADD MSTORE PUSH1 0x1 PUSH1 0x20 SHL DUP3 DIV AND PUSH1 0x60 DUP5 ADD MSTORE PUSH1 0x80 SWAP1 SWAP3 ADD SWAP2 PUSH1 0x1 PUSH1 0x30 SHL SWAP1 DIV PUSH1 0xFF AND SWAP1 DUP2 GT ISZERO PUSH2 0xD98 JUMPI PUSH2 0xD98 PUSH2 0x3659 JUMP JUMPDEST PUSH1 0x1 DUP2 GT ISZERO PUSH2 0xDA9 JUMPI PUSH2 0xDA9 PUSH2 0x3659 JUMP JUMPDEST SWAP1 MSTORE POP SWAP4 SWAP3 POP POP POP JUMP JUMPDEST PUSH1 0x60 DUP2 MLOAD DUP4 MLOAD EQ PUSH2 0xE18 JUMPI PUSH1 0x40 MLOAD PUSH3 0x461BCD PUSH1 0xE5 SHL DUP2 MSTORE PUSH1 0x20 PUSH1 0x4 DUP3 ADD MSTORE PUSH1 0x29 PUSH1 0x24 DUP3 ADD MSTORE PUSH32 0x455243313135353A206163636F756E747320616E6420696473206C656E677468 PUSH1 0x44 DUP3 ADD MSTORE PUSH9 0x40DAD2E6DAC2E8C6D PUSH1 0xBB SHL PUSH1 0x64 DUP3 ADD MSTORE PUSH1 0x84 ADD PUSH2 0x747 JUMP JUMPDEST PUSH1 0x0 DUP4 MLOAD PUSH1 0x1 PUSH1 0x1 PUSH1 0x40 SHL SUB DUP2 GT ISZERO PUSH2 0xE33 JUMPI PUSH2 0xE33 PUSH2 0x3723 JUMP JUMPDEST PUSH1 0x40 MLOAD SWAP1 DUP1 DUP3 MSTORE DUP1 PUSH1 0x20 MUL PUSH1 0x20 ADD DUP3 ADD PUSH1 0x40 MSTORE DUP1 ISZERO PUSH2 0xE5C JUMPI DUP2 PUSH1 0x20 ADD PUSH1 0x20 DUP3 MUL DUP1 CALLDATASIZE DUP4 CALLDATACOPY ADD SWAP1 POP JUMPDEST POP SWAP1 POP PUSH1 0x0 JUMPDEST DUP5 MLOAD DUP2 LT ISZERO PUSH2 0xED4 JUMPI PUSH2 0xEA7 DUP6 DUP3 DUP2 MLOAD DUP2 LT PUSH2 0xE80 JUMPI PUSH2 0xE80 PUSH2 0x41FE JUMP JUMPDEST PUSH1 0x20 MUL PUSH1 0x20 ADD ADD MLOAD DUP6 DUP4 DUP2 MLOAD DUP2 LT PUSH2 0xE9A JUMPI PUSH2 0xE9A PUSH2 0x41FE JUMP JUMPDEST PUSH1 0x20 MUL PUSH1 0x20 ADD ADD MLOAD PUSH2 0x6E0 JUMP JUMPDEST DUP3 DUP3 DUP2 MLOAD DUP2 LT PUSH2 0xEB9 JUMPI PUSH2 0xEB9 PUSH2 0x41FE JUMP JUMPDEST PUSH1 0x20 SWAP1 DUP2 MUL SWAP2 SWAP1 SWAP2 ADD ADD MSTORE PUSH2 0xECD DUP2 PUSH2 0x422A JUMP JUMPDEST SWAP1 POP PUSH2 0xE62 JUMP JUMPDEST POP SWAP4 SWAP3 POP POP POP JUMP JUMPDEST PUSH2 0xFFFF DUP4 AND PUSH1 0x0 SWAP1 DUP2 MSTORE PUSH1 0xD PUSH1 0x20 MSTORE PUSH1 0x40 SWAP1 KECCAK256 DUP1 SLOAD PUSH4 0xFFFFFFFF PUSH1 0x1 PUSH1 0x38 SHL SWAP1 SWAP2 DIV DUP2 AND SWAP1 DUP8 AND GT ISZERO PUSH2 0xF41 JUMPI PUSH1 0x40 MLOAD PUSH3 0x461BCD PUSH1 0xE5 SHL DUP2 MSTORE PUSH1 0x20 PUSH1 0x4 DUP3 ADD MSTORE PUSH1 0xD PUSH1 0x24 DUP3 ADD MSTORE PUSH13 0x6E6F7420616C6C6F7765642025 PUSH1 0x98 SHL PUSH1 0x44 DUP3 ADD MSTORE PUSH1 0x64 ADD PUSH2 0x747 JUMP JUMPDEST PUSH1 0x40 DUP1 MLOAD DUP1 DUP3 ADD SWAP1 SWAP2 MSTORE PUSH1 0x3 DUP2 MSTORE PUSH3 0x696431 PUSH1 0xE8 SHL PUSH1 0x20 DUP3 ADD MSTORE PUSH1 0xA SLOAD PUSH2 0xF6B SWAP2 SWAP1 PUSH1 0xFF AND PUSH2 0x26EA JUMP JUMPDEST PUSH1 0xA SLOAD PUSH1 0xFF AND PUSH1 0x1 SUB PUSH2 0x119D JUMPI PUSH1 0xC PUSH1 0x0 DUP6 PUSH2 0xFFFF AND PUSH2 0xFFFF AND DUP2 MSTORE PUSH1 0x20 ADD SWAP1 DUP2 MSTORE PUSH1 0x20 ADD PUSH1 0x0 KECCAK256 PUSH1 0x40 MLOAD DUP1 PUSH2 0x100 ADD PUSH1 0x40 MSTORE DUP1 DUP8 PUSH1 0x0 ADD MLOAD DUP2 MSTORE PUSH1 0x20 ADD DUP8 PUSH1 0x20 ADD MLOAD DUP2 MSTORE PUSH1 0x20 ADD DUP8 PUSH1 0x40 ADD MLOAD PUSH1 0x1 DUP2 GT ISZERO PUSH2 0xFC9 JUMPI PUSH2 0xFC9 PUSH2 0x3659 JUMP JUMPDEST DUP2 MSTORE PUSH1 0x20 ADD DUP8 PUSH1 0x60 ADD MLOAD PUSH1 0x1 PUSH1 0x1 PUSH1 0xA0 SHL SUB AND DUP2 MSTORE PUSH1 0x20 ADD DUP8 PUSH1 0x80 ADD MLOAD PUSH1 0x1 PUSH1 0x1 PUSH1 0xA0 SHL SUB AND DUP2 MSTORE PUSH1 0x20 ADD DUP8 PUSH1 0xA0 ADD MLOAD PUSH1 0x1 DUP2 GT ISZERO PUSH2 0x100A JUMPI PUSH2 0x100A PUSH2 0x3659 JUMP JUMPDEST DUP2 MSTORE PUSH1 0xC0 DUP9 ADD MLOAD ISZERO ISZERO PUSH1 0x20 DUP1 DUP4 ADD SWAP2 SWAP1 SWAP2 MSTORE PUSH1 0xE0 DUP10 ADD MLOAD PUSH1 0x40 SWAP1 SWAP3 ADD SWAP2 SWAP1 SWAP2 MSTORE DUP3 SLOAD PUSH1 0x1 DUP2 ADD DUP5 SSTORE PUSH1 0x0 SWAP4 DUP5 MSTORE SWAP3 DUP2 SWAP1 KECCAK256 DUP3 MLOAD DUP1 MLOAD SWAP4 SWAP5 PUSH1 0x5 MUL SWAP1 SWAP2 ADD SWAP3 PUSH2 0x1055 SWAP3 DUP5 SWAP3 ADD SWAP1 PUSH2 0x33DE JUMP JUMPDEST POP PUSH1 0x20 DUP3 DUP2 ADD MLOAD DUP1 MLOAD PUSH2 0x106E SWAP3 PUSH1 0x1 DUP6 ADD SWAP3 ADD SWAP1 PUSH2 0x33DE JUMP JUMPDEST POP PUSH1 0x40 DUP3 ADD MLOAD PUSH1 0x2 DUP3 ADD DUP1 SLOAD PUSH1 0xFF NOT AND PUSH1 0x1 DUP4 DUP2 DUP2 GT ISZERO PUSH2 0x1091 JUMPI PUSH2 0x1091 PUSH2 0x3659 JUMP JUMPDEST MUL OR SWAP1 SSTORE POP PUSH1 0x60 DUP3 ADD MLOAD PUSH1 0x2 DUP3 ADD DUP1 SLOAD PUSH1 0x1 PUSH1 0x1 PUSH1 0xA0 SHL SUB SWAP3 DUP4 AND PUSH2 0x100 MUL PUSH2 0x100 PUSH1 0x1 PUSH1 0xA8 SHL SUB NOT SWAP1 SWAP2 AND OR SWAP1 SSTORE PUSH1 0x80 DUP4 ADD MLOAD PUSH1 0x3 DUP4 ADD DUP1 SLOAD SWAP2 SWAP1 SWAP3 AND PUSH1 0x1 PUSH1 0x1 PUSH1 0xA0 SHL SUB NOT DUP3 AND DUP2 OR DUP4 SSTORE PUSH1 0xA0 DUP6 ADD MLOAD SWAP3 SWAP2 PUSH1 0x1 PUSH1 0x1 PUSH1 0xA8 SHL SUB NOT AND OR PUSH1 0x1 PUSH1 0xA0 SHL DUP4 PUSH1 0x1 DUP2 GT ISZERO PUSH2 0x1107 JUMPI PUSH2 0x1107 PUSH2 0x3659 JUMP JUMPDEST MUL OR SWAP1 SSTORE POP PUSH1 0xC0 DUP3 ADD MLOAD PUSH1 0x3 DUP3 ADD DUP1 SLOAD SWAP2 ISZERO ISZERO PUSH1 0x1 PUSH1 0xA8 SHL MUL PUSH1 0xFF PUSH1 0xA8 SHL NOT SWAP1 SWAP3 AND SWAP2 SWAP1 SWAP2 OR SWAP1 SSTORE PUSH1 0xE0 DUP3 ADD MLOAD DUP1 MLOAD PUSH2 0x114A SWAP2 PUSH1 0x4 DUP5 ADD SWAP2 PUSH1 0x20 SWAP1 SWAP2 ADD SWAP1 PUSH2 0x33DE JUMP JUMPDEST POP POP POP PUSH2 0xFFFF DUP5 AND PUSH1 0x0 SWAP1 DUP2 MSTORE PUSH1 0xE PUSH1 0x20 SWAP1 DUP2 MSTORE PUSH1 0x40 DUP3 KECCAK256 DUP1 SLOAD PUSH1 0x1 DUP2 ADD DUP3 SSTORE SWAP1 DUP4 MSTORE SWAP2 KECCAK256 PUSH1 0x8 DUP3 DIV ADD DUP1 SLOAD PUSH1 0x7 SWAP1 SWAP3 AND PUSH1 0x4 MUL PUSH2 0x100 EXP PUSH4 0xFFFFFFFF DUP2 DUP2 MUL NOT SWAP1 SWAP4 AND SWAP3 DUP10 AND MUL SWAP2 SWAP1 SWAP2 OR SWAP1 SSTORE PUSH2 0x1567 JUMP JUMPDEST PUSH2 0xFFFF DUP5 AND PUSH1 0x0 SWAP1 DUP2 MSTORE PUSH1 0xC PUSH1 0x20 MSTORE PUSH1 0x40 SWAP1 KECCAK256 SLOAD PUSH2 0x11BA SWAP1 PUSH2 0x272F JUMP JUMPDEST PUSH1 0x0 JUMPDEST PUSH2 0xFFFF DUP6 AND PUSH1 0x0 SWAP1 DUP2 MSTORE PUSH1 0xC PUSH1 0x20 MSTORE PUSH1 0x40 SWAP1 KECCAK256 SLOAD PUSH1 0xFF DUP3 AND LT ISZERO PUSH2 0x1345 JUMPI PUSH2 0xFFFF DUP6 AND PUSH1 0x0 SWAP1 DUP2 MSTORE PUSH1 0xC PUSH1 0x20 MSTORE PUSH1 0x40 DUP2 KECCAK256 DUP1 SLOAD PUSH1 0xFF DUP5 AND SWAP1 DUP2 LT PUSH2 0x1203 JUMPI PUSH2 0x1203 PUSH2 0x41FE JUMP JUMPDEST SWAP1 PUSH1 0x0 MSTORE PUSH1 0x20 PUSH1 0x0 KECCAK256 SWAP1 PUSH1 0x5 MUL ADD PUSH1 0x0 ADD SWAP1 POP PUSH2 0x12A8 DUP2 DUP1 SLOAD PUSH2 0x1225 SWAP1 PUSH2 0x4176 JUMP JUMPDEST DUP1 PUSH1 0x1F ADD PUSH1 0x20 DUP1 SWAP2 DIV MUL PUSH1 0x20 ADD PUSH1 0x40 MLOAD SWAP1 DUP2 ADD PUSH1 0x40 MSTORE DUP1 SWAP3 SWAP2 SWAP1 DUP2 DUP2 MSTORE PUSH1 0x20 ADD DUP3 DUP1 SLOAD PUSH2 0x1251 SWAP1 PUSH2 0x4176 JUMP JUMPDEST DUP1 ISZERO PUSH2 0x129E JUMPI DUP1 PUSH1 0x1F LT PUSH2 0x1273 JUMPI PUSH2 0x100 DUP1 DUP4 SLOAD DIV MUL DUP4 MSTORE SWAP2 PUSH1 0x20 ADD SWAP2 PUSH2 0x129E JUMP JUMPDEST DUP3 ADD SWAP2 SWAP1 PUSH1 0x0 MSTORE PUSH1 0x20 PUSH1 0x0 KECCAK256 SWAP1 JUMPDEST DUP2 SLOAD DUP2 MSTORE SWAP1 PUSH1 0x1 ADD SWAP1 PUSH1 0x20 ADD DUP1 DUP4 GT PUSH2 0x1281 JUMPI DUP3 SWAP1 SUB PUSH1 0x1F AND DUP3 ADD SWAP2 JUMPDEST POP POP POP POP POP PUSH2 0x2774 JUMP JUMPDEST DUP1 PUSH1 0x40 MLOAD PUSH1 0x20 ADD PUSH2 0x12B9 SWAP2 SWAP1 PUSH2 0x4243 JUMP JUMPDEST PUSH1 0x40 DUP1 MLOAD PUSH1 0x1F NOT DUP2 DUP5 SUB ADD DUP2 MSTORE SWAP1 DUP3 SWAP1 MSTORE DUP1 MLOAD PUSH1 0x20 SWAP2 DUP3 ADD KECCAK256 DUP10 MLOAD SWAP1 SWAP3 PUSH2 0x12E0 SWAP3 ADD PUSH2 0x42DE JUMP JUMPDEST PUSH1 0x40 MLOAD PUSH1 0x20 DUP2 DUP4 SUB SUB DUP2 MSTORE SWAP1 PUSH1 0x40 MSTORE DUP1 MLOAD SWAP1 PUSH1 0x20 ADD KECCAK256 SUB PUSH2 0x1332 JUMPI PUSH1 0x40 MLOAD PUSH3 0x461BCD PUSH1 0xE5 SHL DUP2 MSTORE PUSH1 0x20 PUSH1 0x4 DUP3 ADD MSTORE PUSH1 0xC PUSH1 0x24 DUP3 ADD MSTORE PUSH12 0x617373657420657869737473 PUSH1 0xA0 SHL PUSH1 0x44 DUP3 ADD MSTORE PUSH1 0x64 ADD PUSH2 0x747 JUMP JUMPDEST POP DUP1 PUSH2 0x133D DUP2 PUSH2 0x42FA JUMP JUMPDEST SWAP2 POP POP PUSH2 0x11BD JUMP JUMPDEST POP PUSH1 0xC PUSH1 0x0 DUP6 PUSH2 0xFFFF AND PUSH2 0xFFFF AND DUP2 MSTORE PUSH1 0x20 ADD SWAP1 DUP2 MSTORE PUSH1 0x20 ADD PUSH1 0x0 KECCAK256 PUSH1 0x40 MLOAD DUP1 PUSH2 0x100 ADD PUSH1 0x40 MSTORE DUP1 DUP8 PUSH1 0x0 ADD MLOAD DUP2 MSTORE PUSH1 0x20 ADD DUP8 PUSH1 0x20 ADD MLOAD DUP2 MSTORE PUSH1 0x20 ADD DUP8 PUSH1 0x40 ADD MLOAD PUSH1 0x1 DUP2 GT ISZERO PUSH2 0x1397 JUMPI PUSH2 0x1397 PUSH2 0x3659 JUMP JUMPDEST DUP2 MSTORE PUSH1 0x20 ADD DUP8 PUSH1 0x60 ADD MLOAD PUSH1 0x1 PUSH1 0x1 PUSH1 0xA0 SHL SUB AND DUP2 MSTORE PUSH1 0x20 ADD DUP8 PUSH1 0x80 ADD MLOAD PUSH1 0x1 PUSH1 0x1 PUSH1 0xA0 SHL SUB AND DUP2 MSTORE PUSH1 0x20 ADD DUP8 PUSH1 0xA0 ADD MLOAD PUSH1 0x1 DUP2 GT ISZERO PUSH2 0x13D8 JUMPI PUSH2 0x13D8 PUSH2 0x3659 JUMP JUMPDEST DUP2 MSTORE PUSH1 0xC0 DUP9 ADD MLOAD ISZERO ISZERO PUSH1 0x20 DUP1 DUP4 ADD SWAP2 SWAP1 SWAP2 MSTORE PUSH1 0xE0 DUP10 ADD MLOAD PUSH1 0x40 SWAP1 SWAP3 ADD SWAP2 SWAP1 SWAP2 MSTORE DUP3 SLOAD PUSH1 0x1 DUP2 ADD DUP5 SSTORE PUSH1 0x0 SWAP4 DUP5 MSTORE SWAP3 DUP2 SWAP1 KECCAK256 DUP3 MLOAD DUP1 MLOAD SWAP4 SWAP5 PUSH1 0x5 MUL SWAP1 SWAP2 ADD SWAP3 PUSH2 0x1423 SWAP3 DUP5 SWAP3 ADD SWAP1 PUSH2 0x33DE JUMP JUMPDEST POP PUSH1 0x20 DUP3 DUP2 ADD MLOAD DUP1 MLOAD PUSH2 0x143C SWAP3 PUSH1 0x1 DUP6 ADD SWAP3 ADD SWAP1 PUSH2 0x33DE JUMP JUMPDEST POP PUSH1 0x40 DUP3 ADD MLOAD PUSH1 0x2 DUP3 ADD DUP1 SLOAD PUSH1 0xFF NOT AND PUSH1 0x1 DUP4 DUP2 DUP2 GT ISZERO PUSH2 0x145F JUMPI PUSH2 0x145F PUSH2 0x3659 JUMP JUMPDEST MUL OR SWAP1 SSTORE POP PUSH1 0x60 DUP3 ADD MLOAD PUSH1 0x2 DUP3 ADD DUP1 SLOAD PUSH1 0x1 PUSH1 0x1 PUSH1 0xA0 SHL SUB SWAP3 DUP4 AND PUSH2 0x100 MUL PUSH2 0x100 PUSH1 0x1 PUSH1 0xA8 SHL SUB NOT SWAP1 SWAP2 AND OR SWAP1 SSTORE PUSH1 0x80 DUP4 ADD MLOAD PUSH1 0x3 DUP4 ADD DUP1 SLOAD SWAP2 SWAP1 SWAP3 AND PUSH1 0x1 PUSH1 0x1 PUSH1 0xA0 SHL SUB NOT DUP3 AND DUP2 OR DUP4 SSTORE PUSH1 0xA0 DUP6 ADD MLOAD SWAP3 SWAP2 PUSH1 0x1 PUSH1 0x1 PUSH1 0xA8 SHL SUB NOT AND OR PUSH1 0x1 PUSH1 0xA0 SHL DUP4 PUSH1 0x1 DUP2 GT ISZERO PUSH2 0x14D5 JUMPI PUSH2 0x14D5 PUSH2 0x3659 JUMP JUMPDEST MUL OR SWAP1 SSTORE POP PUSH1 0xC0 DUP3 ADD MLOAD PUSH1 0x3 DUP3 ADD DUP1 SLOAD SWAP2 ISZERO ISZERO PUSH1 0x1 PUSH1 0xA8 SHL MUL PUSH1 0xFF PUSH1 0xA8 SHL NOT SWAP1 SWAP3 AND SWAP2 SWAP1 SWAP2 OR SWAP1 SSTORE PUSH1 0xE0 DUP3 ADD MLOAD DUP1 MLOAD PUSH2 0x1518 SWAP2 PUSH1 0x4 DUP5 ADD SWAP2 PUSH1 0x20 SWAP1 SWAP2 ADD SWAP1 PUSH2 0x33DE JUMP JUMPDEST POP POP POP PUSH2 0xFFFF DUP5 AND PUSH1 0x0 SWAP1 DUP2 MSTORE PUSH1 0xE PUSH1 0x20 SWAP1 DUP2 MSTORE PUSH1 0x40 DUP3 KECCAK256 DUP1 SLOAD PUSH1 0x1 DUP2 ADD DUP3 SSTORE SWAP1 DUP4 MSTORE SWAP2 KECCAK256 PUSH1 0x8 DUP3 DIV ADD DUP1 SLOAD PUSH1 0x7 SWAP1 SWAP3 AND PUSH1 0x4 MUL PUSH2 0x100 EXP PUSH4 0xFFFFFFFF DUP2 DUP2 MUL NOT SWAP1 SWAP4 AND SWAP3 DUP10 AND MUL SWAP2 SWAP1 SWAP2 OR SWAP1 SSTORE JUMPDEST PUSH2 0x1570 DUP5 PUSH2 0x27B7 JUMP JUMPDEST POP PUSH2 0x1590 DUP6 PUSH1 0x80 ADD MLOAD DUP5 DUP5 PUSH1 0x40 MLOAD DUP1 PUSH1 0x20 ADD PUSH1 0x40 MSTORE DUP1 PUSH1 0x0 DUP2 MSTORE POP PUSH2 0x2867 JUMP JUMPDEST PUSH2 0x15A0 DUP6 PUSH1 0x80 ADD MLOAD CALLER PUSH1 0x1 PUSH2 0x29ED JUMP JUMPDEST PUSH1 0xA DUP1 SLOAD PUSH1 0xFF AND SWAP1 PUSH1 0x0 PUSH2 0x15B3 DUP4 PUSH2 0x42FA JUMP JUMPDEST DUP3 SLOAD PUSH2 0x100 SWAP3 SWAP1 SWAP3 EXP PUSH1 0xFF DUP2 DUP2 MUL NOT SWAP1 SWAP4 AND SWAP2 DUP4 AND MUL OR SWAP1 SWAP2 SSTORE PUSH1 0x40 DUP1 MLOAD DUP1 DUP3 ADD SWAP1 SWAP2 MSTORE PUSH1 0x2 DUP2 MSTORE PUSH2 0x1A59 PUSH1 0xF2 SHL PUSH1 0x20 DUP3 ADD MSTORE PUSH1 0xA SLOAD PUSH2 0x15F6 SWAP4 POP SWAP1 SWAP2 AND PUSH2 0x26EA JUMP JUMPDEST PUSH2 0xFFFF DUP5 AND PUSH1 0x0 SWAP1 DUP2 MSTORE PUSH1 0xC PUSH1 0x20 MSTORE PUSH1 0x40 SWAP1 KECCAK256 SLOAD PUSH2 0x1613 SWAP1 PUSH2 0x272F JUMP JUMPDEST POP POP POP POP POP POP JUMP JUMPDEST PUSH1 0x1 PUSH1 0x1 PUSH1 0xA0 SHL SUB DUP4 AND CALLER EQ DUP1 PUSH2 0x1637 JUMPI POP PUSH2 0x1637 DUP4 CALLER PUSH2 0x5F4 JUMP JUMPDEST PUSH2 0x1653 JUMPI PUSH1 0x40 MLOAD PUSH3 0x461BCD PUSH1 0xE5 SHL DUP2 MSTORE PUSH1 0x4 ADD PUSH2 0x747 SWAP1 PUSH2 0x41B0 JUMP JUMPDEST PUSH2 0xBCC DUP4 DUP4 DUP4 PUSH2 0x2A28 JUMP JUMPDEST PUSH2 0x1666 PUSH2 0x241D JUMP JUMPDEST PUSH2 0x1670 PUSH1 0x0 PUSH2 0x2BB5 JUMP JUMPDEST JUMP JUMPDEST PUSH2 0x16A1 PUSH1 0x40 DUP1 MLOAD PUSH1 0xA0 DUP2 ADD DUP3 MSTORE PUSH1 0x60 DUP1 DUP3 MSTORE PUSH1 0x0 PUSH1 0x20 DUP4 ADD DUP2 SWAP1 MSTORE SWAP3 DUP3 ADD DUP4 SWAP1 MSTORE DUP2 ADD DUP3 SWAP1 MSTORE SWAP1 PUSH1 0x80 DUP3 ADD MSTORE SWAP1 JUMP JUMPDEST PUSH1 0xFF DUP1 DUP4 AND PUSH1 0x0 SWAP1 DUP2 MSTORE PUSH1 0xD PUSH1 0x20 MSTORE PUSH1 0x40 SWAP1 KECCAK256 DUP1 SLOAD SWAP1 SWAP2 PUSH1 0x1 PUSH1 0x28 SHL DUP3 DIV PUSH2 0xFFFF AND SWAP2 PUSH2 0x16D8 SWAP2 PUSH1 0x1 PUSH1 0x60 SHL SWAP1 SWAP2 DIV AND PUSH1 0x1 PUSH2 0x4319 JUMP JUMPDEST PUSH1 0xFF AND GT ISZERO PUSH2 0x1714 JUMPI PUSH1 0x40 MLOAD PUSH3 0x461BCD PUSH1 0xE5 SHL DUP2 MSTORE PUSH1 0x20 PUSH1 0x4 DUP3 ADD MSTORE PUSH1 0x8 PUSH1 0x24 DUP3 ADD MSTORE PUSH8 0x195E18D959591959 PUSH1 0xC2 SHL PUSH1 0x44 DUP3 ADD MSTORE PUSH1 0x64 ADD PUSH2 0x747 JUMP JUMPDEST DUP4 PUSH1 0x80 ADD MLOAD PUSH1 0x1 DUP2 GT ISZERO PUSH2 0x172A JUMPI PUSH2 0x172A PUSH2 0x3659 JUMP JUMPDEST DUP2 SLOAD PUSH1 0x1 PUSH1 0x20 SHL SWAP1 DIV PUSH1 0xFF AND PUSH1 0x1 DUP2 GT ISZERO PUSH2 0x1747 JUMPI PUSH2 0x1747 PUSH2 0x3659 JUMP JUMPDEST EQ PUSH2 0x177F JUMPI PUSH1 0x40 MLOAD PUSH3 0x461BCD PUSH1 0xE5 SHL DUP2 MSTORE PUSH1 0x20 PUSH1 0x4 DUP3 ADD MSTORE PUSH1 0x8 PUSH1 0x24 DUP3 ADD MSTORE PUSH8 0x191A59999DDBDBD9 PUSH1 0xC2 SHL PUSH1 0x44 DUP3 ADD MSTORE PUSH1 0x64 ADD PUSH2 0x747 JUMP JUMPDEST DUP1 SLOAD PUSH1 0x1 PUSH1 0x60 SHL SWAP1 DIV PUSH1 0xFF AND PUSH1 0x0 SUB PUSH2 0x18F5 JUMPI PUSH1 0xB PUSH1 0x0 DUP5 PUSH1 0xFF AND PUSH2 0xFFFF AND DUP2 MSTORE PUSH1 0x20 ADD SWAP1 DUP2 MSTORE PUSH1 0x20 ADD PUSH1 0x0 KECCAK256 PUSH1 0x40 MLOAD DUP1 PUSH1 0xA0 ADD PUSH1 0x40 MSTORE DUP1 DUP7 PUSH1 0x0 ADD MLOAD DUP2 MSTORE PUSH1 0x20 ADD DUP7 PUSH1 0x20 ADD MLOAD PUSH2 0xFFFF AND DUP2 MSTORE PUSH1 0x20 ADD DUP7 PUSH1 0x40 ADD MLOAD PUSH2 0xFFFF AND DUP2 MSTORE PUSH1 0x20 ADD DUP7 PUSH1 0x60 ADD MLOAD PUSH2 0xFFFF AND DUP2 MSTORE PUSH1 0x20 ADD DUP7 PUSH1 0x80 ADD MLOAD PUSH1 0x1 DUP2 GT ISZERO PUSH2 0x1801 JUMPI PUSH2 0x1801 PUSH2 0x3659 JUMP JUMPDEST SWAP1 MSTORE DUP2 SLOAD PUSH1 0x1 DUP2 ADD DUP4 SSTORE PUSH1 0x0 SWAP3 DUP4 MSTORE PUSH1 0x20 SWAP3 DUP4 SWAP1 KECCAK256 DUP3 MLOAD DUP1 MLOAD SWAP4 SWAP5 PUSH1 0x2 SWAP1 SWAP4 MUL SWAP1 SWAP2 ADD SWAP3 PUSH2 0x1832 SWAP3 DUP5 SWAP3 ADD SWAP1 PUSH2 0x33DE JUMP JUMPDEST POP PUSH1 0x20 DUP3 ADD MLOAD PUSH1 0x1 DUP1 DUP4 ADD DUP1 SLOAD PUSH1 0x40 DUP7 ADD MLOAD PUSH1 0x60 DUP8 ADD MLOAD PUSH2 0xFFFF SWAP1 DUP2 AND PUSH1 0x1 PUSH1 0x20 SHL MUL PUSH6 0xFFFF00000000 NOT SWAP3 DUP3 AND PUSH3 0x10000 MUL PUSH4 0xFFFFFFFF NOT SWAP1 SWAP5 AND SWAP2 SWAP1 SWAP7 AND OR SWAP2 SWAP1 SWAP2 OR SWAP1 DUP2 AND DUP5 OR DUP3 SSTORE PUSH1 0x80 DUP7 ADD MLOAD SWAP4 SWAP2 SWAP3 PUSH7 0xFF000000000000 NOT SWAP1 SWAP3 AND PUSH7 0xFFFFFF00000000 NOT SWAP1 SWAP2 AND OR SWAP1 PUSH1 0x1 PUSH1 0x30 SHL SWAP1 DUP5 SWAP1 DUP2 GT ISZERO PUSH2 0x18B7 JUMPI PUSH2 0x18B7 PUSH2 0x3659 JUMP JUMPDEST MUL OR SWAP1 SSTORE POP POP DUP2 SLOAD PUSH1 0x1 PUSH1 0x60 SHL SWAP1 DIV PUSH1 0xFF AND SWAP1 POP DUP2 PUSH1 0xC PUSH2 0x18D7 DUP4 PUSH2 0x42FA JUMP JUMPDEST SWAP2 SWAP1 PUSH2 0x100 EXP DUP2 SLOAD DUP2 PUSH1 0xFF MUL NOT AND SWAP1 DUP4 PUSH1 0xFF AND MUL OR SWAP1 SSTORE POP POP PUSH2 0x1B4D JUMP JUMPDEST PUSH1 0xFF DUP4 AND PUSH1 0x0 SWAP1 DUP2 MSTORE PUSH1 0xB PUSH1 0x20 MSTORE PUSH1 0x40 DUP2 KECCAK256 DUP1 SLOAD DUP3 SWAP1 PUSH2 0x1917 JUMPI PUSH2 0x1917 PUSH2 0x41FE JUMP JUMPDEST SWAP1 PUSH1 0x0 MSTORE PUSH1 0x20 PUSH1 0x0 KECCAK256 SWAP1 PUSH1 0x2 MUL ADD SWAP1 POP DUP1 PUSH1 0x1 ADD PUSH1 0x6 SWAP1 SLOAD SWAP1 PUSH2 0x100 EXP SWAP1 DIV PUSH1 0xFF AND PUSH1 0x1 DUP2 GT ISZERO PUSH2 0x194A JUMPI PUSH2 0x194A PUSH2 0x3659 JUMP JUMPDEST DUP6 PUSH1 0x80 ADD MLOAD PUSH1 0x1 DUP2 GT ISZERO PUSH2 0x1960 JUMPI PUSH2 0x1960 PUSH2 0x3659 JUMP JUMPDEST EQ PUSH2 0x199E JUMPI PUSH1 0x40 MLOAD PUSH3 0x461BCD PUSH1 0xE5 SHL DUP2 MSTORE PUSH1 0x20 PUSH1 0x4 DUP3 ADD MSTORE PUSH1 0xE PUSH1 0x24 DUP3 ADD MSTORE PUSH14 0x3BB7B7B2103A3CB832903730B4B3 PUSH1 0x91 SHL PUSH1 0x44 DUP3 ADD MSTORE PUSH1 0x64 ADD PUSH2 0x747 JUMP JUMPDEST PUSH1 0x1 DUP2 ADD SLOAD PUSH1 0x20 DUP7 ADD MLOAD PUSH2 0xFFFF SWAP1 DUP2 AND SWAP2 AND EQ PUSH2 0x19ED JUMPI PUSH1 0x40 MLOAD PUSH3 0x461BCD PUSH1 0xE5 SHL DUP2 MSTORE PUSH1 0x20 PUSH1 0x4 DUP3 ADD MSTORE PUSH1 0xD PUSH1 0x24 DUP3 ADD MSTORE PUSH13 0x383637BA1030B3B2903730B4B3 PUSH1 0x99 SHL PUSH1 0x44 DUP3 ADD MSTORE PUSH1 0x64 ADD PUSH2 0x747 JUMP JUMPDEST PUSH1 0xB PUSH1 0x0 DUP6 PUSH1 0xFF AND PUSH2 0xFFFF AND DUP2 MSTORE PUSH1 0x20 ADD SWAP1 DUP2 MSTORE PUSH1 0x20 ADD PUSH1 0x0 KECCAK256 PUSH1 0x40 MLOAD DUP1 PUSH1 0xA0 ADD PUSH1 0x40 MSTORE DUP1 DUP8 PUSH1 0x0 ADD MLOAD DUP2 MSTORE PUSH1 0x20 ADD DUP8 PUSH1 0x20 ADD MLOAD PUSH2 0xFFFF AND DUP2 MSTORE PUSH1 0x20 ADD DUP8 PUSH1 0x40 ADD MLOAD PUSH2 0xFFFF AND DUP2 MSTORE PUSH1 0x20 ADD DUP8 PUSH1 0x60 ADD MLOAD PUSH2 0xFFFF AND DUP2 MSTORE PUSH1 0x20 ADD DUP8 PUSH1 0x80 ADD MLOAD PUSH1 0x1 DUP2 GT ISZERO PUSH2 0x1A5C JUMPI PUSH2 0x1A5C PUSH2 0x3659 JUMP JUMPDEST SWAP1 MSTORE DUP2 SLOAD PUSH1 0x1 DUP2 ADD DUP4 SSTORE PUSH1 0x0 SWAP3 DUP4 MSTORE PUSH1 0x20 SWAP3 DUP4 SWAP1 KECCAK256 DUP3 MLOAD DUP1 MLOAD SWAP4 SWAP5 PUSH1 0x2 SWAP1 SWAP4 MUL SWAP1 SWAP2 ADD SWAP3 PUSH2 0x1A8D SWAP3 DUP5 SWAP3 ADD SWAP1 PUSH2 0x33DE JUMP JUMPDEST POP PUSH1 0x20 DUP3 ADD MLOAD PUSH1 0x1 DUP1 DUP4 ADD DUP1 SLOAD PUSH1 0x40 DUP7 ADD MLOAD PUSH1 0x60 DUP8 ADD MLOAD PUSH2 0xFFFF SWAP1 DUP2 AND PUSH1 0x1 PUSH1 0x20 SHL MUL PUSH6 0xFFFF00000000 NOT SWAP3 DUP3 AND PUSH3 0x10000 MUL PUSH4 0xFFFFFFFF NOT SWAP1 SWAP5 AND SWAP2 SWAP1 SWAP7 AND OR SWAP2 SWAP1 SWAP2 OR SWAP1 DUP2 AND DUP5 OR DUP3 SSTORE PUSH1 0x80 DUP7 ADD MLOAD SWAP4 SWAP2 SWAP3 PUSH7 0xFF000000000000 NOT SWAP1 SWAP3 AND PUSH7 0xFFFFFF00000000 NOT SWAP1 SWAP2 AND OR SWAP1 PUSH1 0x1 PUSH1 0x30 SHL SWAP1 DUP5 SWAP1 DUP2 GT ISZERO PUSH2 0x1B12 JUMPI PUSH2 0x1B12 PUSH2 0x3659 JUMP JUMPDEST MUL OR SWAP1 SSTORE POP POP DUP3 SLOAD PUSH1 0x1 PUSH1 0x60 SHL SWAP1 DIV PUSH1 0xFF AND SWAP1 POP DUP3 PUSH1 0xC PUSH2 0x1B32 DUP4 PUSH2 0x42FA JUMP JUMPDEST SWAP2 SWAP1 PUSH2 0x100 EXP DUP2 SLOAD DUP2 PUSH1 0xFF MUL NOT AND SWAP1 DUP4 PUSH1 0xFF AND MUL OR SWAP1 SSTORE POP POP POP JUMPDEST POP SWAP3 SWAP2 POP POP JUMP JUMPDEST PUSH1 0x0 SWAP2 DUP3 MSTORE PUSH1 0x1 PUSH1 0x20 SWAP1 DUP2 MSTORE PUSH1 0x40 DUP1 DUP5 KECCAK256 PUSH1 0x1 PUSH1 0x1 PUSH1 0xA0 SHL SUB SWAP4 SWAP1 SWAP4 AND DUP5 MSTORE SWAP2 SWAP1 MSTORE SWAP1 KECCAK256 SLOAD PUSH1 0xFF AND SWAP1 JUMP JUMPDEST PUSH32 0x0 PUSH2 0x1BA9 DUP2 PUSH2 0x260E JUMP JUMPDEST PUSH1 0xA DUP1 SLOAD PUSH1 0x0 SWAP2 PUSH1 0xFF SWAP1 SWAP2 AND SWAP1 DUP3 PUSH2 0x1BC0 DUP4 PUSH2 0x42FA JUMP JUMPDEST SWAP2 SWAP1 PUSH2 0x100 EXP DUP2 SLOAD DUP2 PUSH1 0xFF MUL NOT AND SWAP1 DUP4 PUSH1 0xFF AND MUL OR SWAP1 SSTORE POP SWAP1 POP PUSH2 0x1C67 DUP8 DUP8 DUP8 DUP1 DUP1 PUSH1 0x20 MUL PUSH1 0x20 ADD PUSH1 0x40 MLOAD SWAP1 DUP2 ADD PUSH1 0x40 MSTORE DUP1 SWAP4 SWAP3 SWAP2 SWAP1 DUP2 DUP2 MSTORE PUSH1 0x20 ADD DUP4 DUP4 PUSH1 0x20 MUL DUP1 DUP3 DUP5 CALLDATACOPY PUSH1 0x0 SWAP3 ADD SWAP2 SWAP1 SWAP2 MSTORE POP POP PUSH1 0x40 DUP1 MLOAD PUSH1 0x20 DUP1 DUP12 MUL DUP3 DUP2 ADD DUP3 ADD SWAP1 SWAP4 MSTORE DUP11 DUP3 MSTORE SWAP1 SWAP4 POP DUP11 SWAP3 POP DUP10 SWAP2 DUP3 SWAP2 DUP6 ADD SWAP1 DUP5 SWAP1 DUP1 DUP3 DUP5 CALLDATACOPY PUSH1 0x0 SWAP3 ADD SWAP2 SWAP1 SWAP2 MSTORE POP POP PUSH1 0x40 DUP1 MLOAD DUP1 DUP3 ADD SWAP1 SWAP2 MSTORE PUSH1 0x7 DUP2 MSTORE PUSH7 0x6D696E74696E67 PUSH1 0xC8 SHL PUSH1 0x20 DUP3 ADD MSTORE SWAP2 POP PUSH2 0x2867 SWAP1 POP JUMP JUMPDEST PUSH2 0x1C73 DUP8 CALLER PUSH1 0x1 PUSH2 0x29ED JUMP JUMPDEST POP POP POP POP POP POP POP JUMP JUMPDEST PUSH2 0xC4B CALLER DUP4 DUP4 PUSH2 0x2C05 JUMP JUMPDEST PUSH1 0x7 DUP1 SLOAD PUSH2 0x1C94 SWAP1 PUSH2 0x4176 JUMP JUMPDEST DUP1 PUSH1 0x1F ADD PUSH1 0x20 DUP1 SWAP2 DIV MUL PUSH1 0x20 ADD PUSH1 0x40 MLOAD SWAP1 DUP2 ADD PUSH1 0x40 MSTORE DUP1 SWAP3 SWAP2 SWAP1 DUP2 DUP2 MSTORE PUSH1 0x20 ADD DUP3 DUP1 SLOAD PUSH2 0x1CC0 SWAP1 PUSH2 0x4176 JUMP JUMPDEST DUP1 ISZERO PUSH2 0x1D0D JUMPI DUP1 PUSH1 0x1F LT PUSH2 0x1CE2 JUMPI PUSH2 0x100 DUP1 DUP4 SLOAD DIV MUL DUP4 MSTORE SWAP2 PUSH1 0x20 ADD SWAP2 PUSH2 0x1D0D JUMP JUMPDEST DUP3 ADD SWAP2 SWAP1 PUSH1 0x0 MSTORE PUSH1 0x20 PUSH1 0x0 KECCAK256 SWAP1 JUMPDEST DUP2 SLOAD DUP2 MSTORE SWAP1 PUSH1 0x1 ADD SWAP1 PUSH1 0x20 ADD DUP1 DUP4 GT PUSH2 0x1CF0 JUMPI DUP3 SWAP1 SUB PUSH1 0x1F AND DUP3 ADD SWAP2 JUMPDEST POP POP POP POP POP DUP2 JUMP JUMPDEST PUSH1 0xFF DUP2 AND PUSH1 0x0 SWAP1 DUP2 MSTORE PUSH1 0xD PUSH1 0x20 MSTORE PUSH1 0x40 SWAP1 KECCAK256 DUP1 SLOAD PUSH4 0xFFFFFFFF PUSH1 0x1 PUSH1 0x38 SHL SWAP1 SWAP2 DIV DUP2 AND SWAP1 DUP5 AND GT ISZERO PUSH2 0x1D9D JUMPI PUSH1 0x40 MLOAD PUSH3 0x461BCD PUSH1 0xE5 SHL DUP2 MSTORE PUSH1 0x20 PUSH1 0x4 DUP3 ADD MSTORE PUSH1 0x2B PUSH1 0x24 DUP3 ADD MSTORE PUSH32 0x666C6F72657374206E6F7420616C6C6F77656420746F20746F6B656E697A6520 PUSH1 0x44 DUP3 ADD MSTORE PUSH11 0x1D1A1A5CC8185B5BDD5B9D PUSH1 0xAA SHL PUSH1 0x64 DUP3 ADD MSTORE PUSH1 0x84 ADD PUSH2 0x747 JUMP JUMPDEST DUP1 SLOAD PUSH4 0xFFFFFFFF NOT AND PUSH4 0xFFFFFFFF SWAP4 SWAP1 SWAP4 AND SWAP3 SWAP1 SWAP3 OR SWAP1 SWAP2 SSTORE POP POP JUMP JUMPDEST PUSH1 0xE PUSH1 0x20 MSTORE DUP2 PUSH1 0x0 MSTORE PUSH1 0x40 PUSH1 0x0 KECCAK256 DUP2 DUP2 SLOAD DUP2 LT PUSH2 0x1DD6 JUMPI PUSH1 0x0 DUP1 REVERT JUMPDEST SWAP1 PUSH1 0x0 MSTORE PUSH1 0x20 PUSH1 0x0 KECCAK256 SWAP1 PUSH1 0x8 SWAP2 DUP3 DUP3 DIV ADD SWAP2 SWAP1 MOD PUSH1 0x4 MUL SWAP2 POP SWAP2 POP SWAP1 SLOAD SWAP1 PUSH2 0x100 EXP SWAP1 DIV PUSH4 0xFFFFFFFF AND DUP2 JUMP JUMPDEST PUSH2 0x1E4C PUSH1 0x40 DUP1 MLOAD PUSH2 0x100 DUP2 ADD DUP3 MSTORE PUSH1 0x60 DUP1 DUP3 MSTORE PUSH1 0x20 DUP3 ADD MSTORE SWAP1 DUP2 ADD PUSH1 0x0 DUP2 MSTORE PUSH1 0x0 PUSH1 0x20 DUP3 ADD DUP2 SWAP1 MSTORE PUSH1 0x40 DUP3 ADD DUP2 SWAP1 MSTORE PUSH1 0x60 SWAP1 SWAP2 ADD SWAP1 DUP2 MSTORE PUSH1 0x0 PUSH1 0x20 DUP3 ADD MSTORE PUSH1 0x60 PUSH1 0x40 SWAP1 SWAP2 ADD MSTORE SWAP1 JUMP JUMPDEST PUSH2 0xFFFF DUP4 AND PUSH1 0x0 SWAP1 DUP2 MSTORE PUSH1 0xC PUSH1 0x20 MSTORE PUSH1 0x40 SWAP1 KECCAK256 DUP1 SLOAD PUSH1 0xFF DUP5 AND SWAP1 DUP2 LT PUSH2 0x1E74 JUMPI PUSH2 0x1E74 PUSH2 0x41FE JUMP JUMPDEST SWAP1 PUSH1 0x0 MSTORE PUSH1 0x20 PUSH1 0x0 KECCAK256 SWAP1 PUSH1 0x5 MUL ADD PUSH1 0x40 MLOAD DUP1 PUSH2 0x100 ADD PUSH1 0x40 MSTORE SWAP1 DUP2 PUSH1 0x0 DUP3 ADD DUP1 SLOAD PUSH2 0x1E9E SWAP1 PUSH2 0x4176 JUMP JUMPDEST DUP1 PUSH1 0x1F ADD PUSH1 0x20 DUP1 SWAP2 DIV MUL PUSH1 0x20 ADD PUSH1 0x40 MLOAD SWAP1 DUP2 ADD PUSH1 0x40 MSTORE DUP1 SWAP3 SWAP2 SWAP1 DUP2 DUP2 MSTORE PUSH1 0x20 ADD DUP3 DUP1 SLOAD PUSH2 0x1ECA SWAP1 PUSH2 0x4176 JUMP JUMPDEST DUP1 ISZERO PUSH2 0x1F17 JUMPI DUP1 PUSH1 0x1F LT PUSH2 0x1EEC JUMPI PUSH2 0x100 DUP1 DUP4 SLOAD DIV MUL DUP4 MSTORE SWAP2 PUSH1 0x20 ADD SWAP2 PUSH2 0x1F17 JUMP JUMPDEST DUP3 ADD SWAP2 SWAP1 PUSH1 0x0 MSTORE PUSH1 0x20 PUSH1 0x0 KECCAK256 SWAP1 JUMPDEST DUP2 SLOAD DUP2 MSTORE SWAP1 PUSH1 0x1 ADD SWAP1 PUSH1 0x20 ADD DUP1 DUP4 GT PUSH2 0x1EFA JUMPI DUP3 SWAP1 SUB PUSH1 0x1F AND DUP3 ADD SWAP2 JUMPDEST POP POP POP POP POP DUP2 MSTORE PUSH1 0x20 ADD PUSH1 0x1 DUP3 ADD DUP1 SLOAD PUSH2 0x1F30 SWAP1 PUSH2 0x4176 JUMP JUMPDEST DUP1 PUSH1 0x1F ADD PUSH1 0x20 DUP1 SWAP2 DIV MUL PUSH1 0x20 ADD PUSH1 0x40 MLOAD SWAP1 DUP2 ADD PUSH1 0x40 MSTORE DUP1 SWAP3 SWAP2 SWAP1 DUP2 DUP2 MSTORE PUSH1 0x20 ADD DUP3 DUP1 SLOAD PUSH2 0x1F5C SWAP1 PUSH2 0x4176 JUMP JUMPDEST DUP1 ISZERO PUSH2 0x1FA9 JUMPI DUP1 PUSH1 0x1F LT PUSH2 0x1F7E JUMPI PUSH2 0x100 DUP1 DUP4 SLOAD DIV MUL DUP4 MSTORE SWAP2 PUSH1 0x20 ADD SWAP2 PUSH2 0x1FA9 JUMP JUMPDEST DUP3 ADD SWAP2 SWAP1 PUSH1 0x0 MSTORE PUSH1 0x20 PUSH1 0x0 KECCAK256 SWAP1 JUMPDEST DUP2 SLOAD DUP2 MSTORE SWAP1 PUSH1 0x1 ADD SWAP1 PUSH1 0x20 ADD DUP1 DUP4 GT PUSH2 0x1F8C JUMPI DUP3 SWAP1 SUB PUSH1 0x1F AND DUP3 ADD SWAP2 JUMPDEST POP POP POP SWAP2 DUP4 MSTORE POP POP PUSH1 0x2 DUP3 ADD SLOAD PUSH1 0x20 SWAP1 SWAP2 ADD SWAP1 PUSH1 0xFF AND PUSH1 0x1 DUP2 GT ISZERO PUSH2 0x1FD0 JUMPI PUSH2 0x1FD0 PUSH2 0x3659 JUMP JUMPDEST PUSH1 0x1 DUP2 GT ISZERO PUSH2 0x1FE1 JUMPI PUSH2 0x1FE1 PUSH2 0x3659 JUMP JUMPDEST DUP2 MSTORE PUSH1 0x2 DUP3 ADD SLOAD PUSH2 0x100 SWAP1 DIV PUSH1 0x1 PUSH1 0x1 PUSH1 0xA0 SHL SUB SWAP1 DUP2 AND PUSH1 0x20 DUP4 ADD MSTORE PUSH1 0x3 DUP4 ADD SLOAD SWAP1 DUP2 AND PUSH1 0x40 DUP4 ADD MSTORE PUSH1 0x60 SWAP1 SWAP2 ADD SWAP1 PUSH1 0x1 PUSH1 0xA0 SHL SWAP1 DIV PUSH1 0xFF AND PUSH1 0x1 DUP2 GT ISZERO PUSH2 0x202B JUMPI PUSH2 0x202B PUSH2 0x3659 JUMP JUMPDEST PUSH1 0x1 DUP2 GT ISZERO PUSH2 0x203C JUMPI PUSH2 0x203C PUSH2 0x3659 JUMP JUMPDEST DUP2 MSTORE PUSH1 0x3 DUP3 ADD SLOAD PUSH1 0x1 PUSH1 0xA8 SHL SWAP1 DIV PUSH1 0xFF AND ISZERO ISZERO PUSH1 0x20 DUP3 ADD MSTORE PUSH1 0x4 DUP3 ADD DUP1 SLOAD PUSH1 0x40 SWAP1 SWAP3 ADD SWAP2 PUSH2 0x2069 SWAP1 PUSH2 0x4176 JUMP JUMPDEST DUP1 PUSH1 0x1F ADD PUSH1 0x20 DUP1 SWAP2 DIV MUL PUSH1 0x20 ADD PUSH1 0x40 MLOAD SWAP1 DUP2 ADD PUSH1 0x40 MSTORE DUP1 SWAP3 SWAP2 SWAP1 DUP2 DUP2 MSTORE PUSH1 0x20 ADD DUP3 DUP1 SLOAD PUSH2 0x2095 SWAP1 PUSH2 0x4176 JUMP JUMPDEST DUP1 ISZERO PUSH2 0x20E2 JUMPI DUP1 PUSH1 0x1F LT PUSH2 0x20B7 JUMPI PUSH2 0x100 DUP1 DUP4 SLOAD DIV MUL DUP4 MSTORE SWAP2 PUSH1 0x20 ADD SWAP2 PUSH2 0x20E2 JUMP JUMPDEST DUP3 ADD SWAP2 SWAP1 PUSH1 0x0 MSTORE PUSH1 0x20 PUSH1 0x0 KECCAK256 SWAP1 JUMPDEST DUP2 SLOAD DUP2 MSTORE SWAP1 PUSH1 0x1 ADD SWAP1 PUSH1 0x20 ADD DUP1 DUP4 GT PUSH2 0x20C5 JUMPI DUP3 SWAP1 SUB PUSH1 0x1F AND DUP3 ADD SWAP2 JUMPDEST POP POP POP POP POP DUP2 MSTORE POP POP SWAP1 POP SWAP3 SWAP2 POP POP JUMP JUMPDEST PUSH1 0x0 DUP3 DUP2 MSTORE PUSH1 0x1 PUSH1 0x20 DUP2 SWAP1 MSTORE PUSH1 0x40 SWAP1 SWAP2 KECCAK256 ADD SLOAD PUSH2 0x210F DUP2 PUSH2 0x260E JUMP JUMPDEST PUSH2 0xBCC DUP4 DUP4 PUSH2 0x2683 JUMP JUMPDEST PUSH32 0x0 PUSH2 0x2143 DUP2 PUSH2 0x260E JUMP JUMPDEST POP PUSH1 0xA DUP1 SLOAD PUSH2 0xFFFF SWAP1 SWAP3 AND PUSH3 0x10000 MUL PUSH4 0xFFFF0000 NOT SWAP1 SWAP3 AND SWAP2 SWAP1 SWAP2 OR SWAP1 SSTORE JUMP JUMPDEST PUSH1 0x6 DUP1 SLOAD PUSH2 0x1C94 SWAP1 PUSH2 0x4176 JUMP JUMPDEST PUSH1 0x1 PUSH1 0x1 PUSH1 0xA0 SHL SUB DUP6 AND CALLER EQ DUP1 PUSH2 0x218D JUMPI POP PUSH2 0x218D DUP6 CALLER PUSH2 0x5F4 JUMP JUMPDEST PUSH2 0x21A9 JUMPI PUSH1 0x40 MLOAD PUSH3 0x461BCD PUSH1 0xE5 SHL DUP2 MSTORE PUSH1 0x4 ADD PUSH2 0x747 SWAP1 PUSH2 0x41B0 JUMP JUMPDEST PUSH2 0xB9F DUP6 DUP6 DUP6 DUP6 DUP6 PUSH2 0x2CE5 JUMP JUMPDEST PUSH2 0x21BE PUSH2 0x241D JUMP JUMPDEST PUSH1 0x1 PUSH1 0x1 PUSH1 0xA0 SHL SUB DUP2 AND PUSH2 0x2223 JUMPI PUSH1 0x40 MLOAD PUSH3 0x461BCD PUSH1 0xE5 SHL DUP2 MSTORE PUSH1 0x20 PUSH1 0x4 DUP3 ADD MSTORE PUSH1 0x26 PUSH1 0x24 DUP3 ADD MSTORE PUSH32 0x4F776E61626C653A206E6577206F776E657220697320746865207A65726F2061 PUSH1 0x44 DUP3 ADD MSTORE PUSH6 0x646472657373 PUSH1 0xD0 SHL PUSH1 0x64 DUP3 ADD MSTORE PUSH1 0x84 ADD PUSH2 0x747 JUMP JUMPDEST PUSH2 0x222C DUP2 PUSH2 0x2BB5 JUMP JUMPDEST POP JUMP JUMPDEST PUSH1 0x1 PUSH1 0x1 PUSH1 0xA0 SHL SUB DUP4 AND CALLER EQ DUP1 PUSH2 0x224B JUMPI POP PUSH2 0x224B DUP4 CALLER PUSH2 0x5F4 JUMP JUMPDEST PUSH2 0x2267 JUMPI PUSH1 0x40 MLOAD PUSH3 0x461BCD PUSH1 0xE5 SHL DUP2 MSTORE PUSH1 0x4 ADD PUSH2 0x747 SWAP1 PUSH2 0x41B0 JUMP JUMPDEST PUSH2 0xBCC DUP4 DUP4 DUP4 PUSH2 0x2E13 JUMP JUMPDEST PUSH2 0x22A1 PUSH1 0x40 DUP1 MLOAD PUSH1 0xA0 DUP2 ADD DUP3 MSTORE PUSH1 0x60 DUP1 DUP3 MSTORE PUSH1 0x0 PUSH1 0x20 DUP4 ADD DUP2 SWAP1 MSTORE SWAP3 DUP3 ADD DUP4 SWAP1 MSTORE DUP2 ADD DUP3 SWAP1 MSTORE SWAP1 PUSH1 0x80 DUP3 ADD MSTORE SWAP1 JUMP JUMPDEST PUSH1 0xFF DUP4 AND PUSH1 0x0 SWAP1 DUP2 MSTORE PUSH1 0xB PUSH1 0x20 MSTORE PUSH1 0x40 DUP2 KECCAK256 DUP1 SLOAD PUSH2 0xFFFF DUP6 AND SWAP1 DUP2 LT PUSH2 0x22C9 JUMPI PUSH2 0x22C9 PUSH2 0x41FE JUMP JUMPDEST SWAP1 PUSH1 0x0 MSTORE PUSH1 0x20 PUSH1 0x0 KECCAK256 SWAP1 PUSH1 0x2 MUL ADD SWAP1 POP DUP1 PUSH1 0x40 MLOAD DUP1 PUSH1 0xA0 ADD PUSH1 0x40 MSTORE SWAP1 DUP2 PUSH1 0x0 DUP3 ADD DUP1 SLOAD PUSH2 0x22F5 SWAP1 PUSH2 0x4176 JUMP JUMPDEST DUP1 PUSH1 0x1F ADD PUSH1 0x20 DUP1 SWAP2 DIV MUL PUSH1 0x20 ADD PUSH1 0x40 MLOAD SWAP1 DUP2 ADD PUSH1 0x40 MSTORE DUP1 SWAP3 SWAP2 SWAP1 DUP2 DUP2 MSTORE PUSH1 0x20 ADD DUP3 DUP1 SLOAD PUSH2 0x2321 SWAP1 PUSH2 0x4176 JUMP JUMPDEST DUP1 ISZERO PUSH2 0x236E JUMPI DUP1 PUSH1 0x1F LT PUSH2 0x2343 JUMPI PUSH2 0x100 DUP1 DUP4 SLOAD DIV MUL DUP4 MSTORE SWAP2 PUSH1 0x20 ADD SWAP2 PUSH2 0x236E JUMP JUMPDEST DUP3 ADD SWAP2 SWAP1 PUSH1 0x0 MSTORE PUSH1 0x20 PUSH1 0x0 KECCAK256 SWAP1 JUMPDEST DUP2 SLOAD DUP2 MSTORE SWAP1 PUSH1 0x1 ADD SWAP1 PUSH1 0x20 ADD DUP1 DUP4 GT PUSH2 0x2351 JUMPI DUP3 SWAP1 SUB PUSH1 0x1F AND DUP3 ADD SWAP2 JUMPDEST POP POP POP SWAP2 DUP4 MSTORE POP POP PUSH1 0x1 DUP3 DUP2 ADD SLOAD PUSH2 0xFFFF DUP1 DUP3 AND PUSH1 0x20 DUP6 ADD MSTORE PUSH3 0x10000 DUP3 DIV DUP2 AND PUSH1 0x40 DUP6 ADD MSTORE PUSH1 0x1 PUSH1 0x20 SHL DUP3 DIV AND PUSH1 0x60 DUP5 ADD MSTORE PUSH1 0x80 SWAP1 SWAP3 ADD SWAP2 PUSH1 0x1 PUSH1 0x30 SHL SWAP1 DIV PUSH1 0xFF AND SWAP1 DUP2 GT ISZERO PUSH2 0x23C1 JUMPI PUSH2 0x23C1 PUSH2 0x3659 JUMP JUMPDEST PUSH1 0x1 DUP2 GT ISZERO PUSH2 0x23D2 JUMPI PUSH2 0x23D2 PUSH2 0x3659 JUMP JUMPDEST SWAP1 MSTORE POP SWAP5 SWAP4 POP POP POP POP JUMP JUMPDEST PUSH1 0x0 PUSH1 0x1 PUSH1 0x1 PUSH1 0xE0 SHL SUB NOT DUP3 AND PUSH4 0x6CDB3D13 PUSH1 0xE1 SHL EQ DUP1 PUSH2 0x240E JUMPI POP PUSH1 0x1 PUSH1 0x1 PUSH1 0xE0 SHL SUB NOT DUP3 AND PUSH4 0x3A24D07 PUSH1 0xE2 SHL EQ JUMPDEST DUP1 PUSH2 0x783 JUMPI POP PUSH2 0x783 DUP3 PUSH2 0x2F1A JUMP JUMPDEST PUSH1 0x0 SLOAD PUSH1 0x1 PUSH1 0x1 PUSH1 0xA0 SHL SUB AND CALLER EQ PUSH2 0x1670 JUMPI PUSH1 0x40 MLOAD PUSH3 0x461BCD PUSH1 0xE5 SHL DUP2 MSTORE PUSH1 0x20 PUSH1 0x4 DUP3 ADD DUP2 SWAP1 MSTORE PUSH1 0x24 DUP3 ADD MSTORE PUSH32 0x4F776E61626C653A2063616C6C6572206973206E6F7420746865206F776E6572 PUSH1 0x44 DUP3 ADD MSTORE PUSH1 0x64 ADD PUSH2 0x747 JUMP JUMPDEST DUP2 MLOAD DUP4 MLOAD EQ PUSH2 0x2498 JUMPI PUSH1 0x40 MLOAD PUSH3 0x461BCD PUSH1 0xE5 SHL DUP2 MSTORE PUSH1 0x4 ADD PUSH2 0x747 SWAP1 PUSH2 0x433E JUMP JUMPDEST PUSH1 0x1 PUSH1 0x1 PUSH1 0xA0 SHL SUB DUP5 AND PUSH2 0x24BE JUMPI PUSH1 0x40 MLOAD PUSH3 0x461BCD PUSH1 0xE5 SHL DUP2 MSTORE PUSH1 0x4 ADD PUSH2 0x747 SWAP1 PUSH2 0x4386 JUMP JUMPDEST CALLER PUSH1 0x0 JUMPDEST DUP5 MLOAD DUP2 LT ISZERO PUSH2 0x25A8 JUMPI PUSH1 0x0 DUP6 DUP3 DUP2 MLOAD DUP2 LT PUSH2 0x24DF JUMPI PUSH2 0x24DF PUSH2 0x41FE JUMP JUMPDEST PUSH1 0x20 MUL PUSH1 0x20 ADD ADD MLOAD SWAP1 POP PUSH1 0x0 DUP6 DUP4 DUP2 MLOAD DUP2 LT PUSH2 0x24FD JUMPI PUSH2 0x24FD PUSH2 0x41FE JUMP JUMPDEST PUSH1 0x20 SWAP1 DUP2 MUL SWAP2 SWAP1 SWAP2 ADD DUP2 ADD MLOAD PUSH1 0x0 DUP5 DUP2 MSTORE PUSH1 0x2 DUP4 MSTORE PUSH1 0x40 DUP1 DUP3 KECCAK256 PUSH1 0x1 PUSH1 0x1 PUSH1 0xA0 SHL SUB DUP15 AND DUP4 MSTORE SWAP1 SWAP4 MSTORE SWAP2 SWAP1 SWAP2 KECCAK256 SLOAD SWAP1 SWAP2 POP DUP2 DUP2 LT ISZERO PUSH2 0x254E JUMPI PUSH1 0x40 MLOAD PUSH3 0x461BCD PUSH1 0xE5 SHL DUP2 MSTORE PUSH1 0x4 ADD PUSH2 0x747 SWAP1 PUSH2 0x43CB JUMP JUMPDEST PUSH1 0x0 DUP4 DUP2 MSTORE PUSH1 0x2 PUSH1 0x20 SWAP1 DUP2 MSTORE PUSH1 0x40 DUP1 DUP4 KECCAK256 PUSH1 0x1 PUSH1 0x1 PUSH1 0xA0 SHL SUB DUP15 DUP2 AND DUP6 MSTORE SWAP3 MSTORE DUP1 DUP4 KECCAK256 DUP6 DUP6 SUB SWAP1 SSTORE SWAP1 DUP12 AND DUP3 MSTORE DUP2 KECCAK256 DUP1 SLOAD DUP5 SWAP3 SWAP1 PUSH2 0x258D SWAP1 DUP5 SWAP1 PUSH2 0x4415 JUMP JUMPDEST SWAP3 POP POP DUP2 SWAP1 SSTORE POP POP POP POP DUP1 PUSH2 0x25A1 SWAP1 PUSH2 0x422A JUMP JUMPDEST SWAP1 POP PUSH2 0x24C2 JUMP JUMPDEST POP DUP5 PUSH1 0x1 PUSH1 0x1 PUSH1 0xA0 SHL SUB AND DUP7 PUSH1 0x1 PUSH1 0x1 PUSH1 0xA0 SHL SUB AND DUP3 PUSH1 0x1 PUSH1 0x1 PUSH1 0xA0 SHL SUB AND PUSH32 0x4A39DC06D4C0DBC64B70AF90FD698A233A518AA5D07E595D983B8C0526C8F7FB DUP8 DUP8 PUSH1 0x40 MLOAD PUSH2 0x25F8 SWAP3 SWAP2 SWAP1 PUSH2 0x442D JUMP JUMPDEST PUSH1 0x40 MLOAD DUP1 SWAP2 SUB SWAP1 LOG4 PUSH2 0x1613 DUP2 DUP8 DUP8 DUP8 DUP8 DUP8 PUSH2 0x2F4F JUMP JUMPDEST PUSH2 0x222C DUP2 CALLER PUSH2 0x30AA JUMP JUMPDEST PUSH2 0x2622 DUP3 DUP3 PUSH2 0x1B54 JUMP JUMPDEST PUSH2 0xC4B JUMPI PUSH1 0x0 DUP3 DUP2 MSTORE PUSH1 0x1 PUSH1 0x20 DUP2 DUP2 MSTORE PUSH1 0x40 DUP1 DUP5 KECCAK256 PUSH1 0x1 PUSH1 0x1 PUSH1 0xA0 SHL SUB DUP7 AND DUP1 DUP7 MSTORE SWAP3 MSTORE DUP1 DUP5 KECCAK256 DUP1 SLOAD PUSH1 0xFF NOT AND SWAP1 SWAP4 OR SWAP1 SWAP3 SSTORE SWAP1 MLOAD CALLER SWAP3 DUP6 SWAP2 PUSH32 0x2F8788117E7EFF1D82E926EC794901D17C78024A50270940304540A733656F0D SWAP2 SWAP1 LOG4 POP POP JUMP JUMPDEST PUSH2 0x268D DUP3 DUP3 PUSH2 0x1B54 JUMP JUMPDEST ISZERO PUSH2 0xC4B JUMPI PUSH1 0x0 DUP3 DUP2 MSTORE PUSH1 0x1 PUSH1 0x20 SWAP1 DUP2 MSTORE PUSH1 0x40 DUP1 DUP4 KECCAK256 PUSH1 0x1 PUSH1 0x1 PUSH1 0xA0 SHL SUB DUP6 AND DUP1 DUP6 MSTORE SWAP3 MSTORE DUP1 DUP4 KECCAK256 DUP1 SLOAD PUSH1 0xFF NOT AND SWAP1 SSTORE MLOAD CALLER SWAP3 DUP6 SWAP2 PUSH32 0xF6391F5C32D9C69D2A47EA670B442974B53935D1EDC7FD64EB21E047A839171B SWAP2 SWAP1 LOG4 POP POP JUMP JUMPDEST PUSH2 0xC4B DUP3 DUP3 PUSH1 0x40 MLOAD PUSH1 0x24 ADD PUSH2 0x2700 SWAP3 SWAP2 SWAP1 PUSH2 0x445B JUMP JUMPDEST PUSH1 0x40 DUP1 MLOAD PUSH1 0x1F NOT DUP2 DUP5 SUB ADD DUP2 MSTORE SWAP2 SWAP1 MSTORE PUSH1 0x20 DUP2 ADD DUP1 MLOAD PUSH1 0x1 PUSH1 0x1 PUSH1 0xE0 SHL SUB AND PUSH4 0x2D839CB3 PUSH1 0xE2 SHL OR SWAP1 MSTORE PUSH2 0x3103 JUMP JUMPDEST PUSH2 0x222C DUP2 PUSH1 0x40 MLOAD PUSH1 0x24 ADD PUSH2 0x2745 SWAP2 DUP2 MSTORE PUSH1 0x20 ADD SWAP1 JUMP JUMPDEST PUSH1 0x40 DUP1 MLOAD PUSH1 0x1F NOT DUP2 DUP5 SUB ADD DUP2 MSTORE SWAP2 SWAP1 MSTORE PUSH1 0x20 DUP2 ADD DUP1 MLOAD PUSH1 0x1 PUSH1 0x1 PUSH1 0xE0 SHL SUB AND PUSH4 0xF82C50F1 PUSH1 0xE0 SHL OR SWAP1 MSTORE PUSH2 0x3103 JUMP JUMPDEST PUSH2 0x222C DUP2 PUSH1 0x40 MLOAD PUSH1 0x24 ADD PUSH2 0x2788 SWAP2 SWAP1 PUSH2 0x35E6 JUMP JUMPDEST PUSH1 0x40 DUP1 MLOAD PUSH1 0x1F NOT DUP2 DUP5 SUB ADD DUP2 MSTORE SWAP2 SWAP1 MSTORE PUSH1 0x20 DUP2 ADD DUP1 MLOAD PUSH1 0x1 PUSH1 0x1 PUSH1 0xE0 SHL SUB AND PUSH4 0x104C13EB PUSH1 0xE2 SHL OR SWAP1 MSTORE PUSH2 0x3103 JUMP JUMPDEST PUSH2 0xFFFF DUP2 AND PUSH1 0x0 SWAP1 DUP2 MSTORE PUSH1 0x9 PUSH1 0x20 SWAP1 DUP2 MSTORE PUSH1 0x40 DUP1 DUP4 KECCAK256 PUSH1 0xE SWAP1 SWAP3 MSTORE DUP3 KECCAK256 DUP3 DUP1 JUMPDEST DUP3 SLOAD PUSH1 0xFF DUP3 AND LT ISZERO PUSH2 0x2850 JUMPI PUSH2 0xFFFF DUP7 AND PUSH1 0x0 SWAP1 DUP2 MSTORE PUSH1 0xE PUSH1 0x20 MSTORE PUSH1 0x40 SWAP1 KECCAK256 DUP1 SLOAD PUSH1 0xFF DUP4 AND SWAP1 DUP2 LT PUSH2 0x280B JUMPI PUSH2 0x280B PUSH2 0x41FE JUMP JUMPDEST SWAP1 PUSH1 0x0 MSTORE PUSH1 0x20 PUSH1 0x0 KECCAK256 SWAP1 PUSH1 0x8 SWAP2 DUP3 DUP3 DIV ADD SWAP2 SWAP1 MOD PUSH1 0x4 MUL SWAP1 SLOAD SWAP1 PUSH2 0x100 EXP SWAP1 DIV PUSH4 0xFFFFFFFF AND DUP3 PUSH2 0x283C SWAP2 SWAP1 PUSH2 0x447D JUMP JUMPDEST SWAP2 POP DUP1 PUSH2 0x2848 DUP2 PUSH2 0x42FA JUMP JUMPDEST SWAP2 POP POP PUSH2 0x27D7 JUMP JUMPDEST POP PUSH3 0x13880 PUSH4 0xFFFFFFFF SWAP1 SWAP2 AND GT ISZERO SWAP5 SWAP4 POP POP POP POP JUMP JUMPDEST PUSH1 0x1 PUSH1 0x1 PUSH1 0xA0 SHL SUB DUP5 AND PUSH2 0x28C7 JUMPI PUSH1 0x40 MLOAD PUSH3 0x461BCD PUSH1 0xE5 SHL DUP2 MSTORE PUSH1 0x20 PUSH1 0x4 DUP3 ADD MSTORE PUSH1 0x21 PUSH1 0x24 DUP3 ADD MSTORE PUSH32 0x455243313135353A206D696E7420746F20746865207A65726F20616464726573 PUSH1 0x44 DUP3 ADD MSTORE PUSH1 0x73 PUSH1 0xF8 SHL PUSH1 0x64 DUP3 ADD MSTORE PUSH1 0x84 ADD PUSH2 0x747 JUMP JUMPDEST DUP2 MLOAD DUP4 MLOAD EQ PUSH2 0x28E8 JUMPI PUSH1 0x40 MLOAD PUSH3 0x461BCD PUSH1 0xE5 SHL DUP2 MSTORE PUSH1 0x4 ADD PUSH2 0x747 SWAP1 PUSH2 0x433E JUMP JUMPDEST CALLER PUSH1 0x0 JUMPDEST DUP5 MLOAD DUP2 LT ISZERO PUSH2 0x2985 JUMPI DUP4 DUP2 DUP2 MLOAD DUP2 LT PUSH2 0x2907 JUMPI PUSH2 0x2907 PUSH2 0x41FE JUMP JUMPDEST PUSH1 0x20 MUL PUSH1 0x20 ADD ADD MLOAD PUSH1 0x2 PUSH1 0x0 DUP8 DUP5 DUP2 MLOAD DUP2 LT PUSH2 0x2925 JUMPI PUSH2 0x2925 PUSH2 0x41FE JUMP JUMPDEST PUSH1 0x20 MUL PUSH1 0x20 ADD ADD MLOAD DUP2 MSTORE PUSH1 0x20 ADD SWAP1 DUP2 MSTORE PUSH1 0x20 ADD PUSH1 0x0 KECCAK256 PUSH1 0x0 DUP9 PUSH1 0x1 PUSH1 0x1 PUSH1 0xA0 SHL SUB AND PUSH1 0x1 PUSH1 0x1 PUSH1 0xA0 SHL SUB AND DUP2 MSTORE PUSH1 0x20 ADD SWAP1 DUP2 MSTORE PUSH1 0x20 ADD PUSH1 0x0 KECCAK256 PUSH1 0x0 DUP3 DUP3 SLOAD PUSH2 0x296D SWAP2 SWAP1 PUSH2 0x4415 JUMP JUMPDEST SWAP1 SWAP2 SSTORE POP DUP2 SWAP1 POP PUSH2 0x297D DUP2 PUSH2 0x422A JUMP JUMPDEST SWAP2 POP POP PUSH2 0x28EC JUMP JUMPDEST POP DUP5 PUSH1 0x1 PUSH1 0x1 PUSH1 0xA0 SHL SUB AND PUSH1 0x0 PUSH1 0x1 PUSH1 0x1 PUSH1 0xA0 SHL SUB AND DUP3 PUSH1 0x1 PUSH1 0x1 PUSH1 0xA0 SHL SUB AND PUSH32 0x4A39DC06D4C0DBC64B70AF90FD698A233A518AA5D07E595D983B8C0526C8F7FB DUP8 DUP8 PUSH1 0x40 MLOAD PUSH2 0x29D6 SWAP3 SWAP2 SWAP1 PUSH2 0x442D JUMP JUMPDEST PUSH1 0x40 MLOAD DUP1 SWAP2 SUB SWAP1 LOG4 PUSH2 0xB9F DUP2 PUSH1 0x0 DUP8 DUP8 DUP8 DUP8 PUSH2 0x2F4F JUMP JUMPDEST PUSH32 0x0 PUSH2 0x2A17 DUP2 PUSH2 0x260E JUMP JUMPDEST PUSH2 0x2A22 DUP5 DUP5 DUP5 PUSH2 0x2C05 JUMP JUMPDEST POP POP POP POP JUMP JUMPDEST PUSH1 0x1 PUSH1 0x1 PUSH1 0xA0 SHL SUB DUP4 AND PUSH2 0x2A4E JUMPI PUSH1 0x40 MLOAD PUSH3 0x461BCD PUSH1 0xE5 SHL DUP2 MSTORE PUSH1 0x4 ADD PUSH2 0x747 SWAP1 PUSH2 0x44A5 JUMP JUMPDEST DUP1 MLOAD DUP3 MLOAD EQ PUSH2 0x2A6F JUMPI PUSH1 0x40 MLOAD PUSH3 0x461BCD PUSH1 0xE5 SHL DUP2 MSTORE PUSH1 0x4 ADD PUSH2 0x747 SWAP1 PUSH2 0x433E JUMP JUMPDEST PUSH1 0x40 DUP1 MLOAD PUSH1 0x20 DUP2 ADD SWAP1 SWAP2 MSTORE PUSH1 0x0 SWAP1 DUP2 SWAP1 MSTORE CALLER SWAP1 JUMPDEST DUP4 MLOAD DUP2 LT ISZERO PUSH2 0x2B48 JUMPI PUSH1 0x0 DUP5 DUP3 DUP2 MLOAD DUP2 LT PUSH2 0x2AA0 JUMPI PUSH2 0x2AA0 PUSH2 0x41FE JUMP JUMPDEST PUSH1 0x20 MUL PUSH1 0x20 ADD ADD MLOAD SWAP1 POP PUSH1 0x0 DUP5 DUP4 DUP2 MLOAD DUP2 LT PUSH2 0x2ABE JUMPI PUSH2 0x2ABE PUSH2 0x41FE JUMP JUMPDEST PUSH1 0x20 SWAP1 DUP2 MUL SWAP2 SWAP1 SWAP2 ADD DUP2 ADD MLOAD PUSH1 0x0 DUP5 DUP2 MSTORE PUSH1 0x2 DUP4 MSTORE PUSH1 0x40 DUP1 DUP3 KECCAK256 PUSH1 0x1 PUSH1 0x1 PUSH1 0xA0 SHL SUB DUP13 AND DUP4 MSTORE SWAP1 SWAP4 MSTORE SWAP2 SWAP1 SWAP2 KECCAK256 SLOAD SWAP1 SWAP2 POP DUP2 DUP2 LT ISZERO PUSH2 0x2B0F JUMPI PUSH1 0x40 MLOAD PUSH3 0x461BCD PUSH1 0xE5 SHL DUP2 MSTORE PUSH1 0x4 ADD PUSH2 0x747 SWAP1 PUSH2 0x44E8 JUMP JUMPDEST PUSH1 0x0 SWAP3 DUP4 MSTORE PUSH1 0x2 PUSH1 0x20 SWAP1 DUP2 MSTORE PUSH1 0x40 DUP1 DUP6 KECCAK256 PUSH1 0x1 PUSH1 0x1 PUSH1 0xA0 SHL SUB DUP12 AND DUP7 MSTORE SWAP1 SWAP2 MSTORE SWAP1 SWAP3 KECCAK256 SWAP2 SUB SWAP1 SSTORE DUP1 PUSH2 0x2B40 DUP2 PUSH2 0x422A JUMP JUMPDEST SWAP2 POP POP PUSH2 0x2A83 JUMP JUMPDEST POP PUSH1 0x0 PUSH1 0x1 PUSH1 0x1 PUSH1 0xA0 SHL SUB AND DUP5 PUSH1 0x1 PUSH1 0x1 PUSH1 0xA0 SHL SUB AND DUP3 PUSH1 0x1 PUSH1 0x1 PUSH1 0xA0 SHL SUB AND PUSH32 0x4A39DC06D4C0DBC64B70AF90FD698A233A518AA5D07E595D983B8C0526C8F7FB DUP7 DUP7 PUSH1 0x40 MLOAD PUSH2 0x2B99 SWAP3 SWAP2 SWAP1 PUSH2 0x442D JUMP JUMPDEST PUSH1 0x40 MLOAD DUP1 SWAP2 SUB SWAP1 LOG4 PUSH1 0x40 DUP1 MLOAD PUSH1 0x20 DUP2 ADD SWAP1 SWAP2 MSTORE PUSH1 0x0 SWAP1 MSTORE PUSH2 0x2A22 JUMP JUMPDEST PUSH1 0x0 DUP1 SLOAD PUSH1 0x1 PUSH1 0x1 PUSH1 0xA0 SHL SUB DUP4 DUP2 AND PUSH1 0x1 PUSH1 0x1 PUSH1 0xA0 SHL SUB NOT DUP4 AND DUP2 OR DUP5 SSTORE PUSH1 0x40 MLOAD SWAP2 SWAP1 SWAP3 AND SWAP3 DUP4 SWAP2 PUSH32 0x8BE0079C531659141344CD1FD0A4F28419497F9722A3DAAFE3B4186F6B6457E0 SWAP2 SWAP1 LOG3 POP POP JUMP JUMPDEST DUP2 PUSH1 0x1 PUSH1 0x1 PUSH1 0xA0 SHL SUB AND DUP4 PUSH1 0x1 PUSH1 0x1 PUSH1 0xA0 SHL SUB AND SUB PUSH2 0x2C78 JUMPI PUSH1 0x40 MLOAD PUSH3 0x461BCD PUSH1 0xE5 SHL DUP2 MSTORE PUSH1 0x20 PUSH1 0x4 DUP3 ADD MSTORE PUSH1 0x29 PUSH1 0x24 DUP3 ADD MSTORE PUSH32 0x455243313135353A2073657474696E6720617070726F76616C20737461747573 PUSH1 0x44 DUP3 ADD MSTORE PUSH9 0x103337B91039B2B633 PUSH1 0xB9 SHL PUSH1 0x64 DUP3 ADD MSTORE PUSH1 0x84 ADD PUSH2 0x747 JUMP JUMPDEST PUSH1 0x1 PUSH1 0x1 PUSH1 0xA0 SHL SUB DUP4 DUP2 AND PUSH1 0x0 DUP2 DUP2 MSTORE PUSH1 0x3 PUSH1 0x20 SWAP1 DUP2 MSTORE PUSH1 0x40 DUP1 DUP4 KECCAK256 SWAP5 DUP8 AND DUP1 DUP5 MSTORE SWAP5 DUP3 MSTORE SWAP2 DUP3 SWAP1 KECCAK256 DUP1 SLOAD PUSH1 0xFF NOT AND DUP7 ISZERO ISZERO SWAP1 DUP2 OR SWAP1 SWAP2 SSTORE SWAP2 MLOAD SWAP2 DUP3 MSTORE PUSH32 0x17307EAB39AB6107E8899845AD3D59BD9653F200F220920489CA2B5937696C31 SWAP2 ADD PUSH1 0x40 MLOAD DUP1 SWAP2 SUB SWAP1 LOG3 POP POP POP JUMP JUMPDEST PUSH1 0x1 PUSH1 0x1 PUSH1 0xA0 SHL SUB DUP5 AND PUSH2 0x2D0B JUMPI PUSH1 0x40 MLOAD PUSH3 0x461BCD PUSH1 0xE5 SHL DUP2 MSTORE PUSH1 0x4 ADD PUSH2 0x747 SWAP1 PUSH2 0x4386 JUMP JUMPDEST CALLER PUSH1 0x0 PUSH2 0x2D17 DUP6 PUSH2 0x3124 JUMP JUMPDEST SWAP1 POP PUSH1 0x0 PUSH2 0x2D24 DUP6 PUSH2 0x3124 JUMP JUMPDEST SWAP1 POP PUSH1 0x0 DUP7 DUP2 MSTORE PUSH1 0x2 PUSH1 0x20 SWAP1 DUP2 MSTORE PUSH1 0x40 DUP1 DUP4 KECCAK256 PUSH1 0x1 PUSH1 0x1 PUSH1 0xA0 SHL SUB DUP13 AND DUP5 MSTORE SWAP1 SWAP2 MSTORE SWAP1 KECCAK256 SLOAD DUP6 DUP2 LT ISZERO PUSH2 0x2D69 JUMPI PUSH1 0x40 MLOAD PUSH3 0x461BCD PUSH1 0xE5 SHL DUP2 MSTORE PUSH1 0x4 ADD PUSH2 0x747 SWAP1 PUSH2 0x43CB JUMP JUMPDEST PUSH1 0x0 DUP8 DUP2 MSTORE PUSH1 0x2 PUSH1 0x20 SWAP1 DUP2 MSTORE PUSH1 0x40 DUP1 DUP4 KECCAK256 PUSH1 0x1 PUSH1 0x1 PUSH1 0xA0 SHL SUB DUP14 DUP2 AND DUP6 MSTORE SWAP3 MSTORE DUP1 DUP4 KECCAK256 DUP10 DUP6 SUB SWAP1 SSTORE SWAP1 DUP11 AND DUP3 MSTORE DUP2 KECCAK256 DUP1 SLOAD DUP9 SWAP3 SWAP1 PUSH2 0x2DA8 SWAP1 DUP5 SWAP1 PUSH2 0x4415 JUMP JUMPDEST SWAP1 SWAP2 SSTORE POP POP PUSH1 0x40 DUP1 MLOAD DUP9 DUP2 MSTORE PUSH1 0x20 DUP2 ADD DUP9 SWAP1 MSTORE PUSH1 0x1 PUSH1 0x1 PUSH1 0xA0 SHL SUB DUP1 DUP12 AND SWAP3 DUP13 DUP3 AND SWAP3 SWAP2 DUP9 AND SWAP2 PUSH32 0xC3D58168C5AE7397731D063D5BBF3D657854427343F4C083240F7AACAA2D0F62 SWAP2 ADD PUSH1 0x40 MLOAD DUP1 SWAP2 SUB SWAP1 LOG4 PUSH2 0x2E08 DUP5 DUP11 DUP11 DUP11 DUP11 DUP11 PUSH2 0x316F JUMP JUMPDEST POP POP POP POP POP POP POP POP POP JUMP JUMPDEST PUSH1 0x1 PUSH1 0x1 PUSH1 0xA0 SHL SUB DUP4 AND PUSH2 0x2E39 JUMPI PUSH1 0x40 MLOAD PUSH3 0x461BCD PUSH1 0xE5 SHL DUP2 MSTORE PUSH1 0x4 ADD PUSH2 0x747 SWAP1 PUSH2 0x44A5 JUMP JUMPDEST CALLER PUSH1 0x0 PUSH2 0x2E45 DUP5 PUSH2 0x3124 JUMP JUMPDEST SWAP1 POP PUSH1 0x0 PUSH2 0x2E52 DUP5 PUSH2 0x3124 JUMP JUMPDEST PUSH1 0x40 DUP1 MLOAD PUSH1 0x20 DUP1 DUP3 ADD DUP4 MSTORE PUSH1 0x0 SWAP2 DUP3 SWAP1 MSTORE DUP9 DUP3 MSTORE PUSH1 0x2 DUP2 MSTORE DUP3 DUP3 KECCAK256 PUSH1 0x1 PUSH1 0x1 PUSH1 0xA0 SHL SUB DUP12 AND DUP4 MSTORE SWAP1 MSTORE KECCAK256 SLOAD SWAP1 SWAP2 POP DUP5 DUP2 LT ISZERO PUSH2 0x2EA0 JUMPI PUSH1 0x40 MLOAD PUSH3 0x461BCD PUSH1 0xE5 SHL DUP2 MSTORE PUSH1 0x4 ADD PUSH2 0x747 SWAP1 PUSH2 0x44E8 JUMP JUMPDEST PUSH1 0x0 DUP7 DUP2 MSTORE PUSH1 0x2 PUSH1 0x20 SWAP1 DUP2 MSTORE PUSH1 0x40 DUP1 DUP4 KECCAK256 PUSH1 0x1 PUSH1 0x1 PUSH1 0xA0 SHL SUB DUP12 DUP2 AND DUP1 DUP7 MSTORE SWAP2 DUP5 MSTORE DUP3 DUP6 KECCAK256 DUP11 DUP8 SUB SWAP1 SSTORE DUP3 MLOAD DUP12 DUP2 MSTORE SWAP4 DUP5 ADD DUP11 SWAP1 MSTORE SWAP1 SWAP3 SWAP1 DUP9 AND SWAP2 PUSH32 0xC3D58168C5AE7397731D063D5BBF3D657854427343F4C083240F7AACAA2D0F62 SWAP2 ADD PUSH1 0x40 MLOAD DUP1 SWAP2 SUB SWAP1 LOG4 PUSH1 0x40 DUP1 MLOAD PUSH1 0x20 DUP2 ADD SWAP1 SWAP2 MSTORE PUSH1 0x0 SWAP1 MSTORE PUSH2 0x1C73 JUMP JUMPDEST PUSH1 0x0 PUSH1 0x1 PUSH1 0x1 PUSH1 0xE0 SHL SUB NOT DUP3 AND PUSH4 0x7965DB0B PUSH1 0xE0 SHL EQ DUP1 PUSH2 0x783 JUMPI POP PUSH4 0x1FFC9A7 PUSH1 0xE0 SHL PUSH1 0x1 PUSH1 0x1 PUSH1 0xE0 SHL SUB NOT DUP4 AND EQ PUSH2 0x783 JUMP JUMPDEST PUSH1 0x1 PUSH1 0x1 PUSH1 0xA0 SHL SUB DUP5 AND EXTCODESIZE ISZERO PUSH2 0x1613 JUMPI PUSH1 0x40 MLOAD PUSH4 0xBC197C81 PUSH1 0xE0 SHL DUP2 MSTORE PUSH1 0x1 PUSH1 0x1 PUSH1 0xA0 SHL SUB DUP6 AND SWAP1 PUSH4 0xBC197C81 SWAP1 PUSH2 0x2F93 SWAP1 DUP10 SWAP1 DUP10 SWAP1 DUP9 SWAP1 DUP9 SWAP1 DUP9 SWAP1 PUSH1 0x4 ADD PUSH2 0x452C JUMP JUMPDEST PUSH1 0x20 PUSH1 0x40 MLOAD DUP1 DUP4 SUB DUP2 PUSH1 0x0 DUP8 GAS CALL SWAP3 POP POP POP DUP1 ISZERO PUSH2 0x2FCE JUMPI POP PUSH1 0x40 DUP1 MLOAD PUSH1 0x1F RETURNDATASIZE SWAP1 DUP2 ADD PUSH1 0x1F NOT AND DUP3 ADD SWAP1 SWAP3 MSTORE PUSH2 0x2FCB SWAP2 DUP2 ADD SWAP1 PUSH2 0x458A JUMP JUMPDEST PUSH1 0x1 JUMPDEST PUSH2 0x307A JUMPI PUSH2 0x2FDA PUSH2 0x45A7 JUMP JUMPDEST DUP1 PUSH4 0x8C379A0 SUB PUSH2 0x3013 JUMPI POP PUSH2 0x2FEE PUSH2 0x45C3 JUMP JUMPDEST DUP1 PUSH2 0x2FF9 JUMPI POP PUSH2 0x3015 JUMP JUMPDEST DUP1 PUSH1 0x40 MLOAD PUSH3 0x461BCD PUSH1 0xE5 SHL DUP2 MSTORE PUSH1 0x4 ADD PUSH2 0x747 SWAP2 SWAP1 PUSH2 0x35E6 JUMP JUMPDEST POP JUMPDEST PUSH1 0x40 MLOAD PUSH3 0x461BCD PUSH1 0xE5 SHL DUP2 MSTORE PUSH1 0x20 PUSH1 0x4 DUP3 ADD MSTORE PUSH1 0x34 PUSH1 0x24 DUP3 ADD MSTORE PUSH32 0x455243313135353A207472616E7366657220746F206E6F6E2D45524331313535 PUSH1 0x44 DUP3 ADD MSTORE PUSH20 0x2932B1B2B4BB32B91034B6B83632B6B2B73A32B9 PUSH1 0x61 SHL PUSH1 0x64 DUP3 ADD MSTORE PUSH1 0x84 ADD PUSH2 0x747 JUMP JUMPDEST PUSH1 0x1 PUSH1 0x1 PUSH1 0xE0 SHL SUB NOT DUP2 AND PUSH4 0xBC197C81 PUSH1 0xE0 SHL EQ PUSH2 0x1C73 JUMPI PUSH1 0x40 MLOAD PUSH3 0x461BCD PUSH1 0xE5 SHL DUP2 MSTORE PUSH1 0x4 ADD PUSH2 0x747 SWAP1 PUSH2 0x464C JUMP JUMPDEST PUSH2 0x30B4 DUP3 DUP3 PUSH2 0x1B54 JUMP JUMPDEST PUSH2 0xC4B JUMPI PUSH2 0x30C1 DUP2 PUSH2 0x322A JUMP JUMPDEST PUSH2 0x30CC DUP4 PUSH1 0x20 PUSH2 0x323C JUMP JUMPDEST PUSH1 0x40 MLOAD PUSH1 0x20 ADD PUSH2 0x30DD SWAP3 SWAP2 SWAP1 PUSH2 0x4694 JUMP JUMPDEST PUSH1 0x40 DUP1 MLOAD PUSH1 0x1F NOT DUP2 DUP5 SUB ADD DUP2 MSTORE SWAP1 DUP3 SWAP1 MSTORE PUSH3 0x461BCD PUSH1 0xE5 SHL DUP3 MSTORE PUSH2 0x747 SWAP2 PUSH1 0x4 ADD PUSH2 0x35E6 JUMP JUMPDEST DUP1 MLOAD PUSH11 0x636F6E736F6C652E6C6F67 PUSH1 0x20 DUP4 ADD PUSH1 0x0 DUP1 DUP5 DUP4 DUP6 GAS STATICCALL POP POP POP POP POP JUMP JUMPDEST PUSH1 0x40 DUP1 MLOAD PUSH1 0x1 DUP1 DUP3 MSTORE DUP2 DUP4 ADD SWAP1 SWAP3 MSTORE PUSH1 0x60 SWAP2 PUSH1 0x0 SWAP2 SWAP1 PUSH1 0x20 DUP1 DUP4 ADD SWAP1 DUP1 CALLDATASIZE DUP4 CALLDATACOPY ADD SWAP1 POP POP SWAP1 POP DUP3 DUP2 PUSH1 0x0 DUP2 MLOAD DUP2 LT PUSH2 0x315E JUMPI PUSH2 0x315E PUSH2 0x41FE JUMP JUMPDEST PUSH1 0x20 SWAP1 DUP2 MUL SWAP2 SWAP1 SWAP2 ADD ADD MSTORE SWAP3 SWAP2 POP POP JUMP JUMPDEST PUSH1 0x1 PUSH1 0x1 PUSH1 0xA0 SHL SUB DUP5 AND EXTCODESIZE ISZERO PUSH2 0x1613 JUMPI PUSH1 0x40 MLOAD PUSH4 0xF23A6E61 PUSH1 0xE0 SHL DUP2 MSTORE PUSH1 0x1 PUSH1 0x1 PUSH1 0xA0 SHL SUB DUP6 AND SWAP1 PUSH4 0xF23A6E61 SWAP1 PUSH2 0x31B3 SWAP1 DUP10 SWAP1 DUP10 SWAP1 DUP9 SWAP1 DUP9 SWAP1 DUP9 SWAP1 PUSH1 0x4 ADD PUSH2 0x4709 JUMP JUMPDEST PUSH1 0x20 PUSH1 0x40 MLOAD DUP1 DUP4 SUB DUP2 PUSH1 0x0 DUP8 GAS CALL SWAP3 POP POP POP DUP1 ISZERO PUSH2 0x31EE JUMPI POP PUSH1 0x40 DUP1 MLOAD PUSH1 0x1F RETURNDATASIZE SWAP1 DUP2 ADD PUSH1 0x1F NOT AND DUP3 ADD SWAP1 SWAP3 MSTORE PUSH2 0x31EB SWAP2 DUP2 ADD SWAP1 PUSH2 0x458A JUMP JUMPDEST PUSH1 0x1 JUMPDEST PUSH2 0x31FA JUMPI PUSH2 0x2FDA PUSH2 0x45A7 JUMP JUMPDEST PUSH1 0x1 PUSH1 0x1 PUSH1 0xE0 SHL SUB NOT DUP2 AND PUSH4 0xF23A6E61 PUSH1 0xE0 SHL EQ PUSH2 0x1C73 JUMPI PUSH1 0x40 MLOAD PUSH3 0x461BCD PUSH1 0xE5 SHL DUP2 MSTORE PUSH1 0x4 ADD PUSH2 0x747 SWAP1 PUSH2 0x464C JUMP JUMPDEST PUSH1 0x60 PUSH2 0x783 PUSH1 0x1 PUSH1 0x1 PUSH1 0xA0 SHL SUB DUP4 AND PUSH1 0x14 JUMPDEST PUSH1 0x60 PUSH1 0x0 PUSH2 0x324B DUP4 PUSH1 0x2 PUSH2 0x474E JUMP JUMPDEST PUSH2 0x3256 SWAP1 PUSH1 0x2 PUSH2 0x4415 JUMP JUMPDEST PUSH1 0x1 PUSH1 0x1 PUSH1 0x40 SHL SUB DUP2 GT ISZERO PUSH2 0x326D JUMPI PUSH2 0x326D PUSH2 0x3723 JUMP JUMPDEST PUSH1 0x40 MLOAD SWAP1 DUP1 DUP3 MSTORE DUP1 PUSH1 0x1F ADD PUSH1 0x1F NOT AND PUSH1 0x20 ADD DUP3 ADD PUSH1 0x40 MSTORE DUP1 ISZERO PUSH2 0x3297 JUMPI PUSH1 0x20 DUP3 ADD DUP2 DUP1 CALLDATASIZE DUP4 CALLDATACOPY ADD SWAP1 POP JUMPDEST POP SWAP1 POP PUSH1 0x3 PUSH1 0xFC SHL DUP2 PUSH1 0x0 DUP2 MLOAD DUP2 LT PUSH2 0x32B2 JUMPI PUSH2 0x32B2 PUSH2 0x41FE JUMP JUMPDEST PUSH1 0x20 ADD ADD SWAP1 PUSH1 0x1 PUSH1 0x1 PUSH1 0xF8 SHL SUB NOT AND SWAP1 DUP2 PUSH1 0x0 BYTE SWAP1 MSTORE8 POP PUSH1 0xF PUSH1 0xFB SHL DUP2 PUSH1 0x1 DUP2 MLOAD DUP2 LT PUSH2 0x32E1 JUMPI PUSH2 0x32E1 PUSH2 0x41FE JUMP JUMPDEST PUSH1 0x20 ADD ADD SWAP1 PUSH1 0x1 PUSH1 0x1 PUSH1 0xF8 SHL SUB NOT AND SWAP1 DUP2 PUSH1 0x0 BYTE SWAP1 MSTORE8 POP PUSH1 0x0 PUSH2 0x3305 DUP5 PUSH1 0x2 PUSH2 0x474E JUMP JUMPDEST PUSH2 0x3310 SWAP1 PUSH1 0x1 PUSH2 0x4415 JUMP JUMPDEST SWAP1 POP JUMPDEST PUSH1 0x1 DUP2 GT ISZERO PUSH2 0x3388 JUMPI PUSH16 0x181899199A1A9B1B9C1CB0B131B232B3 PUSH1 0x81 SHL DUP6 PUSH1 0xF AND PUSH1 0x10 DUP2 LT PUSH2 0x3344 JUMPI PUSH2 0x3344 PUSH2 0x41FE JUMP JUMPDEST BYTE PUSH1 0xF8 SHL DUP3 DUP3 DUP2 MLOAD DUP2 LT PUSH2 0x335A JUMPI PUSH2 0x335A PUSH2 0x41FE JUMP JUMPDEST PUSH1 0x20 ADD ADD SWAP1 PUSH1 0x1 PUSH1 0x1 PUSH1 0xF8 SHL SUB NOT AND SWAP1 DUP2 PUSH1 0x0 BYTE SWAP1 MSTORE8 POP PUSH1 0x4 SWAP5 SWAP1 SWAP5 SHR SWAP4 PUSH2 0x3381 DUP2 PUSH2 0x476D JUMP JUMPDEST SWAP1 POP PUSH2 0x3313 JUMP JUMPDEST POP DUP4 ISZERO PUSH2 0x33D7 JUMPI PUSH1 0x40 MLOAD PUSH3 0x461BCD PUSH1 0xE5 SHL DUP2 MSTORE PUSH1 0x20 PUSH1 0x4 DUP3 ADD DUP2 SWAP1 MSTORE PUSH1 0x24 DUP3 ADD MSTORE PUSH32 0x537472696E67733A20686578206C656E67746820696E73756666696369656E74 PUSH1 0x44 DUP3 ADD MSTORE PUSH1 0x64 ADD PUSH2 0x747 JUMP JUMPDEST SWAP4 SWAP3 POP POP POP JUMP JUMPDEST DUP3 DUP1 SLOAD PUSH2 0x33EA SWAP1 PUSH2 0x4176 JUMP JUMPDEST SWAP1 PUSH1 0x0 MSTORE PUSH1 0x20 PUSH1 0x0 KECCAK256 SWAP1 PUSH1 0x1F ADD PUSH1 0x20 SWAP1 DIV DUP2 ADD SWAP3 DUP3 PUSH2 0x340C JUMPI PUSH1 0x0 DUP6 SSTORE PUSH2 0x3452 JUMP JUMPDEST DUP3 PUSH1 0x1F LT PUSH2 0x3425 JUMPI DUP1 MLOAD PUSH1 0xFF NOT AND DUP4 DUP1 ADD OR DUP6 SSTORE PUSH2 0x3452 JUMP JUMPDEST DUP3 DUP1 ADD PUSH1 0x1 ADD DUP6 SSTORE DUP3 ISZERO PUSH2 0x3452 JUMPI SWAP2 DUP3 ADD JUMPDEST DUP3 DUP2 GT ISZERO PUSH2 0x3452 JUMPI DUP3 MLOAD DUP3 SSTORE SWAP2 PUSH1 0x20 ADD SWAP2 SWAP1 PUSH1 0x1 ADD SWAP1 PUSH2 0x3437 JUMP JUMPDEST POP PUSH2 0x345E SWAP3 SWAP2 POP PUSH2 0x3462 JUMP JUMPDEST POP SWAP1 JUMP JUMPDEST JUMPDEST DUP1 DUP3 GT ISZERO PUSH2 0x345E JUMPI PUSH1 0x0 DUP2 SSTORE PUSH1 0x1 ADD PUSH2 0x3463 JUMP JUMPDEST DUP1 CALLDATALOAD PUSH1 0x1 PUSH1 0x1 PUSH1 0xA0 SHL SUB DUP2 AND DUP2 EQ PUSH2 0x348E JUMPI PUSH1 0x0 DUP1 REVERT JUMPDEST SWAP2 SWAP1 POP JUMP JUMPDEST PUSH1 0x0 DUP1 PUSH1 0x40 DUP4 DUP6 SUB SLT ISZERO PUSH2 0x34A6 JUMPI PUSH1 0x0 DUP1 REVERT JUMPDEST PUSH2 0x34AF DUP4 PUSH2 0x3477 JUMP JUMPDEST SWAP5 PUSH1 0x20 SWAP4 SWAP1 SWAP4 ADD CALLDATALOAD SWAP4 POP POP POP JUMP JUMPDEST PUSH1 0x1 PUSH1 0x1 PUSH1 0xE0 SHL SUB NOT DUP2 AND DUP2 EQ PUSH2 0x222C JUMPI PUSH1 0x0 DUP1 REVERT JUMPDEST PUSH1 0x0 PUSH1 0x20 DUP3 DUP5 SUB SLT ISZERO PUSH2 0x34E5 JUMPI PUSH1 0x0 DUP1 REVERT JUMPDEST DUP2 CALLDATALOAD PUSH2 0x33D7 DUP2 PUSH2 0x34BD JUMP JUMPDEST DUP1 CALLDATALOAD PUSH2 0xFFFF DUP2 AND DUP2 EQ PUSH2 0x348E JUMPI PUSH1 0x0 DUP1 REVERT JUMPDEST DUP1 CALLDATALOAD PUSH4 0xFFFFFFFF DUP2 AND DUP2 EQ PUSH2 0x348E JUMPI PUSH1 0x0 DUP1 REVERT JUMPDEST PUSH1 0x2 DUP2 LT PUSH2 0x222C JUMPI PUSH1 0x0 DUP1 REVERT JUMPDEST DUP1 CALLDATALOAD PUSH2 0x348E DUP2 PUSH2 0x3516 JUMP JUMPDEST PUSH1 0x0 DUP1 PUSH1 0x0 PUSH1 0x60 DUP5 DUP7 SUB SLT ISZERO PUSH2 0x3543 JUMPI PUSH1 0x0 DUP1 REVERT JUMPDEST PUSH2 0x354C DUP5 PUSH2 0x34F0 JUMP JUMPDEST SWAP3 POP PUSH2 0x355A PUSH1 0x20 DUP6 ADD PUSH2 0x3502 JUMP JUMPDEST SWAP2 POP PUSH1 0x40 DUP5 ADD CALLDATALOAD PUSH2 0x356A DUP2 PUSH2 0x3516 JUMP JUMPDEST DUP1 SWAP2 POP POP SWAP3 POP SWAP3 POP SWAP3 JUMP JUMPDEST PUSH1 0x0 PUSH1 0x20 DUP3 DUP5 SUB SLT ISZERO PUSH2 0x3587 JUMPI PUSH1 0x0 DUP1 REVERT JUMPDEST POP CALLDATALOAD SWAP2 SWAP1 POP JUMP JUMPDEST PUSH1 0x0 JUMPDEST DUP4 DUP2 LT ISZERO PUSH2 0x35A9 JUMPI DUP2 DUP2 ADD MLOAD DUP4 DUP3 ADD MSTORE PUSH1 0x20 ADD PUSH2 0x3591 JUMP JUMPDEST DUP4 DUP2 GT ISZERO PUSH2 0x2A22 JUMPI POP POP PUSH1 0x0 SWAP2 ADD MSTORE JUMP JUMPDEST PUSH1 0x0 DUP2 MLOAD DUP1 DUP5 MSTORE PUSH2 0x35D2 DUP2 PUSH1 0x20 DUP7 ADD PUSH1 0x20 DUP7 ADD PUSH2 0x358E JUMP JUMPDEST PUSH1 0x1F ADD PUSH1 0x1F NOT AND SWAP3 SWAP1 SWAP3 ADD PUSH1 0x20 ADD SWAP3 SWAP2 POP POP JUMP JUMPDEST PUSH1 0x20 DUP2 MSTORE PUSH1 0x0 PUSH2 0x33D7 PUSH1 0x20 DUP4 ADD DUP5 PUSH2 0x35BA JUMP JUMPDEST DUP1 CALLDATALOAD PUSH1 0xFF DUP2 AND DUP2 EQ PUSH2 0x348E JUMPI PUSH1 0x0 DUP1 REVERT JUMPDEST PUSH1 0x0 DUP1 PUSH1 0x40 DUP4 DUP6 SUB SLT ISZERO PUSH2 0x361D JUMPI PUSH1 0x0 DUP1 REVERT JUMPDEST PUSH2 0x3626 DUP4 PUSH2 0x35F9 JUMP JUMPDEST SWAP2 POP PUSH2 0x3634 PUSH1 0x20 DUP5 ADD PUSH2 0x34F0 JUMP JUMPDEST SWAP1 POP SWAP3 POP SWAP3 SWAP1 POP JUMP JUMPDEST PUSH1 0x0 DUP1 PUSH1 0x40 DUP4 DUP6 SUB SLT ISZERO PUSH2 0x3650 JUMPI PUSH1 0x0 DUP1 REVERT JUMPDEST PUSH2 0x34AF DUP4 PUSH2 0x34F0 JUMP JUMPDEST PUSH4 0x4E487B71 PUSH1 0xE0 SHL PUSH1 0x0 MSTORE PUSH1 0x21 PUSH1 0x4 MSTORE PUSH1 0x24 PUSH1 0x0 REVERT JUMPDEST PUSH1 0x2 DUP2 LT PUSH2 0x222C JUMPI PUSH4 0x4E487B71 PUSH1 0xE0 SHL PUSH1 0x0 MSTORE PUSH1 0x21 PUSH1 0x4 MSTORE PUSH1 0x24 PUSH1 0x0 REVERT JUMPDEST PUSH2 0x3696 DUP2 PUSH2 0x366F JUMP JUMPDEST SWAP1 MSTORE JUMP JUMPDEST PUSH1 0x0 PUSH2 0x100 DUP1 DUP4 MSTORE PUSH2 0x36AE DUP2 DUP5 ADD DUP13 PUSH2 0x35BA JUMP JUMPDEST SWAP1 POP DUP3 DUP2 SUB PUSH1 0x20 DUP5 ADD MSTORE PUSH2 0x36C2 DUP2 DUP12 PUSH2 0x35BA JUMP JUMPDEST SWAP1 POP PUSH2 0x36CD DUP10 PUSH2 0x366F JUMP JUMPDEST PUSH1 0x40 DUP4 ADD DUP10 SWAP1 MSTORE PUSH1 0x1 PUSH1 0x1 PUSH1 0xA0 SHL SUB DUP9 DUP2 AND PUSH1 0x60 DUP6 ADD MSTORE DUP8 AND PUSH1 0x80 DUP5 ADD MSTORE PUSH2 0x36F4 DUP7 PUSH2 0x366F JUMP JUMPDEST DUP6 PUSH1 0xA0 DUP5 ADD MSTORE DUP5 ISZERO ISZERO PUSH1 0xC0 DUP5 ADD MSTORE DUP3 DUP2 SUB PUSH1 0xE0 DUP5 ADD MSTORE PUSH2 0x3714 DUP2 DUP6 PUSH2 0x35BA JUMP JUMPDEST SWAP12 SWAP11 POP POP POP POP POP POP POP POP POP POP POP JUMP JUMPDEST PUSH4 0x4E487B71 PUSH1 0xE0 SHL PUSH1 0x0 MSTORE PUSH1 0x41 PUSH1 0x4 MSTORE PUSH1 0x24 PUSH1 0x0 REVERT JUMPDEST PUSH1 0xA0 DUP2 ADD DUP2 DUP2 LT PUSH1 0x1 PUSH1 0x1 PUSH1 0x40 SHL SUB DUP3 GT OR ISZERO PUSH2 0x3758 JUMPI PUSH2 0x3758 PUSH2 0x3723 JUMP JUMPDEST PUSH1 0x40 MSTORE POP JUMP JUMPDEST PUSH1 0x1F DUP3 ADD PUSH1 0x1F NOT AND DUP2 ADD PUSH1 0x1 PUSH1 0x1 PUSH1 0x40 SHL SUB DUP2 GT DUP3 DUP3 LT OR ISZERO PUSH2 0x3783 JUMPI PUSH2 0x3783 PUSH2 0x3723 JUMP JUMPDEST PUSH1 0x40 MSTORE POP POP JUMP JUMPDEST PUSH1 0x40 MLOAD PUSH2 0x100 DUP2 ADD PUSH1 0x1 PUSH1 0x1 PUSH1 0x40 SHL SUB DUP2 GT DUP3 DUP3 LT OR ISZERO PUSH2 0x37AD JUMPI PUSH2 0x37AD PUSH2 0x3723 JUMP JUMPDEST PUSH1 0x40 MSTORE SWAP1 JUMP JUMPDEST PUSH1 0x0 PUSH1 0x1 PUSH1 0x1 PUSH1 0x40 SHL SUB DUP3 GT ISZERO PUSH2 0x37CC JUMPI PUSH2 0x37CC PUSH2 0x3723 JUMP JUMPDEST POP PUSH1 0x5 SHL PUSH1 0x20 ADD SWAP1 JUMP JUMPDEST PUSH1 0x0 DUP3 PUSH1 0x1F DUP4 ADD SLT PUSH2 0x37E7 JUMPI PUSH1 0x0 DUP1 REVERT JUMPDEST DUP2 CALLDATALOAD PUSH1 0x20 PUSH2 0x37F4 DUP3 PUSH2 0x37B3 JUMP JUMPDEST PUSH1 0x40 MLOAD PUSH2 0x3801 DUP3 DUP3 PUSH2 0x375E JUMP JUMPDEST DUP4 DUP2 MSTORE PUSH1 0x5 SWAP4 SWAP1 SWAP4 SHL DUP6 ADD DUP3 ADD SWAP3 DUP3 DUP2 ADD SWAP2 POP DUP7 DUP5 GT ISZERO PUSH2 0x3821 JUMPI PUSH1 0x0 DUP1 REVERT JUMPDEST DUP3 DUP7 ADD JUMPDEST DUP5 DUP2 LT ISZERO PUSH2 0x383C JUMPI DUP1 CALLDATALOAD DUP4 MSTORE SWAP2 DUP4 ADD SWAP2 DUP4 ADD PUSH2 0x3825 JUMP JUMPDEST POP SWAP7 SWAP6 POP POP POP POP POP POP JUMP JUMPDEST PUSH1 0x0 DUP3 PUSH1 0x1F DUP4 ADD SLT PUSH2 0x3858 JUMPI PUSH1 0x0 DUP1 REVERT JUMPDEST DUP2 CALLDATALOAD PUSH1 0x1 PUSH1 0x1 PUSH1 0x40 SHL SUB DUP2 GT ISZERO PUSH2 0x3871 JUMPI PUSH2 0x3871 PUSH2 0x3723 JUMP JUMPDEST PUSH1 0x40 MLOAD PUSH2 0x3888 PUSH1 0x1F DUP4 ADD PUSH1 0x1F NOT AND PUSH1 0x20 ADD DUP3 PUSH2 0x375E JUMP JUMPDEST DUP2 DUP2 MSTORE DUP5 PUSH1 0x20 DUP4 DUP7 ADD ADD GT ISZERO PUSH2 0x389D JUMPI PUSH1 0x0 DUP1 REVERT JUMPDEST DUP2 PUSH1 0x20 DUP6 ADD PUSH1 0x20 DUP4 ADD CALLDATACOPY PUSH1 0x0 SWAP2 DUP2 ADD PUSH1 0x20 ADD SWAP2 SWAP1 SWAP2 MSTORE SWAP4 SWAP3 POP POP POP JUMP JUMPDEST PUSH1 0x0 DUP1 PUSH1 0x0 DUP1 PUSH1 0x0 PUSH1 0xA0 DUP7 DUP9 SUB SLT ISZERO PUSH2 0x38D2 JUMPI PUSH1 0x0 DUP1 REVERT JUMPDEST PUSH2 0x38DB DUP7 PUSH2 0x3477 JUMP JUMPDEST SWAP5 POP PUSH2 0x38E9 PUSH1 0x20 DUP8 ADD PUSH2 0x3477 JUMP JUMPDEST SWAP4 POP PUSH1 0x40 DUP7 ADD CALLDATALOAD PUSH1 0x1 PUSH1 0x1 PUSH1 0x40 SHL SUB DUP1 DUP3 GT ISZERO PUSH2 0x3905 JUMPI PUSH1 0x0 DUP1 REVERT JUMPDEST PUSH2 0x3911 DUP10 DUP4 DUP11 ADD PUSH2 0x37D6 JUMP JUMPDEST SWAP5 POP PUSH1 0x60 DUP9 ADD CALLDATALOAD SWAP2 POP DUP1 DUP3 GT ISZERO PUSH2 0x3927 JUMPI PUSH1 0x0 DUP1 REVERT JUMPDEST PUSH2 0x3933 DUP10 DUP4 DUP11 ADD PUSH2 0x37D6 JUMP JUMPDEST SWAP4 POP PUSH1 0x80 DUP9 ADD CALLDATALOAD SWAP2 POP DUP1 DUP3 GT ISZERO PUSH2 0x3949 JUMPI PUSH1 0x0 DUP1 REVERT JUMPDEST POP PUSH2 0x3956 DUP9 DUP3 DUP10 ADD PUSH2 0x3847 JUMP JUMPDEST SWAP2 POP POP SWAP3 SWAP6 POP SWAP3 SWAP6 SWAP1 SWAP4 POP JUMP JUMPDEST PUSH1 0x0 DUP1 PUSH1 0x40 DUP4 DUP6 SUB SLT ISZERO PUSH2 0x3976 JUMPI PUSH1 0x0 DUP1 REVERT JUMPDEST DUP3 CALLDATALOAD SWAP2 POP PUSH2 0x3634 PUSH1 0x20 DUP5 ADD PUSH2 0x3477 JUMP JUMPDEST PUSH1 0x0 PUSH1 0x20 DUP3 DUP5 SUB SLT ISZERO PUSH2 0x3998 JUMPI PUSH1 0x0 DUP1 REVERT JUMPDEST PUSH2 0x33D7 DUP3 PUSH2 0x35F9 JUMP JUMPDEST PUSH1 0x20 DUP2 MSTORE PUSH1 0x0 DUP3 MLOAD PUSH1 0xA0 PUSH1 0x20 DUP5 ADD MSTORE PUSH2 0x39BD PUSH1 0xC0 DUP5 ADD DUP3 PUSH2 0x35BA JUMP JUMPDEST SWAP1 POP PUSH1 0x20 DUP5 ADD MLOAD PUSH2 0xFFFF DUP1 DUP3 AND PUSH1 0x40 DUP7 ADD MSTORE DUP1 PUSH1 0x40 DUP8 ADD MLOAD AND PUSH1 0x60 DUP7 ADD MSTORE DUP1 PUSH1 0x60 DUP8 ADD MLOAD AND PUSH1 0x80 DUP7 ADD MSTORE POP POP PUSH1 0x80 DUP5 ADD MLOAD PUSH2 0x39F7 DUP2 PUSH2 0x366F JUMP JUMPDEST PUSH1 0xA0 SWAP4 SWAP1 SWAP4 ADD SWAP3 SWAP1 SWAP3 MSTORE POP SWAP2 SWAP1 POP JUMP JUMPDEST PUSH1 0x0 DUP1 PUSH1 0x40 DUP4 DUP6 SUB SLT ISZERO PUSH2 0x3A1A JUMPI PUSH1 0x0 DUP1 REVERT JUMPDEST DUP3 CALLDATALOAD PUSH1 0x1 PUSH1 0x1 PUSH1 0x40 SHL SUB DUP1 DUP3 GT ISZERO PUSH2 0x3A31 JUMPI PUSH1 0x0 DUP1 REVERT JUMPDEST DUP2 DUP6 ADD SWAP2 POP DUP6 PUSH1 0x1F DUP4 ADD SLT PUSH2 0x3A45 JUMPI PUSH1 0x0 DUP1 REVERT JUMPDEST DUP2 CALLDATALOAD PUSH1 0x20 PUSH2 0x3A52 DUP3 PUSH2 0x37B3 JUMP JUMPDEST PUSH1 0x40 MLOAD PUSH2 0x3A5F DUP3 DUP3 PUSH2 0x375E JUMP JUMPDEST DUP4 DUP2 MSTORE PUSH1 0x5 SWAP4 SWAP1 SWAP4 SHL DUP6 ADD DUP3 ADD SWAP3 DUP3 DUP2 ADD SWAP2 POP DUP10 DUP5 GT ISZERO PUSH2 0x3A7F JUMPI PUSH1 0x0 DUP1 REVERT JUMPDEST SWAP5 DUP3 ADD SWAP5 JUMPDEST DUP4 DUP7 LT ISZERO PUSH2 0x3AA4 JUMPI PUSH2 0x3A95 DUP7 PUSH2 0x3477 JUMP JUMPDEST DUP3 MSTORE SWAP5 DUP3 ADD SWAP5 SWAP1 DUP3 ADD SWAP1 PUSH2 0x3A84 JUMP JUMPDEST SWAP7 POP POP DUP7 ADD CALLDATALOAD SWAP3 POP POP DUP1 DUP3 GT ISZERO PUSH2 0x3ABA JUMPI PUSH1 0x0 DUP1 REVERT JUMPDEST POP PUSH2 0x3AC7 DUP6 DUP3 DUP7 ADD PUSH2 0x37D6 JUMP JUMPDEST SWAP2 POP POP SWAP3 POP SWAP3 SWAP1 POP JUMP JUMPDEST PUSH1 0x0 DUP2 MLOAD DUP1 DUP5 MSTORE PUSH1 0x20 DUP1 DUP6 ADD SWAP5 POP DUP1 DUP5 ADD PUSH1 0x0 JUMPDEST DUP4 DUP2 LT ISZERO PUSH2 0x3B01 JUMPI DUP2 MLOAD DUP8 MSTORE SWAP6 DUP3 ADD SWAP6 SWAP1 DUP3 ADD SWAP1 PUSH1 0x1 ADD PUSH2 0x3AE5 JUMP JUMPDEST POP SWAP5 SWAP6 SWAP5 POP POP POP POP POP JUMP JUMPDEST PUSH1 0x20 DUP2 MSTORE PUSH1 0x0 PUSH2 0x33D7 PUSH1 0x20 DUP4 ADD DUP5 PUSH2 0x3AD1 JUMP JUMPDEST DUP1 CALLDATALOAD DUP1 ISZERO ISZERO DUP2 EQ PUSH2 0x348E JUMPI PUSH1 0x0 DUP1 REVERT JUMPDEST PUSH1 0x0 PUSH2 0x100 DUP3 DUP5 SUB SLT ISZERO PUSH2 0x3B42 JUMPI PUSH1 0x0 DUP1 REVERT JUMPDEST PUSH2 0x3B4A PUSH2 0x378A JUMP JUMPDEST SWAP1 POP DUP2 CALLDATALOAD PUSH1 0x1 PUSH1 0x1 PUSH1 0x40 SHL SUB DUP1 DUP3 GT ISZERO PUSH2 0x3B63 JUMPI PUSH1 0x0 DUP1 REVERT JUMPDEST PUSH2 0x3B6F DUP6 DUP4 DUP7 ADD PUSH2 0x3847 JUMP JUMPDEST DUP4 MSTORE PUSH1 0x20 DUP5 ADD CALLDATALOAD SWAP2 POP DUP1 DUP3 GT ISZERO PUSH2 0x3B85 JUMPI PUSH1 0x0 DUP1 REVERT JUMPDEST PUSH2 0x3B91 DUP6 DUP4 DUP7 ADD PUSH2 0x3847 JUMP JUMPDEST PUSH1 0x20 DUP5 ADD MSTORE PUSH2 0x3BA2 PUSH1 0x40 DUP6 ADD PUSH2 0x3523 JUMP JUMPDEST PUSH1 0x40 DUP5 ADD MSTORE PUSH2 0x3BB3 PUSH1 0x60 DUP6 ADD PUSH2 0x3477 JUMP JUMPDEST PUSH1 0x60 DUP5 ADD MSTORE PUSH2 0x3BC4 PUSH1 0x80 DUP6 ADD PUSH2 0x3477 JUMP JUMPDEST PUSH1 0x80 DUP5 ADD MSTORE PUSH2 0x3BD5 PUSH1 0xA0 DUP6 ADD PUSH2 0x3523 JUMP JUMPDEST PUSH1 0xA0 DUP5 ADD MSTORE PUSH2 0x3BE6 PUSH1 0xC0 DUP6 ADD PUSH2 0x3B1F JUMP JUMPDEST PUSH1 0xC0 DUP5 ADD MSTORE PUSH1 0xE0 DUP5 ADD CALLDATALOAD SWAP2 POP DUP1 DUP3 GT ISZERO PUSH2 0x3BFF JUMPI PUSH1 0x0 DUP1 REVERT JUMPDEST POP PUSH2 0x3C0C DUP5 DUP3 DUP6 ADD PUSH2 0x3847 JUMP JUMPDEST PUSH1 0xE0 DUP4 ADD MSTORE POP SWAP3 SWAP2 POP POP JUMP JUMPDEST PUSH1 0x0 DUP1 PUSH1 0x0 DUP1 PUSH1 0x0 PUSH1 0xA0 DUP7 DUP9 SUB SLT ISZERO PUSH2 0x3C30 JUMPI PUSH1 0x0 DUP1 REVERT JUMPDEST PUSH2 0x3C39 DUP7 PUSH2 0x3502 JUMP JUMPDEST SWAP5 POP PUSH1 0x20 DUP7 ADD CALLDATALOAD PUSH1 0x1 PUSH1 0x1 PUSH1 0x40 SHL SUB DUP1 DUP3 GT ISZERO PUSH2 0x3C55 JUMPI PUSH1 0x0 DUP1 REVERT JUMPDEST PUSH2 0x3C61 DUP10 DUP4 DUP11 ADD PUSH2 0x3B2F JUMP JUMPDEST SWAP6 POP PUSH2 0x3C6F PUSH1 0x40 DUP10 ADD PUSH2 0x34F0 JUMP JUMPDEST SWAP5 POP PUSH1 0x60 DUP9 ADD CALLDATALOAD SWAP2 POP DUP1 DUP3 GT ISZERO PUSH2 0x3C85 JUMPI PUSH1 0x0 DUP1 REVERT JUMPDEST PUSH2 0x3C91 DUP10 DUP4 DUP11 ADD PUSH2 0x37D6 JUMP JUMPDEST SWAP4 POP PUSH1 0x80 DUP9 ADD CALLDATALOAD SWAP2 POP DUP1 DUP3 GT ISZERO PUSH2 0x3CA7 JUMPI PUSH1 0x0 DUP1 REVERT JUMPDEST POP PUSH2 0x3956 DUP9 DUP3 DUP10 ADD PUSH2 0x37D6 JUMP JUMPDEST PUSH1 0x0 DUP1 PUSH1 0x0 PUSH1 0x60 DUP5 DUP7 SUB SLT ISZERO PUSH2 0x3CC9 JUMPI PUSH1 0x0 DUP1 REVERT JUMPDEST PUSH2 0x3CD2 DUP5 PUSH2 0x3477 JUMP JUMPDEST SWAP3 POP PUSH1 0x20 DUP5 ADD CALLDATALOAD PUSH1 0x1 PUSH1 0x1 PUSH1 0x40 SHL SUB DUP1 DUP3 GT ISZERO PUSH2 0x3CEE JUMPI PUSH1 0x0 DUP1 REVERT JUMPDEST PUSH2 0x3CFA DUP8 DUP4 DUP9 ADD PUSH2 0x37D6 JUMP JUMPDEST SWAP4 POP PUSH1 0x40 DUP7 ADD CALLDATALOAD SWAP2 POP DUP1 DUP3 GT ISZERO PUSH2 0x3D10 JUMPI PUSH1 0x0 DUP1 REVERT JUMPDEST POP PUSH2 0x3D1D DUP7 DUP3 DUP8 ADD PUSH2 0x37D6 JUMP JUMPDEST SWAP2 POP POP SWAP3 POP SWAP3 POP SWAP3 JUMP JUMPDEST PUSH1 0x0 DUP1 PUSH1 0x40 DUP4 DUP6 SUB SLT ISZERO PUSH2 0x3D3A JUMPI PUSH1 0x0 DUP1 REVERT JUMPDEST DUP3 CALLDATALOAD PUSH1 0x1 PUSH1 0x1 PUSH1 0x40 SHL SUB DUP1 DUP3 GT ISZERO PUSH2 0x3D51 JUMPI PUSH1 0x0 DUP1 REVERT JUMPDEST SWAP1 DUP5 ADD SWAP1 PUSH1 0xA0 DUP3 DUP8 SUB SLT ISZERO PUSH2 0x3D65 JUMPI PUSH1 0x0 DUP1 REVERT JUMPDEST PUSH1 0x40 MLOAD PUSH2 0x3D71 DUP2 PUSH2 0x3739 JUMP JUMPDEST DUP3 CALLDATALOAD DUP3 DUP2 GT ISZERO PUSH2 0x3D80 JUMPI PUSH1 0x0 DUP1 REVERT JUMPDEST PUSH2 0x3D8C DUP9 DUP3 DUP7 ADD PUSH2 0x3847 JUMP JUMPDEST DUP3 MSTORE POP PUSH2 0x3D9B PUSH1 0x20 DUP5 ADD PUSH2 0x34F0 JUMP JUMPDEST PUSH1 0x20 DUP3 ADD MSTORE PUSH2 0x3DAC PUSH1 0x40 DUP5 ADD PUSH2 0x34F0 JUMP JUMPDEST PUSH1 0x40 DUP3 ADD MSTORE PUSH2 0x3DBD PUSH1 0x60 DUP5 ADD PUSH2 0x34F0 JUMP JUMPDEST PUSH1 0x60 DUP3 ADD MSTORE PUSH1 0x80 DUP4 ADD CALLDATALOAD SWAP3 POP PUSH2 0x3DD2 DUP4 PUSH2 0x3516 JUMP JUMPDEST PUSH1 0x80 DUP2 ADD SWAP3 SWAP1 SWAP3 MSTORE POP SWAP2 POP PUSH2 0x3634 PUSH1 0x20 DUP5 ADD PUSH2 0x35F9 JUMP JUMPDEST PUSH1 0x0 DUP1 DUP4 PUSH1 0x1F DUP5 ADD SLT PUSH2 0x3DFB JUMPI PUSH1 0x0 DUP1 REVERT JUMPDEST POP DUP2 CALLDATALOAD PUSH1 0x1 PUSH1 0x1 PUSH1 0x40 SHL SUB DUP2 GT ISZERO PUSH2 0x3E12 JUMPI PUSH1 0x0 DUP1 REVERT JUMPDEST PUSH1 0x20 DUP4 ADD SWAP2 POP DUP4 PUSH1 0x20 DUP3 PUSH1 0x5 SHL DUP6 ADD ADD GT ISZERO PUSH2 0x3E2D JUMPI PUSH1 0x0 DUP1 REVERT JUMPDEST SWAP3 POP SWAP3 SWAP1 POP JUMP JUMPDEST PUSH1 0x0 DUP1 PUSH1 0x0 DUP1 PUSH1 0x0 PUSH1 0x60 DUP7 DUP9 SUB SLT ISZERO PUSH2 0x3E4C JUMPI PUSH1 0x0 DUP1 REVERT JUMPDEST PUSH2 0x3E55 DUP7 PUSH2 0x3477 JUMP JUMPDEST SWAP5 POP PUSH1 0x20 DUP7 ADD CALLDATALOAD PUSH1 0x1 PUSH1 0x1 PUSH1 0x40 SHL SUB DUP1 DUP3 GT ISZERO PUSH2 0x3E71 JUMPI PUSH1 0x0 DUP1 REVERT JUMPDEST PUSH2 0x3E7D DUP10 DUP4 DUP11 ADD PUSH2 0x3DE9 JUMP JUMPDEST SWAP1 SWAP7 POP SWAP5 POP PUSH1 0x40 DUP9 ADD CALLDATALOAD SWAP2 POP DUP1 DUP3 GT ISZERO PUSH2 0x3E96 JUMPI PUSH1 0x0 DUP1 REVERT JUMPDEST POP PUSH2 0x3EA3 DUP9 DUP3 DUP10 ADD PUSH2 0x3DE9 JUMP JUMPDEST SWAP7 SWAP10 SWAP6 SWAP9 POP SWAP4 SWAP7 POP SWAP3 SWAP5 SWAP4 SWAP3 POP POP POP JUMP JUMPDEST PUSH1 0x0 DUP1 PUSH1 0x40 DUP4 DUP6 SUB SLT ISZERO PUSH2 0x3EC7 JUMPI PUSH1 0x0 DUP1 REVERT JUMPDEST PUSH2 0x3ED0 DUP4 PUSH2 0x3477 JUMP JUMPDEST SWAP2 POP PUSH2 0x3634 PUSH1 0x20 DUP5 ADD PUSH2 0x3B1F JUMP JUMPDEST PUSH1 0x0 DUP1 PUSH1 0x0 PUSH1 0x60 DUP5 DUP7 SUB SLT ISZERO PUSH2 0x3EF3 JUMPI PUSH1 0x0 DUP1 REVERT JUMPDEST DUP4 CALLDATALOAD PUSH1 0x1 PUSH1 0x1 PUSH1 0x40 SHL SUB DUP2 GT ISZERO PUSH2 0x3F09 JUMPI PUSH1 0x0 DUP1 REVERT JUMPDEST PUSH2 0x3F15 DUP7 DUP3 DUP8 ADD PUSH2 0x3B2F JUMP JUMPDEST SWAP4 POP POP PUSH2 0x3F24 PUSH1 0x20 DUP6 ADD PUSH2 0x3502 JUMP JUMPDEST SWAP2 POP PUSH2 0x3F32 PUSH1 0x40 DUP6 ADD PUSH2 0x35F9 JUMP JUMPDEST SWAP1 POP SWAP3 POP SWAP3 POP SWAP3 JUMP JUMPDEST PUSH1 0x0 DUP1 PUSH1 0x40 DUP4 DUP6 SUB SLT ISZERO PUSH2 0x3F4E JUMPI PUSH1 0x0 DUP1 REVERT JUMPDEST PUSH2 0x3F57 DUP4 PUSH2 0x34F0 JUMP JUMPDEST SWAP2 POP PUSH2 0x3634 PUSH1 0x20 DUP5 ADD PUSH2 0x35F9 JUMP JUMPDEST PUSH1 0x20 DUP2 MSTORE PUSH1 0x0 DUP3 MLOAD PUSH2 0x100 DUP1 PUSH1 0x20 DUP6 ADD MSTORE PUSH2 0x3F84 PUSH2 0x120 DUP6 ADD DUP4 PUSH2 0x35BA JUMP JUMPDEST SWAP2 POP PUSH1 0x20 DUP6 ADD MLOAD PUSH1 0x1F NOT DUP1 DUP7 DUP6 SUB ADD PUSH1 0x40 DUP8 ADD MSTORE PUSH2 0x3FA2 DUP5 DUP4 PUSH2 0x35BA JUMP JUMPDEST SWAP4 POP PUSH1 0x40 DUP8 ADD MLOAD SWAP2 POP PUSH2 0x3FB8 PUSH1 0x60 DUP8 ADD DUP4 PUSH2 0x368D JUMP JUMPDEST PUSH1 0x60 DUP8 ADD MLOAD PUSH1 0x1 PUSH1 0x1 PUSH1 0xA0 SHL SUB DUP2 AND PUSH1 0x80 DUP9 ADD MSTORE SWAP2 POP PUSH1 0x80 DUP8 ADD MLOAD PUSH1 0x1 PUSH1 0x1 PUSH1 0xA0 SHL SUB DUP2 AND PUSH1 0xA0 DUP9 ADD MSTORE SWAP2 POP PUSH1 0xA0 DUP8 ADD MLOAD SWAP2 POP PUSH2 0x3FF8 PUSH1 0xC0 DUP8 ADD DUP4 PUSH2 0x368D JUMP JUMPDEST PUSH1 0xC0 DUP8 ADD MLOAD DUP1 ISZERO ISZERO PUSH1 0xE0 DUP9 ADD MSTORE SWAP2 POP PUSH1 0xE0 DUP8 ADD MLOAD SWAP2 POP DUP1 DUP7 DUP6 SUB ADD DUP4 DUP8 ADD MSTORE POP PUSH2 0x4022 DUP4 DUP3 PUSH2 0x35BA JUMP JUMPDEST SWAP7 SWAP6 POP POP POP POP POP POP JUMP JUMPDEST PUSH1 0x0 PUSH1 0x20 DUP3 DUP5 SUB SLT ISZERO PUSH2 0x403E JUMPI PUSH1 0x0 DUP1 REVERT JUMPDEST PUSH2 0x33D7 DUP3 PUSH2 0x34F0 JUMP JUMPDEST PUSH4 0xFFFFFFFF DUP8 DUP2 AND DUP3 MSTORE PUSH1 0xC0 DUP3 ADD SWAP1 PUSH2 0x405F DUP9 PUSH2 0x366F JUMP JUMPDEST PUSH1 0x20 DUP4 ADD DUP9 SWAP1 MSTORE PUSH2 0xFFFF DUP8 AND PUSH1 0x40 DUP5 ADD MSTORE DUP6 AND PUSH1 0x60 DUP4 ADD MSTORE PUSH2 0x4080 DUP5 PUSH2 0x366F JUMP JUMPDEST DUP4 PUSH1 0x80 DUP4 ADD MSTORE PUSH1 0xFF DUP4 AND PUSH1 0xA0 DUP4 ADD MSTORE SWAP8 SWAP7 POP POP POP POP POP POP POP JUMP JUMPDEST PUSH1 0x0 DUP1 PUSH1 0x40 DUP4 DUP6 SUB SLT ISZERO PUSH2 0x40AD JUMPI PUSH1 0x0 DUP1 REVERT JUMPDEST PUSH2 0x40B6 DUP4 PUSH2 0x3477 JUMP JUMPDEST SWAP2 POP PUSH2 0x3634 PUSH1 0x20 DUP5 ADD PUSH2 0x3477 JUMP JUMPDEST PUSH1 0x0 DUP1 PUSH1 0x0 DUP1 PUSH1 0x0 PUSH1 0xA0 DUP7 DUP9 SUB SLT ISZERO PUSH2 0x40DC JUMPI PUSH1 0x0 DUP1 REVERT JUMPDEST PUSH2 0x40E5 DUP7 PUSH2 0x3477 JUMP JUMPDEST SWAP5 POP PUSH2 0x40F3 PUSH1 0x20 DUP8 ADD PUSH2 0x3477 JUMP JUMPDEST SWAP4 POP PUSH1 0x40 DUP7 ADD CALLDATALOAD SWAP3 POP PUSH1 0x60 DUP7 ADD CALLDATALOAD SWAP2 POP PUSH1 0x80 DUP7 ADD CALLDATALOAD PUSH1 0x1 PUSH1 0x1 PUSH1 0x40 SHL SUB DUP2 GT ISZERO PUSH2 0x411C JUMPI PUSH1 0x0 DUP1 REVERT JUMPDEST PUSH2 0x3956 DUP9 DUP3 DUP10 ADD PUSH2 0x3847 JUMP JUMPDEST PUSH1 0x0 PUSH1 0x20 DUP3 DUP5 SUB SLT ISZERO PUSH2 0x413A JUMPI PUSH1 0x0 DUP1 REVERT JUMPDEST PUSH2 0x33D7 DUP3 PUSH2 0x3477 JUMP JUMPDEST PUSH1 0x0 DUP1 PUSH1 0x0 PUSH1 0x60 DUP5 DUP7 SUB SLT ISZERO PUSH2 0x4158 JUMPI PUSH1 0x0 DUP1 REVERT JUMPDEST PUSH2 0x4161 DUP5 PUSH2 0x3477 JUMP JUMPDEST SWAP6 PUSH1 0x20 DUP6 ADD CALLDATALOAD SWAP6 POP PUSH1 0x40 SWAP1 SWAP5 ADD CALLDATALOAD SWAP4 SWAP3 POP POP POP JUMP JUMPDEST PUSH1 0x1 DUP2 DUP2 SHR SWAP1 DUP3 AND DUP1 PUSH2 0x418A JUMPI PUSH1 0x7F DUP3 AND SWAP2 POP JUMPDEST PUSH1 0x20 DUP3 LT DUP2 SUB PUSH2 0x41AA JUMPI PUSH4 0x4E487B71 PUSH1 0xE0 SHL PUSH1 0x0 MSTORE PUSH1 0x22 PUSH1 0x4 MSTORE PUSH1 0x24 PUSH1 0x0 REVERT JUMPDEST POP SWAP2 SWAP1 POP JUMP JUMPDEST PUSH1 0x20 DUP1 DUP3 MSTORE PUSH1 0x2E SWAP1 DUP3 ADD MSTORE PUSH32 0x455243313135353A2063616C6C6572206973206E6F7420746F6B656E206F776E PUSH1 0x40 DUP3 ADD MSTORE PUSH14 0x195C881BDC88185C1C1C9BDD9959 PUSH1 0x92 SHL PUSH1 0x60 DUP3 ADD MSTORE PUSH1 0x80 ADD SWAP1 JUMP JUMPDEST PUSH4 0x4E487B71 PUSH1 0xE0 SHL PUSH1 0x0 MSTORE PUSH1 0x32 PUSH1 0x4 MSTORE PUSH1 0x24 PUSH1 0x0 REVERT JUMPDEST PUSH4 0x4E487B71 PUSH1 0xE0 SHL PUSH1 0x0 MSTORE PUSH1 0x11 PUSH1 0x4 MSTORE PUSH1 0x24 PUSH1 0x0 REVERT JUMPDEST PUSH1 0x0 PUSH1 0x1 DUP3 ADD PUSH2 0x423C JUMPI PUSH2 0x423C PUSH2 0x4214 JUMP JUMPDEST POP PUSH1 0x1 ADD SWAP1 JUMP JUMPDEST PUSH1 0x0 DUP1 DUP4 SLOAD DUP2 PUSH1 0x1 DUP3 DUP2 SHR SWAP2 POP DUP1 DUP4 AND DUP1 PUSH2 0x425F JUMPI PUSH1 0x7F DUP4 AND SWAP3 POP JUMPDEST PUSH1 0x20 DUP1 DUP5 LT DUP3 SUB PUSH2 0x427E JUMPI PUSH4 0x4E487B71 PUSH1 0xE0 SHL DUP7 MSTORE PUSH1 0x22 PUSH1 0x4 MSTORE PUSH1 0x24 DUP7 REVERT JUMPDEST DUP2 DUP1 ISZERO PUSH2 0x4292 JUMPI PUSH1 0x1 DUP2 EQ PUSH2 0x42A3 JUMPI PUSH2 0x42D0 JUMP JUMPDEST PUSH1 0xFF NOT DUP7 AND DUP10 MSTORE DUP5 DUP10 ADD SWAP7 POP PUSH2 0x42D0 JUMP JUMPDEST PUSH1 0x0 DUP11 DUP2 MSTORE PUSH1 0x20 SWAP1 KECCAK256 PUSH1 0x0 JUMPDEST DUP7 DUP2 LT ISZERO PUSH2 0x42C8 JUMPI DUP2 SLOAD DUP12 DUP3 ADD MSTORE SWAP1 DUP6 ADD SWAP1 DUP4 ADD PUSH2 0x42AF JUMP JUMPDEST POP POP DUP5 DUP10 ADD SWAP7 POP JUMPDEST POP SWAP5 SWAP9 SWAP8 POP POP POP POP POP POP POP POP JUMP JUMPDEST PUSH1 0x0 DUP3 MLOAD PUSH2 0x42F0 DUP2 DUP5 PUSH1 0x20 DUP8 ADD PUSH2 0x358E JUMP JUMPDEST SWAP2 SWAP1 SWAP2 ADD SWAP3 SWAP2 POP POP JUMP JUMPDEST PUSH1 0x0 PUSH1 0xFF DUP3 AND PUSH1 0xFF DUP2 SUB PUSH2 0x4310 JUMPI PUSH2 0x4310 PUSH2 0x4214 JUMP JUMPDEST PUSH1 0x1 ADD SWAP3 SWAP2 POP POP JUMP JUMPDEST PUSH1 0x0 PUSH1 0xFF DUP3 AND PUSH1 0xFF DUP5 AND DUP1 PUSH1 0xFF SUB DUP3 GT ISZERO PUSH2 0x4336 JUMPI PUSH2 0x4336 PUSH2 0x4214 JUMP JUMPDEST ADD SWAP4 SWAP3 POP POP POP JUMP JUMPDEST PUSH1 0x20 DUP1 DUP3 MSTORE PUSH1 0x28 SWAP1 DUP3 ADD MSTORE PUSH32 0x455243313135353A2069647320616E6420616D6F756E7473206C656E67746820 PUSH1 0x40 DUP3 ADD MSTORE PUSH8 0xDAD2E6DAC2E8C6D PUSH1 0xC3 SHL PUSH1 0x60 DUP3 ADD MSTORE PUSH1 0x80 ADD SWAP1 JUMP JUMPDEST PUSH1 0x20 DUP1 DUP3 MSTORE PUSH1 0x25 SWAP1 DUP3 ADD MSTORE PUSH32 0x455243313135353A207472616E7366657220746F20746865207A65726F206164 PUSH1 0x40 DUP3 ADD MSTORE PUSH5 0x6472657373 PUSH1 0xD8 SHL PUSH1 0x60 DUP3 ADD MSTORE PUSH1 0x80 ADD SWAP1 JUMP JUMPDEST PUSH1 0x20 DUP1 DUP3 MSTORE PUSH1 0x2A SWAP1 DUP3 ADD MSTORE PUSH32 0x455243313135353A20696E73756666696369656E742062616C616E636520666F PUSH1 0x40 DUP3 ADD MSTORE PUSH10 0x39103A3930B739B332B9 PUSH1 0xB1 SHL PUSH1 0x60 DUP3 ADD MSTORE PUSH1 0x80 ADD SWAP1 JUMP JUMPDEST PUSH1 0x0 DUP3 NOT DUP3 GT ISZERO PUSH2 0x4428 JUMPI PUSH2 0x4428 PUSH2 0x4214 JUMP JUMPDEST POP ADD SWAP1 JUMP JUMPDEST PUSH1 0x40 DUP2 MSTORE PUSH1 0x0 PUSH2 0x4440 PUSH1 0x40 DUP4 ADD DUP6 PUSH2 0x3AD1 JUMP JUMPDEST DUP3 DUP2 SUB PUSH1 0x20 DUP5 ADD MSTORE PUSH2 0x4452 DUP2 DUP6 PUSH2 0x3AD1 JUMP JUMPDEST SWAP6 SWAP5 POP POP POP POP POP JUMP JUMPDEST PUSH1 0x40 DUP2 MSTORE PUSH1 0x0 PUSH2 0x446E PUSH1 0x40 DUP4 ADD DUP6 PUSH2 0x35BA JUMP JUMPDEST SWAP1 POP DUP3 PUSH1 0x20 DUP4 ADD MSTORE SWAP4 SWAP3 POP POP POP JUMP JUMPDEST PUSH1 0x0 PUSH4 0xFFFFFFFF DUP1 DUP4 AND DUP2 DUP6 AND DUP1 DUP4 SUB DUP3 GT ISZERO PUSH2 0x449C JUMPI PUSH2 0x449C PUSH2 0x4214 JUMP JUMPDEST ADD SWAP5 SWAP4 POP POP POP POP JUMP JUMPDEST PUSH1 0x20 DUP1 DUP3 MSTORE PUSH1 0x23 SWAP1 DUP3 ADD MSTORE PUSH32 0x455243313135353A206275726E2066726F6D20746865207A65726F2061646472 PUSH1 0x40 DUP3 ADD MSTORE PUSH3 0x657373 PUSH1 0xE8 SHL PUSH1 0x60 DUP3 ADD MSTORE PUSH1 0x80 ADD SWAP1 JUMP JUMPDEST PUSH1 0x20 DUP1 DUP3 MSTORE PUSH1 0x24 SWAP1 DUP3 ADD MSTORE PUSH32 0x455243313135353A206275726E20616D6F756E7420657863656564732062616C PUSH1 0x40 DUP3 ADD MSTORE PUSH4 0x616E6365 PUSH1 0xE0 SHL PUSH1 0x60 DUP3 ADD MSTORE PUSH1 0x80 ADD SWAP1 JUMP JUMPDEST PUSH1 0x1 PUSH1 0x1 PUSH1 0xA0 SHL SUB DUP7 DUP2 AND DUP3 MSTORE DUP6 AND PUSH1 0x20 DUP3 ADD MSTORE PUSH1 0xA0 PUSH1 0x40 DUP3 ADD DUP2 SWAP1 MSTORE PUSH1 0x0 SWAP1 PUSH2 0x4558 SWAP1 DUP4 ADD DUP7 PUSH2 0x3AD1 JUMP JUMPDEST DUP3 DUP2 SUB PUSH1 0x60 DUP5 ADD MSTORE PUSH2 0x456A DUP2 DUP7 PUSH2 0x3AD1 JUMP JUMPDEST SWAP1 POP DUP3 DUP2 SUB PUSH1 0x80 DUP5 ADD MSTORE PUSH2 0x457E DUP2 DUP6 PUSH2 0x35BA JUMP JUMPDEST SWAP9 SWAP8 POP POP POP POP POP POP POP POP JUMP JUMPDEST PUSH1 0x0 PUSH1 0x20 DUP3 DUP5 SUB SLT ISZERO PUSH2 0x459C JUMPI PUSH1 0x0 DUP1 REVERT JUMPDEST DUP2 MLOAD PUSH2 0x33D7 DUP2 PUSH2 0x34BD JUMP JUMPDEST PUSH1 0x0 PUSH1 0x3 RETURNDATASIZE GT ISZERO PUSH2 0x45C0 JUMPI PUSH1 0x4 PUSH1 0x0 DUP1 RETURNDATACOPY POP PUSH1 0x0 MLOAD PUSH1 0xE0 SHR JUMPDEST SWAP1 JUMP JUMPDEST PUSH1 0x0 PUSH1 0x44 RETURNDATASIZE LT ISZERO PUSH2 0x45D1 JUMPI SWAP1 JUMP JUMPDEST PUSH1 0x40 MLOAD PUSH1 0x3 NOT RETURNDATASIZE DUP2 ADD PUSH1 0x4 DUP4 RETURNDATACOPY DUP2 MLOAD RETURNDATASIZE PUSH1 0x1 PUSH1 0x1 PUSH1 0x40 SHL SUB DUP2 PUSH1 0x24 DUP5 ADD GT DUP2 DUP5 GT OR ISZERO PUSH2 0x4600 JUMPI POP POP POP POP POP SWAP1 JUMP JUMPDEST DUP3 DUP6 ADD SWAP2 POP DUP2 MLOAD DUP2 DUP2 GT ISZERO PUSH2 0x4618 JUMPI POP POP POP POP POP POP SWAP1 JUMP JUMPDEST DUP5 RETURNDATASIZE DUP8 ADD ADD PUSH1 0x20 DUP3 DUP6 ADD ADD GT ISZERO PUSH2 0x4632 JUMPI POP POP POP POP POP POP SWAP1 JUMP JUMPDEST PUSH2 0x4641 PUSH1 0x20 DUP3 DUP7 ADD ADD DUP8 PUSH2 0x375E JUMP JUMPDEST POP SWAP1 SWAP6 SWAP5 POP POP POP POP POP JUMP JUMPDEST PUSH1 0x20 DUP1 DUP3 MSTORE PUSH1 0x28 SWAP1 DUP3 ADD MSTORE PUSH32 0x455243313135353A204552433131353552656365697665722072656A65637465 PUSH1 0x40 DUP3 ADD MSTORE PUSH8 0x6420746F6B656E73 PUSH1 0xC0 SHL PUSH1 0x60 DUP3 ADD MSTORE PUSH1 0x80 ADD SWAP1 JUMP JUMPDEST PUSH32 0x416363657373436F6E74726F6C3A206163636F756E7420000000000000000000 DUP2 MSTORE PUSH1 0x0 DUP4 MLOAD PUSH2 0x46CC DUP2 PUSH1 0x17 DUP6 ADD PUSH1 0x20 DUP9 ADD PUSH2 0x358E JUMP JUMPDEST PUSH17 0x1034B99036B4B9B9B4B733903937B6329 PUSH1 0x7D SHL PUSH1 0x17 SWAP2 DUP5 ADD SWAP2 DUP3 ADD MSTORE DUP4 MLOAD PUSH2 0x46FD DUP2 PUSH1 0x28 DUP5 ADD PUSH1 0x20 DUP9 ADD PUSH2 0x358E JUMP JUMPDEST ADD PUSH1 0x28 ADD SWAP5 SWAP4 POP POP POP POP JUMP JUMPDEST PUSH1 0x1 PUSH1 0x1 PUSH1 0xA0 SHL SUB DUP7 DUP2 AND DUP3 MSTORE DUP6 AND PUSH1 0x20 DUP3 ADD MSTORE PUSH1 0x40 DUP2 ADD DUP5 SWAP1 MSTORE PUSH1 0x60 DUP2 ADD DUP4 SWAP1 MSTORE PUSH1 0xA0 PUSH1 0x80 DUP3 ADD DUP2 SWAP1 MSTORE PUSH1 0x0 SWAP1 PUSH2 0x4743 SWAP1 DUP4 ADD DUP5 PUSH2 0x35BA JUMP JUMPDEST SWAP8 SWAP7 POP POP POP POP POP POP POP JUMP JUMPDEST PUSH1 0x0 DUP2 PUSH1 0x0 NOT DIV DUP4 GT DUP3 ISZERO ISZERO AND ISZERO PUSH2 0x4768 JUMPI PUSH2 0x4768 PUSH2 0x4214 JUMP JUMPDEST POP MUL SWAP1 JUMP JUMPDEST PUSH1 0x0 DUP2 PUSH2 0x477C JUMPI PUSH2 0x477C PUSH2 0x4214 JUMP JUMPDEST POP PUSH1 0x0 NOT ADD SWAP1 JUMP INVALID LOG2 PUSH5 0x6970667358 0x22 SLT KECCAK256 STATICCALL XOR ISZERO 0xAD DUP6 JUMPI 0xEC INVALID 0xCB SHR 0xEF SWAP14 0xDC DUP15 MULMOD SWAP10 0xD CALLER 0xAE PUSH22 0x8CA51D985965E30EB949A4264736F6C634300080E00 CALLER PUSH9 0x747470733A2F2F6761 PUSH14 0x652E6578616D706C652F6170692F PUSH10 0x74656D2F7B69647D2E6A PUSH20 0x6F6E000000000000000000000000000000000000 "
		},
		"gasEstimates": {
			"creation": {
				"codeDepositCost": "3672400",
				"executionCost": "infinite",
				"totalCost": "infinite"
			},
			"external": {
				"DEFAULT_ADMIN_ROLE()": "296",
				"MINTER_ROLE()": "infinite",
				"assetId()": "2403",
				"assetsInFlorest(uint16,uint256)": "infinite",
				"balanceOf(address,uint256)": "2721",
				"balanceOfBatch(address[],uint256[])": "infinite",
				"burn(address,uint256,uint256)": "infinite",
				"burnBatch(address,uint256[],uint256[])": "infinite",
				"checkOwnership()": "2388",
				"createAFlorest(uint16,uint32,uint8)": "infinite",
				"createAPlot((string,uint16,uint16,uint16,uint8),uint8)": "infinite",
				"createAsset(uint32,(string,string,uint8,address,address,uint8,bool,string),uint16,uint256[],uint256[])": "infinite",
				"currentYear()": "2437",
				"dataRoomLink()": "infinite",
				"florestsInProperty(uint16)": "infinite",
				"florestsQuantity()": "2467",
				"getAssetInFlorest(uint16,uint8)": "infinite",
				"getCurrentPlotNumberinFlorest(uint8)": "2680",
				"getDefaultPlot(uint8)": "infinite",
				"getPlot(uint8,uint16)": "infinite",
				"getRoleAdmin(bytes32)": "2529",
				"grantRole(bytes32,address)": "infinite",
				"hasRole(bytes32,address)": "2733",
				"isApprovedForAll(address,address)": "infinite",
				"maxGlobalAllowedFlorestTokenizationPercentage()": "2457",
				"mint(address,uint256[],uint256[])": "infinite",
				"owner()": "2486",
				"propertyRegistration()": "2330",
				"renounceOwnership()": "infinite",
				"renounceRole(bytes32,address)": "29069",
				"resetPlotQuantityinFlorest(uint8,uint16)": "infinite",
				"revokeRole(bytes32,address)": "infinite",
				"safeBatchTransferFrom(address,address,uint256[],uint256[],bytes)": "infinite",
				"safeTransferFrom(address,address,uint256,uint256,bytes)": "infinite",
				"setApprovalForAll(address,bool)": "infinite",
				"setCurrentYear(uint16)": "infinite",
				"supportsInterface(bytes4)": "infinite",
				"tokenizationContractLink()": "infinite",
				"tokenizeAssetInFlorest((string,string,uint8,address,address,uint8,bool,string),uint32,uint8)": "infinite",
				"tokenizedPercentagesOfAssetsInFlorest(uint16,uint256)": "6497",
				"transferOwnership(address)": "28399",
				"uri(uint256)": "infinite",
				"woodPropertyMaxPotential()": "2358"
			},
			"internal": {
				"doesPercentagesObeyUniversalRule(uint16)": "infinite",
				"setApprovalToTransferAssets(address,address,bool)": "infinite"
			}
		},
		"methodIdentifiers": {
			"DEFAULT_ADMIN_ROLE()": "a217fddf",
			"MINTER_ROLE()": "d5391393",
			"assetId()": "44de240a",
			"assetsInFlorest(uint16,uint256)": "2d9c98dc",
			"balanceOf(address,uint256)": "00fdd58e",
			"balanceOfBatch(address[],uint256[])": "4e1273f4",
			"burn(address,uint256,uint256)": "f5298aca",
			"burnBatch(address,uint256[],uint256[])": "6b20c454",
			"checkOwnership()": "219a1d77",
			"createAFlorest(uint16,uint32,uint8)": "072a27a7",
			"createAPlot((string,uint16,uint16,uint16,uint8),uint8)": "764c1d96",
			"createAsset(uint32,(string,string,uint8,address,address,uint8,bool,string),uint16,uint256[],uint256[])": "58d572a4",
			"currentYear()": "0b5a006b",
			"dataRoomLink()": "ed008921",
			"florestsInProperty(uint16)": "dbcd5b60",
			"florestsQuantity()": "fc851323",
			"getAssetInFlorest(uint16,uint8)": "c781b949",
			"getCurrentPlotNumberinFlorest(uint8)": "fa7a02a5",
			"getDefaultPlot(uint8)": "4b5e91d4",
			"getPlot(uint8,uint16)": "f70efa97",
			"getRoleAdmin(bytes32)": "248a9ca3",
			"grantRole(bytes32,address)": "2f2ff15d",
			"hasRole(bytes32,address)": "91d14854",
			"isApprovedForAll(address,address)": "e985e9c5",
			"maxGlobalAllowedFlorestTokenizationPercentage()": "f0e404c0",
			"mint(address,uint256[],uint256[])": "9727756a",
			"owner()": "8da5cb5b",
			"propertyRegistration()": "8ec3ca14",
			"renounceOwnership()": "715018a6",
			"renounceRole(bytes32,address)": "36568abe",
			"resetPlotQuantityinFlorest(uint8,uint16)": "13516037",
			"revokeRole(bytes32,address)": "d547741f",
			"safeBatchTransferFrom(address,address,uint256[],uint256[],bytes)": "2eb2c2d6",
			"safeTransferFrom(address,address,uint256,uint256,bytes)": "f242432a",
			"setApprovalForAll(address,bool)": "a22cb465",
			"setCurrentYear(uint16)": "ea3994bc",
			"supportsInterface(bytes4)": "01ffc9a7",
			"tokenizationContractLink()": "a768396a",
			"tokenizeAssetInFlorest((string,string,uint8,address,address,uint8,bool,string),uint32,uint8)": "a9f920ed",
			"tokenizedPercentagesOfAssetsInFlorest(uint16,uint256)": "b61e95f0",
			"transferOwnership(address)": "f2fde38b",
			"uri(uint256)": "0e89341c",
			"woodPropertyMaxPotential()": "58609177"
		}
	},
	"abi": [
		{
			"inputs": [
				{
					"internalType": "address",
					"name": "_initialOwner",
					"type": "address"
				},
				{
					"internalType": "address",
					"name": "_minter",
					"type": "address"
				},
				{
					"internalType": "uint256[]",
					"name": "_ids",
					"type": "uint256[]"
				},
				{
					"internalType": "uint256[]",
					"name": "_amount",
					"type": "uint256[]"
				}
			],
			"stateMutability": "nonpayable",
			"type": "constructor"
		},
		{
			"anonymous": false,
			"inputs": [
				{
					"indexed": true,
					"internalType": "address",
					"name": "account",
					"type": "address"
				},
				{
					"indexed": true,
					"internalType": "address",
					"name": "operator",
					"type": "address"
				},
				{
					"indexed": false,
					"internalType": "bool",
					"name": "approved",
					"type": "bool"
				}
			],
			"name": "ApprovalForAll",
			"type": "event"
		},
		{
			"anonymous": false,
			"inputs": [
				{
					"indexed": false,
					"internalType": "bool",
					"name": "availability",
					"type": "bool"
				}
			],
			"name": "AssetAvailabilityUpdated",
			"type": "event"
		},
		{
			"anonymous": false,
			"inputs": [
				{
					"indexed": false,
					"internalType": "uint8",
					"name": "assetId",
					"type": "uint8"
				},
				{
					"indexed": false,
					"internalType": "bool",
					"name": "wasBurned",
					"type": "bool"
				}
			],
			"name": "AssetBurned",
			"type": "event"
		},
		{
			"anonymous": false,
			"inputs": [
				{
					"indexed": false,
					"internalType": "uint32",
					"name": "AssetId",
					"type": "uint32"
				},
				{
					"indexed": false,
					"internalType": "address",
					"name": "tokenOwner",
					"type": "address"
				},
				{
					"indexed": false,
					"internalType": "uint8",
					"name": "assetId",
					"type": "uint8"
				}
			],
			"name": "AssetMinted",
			"type": "event"
		},
		{
			"anonymous": false,
			"inputs": [
				{
					"indexed": false,
					"internalType": "uint8",
					"name": "assetId",
					"type": "uint8"
				},
				{
					"indexed": false,
					"internalType": "address",
					"name": "newOwner",
					"type": "address"
				},
				{
					"indexed": false,
					"internalType": "bool",
					"name": "transferred",
					"type": "bool"
				}
			],
			"name": "AssetTransferred",
			"type": "event"
		},
		{
			"anonymous": false,
			"inputs": [
				{
					"indexed": false,
					"internalType": "uint32",
					"name": "value",
					"type": "uint32"
				},
				{
					"indexed": false,
					"internalType": "bool",
					"name": "valuationSet",
					"type": "bool"
				}
			],
			"name": "AssetValuationWevent",
			"type": "event"
		},
		{
			"anonymous": false,
			"inputs": [
				{
					"indexed": true,
					"internalType": "address",
					"name": "previousOwner",
					"type": "address"
				},
				{
					"indexed": true,
					"internalType": "address",
					"name": "newOwner",
					"type": "address"
				}
			],
			"name": "OwnershipTransferred",
			"type": "event"
		},
		{
			"anonymous": false,
			"inputs": [
				{
					"indexed": true,
					"internalType": "bytes32",
					"name": "role",
					"type": "bytes32"
				},
				{
					"indexed": true,
					"internalType": "bytes32",
					"name": "previousAdminRole",
					"type": "bytes32"
				},
				{
					"indexed": true,
					"internalType": "bytes32",
					"name": "newAdminRole",
					"type": "bytes32"
				}
			],
			"name": "RoleAdminChanged",
			"type": "event"
		},
		{
			"anonymous": false,
			"inputs": [
				{
					"indexed": true,
					"internalType": "bytes32",
					"name": "role",
					"type": "bytes32"
				},
				{
					"indexed": true,
					"internalType": "address",
					"name": "account",
					"type": "address"
				},
				{
					"indexed": true,
					"internalType": "address",
					"name": "sender",
					"type": "address"
				}
			],
			"name": "RoleGranted",
			"type": "event"
		},
		{
			"anonymous": false,
			"inputs": [
				{
					"indexed": true,
					"internalType": "bytes32",
					"name": "role",
					"type": "bytes32"
				},
				{
					"indexed": true,
					"internalType": "address",
					"name": "account",
					"type": "address"
				},
				{
					"indexed": true,
					"internalType": "address",
					"name": "sender",
					"type": "address"
				}
			],
			"name": "RoleRevoked",
			"type": "event"
		},
		{
			"anonymous": false,
			"inputs": [
				{
					"indexed": true,
					"internalType": "address",
					"name": "operator",
					"type": "address"
				},
				{
					"indexed": true,
					"internalType": "address",
					"name": "from",
					"type": "address"
				},
				{
					"indexed": true,
					"internalType": "address",
					"name": "to",
					"type": "address"
				},
				{
					"indexed": false,
					"internalType": "uint256[]",
					"name": "ids",
					"type": "uint256[]"
				},
				{
					"indexed": false,
					"internalType": "uint256[]",
					"name": "values",
					"type": "uint256[]"
				}
			],
			"name": "TransferBatch",
			"type": "event"
		},
		{
			"anonymous": false,
			"inputs": [
				{
					"indexed": true,
					"internalType": "address",
					"name": "operator",
					"type": "address"
				},
				{
					"indexed": true,
					"internalType": "address",
					"name": "from",
					"type": "address"
				},
				{
					"indexed": true,
					"internalType": "address",
					"name": "to",
					"type": "address"
				},
				{
					"indexed": false,
					"internalType": "uint256",
					"name": "id",
					"type": "uint256"
				},
				{
					"indexed": false,
					"internalType": "uint256",
					"name": "value",
					"type": "uint256"
				}
			],
			"name": "TransferSingle",
			"type": "event"
		},
		{
			"anonymous": false,
			"inputs": [
				{
					"indexed": false,
					"internalType": "string",
					"name": "value",
					"type": "string"
				},
				{
					"indexed": true,
					"internalType": "uint256",
					"name": "id",
					"type": "uint256"
				}
			],
			"name": "URI",
			"type": "event"
		},
		{
			"inputs": [],
			"name": "DEFAULT_ADMIN_ROLE",
			"outputs": [
				{
					"internalType": "bytes32",
					"name": "",
					"type": "bytes32"
				}
			],
			"stateMutability": "view",
			"type": "function"
		},
		{
			"inputs": [],
			"name": "MINTER_ROLE",
			"outputs": [
				{
					"internalType": "bytes32",
					"name": "",
					"type": "bytes32"
				}
			],
			"stateMutability": "view",
			"type": "function"
		},
		{
			"inputs": [],
			"name": "assetId",
			"outputs": [
				{
					"internalType": "uint8",
					"name": "",
					"type": "uint8"
				}
			],
			"stateMutability": "view",
			"type": "function"
		},
		{
			"inputs": [
				{
					"internalType": "uint16",
					"name": "",
					"type": "uint16"
				},
				{
					"internalType": "uint256",
					"name": "",
					"type": "uint256"
				}
			],
			"name": "assetsInFlorest",
			"outputs": [
				{
					"internalType": "string",
					"name": "geographicLocation",
					"type": "string"
				},
				{
					"internalType": "string",
					"name": "buyOrSellContractLink",
					"type": "string"
				},
				{
					"internalType": "enum COPF.NegociationType",
					"name": "assetTokenizationType",
					"type": "uint8"
				},
				{
					"internalType": "address",
					"name": "initialOwner",
					"type": "address"
				},
				{
					"internalType": "address",
					"name": "currentTokenOwner",
					"type": "address"
				},
				{
					"internalType": "enum COPF.AssetClassification",
					"name": "class",
					"type": "uint8"
				},
				{
					"internalType": "bool",
					"name": "isCurrentAssetAvailableForTransfer",
					"type": "bool"
				},
				{
					"internalType": "string",
					"name": "assetPropertyRegistration",
					"type": "string"
				}
			],
			"stateMutability": "view",
			"type": "function"
		},
		{
			"inputs": [
				{
					"internalType": "address",
					"name": "account",
					"type": "address"
				},
				{
					"internalType": "uint256",
					"name": "id",
					"type": "uint256"
				}
			],
			"name": "balanceOf",
			"outputs": [
				{
					"internalType": "uint256",
					"name": "",
					"type": "uint256"
				}
			],
			"stateMutability": "view",
			"type": "function"
		},
		{
			"inputs": [
				{
					"internalType": "address[]",
					"name": "accounts",
					"type": "address[]"
				},
				{
					"internalType": "uint256[]",
					"name": "ids",
					"type": "uint256[]"
				}
			],
			"name": "balanceOfBatch",
			"outputs": [
				{
					"internalType": "uint256[]",
					"name": "",
					"type": "uint256[]"
				}
			],
			"stateMutability": "view",
			"type": "function"
		},
		{
			"inputs": [
				{
					"internalType": "address",
					"name": "account",
					"type": "address"
				},
				{
					"internalType": "uint256",
					"name": "id",
					"type": "uint256"
				},
				{
					"internalType": "uint256",
					"name": "value",
					"type": "uint256"
				}
			],
			"name": "burn",
			"outputs": [],
			"stateMutability": "nonpayable",
			"type": "function"
		},
		{
			"inputs": [
				{
					"internalType": "address",
					"name": "account",
					"type": "address"
				},
				{
					"internalType": "uint256[]",
					"name": "ids",
					"type": "uint256[]"
				},
				{
					"internalType": "uint256[]",
					"name": "values",
					"type": "uint256[]"
				}
			],
			"name": "burnBatch",
			"outputs": [],
			"stateMutability": "nonpayable",
			"type": "function"
		},
		{
			"inputs": [],
			"name": "checkOwnership",
			"outputs": [
				{
					"internalType": "address",
					"name": "",
					"type": "address"
				}
			],
			"stateMutability": "view",
			"type": "function"
		},
		{
			"inputs": [
				{
					"internalType": "uint16",
					"name": "_plotsQuantityInCurrentFlorest",
					"type": "uint16"
				},
				{
					"internalType": "uint32",
					"name": "_tokenizationPercentageGivenToFlorest",
					"type": "uint32"
				},
				{
					"internalType": "enum COPF.WoodType",
					"name": "_woodTypeForFlorest",
					"type": "uint8"
				}
			],
			"name": "createAFlorest",
			"outputs": [
				{
					"internalType": "uint16",
					"name": "",
					"type": "uint16"
				}
			],
			"stateMutability": "nonpayable",
			"type": "function"
		},
		{
			"inputs": [
				{
					"components": [
						{
							"internalType": "string",
							"name": "localization",
							"type": "string"
						},
						{
							"internalType": "uint16",
							"name": "plotAge",
							"type": "uint16"
						},
						{
							"internalType": "uint16",
							"name": "plotPlantingYear",
							"type": "uint16"
						},
						{
							"internalType": "uint16",
							"name": "plotCutYear",
							"type": "uint16"
						},
						{
							"internalType": "enum COPF.WoodType",
							"name": "woodTypeForPlot",
							"type": "uint8"
						}
					],
					"internalType": "struct COPF.Plot",
					"name": "plot",
					"type": "tuple"
				},
				{
					"internalType": "uint8",
					"name": "_correspondingFlorest",
					"type": "uint8"
				}
			],
			"name": "createAPlot",
			"outputs": [
				{
					"components": [
						{
							"internalType": "string",
							"name": "localization",
							"type": "string"
						},
						{
							"internalType": "uint16",
							"name": "plotAge",
							"type": "uint16"
						},
						{
							"internalType": "uint16",
							"name": "plotPlantingYear",
							"type": "uint16"
						},
						{
							"internalType": "uint16",
							"name": "plotCutYear",
							"type": "uint16"
						},
						{
							"internalType": "enum COPF.WoodType",
							"name": "woodTypeForPlot",
							"type": "uint8"
						}
					],
					"internalType": "struct COPF.Plot",
					"name": "",
					"type": "tuple"
				}
			],
			"stateMutability": "nonpayable",
			"type": "function"
		},
		{
			"inputs": [
				{
					"internalType": "uint32",
					"name": "_tokenizedPercentage",
					"type": "uint32"
				},
				{
					"components": [
						{
							"internalType": "string",
							"name": "geographicLocation",
							"type": "string"
						},
						{
							"internalType": "string",
							"name": "buyOrSellContractLink",
							"type": "string"
						},
						{
							"internalType": "enum COPF.NegociationType",
							"name": "assetTokenizationType",
							"type": "uint8"
						},
						{
							"internalType": "address",
							"name": "initialOwner",
							"type": "address"
						},
						{
							"internalType": "address",
							"name": "currentTokenOwner",
							"type": "address"
						},
						{
							"internalType": "enum COPF.AssetClassification",
							"name": "class",
							"type": "uint8"
						},
						{
							"internalType": "bool",
							"name": "isCurrentAssetAvailableForTransfer",
							"type": "bool"
						},
						{
							"internalType": "string",
							"name": "assetPropertyRegistration",
							"type": "string"
						}
					],
					"internalType": "struct COPF.Asset",
					"name": "asset",
					"type": "tuple"
				},
				{
					"internalType": "uint16",
					"name": "_correspondingFlorest",
					"type": "uint16"
				},
				{
					"internalType": "uint256[]",
					"name": "ids",
					"type": "uint256[]"
				},
				{
					"internalType": "uint256[]",
					"name": "amount",
					"type": "uint256[]"
				}
			],
			"name": "createAsset",
			"outputs": [],
			"stateMutability": "nonpayable",
			"type": "function"
		},
		{
			"inputs": [],
			"name": "currentYear",
			"outputs": [
				{
					"internalType": "uint16",
					"name": "",
					"type": "uint16"
				}
			],
			"stateMutability": "view",
			"type": "function"
		},
		{
			"inputs": [],
			"name": "dataRoomLink",
			"outputs": [
				{
					"internalType": "string",
					"name": "",
					"type": "string"
				}
			],
			"stateMutability": "view",
			"type": "function"
		},
		{
			"inputs": [
				{
					"internalType": "uint16",
					"name": "",
					"type": "uint16"
				}
			],
			"name": "florestsInProperty",
			"outputs": [
				{
					"internalType": "uint32",
					"name": "tokenizedPercentage",
					"type": "uint32"
				},
				{
					"internalType": "enum COPF.WoodType",
					"name": "woodTypeForFlorest",
					"type": "uint8"
				},
				{
					"internalType": "uint16",
					"name": "plotsQuantityInCurrentFlorest",
					"type": "uint16"
				},
				{
					"internalType": "uint32",
					"name": "tokenizationPercentageGivenToFlorest",
					"type": "uint32"
				},
				{
					"internalType": "enum COPF.AssetClassification",
					"name": "class",
					"type": "uint8"
				},
				{
					"internalType": "uint8",
					"name": "plotId",
					"type": "uint8"
				}
			],
			"stateMutability": "view",
			"type": "function"
		},
		{
			"inputs": [],
			"name": "florestsQuantity",
			"outputs": [
				{
					"internalType": "uint16",
					"name": "",
					"type": "uint16"
				}
			],
			"stateMutability": "view",
			"type": "function"
		},
		{
			"inputs": [
				{
					"internalType": "uint16",
					"name": "_correspondingFlorest",
					"type": "uint16"
				},
				{
					"internalType": "uint8",
					"name": "_assetId",
					"type": "uint8"
				}
			],
			"name": "getAssetInFlorest",
			"outputs": [
				{
					"components": [
						{
							"internalType": "string",
							"name": "geographicLocation",
							"type": "string"
						},
						{
							"internalType": "string",
							"name": "buyOrSellContractLink",
							"type": "string"
						},
						{
							"internalType": "enum COPF.NegociationType",
							"name": "assetTokenizationType",
							"type": "uint8"
						},
						{
							"internalType": "address",
							"name": "initialOwner",
							"type": "address"
						},
						{
							"internalType": "address",
							"name": "currentTokenOwner",
							"type": "address"
						},
						{
							"internalType": "enum COPF.AssetClassification",
							"name": "class",
							"type": "uint8"
						},
						{
							"internalType": "bool",
							"name": "isCurrentAssetAvailableForTransfer",
							"type": "bool"
						},
						{
							"internalType": "string",
							"name": "assetPropertyRegistration",
							"type": "string"
						}
					],
					"internalType": "struct COPF.Asset",
					"name": "",
					"type": "tuple"
				}
			],
			"stateMutability": "view",
			"type": "function"
		},
		{
			"inputs": [
				{
					"internalType": "uint8",
					"name": "_correspondingFlorest",
					"type": "uint8"
				}
			],
			"name": "getCurrentPlotNumberinFlorest",
			"outputs": [
				{
					"internalType": "uint8",
					"name": "",
					"type": "uint8"
				}
			],
			"stateMutability": "view",
			"type": "function"
		},
		{
			"inputs": [
				{
					"internalType": "uint8",
					"name": "_correspondingFlorest",
					"type": "uint8"
				}
			],
			"name": "getDefaultPlot",
			"outputs": [
				{
					"components": [
						{
							"internalType": "string",
							"name": "localization",
							"type": "string"
						},
						{
							"internalType": "uint16",
							"name": "plotAge",
							"type": "uint16"
						},
						{
							"internalType": "uint16",
							"name": "plotPlantingYear",
							"type": "uint16"
						},
						{
							"internalType": "uint16",
							"name": "plotCutYear",
							"type": "uint16"
						},
						{
							"internalType": "enum COPF.WoodType",
							"name": "woodTypeForPlot",
							"type": "uint8"
						}
					],
					"internalType": "struct COPF.Plot",
					"name": "",
					"type": "tuple"
				}
			],
			"stateMutability": "view",
			"type": "function"
		},
		{
			"inputs": [
				{
					"internalType": "uint8",
					"name": "_correspondingFlorest",
					"type": "uint8"
				},
				{
					"internalType": "uint16",
					"name": "_correspondingPlot",
					"type": "uint16"
				}
			],
			"name": "getPlot",
			"outputs": [
				{
					"components": [
						{
							"internalType": "string",
							"name": "localization",
							"type": "string"
						},
						{
							"internalType": "uint16",
							"name": "plotAge",
							"type": "uint16"
						},
						{
							"internalType": "uint16",
							"name": "plotPlantingYear",
							"type": "uint16"
						},
						{
							"internalType": "uint16",
							"name": "plotCutYear",
							"type": "uint16"
						},
						{
							"internalType": "enum COPF.WoodType",
							"name": "woodTypeForPlot",
							"type": "uint8"
						}
					],
					"internalType": "struct COPF.Plot",
					"name": "",
					"type": "tuple"
				}
			],
			"stateMutability": "view",
			"type": "function"
		},
		{
			"inputs": [
				{
					"internalType": "bytes32",
					"name": "role",
					"type": "bytes32"
				}
			],
			"name": "getRoleAdmin",
			"outputs": [
				{
					"internalType": "bytes32",
					"name": "",
					"type": "bytes32"
				}
			],
			"stateMutability": "view",
			"type": "function"
		},
		{
			"inputs": [
				{
					"internalType": "bytes32",
					"name": "role",
					"type": "bytes32"
				},
				{
					"internalType": "address",
					"name": "account",
					"type": "address"
				}
			],
			"name": "grantRole",
			"outputs": [],
			"stateMutability": "nonpayable",
			"type": "function"
		},
		{
			"inputs": [
				{
					"internalType": "bytes32",
					"name": "role",
					"type": "bytes32"
				},
				{
					"internalType": "address",
					"name": "account",
					"type": "address"
				}
			],
			"name": "hasRole",
			"outputs": [
				{
					"internalType": "bool",
					"name": "",
					"type": "bool"
				}
			],
			"stateMutability": "view",
			"type": "function"
		},
		{
			"inputs": [
				{
					"internalType": "address",
					"name": "account",
					"type": "address"
				},
				{
					"internalType": "address",
					"name": "operator",
					"type": "address"
				}
			],
			"name": "isApprovedForAll",
			"outputs": [
				{
					"internalType": "bool",
					"name": "",
					"type": "bool"
				}
			],
			"stateMutability": "view",
			"type": "function"
		},
		{
			"inputs": [],
			"name": "maxGlobalAllowedFlorestTokenizationPercentage",
			"outputs": [
				{
					"internalType": "uint32",
					"name": "",
					"type": "uint32"
				}
			],
			"stateMutability": "view",
			"type": "function"
		},
		{
			"inputs": [
				{
					"internalType": "address",
					"name": "_initialOwner",
					"type": "address"
				},
				{
					"internalType": "uint256[]",
					"name": "ids",
					"type": "uint256[]"
				},
				{
					"internalType": "uint256[]",
					"name": "amounts",
					"type": "uint256[]"
				}
			],
			"name": "mint",
			"outputs": [],
			"stateMutability": "nonpayable",
			"type": "function"
		},
		{
			"inputs": [],
			"name": "owner",
			"outputs": [
				{
					"internalType": "address",
					"name": "",
					"type": "address"
				}
			],
			"stateMutability": "view",
			"type": "function"
		},
		{
			"inputs": [],
			"name": "propertyRegistration",
			"outputs": [
				{
					"internalType": "uint256",
					"name": "",
					"type": "uint256"
				}
			],
			"stateMutability": "view",
			"type": "function"
		},
		{
			"inputs": [],
			"name": "renounceOwnership",
			"outputs": [],
			"stateMutability": "nonpayable",
			"type": "function"
		},
		{
			"inputs": [
				{
					"internalType": "bytes32",
					"name": "role",
					"type": "bytes32"
				},
				{
					"internalType": "address",
					"name": "account",
					"type": "address"
				}
			],
			"name": "renounceRole",
			"outputs": [],
			"stateMutability": "nonpayable",
			"type": "function"
		},
		{
			"inputs": [
				{
					"internalType": "uint8",
					"name": "_correspondingFlorest",
					"type": "uint8"
				},
				{
					"internalType": "uint16",
					"name": "_newPlotQuantityInFlorest",
					"type": "uint16"
				}
			],
			"name": "resetPlotQuantityinFlorest",
			"outputs": [],
			"stateMutability": "nonpayable",
			"type": "function"
		},
		{
			"inputs": [
				{
					"internalType": "bytes32",
					"name": "role",
					"type": "bytes32"
				},
				{
					"internalType": "address",
					"name": "account",
					"type": "address"
				}
			],
			"name": "revokeRole",
			"outputs": [],
			"stateMutability": "nonpayable",
			"type": "function"
		},
		{
			"inputs": [
				{
					"internalType": "address",
					"name": "from",
					"type": "address"
				},
				{
					"internalType": "address",
					"name": "to",
					"type": "address"
				},
				{
					"internalType": "uint256[]",
					"name": "ids",
					"type": "uint256[]"
				},
				{
					"internalType": "uint256[]",
					"name": "amounts",
					"type": "uint256[]"
				},
				{
					"internalType": "bytes",
					"name": "data",
					"type": "bytes"
				}
			],
			"name": "safeBatchTransferFrom",
			"outputs": [],
			"stateMutability": "nonpayable",
			"type": "function"
		},
		{
			"inputs": [
				{
					"internalType": "address",
					"name": "from",
					"type": "address"
				},
				{
					"internalType": "address",
					"name": "to",
					"type": "address"
				},
				{
					"internalType": "uint256",
					"name": "id",
					"type": "uint256"
				},
				{
					"internalType": "uint256",
					"name": "amount",
					"type": "uint256"
				},
				{
					"internalType": "bytes",
					"name": "data",
					"type": "bytes"
				}
			],
			"name": "safeTransferFrom",
			"outputs": [],
			"stateMutability": "nonpayable",
			"type": "function"
		},
		{
			"inputs": [
				{
					"internalType": "address",
					"name": "operator",
					"type": "address"
				},
				{
					"internalType": "bool",
					"name": "approved",
					"type": "bool"
				}
			],
			"name": "setApprovalForAll",
			"outputs": [],
			"stateMutability": "nonpayable",
			"type": "function"
		},
		{
			"inputs": [
				{
					"internalType": "uint16",
					"name": "_currentYear",
					"type": "uint16"
				}
			],
			"name": "setCurrentYear",
			"outputs": [],
			"stateMutability": "nonpayable",
			"type": "function"
		},
		{
			"inputs": [
				{
					"internalType": "bytes4",
					"name": "interfaceId",
					"type": "bytes4"
				}
			],
			"name": "supportsInterface",
			"outputs": [
				{
					"internalType": "bool",
					"name": "",
					"type": "bool"
				}
			],
			"stateMutability": "view",
			"type": "function"
		},
		{
			"inputs": [],
			"name": "tokenizationContractLink",
			"outputs": [
				{
					"internalType": "string",
					"name": "",
					"type": "string"
				}
			],
			"stateMutability": "view",
			"type": "function"
		},
		{
			"inputs": [
				{
					"components": [
						{
							"internalType": "string",
							"name": "geographicLocation",
							"type": "string"
						},
						{
							"internalType": "string",
							"name": "buyOrSellContractLink",
							"type": "string"
						},
						{
							"internalType": "enum COPF.NegociationType",
							"name": "assetTokenizationType",
							"type": "uint8"
						},
						{
							"internalType": "address",
							"name": "initialOwner",
							"type": "address"
						},
						{
							"internalType": "address",
							"name": "currentTokenOwner",
							"type": "address"
						},
						{
							"internalType": "enum COPF.AssetClassification",
							"name": "class",
							"type": "uint8"
						},
						{
							"internalType": "bool",
							"name": "isCurrentAssetAvailableForTransfer",
							"type": "bool"
						},
						{
							"internalType": "string",
							"name": "assetPropertyRegistration",
							"type": "string"
						}
					],
					"internalType": "struct COPF.Asset",
					"name": "_asset",
					"type": "tuple"
				},
				{
					"internalType": "uint32",
					"name": "_tokenizePercentage",
					"type": "uint32"
				},
				{
					"internalType": "uint8",
					"name": "_correspondingFlorest",
					"type": "uint8"
				}
			],
			"name": "tokenizeAssetInFlorest",
			"outputs": [],
			"stateMutability": "nonpayable",
			"type": "function"
		},
		{
			"inputs": [
				{
					"internalType": "uint16",
					"name": "",
					"type": "uint16"
				},
				{
					"internalType": "uint256",
					"name": "",
					"type": "uint256"
				}
			],
			"name": "tokenizedPercentagesOfAssetsInFlorest",
			"outputs": [
				{
					"internalType": "uint32",
					"name": "",
					"type": "uint32"
				}
			],
			"stateMutability": "view",
			"type": "function"
		},
		{
			"inputs": [
				{
					"internalType": "address",
					"name": "newOwner",
					"type": "address"
				}
			],
			"name": "transferOwnership",
			"outputs": [],
			"stateMutability": "nonpayable",
			"type": "function"
		},
		{
			"inputs": [
				{
					"internalType": "uint256",
					"name": "",
					"type": "uint256"
				}
			],
			"name": "uri",
			"outputs": [
				{
					"internalType": "string",
					"name": "",
					"type": "string"
				}
			],
			"stateMutability": "view",
			"type": "function"
		},
		{
			"inputs": [],
			"name": "woodPropertyMaxPotential",
			"outputs": [
				{
					"internalType": "uint32",
					"name": "",
					"type": "uint32"
				}
			],
			"stateMutability": "view",
			"type": "function"
		}
	]
}