{
	"data": {
		"bytecode": {
			"linkReferences": {},
			"object": "60a06040527f9f2df0fed2c77648de5860a4cc508cd0818c85b8b8a1ab4ceeef8d981c8956a66080908152506001600560016101000a81548160ff021916908360ff1602179055506107e7600560026101000a81548161ffff021916908361ffff1602179055506000600860006101000a81548160ff0219169083151502179055503480156200008e57600080fd5b50604051620072ae380380620072ae8339818101604052810190620000b4919062001391565b6040518060600160405280602781526020016200728760279139338a620000f0620000e46200046c60201b60201c565b6200047460201b60201c565b620001056000801b836200053860201b60201c565b62000119608051826200053860201b60201c565b50506200012c816200062960201b60201c565b5086600560006101000a81548160ff021916908360ff1602179055506040518061010001604052808973ffffffffffffffffffffffffffffffffffffffff1681526020018760ff166001811115620001895762000188620014ae565b5b60018111156200019e576200019d620014ae565b5b81526020018661ffff1681526020018561ffff1681526020018460ff166001811115620001d057620001cf620014ae565b5b6001811115620001e557620001e4620014ae565b5b8152602001600063ffffffff1681526020016000151581526020018973ffffffffffffffffffffffffffffffffffffffff1681525060096000600560019054906101000a900460ff1660ff1660ff16815260200190815260200160002060008201518160000160006101000a81548173ffffffffffffffffffffffffffffffffffffffff021916908373ffffffffffffffffffffffffffffffffffffffff16021790555060208201518160000160146101000a81548160ff02191690836001811115620002b757620002b6620014ae565b5b021790555060408201518160000160156101000a81548161ffff021916908361ffff16021790555060608201518160000160176101000a81548161ffff021916908361ffff16021790555060808201518160000160196101000a81548160ff0219169083600181111562000330576200032f620014ae565b5b021790555060a082015181600001601a6101000a81548163ffffffff021916908363ffffffff16021790555060c082015181600001601e6101000a81548160ff02191690831515021790555060e08201518160010160006101000a81548173ffffffffffffffffffffffffffffffffffffffff021916908373ffffffffffffffffffffffffffffffffffffffff1602179055509050506005600181819054906101000a900460ff1680929190620003e7906200150c565b91906101000a81548160ff021916908360ff16021790555050620004498883836040518060400160405280600481526020017f6d696e74000000000000000000000000000000000000000000000000000000008152506200064560201b60201c565b6200045d88336001620008a660201b60201c565b50505050505050505062001fca565b600033905090565b60008060009054906101000a900473ffffffffffffffffffffffffffffffffffffffff169050816000806101000a81548173ffffffffffffffffffffffffffffffffffffffff021916908373ffffffffffffffffffffffffffffffffffffffff1602179055508173ffffffffffffffffffffffffffffffffffffffff168173ffffffffffffffffffffffffffffffffffffffff167f8be0079c531659141344cd1fd0a4f28419497f9722a3daafe3b4186f6b6457e060405160405180910390a35050565b6200054a8282620008d360201b60201c565b6200062557600180600084815260200190815260200160002060000160008373ffffffffffffffffffffffffffffffffffffffff1673ffffffffffffffffffffffffffffffffffffffff16815260200190815260200160002060006101000a81548160ff021916908315150217905550620005ca6200046c60201b60201c565b73ffffffffffffffffffffffffffffffffffffffff168173ffffffffffffffffffffffffffffffffffffffff16837f2f8788117e7eff1d82e926ec794901d17c78024a50270940304540a733656f0d60405160405180910390a45b5050565b8060049080519060200190620006419291906200103b565b5050565b600073ffffffffffffffffffffffffffffffffffffffff168473ffffffffffffffffffffffffffffffffffffffff1603620006b7576040517f08c379a0000000000000000000000000000000000000000000000000000000008152600401620006ae90620015c1565b60405180910390fd5b8151835114620006fe576040517f08c379a0000000000000000000000000000000000000000000000000000000008152600401620006f59062001659565b60405180910390fd5b6000620007106200046c60201b60201c565b905062000729816000878787876200093e60201b60201c565b60005b8451811015620007ef578381815181106200074c576200074b6200167b565b5b6020026020010151600260008784815181106200076e576200076d6200167b565b5b6020026020010151815260200190815260200160002060008873ffffffffffffffffffffffffffffffffffffffff1673ffffffffffffffffffffffffffffffffffffffff1681526020019081526020016000206000828254620007d29190620016aa565b925050819055508080620007e69062001707565b9150506200072c565b508473ffffffffffffffffffffffffffffffffffffffff16600073ffffffffffffffffffffffffffffffffffffffff168273ffffffffffffffffffffffffffffffffffffffff167f4a39dc06d4c0dbc64b70af90fd698a233a518aa5d07e595d983b8c0526c8f7fb87876040516200086992919062001822565b60405180910390a462000888816000878787876200094660201b60201c565b6200089f816000878787876200094e60201b60201c565b5050505050565b608051620008ba8162000b4760201b60201c565b620008cd84848462000b6b60201b60201c565b50505050565b60006001600084815260200190815260200160002060000160008373ffffffffffffffffffffffffffffffffffffffff1673ffffffffffffffffffffffffffffffffffffffff16815260200190815260200160002060009054906101000a900460ff16905092915050565b505050505050565b505050505050565b6200097a8473ffffffffffffffffffffffffffffffffffffffff1662000cdc60201b620017381760201c565b1562000b3f578373ffffffffffffffffffffffffffffffffffffffff1663bc197c8187878686866040518663ffffffff1660e01b8152600401620009c395949392919062001901565b6020604051808303816000875af192505050801562000a0257506040513d601f19601f82011682018060405250810190620009ff9190620019d0565b60015b62000ab35762000a1162001a0f565b806308c379a00362000a74575062000a2862001a34565b8062000a35575062000a76565b806040517f08c379a000000000000000000000000000000000000000000000000000000000815260040162000a6b919062001b1b565b60405180910390fd5b505b6040517f08c379a000000000000000000000000000000000000000000000000000000000815260040162000aaa9062001bb5565b60405180910390fd5b63bc197c8160e01b7bffffffffffffffffffffffffffffffffffffffffffffffffffffffff1916817bffffffffffffffffffffffffffffffffffffffffffffffffffffffff19161462000b3d576040517f08c379a000000000000000000000000000000000000000000000000000000000815260040162000b349062001c4d565b60405180910390fd5b505b505050505050565b62000b688162000b5c6200046c60201b60201c565b62000cff60201b60201c565b50565b8173ffffffffffffffffffffffffffffffffffffffff168373ffffffffffffffffffffffffffffffffffffffff160362000bdc576040517f08c379a000000000000000000000000000000000000000000000000000000000815260040162000bd39062001ce5565b60405180910390fd5b80600360008573ffffffffffffffffffffffffffffffffffffffff1673ffffffffffffffffffffffffffffffffffffffff16815260200190815260200160002060008473ffffffffffffffffffffffffffffffffffffffff1673ffffffffffffffffffffffffffffffffffffffff16815260200190815260200160002060006101000a81548160ff0219169083151502179055508173ffffffffffffffffffffffffffffffffffffffff168373ffffffffffffffffffffffffffffffffffffffff167f17307eab39ab6107e8899845ad3d59bd9653f200f220920489ca2b5937696c318360405162000ccf919062001d24565b60405180910390a3505050565b6000808273ffffffffffffffffffffffffffffffffffffffff163b119050919050565b62000d118282620008d360201b60201c565b62000da75762000d2c8162000dab60201b6200175b1760201c565b62000d478360001c602062000de060201b620017881760201c565b60405160200162000d5a92919062001e23565b6040516020818303038152906040526040517f08c379a000000000000000000000000000000000000000000000000000000000815260040162000d9e919062001b1b565b60405180910390fd5b5050565b606062000dd98273ffffffffffffffffffffffffffffffffffffffff16601460ff1662000de060201b60201c565b9050919050565b60606000600283600262000df5919062001e65565b62000e019190620016aa565b67ffffffffffffffff81111562000e1d5762000e1c620011f7565b5b6040519080825280601f01601f19166020018201604052801562000e505781602001600182028036833780820191505090505b5090507f30000000000000000000000000000000000000000000000000000000000000008160008151811062000e8b5762000e8a6200167b565b5b60200101907effffffffffffffffffffffffffffffffffffffffffffffffffffffffffffff1916908160001a9053507f78000000000000000000000000000000000000000000000000000000000000008160018151811062000ef25762000ef16200167b565b5b60200101907effffffffffffffffffffffffffffffffffffffffffffffffffffffffffffff1916908160001a9053506000600184600262000f34919062001e65565b62000f409190620016aa565b90505b600181111562000fea577f3031323334353637383961626364656600000000000000000000000000000000600f86166010811062000f865762000f856200167b565b5b1a60f81b82828151811062000fa05762000f9f6200167b565b5b60200101907effffffffffffffffffffffffffffffffffffffffffffffffffffffffffffff1916908160001a905350600485901c94508062000fe29062001ec6565b905062000f43565b506000841462001031576040517f08c379a0000000000000000000000000000000000000000000000000000000008152600401620010289062001f44565b60405180910390fd5b8091505092915050565b828054620010499062001f95565b90600052602060002090601f0160209004810192826200106d5760008555620010b9565b82601f106200108857805160ff1916838001178555620010b9565b82800160010185558215620010b9579182015b82811115620010b85782518255916020019190600101906200109b565b5b509050620010c89190620010cc565b5090565b5b80821115620010e7576000816000905550600101620010cd565b5090565b6000604051905090565b600080fd5b600080fd5b600073ffffffffffffffffffffffffffffffffffffffff82169050919050565b60006200112c82620010ff565b9050919050565b6200113e816200111f565b81146200114a57600080fd5b50565b6000815190506200115e8162001133565b92915050565b600060ff82169050919050565b6200117c8162001164565b81146200118857600080fd5b50565b6000815190506200119c8162001171565b92915050565b600061ffff82169050919050565b620011bb81620011a2565b8114620011c757600080fd5b50565b600081519050620011db81620011b0565b92915050565b600080fd5b6000601f19601f8301169050919050565b7f4e487b7100000000000000000000000000000000000000000000000000000000600052604160045260246000fd5b6200123182620011e6565b810181811067ffffffffffffffff82111715620012535762001252620011f7565b5b80604052505050565b600062001268620010eb565b905062001276828262001226565b919050565b600067ffffffffffffffff821115620012995762001298620011f7565b5b602082029050602081019050919050565b600080fd5b6000819050919050565b620012c481620012af565b8114620012d057600080fd5b50565b600081519050620012e481620012b9565b92915050565b600062001301620012fb846200127b565b6200125c565b90508083825260208201905060208402830185811115620013275762001326620012aa565b5b835b818110156200135457806200133f8882620012d3565b84526020840193505060208101905062001329565b5050509392505050565b600082601f830112620013765762001375620011e1565b5b815162001388848260208601620012ea565b91505092915050565b60008060008060008060008060006101208a8c031215620013b757620013b6620010f5565b5b6000620013c78c828d016200114d565b9950506020620013da8c828d016200114d565b9850506040620013ed8c828d016200118b565b9750506060620014008c828d016200118b565b9650506080620014138c828d01620011ca565b95505060a0620014268c828d01620011ca565b94505060c0620014398c828d016200118b565b93505060e08a015167ffffffffffffffff8111156200145d576200145c620010fa565b5b6200146b8c828d016200135e565b9250506101008a015167ffffffffffffffff81111562001490576200148f620010fa565b5b6200149e8c828d016200135e565b9150509295985092959850929598565b7f4e487b7100000000000000000000000000000000000000000000000000000000600052602160045260246000fd5b7f4e487b7100000000000000000000000000000000000000000000000000000000600052601160045260246000fd5b6000620015198262001164565b915060ff82036200152f576200152e620014dd565b5b600182019050919050565b600082825260208201905092915050565b7f455243313135353a206d696e7420746f20746865207a65726f2061646472657360008201527f7300000000000000000000000000000000000000000000000000000000000000602082015250565b6000620015a96021836200153a565b9150620015b6826200154b565b604082019050919050565b60006020820190508181036000830152620015dc816200159a565b9050919050565b7f455243313135353a2069647320616e6420616d6f756e7473206c656e6774682060008201527f6d69736d61746368000000000000000000000000000000000000000000000000602082015250565b6000620016416028836200153a565b91506200164e82620015e3565b604082019050919050565b60006020820190508181036000830152620016748162001632565b9050919050565b7f4e487b7100000000000000000000000000000000000000000000000000000000600052603260045260246000fd5b6000620016b782620012af565b9150620016c483620012af565b9250827fffffffffffffffffffffffffffffffffffffffffffffffffffffffffffffffff03821115620016fc57620016fb620014dd565b5b828201905092915050565b60006200171482620012af565b91507fffffffffffffffffffffffffffffffffffffffffffffffffffffffffffffffff8203620017495762001748620014dd565b5b600182019050919050565b600081519050919050565b600082825260208201905092915050565b6000819050602082019050919050565b6200178b81620012af565b82525050565b60006200179f838362001780565b60208301905092915050565b6000602082019050919050565b6000620017c58262001754565b620017d181856200175f565b9350620017de8362001770565b8060005b8381101562001815578151620017f9888262001791565b97506200180683620017ab565b925050600181019050620017e2565b5085935050505092915050565b600060408201905081810360008301526200183e8185620017b8565b90508181036020830152620018548184620017b8565b90509392505050565b62001868816200111f565b82525050565b600081519050919050565b600082825260208201905092915050565b60005b83811015620018aa5780820151818401526020810190506200188d565b83811115620018ba576000848401525b50505050565b6000620018cd826200186e565b620018d9818562001879565b9350620018eb8185602086016200188a565b620018f681620011e6565b840191505092915050565b600060a0820190506200191860008301886200185d565b6200192760208301876200185d565b81810360408301526200193b8186620017b8565b90508181036060830152620019518185620017b8565b90508181036080830152620019678184620018c0565b90509695505050505050565b60007fffffffff0000000000000000000000000000000000000000000000000000000082169050919050565b620019aa8162001973565b8114620019b657600080fd5b50565b600081519050620019ca816200199f565b92915050565b600060208284031215620019e957620019e8620010f5565b5b6000620019f984828501620019b9565b91505092915050565b60008160e01c9050919050565b600060033d111562001a315760046000803e62001a2e60005162001a02565b90505b90565b600060443d1062001acc5762001a49620010eb565b60043d036004823e80513d602482011167ffffffffffffffff8211171562001a7357505062001acc565b808201805167ffffffffffffffff81111562001a93575050505062001acc565b80602083010160043d03850181111562001ab257505050505062001acc565b62001ac38260200185018662001226565b82955050505050505b90565b600081519050919050565b600062001ae78262001acf565b62001af381856200153a565b935062001b058185602086016200188a565b62001b1081620011e6565b840191505092915050565b6000602082019050818103600083015262001b37818462001ada565b905092915050565b7f455243313135353a207472616e7366657220746f206e6f6e2d4552433131353560008201527f526563656976657220696d706c656d656e746572000000000000000000000000602082015250565b600062001b9d6034836200153a565b915062001baa8262001b3f565b604082019050919050565b6000602082019050818103600083015262001bd08162001b8e565b9050919050565b7f455243313135353a204552433131353552656365697665722072656a6563746560008201527f6420746f6b656e73000000000000000000000000000000000000000000000000602082015250565b600062001c356028836200153a565b915062001c428262001bd7565b604082019050919050565b6000602082019050818103600083015262001c688162001c26565b9050919050565b7f455243313135353a2073657474696e6720617070726f76616c2073746174757360008201527f20666f722073656c660000000000000000000000000000000000000000000000602082015250565b600062001ccd6029836200153a565b915062001cda8262001c6f565b604082019050919050565b6000602082019050818103600083015262001d008162001cbe565b9050919050565b60008115159050919050565b62001d1e8162001d07565b82525050565b600060208201905062001d3b600083018462001d13565b92915050565b600081905092915050565b7f416363657373436f6e74726f6c3a206163636f756e7420000000000000000000600082015250565b600062001d8460178362001d41565b915062001d918262001d4c565b601782019050919050565b600062001da98262001acf565b62001db5818562001d41565b935062001dc78185602086016200188a565b80840191505092915050565b7f206973206d697373696e6720726f6c6520000000000000000000000000000000600082015250565b600062001e0b60118362001d41565b915062001e188262001dd3565b601182019050919050565b600062001e308262001d75565b915062001e3e828562001d9c565b915062001e4b8262001dfc565b915062001e59828462001d9c565b91508190509392505050565b600062001e7282620012af565b915062001e7f83620012af565b9250817fffffffffffffffffffffffffffffffffffffffffffffffffffffffffffffffff048311821515161562001ebb5762001eba620014dd565b5b828202905092915050565b600062001ed382620012af565b91506000820362001ee95762001ee8620014dd565b5b600182039050919050565b7f537472696e67733a20686578206c656e67746820696e73756666696369656e74600082015250565b600062001f2c6020836200153a565b915062001f398262001ef4565b602082019050919050565b6000602082019050818103600083015262001f5f8162001f1d565b9050919050565b7f4e487b7100000000000000000000000000000000000000000000000000000000600052602260045260246000fd5b6000600282049050600182168062001fae57607f821691505b60208210810362001fc45762001fc362001f66565b5b50919050565b60805161528562002002600039600081816109f60152818161132e015281816113c80152818161151b01526120f501526152856000f3fe608060405234801561001057600080fd5b50600436106102055760003560e01c806387fec7751161011a578063d5391393116100ad578063ea3994bc1161007c578063ea3994bc14610617578063f242432a14610633578063f2fde38b1461064f578063f5298aca1461066b578063fe9ef85f1461068757610205565b8063d53913931461057d578063d547741f1461059b578063e79eee5e146105b7578063e985e9c5146105e757610205565b8063a22cb465116100e9578063a22cb465146104f7578063a2689bfd14610513578063aeaf90201461052f578063b5b6313f1461055f57610205565b806387fec7751461045b5780638da5cb5b1461048b57806391d14854146104a9578063a217fddf146104d957610205565b80632f2ff15d1161019d57806344de240a1161016c57806344de240a146103cb5780634e1273f4146103e95780636b20c45414610419578063715018a614610435578063729611521461043f57610205565b80632f2ff15d1461035957806330524b6e1461037557806336568abe146103915780633fe3347a146103ad57610205565b80631b3accac116101d95780631b3accac146102b8578063219a1d77146102ef578063248a9ca31461030d5780632eb2c2d61461033d57610205565b8062fdd58e1461020a57806301ffc9a71461023a5780630b5a006b1461026a5780630e89341c14610288575b600080fd5b610224600480360381019061021f91906132f0565b6106a5565b604051610231919061333f565b60405180910390f35b610254600480360381019061024f91906133b2565b61076e565b60405161026191906133fa565b60405180910390f35b610272610780565b60405161027f9190613432565b60405180910390f35b6102a2600480360381019061029d919061344d565b610794565b6040516102af9190613513565b60405180910390f35b6102d260048036038101906102cd919061356e565b610828565b6040516102e6989796959493929190613688565b60405180910390f35b6102f7610903565b6040516103049190613706565b60405180910390f35b61032760048036038101906103229190613757565b610912565b6040516103349190613793565b60405180910390f35b610357600480360381019061035291906139ab565b610932565b005b610373600480360381019061036e9190613a7a565b6109d3565b005b61038f600480360381019061038a9190613bb7565b6109f4565b005b6103ab60048036038101906103a69190613a7a565b610dc0565b005b6103b5610e43565b6040516103c29190613cae565b60405180910390f35b6103d3610e56565b6040516103e09190613cd8565b60405180910390f35b61040360048036038101906103fe9190613db6565b610e69565b6040516104109190613eec565b60405180910390f35b610433600480360381019061042e9190613f0e565b610f82565b005b61043d61101f565b005b61045960048036038101906104549190613f99565b611033565b005b61047560048036038101906104709190614018565b611213565b60405161048291906133fa565b60405180910390f35b61049361127b565b6040516104a09190613706565b60405180910390f35b6104c360048036038101906104be9190613a7a565b6112a4565b6040516104d091906133fa565b60405180910390f35b6104e161130f565b6040516104ee9190613793565b60405180910390f35b610511600480360381019061050c9190614058565b611316565b005b61052d6004803603810190610528919061356e565b61132c565b005b6105496004803603810190610544919061356e565b611375565b60405161055691906133fa565b60405180910390f35b6105676113b3565b6040516105749190613cd8565b60405180910390f35b6105856113c6565b6040516105929190613793565b60405180910390f35b6105b560048036038101906105b09190613a7a565b6113ea565b005b6105d160048036038101906105cc9190614098565b61140b565b6040516105de91906140d8565b60405180910390f35b61060160048036038101906105fc91906140f3565b611485565b60405161060e91906133fa565b60405180910390f35b610631600480360381019061062c9190614133565b611519565b005b61064d60048036038101906106489190614160565b611564565b005b610669600480360381019061066491906141f7565b611605565b005b61068560048036038101906106809190614224565b611688565b005b61068f611725565b60405161069c9190614277565b60405180910390f35b60008073ffffffffffffffffffffffffffffffffffffffff168373ffffffffffffffffffffffffffffffffffffffff1603610715576040517f08c379a000000000000000000000000000000000000000000000000000000000815260040161070c90614304565b60405180910390fd5b6002600083815260200190815260200160002060008473ffffffffffffffffffffffffffffffffffffffff1673ffffffffffffffffffffffffffffffffffffffff16815260200190815260200160002054905092915050565b6000610779826119c4565b9050919050565b600560029054906101000a900461ffff1681565b6060600480546107a390614353565b80601f01602080910402602001604051908101604052809291908181526020018280546107cf90614353565b801561081c5780601f106107f15761010080835404028352916020019161081c565b820191906000526020600020905b8154815290600101906020018083116107ff57829003601f168201915b50505050509050919050565b60096020528060005260406000206000915090508060000160009054906101000a900473ffffffffffffffffffffffffffffffffffffffff16908060000160149054906101000a900460ff16908060000160159054906101000a900461ffff16908060000160179054906101000a900461ffff16908060000160199054906101000a900460ff169080600001601a9054906101000a900463ffffffff169080600001601e9054906101000a900460ff16908060010160009054906101000a900473ffffffffffffffffffffffffffffffffffffffff16905088565b600061090d61127b565b905090565b600060016000838152602001908152602001600020600101549050919050565b61093a611aa6565b73ffffffffffffffffffffffffffffffffffffffff168573ffffffffffffffffffffffffffffffffffffffff161480610980575061097f8561097a611aa6565b611485565b5b6109bf576040517f08c379a00000000000000000000000000000000000000000000000000000000081526004016109b6906143f6565b60405180910390fd5b6109cc8585858585611aae565b5050505050565b6109dc82610912565b6109e581611dd2565b6109ef8383611de6565b505050565b7f0000000000000000000000000000000000000000000000000000000000000000610a1e81611dd2565b60006005600181819054906101000a900460ff1680929190610a3f90614445565b91906101000a81548160ff021916908360ff1602179055509050600560009054906101000a900460ff1660ff168160ff161115610ab1576040517f08c379a0000000000000000000000000000000000000000000000000000000008152600401610aa8906144e0565b60405180910390fd5b6040518061010001604052808d73ffffffffffffffffffffffffffffffffffffffff1681526020018c6001811115610aec57610aeb6135aa565b5b81526020018b61ffff1681526020018a61ffff168152602001896001811115610b1857610b176135aa565b5b81526020018863ffffffff1681526020016000151581526020018d73ffffffffffffffffffffffffffffffffffffffff16815250600960008360ff1660ff16815260200190815260200160002060008201518160000160006101000a81548173ffffffffffffffffffffffffffffffffffffffff021916908373ffffffffffffffffffffffffffffffffffffffff16021790555060208201518160000160146101000a81548160ff02191690836001811115610bd757610bd66135aa565b5b021790555060408201518160000160156101000a81548161ffff021916908361ffff16021790555060608201518160000160176101000a81548161ffff021916908361ffff16021790555060808201518160000160196101000a81548160ff02191690836001811115610c4d57610c4c6135aa565b5b021790555060a082015181600001601a6101000a81548163ffffffff021916908363ffffffff16021790555060c082015181600001601e6101000a81548160ff02191690831515021790555060e08201518160010160006101000a81548173ffffffffffffffffffffffffffffffffffffffff021916908373ffffffffffffffffffffffffffffffffffffffff160217905550905050610da68c878780806020026020016040519081016040528093929190818152602001838360200280828437600081840152601f19601f82011690508083019250505050505050868680806020026020016040519081016040528093929190818152602001838360200280828437600081840152601f19601f820116905080830192505050505050506040518060400160405280600781526020017f6d696e74696e6700000000000000000000000000000000000000000000000000815250611ec6565b610db28c3360016120f3565b505050505050505050505050565b610dc8611aa6565b73ffffffffffffffffffffffffffffffffffffffff168173ffffffffffffffffffffffffffffffffffffffff1614610e35576040517f08c379a0000000000000000000000000000000000000000000000000000000008152600401610e2c90614572565b60405180910390fd5b610e3f828261212e565b5050565b600860019054906101000a900460ff1681565b600560019054906101000a900460ff1681565b60608151835114610eaf576040517f08c379a0000000000000000000000000000000000000000000000000000000008152600401610ea690614604565b60405180910390fd5b6000835167ffffffffffffffff811115610ecc57610ecb6137b3565b5b604051908082528060200260200182016040528015610efa5781602001602082028036833780820191505090505b50905060005b8451811015610f7757610f47858281518110610f1f57610f1e614624565b5b6020026020010151858381518110610f3a57610f39614624565b5b60200260200101516106a5565b828281518110610f5a57610f59614624565b5b60200260200101818152505080610f7090614653565b9050610f00565b508091505092915050565b610f8a611aa6565b73ffffffffffffffffffffffffffffffffffffffff168373ffffffffffffffffffffffffffffffffffffffff161480610fd05750610fcf83610fca611aa6565b611485565b5b61100f576040517f08c379a0000000000000000000000000000000000000000000000000000000008152600401611006906143f6565b60405180910390fd5b61101a838383612210565b505050565b6110276124e0565b611031600061255e565b565b61103c83612622565b61107b576040517f08c379a00000000000000000000000000000000000000000000000000000000081526004016110729061470d565b60405180910390fd5b6000600960008560ff1660ff16815260200190815260200160002060010160009054906101000a900473ffffffffffffffffffffffffffffffffffffffff1690506110c8813360016120f3565b61110d81848660ff16856040518060400160405280600881526020017f7472616e73666572000000000000000000000000000000000000000000000000815250611564565b82600960008660ff1660ff16815260200190815260200160002060010160006101000a81548173ffffffffffffffffffffffffffffffffffffffff021916908373ffffffffffffffffffffffffffffffffffffffff1602179055507f2e72e059585d8687c8e378e3c55bdd48912ea1dcbb4b26e097af901e297ad28584848573ffffffffffffffffffffffffffffffffffffffff16600960008960ff1660ff16815260200190815260200160002060010160009054906101000a900473ffffffffffffffffffffffffffffffffffffffff1673ffffffffffffffffffffffffffffffffffffffff16146040516112059392919061472d565b60405180910390a150505050565b600081600960008560ff1660ff168152602001908152602001600020600001601e6101000a81548160ff021916908315150217905550600960008460ff1660ff168152602001908152602001600020600001601e9054906101000a900460ff16905092915050565b60008060009054906101000a900473ffffffffffffffffffffffffffffffffffffffff16905090565b60006001600084815260200190815260200160002060000160008373ffffffffffffffffffffffffffffffffffffffff1673ffffffffffffffffffffffffffffffffffffffff16815260200190815260200160002060009054906101000a900460ff16905092915050565b6000801b81565b611328611321611aa6565b8383612655565b5050565b7f000000000000000000000000000000000000000000000000000000000000000061135681611dd2565b81600560006101000a81548160ff021916908360ff1602179055505050565b600080600960008460ff1660ff168152602001908152602001600020600001601a9054906101000a900463ffffffff1663ffffffff16149050919050565b600560009054906101000a900460ff1681565b7f000000000000000000000000000000000000000000000000000000000000000081565b6113f382610912565b6113fc81611dd2565b611406838361212e565b505050565b60006114156124e0565b81600960008560ff1660ff168152602001908152602001600020600001601a6101000a81548163ffffffff021916908363ffffffff160217905550600960008460ff1660ff168152602001908152602001600020600001601a9054906101000a900463ffffffff16905092915050565b6000600360008473ffffffffffffffffffffffffffffffffffffffff1673ffffffffffffffffffffffffffffffffffffffff16815260200190815260200160002060008373ffffffffffffffffffffffffffffffffffffffff1673ffffffffffffffffffffffffffffffffffffffff16815260200190815260200160002060009054906101000a900460ff16905092915050565b7f000000000000000000000000000000000000000000000000000000000000000061154381611dd2565b81600560026101000a81548161ffff021916908361ffff1602179055505050565b61156c611aa6565b73ffffffffffffffffffffffffffffffffffffffff168573ffffffffffffffffffffffffffffffffffffffff1614806115b257506115b1856115ac611aa6565b611485565b5b6115f1576040517f08c379a00000000000000000000000000000000000000000000000000000000081526004016115e8906143f6565b60405180910390fd5b6115fe85858585856127c1565b5050505050565b61160d6124e0565b600073ffffffffffffffffffffffffffffffffffffffff168173ffffffffffffffffffffffffffffffffffffffff160361167c576040517f08c379a0000000000000000000000000000000000000000000000000000000008152600401611673906147d6565b60405180910390fd5b6116858161255e565b50565b611690611aa6565b73ffffffffffffffffffffffffffffffffffffffff168373ffffffffffffffffffffffffffffffffffffffff1614806116d657506116d5836116d0611aa6565b611485565b5b611715576040517f08c379a000000000000000000000000000000000000000000000000000000000815260040161170c906143f6565b60405180910390fd5b611720838383612a5f565b505050565b600860029054906101000a900460ff1681565b6000808273ffffffffffffffffffffffffffffffffffffffff163b119050919050565b60606117818273ffffffffffffffffffffffffffffffffffffffff16601460ff16611788565b9050919050565b60606000600283600261179b91906147f6565b6117a59190614850565b67ffffffffffffffff8111156117be576117bd6137b3565b5b6040519080825280601f01601f1916602001820160405280156117f05781602001600182028036833780820191505090505b5090507f30000000000000000000000000000000000000000000000000000000000000008160008151811061182857611827614624565b5b60200101907effffffffffffffffffffffffffffffffffffffffffffffffffffffffffffff1916908160001a9053507f78000000000000000000000000000000000000000000000000000000000000008160018151811061188c5761188b614624565b5b60200101907effffffffffffffffffffffffffffffffffffffffffffffffffffffffffffff1916908160001a905350600060018460026118cc91906147f6565b6118d69190614850565b90505b6001811115611976577f3031323334353637383961626364656600000000000000000000000000000000600f86166010811061191857611917614624565b5b1a60f81b82828151811061192f5761192e614624565b5b60200101907effffffffffffffffffffffffffffffffffffffffffffffffffffffffffffff1916908160001a905350600485901c94508061196f906148a6565b90506118d9565b50600084146119ba576040517f08c379a00000000000000000000000000000000000000000000000000000000081526004016119b19061491b565b60405180910390fd5b8091505092915050565b60007fd9b67a26000000000000000000000000000000000000000000000000000000007bffffffffffffffffffffffffffffffffffffffffffffffffffffffff1916827bffffffffffffffffffffffffffffffffffffffffffffffffffffffff19161480611a8f57507f0e89341c000000000000000000000000000000000000000000000000000000007bffffffffffffffffffffffffffffffffffffffffffffffffffffffff1916827bffffffffffffffffffffffffffffffffffffffffffffffffffffffff1916145b80611a9f5750611a9e82612ca7565b5b9050919050565b600033905090565b8151835114611af2576040517f08c379a0000000000000000000000000000000000000000000000000000000008152600401611ae9906149ad565b60405180910390fd5b600073ffffffffffffffffffffffffffffffffffffffff168473ffffffffffffffffffffffffffffffffffffffff1603611b61576040517f08c379a0000000000000000000000000000000000000000000000000000000008152600401611b5890614a3f565b60405180910390fd5b6000611b6b611aa6565b9050611b7b818787878787612d21565b60005b8451811015611d2f576000858281518110611b9c57611b9b614624565b5b602002602001015190506000858381518110611bbb57611bba614624565b5b6020026020010151905060006002600084815260200190815260200160002060008b73ffffffffffffffffffffffffffffffffffffffff1673ffffffffffffffffffffffffffffffffffffffff16815260200190815260200160002054905081811015611c5d576040517f08c379a0000000000000000000000000000000000000000000000000000000008152600401611c5490614ad1565b60405180910390fd5b8181036002600085815260200190815260200160002060008c73ffffffffffffffffffffffffffffffffffffffff1673ffffffffffffffffffffffffffffffffffffffff16815260200190815260200160002081905550816002600085815260200190815260200160002060008b73ffffffffffffffffffffffffffffffffffffffff1673ffffffffffffffffffffffffffffffffffffffff1681526020019081526020016000206000828254611d149190614850565b9250508190555050505080611d2890614653565b9050611b7e565b508473ffffffffffffffffffffffffffffffffffffffff168673ffffffffffffffffffffffffffffffffffffffff168273ffffffffffffffffffffffffffffffffffffffff167f4a39dc06d4c0dbc64b70af90fd698a233a518aa5d07e595d983b8c0526c8f7fb8787604051611da6929190614af1565b60405180910390a4611dbc818787878787612d29565b611dca818787878787612d31565b505050505050565b611de381611dde611aa6565b612f08565b50565b611df082826112a4565b611ec257600180600084815260200190815260200160002060000160008373ffffffffffffffffffffffffffffffffffffffff1673ffffffffffffffffffffffffffffffffffffffff16815260200190815260200160002060006101000a81548160ff021916908315150217905550611e67611aa6565b73ffffffffffffffffffffffffffffffffffffffff168173ffffffffffffffffffffffffffffffffffffffff16837f2f8788117e7eff1d82e926ec794901d17c78024a50270940304540a733656f0d60405160405180910390a45b5050565b600073ffffffffffffffffffffffffffffffffffffffff168473ffffffffffffffffffffffffffffffffffffffff1603611f35576040517f08c379a0000000000000000000000000000000000000000000000000000000008152600401611f2c90614b9a565b60405180910390fd5b8151835114611f79576040517f08c379a0000000000000000000000000000000000000000000000000000000008152600401611f70906149ad565b60405180910390fd5b6000611f83611aa6565b9050611f9481600087878787612d21565b60005b845181101561204e57838181518110611fb357611fb2614624565b5b602002602001015160026000878481518110611fd257611fd1614624565b5b6020026020010151815260200190815260200160002060008873ffffffffffffffffffffffffffffffffffffffff1673ffffffffffffffffffffffffffffffffffffffff16815260200190815260200160002060008282546120349190614850565b92505081905550808061204690614653565b915050611f97565b508473ffffffffffffffffffffffffffffffffffffffff16600073ffffffffffffffffffffffffffffffffffffffff168273ffffffffffffffffffffffffffffffffffffffff167f4a39dc06d4c0dbc64b70af90fd698a233a518aa5d07e595d983b8c0526c8f7fb87876040516120c6929190614af1565b60405180910390a46120dd81600087878787612d29565b6120ec81600087878787612d31565b5050505050565b7f000000000000000000000000000000000000000000000000000000000000000061211d81611dd2565b612128848484612655565b50505050565b61213882826112a4565b1561220c5760006001600084815260200190815260200160002060000160008373ffffffffffffffffffffffffffffffffffffffff1673ffffffffffffffffffffffffffffffffffffffff16815260200190815260200160002060006101000a81548160ff0219169083151502179055506121b1611aa6565b73ffffffffffffffffffffffffffffffffffffffff168173ffffffffffffffffffffffffffffffffffffffff16837ff6391f5c32d9c69d2a47ea670b442974b53935d1edc7fd64eb21e047a839171b60405160405180910390a45b5050565b600073ffffffffffffffffffffffffffffffffffffffff168373ffffffffffffffffffffffffffffffffffffffff160361227f576040517f08c379a000000000000000000000000000000000000000000000000000000000815260040161227690614c2c565b60405180910390fd5b80518251146122c3576040517f08c379a00000000000000000000000000000000000000000000000000000000081526004016122ba906149ad565b60405180910390fd5b60006122cd611aa6565b90506122ed81856000868660405180602001604052806000815250612d21565b60005b835181101561243c57600084828151811061230e5761230d614624565b5b60200260200101519050600084838151811061232d5761232c614624565b5b6020026020010151905060006002600084815260200190815260200160002060008973ffffffffffffffffffffffffffffffffffffffff1673ffffffffffffffffffffffffffffffffffffffff168152602001908152602001600020549050818110156123cf576040517f08c379a00000000000000000000000000000000000000000000000000000000081526004016123c690614cbe565b60405180910390fd5b8181036002600085815260200190815260200160002060008a73ffffffffffffffffffffffffffffffffffffffff1673ffffffffffffffffffffffffffffffffffffffff16815260200190815260200160002081905550505050808061243490614653565b9150506122f0565b50600073ffffffffffffffffffffffffffffffffffffffff168473ffffffffffffffffffffffffffffffffffffffff168273ffffffffffffffffffffffffffffffffffffffff167f4a39dc06d4c0dbc64b70af90fd698a233a518aa5d07e595d983b8c0526c8f7fb86866040516124b4929190614af1565b60405180910390a46124da81856000868660405180602001604052806000815250612d29565b50505050565b6124e8611aa6565b73ffffffffffffffffffffffffffffffffffffffff1661250661127b565b73ffffffffffffffffffffffffffffffffffffffff161461255c576040517f08c379a000000000000000000000000000000000000000000000000000000000815260040161255390614d2a565b60405180910390fd5b565b60008060009054906101000a900473ffffffffffffffffffffffffffffffffffffffff169050816000806101000a81548173ffffffffffffffffffffffffffffffffffffffff021916908373ffffffffffffffffffffffffffffffffffffffff1602179055508173ffffffffffffffffffffffffffffffffffffffff168173ffffffffffffffffffffffffffffffffffffffff167f8be0079c531659141344cd1fd0a4f28419497f9722a3daafe3b4186f6b6457e060405160405180910390a35050565b6000600960008360ff1660ff168152602001908152602001600020600001601e9054906101000a900460ff169050919050565b8173ffffffffffffffffffffffffffffffffffffffff168373ffffffffffffffffffffffffffffffffffffffff16036126c3576040517f08c379a00000000000000000000000000000000000000000000000000000000081526004016126ba90614dbc565b60405180910390fd5b80600360008573ffffffffffffffffffffffffffffffffffffffff1673ffffffffffffffffffffffffffffffffffffffff16815260200190815260200160002060008473ffffffffffffffffffffffffffffffffffffffff1673ffffffffffffffffffffffffffffffffffffffff16815260200190815260200160002060006101000a81548160ff0219169083151502179055508173ffffffffffffffffffffffffffffffffffffffff168373ffffffffffffffffffffffffffffffffffffffff167f17307eab39ab6107e8899845ad3d59bd9653f200f220920489ca2b5937696c31836040516127b491906133fa565b60405180910390a3505050565b600073ffffffffffffffffffffffffffffffffffffffff168473ffffffffffffffffffffffffffffffffffffffff1603612830576040517f08c379a000000000000000000000000000000000000000000000000000000000815260040161282790614a3f565b60405180910390fd5b600061283a611aa6565b9050600061284785612f8d565b9050600061285485612f8d565b9050612864838989858589612d21565b60006002600088815260200190815260200160002060008a73ffffffffffffffffffffffffffffffffffffffff1673ffffffffffffffffffffffffffffffffffffffff168152602001908152602001600020549050858110156128fc576040517f08c379a00000000000000000000000000000000000000000000000000000000081526004016128f390614ad1565b60405180910390fd5b8581036002600089815260200190815260200160002060008b73ffffffffffffffffffffffffffffffffffffffff1673ffffffffffffffffffffffffffffffffffffffff16815260200190815260200160002081905550856002600089815260200190815260200160002060008a73ffffffffffffffffffffffffffffffffffffffff1673ffffffffffffffffffffffffffffffffffffffff16815260200190815260200160002060008282546129b39190614850565b925050819055508773ffffffffffffffffffffffffffffffffffffffff168973ffffffffffffffffffffffffffffffffffffffff168573ffffffffffffffffffffffffffffffffffffffff167fc3d58168c5ae7397731d063d5bbf3d657854427343f4c083240f7aacaa2d0f628a8a604051612a30929190614ddc565b60405180910390a4612a46848a8a86868a612d29565b612a54848a8a8a8a8a613007565b505050505050505050565b600073ffffffffffffffffffffffffffffffffffffffff168373ffffffffffffffffffffffffffffffffffffffff1603612ace576040517f08c379a0000000000000000000000000000000000000000000000000000000008152600401612ac590614c2c565b60405180910390fd5b6000612ad8611aa6565b90506000612ae584612f8d565b90506000612af284612f8d565b9050612b1283876000858560405180602001604052806000815250612d21565b60006002600087815260200190815260200160002060008873ffffffffffffffffffffffffffffffffffffffff1673ffffffffffffffffffffffffffffffffffffffff16815260200190815260200160002054905084811015612baa576040517f08c379a0000000000000000000000000000000000000000000000000000000008152600401612ba190614cbe565b60405180910390fd5b8481036002600088815260200190815260200160002060008973ffffffffffffffffffffffffffffffffffffffff1673ffffffffffffffffffffffffffffffffffffffff16815260200190815260200160002081905550600073ffffffffffffffffffffffffffffffffffffffff168773ffffffffffffffffffffffffffffffffffffffff168573ffffffffffffffffffffffffffffffffffffffff167fc3d58168c5ae7397731d063d5bbf3d657854427343f4c083240f7aacaa2d0f628989604051612c78929190614ddc565b60405180910390a4612c9e84886000868660405180602001604052806000815250612d29565b50505050505050565b60007f7965db0b000000000000000000000000000000000000000000000000000000007bffffffffffffffffffffffffffffffffffffffffffffffffffffffff1916827bffffffffffffffffffffffffffffffffffffffffffffffffffffffff19161480612d1a5750612d19826131de565b5b9050919050565b505050505050565b505050505050565b612d508473ffffffffffffffffffffffffffffffffffffffff16611738565b15612f00578373ffffffffffffffffffffffffffffffffffffffff1663bc197c8187878686866040518663ffffffff1660e01b8152600401612d96959493929190614e5a565b6020604051808303816000875af1925050508015612dd257506040513d601f19601f82011682018060405250810190612dcf9190614ed7565b60015b612e7757612dde614f11565b806308c379a003612e3a5750612df2614f33565b80612dfd5750612e3c565b806040517f08c379a0000000000000000000000000000000000000000000000000000000008152600401612e319190613513565b60405180910390fd5b505b6040517f08c379a0000000000000000000000000000000000000000000000000000000008152600401612e6e90615035565b60405180910390fd5b63bc197c8160e01b7bffffffffffffffffffffffffffffffffffffffffffffffffffffffff1916817bffffffffffffffffffffffffffffffffffffffffffffffffffffffff191614612efe576040517f08c379a0000000000000000000000000000000000000000000000000000000008152600401612ef5906150c7565b60405180910390fd5b505b505050505050565b612f1282826112a4565b612f8957612f1f8161175b565b612f2d8360001c6020611788565b604051602001612f3e9291906151bb565b6040516020818303038152906040526040517f08c379a0000000000000000000000000000000000000000000000000000000008152600401612f809190613513565b60405180910390fd5b5050565b60606000600167ffffffffffffffff811115612fac57612fab6137b3565b5b604051908082528060200260200182016040528015612fda5781602001602082028036833780820191505090505b5090508281600081518110612ff257612ff1614624565b5b60200260200101818152505080915050919050565b6130268473ffffffffffffffffffffffffffffffffffffffff16611738565b156131d6578373ffffffffffffffffffffffffffffffffffffffff1663f23a6e6187878686866040518663ffffffff1660e01b815260040161306c9594939291906151f5565b6020604051808303816000875af19250505080156130a857506040513d601f19601f820116820180604052508101906130a59190614ed7565b60015b61314d576130b4614f11565b806308c379a00361311057506130c8614f33565b806130d35750613112565b806040517f08c379a00000000000000000000000000000000000000000000000000000000081526004016131079190613513565b60405180910390fd5b505b6040517f08c379a000000000000000000000000000000000000000000000000000000000815260040161314490615035565b60405180910390fd5b63f23a6e6160e01b7bffffffffffffffffffffffffffffffffffffffffffffffffffffffff1916817bffffffffffffffffffffffffffffffffffffffffffffffffffffffff1916146131d4576040517f08c379a00000000000000000000000000000000000000000000000000000000081526004016131cb906150c7565b60405180910390fd5b505b505050505050565b60007f01ffc9a7000000000000000000000000000000000000000000000000000000007bffffffffffffffffffffffffffffffffffffffffffffffffffffffff1916827bffffffffffffffffffffffffffffffffffffffffffffffffffffffff1916149050919050565b6000604051905090565b600080fd5b600080fd5b600073ffffffffffffffffffffffffffffffffffffffff82169050919050565b60006132878261325c565b9050919050565b6132978161327c565b81146132a257600080fd5b50565b6000813590506132b48161328e565b92915050565b6000819050919050565b6132cd816132ba565b81146132d857600080fd5b50565b6000813590506132ea816132c4565b92915050565b6000806040838503121561330757613306613252565b5b6000613315858286016132a5565b9250506020613326858286016132db565b9150509250929050565b613339816132ba565b82525050565b60006020820190506133546000830184613330565b92915050565b60007fffffffff0000000000000000000000000000000000000000000000000000000082169050919050565b61338f8161335a565b811461339a57600080fd5b50565b6000813590506133ac81613386565b92915050565b6000602082840312156133c8576133c7613252565b5b60006133d68482850161339d565b91505092915050565b60008115159050919050565b6133f4816133df565b82525050565b600060208201905061340f60008301846133eb565b92915050565b600061ffff82169050919050565b61342c81613415565b82525050565b60006020820190506134476000830184613423565b92915050565b60006020828403121561346357613462613252565b5b6000613471848285016132db565b91505092915050565b600081519050919050565b600082825260208201905092915050565b60005b838110156134b4578082015181840152602081019050613499565b838111156134c3576000848401525b50505050565b6000601f19601f8301169050919050565b60006134e58261347a565b6134ef8185613485565b93506134ff818560208601613496565b613508816134c9565b840191505092915050565b6000602082019050818103600083015261352d81846134da565b905092915050565b600060ff82169050919050565b61354b81613535565b811461355657600080fd5b50565b60008135905061356881613542565b92915050565b60006020828403121561358457613583613252565b5b600061359284828501613559565b91505092915050565b6135a48161327c565b82525050565b7f4e487b7100000000000000000000000000000000000000000000000000000000600052602160045260246000fd5b600281106135ea576135e96135aa565b5b50565b60008190506135fb826135d9565b919050565b600061360b826135ed565b9050919050565b61361b81613600565b82525050565b60028110613632576136316135aa565b5b50565b600081905061364382613621565b919050565b600061365382613635565b9050919050565b61366381613648565b82525050565b600063ffffffff82169050919050565b61368281613669565b82525050565b60006101008201905061369e600083018b61359b565b6136ab602083018a613612565b6136b86040830189613423565b6136c56060830188613423565b6136d2608083018761365a565b6136df60a0830186613679565b6136ec60c08301856133eb565b6136f960e083018461359b565b9998505050505050505050565b600060208201905061371b600083018461359b565b92915050565b6000819050919050565b61373481613721565b811461373f57600080fd5b50565b6000813590506137518161372b565b92915050565b60006020828403121561376d5761376c613252565b5b600061377b84828501613742565b91505092915050565b61378d81613721565b82525050565b60006020820190506137a86000830184613784565b92915050565b600080fd5b7f4e487b7100000000000000000000000000000000000000000000000000000000600052604160045260246000fd5b6137eb826134c9565b810181811067ffffffffffffffff8211171561380a576138096137b3565b5b80604052505050565b600061381d613248565b905061382982826137e2565b919050565b600067ffffffffffffffff821115613849576138486137b3565b5b602082029050602081019050919050565b600080fd5b600061387261386d8461382e565b613813565b905080838252602082019050602084028301858111156138955761389461385a565b5b835b818110156138be57806138aa88826132db565b845260208401935050602081019050613897565b5050509392505050565b600082601f8301126138dd576138dc6137ae565b5b81356138ed84826020860161385f565b91505092915050565b600080fd5b600067ffffffffffffffff821115613916576139156137b3565b5b61391f826134c9565b9050602081019050919050565b82818337600083830152505050565b600061394e613949846138fb565b613813565b90508281526020810184848401111561396a576139696138f6565b5b61397584828561392c565b509392505050565b600082601f830112613992576139916137ae565b5b81356139a284826020860161393b565b91505092915050565b600080600080600060a086880312156139c7576139c6613252565b5b60006139d5888289016132a5565b95505060206139e6888289016132a5565b945050604086013567ffffffffffffffff811115613a0757613a06613257565b5b613a13888289016138c8565b935050606086013567ffffffffffffffff811115613a3457613a33613257565b5b613a40888289016138c8565b925050608086013567ffffffffffffffff811115613a6157613a60613257565b5b613a6d8882890161397d565b9150509295509295909350565b60008060408385031215613a9157613a90613252565b5b6000613a9f85828601613742565b9250506020613ab0858286016132a5565b9150509250929050565b60028110613ac757600080fd5b50565b600081359050613ad981613aba565b92915050565b613ae881613415565b8114613af357600080fd5b50565b600081359050613b0581613adf565b92915050565b60028110613b1857600080fd5b50565b600081359050613b2a81613b0b565b92915050565b613b3981613669565b8114613b4457600080fd5b50565b600081359050613b5681613b30565b92915050565b600080fd5b60008083601f840112613b7757613b766137ae565b5b8235905067ffffffffffffffff811115613b9457613b93613b5c565b5b602083019150836020820283011115613bb057613baf61385a565b5b9250929050565b6000806000806000806000806000806101008b8d031215613bdb57613bda613252565b5b6000613be98d828e016132a5565b9a50506020613bfa8d828e01613aca565b9950506040613c0b8d828e01613af6565b9850506060613c1c8d828e01613af6565b9750506080613c2d8d828e01613b1b565b96505060a0613c3e8d828e01613b47565b95505060c08b013567ffffffffffffffff811115613c5f57613c5e613257565b5b613c6b8d828e01613b61565b945094505060e08b013567ffffffffffffffff811115613c8e57613c8d613257565b5b613c9a8d828e01613b61565b92509250509295989b9194979a5092959850565b6000602082019050613cc36000830184613612565b92915050565b613cd281613535565b82525050565b6000602082019050613ced6000830184613cc9565b92915050565b600067ffffffffffffffff821115613d0e57613d0d6137b3565b5b602082029050602081019050919050565b6000613d32613d2d84613cf3565b613813565b90508083825260208201905060208402830185811115613d5557613d5461385a565b5b835b81811015613d7e5780613d6a88826132a5565b845260208401935050602081019050613d57565b5050509392505050565b600082601f830112613d9d57613d9c6137ae565b5b8135613dad848260208601613d1f565b91505092915050565b60008060408385031215613dcd57613dcc613252565b5b600083013567ffffffffffffffff811115613deb57613dea613257565b5b613df785828601613d88565b925050602083013567ffffffffffffffff811115613e1857613e17613257565b5b613e24858286016138c8565b9150509250929050565b600081519050919050565b600082825260208201905092915050565b6000819050602082019050919050565b613e63816132ba565b82525050565b6000613e758383613e5a565b60208301905092915050565b6000602082019050919050565b6000613e9982613e2e565b613ea38185613e39565b9350613eae83613e4a565b8060005b83811015613edf578151613ec68882613e69565b9750613ed183613e81565b925050600181019050613eb2565b5085935050505092915050565b60006020820190508181036000830152613f068184613e8e565b905092915050565b600080600060608486031215613f2757613f26613252565b5b6000613f35868287016132a5565b935050602084013567ffffffffffffffff811115613f5657613f55613257565b5b613f62868287016138c8565b925050604084013567ffffffffffffffff811115613f8357613f82613257565b5b613f8f868287016138c8565b9150509250925092565b600080600060608486031215613fb257613fb1613252565b5b6000613fc086828701613559565b9350506020613fd1868287016132a5565b9250506040613fe2868287016132db565b9150509250925092565b613ff5816133df565b811461400057600080fd5b50565b60008135905061401281613fec565b92915050565b6000806040838503121561402f5761402e613252565b5b600061403d85828601613559565b925050602061404e85828601614003565b9150509250929050565b6000806040838503121561406f5761406e613252565b5b600061407d858286016132a5565b925050602061408e85828601614003565b9150509250929050565b600080604083850312156140af576140ae613252565b5b60006140bd85828601613559565b92505060206140ce85828601613b47565b9150509250929050565b60006020820190506140ed6000830184613679565b92915050565b6000806040838503121561410a57614109613252565b5b6000614118858286016132a5565b9250506020614129858286016132a5565b9150509250929050565b60006020828403121561414957614148613252565b5b600061415784828501613af6565b91505092915050565b600080600080600060a0868803121561417c5761417b613252565b5b600061418a888289016132a5565b955050602061419b888289016132a5565b94505060406141ac888289016132db565b93505060606141bd888289016132db565b925050608086013567ffffffffffffffff8111156141de576141dd613257565b5b6141ea8882890161397d565b9150509295509295909350565b60006020828403121561420d5761420c613252565b5b600061421b848285016132a5565b91505092915050565b60008060006060848603121561423d5761423c613252565b5b600061424b868287016132a5565b935050602061425c868287016132db565b925050604061426d868287016132db565b9150509250925092565b600060208201905061428c600083018461365a565b92915050565b7f455243313135353a2061646472657373207a65726f206973206e6f742061207660008201527f616c6964206f776e657200000000000000000000000000000000000000000000602082015250565b60006142ee602a83613485565b91506142f982614292565b604082019050919050565b6000602082019050818103600083015261431d816142e1565b9050919050565b7f4e487b7100000000000000000000000000000000000000000000000000000000600052602260045260246000fd5b6000600282049050600182168061436b57607f821691505b60208210810361437e5761437d614324565b5b50919050565b7f455243313135353a2063616c6c6572206973206e6f7420746f6b656e206f776e60008201527f6572206f7220617070726f766564000000000000000000000000000000000000602082015250565b60006143e0602e83613485565b91506143eb82614384565b604082019050919050565b6000602082019050818103600083015261440f816143d3565b9050919050565b7f4e487b7100000000000000000000000000000000000000000000000000000000600052601160045260246000fd5b600061445082613535565b915060ff820361446357614462614416565b5b600182019050919050565b7f536f7272792c20796f752063616e277420746f6b656e697a65206d6f7265206160008201527f7373657473000000000000000000000000000000000000000000000000000000602082015250565b60006144ca602583613485565b91506144d58261446e565b604082019050919050565b600060208201905081810360008301526144f9816144bd565b9050919050565b7f416363657373436f6e74726f6c3a2063616e206f6e6c792072656e6f756e636560008201527f20726f6c657320666f722073656c660000000000000000000000000000000000602082015250565b600061455c602f83613485565b915061456782614500565b604082019050919050565b6000602082019050818103600083015261458b8161454f565b9050919050565b7f455243313135353a206163636f756e747320616e6420696473206c656e67746860008201527f206d69736d617463680000000000000000000000000000000000000000000000602082015250565b60006145ee602983613485565b91506145f982614592565b604082019050919050565b6000602082019050818103600083015261461d816145e1565b9050919050565b7f4e487b7100000000000000000000000000000000000000000000000000000000600052603260045260246000fd5b600061465e826132ba565b91507fffffffffffffffffffffffffffffffffffffffffffffffffffffffffffffffff82036146905761468f614416565b5b600182019050919050565b7f61737365742069732063757272656e746c79206e6f7420617661696c61626c6560008201527f20666f72207472616e7366657200000000000000000000000000000000000000602082015250565b60006146f7602d83613485565b91506147028261469b565b604082019050919050565b60006020820190508181036000830152614726816146ea565b9050919050565b60006060820190506147426000830186613cc9565b61474f602083018561359b565b61475c60408301846133eb565b949350505050565b7f4f776e61626c653a206e6577206f776e657220697320746865207a65726f206160008201527f6464726573730000000000000000000000000000000000000000000000000000602082015250565b60006147c0602683613485565b91506147cb82614764565b604082019050919050565b600060208201905081810360008301526147ef816147b3565b9050919050565b6000614801826132ba565b915061480c836132ba565b9250817fffffffffffffffffffffffffffffffffffffffffffffffffffffffffffffffff048311821515161561484557614844614416565b5b828202905092915050565b600061485b826132ba565b9150614866836132ba565b9250827fffffffffffffffffffffffffffffffffffffffffffffffffffffffffffffffff0382111561489b5761489a614416565b5b828201905092915050565b60006148b1826132ba565b9150600082036148c4576148c3614416565b5b600182039050919050565b7f537472696e67733a20686578206c656e67746820696e73756666696369656e74600082015250565b6000614905602083613485565b9150614910826148cf565b602082019050919050565b60006020820190508181036000830152614934816148f8565b9050919050565b7f455243313135353a2069647320616e6420616d6f756e7473206c656e6774682060008201527f6d69736d61746368000000000000000000000000000000000000000000000000602082015250565b6000614997602883613485565b91506149a28261493b565b604082019050919050565b600060208201905081810360008301526149c68161498a565b9050919050565b7f455243313135353a207472616e7366657220746f20746865207a65726f20616460008201527f6472657373000000000000000000000000000000000000000000000000000000602082015250565b6000614a29602583613485565b9150614a34826149cd565b604082019050919050565b60006020820190508181036000830152614a5881614a1c565b9050919050565b7f455243313135353a20696e73756666696369656e742062616c616e636520666f60008201527f72207472616e7366657200000000000000000000000000000000000000000000602082015250565b6000614abb602a83613485565b9150614ac682614a5f565b604082019050919050565b60006020820190508181036000830152614aea81614aae565b9050919050565b60006040820190508181036000830152614b0b8185613e8e565b90508181036020830152614b1f8184613e8e565b90509392505050565b7f455243313135353a206d696e7420746f20746865207a65726f2061646472657360008201527f7300000000000000000000000000000000000000000000000000000000000000602082015250565b6000614b84602183613485565b9150614b8f82614b28565b604082019050919050565b60006020820190508181036000830152614bb381614b77565b9050919050565b7f455243313135353a206275726e2066726f6d20746865207a65726f206164647260008201527f6573730000000000000000000000000000000000000000000000000000000000602082015250565b6000614c16602383613485565b9150614c2182614bba565b604082019050919050565b60006020820190508181036000830152614c4581614c09565b9050919050565b7f455243313135353a206275726e20616d6f756e7420657863656564732062616c60008201527f616e636500000000000000000000000000000000000000000000000000000000602082015250565b6000614ca8602483613485565b9150614cb382614c4c565b604082019050919050565b60006020820190508181036000830152614cd781614c9b565b9050919050565b7f4f776e61626c653a2063616c6c6572206973206e6f7420746865206f776e6572600082015250565b6000614d14602083613485565b9150614d1f82614cde565b602082019050919050565b60006020820190508181036000830152614d4381614d07565b9050919050565b7f455243313135353a2073657474696e6720617070726f76616c2073746174757360008201527f20666f722073656c660000000000000000000000000000000000000000000000602082015250565b6000614da6602983613485565b9150614db182614d4a565b604082019050919050565b60006020820190508181036000830152614dd581614d99565b9050919050565b6000604082019050614df16000830185613330565b614dfe6020830184613330565b9392505050565b600081519050919050565b600082825260208201905092915050565b6000614e2c82614e05565b614e368185614e10565b9350614e46818560208601613496565b614e4f816134c9565b840191505092915050565b600060a082019050614e6f600083018861359b565b614e7c602083018761359b565b8181036040830152614e8e8186613e8e565b90508181036060830152614ea28185613e8e565b90508181036080830152614eb68184614e21565b90509695505050505050565b600081519050614ed181613386565b92915050565b600060208284031215614eed57614eec613252565b5b6000614efb84828501614ec2565b91505092915050565b60008160e01c9050919050565b600060033d1115614f305760046000803e614f2d600051614f04565b90505b90565b600060443d10614fc057614f45613248565b60043d036004823e80513d602482011167ffffffffffffffff82111715614f6d575050614fc0565b808201805167ffffffffffffffff811115614f8b5750505050614fc0565b80602083010160043d038501811115614fa8575050505050614fc0565b614fb7826020018501866137e2565b82955050505050505b90565b7f455243313135353a207472616e7366657220746f206e6f6e2d4552433131353560008201527f526563656976657220696d706c656d656e746572000000000000000000000000602082015250565b600061501f603483613485565b915061502a82614fc3565b604082019050919050565b6000602082019050818103600083015261504e81615012565b9050919050565b7f455243313135353a204552433131353552656365697665722072656a6563746560008201527f6420746f6b656e73000000000000000000000000000000000000000000000000602082015250565b60006150b1602883613485565b91506150bc82615055565b604082019050919050565b600060208201905081810360008301526150e0816150a4565b9050919050565b600081905092915050565b7f416363657373436f6e74726f6c3a206163636f756e7420000000000000000000600082015250565b60006151286017836150e7565b9150615133826150f2565b601782019050919050565b60006151498261347a565b61515381856150e7565b9350615163818560208601613496565b80840191505092915050565b7f206973206d697373696e6720726f6c6520000000000000000000000000000000600082015250565b60006151a56011836150e7565b91506151b08261516f565b601182019050919050565b60006151c68261511b565b91506151d2828561513e565b91506151dd82615198565b91506151e9828461513e565b91508190509392505050565b600060a08201905061520a600083018861359b565b615217602083018761359b565b6152246040830186613330565b6152316060830185613330565b81810360808301526152438184614e21565b9050969550505050505056fea26469706673582212204f0f3416e3aaa80c970660cb92fbccf00185ec85163f19724b4801ca4197389364736f6c634300080e003368747470733a2f2f67616d652e6578616d706c652f6170692f6974656d2f7b69647d2e6a736f6e",
			"opcodes": "PUSH1 0xA0 PUSH1 0x40 MSTORE PUSH32 0x9F2DF0FED2C77648DE5860A4CC508CD0818C85B8B8A1AB4CEEEF8D981C8956A6 PUSH1 0x80 SWAP1 DUP2 MSTORE POP PUSH1 0x1 PUSH1 0x5 PUSH1 0x1 PUSH2 0x100 EXP DUP2 SLOAD DUP2 PUSH1 0xFF MUL NOT AND SWAP1 DUP4 PUSH1 0xFF AND MUL OR SWAP1 SSTORE POP PUSH2 0x7E7 PUSH1 0x5 PUSH1 0x2 PUSH2 0x100 EXP DUP2 SLOAD DUP2 PUSH2 0xFFFF MUL NOT AND SWAP1 DUP4 PUSH2 0xFFFF AND MUL OR SWAP1 SSTORE POP PUSH1 0x0 PUSH1 0x8 PUSH1 0x0 PUSH2 0x100 EXP DUP2 SLOAD DUP2 PUSH1 0xFF MUL NOT AND SWAP1 DUP4 ISZERO ISZERO MUL OR SWAP1 SSTORE POP CALLVALUE DUP1 ISZERO PUSH3 0x8E JUMPI PUSH1 0x0 DUP1 REVERT JUMPDEST POP PUSH1 0x40 MLOAD PUSH3 0x72AE CODESIZE SUB DUP1 PUSH3 0x72AE DUP4 CODECOPY DUP2 DUP2 ADD PUSH1 0x40 MSTORE DUP2 ADD SWAP1 PUSH3 0xB4 SWAP2 SWAP1 PUSH3 0x1391 JUMP JUMPDEST PUSH1 0x40 MLOAD DUP1 PUSH1 0x60 ADD PUSH1 0x40 MSTORE DUP1 PUSH1 0x27 DUP2 MSTORE PUSH1 0x20 ADD PUSH3 0x7287 PUSH1 0x27 SWAP2 CODECOPY CALLER DUP11 PUSH3 0xF0 PUSH3 0xE4 PUSH3 0x46C PUSH1 0x20 SHL PUSH1 0x20 SHR JUMP JUMPDEST PUSH3 0x474 PUSH1 0x20 SHL PUSH1 0x20 SHR JUMP JUMPDEST PUSH3 0x105 PUSH1 0x0 DUP1 SHL DUP4 PUSH3 0x538 PUSH1 0x20 SHL PUSH1 0x20 SHR JUMP JUMPDEST PUSH3 0x119 PUSH1 0x80 MLOAD DUP3 PUSH3 0x538 PUSH1 0x20 SHL PUSH1 0x20 SHR JUMP JUMPDEST POP POP PUSH3 0x12C DUP2 PUSH3 0x629 PUSH1 0x20 SHL PUSH1 0x20 SHR JUMP JUMPDEST POP DUP7 PUSH1 0x5 PUSH1 0x0 PUSH2 0x100 EXP DUP2 SLOAD DUP2 PUSH1 0xFF MUL NOT AND SWAP1 DUP4 PUSH1 0xFF AND MUL OR SWAP1 SSTORE POP PUSH1 0x40 MLOAD DUP1 PUSH2 0x100 ADD PUSH1 0x40 MSTORE DUP1 DUP10 PUSH20 0xFFFFFFFFFFFFFFFFFFFFFFFFFFFFFFFFFFFFFFFF AND DUP2 MSTORE PUSH1 0x20 ADD DUP8 PUSH1 0xFF AND PUSH1 0x1 DUP2 GT ISZERO PUSH3 0x189 JUMPI PUSH3 0x188 PUSH3 0x14AE JUMP JUMPDEST JUMPDEST PUSH1 0x1 DUP2 GT ISZERO PUSH3 0x19E JUMPI PUSH3 0x19D PUSH3 0x14AE JUMP JUMPDEST JUMPDEST DUP2 MSTORE PUSH1 0x20 ADD DUP7 PUSH2 0xFFFF AND DUP2 MSTORE PUSH1 0x20 ADD DUP6 PUSH2 0xFFFF AND DUP2 MSTORE PUSH1 0x20 ADD DUP5 PUSH1 0xFF AND PUSH1 0x1 DUP2 GT ISZERO PUSH3 0x1D0 JUMPI PUSH3 0x1CF PUSH3 0x14AE JUMP JUMPDEST JUMPDEST PUSH1 0x1 DUP2 GT ISZERO PUSH3 0x1E5 JUMPI PUSH3 0x1E4 PUSH3 0x14AE JUMP JUMPDEST JUMPDEST DUP2 MSTORE PUSH1 0x20 ADD PUSH1 0x0 PUSH4 0xFFFFFFFF AND DUP2 MSTORE PUSH1 0x20 ADD PUSH1 0x0 ISZERO ISZERO DUP2 MSTORE PUSH1 0x20 ADD DUP10 PUSH20 0xFFFFFFFFFFFFFFFFFFFFFFFFFFFFFFFFFFFFFFFF AND DUP2 MSTORE POP PUSH1 0x9 PUSH1 0x0 PUSH1 0x5 PUSH1 0x1 SWAP1 SLOAD SWAP1 PUSH2 0x100 EXP SWAP1 DIV PUSH1 0xFF AND PUSH1 0xFF AND PUSH1 0xFF AND DUP2 MSTORE PUSH1 0x20 ADD SWAP1 DUP2 MSTORE PUSH1 0x20 ADD PUSH1 0x0 KECCAK256 PUSH1 0x0 DUP3 ADD MLOAD DUP2 PUSH1 0x0 ADD PUSH1 0x0 PUSH2 0x100 EXP DUP2 SLOAD DUP2 PUSH20 0xFFFFFFFFFFFFFFFFFFFFFFFFFFFFFFFFFFFFFFFF MUL NOT AND SWAP1 DUP4 PUSH20 0xFFFFFFFFFFFFFFFFFFFFFFFFFFFFFFFFFFFFFFFF AND MUL OR SWAP1 SSTORE POP PUSH1 0x20 DUP3 ADD MLOAD DUP2 PUSH1 0x0 ADD PUSH1 0x14 PUSH2 0x100 EXP DUP2 SLOAD DUP2 PUSH1 0xFF MUL NOT AND SWAP1 DUP4 PUSH1 0x1 DUP2 GT ISZERO PUSH3 0x2B7 JUMPI PUSH3 0x2B6 PUSH3 0x14AE JUMP JUMPDEST JUMPDEST MUL OR SWAP1 SSTORE POP PUSH1 0x40 DUP3 ADD MLOAD DUP2 PUSH1 0x0 ADD PUSH1 0x15 PUSH2 0x100 EXP DUP2 SLOAD DUP2 PUSH2 0xFFFF MUL NOT AND SWAP1 DUP4 PUSH2 0xFFFF AND MUL OR SWAP1 SSTORE POP PUSH1 0x60 DUP3 ADD MLOAD DUP2 PUSH1 0x0 ADD PUSH1 0x17 PUSH2 0x100 EXP DUP2 SLOAD DUP2 PUSH2 0xFFFF MUL NOT AND SWAP1 DUP4 PUSH2 0xFFFF AND MUL OR SWAP1 SSTORE POP PUSH1 0x80 DUP3 ADD MLOAD DUP2 PUSH1 0x0 ADD PUSH1 0x19 PUSH2 0x100 EXP DUP2 SLOAD DUP2 PUSH1 0xFF MUL NOT AND SWAP1 DUP4 PUSH1 0x1 DUP2 GT ISZERO PUSH3 0x330 JUMPI PUSH3 0x32F PUSH3 0x14AE JUMP JUMPDEST JUMPDEST MUL OR SWAP1 SSTORE POP PUSH1 0xA0 DUP3 ADD MLOAD DUP2 PUSH1 0x0 ADD PUSH1 0x1A PUSH2 0x100 EXP DUP2 SLOAD DUP2 PUSH4 0xFFFFFFFF MUL NOT AND SWAP1 DUP4 PUSH4 0xFFFFFFFF AND MUL OR SWAP1 SSTORE POP PUSH1 0xC0 DUP3 ADD MLOAD DUP2 PUSH1 0x0 ADD PUSH1 0x1E PUSH2 0x100 EXP DUP2 SLOAD DUP2 PUSH1 0xFF MUL NOT AND SWAP1 DUP4 ISZERO ISZERO MUL OR SWAP1 SSTORE POP PUSH1 0xE0 DUP3 ADD MLOAD DUP2 PUSH1 0x1 ADD PUSH1 0x0 PUSH2 0x100 EXP DUP2 SLOAD DUP2 PUSH20 0xFFFFFFFFFFFFFFFFFFFFFFFFFFFFFFFFFFFFFFFF MUL NOT AND SWAP1 DUP4 PUSH20 0xFFFFFFFFFFFFFFFFFFFFFFFFFFFFFFFFFFFFFFFF AND MUL OR SWAP1 SSTORE POP SWAP1 POP POP PUSH1 0x5 PUSH1 0x1 DUP2 DUP2 SWAP1 SLOAD SWAP1 PUSH2 0x100 EXP SWAP1 DIV PUSH1 0xFF AND DUP1 SWAP3 SWAP2 SWAP1 PUSH3 0x3E7 SWAP1 PUSH3 0x150C JUMP JUMPDEST SWAP2 SWAP1 PUSH2 0x100 EXP DUP2 SLOAD DUP2 PUSH1 0xFF MUL NOT AND SWAP1 DUP4 PUSH1 0xFF AND MUL OR SWAP1 SSTORE POP POP PUSH3 0x449 DUP9 DUP4 DUP4 PUSH1 0x40 MLOAD DUP1 PUSH1 0x40 ADD PUSH1 0x40 MSTORE DUP1 PUSH1 0x4 DUP2 MSTORE PUSH1 0x20 ADD PUSH32 0x6D696E7400000000000000000000000000000000000000000000000000000000 DUP2 MSTORE POP PUSH3 0x645 PUSH1 0x20 SHL PUSH1 0x20 SHR JUMP JUMPDEST PUSH3 0x45D DUP9 CALLER PUSH1 0x1 PUSH3 0x8A6 PUSH1 0x20 SHL PUSH1 0x20 SHR JUMP JUMPDEST POP POP POP POP POP POP POP POP POP PUSH3 0x1FCA JUMP JUMPDEST PUSH1 0x0 CALLER SWAP1 POP SWAP1 JUMP JUMPDEST PUSH1 0x0 DUP1 PUSH1 0x0 SWAP1 SLOAD SWAP1 PUSH2 0x100 EXP SWAP1 DIV PUSH20 0xFFFFFFFFFFFFFFFFFFFFFFFFFFFFFFFFFFFFFFFF AND SWAP1 POP DUP2 PUSH1 0x0 DUP1 PUSH2 0x100 EXP DUP2 SLOAD DUP2 PUSH20 0xFFFFFFFFFFFFFFFFFFFFFFFFFFFFFFFFFFFFFFFF MUL NOT AND SWAP1 DUP4 PUSH20 0xFFFFFFFFFFFFFFFFFFFFFFFFFFFFFFFFFFFFFFFF AND MUL OR SWAP1 SSTORE POP DUP2 PUSH20 0xFFFFFFFFFFFFFFFFFFFFFFFFFFFFFFFFFFFFFFFF AND DUP2 PUSH20 0xFFFFFFFFFFFFFFFFFFFFFFFFFFFFFFFFFFFFFFFF AND PUSH32 0x8BE0079C531659141344CD1FD0A4F28419497F9722A3DAAFE3B4186F6B6457E0 PUSH1 0x40 MLOAD PUSH1 0x40 MLOAD DUP1 SWAP2 SUB SWAP1 LOG3 POP POP JUMP JUMPDEST PUSH3 0x54A DUP3 DUP3 PUSH3 0x8D3 PUSH1 0x20 SHL PUSH1 0x20 SHR JUMP JUMPDEST PUSH3 0x625 JUMPI PUSH1 0x1 DUP1 PUSH1 0x0 DUP5 DUP2 MSTORE PUSH1 0x20 ADD SWAP1 DUP2 MSTORE PUSH1 0x20 ADD PUSH1 0x0 KECCAK256 PUSH1 0x0 ADD PUSH1 0x0 DUP4 PUSH20 0xFFFFFFFFFFFFFFFFFFFFFFFFFFFFFFFFFFFFFFFF AND PUSH20 0xFFFFFFFFFFFFFFFFFFFFFFFFFFFFFFFFFFFFFFFF AND DUP2 MSTORE PUSH1 0x20 ADD SWAP1 DUP2 MSTORE PUSH1 0x20 ADD PUSH1 0x0 KECCAK256 PUSH1 0x0 PUSH2 0x100 EXP DUP2 SLOAD DUP2 PUSH1 0xFF MUL NOT AND SWAP1 DUP4 ISZERO ISZERO MUL OR SWAP1 SSTORE POP PUSH3 0x5CA PUSH3 0x46C PUSH1 0x20 SHL PUSH1 0x20 SHR JUMP JUMPDEST PUSH20 0xFFFFFFFFFFFFFFFFFFFFFFFFFFFFFFFFFFFFFFFF AND DUP2 PUSH20 0xFFFFFFFFFFFFFFFFFFFFFFFFFFFFFFFFFFFFFFFF AND DUP4 PUSH32 0x2F8788117E7EFF1D82E926EC794901D17C78024A50270940304540A733656F0D PUSH1 0x40 MLOAD PUSH1 0x40 MLOAD DUP1 SWAP2 SUB SWAP1 LOG4 JUMPDEST POP POP JUMP JUMPDEST DUP1 PUSH1 0x4 SWAP1 DUP1 MLOAD SWAP1 PUSH1 0x20 ADD SWAP1 PUSH3 0x641 SWAP3 SWAP2 SWAP1 PUSH3 0x103B JUMP JUMPDEST POP POP JUMP JUMPDEST PUSH1 0x0 PUSH20 0xFFFFFFFFFFFFFFFFFFFFFFFFFFFFFFFFFFFFFFFF AND DUP5 PUSH20 0xFFFFFFFFFFFFFFFFFFFFFFFFFFFFFFFFFFFFFFFF AND SUB PUSH3 0x6B7 JUMPI PUSH1 0x40 MLOAD PUSH32 0x8C379A000000000000000000000000000000000000000000000000000000000 DUP2 MSTORE PUSH1 0x4 ADD PUSH3 0x6AE SWAP1 PUSH3 0x15C1 JUMP JUMPDEST PUSH1 0x40 MLOAD DUP1 SWAP2 SUB SWAP1 REVERT JUMPDEST DUP2 MLOAD DUP4 MLOAD EQ PUSH3 0x6FE JUMPI PUSH1 0x40 MLOAD PUSH32 0x8C379A000000000000000000000000000000000000000000000000000000000 DUP2 MSTORE PUSH1 0x4 ADD PUSH3 0x6F5 SWAP1 PUSH3 0x1659 JUMP JUMPDEST PUSH1 0x40 MLOAD DUP1 SWAP2 SUB SWAP1 REVERT JUMPDEST PUSH1 0x0 PUSH3 0x710 PUSH3 0x46C PUSH1 0x20 SHL PUSH1 0x20 SHR JUMP JUMPDEST SWAP1 POP PUSH3 0x729 DUP2 PUSH1 0x0 DUP8 DUP8 DUP8 DUP8 PUSH3 0x93E PUSH1 0x20 SHL PUSH1 0x20 SHR JUMP JUMPDEST PUSH1 0x0 JUMPDEST DUP5 MLOAD DUP2 LT ISZERO PUSH3 0x7EF JUMPI DUP4 DUP2 DUP2 MLOAD DUP2 LT PUSH3 0x74C JUMPI PUSH3 0x74B PUSH3 0x167B JUMP JUMPDEST JUMPDEST PUSH1 0x20 MUL PUSH1 0x20 ADD ADD MLOAD PUSH1 0x2 PUSH1 0x0 DUP8 DUP5 DUP2 MLOAD DUP2 LT PUSH3 0x76E JUMPI PUSH3 0x76D PUSH3 0x167B JUMP JUMPDEST JUMPDEST PUSH1 0x20 MUL PUSH1 0x20 ADD ADD MLOAD DUP2 MSTORE PUSH1 0x20 ADD SWAP1 DUP2 MSTORE PUSH1 0x20 ADD PUSH1 0x0 KECCAK256 PUSH1 0x0 DUP9 PUSH20 0xFFFFFFFFFFFFFFFFFFFFFFFFFFFFFFFFFFFFFFFF AND PUSH20 0xFFFFFFFFFFFFFFFFFFFFFFFFFFFFFFFFFFFFFFFF AND DUP2 MSTORE PUSH1 0x20 ADD SWAP1 DUP2 MSTORE PUSH1 0x20 ADD PUSH1 0x0 KECCAK256 PUSH1 0x0 DUP3 DUP3 SLOAD PUSH3 0x7D2 SWAP2 SWAP1 PUSH3 0x16AA JUMP JUMPDEST SWAP3 POP POP DUP2 SWAP1 SSTORE POP DUP1 DUP1 PUSH3 0x7E6 SWAP1 PUSH3 0x1707 JUMP JUMPDEST SWAP2 POP POP PUSH3 0x72C JUMP JUMPDEST POP DUP5 PUSH20 0xFFFFFFFFFFFFFFFFFFFFFFFFFFFFFFFFFFFFFFFF AND PUSH1 0x0 PUSH20 0xFFFFFFFFFFFFFFFFFFFFFFFFFFFFFFFFFFFFFFFF AND DUP3 PUSH20 0xFFFFFFFFFFFFFFFFFFFFFFFFFFFFFFFFFFFFFFFF AND PUSH32 0x4A39DC06D4C0DBC64B70AF90FD698A233A518AA5D07E595D983B8C0526C8F7FB DUP8 DUP8 PUSH1 0x40 MLOAD PUSH3 0x869 SWAP3 SWAP2 SWAP1 PUSH3 0x1822 JUMP JUMPDEST PUSH1 0x40 MLOAD DUP1 SWAP2 SUB SWAP1 LOG4 PUSH3 0x888 DUP2 PUSH1 0x0 DUP8 DUP8 DUP8 DUP8 PUSH3 0x946 PUSH1 0x20 SHL PUSH1 0x20 SHR JUMP JUMPDEST PUSH3 0x89F DUP2 PUSH1 0x0 DUP8 DUP8 DUP8 DUP8 PUSH3 0x94E PUSH1 0x20 SHL PUSH1 0x20 SHR JUMP JUMPDEST POP POP POP POP POP JUMP JUMPDEST PUSH1 0x80 MLOAD PUSH3 0x8BA DUP2 PUSH3 0xB47 PUSH1 0x20 SHL PUSH1 0x20 SHR JUMP JUMPDEST PUSH3 0x8CD DUP5 DUP5 DUP5 PUSH3 0xB6B PUSH1 0x20 SHL PUSH1 0x20 SHR JUMP JUMPDEST POP POP POP POP JUMP JUMPDEST PUSH1 0x0 PUSH1 0x1 PUSH1 0x0 DUP5 DUP2 MSTORE PUSH1 0x20 ADD SWAP1 DUP2 MSTORE PUSH1 0x20 ADD PUSH1 0x0 KECCAK256 PUSH1 0x0 ADD PUSH1 0x0 DUP4 PUSH20 0xFFFFFFFFFFFFFFFFFFFFFFFFFFFFFFFFFFFFFFFF AND PUSH20 0xFFFFFFFFFFFFFFFFFFFFFFFFFFFFFFFFFFFFFFFF AND DUP2 MSTORE PUSH1 0x20 ADD SWAP1 DUP2 MSTORE PUSH1 0x20 ADD PUSH1 0x0 KECCAK256 PUSH1 0x0 SWAP1 SLOAD SWAP1 PUSH2 0x100 EXP SWAP1 DIV PUSH1 0xFF AND SWAP1 POP SWAP3 SWAP2 POP POP JUMP JUMPDEST POP POP POP POP POP POP JUMP JUMPDEST POP POP POP POP POP POP JUMP JUMPDEST PUSH3 0x97A DUP5 PUSH20 0xFFFFFFFFFFFFFFFFFFFFFFFFFFFFFFFFFFFFFFFF AND PUSH3 0xCDC PUSH1 0x20 SHL PUSH3 0x1738 OR PUSH1 0x20 SHR JUMP JUMPDEST ISZERO PUSH3 0xB3F JUMPI DUP4 PUSH20 0xFFFFFFFFFFFFFFFFFFFFFFFFFFFFFFFFFFFFFFFF AND PUSH4 0xBC197C81 DUP8 DUP8 DUP7 DUP7 DUP7 PUSH1 0x40 MLOAD DUP7 PUSH4 0xFFFFFFFF AND PUSH1 0xE0 SHL DUP2 MSTORE PUSH1 0x4 ADD PUSH3 0x9C3 SWAP6 SWAP5 SWAP4 SWAP3 SWAP2 SWAP1 PUSH3 0x1901 JUMP JUMPDEST PUSH1 0x20 PUSH1 0x40 MLOAD DUP1 DUP4 SUB DUP2 PUSH1 0x0 DUP8 GAS CALL SWAP3 POP POP POP DUP1 ISZERO PUSH3 0xA02 JUMPI POP PUSH1 0x40 MLOAD RETURNDATASIZE PUSH1 0x1F NOT PUSH1 0x1F DUP3 ADD AND DUP3 ADD DUP1 PUSH1 0x40 MSTORE POP DUP2 ADD SWAP1 PUSH3 0x9FF SWAP2 SWAP1 PUSH3 0x19D0 JUMP JUMPDEST PUSH1 0x1 JUMPDEST PUSH3 0xAB3 JUMPI PUSH3 0xA11 PUSH3 0x1A0F JUMP JUMPDEST DUP1 PUSH4 0x8C379A0 SUB PUSH3 0xA74 JUMPI POP PUSH3 0xA28 PUSH3 0x1A34 JUMP JUMPDEST DUP1 PUSH3 0xA35 JUMPI POP PUSH3 0xA76 JUMP JUMPDEST DUP1 PUSH1 0x40 MLOAD PUSH32 0x8C379A000000000000000000000000000000000000000000000000000000000 DUP2 MSTORE PUSH1 0x4 ADD PUSH3 0xA6B SWAP2 SWAP1 PUSH3 0x1B1B JUMP JUMPDEST PUSH1 0x40 MLOAD DUP1 SWAP2 SUB SWAP1 REVERT JUMPDEST POP JUMPDEST PUSH1 0x40 MLOAD PUSH32 0x8C379A000000000000000000000000000000000000000000000000000000000 DUP2 MSTORE PUSH1 0x4 ADD PUSH3 0xAAA SWAP1 PUSH3 0x1BB5 JUMP JUMPDEST PUSH1 0x40 MLOAD DUP1 SWAP2 SUB SWAP1 REVERT JUMPDEST PUSH4 0xBC197C81 PUSH1 0xE0 SHL PUSH28 0xFFFFFFFFFFFFFFFFFFFFFFFFFFFFFFFFFFFFFFFFFFFFFFFFFFFFFFFF NOT AND DUP2 PUSH28 0xFFFFFFFFFFFFFFFFFFFFFFFFFFFFFFFFFFFFFFFFFFFFFFFFFFFFFFFF NOT AND EQ PUSH3 0xB3D JUMPI PUSH1 0x40 MLOAD PUSH32 0x8C379A000000000000000000000000000000000000000000000000000000000 DUP2 MSTORE PUSH1 0x4 ADD PUSH3 0xB34 SWAP1 PUSH3 0x1C4D JUMP JUMPDEST PUSH1 0x40 MLOAD DUP1 SWAP2 SUB SWAP1 REVERT JUMPDEST POP JUMPDEST POP POP POP POP POP POP JUMP JUMPDEST PUSH3 0xB68 DUP2 PUSH3 0xB5C PUSH3 0x46C PUSH1 0x20 SHL PUSH1 0x20 SHR JUMP JUMPDEST PUSH3 0xCFF PUSH1 0x20 SHL PUSH1 0x20 SHR JUMP JUMPDEST POP JUMP JUMPDEST DUP2 PUSH20 0xFFFFFFFFFFFFFFFFFFFFFFFFFFFFFFFFFFFFFFFF AND DUP4 PUSH20 0xFFFFFFFFFFFFFFFFFFFFFFFFFFFFFFFFFFFFFFFF AND SUB PUSH3 0xBDC JUMPI PUSH1 0x40 MLOAD PUSH32 0x8C379A000000000000000000000000000000000000000000000000000000000 DUP2 MSTORE PUSH1 0x4 ADD PUSH3 0xBD3 SWAP1 PUSH3 0x1CE5 JUMP JUMPDEST PUSH1 0x40 MLOAD DUP1 SWAP2 SUB SWAP1 REVERT JUMPDEST DUP1 PUSH1 0x3 PUSH1 0x0 DUP6 PUSH20 0xFFFFFFFFFFFFFFFFFFFFFFFFFFFFFFFFFFFFFFFF AND PUSH20 0xFFFFFFFFFFFFFFFFFFFFFFFFFFFFFFFFFFFFFFFF AND DUP2 MSTORE PUSH1 0x20 ADD SWAP1 DUP2 MSTORE PUSH1 0x20 ADD PUSH1 0x0 KECCAK256 PUSH1 0x0 DUP5 PUSH20 0xFFFFFFFFFFFFFFFFFFFFFFFFFFFFFFFFFFFFFFFF AND PUSH20 0xFFFFFFFFFFFFFFFFFFFFFFFFFFFFFFFFFFFFFFFF AND DUP2 MSTORE PUSH1 0x20 ADD SWAP1 DUP2 MSTORE PUSH1 0x20 ADD PUSH1 0x0 KECCAK256 PUSH1 0x0 PUSH2 0x100 EXP DUP2 SLOAD DUP2 PUSH1 0xFF MUL NOT AND SWAP1 DUP4 ISZERO ISZERO MUL OR SWAP1 SSTORE POP DUP2 PUSH20 0xFFFFFFFFFFFFFFFFFFFFFFFFFFFFFFFFFFFFFFFF AND DUP4 PUSH20 0xFFFFFFFFFFFFFFFFFFFFFFFFFFFFFFFFFFFFFFFF AND PUSH32 0x17307EAB39AB6107E8899845AD3D59BD9653F200F220920489CA2B5937696C31 DUP4 PUSH1 0x40 MLOAD PUSH3 0xCCF SWAP2 SWAP1 PUSH3 0x1D24 JUMP JUMPDEST PUSH1 0x40 MLOAD DUP1 SWAP2 SUB SWAP1 LOG3 POP POP POP JUMP JUMPDEST PUSH1 0x0 DUP1 DUP3 PUSH20 0xFFFFFFFFFFFFFFFFFFFFFFFFFFFFFFFFFFFFFFFF AND EXTCODESIZE GT SWAP1 POP SWAP2 SWAP1 POP JUMP JUMPDEST PUSH3 0xD11 DUP3 DUP3 PUSH3 0x8D3 PUSH1 0x20 SHL PUSH1 0x20 SHR JUMP JUMPDEST PUSH3 0xDA7 JUMPI PUSH3 0xD2C DUP2 PUSH3 0xDAB PUSH1 0x20 SHL PUSH3 0x175B OR PUSH1 0x20 SHR JUMP JUMPDEST PUSH3 0xD47 DUP4 PUSH1 0x0 SHR PUSH1 0x20 PUSH3 0xDE0 PUSH1 0x20 SHL PUSH3 0x1788 OR PUSH1 0x20 SHR JUMP JUMPDEST PUSH1 0x40 MLOAD PUSH1 0x20 ADD PUSH3 0xD5A SWAP3 SWAP2 SWAP1 PUSH3 0x1E23 JUMP JUMPDEST PUSH1 0x40 MLOAD PUSH1 0x20 DUP2 DUP4 SUB SUB DUP2 MSTORE SWAP1 PUSH1 0x40 MSTORE PUSH1 0x40 MLOAD PUSH32 0x8C379A000000000000000000000000000000000000000000000000000000000 DUP2 MSTORE PUSH1 0x4 ADD PUSH3 0xD9E SWAP2 SWAP1 PUSH3 0x1B1B JUMP JUMPDEST PUSH1 0x40 MLOAD DUP1 SWAP2 SUB SWAP1 REVERT JUMPDEST POP POP JUMP JUMPDEST PUSH1 0x60 PUSH3 0xDD9 DUP3 PUSH20 0xFFFFFFFFFFFFFFFFFFFFFFFFFFFFFFFFFFFFFFFF AND PUSH1 0x14 PUSH1 0xFF AND PUSH3 0xDE0 PUSH1 0x20 SHL PUSH1 0x20 SHR JUMP JUMPDEST SWAP1 POP SWAP2 SWAP1 POP JUMP JUMPDEST PUSH1 0x60 PUSH1 0x0 PUSH1 0x2 DUP4 PUSH1 0x2 PUSH3 0xDF5 SWAP2 SWAP1 PUSH3 0x1E65 JUMP JUMPDEST PUSH3 0xE01 SWAP2 SWAP1 PUSH3 0x16AA JUMP JUMPDEST PUSH8 0xFFFFFFFFFFFFFFFF DUP2 GT ISZERO PUSH3 0xE1D JUMPI PUSH3 0xE1C PUSH3 0x11F7 JUMP JUMPDEST JUMPDEST PUSH1 0x40 MLOAD SWAP1 DUP1 DUP3 MSTORE DUP1 PUSH1 0x1F ADD PUSH1 0x1F NOT AND PUSH1 0x20 ADD DUP3 ADD PUSH1 0x40 MSTORE DUP1 ISZERO PUSH3 0xE50 JUMPI DUP2 PUSH1 0x20 ADD PUSH1 0x1 DUP3 MUL DUP1 CALLDATASIZE DUP4 CALLDATACOPY DUP1 DUP3 ADD SWAP2 POP POP SWAP1 POP JUMPDEST POP SWAP1 POP PUSH32 0x3000000000000000000000000000000000000000000000000000000000000000 DUP2 PUSH1 0x0 DUP2 MLOAD DUP2 LT PUSH3 0xE8B JUMPI PUSH3 0xE8A PUSH3 0x167B JUMP JUMPDEST JUMPDEST PUSH1 0x20 ADD ADD SWAP1 PUSH31 0xFFFFFFFFFFFFFFFFFFFFFFFFFFFFFFFFFFFFFFFFFFFFFFFFFFFFFFFFFFFFFF NOT AND SWAP1 DUP2 PUSH1 0x0 BYTE SWAP1 MSTORE8 POP PUSH32 0x7800000000000000000000000000000000000000000000000000000000000000 DUP2 PUSH1 0x1 DUP2 MLOAD DUP2 LT PUSH3 0xEF2 JUMPI PUSH3 0xEF1 PUSH3 0x167B JUMP JUMPDEST JUMPDEST PUSH1 0x20 ADD ADD SWAP1 PUSH31 0xFFFFFFFFFFFFFFFFFFFFFFFFFFFFFFFFFFFFFFFFFFFFFFFFFFFFFFFFFFFFFF NOT AND SWAP1 DUP2 PUSH1 0x0 BYTE SWAP1 MSTORE8 POP PUSH1 0x0 PUSH1 0x1 DUP5 PUSH1 0x2 PUSH3 0xF34 SWAP2 SWAP1 PUSH3 0x1E65 JUMP JUMPDEST PUSH3 0xF40 SWAP2 SWAP1 PUSH3 0x16AA JUMP JUMPDEST SWAP1 POP JUMPDEST PUSH1 0x1 DUP2 GT ISZERO PUSH3 0xFEA JUMPI PUSH32 0x3031323334353637383961626364656600000000000000000000000000000000 PUSH1 0xF DUP7 AND PUSH1 0x10 DUP2 LT PUSH3 0xF86 JUMPI PUSH3 0xF85 PUSH3 0x167B JUMP JUMPDEST JUMPDEST BYTE PUSH1 0xF8 SHL DUP3 DUP3 DUP2 MLOAD DUP2 LT PUSH3 0xFA0 JUMPI PUSH3 0xF9F PUSH3 0x167B JUMP JUMPDEST JUMPDEST PUSH1 0x20 ADD ADD SWAP1 PUSH31 0xFFFFFFFFFFFFFFFFFFFFFFFFFFFFFFFFFFFFFFFFFFFFFFFFFFFFFFFFFFFFFF NOT AND SWAP1 DUP2 PUSH1 0x0 BYTE SWAP1 MSTORE8 POP PUSH1 0x4 DUP6 SWAP1 SHR SWAP5 POP DUP1 PUSH3 0xFE2 SWAP1 PUSH3 0x1EC6 JUMP JUMPDEST SWAP1 POP PUSH3 0xF43 JUMP JUMPDEST POP PUSH1 0x0 DUP5 EQ PUSH3 0x1031 JUMPI PUSH1 0x40 MLOAD PUSH32 0x8C379A000000000000000000000000000000000000000000000000000000000 DUP2 MSTORE PUSH1 0x4 ADD PUSH3 0x1028 SWAP1 PUSH3 0x1F44 JUMP JUMPDEST PUSH1 0x40 MLOAD DUP1 SWAP2 SUB SWAP1 REVERT JUMPDEST DUP1 SWAP2 POP POP SWAP3 SWAP2 POP POP JUMP JUMPDEST DUP3 DUP1 SLOAD PUSH3 0x1049 SWAP1 PUSH3 0x1F95 JUMP JUMPDEST SWAP1 PUSH1 0x0 MSTORE PUSH1 0x20 PUSH1 0x0 KECCAK256 SWAP1 PUSH1 0x1F ADD PUSH1 0x20 SWAP1 DIV DUP2 ADD SWAP3 DUP3 PUSH3 0x106D JUMPI PUSH1 0x0 DUP6 SSTORE PUSH3 0x10B9 JUMP JUMPDEST DUP3 PUSH1 0x1F LT PUSH3 0x1088 JUMPI DUP1 MLOAD PUSH1 0xFF NOT AND DUP4 DUP1 ADD OR DUP6 SSTORE PUSH3 0x10B9 JUMP JUMPDEST DUP3 DUP1 ADD PUSH1 0x1 ADD DUP6 SSTORE DUP3 ISZERO PUSH3 0x10B9 JUMPI SWAP2 DUP3 ADD JUMPDEST DUP3 DUP2 GT ISZERO PUSH3 0x10B8 JUMPI DUP3 MLOAD DUP3 SSTORE SWAP2 PUSH1 0x20 ADD SWAP2 SWAP1 PUSH1 0x1 ADD SWAP1 PUSH3 0x109B JUMP JUMPDEST JUMPDEST POP SWAP1 POP PUSH3 0x10C8 SWAP2 SWAP1 PUSH3 0x10CC JUMP JUMPDEST POP SWAP1 JUMP JUMPDEST JUMPDEST DUP1 DUP3 GT ISZERO PUSH3 0x10E7 JUMPI PUSH1 0x0 DUP2 PUSH1 0x0 SWAP1 SSTORE POP PUSH1 0x1 ADD PUSH3 0x10CD JUMP JUMPDEST POP SWAP1 JUMP JUMPDEST PUSH1 0x0 PUSH1 0x40 MLOAD SWAP1 POP SWAP1 JUMP JUMPDEST PUSH1 0x0 DUP1 REVERT JUMPDEST PUSH1 0x0 DUP1 REVERT JUMPDEST PUSH1 0x0 PUSH20 0xFFFFFFFFFFFFFFFFFFFFFFFFFFFFFFFFFFFFFFFF DUP3 AND SWAP1 POP SWAP2 SWAP1 POP JUMP JUMPDEST PUSH1 0x0 PUSH3 0x112C DUP3 PUSH3 0x10FF JUMP JUMPDEST SWAP1 POP SWAP2 SWAP1 POP JUMP JUMPDEST PUSH3 0x113E DUP2 PUSH3 0x111F JUMP JUMPDEST DUP2 EQ PUSH3 0x114A JUMPI PUSH1 0x0 DUP1 REVERT JUMPDEST POP JUMP JUMPDEST PUSH1 0x0 DUP2 MLOAD SWAP1 POP PUSH3 0x115E DUP2 PUSH3 0x1133 JUMP JUMPDEST SWAP3 SWAP2 POP POP JUMP JUMPDEST PUSH1 0x0 PUSH1 0xFF DUP3 AND SWAP1 POP SWAP2 SWAP1 POP JUMP JUMPDEST PUSH3 0x117C DUP2 PUSH3 0x1164 JUMP JUMPDEST DUP2 EQ PUSH3 0x1188 JUMPI PUSH1 0x0 DUP1 REVERT JUMPDEST POP JUMP JUMPDEST PUSH1 0x0 DUP2 MLOAD SWAP1 POP PUSH3 0x119C DUP2 PUSH3 0x1171 JUMP JUMPDEST SWAP3 SWAP2 POP POP JUMP JUMPDEST PUSH1 0x0 PUSH2 0xFFFF DUP3 AND SWAP1 POP SWAP2 SWAP1 POP JUMP JUMPDEST PUSH3 0x11BB DUP2 PUSH3 0x11A2 JUMP JUMPDEST DUP2 EQ PUSH3 0x11C7 JUMPI PUSH1 0x0 DUP1 REVERT JUMPDEST POP JUMP JUMPDEST PUSH1 0x0 DUP2 MLOAD SWAP1 POP PUSH3 0x11DB DUP2 PUSH3 0x11B0 JUMP JUMPDEST SWAP3 SWAP2 POP POP JUMP JUMPDEST PUSH1 0x0 DUP1 REVERT JUMPDEST PUSH1 0x0 PUSH1 0x1F NOT PUSH1 0x1F DUP4 ADD AND SWAP1 POP SWAP2 SWAP1 POP JUMP JUMPDEST PUSH32 0x4E487B7100000000000000000000000000000000000000000000000000000000 PUSH1 0x0 MSTORE PUSH1 0x41 PUSH1 0x4 MSTORE PUSH1 0x24 PUSH1 0x0 REVERT JUMPDEST PUSH3 0x1231 DUP3 PUSH3 0x11E6 JUMP JUMPDEST DUP2 ADD DUP2 DUP2 LT PUSH8 0xFFFFFFFFFFFFFFFF DUP3 GT OR ISZERO PUSH3 0x1253 JUMPI PUSH3 0x1252 PUSH3 0x11F7 JUMP JUMPDEST JUMPDEST DUP1 PUSH1 0x40 MSTORE POP POP POP JUMP JUMPDEST PUSH1 0x0 PUSH3 0x1268 PUSH3 0x10EB JUMP JUMPDEST SWAP1 POP PUSH3 0x1276 DUP3 DUP3 PUSH3 0x1226 JUMP JUMPDEST SWAP2 SWAP1 POP JUMP JUMPDEST PUSH1 0x0 PUSH8 0xFFFFFFFFFFFFFFFF DUP3 GT ISZERO PUSH3 0x1299 JUMPI PUSH3 0x1298 PUSH3 0x11F7 JUMP JUMPDEST JUMPDEST PUSH1 0x20 DUP3 MUL SWAP1 POP PUSH1 0x20 DUP2 ADD SWAP1 POP SWAP2 SWAP1 POP JUMP JUMPDEST PUSH1 0x0 DUP1 REVERT JUMPDEST PUSH1 0x0 DUP2 SWAP1 POP SWAP2 SWAP1 POP JUMP JUMPDEST PUSH3 0x12C4 DUP2 PUSH3 0x12AF JUMP JUMPDEST DUP2 EQ PUSH3 0x12D0 JUMPI PUSH1 0x0 DUP1 REVERT JUMPDEST POP JUMP JUMPDEST PUSH1 0x0 DUP2 MLOAD SWAP1 POP PUSH3 0x12E4 DUP2 PUSH3 0x12B9 JUMP JUMPDEST SWAP3 SWAP2 POP POP JUMP JUMPDEST PUSH1 0x0 PUSH3 0x1301 PUSH3 0x12FB DUP5 PUSH3 0x127B JUMP JUMPDEST PUSH3 0x125C JUMP JUMPDEST SWAP1 POP DUP1 DUP4 DUP3 MSTORE PUSH1 0x20 DUP3 ADD SWAP1 POP PUSH1 0x20 DUP5 MUL DUP4 ADD DUP6 DUP2 GT ISZERO PUSH3 0x1327 JUMPI PUSH3 0x1326 PUSH3 0x12AA JUMP JUMPDEST JUMPDEST DUP4 JUMPDEST DUP2 DUP2 LT ISZERO PUSH3 0x1354 JUMPI DUP1 PUSH3 0x133F DUP9 DUP3 PUSH3 0x12D3 JUMP JUMPDEST DUP5 MSTORE PUSH1 0x20 DUP5 ADD SWAP4 POP POP PUSH1 0x20 DUP2 ADD SWAP1 POP PUSH3 0x1329 JUMP JUMPDEST POP POP POP SWAP4 SWAP3 POP POP POP JUMP JUMPDEST PUSH1 0x0 DUP3 PUSH1 0x1F DUP4 ADD SLT PUSH3 0x1376 JUMPI PUSH3 0x1375 PUSH3 0x11E1 JUMP JUMPDEST JUMPDEST DUP2 MLOAD PUSH3 0x1388 DUP5 DUP3 PUSH1 0x20 DUP7 ADD PUSH3 0x12EA JUMP JUMPDEST SWAP2 POP POP SWAP3 SWAP2 POP POP JUMP JUMPDEST PUSH1 0x0 DUP1 PUSH1 0x0 DUP1 PUSH1 0x0 DUP1 PUSH1 0x0 DUP1 PUSH1 0x0 PUSH2 0x120 DUP11 DUP13 SUB SLT ISZERO PUSH3 0x13B7 JUMPI PUSH3 0x13B6 PUSH3 0x10F5 JUMP JUMPDEST JUMPDEST PUSH1 0x0 PUSH3 0x13C7 DUP13 DUP3 DUP14 ADD PUSH3 0x114D JUMP JUMPDEST SWAP10 POP POP PUSH1 0x20 PUSH3 0x13DA DUP13 DUP3 DUP14 ADD PUSH3 0x114D JUMP JUMPDEST SWAP9 POP POP PUSH1 0x40 PUSH3 0x13ED DUP13 DUP3 DUP14 ADD PUSH3 0x118B JUMP JUMPDEST SWAP8 POP POP PUSH1 0x60 PUSH3 0x1400 DUP13 DUP3 DUP14 ADD PUSH3 0x118B JUMP JUMPDEST SWAP7 POP POP PUSH1 0x80 PUSH3 0x1413 DUP13 DUP3 DUP14 ADD PUSH3 0x11CA JUMP JUMPDEST SWAP6 POP POP PUSH1 0xA0 PUSH3 0x1426 DUP13 DUP3 DUP14 ADD PUSH3 0x11CA JUMP JUMPDEST SWAP5 POP POP PUSH1 0xC0 PUSH3 0x1439 DUP13 DUP3 DUP14 ADD PUSH3 0x118B JUMP JUMPDEST SWAP4 POP POP PUSH1 0xE0 DUP11 ADD MLOAD PUSH8 0xFFFFFFFFFFFFFFFF DUP2 GT ISZERO PUSH3 0x145D JUMPI PUSH3 0x145C PUSH3 0x10FA JUMP JUMPDEST JUMPDEST PUSH3 0x146B DUP13 DUP3 DUP14 ADD PUSH3 0x135E JUMP JUMPDEST SWAP3 POP POP PUSH2 0x100 DUP11 ADD MLOAD PUSH8 0xFFFFFFFFFFFFFFFF DUP2 GT ISZERO PUSH3 0x1490 JUMPI PUSH3 0x148F PUSH3 0x10FA JUMP JUMPDEST JUMPDEST PUSH3 0x149E DUP13 DUP3 DUP14 ADD PUSH3 0x135E JUMP JUMPDEST SWAP2 POP POP SWAP3 SWAP6 SWAP9 POP SWAP3 SWAP6 SWAP9 POP SWAP3 SWAP6 SWAP9 JUMP JUMPDEST PUSH32 0x4E487B7100000000000000000000000000000000000000000000000000000000 PUSH1 0x0 MSTORE PUSH1 0x21 PUSH1 0x4 MSTORE PUSH1 0x24 PUSH1 0x0 REVERT JUMPDEST PUSH32 0x4E487B7100000000000000000000000000000000000000000000000000000000 PUSH1 0x0 MSTORE PUSH1 0x11 PUSH1 0x4 MSTORE PUSH1 0x24 PUSH1 0x0 REVERT JUMPDEST PUSH1 0x0 PUSH3 0x1519 DUP3 PUSH3 0x1164 JUMP JUMPDEST SWAP2 POP PUSH1 0xFF DUP3 SUB PUSH3 0x152F JUMPI PUSH3 0x152E PUSH3 0x14DD JUMP JUMPDEST JUMPDEST PUSH1 0x1 DUP3 ADD SWAP1 POP SWAP2 SWAP1 POP JUMP JUMPDEST PUSH1 0x0 DUP3 DUP3 MSTORE PUSH1 0x20 DUP3 ADD SWAP1 POP SWAP3 SWAP2 POP POP JUMP JUMPDEST PUSH32 0x455243313135353A206D696E7420746F20746865207A65726F20616464726573 PUSH1 0x0 DUP3 ADD MSTORE PUSH32 0x7300000000000000000000000000000000000000000000000000000000000000 PUSH1 0x20 DUP3 ADD MSTORE POP JUMP JUMPDEST PUSH1 0x0 PUSH3 0x15A9 PUSH1 0x21 DUP4 PUSH3 0x153A JUMP JUMPDEST SWAP2 POP PUSH3 0x15B6 DUP3 PUSH3 0x154B JUMP JUMPDEST PUSH1 0x40 DUP3 ADD SWAP1 POP SWAP2 SWAP1 POP JUMP JUMPDEST PUSH1 0x0 PUSH1 0x20 DUP3 ADD SWAP1 POP DUP2 DUP2 SUB PUSH1 0x0 DUP4 ADD MSTORE PUSH3 0x15DC DUP2 PUSH3 0x159A JUMP JUMPDEST SWAP1 POP SWAP2 SWAP1 POP JUMP JUMPDEST PUSH32 0x455243313135353A2069647320616E6420616D6F756E7473206C656E67746820 PUSH1 0x0 DUP3 ADD MSTORE PUSH32 0x6D69736D61746368000000000000000000000000000000000000000000000000 PUSH1 0x20 DUP3 ADD MSTORE POP JUMP JUMPDEST PUSH1 0x0 PUSH3 0x1641 PUSH1 0x28 DUP4 PUSH3 0x153A JUMP JUMPDEST SWAP2 POP PUSH3 0x164E DUP3 PUSH3 0x15E3 JUMP JUMPDEST PUSH1 0x40 DUP3 ADD SWAP1 POP SWAP2 SWAP1 POP JUMP JUMPDEST PUSH1 0x0 PUSH1 0x20 DUP3 ADD SWAP1 POP DUP2 DUP2 SUB PUSH1 0x0 DUP4 ADD MSTORE PUSH3 0x1674 DUP2 PUSH3 0x1632 JUMP JUMPDEST SWAP1 POP SWAP2 SWAP1 POP JUMP JUMPDEST PUSH32 0x4E487B7100000000000000000000000000000000000000000000000000000000 PUSH1 0x0 MSTORE PUSH1 0x32 PUSH1 0x4 MSTORE PUSH1 0x24 PUSH1 0x0 REVERT JUMPDEST PUSH1 0x0 PUSH3 0x16B7 DUP3 PUSH3 0x12AF JUMP JUMPDEST SWAP2 POP PUSH3 0x16C4 DUP4 PUSH3 0x12AF JUMP JUMPDEST SWAP3 POP DUP3 PUSH32 0xFFFFFFFFFFFFFFFFFFFFFFFFFFFFFFFFFFFFFFFFFFFFFFFFFFFFFFFFFFFFFFFF SUB DUP3 GT ISZERO PUSH3 0x16FC JUMPI PUSH3 0x16FB PUSH3 0x14DD JUMP JUMPDEST JUMPDEST DUP3 DUP3 ADD SWAP1 POP SWAP3 SWAP2 POP POP JUMP JUMPDEST PUSH1 0x0 PUSH3 0x1714 DUP3 PUSH3 0x12AF JUMP JUMPDEST SWAP2 POP PUSH32 0xFFFFFFFFFFFFFFFFFFFFFFFFFFFFFFFFFFFFFFFFFFFFFFFFFFFFFFFFFFFFFFFF DUP3 SUB PUSH3 0x1749 JUMPI PUSH3 0x1748 PUSH3 0x14DD JUMP JUMPDEST JUMPDEST PUSH1 0x1 DUP3 ADD SWAP1 POP SWAP2 SWAP1 POP JUMP JUMPDEST PUSH1 0x0 DUP2 MLOAD SWAP1 POP SWAP2 SWAP1 POP JUMP JUMPDEST PUSH1 0x0 DUP3 DUP3 MSTORE PUSH1 0x20 DUP3 ADD SWAP1 POP SWAP3 SWAP2 POP POP JUMP JUMPDEST PUSH1 0x0 DUP2 SWAP1 POP PUSH1 0x20 DUP3 ADD SWAP1 POP SWAP2 SWAP1 POP JUMP JUMPDEST PUSH3 0x178B DUP2 PUSH3 0x12AF JUMP JUMPDEST DUP3 MSTORE POP POP JUMP JUMPDEST PUSH1 0x0 PUSH3 0x179F DUP4 DUP4 PUSH3 0x1780 JUMP JUMPDEST PUSH1 0x20 DUP4 ADD SWAP1 POP SWAP3 SWAP2 POP POP JUMP JUMPDEST PUSH1 0x0 PUSH1 0x20 DUP3 ADD SWAP1 POP SWAP2 SWAP1 POP JUMP JUMPDEST PUSH1 0x0 PUSH3 0x17C5 DUP3 PUSH3 0x1754 JUMP JUMPDEST PUSH3 0x17D1 DUP2 DUP6 PUSH3 0x175F JUMP JUMPDEST SWAP4 POP PUSH3 0x17DE DUP4 PUSH3 0x1770 JUMP JUMPDEST DUP1 PUSH1 0x0 JUMPDEST DUP4 DUP2 LT ISZERO PUSH3 0x1815 JUMPI DUP2 MLOAD PUSH3 0x17F9 DUP9 DUP3 PUSH3 0x1791 JUMP JUMPDEST SWAP8 POP PUSH3 0x1806 DUP4 PUSH3 0x17AB JUMP JUMPDEST SWAP3 POP POP PUSH1 0x1 DUP2 ADD SWAP1 POP PUSH3 0x17E2 JUMP JUMPDEST POP DUP6 SWAP4 POP POP POP POP SWAP3 SWAP2 POP POP JUMP JUMPDEST PUSH1 0x0 PUSH1 0x40 DUP3 ADD SWAP1 POP DUP2 DUP2 SUB PUSH1 0x0 DUP4 ADD MSTORE PUSH3 0x183E DUP2 DUP6 PUSH3 0x17B8 JUMP JUMPDEST SWAP1 POP DUP2 DUP2 SUB PUSH1 0x20 DUP4 ADD MSTORE PUSH3 0x1854 DUP2 DUP5 PUSH3 0x17B8 JUMP JUMPDEST SWAP1 POP SWAP4 SWAP3 POP POP POP JUMP JUMPDEST PUSH3 0x1868 DUP2 PUSH3 0x111F JUMP JUMPDEST DUP3 MSTORE POP POP JUMP JUMPDEST PUSH1 0x0 DUP2 MLOAD SWAP1 POP SWAP2 SWAP1 POP JUMP JUMPDEST PUSH1 0x0 DUP3 DUP3 MSTORE PUSH1 0x20 DUP3 ADD SWAP1 POP SWAP3 SWAP2 POP POP JUMP JUMPDEST PUSH1 0x0 JUMPDEST DUP4 DUP2 LT ISZERO PUSH3 0x18AA JUMPI DUP1 DUP3 ADD MLOAD DUP2 DUP5 ADD MSTORE PUSH1 0x20 DUP2 ADD SWAP1 POP PUSH3 0x188D JUMP JUMPDEST DUP4 DUP2 GT ISZERO PUSH3 0x18BA JUMPI PUSH1 0x0 DUP5 DUP5 ADD MSTORE JUMPDEST POP POP POP POP JUMP JUMPDEST PUSH1 0x0 PUSH3 0x18CD DUP3 PUSH3 0x186E JUMP JUMPDEST PUSH3 0x18D9 DUP2 DUP6 PUSH3 0x1879 JUMP JUMPDEST SWAP4 POP PUSH3 0x18EB DUP2 DUP6 PUSH1 0x20 DUP7 ADD PUSH3 0x188A JUMP JUMPDEST PUSH3 0x18F6 DUP2 PUSH3 0x11E6 JUMP JUMPDEST DUP5 ADD SWAP2 POP POP SWAP3 SWAP2 POP POP JUMP JUMPDEST PUSH1 0x0 PUSH1 0xA0 DUP3 ADD SWAP1 POP PUSH3 0x1918 PUSH1 0x0 DUP4 ADD DUP9 PUSH3 0x185D JUMP JUMPDEST PUSH3 0x1927 PUSH1 0x20 DUP4 ADD DUP8 PUSH3 0x185D JUMP JUMPDEST DUP2 DUP2 SUB PUSH1 0x40 DUP4 ADD MSTORE PUSH3 0x193B DUP2 DUP7 PUSH3 0x17B8 JUMP JUMPDEST SWAP1 POP DUP2 DUP2 SUB PUSH1 0x60 DUP4 ADD MSTORE PUSH3 0x1951 DUP2 DUP6 PUSH3 0x17B8 JUMP JUMPDEST SWAP1 POP DUP2 DUP2 SUB PUSH1 0x80 DUP4 ADD MSTORE PUSH3 0x1967 DUP2 DUP5 PUSH3 0x18C0 JUMP JUMPDEST SWAP1 POP SWAP7 SWAP6 POP POP POP POP POP POP JUMP JUMPDEST PUSH1 0x0 PUSH32 0xFFFFFFFF00000000000000000000000000000000000000000000000000000000 DUP3 AND SWAP1 POP SWAP2 SWAP1 POP JUMP JUMPDEST PUSH3 0x19AA DUP2 PUSH3 0x1973 JUMP JUMPDEST DUP2 EQ PUSH3 0x19B6 JUMPI PUSH1 0x0 DUP1 REVERT JUMPDEST POP JUMP JUMPDEST PUSH1 0x0 DUP2 MLOAD SWAP1 POP PUSH3 0x19CA DUP2 PUSH3 0x199F JUMP JUMPDEST SWAP3 SWAP2 POP POP JUMP JUMPDEST PUSH1 0x0 PUSH1 0x20 DUP3 DUP5 SUB SLT ISZERO PUSH3 0x19E9 JUMPI PUSH3 0x19E8 PUSH3 0x10F5 JUMP JUMPDEST JUMPDEST PUSH1 0x0 PUSH3 0x19F9 DUP5 DUP3 DUP6 ADD PUSH3 0x19B9 JUMP JUMPDEST SWAP2 POP POP SWAP3 SWAP2 POP POP JUMP JUMPDEST PUSH1 0x0 DUP2 PUSH1 0xE0 SHR SWAP1 POP SWAP2 SWAP1 POP JUMP JUMPDEST PUSH1 0x0 PUSH1 0x3 RETURNDATASIZE GT ISZERO PUSH3 0x1A31 JUMPI PUSH1 0x4 PUSH1 0x0 DUP1 RETURNDATACOPY PUSH3 0x1A2E PUSH1 0x0 MLOAD PUSH3 0x1A02 JUMP JUMPDEST SWAP1 POP JUMPDEST SWAP1 JUMP JUMPDEST PUSH1 0x0 PUSH1 0x44 RETURNDATASIZE LT PUSH3 0x1ACC JUMPI PUSH3 0x1A49 PUSH3 0x10EB JUMP JUMPDEST PUSH1 0x4 RETURNDATASIZE SUB PUSH1 0x4 DUP3 RETURNDATACOPY DUP1 MLOAD RETURNDATASIZE PUSH1 0x24 DUP3 ADD GT PUSH8 0xFFFFFFFFFFFFFFFF DUP3 GT OR ISZERO PUSH3 0x1A73 JUMPI POP POP PUSH3 0x1ACC JUMP JUMPDEST DUP1 DUP3 ADD DUP1 MLOAD PUSH8 0xFFFFFFFFFFFFFFFF DUP2 GT ISZERO PUSH3 0x1A93 JUMPI POP POP POP POP PUSH3 0x1ACC JUMP JUMPDEST DUP1 PUSH1 0x20 DUP4 ADD ADD PUSH1 0x4 RETURNDATASIZE SUB DUP6 ADD DUP2 GT ISZERO PUSH3 0x1AB2 JUMPI POP POP POP POP POP PUSH3 0x1ACC JUMP JUMPDEST PUSH3 0x1AC3 DUP3 PUSH1 0x20 ADD DUP6 ADD DUP7 PUSH3 0x1226 JUMP JUMPDEST DUP3 SWAP6 POP POP POP POP POP POP JUMPDEST SWAP1 JUMP JUMPDEST PUSH1 0x0 DUP2 MLOAD SWAP1 POP SWAP2 SWAP1 POP JUMP JUMPDEST PUSH1 0x0 PUSH3 0x1AE7 DUP3 PUSH3 0x1ACF JUMP JUMPDEST PUSH3 0x1AF3 DUP2 DUP6 PUSH3 0x153A JUMP JUMPDEST SWAP4 POP PUSH3 0x1B05 DUP2 DUP6 PUSH1 0x20 DUP7 ADD PUSH3 0x188A JUMP JUMPDEST PUSH3 0x1B10 DUP2 PUSH3 0x11E6 JUMP JUMPDEST DUP5 ADD SWAP2 POP POP SWAP3 SWAP2 POP POP JUMP JUMPDEST PUSH1 0x0 PUSH1 0x20 DUP3 ADD SWAP1 POP DUP2 DUP2 SUB PUSH1 0x0 DUP4 ADD MSTORE PUSH3 0x1B37 DUP2 DUP5 PUSH3 0x1ADA JUMP JUMPDEST SWAP1 POP SWAP3 SWAP2 POP POP JUMP JUMPDEST PUSH32 0x455243313135353A207472616E7366657220746F206E6F6E2D45524331313535 PUSH1 0x0 DUP3 ADD MSTORE PUSH32 0x526563656976657220696D706C656D656E746572000000000000000000000000 PUSH1 0x20 DUP3 ADD MSTORE POP JUMP JUMPDEST PUSH1 0x0 PUSH3 0x1B9D PUSH1 0x34 DUP4 PUSH3 0x153A JUMP JUMPDEST SWAP2 POP PUSH3 0x1BAA DUP3 PUSH3 0x1B3F JUMP JUMPDEST PUSH1 0x40 DUP3 ADD SWAP1 POP SWAP2 SWAP1 POP JUMP JUMPDEST PUSH1 0x0 PUSH1 0x20 DUP3 ADD SWAP1 POP DUP2 DUP2 SUB PUSH1 0x0 DUP4 ADD MSTORE PUSH3 0x1BD0 DUP2 PUSH3 0x1B8E JUMP JUMPDEST SWAP1 POP SWAP2 SWAP1 POP JUMP JUMPDEST PUSH32 0x455243313135353A204552433131353552656365697665722072656A65637465 PUSH1 0x0 DUP3 ADD MSTORE PUSH32 0x6420746F6B656E73000000000000000000000000000000000000000000000000 PUSH1 0x20 DUP3 ADD MSTORE POP JUMP JUMPDEST PUSH1 0x0 PUSH3 0x1C35 PUSH1 0x28 DUP4 PUSH3 0x153A JUMP JUMPDEST SWAP2 POP PUSH3 0x1C42 DUP3 PUSH3 0x1BD7 JUMP JUMPDEST PUSH1 0x40 DUP3 ADD SWAP1 POP SWAP2 SWAP1 POP JUMP JUMPDEST PUSH1 0x0 PUSH1 0x20 DUP3 ADD SWAP1 POP DUP2 DUP2 SUB PUSH1 0x0 DUP4 ADD MSTORE PUSH3 0x1C68 DUP2 PUSH3 0x1C26 JUMP JUMPDEST SWAP1 POP SWAP2 SWAP1 POP JUMP JUMPDEST PUSH32 0x455243313135353A2073657474696E6720617070726F76616C20737461747573 PUSH1 0x0 DUP3 ADD MSTORE PUSH32 0x20666F722073656C660000000000000000000000000000000000000000000000 PUSH1 0x20 DUP3 ADD MSTORE POP JUMP JUMPDEST PUSH1 0x0 PUSH3 0x1CCD PUSH1 0x29 DUP4 PUSH3 0x153A JUMP JUMPDEST SWAP2 POP PUSH3 0x1CDA DUP3 PUSH3 0x1C6F JUMP JUMPDEST PUSH1 0x40 DUP3 ADD SWAP1 POP SWAP2 SWAP1 POP JUMP JUMPDEST PUSH1 0x0 PUSH1 0x20 DUP3 ADD SWAP1 POP DUP2 DUP2 SUB PUSH1 0x0 DUP4 ADD MSTORE PUSH3 0x1D00 DUP2 PUSH3 0x1CBE JUMP JUMPDEST SWAP1 POP SWAP2 SWAP1 POP JUMP JUMPDEST PUSH1 0x0 DUP2 ISZERO ISZERO SWAP1 POP SWAP2 SWAP1 POP JUMP JUMPDEST PUSH3 0x1D1E DUP2 PUSH3 0x1D07 JUMP JUMPDEST DUP3 MSTORE POP POP JUMP JUMPDEST PUSH1 0x0 PUSH1 0x20 DUP3 ADD SWAP1 POP PUSH3 0x1D3B PUSH1 0x0 DUP4 ADD DUP5 PUSH3 0x1D13 JUMP JUMPDEST SWAP3 SWAP2 POP POP JUMP JUMPDEST PUSH1 0x0 DUP2 SWAP1 POP SWAP3 SWAP2 POP POP JUMP JUMPDEST PUSH32 0x416363657373436F6E74726F6C3A206163636F756E7420000000000000000000 PUSH1 0x0 DUP3 ADD MSTORE POP JUMP JUMPDEST PUSH1 0x0 PUSH3 0x1D84 PUSH1 0x17 DUP4 PUSH3 0x1D41 JUMP JUMPDEST SWAP2 POP PUSH3 0x1D91 DUP3 PUSH3 0x1D4C JUMP JUMPDEST PUSH1 0x17 DUP3 ADD SWAP1 POP SWAP2 SWAP1 POP JUMP JUMPDEST PUSH1 0x0 PUSH3 0x1DA9 DUP3 PUSH3 0x1ACF JUMP JUMPDEST PUSH3 0x1DB5 DUP2 DUP6 PUSH3 0x1D41 JUMP JUMPDEST SWAP4 POP PUSH3 0x1DC7 DUP2 DUP6 PUSH1 0x20 DUP7 ADD PUSH3 0x188A JUMP JUMPDEST DUP1 DUP5 ADD SWAP2 POP POP SWAP3 SWAP2 POP POP JUMP JUMPDEST PUSH32 0x206973206D697373696E6720726F6C6520000000000000000000000000000000 PUSH1 0x0 DUP3 ADD MSTORE POP JUMP JUMPDEST PUSH1 0x0 PUSH3 0x1E0B PUSH1 0x11 DUP4 PUSH3 0x1D41 JUMP JUMPDEST SWAP2 POP PUSH3 0x1E18 DUP3 PUSH3 0x1DD3 JUMP JUMPDEST PUSH1 0x11 DUP3 ADD SWAP1 POP SWAP2 SWAP1 POP JUMP JUMPDEST PUSH1 0x0 PUSH3 0x1E30 DUP3 PUSH3 0x1D75 JUMP JUMPDEST SWAP2 POP PUSH3 0x1E3E DUP3 DUP6 PUSH3 0x1D9C JUMP JUMPDEST SWAP2 POP PUSH3 0x1E4B DUP3 PUSH3 0x1DFC JUMP JUMPDEST SWAP2 POP PUSH3 0x1E59 DUP3 DUP5 PUSH3 0x1D9C JUMP JUMPDEST SWAP2 POP DUP2 SWAP1 POP SWAP4 SWAP3 POP POP POP JUMP JUMPDEST PUSH1 0x0 PUSH3 0x1E72 DUP3 PUSH3 0x12AF JUMP JUMPDEST SWAP2 POP PUSH3 0x1E7F DUP4 PUSH3 0x12AF JUMP JUMPDEST SWAP3 POP DUP2 PUSH32 0xFFFFFFFFFFFFFFFFFFFFFFFFFFFFFFFFFFFFFFFFFFFFFFFFFFFFFFFFFFFFFFFF DIV DUP4 GT DUP3 ISZERO ISZERO AND ISZERO PUSH3 0x1EBB JUMPI PUSH3 0x1EBA PUSH3 0x14DD JUMP JUMPDEST JUMPDEST DUP3 DUP3 MUL SWAP1 POP SWAP3 SWAP2 POP POP JUMP JUMPDEST PUSH1 0x0 PUSH3 0x1ED3 DUP3 PUSH3 0x12AF JUMP JUMPDEST SWAP2 POP PUSH1 0x0 DUP3 SUB PUSH3 0x1EE9 JUMPI PUSH3 0x1EE8 PUSH3 0x14DD JUMP JUMPDEST JUMPDEST PUSH1 0x1 DUP3 SUB SWAP1 POP SWAP2 SWAP1 POP JUMP JUMPDEST PUSH32 0x537472696E67733A20686578206C656E67746820696E73756666696369656E74 PUSH1 0x0 DUP3 ADD MSTORE POP JUMP JUMPDEST PUSH1 0x0 PUSH3 0x1F2C PUSH1 0x20 DUP4 PUSH3 0x153A JUMP JUMPDEST SWAP2 POP PUSH3 0x1F39 DUP3 PUSH3 0x1EF4 JUMP JUMPDEST PUSH1 0x20 DUP3 ADD SWAP1 POP SWAP2 SWAP1 POP JUMP JUMPDEST PUSH1 0x0 PUSH1 0x20 DUP3 ADD SWAP1 POP DUP2 DUP2 SUB PUSH1 0x0 DUP4 ADD MSTORE PUSH3 0x1F5F DUP2 PUSH3 0x1F1D JUMP JUMPDEST SWAP1 POP SWAP2 SWAP1 POP JUMP JUMPDEST PUSH32 0x4E487B7100000000000000000000000000000000000000000000000000000000 PUSH1 0x0 MSTORE PUSH1 0x22 PUSH1 0x4 MSTORE PUSH1 0x24 PUSH1 0x0 REVERT JUMPDEST PUSH1 0x0 PUSH1 0x2 DUP3 DIV SWAP1 POP PUSH1 0x1 DUP3 AND DUP1 PUSH3 0x1FAE JUMPI PUSH1 0x7F DUP3 AND SWAP2 POP JUMPDEST PUSH1 0x20 DUP3 LT DUP2 SUB PUSH3 0x1FC4 JUMPI PUSH3 0x1FC3 PUSH3 0x1F66 JUMP JUMPDEST JUMPDEST POP SWAP2 SWAP1 POP JUMP JUMPDEST PUSH1 0x80 MLOAD PUSH2 0x5285 PUSH3 0x2002 PUSH1 0x0 CODECOPY PUSH1 0x0 DUP2 DUP2 PUSH2 0x9F6 ADD MSTORE DUP2 DUP2 PUSH2 0x132E ADD MSTORE DUP2 DUP2 PUSH2 0x13C8 ADD MSTORE DUP2 DUP2 PUSH2 0x151B ADD MSTORE PUSH2 0x20F5 ADD MSTORE PUSH2 0x5285 PUSH1 0x0 RETURN INVALID PUSH1 0x80 PUSH1 0x40 MSTORE CALLVALUE DUP1 ISZERO PUSH2 0x10 JUMPI PUSH1 0x0 DUP1 REVERT JUMPDEST POP PUSH1 0x4 CALLDATASIZE LT PUSH2 0x205 JUMPI PUSH1 0x0 CALLDATALOAD PUSH1 0xE0 SHR DUP1 PUSH4 0x87FEC775 GT PUSH2 0x11A JUMPI DUP1 PUSH4 0xD5391393 GT PUSH2 0xAD JUMPI DUP1 PUSH4 0xEA3994BC GT PUSH2 0x7C JUMPI DUP1 PUSH4 0xEA3994BC EQ PUSH2 0x617 JUMPI DUP1 PUSH4 0xF242432A EQ PUSH2 0x633 JUMPI DUP1 PUSH4 0xF2FDE38B EQ PUSH2 0x64F JUMPI DUP1 PUSH4 0xF5298ACA EQ PUSH2 0x66B JUMPI DUP1 PUSH4 0xFE9EF85F EQ PUSH2 0x687 JUMPI PUSH2 0x205 JUMP JUMPDEST DUP1 PUSH4 0xD5391393 EQ PUSH2 0x57D JUMPI DUP1 PUSH4 0xD547741F EQ PUSH2 0x59B JUMPI DUP1 PUSH4 0xE79EEE5E EQ PUSH2 0x5B7 JUMPI DUP1 PUSH4 0xE985E9C5 EQ PUSH2 0x5E7 JUMPI PUSH2 0x205 JUMP JUMPDEST DUP1 PUSH4 0xA22CB465 GT PUSH2 0xE9 JUMPI DUP1 PUSH4 0xA22CB465 EQ PUSH2 0x4F7 JUMPI DUP1 PUSH4 0xA2689BFD EQ PUSH2 0x513 JUMPI DUP1 PUSH4 0xAEAF9020 EQ PUSH2 0x52F JUMPI DUP1 PUSH4 0xB5B6313F EQ PUSH2 0x55F JUMPI PUSH2 0x205 JUMP JUMPDEST DUP1 PUSH4 0x87FEC775 EQ PUSH2 0x45B JUMPI DUP1 PUSH4 0x8DA5CB5B EQ PUSH2 0x48B JUMPI DUP1 PUSH4 0x91D14854 EQ PUSH2 0x4A9 JUMPI DUP1 PUSH4 0xA217FDDF EQ PUSH2 0x4D9 JUMPI PUSH2 0x205 JUMP JUMPDEST DUP1 PUSH4 0x2F2FF15D GT PUSH2 0x19D JUMPI DUP1 PUSH4 0x44DE240A GT PUSH2 0x16C JUMPI DUP1 PUSH4 0x44DE240A EQ PUSH2 0x3CB JUMPI DUP1 PUSH4 0x4E1273F4 EQ PUSH2 0x3E9 JUMPI DUP1 PUSH4 0x6B20C454 EQ PUSH2 0x419 JUMPI DUP1 PUSH4 0x715018A6 EQ PUSH2 0x435 JUMPI DUP1 PUSH4 0x72961152 EQ PUSH2 0x43F JUMPI PUSH2 0x205 JUMP JUMPDEST DUP1 PUSH4 0x2F2FF15D EQ PUSH2 0x359 JUMPI DUP1 PUSH4 0x30524B6E EQ PUSH2 0x375 JUMPI DUP1 PUSH4 0x36568ABE EQ PUSH2 0x391 JUMPI DUP1 PUSH4 0x3FE3347A EQ PUSH2 0x3AD JUMPI PUSH2 0x205 JUMP JUMPDEST DUP1 PUSH4 0x1B3ACCAC GT PUSH2 0x1D9 JUMPI DUP1 PUSH4 0x1B3ACCAC EQ PUSH2 0x2B8 JUMPI DUP1 PUSH4 0x219A1D77 EQ PUSH2 0x2EF JUMPI DUP1 PUSH4 0x248A9CA3 EQ PUSH2 0x30D JUMPI DUP1 PUSH4 0x2EB2C2D6 EQ PUSH2 0x33D JUMPI PUSH2 0x205 JUMP JUMPDEST DUP1 PUSH3 0xFDD58E EQ PUSH2 0x20A JUMPI DUP1 PUSH4 0x1FFC9A7 EQ PUSH2 0x23A JUMPI DUP1 PUSH4 0xB5A006B EQ PUSH2 0x26A JUMPI DUP1 PUSH4 0xE89341C EQ PUSH2 0x288 JUMPI JUMPDEST PUSH1 0x0 DUP1 REVERT JUMPDEST PUSH2 0x224 PUSH1 0x4 DUP1 CALLDATASIZE SUB DUP2 ADD SWAP1 PUSH2 0x21F SWAP2 SWAP1 PUSH2 0x32F0 JUMP JUMPDEST PUSH2 0x6A5 JUMP JUMPDEST PUSH1 0x40 MLOAD PUSH2 0x231 SWAP2 SWAP1 PUSH2 0x333F JUMP JUMPDEST PUSH1 0x40 MLOAD DUP1 SWAP2 SUB SWAP1 RETURN JUMPDEST PUSH2 0x254 PUSH1 0x4 DUP1 CALLDATASIZE SUB DUP2 ADD SWAP1 PUSH2 0x24F SWAP2 SWAP1 PUSH2 0x33B2 JUMP JUMPDEST PUSH2 0x76E JUMP JUMPDEST PUSH1 0x40 MLOAD PUSH2 0x261 SWAP2 SWAP1 PUSH2 0x33FA JUMP JUMPDEST PUSH1 0x40 MLOAD DUP1 SWAP2 SUB SWAP1 RETURN JUMPDEST PUSH2 0x272 PUSH2 0x780 JUMP JUMPDEST PUSH1 0x40 MLOAD PUSH2 0x27F SWAP2 SWAP1 PUSH2 0x3432 JUMP JUMPDEST PUSH1 0x40 MLOAD DUP1 SWAP2 SUB SWAP1 RETURN JUMPDEST PUSH2 0x2A2 PUSH1 0x4 DUP1 CALLDATASIZE SUB DUP2 ADD SWAP1 PUSH2 0x29D SWAP2 SWAP1 PUSH2 0x344D JUMP JUMPDEST PUSH2 0x794 JUMP JUMPDEST PUSH1 0x40 MLOAD PUSH2 0x2AF SWAP2 SWAP1 PUSH2 0x3513 JUMP JUMPDEST PUSH1 0x40 MLOAD DUP1 SWAP2 SUB SWAP1 RETURN JUMPDEST PUSH2 0x2D2 PUSH1 0x4 DUP1 CALLDATASIZE SUB DUP2 ADD SWAP1 PUSH2 0x2CD SWAP2 SWAP1 PUSH2 0x356E JUMP JUMPDEST PUSH2 0x828 JUMP JUMPDEST PUSH1 0x40 MLOAD PUSH2 0x2E6 SWAP9 SWAP8 SWAP7 SWAP6 SWAP5 SWAP4 SWAP3 SWAP2 SWAP1 PUSH2 0x3688 JUMP JUMPDEST PUSH1 0x40 MLOAD DUP1 SWAP2 SUB SWAP1 RETURN JUMPDEST PUSH2 0x2F7 PUSH2 0x903 JUMP JUMPDEST PUSH1 0x40 MLOAD PUSH2 0x304 SWAP2 SWAP1 PUSH2 0x3706 JUMP JUMPDEST PUSH1 0x40 MLOAD DUP1 SWAP2 SUB SWAP1 RETURN JUMPDEST PUSH2 0x327 PUSH1 0x4 DUP1 CALLDATASIZE SUB DUP2 ADD SWAP1 PUSH2 0x322 SWAP2 SWAP1 PUSH2 0x3757 JUMP JUMPDEST PUSH2 0x912 JUMP JUMPDEST PUSH1 0x40 MLOAD PUSH2 0x334 SWAP2 SWAP1 PUSH2 0x3793 JUMP JUMPDEST PUSH1 0x40 MLOAD DUP1 SWAP2 SUB SWAP1 RETURN JUMPDEST PUSH2 0x357 PUSH1 0x4 DUP1 CALLDATASIZE SUB DUP2 ADD SWAP1 PUSH2 0x352 SWAP2 SWAP1 PUSH2 0x39AB JUMP JUMPDEST PUSH2 0x932 JUMP JUMPDEST STOP JUMPDEST PUSH2 0x373 PUSH1 0x4 DUP1 CALLDATASIZE SUB DUP2 ADD SWAP1 PUSH2 0x36E SWAP2 SWAP1 PUSH2 0x3A7A JUMP JUMPDEST PUSH2 0x9D3 JUMP JUMPDEST STOP JUMPDEST PUSH2 0x38F PUSH1 0x4 DUP1 CALLDATASIZE SUB DUP2 ADD SWAP1 PUSH2 0x38A SWAP2 SWAP1 PUSH2 0x3BB7 JUMP JUMPDEST PUSH2 0x9F4 JUMP JUMPDEST STOP JUMPDEST PUSH2 0x3AB PUSH1 0x4 DUP1 CALLDATASIZE SUB DUP2 ADD SWAP1 PUSH2 0x3A6 SWAP2 SWAP1 PUSH2 0x3A7A JUMP JUMPDEST PUSH2 0xDC0 JUMP JUMPDEST STOP JUMPDEST PUSH2 0x3B5 PUSH2 0xE43 JUMP JUMPDEST PUSH1 0x40 MLOAD PUSH2 0x3C2 SWAP2 SWAP1 PUSH2 0x3CAE JUMP JUMPDEST PUSH1 0x40 MLOAD DUP1 SWAP2 SUB SWAP1 RETURN JUMPDEST PUSH2 0x3D3 PUSH2 0xE56 JUMP JUMPDEST PUSH1 0x40 MLOAD PUSH2 0x3E0 SWAP2 SWAP1 PUSH2 0x3CD8 JUMP JUMPDEST PUSH1 0x40 MLOAD DUP1 SWAP2 SUB SWAP1 RETURN JUMPDEST PUSH2 0x403 PUSH1 0x4 DUP1 CALLDATASIZE SUB DUP2 ADD SWAP1 PUSH2 0x3FE SWAP2 SWAP1 PUSH2 0x3DB6 JUMP JUMPDEST PUSH2 0xE69 JUMP JUMPDEST PUSH1 0x40 MLOAD PUSH2 0x410 SWAP2 SWAP1 PUSH2 0x3EEC JUMP JUMPDEST PUSH1 0x40 MLOAD DUP1 SWAP2 SUB SWAP1 RETURN JUMPDEST PUSH2 0x433 PUSH1 0x4 DUP1 CALLDATASIZE SUB DUP2 ADD SWAP1 PUSH2 0x42E SWAP2 SWAP1 PUSH2 0x3F0E JUMP JUMPDEST PUSH2 0xF82 JUMP JUMPDEST STOP JUMPDEST PUSH2 0x43D PUSH2 0x101F JUMP JUMPDEST STOP JUMPDEST PUSH2 0x459 PUSH1 0x4 DUP1 CALLDATASIZE SUB DUP2 ADD SWAP1 PUSH2 0x454 SWAP2 SWAP1 PUSH2 0x3F99 JUMP JUMPDEST PUSH2 0x1033 JUMP JUMPDEST STOP JUMPDEST PUSH2 0x475 PUSH1 0x4 DUP1 CALLDATASIZE SUB DUP2 ADD SWAP1 PUSH2 0x470 SWAP2 SWAP1 PUSH2 0x4018 JUMP JUMPDEST PUSH2 0x1213 JUMP JUMPDEST PUSH1 0x40 MLOAD PUSH2 0x482 SWAP2 SWAP1 PUSH2 0x33FA JUMP JUMPDEST PUSH1 0x40 MLOAD DUP1 SWAP2 SUB SWAP1 RETURN JUMPDEST PUSH2 0x493 PUSH2 0x127B JUMP JUMPDEST PUSH1 0x40 MLOAD PUSH2 0x4A0 SWAP2 SWAP1 PUSH2 0x3706 JUMP JUMPDEST PUSH1 0x40 MLOAD DUP1 SWAP2 SUB SWAP1 RETURN JUMPDEST PUSH2 0x4C3 PUSH1 0x4 DUP1 CALLDATASIZE SUB DUP2 ADD SWAP1 PUSH2 0x4BE SWAP2 SWAP1 PUSH2 0x3A7A JUMP JUMPDEST PUSH2 0x12A4 JUMP JUMPDEST PUSH1 0x40 MLOAD PUSH2 0x4D0 SWAP2 SWAP1 PUSH2 0x33FA JUMP JUMPDEST PUSH1 0x40 MLOAD DUP1 SWAP2 SUB SWAP1 RETURN JUMPDEST PUSH2 0x4E1 PUSH2 0x130F JUMP JUMPDEST PUSH1 0x40 MLOAD PUSH2 0x4EE SWAP2 SWAP1 PUSH2 0x3793 JUMP JUMPDEST PUSH1 0x40 MLOAD DUP1 SWAP2 SUB SWAP1 RETURN JUMPDEST PUSH2 0x511 PUSH1 0x4 DUP1 CALLDATASIZE SUB DUP2 ADD SWAP1 PUSH2 0x50C SWAP2 SWAP1 PUSH2 0x4058 JUMP JUMPDEST PUSH2 0x1316 JUMP JUMPDEST STOP JUMPDEST PUSH2 0x52D PUSH1 0x4 DUP1 CALLDATASIZE SUB DUP2 ADD SWAP1 PUSH2 0x528 SWAP2 SWAP1 PUSH2 0x356E JUMP JUMPDEST PUSH2 0x132C JUMP JUMPDEST STOP JUMPDEST PUSH2 0x549 PUSH1 0x4 DUP1 CALLDATASIZE SUB DUP2 ADD SWAP1 PUSH2 0x544 SWAP2 SWAP1 PUSH2 0x356E JUMP JUMPDEST PUSH2 0x1375 JUMP JUMPDEST PUSH1 0x40 MLOAD PUSH2 0x556 SWAP2 SWAP1 PUSH2 0x33FA JUMP JUMPDEST PUSH1 0x40 MLOAD DUP1 SWAP2 SUB SWAP1 RETURN JUMPDEST PUSH2 0x567 PUSH2 0x13B3 JUMP JUMPDEST PUSH1 0x40 MLOAD PUSH2 0x574 SWAP2 SWAP1 PUSH2 0x3CD8 JUMP JUMPDEST PUSH1 0x40 MLOAD DUP1 SWAP2 SUB SWAP1 RETURN JUMPDEST PUSH2 0x585 PUSH2 0x13C6 JUMP JUMPDEST PUSH1 0x40 MLOAD PUSH2 0x592 SWAP2 SWAP1 PUSH2 0x3793 JUMP JUMPDEST PUSH1 0x40 MLOAD DUP1 SWAP2 SUB SWAP1 RETURN JUMPDEST PUSH2 0x5B5 PUSH1 0x4 DUP1 CALLDATASIZE SUB DUP2 ADD SWAP1 PUSH2 0x5B0 SWAP2 SWAP1 PUSH2 0x3A7A JUMP JUMPDEST PUSH2 0x13EA JUMP JUMPDEST STOP JUMPDEST PUSH2 0x5D1 PUSH1 0x4 DUP1 CALLDATASIZE SUB DUP2 ADD SWAP1 PUSH2 0x5CC SWAP2 SWAP1 PUSH2 0x4098 JUMP JUMPDEST PUSH2 0x140B JUMP JUMPDEST PUSH1 0x40 MLOAD PUSH2 0x5DE SWAP2 SWAP1 PUSH2 0x40D8 JUMP JUMPDEST PUSH1 0x40 MLOAD DUP1 SWAP2 SUB SWAP1 RETURN JUMPDEST PUSH2 0x601 PUSH1 0x4 DUP1 CALLDATASIZE SUB DUP2 ADD SWAP1 PUSH2 0x5FC SWAP2 SWAP1 PUSH2 0x40F3 JUMP JUMPDEST PUSH2 0x1485 JUMP JUMPDEST PUSH1 0x40 MLOAD PUSH2 0x60E SWAP2 SWAP1 PUSH2 0x33FA JUMP JUMPDEST PUSH1 0x40 MLOAD DUP1 SWAP2 SUB SWAP1 RETURN JUMPDEST PUSH2 0x631 PUSH1 0x4 DUP1 CALLDATASIZE SUB DUP2 ADD SWAP1 PUSH2 0x62C SWAP2 SWAP1 PUSH2 0x4133 JUMP JUMPDEST PUSH2 0x1519 JUMP JUMPDEST STOP JUMPDEST PUSH2 0x64D PUSH1 0x4 DUP1 CALLDATASIZE SUB DUP2 ADD SWAP1 PUSH2 0x648 SWAP2 SWAP1 PUSH2 0x4160 JUMP JUMPDEST PUSH2 0x1564 JUMP JUMPDEST STOP JUMPDEST PUSH2 0x669 PUSH1 0x4 DUP1 CALLDATASIZE SUB DUP2 ADD SWAP1 PUSH2 0x664 SWAP2 SWAP1 PUSH2 0x41F7 JUMP JUMPDEST PUSH2 0x1605 JUMP JUMPDEST STOP JUMPDEST PUSH2 0x685 PUSH1 0x4 DUP1 CALLDATASIZE SUB DUP2 ADD SWAP1 PUSH2 0x680 SWAP2 SWAP1 PUSH2 0x4224 JUMP JUMPDEST PUSH2 0x1688 JUMP JUMPDEST STOP JUMPDEST PUSH2 0x68F PUSH2 0x1725 JUMP JUMPDEST PUSH1 0x40 MLOAD PUSH2 0x69C SWAP2 SWAP1 PUSH2 0x4277 JUMP JUMPDEST PUSH1 0x40 MLOAD DUP1 SWAP2 SUB SWAP1 RETURN JUMPDEST PUSH1 0x0 DUP1 PUSH20 0xFFFFFFFFFFFFFFFFFFFFFFFFFFFFFFFFFFFFFFFF AND DUP4 PUSH20 0xFFFFFFFFFFFFFFFFFFFFFFFFFFFFFFFFFFFFFFFF AND SUB PUSH2 0x715 JUMPI PUSH1 0x40 MLOAD PUSH32 0x8C379A000000000000000000000000000000000000000000000000000000000 DUP2 MSTORE PUSH1 0x4 ADD PUSH2 0x70C SWAP1 PUSH2 0x4304 JUMP JUMPDEST PUSH1 0x40 MLOAD DUP1 SWAP2 SUB SWAP1 REVERT JUMPDEST PUSH1 0x2 PUSH1 0x0 DUP4 DUP2 MSTORE PUSH1 0x20 ADD SWAP1 DUP2 MSTORE PUSH1 0x20 ADD PUSH1 0x0 KECCAK256 PUSH1 0x0 DUP5 PUSH20 0xFFFFFFFFFFFFFFFFFFFFFFFFFFFFFFFFFFFFFFFF AND PUSH20 0xFFFFFFFFFFFFFFFFFFFFFFFFFFFFFFFFFFFFFFFF AND DUP2 MSTORE PUSH1 0x20 ADD SWAP1 DUP2 MSTORE PUSH1 0x20 ADD PUSH1 0x0 KECCAK256 SLOAD SWAP1 POP SWAP3 SWAP2 POP POP JUMP JUMPDEST PUSH1 0x0 PUSH2 0x779 DUP3 PUSH2 0x19C4 JUMP JUMPDEST SWAP1 POP SWAP2 SWAP1 POP JUMP JUMPDEST PUSH1 0x5 PUSH1 0x2 SWAP1 SLOAD SWAP1 PUSH2 0x100 EXP SWAP1 DIV PUSH2 0xFFFF AND DUP2 JUMP JUMPDEST PUSH1 0x60 PUSH1 0x4 DUP1 SLOAD PUSH2 0x7A3 SWAP1 PUSH2 0x4353 JUMP JUMPDEST DUP1 PUSH1 0x1F ADD PUSH1 0x20 DUP1 SWAP2 DIV MUL PUSH1 0x20 ADD PUSH1 0x40 MLOAD SWAP1 DUP2 ADD PUSH1 0x40 MSTORE DUP1 SWAP3 SWAP2 SWAP1 DUP2 DUP2 MSTORE PUSH1 0x20 ADD DUP3 DUP1 SLOAD PUSH2 0x7CF SWAP1 PUSH2 0x4353 JUMP JUMPDEST DUP1 ISZERO PUSH2 0x81C JUMPI DUP1 PUSH1 0x1F LT PUSH2 0x7F1 JUMPI PUSH2 0x100 DUP1 DUP4 SLOAD DIV MUL DUP4 MSTORE SWAP2 PUSH1 0x20 ADD SWAP2 PUSH2 0x81C JUMP JUMPDEST DUP3 ADD SWAP2 SWAP1 PUSH1 0x0 MSTORE PUSH1 0x20 PUSH1 0x0 KECCAK256 SWAP1 JUMPDEST DUP2 SLOAD DUP2 MSTORE SWAP1 PUSH1 0x1 ADD SWAP1 PUSH1 0x20 ADD DUP1 DUP4 GT PUSH2 0x7FF JUMPI DUP3 SWAP1 SUB PUSH1 0x1F AND DUP3 ADD SWAP2 JUMPDEST POP POP POP POP POP SWAP1 POP SWAP2 SWAP1 POP JUMP JUMPDEST PUSH1 0x9 PUSH1 0x20 MSTORE DUP1 PUSH1 0x0 MSTORE PUSH1 0x40 PUSH1 0x0 KECCAK256 PUSH1 0x0 SWAP2 POP SWAP1 POP DUP1 PUSH1 0x0 ADD PUSH1 0x0 SWAP1 SLOAD SWAP1 PUSH2 0x100 EXP SWAP1 DIV PUSH20 0xFFFFFFFFFFFFFFFFFFFFFFFFFFFFFFFFFFFFFFFF AND SWAP1 DUP1 PUSH1 0x0 ADD PUSH1 0x14 SWAP1 SLOAD SWAP1 PUSH2 0x100 EXP SWAP1 DIV PUSH1 0xFF AND SWAP1 DUP1 PUSH1 0x0 ADD PUSH1 0x15 SWAP1 SLOAD SWAP1 PUSH2 0x100 EXP SWAP1 DIV PUSH2 0xFFFF AND SWAP1 DUP1 PUSH1 0x0 ADD PUSH1 0x17 SWAP1 SLOAD SWAP1 PUSH2 0x100 EXP SWAP1 DIV PUSH2 0xFFFF AND SWAP1 DUP1 PUSH1 0x0 ADD PUSH1 0x19 SWAP1 SLOAD SWAP1 PUSH2 0x100 EXP SWAP1 DIV PUSH1 0xFF AND SWAP1 DUP1 PUSH1 0x0 ADD PUSH1 0x1A SWAP1 SLOAD SWAP1 PUSH2 0x100 EXP SWAP1 DIV PUSH4 0xFFFFFFFF AND SWAP1 DUP1 PUSH1 0x0 ADD PUSH1 0x1E SWAP1 SLOAD SWAP1 PUSH2 0x100 EXP SWAP1 DIV PUSH1 0xFF AND SWAP1 DUP1 PUSH1 0x1 ADD PUSH1 0x0 SWAP1 SLOAD SWAP1 PUSH2 0x100 EXP SWAP1 DIV PUSH20 0xFFFFFFFFFFFFFFFFFFFFFFFFFFFFFFFFFFFFFFFF AND SWAP1 POP DUP9 JUMP JUMPDEST PUSH1 0x0 PUSH2 0x90D PUSH2 0x127B JUMP JUMPDEST SWAP1 POP SWAP1 JUMP JUMPDEST PUSH1 0x0 PUSH1 0x1 PUSH1 0x0 DUP4 DUP2 MSTORE PUSH1 0x20 ADD SWAP1 DUP2 MSTORE PUSH1 0x20 ADD PUSH1 0x0 KECCAK256 PUSH1 0x1 ADD SLOAD SWAP1 POP SWAP2 SWAP1 POP JUMP JUMPDEST PUSH2 0x93A PUSH2 0x1AA6 JUMP JUMPDEST PUSH20 0xFFFFFFFFFFFFFFFFFFFFFFFFFFFFFFFFFFFFFFFF AND DUP6 PUSH20 0xFFFFFFFFFFFFFFFFFFFFFFFFFFFFFFFFFFFFFFFF AND EQ DUP1 PUSH2 0x980 JUMPI POP PUSH2 0x97F DUP6 PUSH2 0x97A PUSH2 0x1AA6 JUMP JUMPDEST PUSH2 0x1485 JUMP JUMPDEST JUMPDEST PUSH2 0x9BF JUMPI PUSH1 0x40 MLOAD PUSH32 0x8C379A000000000000000000000000000000000000000000000000000000000 DUP2 MSTORE PUSH1 0x4 ADD PUSH2 0x9B6 SWAP1 PUSH2 0x43F6 JUMP JUMPDEST PUSH1 0x40 MLOAD DUP1 SWAP2 SUB SWAP1 REVERT JUMPDEST PUSH2 0x9CC DUP6 DUP6 DUP6 DUP6 DUP6 PUSH2 0x1AAE JUMP JUMPDEST POP POP POP POP POP JUMP JUMPDEST PUSH2 0x9DC DUP3 PUSH2 0x912 JUMP JUMPDEST PUSH2 0x9E5 DUP2 PUSH2 0x1DD2 JUMP JUMPDEST PUSH2 0x9EF DUP4 DUP4 PUSH2 0x1DE6 JUMP JUMPDEST POP POP POP JUMP JUMPDEST PUSH32 0x0 PUSH2 0xA1E DUP2 PUSH2 0x1DD2 JUMP JUMPDEST PUSH1 0x0 PUSH1 0x5 PUSH1 0x1 DUP2 DUP2 SWAP1 SLOAD SWAP1 PUSH2 0x100 EXP SWAP1 DIV PUSH1 0xFF AND DUP1 SWAP3 SWAP2 SWAP1 PUSH2 0xA3F SWAP1 PUSH2 0x4445 JUMP JUMPDEST SWAP2 SWAP1 PUSH2 0x100 EXP DUP2 SLOAD DUP2 PUSH1 0xFF MUL NOT AND SWAP1 DUP4 PUSH1 0xFF AND MUL OR SWAP1 SSTORE POP SWAP1 POP PUSH1 0x5 PUSH1 0x0 SWAP1 SLOAD SWAP1 PUSH2 0x100 EXP SWAP1 DIV PUSH1 0xFF AND PUSH1 0xFF AND DUP2 PUSH1 0xFF AND GT ISZERO PUSH2 0xAB1 JUMPI PUSH1 0x40 MLOAD PUSH32 0x8C379A000000000000000000000000000000000000000000000000000000000 DUP2 MSTORE PUSH1 0x4 ADD PUSH2 0xAA8 SWAP1 PUSH2 0x44E0 JUMP JUMPDEST PUSH1 0x40 MLOAD DUP1 SWAP2 SUB SWAP1 REVERT JUMPDEST PUSH1 0x40 MLOAD DUP1 PUSH2 0x100 ADD PUSH1 0x40 MSTORE DUP1 DUP14 PUSH20 0xFFFFFFFFFFFFFFFFFFFFFFFFFFFFFFFFFFFFFFFF AND DUP2 MSTORE PUSH1 0x20 ADD DUP13 PUSH1 0x1 DUP2 GT ISZERO PUSH2 0xAEC JUMPI PUSH2 0xAEB PUSH2 0x35AA JUMP JUMPDEST JUMPDEST DUP2 MSTORE PUSH1 0x20 ADD DUP12 PUSH2 0xFFFF AND DUP2 MSTORE PUSH1 0x20 ADD DUP11 PUSH2 0xFFFF AND DUP2 MSTORE PUSH1 0x20 ADD DUP10 PUSH1 0x1 DUP2 GT ISZERO PUSH2 0xB18 JUMPI PUSH2 0xB17 PUSH2 0x35AA JUMP JUMPDEST JUMPDEST DUP2 MSTORE PUSH1 0x20 ADD DUP9 PUSH4 0xFFFFFFFF AND DUP2 MSTORE PUSH1 0x20 ADD PUSH1 0x0 ISZERO ISZERO DUP2 MSTORE PUSH1 0x20 ADD DUP14 PUSH20 0xFFFFFFFFFFFFFFFFFFFFFFFFFFFFFFFFFFFFFFFF AND DUP2 MSTORE POP PUSH1 0x9 PUSH1 0x0 DUP4 PUSH1 0xFF AND PUSH1 0xFF AND DUP2 MSTORE PUSH1 0x20 ADD SWAP1 DUP2 MSTORE PUSH1 0x20 ADD PUSH1 0x0 KECCAK256 PUSH1 0x0 DUP3 ADD MLOAD DUP2 PUSH1 0x0 ADD PUSH1 0x0 PUSH2 0x100 EXP DUP2 SLOAD DUP2 PUSH20 0xFFFFFFFFFFFFFFFFFFFFFFFFFFFFFFFFFFFFFFFF MUL NOT AND SWAP1 DUP4 PUSH20 0xFFFFFFFFFFFFFFFFFFFFFFFFFFFFFFFFFFFFFFFF AND MUL OR SWAP1 SSTORE POP PUSH1 0x20 DUP3 ADD MLOAD DUP2 PUSH1 0x0 ADD PUSH1 0x14 PUSH2 0x100 EXP DUP2 SLOAD DUP2 PUSH1 0xFF MUL NOT AND SWAP1 DUP4 PUSH1 0x1 DUP2 GT ISZERO PUSH2 0xBD7 JUMPI PUSH2 0xBD6 PUSH2 0x35AA JUMP JUMPDEST JUMPDEST MUL OR SWAP1 SSTORE POP PUSH1 0x40 DUP3 ADD MLOAD DUP2 PUSH1 0x0 ADD PUSH1 0x15 PUSH2 0x100 EXP DUP2 SLOAD DUP2 PUSH2 0xFFFF MUL NOT AND SWAP1 DUP4 PUSH2 0xFFFF AND MUL OR SWAP1 SSTORE POP PUSH1 0x60 DUP3 ADD MLOAD DUP2 PUSH1 0x0 ADD PUSH1 0x17 PUSH2 0x100 EXP DUP2 SLOAD DUP2 PUSH2 0xFFFF MUL NOT AND SWAP1 DUP4 PUSH2 0xFFFF AND MUL OR SWAP1 SSTORE POP PUSH1 0x80 DUP3 ADD MLOAD DUP2 PUSH1 0x0 ADD PUSH1 0x19 PUSH2 0x100 EXP DUP2 SLOAD DUP2 PUSH1 0xFF MUL NOT AND SWAP1 DUP4 PUSH1 0x1 DUP2 GT ISZERO PUSH2 0xC4D JUMPI PUSH2 0xC4C PUSH2 0x35AA JUMP JUMPDEST JUMPDEST MUL OR SWAP1 SSTORE POP PUSH1 0xA0 DUP3 ADD MLOAD DUP2 PUSH1 0x0 ADD PUSH1 0x1A PUSH2 0x100 EXP DUP2 SLOAD DUP2 PUSH4 0xFFFFFFFF MUL NOT AND SWAP1 DUP4 PUSH4 0xFFFFFFFF AND MUL OR SWAP1 SSTORE POP PUSH1 0xC0 DUP3 ADD MLOAD DUP2 PUSH1 0x0 ADD PUSH1 0x1E PUSH2 0x100 EXP DUP2 SLOAD DUP2 PUSH1 0xFF MUL NOT AND SWAP1 DUP4 ISZERO ISZERO MUL OR SWAP1 SSTORE POP PUSH1 0xE0 DUP3 ADD MLOAD DUP2 PUSH1 0x1 ADD PUSH1 0x0 PUSH2 0x100 EXP DUP2 SLOAD DUP2 PUSH20 0xFFFFFFFFFFFFFFFFFFFFFFFFFFFFFFFFFFFFFFFF MUL NOT AND SWAP1 DUP4 PUSH20 0xFFFFFFFFFFFFFFFFFFFFFFFFFFFFFFFFFFFFFFFF AND MUL OR SWAP1 SSTORE POP SWAP1 POP POP PUSH2 0xDA6 DUP13 DUP8 DUP8 DUP1 DUP1 PUSH1 0x20 MUL PUSH1 0x20 ADD PUSH1 0x40 MLOAD SWAP1 DUP2 ADD PUSH1 0x40 MSTORE DUP1 SWAP4 SWAP3 SWAP2 SWAP1 DUP2 DUP2 MSTORE PUSH1 0x20 ADD DUP4 DUP4 PUSH1 0x20 MUL DUP1 DUP3 DUP5 CALLDATACOPY PUSH1 0x0 DUP2 DUP5 ADD MSTORE PUSH1 0x1F NOT PUSH1 0x1F DUP3 ADD AND SWAP1 POP DUP1 DUP4 ADD SWAP3 POP POP POP POP POP POP POP DUP7 DUP7 DUP1 DUP1 PUSH1 0x20 MUL PUSH1 0x20 ADD PUSH1 0x40 MLOAD SWAP1 DUP2 ADD PUSH1 0x40 MSTORE DUP1 SWAP4 SWAP3 SWAP2 SWAP1 DUP2 DUP2 MSTORE PUSH1 0x20 ADD DUP4 DUP4 PUSH1 0x20 MUL DUP1 DUP3 DUP5 CALLDATACOPY PUSH1 0x0 DUP2 DUP5 ADD MSTORE PUSH1 0x1F NOT PUSH1 0x1F DUP3 ADD AND SWAP1 POP DUP1 DUP4 ADD SWAP3 POP POP POP POP POP POP POP PUSH1 0x40 MLOAD DUP1 PUSH1 0x40 ADD PUSH1 0x40 MSTORE DUP1 PUSH1 0x7 DUP2 MSTORE PUSH1 0x20 ADD PUSH32 0x6D696E74696E6700000000000000000000000000000000000000000000000000 DUP2 MSTORE POP PUSH2 0x1EC6 JUMP JUMPDEST PUSH2 0xDB2 DUP13 CALLER PUSH1 0x1 PUSH2 0x20F3 JUMP JUMPDEST POP POP POP POP POP POP POP POP POP POP POP POP JUMP JUMPDEST PUSH2 0xDC8 PUSH2 0x1AA6 JUMP JUMPDEST PUSH20 0xFFFFFFFFFFFFFFFFFFFFFFFFFFFFFFFFFFFFFFFF AND DUP2 PUSH20 0xFFFFFFFFFFFFFFFFFFFFFFFFFFFFFFFFFFFFFFFF AND EQ PUSH2 0xE35 JUMPI PUSH1 0x40 MLOAD PUSH32 0x8C379A000000000000000000000000000000000000000000000000000000000 DUP2 MSTORE PUSH1 0x4 ADD PUSH2 0xE2C SWAP1 PUSH2 0x4572 JUMP JUMPDEST PUSH1 0x40 MLOAD DUP1 SWAP2 SUB SWAP1 REVERT JUMPDEST PUSH2 0xE3F DUP3 DUP3 PUSH2 0x212E JUMP JUMPDEST POP POP JUMP JUMPDEST PUSH1 0x8 PUSH1 0x1 SWAP1 SLOAD SWAP1 PUSH2 0x100 EXP SWAP1 DIV PUSH1 0xFF AND DUP2 JUMP JUMPDEST PUSH1 0x5 PUSH1 0x1 SWAP1 SLOAD SWAP1 PUSH2 0x100 EXP SWAP1 DIV PUSH1 0xFF AND DUP2 JUMP JUMPDEST PUSH1 0x60 DUP2 MLOAD DUP4 MLOAD EQ PUSH2 0xEAF JUMPI PUSH1 0x40 MLOAD PUSH32 0x8C379A000000000000000000000000000000000000000000000000000000000 DUP2 MSTORE PUSH1 0x4 ADD PUSH2 0xEA6 SWAP1 PUSH2 0x4604 JUMP JUMPDEST PUSH1 0x40 MLOAD DUP1 SWAP2 SUB SWAP1 REVERT JUMPDEST PUSH1 0x0 DUP4 MLOAD PUSH8 0xFFFFFFFFFFFFFFFF DUP2 GT ISZERO PUSH2 0xECC JUMPI PUSH2 0xECB PUSH2 0x37B3 JUMP JUMPDEST JUMPDEST PUSH1 0x40 MLOAD SWAP1 DUP1 DUP3 MSTORE DUP1 PUSH1 0x20 MUL PUSH1 0x20 ADD DUP3 ADD PUSH1 0x40 MSTORE DUP1 ISZERO PUSH2 0xEFA JUMPI DUP2 PUSH1 0x20 ADD PUSH1 0x20 DUP3 MUL DUP1 CALLDATASIZE DUP4 CALLDATACOPY DUP1 DUP3 ADD SWAP2 POP POP SWAP1 POP JUMPDEST POP SWAP1 POP PUSH1 0x0 JUMPDEST DUP5 MLOAD DUP2 LT ISZERO PUSH2 0xF77 JUMPI PUSH2 0xF47 DUP6 DUP3 DUP2 MLOAD DUP2 LT PUSH2 0xF1F JUMPI PUSH2 0xF1E PUSH2 0x4624 JUMP JUMPDEST JUMPDEST PUSH1 0x20 MUL PUSH1 0x20 ADD ADD MLOAD DUP6 DUP4 DUP2 MLOAD DUP2 LT PUSH2 0xF3A JUMPI PUSH2 0xF39 PUSH2 0x4624 JUMP JUMPDEST JUMPDEST PUSH1 0x20 MUL PUSH1 0x20 ADD ADD MLOAD PUSH2 0x6A5 JUMP JUMPDEST DUP3 DUP3 DUP2 MLOAD DUP2 LT PUSH2 0xF5A JUMPI PUSH2 0xF59 PUSH2 0x4624 JUMP JUMPDEST JUMPDEST PUSH1 0x20 MUL PUSH1 0x20 ADD ADD DUP2 DUP2 MSTORE POP POP DUP1 PUSH2 0xF70 SWAP1 PUSH2 0x4653 JUMP JUMPDEST SWAP1 POP PUSH2 0xF00 JUMP JUMPDEST POP DUP1 SWAP2 POP POP SWAP3 SWAP2 POP POP JUMP JUMPDEST PUSH2 0xF8A PUSH2 0x1AA6 JUMP JUMPDEST PUSH20 0xFFFFFFFFFFFFFFFFFFFFFFFFFFFFFFFFFFFFFFFF AND DUP4 PUSH20 0xFFFFFFFFFFFFFFFFFFFFFFFFFFFFFFFFFFFFFFFF AND EQ DUP1 PUSH2 0xFD0 JUMPI POP PUSH2 0xFCF DUP4 PUSH2 0xFCA PUSH2 0x1AA6 JUMP JUMPDEST PUSH2 0x1485 JUMP JUMPDEST JUMPDEST PUSH2 0x100F JUMPI PUSH1 0x40 MLOAD PUSH32 0x8C379A000000000000000000000000000000000000000000000000000000000 DUP2 MSTORE PUSH1 0x4 ADD PUSH2 0x1006 SWAP1 PUSH2 0x43F6 JUMP JUMPDEST PUSH1 0x40 MLOAD DUP1 SWAP2 SUB SWAP1 REVERT JUMPDEST PUSH2 0x101A DUP4 DUP4 DUP4 PUSH2 0x2210 JUMP JUMPDEST POP POP POP JUMP JUMPDEST PUSH2 0x1027 PUSH2 0x24E0 JUMP JUMPDEST PUSH2 0x1031 PUSH1 0x0 PUSH2 0x255E JUMP JUMPDEST JUMP JUMPDEST PUSH2 0x103C DUP4 PUSH2 0x2622 JUMP JUMPDEST PUSH2 0x107B JUMPI PUSH1 0x40 MLOAD PUSH32 0x8C379A000000000000000000000000000000000000000000000000000000000 DUP2 MSTORE PUSH1 0x4 ADD PUSH2 0x1072 SWAP1 PUSH2 0x470D JUMP JUMPDEST PUSH1 0x40 MLOAD DUP1 SWAP2 SUB SWAP1 REVERT JUMPDEST PUSH1 0x0 PUSH1 0x9 PUSH1 0x0 DUP6 PUSH1 0xFF AND PUSH1 0xFF AND DUP2 MSTORE PUSH1 0x20 ADD SWAP1 DUP2 MSTORE PUSH1 0x20 ADD PUSH1 0x0 KECCAK256 PUSH1 0x1 ADD PUSH1 0x0 SWAP1 SLOAD SWAP1 PUSH2 0x100 EXP SWAP1 DIV PUSH20 0xFFFFFFFFFFFFFFFFFFFFFFFFFFFFFFFFFFFFFFFF AND SWAP1 POP PUSH2 0x10C8 DUP2 CALLER PUSH1 0x1 PUSH2 0x20F3 JUMP JUMPDEST PUSH2 0x110D DUP2 DUP5 DUP7 PUSH1 0xFF AND DUP6 PUSH1 0x40 MLOAD DUP1 PUSH1 0x40 ADD PUSH1 0x40 MSTORE DUP1 PUSH1 0x8 DUP2 MSTORE PUSH1 0x20 ADD PUSH32 0x7472616E73666572000000000000000000000000000000000000000000000000 DUP2 MSTORE POP PUSH2 0x1564 JUMP JUMPDEST DUP3 PUSH1 0x9 PUSH1 0x0 DUP7 PUSH1 0xFF AND PUSH1 0xFF AND DUP2 MSTORE PUSH1 0x20 ADD SWAP1 DUP2 MSTORE PUSH1 0x20 ADD PUSH1 0x0 KECCAK256 PUSH1 0x1 ADD PUSH1 0x0 PUSH2 0x100 EXP DUP2 SLOAD DUP2 PUSH20 0xFFFFFFFFFFFFFFFFFFFFFFFFFFFFFFFFFFFFFFFF MUL NOT AND SWAP1 DUP4 PUSH20 0xFFFFFFFFFFFFFFFFFFFFFFFFFFFFFFFFFFFFFFFF AND MUL OR SWAP1 SSTORE POP PUSH32 0x2E72E059585D8687C8E378E3C55BDD48912EA1DCBB4B26E097AF901E297AD285 DUP5 DUP5 DUP6 PUSH20 0xFFFFFFFFFFFFFFFFFFFFFFFFFFFFFFFFFFFFFFFF AND PUSH1 0x9 PUSH1 0x0 DUP10 PUSH1 0xFF AND PUSH1 0xFF AND DUP2 MSTORE PUSH1 0x20 ADD SWAP1 DUP2 MSTORE PUSH1 0x20 ADD PUSH1 0x0 KECCAK256 PUSH1 0x1 ADD PUSH1 0x0 SWAP1 SLOAD SWAP1 PUSH2 0x100 EXP SWAP1 DIV PUSH20 0xFFFFFFFFFFFFFFFFFFFFFFFFFFFFFFFFFFFFFFFF AND PUSH20 0xFFFFFFFFFFFFFFFFFFFFFFFFFFFFFFFFFFFFFFFF AND EQ PUSH1 0x40 MLOAD PUSH2 0x1205 SWAP4 SWAP3 SWAP2 SWAP1 PUSH2 0x472D JUMP JUMPDEST PUSH1 0x40 MLOAD DUP1 SWAP2 SUB SWAP1 LOG1 POP POP POP POP JUMP JUMPDEST PUSH1 0x0 DUP2 PUSH1 0x9 PUSH1 0x0 DUP6 PUSH1 0xFF AND PUSH1 0xFF AND DUP2 MSTORE PUSH1 0x20 ADD SWAP1 DUP2 MSTORE PUSH1 0x20 ADD PUSH1 0x0 KECCAK256 PUSH1 0x0 ADD PUSH1 0x1E PUSH2 0x100 EXP DUP2 SLOAD DUP2 PUSH1 0xFF MUL NOT AND SWAP1 DUP4 ISZERO ISZERO MUL OR SWAP1 SSTORE POP PUSH1 0x9 PUSH1 0x0 DUP5 PUSH1 0xFF AND PUSH1 0xFF AND DUP2 MSTORE PUSH1 0x20 ADD SWAP1 DUP2 MSTORE PUSH1 0x20 ADD PUSH1 0x0 KECCAK256 PUSH1 0x0 ADD PUSH1 0x1E SWAP1 SLOAD SWAP1 PUSH2 0x100 EXP SWAP1 DIV PUSH1 0xFF AND SWAP1 POP SWAP3 SWAP2 POP POP JUMP JUMPDEST PUSH1 0x0 DUP1 PUSH1 0x0 SWAP1 SLOAD SWAP1 PUSH2 0x100 EXP SWAP1 DIV PUSH20 0xFFFFFFFFFFFFFFFFFFFFFFFFFFFFFFFFFFFFFFFF AND SWAP1 POP SWAP1 JUMP JUMPDEST PUSH1 0x0 PUSH1 0x1 PUSH1 0x0 DUP5 DUP2 MSTORE PUSH1 0x20 ADD SWAP1 DUP2 MSTORE PUSH1 0x20 ADD PUSH1 0x0 KECCAK256 PUSH1 0x0 ADD PUSH1 0x0 DUP4 PUSH20 0xFFFFFFFFFFFFFFFFFFFFFFFFFFFFFFFFFFFFFFFF AND PUSH20 0xFFFFFFFFFFFFFFFFFFFFFFFFFFFFFFFFFFFFFFFF AND DUP2 MSTORE PUSH1 0x20 ADD SWAP1 DUP2 MSTORE PUSH1 0x20 ADD PUSH1 0x0 KECCAK256 PUSH1 0x0 SWAP1 SLOAD SWAP1 PUSH2 0x100 EXP SWAP1 DIV PUSH1 0xFF AND SWAP1 POP SWAP3 SWAP2 POP POP JUMP JUMPDEST PUSH1 0x0 DUP1 SHL DUP2 JUMP JUMPDEST PUSH2 0x1328 PUSH2 0x1321 PUSH2 0x1AA6 JUMP JUMPDEST DUP4 DUP4 PUSH2 0x2655 JUMP JUMPDEST POP POP JUMP JUMPDEST PUSH32 0x0 PUSH2 0x1356 DUP2 PUSH2 0x1DD2 JUMP JUMPDEST DUP2 PUSH1 0x5 PUSH1 0x0 PUSH2 0x100 EXP DUP2 SLOAD DUP2 PUSH1 0xFF MUL NOT AND SWAP1 DUP4 PUSH1 0xFF AND MUL OR SWAP1 SSTORE POP POP POP JUMP JUMPDEST PUSH1 0x0 DUP1 PUSH1 0x9 PUSH1 0x0 DUP5 PUSH1 0xFF AND PUSH1 0xFF AND DUP2 MSTORE PUSH1 0x20 ADD SWAP1 DUP2 MSTORE PUSH1 0x20 ADD PUSH1 0x0 KECCAK256 PUSH1 0x0 ADD PUSH1 0x1A SWAP1 SLOAD SWAP1 PUSH2 0x100 EXP SWAP1 DIV PUSH4 0xFFFFFFFF AND PUSH4 0xFFFFFFFF AND EQ SWAP1 POP SWAP2 SWAP1 POP JUMP JUMPDEST PUSH1 0x5 PUSH1 0x0 SWAP1 SLOAD SWAP1 PUSH2 0x100 EXP SWAP1 DIV PUSH1 0xFF AND DUP2 JUMP JUMPDEST PUSH32 0x0 DUP2 JUMP JUMPDEST PUSH2 0x13F3 DUP3 PUSH2 0x912 JUMP JUMPDEST PUSH2 0x13FC DUP2 PUSH2 0x1DD2 JUMP JUMPDEST PUSH2 0x1406 DUP4 DUP4 PUSH2 0x212E JUMP JUMPDEST POP POP POP JUMP JUMPDEST PUSH1 0x0 PUSH2 0x1415 PUSH2 0x24E0 JUMP JUMPDEST DUP2 PUSH1 0x9 PUSH1 0x0 DUP6 PUSH1 0xFF AND PUSH1 0xFF AND DUP2 MSTORE PUSH1 0x20 ADD SWAP1 DUP2 MSTORE PUSH1 0x20 ADD PUSH1 0x0 KECCAK256 PUSH1 0x0 ADD PUSH1 0x1A PUSH2 0x100 EXP DUP2 SLOAD DUP2 PUSH4 0xFFFFFFFF MUL NOT AND SWAP1 DUP4 PUSH4 0xFFFFFFFF AND MUL OR SWAP1 SSTORE POP PUSH1 0x9 PUSH1 0x0 DUP5 PUSH1 0xFF AND PUSH1 0xFF AND DUP2 MSTORE PUSH1 0x20 ADD SWAP1 DUP2 MSTORE PUSH1 0x20 ADD PUSH1 0x0 KECCAK256 PUSH1 0x0 ADD PUSH1 0x1A SWAP1 SLOAD SWAP1 PUSH2 0x100 EXP SWAP1 DIV PUSH4 0xFFFFFFFF AND SWAP1 POP SWAP3 SWAP2 POP POP JUMP JUMPDEST PUSH1 0x0 PUSH1 0x3 PUSH1 0x0 DUP5 PUSH20 0xFFFFFFFFFFFFFFFFFFFFFFFFFFFFFFFFFFFFFFFF AND PUSH20 0xFFFFFFFFFFFFFFFFFFFFFFFFFFFFFFFFFFFFFFFF AND DUP2 MSTORE PUSH1 0x20 ADD SWAP1 DUP2 MSTORE PUSH1 0x20 ADD PUSH1 0x0 KECCAK256 PUSH1 0x0 DUP4 PUSH20 0xFFFFFFFFFFFFFFFFFFFFFFFFFFFFFFFFFFFFFFFF AND PUSH20 0xFFFFFFFFFFFFFFFFFFFFFFFFFFFFFFFFFFFFFFFF AND DUP2 MSTORE PUSH1 0x20 ADD SWAP1 DUP2 MSTORE PUSH1 0x20 ADD PUSH1 0x0 KECCAK256 PUSH1 0x0 SWAP1 SLOAD SWAP1 PUSH2 0x100 EXP SWAP1 DIV PUSH1 0xFF AND SWAP1 POP SWAP3 SWAP2 POP POP JUMP JUMPDEST PUSH32 0x0 PUSH2 0x1543 DUP2 PUSH2 0x1DD2 JUMP JUMPDEST DUP2 PUSH1 0x5 PUSH1 0x2 PUSH2 0x100 EXP DUP2 SLOAD DUP2 PUSH2 0xFFFF MUL NOT AND SWAP1 DUP4 PUSH2 0xFFFF AND MUL OR SWAP1 SSTORE POP POP POP JUMP JUMPDEST PUSH2 0x156C PUSH2 0x1AA6 JUMP JUMPDEST PUSH20 0xFFFFFFFFFFFFFFFFFFFFFFFFFFFFFFFFFFFFFFFF AND DUP6 PUSH20 0xFFFFFFFFFFFFFFFFFFFFFFFFFFFFFFFFFFFFFFFF AND EQ DUP1 PUSH2 0x15B2 JUMPI POP PUSH2 0x15B1 DUP6 PUSH2 0x15AC PUSH2 0x1AA6 JUMP JUMPDEST PUSH2 0x1485 JUMP JUMPDEST JUMPDEST PUSH2 0x15F1 JUMPI PUSH1 0x40 MLOAD PUSH32 0x8C379A000000000000000000000000000000000000000000000000000000000 DUP2 MSTORE PUSH1 0x4 ADD PUSH2 0x15E8 SWAP1 PUSH2 0x43F6 JUMP JUMPDEST PUSH1 0x40 MLOAD DUP1 SWAP2 SUB SWAP1 REVERT JUMPDEST PUSH2 0x15FE DUP6 DUP6 DUP6 DUP6 DUP6 PUSH2 0x27C1 JUMP JUMPDEST POP POP POP POP POP JUMP JUMPDEST PUSH2 0x160D PUSH2 0x24E0 JUMP JUMPDEST PUSH1 0x0 PUSH20 0xFFFFFFFFFFFFFFFFFFFFFFFFFFFFFFFFFFFFFFFF AND DUP2 PUSH20 0xFFFFFFFFFFFFFFFFFFFFFFFFFFFFFFFFFFFFFFFF AND SUB PUSH2 0x167C JUMPI PUSH1 0x40 MLOAD PUSH32 0x8C379A000000000000000000000000000000000000000000000000000000000 DUP2 MSTORE PUSH1 0x4 ADD PUSH2 0x1673 SWAP1 PUSH2 0x47D6 JUMP JUMPDEST PUSH1 0x40 MLOAD DUP1 SWAP2 SUB SWAP1 REVERT JUMPDEST PUSH2 0x1685 DUP2 PUSH2 0x255E JUMP JUMPDEST POP JUMP JUMPDEST PUSH2 0x1690 PUSH2 0x1AA6 JUMP JUMPDEST PUSH20 0xFFFFFFFFFFFFFFFFFFFFFFFFFFFFFFFFFFFFFFFF AND DUP4 PUSH20 0xFFFFFFFFFFFFFFFFFFFFFFFFFFFFFFFFFFFFFFFF AND EQ DUP1 PUSH2 0x16D6 JUMPI POP PUSH2 0x16D5 DUP4 PUSH2 0x16D0 PUSH2 0x1AA6 JUMP JUMPDEST PUSH2 0x1485 JUMP JUMPDEST JUMPDEST PUSH2 0x1715 JUMPI PUSH1 0x40 MLOAD PUSH32 0x8C379A000000000000000000000000000000000000000000000000000000000 DUP2 MSTORE PUSH1 0x4 ADD PUSH2 0x170C SWAP1 PUSH2 0x43F6 JUMP JUMPDEST PUSH1 0x40 MLOAD DUP1 SWAP2 SUB SWAP1 REVERT JUMPDEST PUSH2 0x1720 DUP4 DUP4 DUP4 PUSH2 0x2A5F JUMP JUMPDEST POP POP POP JUMP JUMPDEST PUSH1 0x8 PUSH1 0x2 SWAP1 SLOAD SWAP1 PUSH2 0x100 EXP SWAP1 DIV PUSH1 0xFF AND DUP2 JUMP JUMPDEST PUSH1 0x0 DUP1 DUP3 PUSH20 0xFFFFFFFFFFFFFFFFFFFFFFFFFFFFFFFFFFFFFFFF AND EXTCODESIZE GT SWAP1 POP SWAP2 SWAP1 POP JUMP JUMPDEST PUSH1 0x60 PUSH2 0x1781 DUP3 PUSH20 0xFFFFFFFFFFFFFFFFFFFFFFFFFFFFFFFFFFFFFFFF AND PUSH1 0x14 PUSH1 0xFF AND PUSH2 0x1788 JUMP JUMPDEST SWAP1 POP SWAP2 SWAP1 POP JUMP JUMPDEST PUSH1 0x60 PUSH1 0x0 PUSH1 0x2 DUP4 PUSH1 0x2 PUSH2 0x179B SWAP2 SWAP1 PUSH2 0x47F6 JUMP JUMPDEST PUSH2 0x17A5 SWAP2 SWAP1 PUSH2 0x4850 JUMP JUMPDEST PUSH8 0xFFFFFFFFFFFFFFFF DUP2 GT ISZERO PUSH2 0x17BE JUMPI PUSH2 0x17BD PUSH2 0x37B3 JUMP JUMPDEST JUMPDEST PUSH1 0x40 MLOAD SWAP1 DUP1 DUP3 MSTORE DUP1 PUSH1 0x1F ADD PUSH1 0x1F NOT AND PUSH1 0x20 ADD DUP3 ADD PUSH1 0x40 MSTORE DUP1 ISZERO PUSH2 0x17F0 JUMPI DUP2 PUSH1 0x20 ADD PUSH1 0x1 DUP3 MUL DUP1 CALLDATASIZE DUP4 CALLDATACOPY DUP1 DUP3 ADD SWAP2 POP POP SWAP1 POP JUMPDEST POP SWAP1 POP PUSH32 0x3000000000000000000000000000000000000000000000000000000000000000 DUP2 PUSH1 0x0 DUP2 MLOAD DUP2 LT PUSH2 0x1828 JUMPI PUSH2 0x1827 PUSH2 0x4624 JUMP JUMPDEST JUMPDEST PUSH1 0x20 ADD ADD SWAP1 PUSH31 0xFFFFFFFFFFFFFFFFFFFFFFFFFFFFFFFFFFFFFFFFFFFFFFFFFFFFFFFFFFFFFF NOT AND SWAP1 DUP2 PUSH1 0x0 BYTE SWAP1 MSTORE8 POP PUSH32 0x7800000000000000000000000000000000000000000000000000000000000000 DUP2 PUSH1 0x1 DUP2 MLOAD DUP2 LT PUSH2 0x188C JUMPI PUSH2 0x188B PUSH2 0x4624 JUMP JUMPDEST JUMPDEST PUSH1 0x20 ADD ADD SWAP1 PUSH31 0xFFFFFFFFFFFFFFFFFFFFFFFFFFFFFFFFFFFFFFFFFFFFFFFFFFFFFFFFFFFFFF NOT AND SWAP1 DUP2 PUSH1 0x0 BYTE SWAP1 MSTORE8 POP PUSH1 0x0 PUSH1 0x1 DUP5 PUSH1 0x2 PUSH2 0x18CC SWAP2 SWAP1 PUSH2 0x47F6 JUMP JUMPDEST PUSH2 0x18D6 SWAP2 SWAP1 PUSH2 0x4850 JUMP JUMPDEST SWAP1 POP JUMPDEST PUSH1 0x1 DUP2 GT ISZERO PUSH2 0x1976 JUMPI PUSH32 0x3031323334353637383961626364656600000000000000000000000000000000 PUSH1 0xF DUP7 AND PUSH1 0x10 DUP2 LT PUSH2 0x1918 JUMPI PUSH2 0x1917 PUSH2 0x4624 JUMP JUMPDEST JUMPDEST BYTE PUSH1 0xF8 SHL DUP3 DUP3 DUP2 MLOAD DUP2 LT PUSH2 0x192F JUMPI PUSH2 0x192E PUSH2 0x4624 JUMP JUMPDEST JUMPDEST PUSH1 0x20 ADD ADD SWAP1 PUSH31 0xFFFFFFFFFFFFFFFFFFFFFFFFFFFFFFFFFFFFFFFFFFFFFFFFFFFFFFFFFFFFFF NOT AND SWAP1 DUP2 PUSH1 0x0 BYTE SWAP1 MSTORE8 POP PUSH1 0x4 DUP6 SWAP1 SHR SWAP5 POP DUP1 PUSH2 0x196F SWAP1 PUSH2 0x48A6 JUMP JUMPDEST SWAP1 POP PUSH2 0x18D9 JUMP JUMPDEST POP PUSH1 0x0 DUP5 EQ PUSH2 0x19BA JUMPI PUSH1 0x40 MLOAD PUSH32 0x8C379A000000000000000000000000000000000000000000000000000000000 DUP2 MSTORE PUSH1 0x4 ADD PUSH2 0x19B1 SWAP1 PUSH2 0x491B JUMP JUMPDEST PUSH1 0x40 MLOAD DUP1 SWAP2 SUB SWAP1 REVERT JUMPDEST DUP1 SWAP2 POP POP SWAP3 SWAP2 POP POP JUMP JUMPDEST PUSH1 0x0 PUSH32 0xD9B67A2600000000000000000000000000000000000000000000000000000000 PUSH28 0xFFFFFFFFFFFFFFFFFFFFFFFFFFFFFFFFFFFFFFFFFFFFFFFFFFFFFFFF NOT AND DUP3 PUSH28 0xFFFFFFFFFFFFFFFFFFFFFFFFFFFFFFFFFFFFFFFFFFFFFFFFFFFFFFFF NOT AND EQ DUP1 PUSH2 0x1A8F JUMPI POP PUSH32 0xE89341C00000000000000000000000000000000000000000000000000000000 PUSH28 0xFFFFFFFFFFFFFFFFFFFFFFFFFFFFFFFFFFFFFFFFFFFFFFFFFFFFFFFF NOT AND DUP3 PUSH28 0xFFFFFFFFFFFFFFFFFFFFFFFFFFFFFFFFFFFFFFFFFFFFFFFFFFFFFFFF NOT AND EQ JUMPDEST DUP1 PUSH2 0x1A9F JUMPI POP PUSH2 0x1A9E DUP3 PUSH2 0x2CA7 JUMP JUMPDEST JUMPDEST SWAP1 POP SWAP2 SWAP1 POP JUMP JUMPDEST PUSH1 0x0 CALLER SWAP1 POP SWAP1 JUMP JUMPDEST DUP2 MLOAD DUP4 MLOAD EQ PUSH2 0x1AF2 JUMPI PUSH1 0x40 MLOAD PUSH32 0x8C379A000000000000000000000000000000000000000000000000000000000 DUP2 MSTORE PUSH1 0x4 ADD PUSH2 0x1AE9 SWAP1 PUSH2 0x49AD JUMP JUMPDEST PUSH1 0x40 MLOAD DUP1 SWAP2 SUB SWAP1 REVERT JUMPDEST PUSH1 0x0 PUSH20 0xFFFFFFFFFFFFFFFFFFFFFFFFFFFFFFFFFFFFFFFF AND DUP5 PUSH20 0xFFFFFFFFFFFFFFFFFFFFFFFFFFFFFFFFFFFFFFFF AND SUB PUSH2 0x1B61 JUMPI PUSH1 0x40 MLOAD PUSH32 0x8C379A000000000000000000000000000000000000000000000000000000000 DUP2 MSTORE PUSH1 0x4 ADD PUSH2 0x1B58 SWAP1 PUSH2 0x4A3F JUMP JUMPDEST PUSH1 0x40 MLOAD DUP1 SWAP2 SUB SWAP1 REVERT JUMPDEST PUSH1 0x0 PUSH2 0x1B6B PUSH2 0x1AA6 JUMP JUMPDEST SWAP1 POP PUSH2 0x1B7B DUP2 DUP8 DUP8 DUP8 DUP8 DUP8 PUSH2 0x2D21 JUMP JUMPDEST PUSH1 0x0 JUMPDEST DUP5 MLOAD DUP2 LT ISZERO PUSH2 0x1D2F JUMPI PUSH1 0x0 DUP6 DUP3 DUP2 MLOAD DUP2 LT PUSH2 0x1B9C JUMPI PUSH2 0x1B9B PUSH2 0x4624 JUMP JUMPDEST JUMPDEST PUSH1 0x20 MUL PUSH1 0x20 ADD ADD MLOAD SWAP1 POP PUSH1 0x0 DUP6 DUP4 DUP2 MLOAD DUP2 LT PUSH2 0x1BBB JUMPI PUSH2 0x1BBA PUSH2 0x4624 JUMP JUMPDEST JUMPDEST PUSH1 0x20 MUL PUSH1 0x20 ADD ADD MLOAD SWAP1 POP PUSH1 0x0 PUSH1 0x2 PUSH1 0x0 DUP5 DUP2 MSTORE PUSH1 0x20 ADD SWAP1 DUP2 MSTORE PUSH1 0x20 ADD PUSH1 0x0 KECCAK256 PUSH1 0x0 DUP12 PUSH20 0xFFFFFFFFFFFFFFFFFFFFFFFFFFFFFFFFFFFFFFFF AND PUSH20 0xFFFFFFFFFFFFFFFFFFFFFFFFFFFFFFFFFFFFFFFF AND DUP2 MSTORE PUSH1 0x20 ADD SWAP1 DUP2 MSTORE PUSH1 0x20 ADD PUSH1 0x0 KECCAK256 SLOAD SWAP1 POP DUP2 DUP2 LT ISZERO PUSH2 0x1C5D JUMPI PUSH1 0x40 MLOAD PUSH32 0x8C379A000000000000000000000000000000000000000000000000000000000 DUP2 MSTORE PUSH1 0x4 ADD PUSH2 0x1C54 SWAP1 PUSH2 0x4AD1 JUMP JUMPDEST PUSH1 0x40 MLOAD DUP1 SWAP2 SUB SWAP1 REVERT JUMPDEST DUP2 DUP2 SUB PUSH1 0x2 PUSH1 0x0 DUP6 DUP2 MSTORE PUSH1 0x20 ADD SWAP1 DUP2 MSTORE PUSH1 0x20 ADD PUSH1 0x0 KECCAK256 PUSH1 0x0 DUP13 PUSH20 0xFFFFFFFFFFFFFFFFFFFFFFFFFFFFFFFFFFFFFFFF AND PUSH20 0xFFFFFFFFFFFFFFFFFFFFFFFFFFFFFFFFFFFFFFFF AND DUP2 MSTORE PUSH1 0x20 ADD SWAP1 DUP2 MSTORE PUSH1 0x20 ADD PUSH1 0x0 KECCAK256 DUP2 SWAP1 SSTORE POP DUP2 PUSH1 0x2 PUSH1 0x0 DUP6 DUP2 MSTORE PUSH1 0x20 ADD SWAP1 DUP2 MSTORE PUSH1 0x20 ADD PUSH1 0x0 KECCAK256 PUSH1 0x0 DUP12 PUSH20 0xFFFFFFFFFFFFFFFFFFFFFFFFFFFFFFFFFFFFFFFF AND PUSH20 0xFFFFFFFFFFFFFFFFFFFFFFFFFFFFFFFFFFFFFFFF AND DUP2 MSTORE PUSH1 0x20 ADD SWAP1 DUP2 MSTORE PUSH1 0x20 ADD PUSH1 0x0 KECCAK256 PUSH1 0x0 DUP3 DUP3 SLOAD PUSH2 0x1D14 SWAP2 SWAP1 PUSH2 0x4850 JUMP JUMPDEST SWAP3 POP POP DUP2 SWAP1 SSTORE POP POP POP POP DUP1 PUSH2 0x1D28 SWAP1 PUSH2 0x4653 JUMP JUMPDEST SWAP1 POP PUSH2 0x1B7E JUMP JUMPDEST POP DUP5 PUSH20 0xFFFFFFFFFFFFFFFFFFFFFFFFFFFFFFFFFFFFFFFF AND DUP7 PUSH20 0xFFFFFFFFFFFFFFFFFFFFFFFFFFFFFFFFFFFFFFFF AND DUP3 PUSH20 0xFFFFFFFFFFFFFFFFFFFFFFFFFFFFFFFFFFFFFFFF AND PUSH32 0x4A39DC06D4C0DBC64B70AF90FD698A233A518AA5D07E595D983B8C0526C8F7FB DUP8 DUP8 PUSH1 0x40 MLOAD PUSH2 0x1DA6 SWAP3 SWAP2 SWAP1 PUSH2 0x4AF1 JUMP JUMPDEST PUSH1 0x40 MLOAD DUP1 SWAP2 SUB SWAP1 LOG4 PUSH2 0x1DBC DUP2 DUP8 DUP8 DUP8 DUP8 DUP8 PUSH2 0x2D29 JUMP JUMPDEST PUSH2 0x1DCA DUP2 DUP8 DUP8 DUP8 DUP8 DUP8 PUSH2 0x2D31 JUMP JUMPDEST POP POP POP POP POP POP JUMP JUMPDEST PUSH2 0x1DE3 DUP2 PUSH2 0x1DDE PUSH2 0x1AA6 JUMP JUMPDEST PUSH2 0x2F08 JUMP JUMPDEST POP JUMP JUMPDEST PUSH2 0x1DF0 DUP3 DUP3 PUSH2 0x12A4 JUMP JUMPDEST PUSH2 0x1EC2 JUMPI PUSH1 0x1 DUP1 PUSH1 0x0 DUP5 DUP2 MSTORE PUSH1 0x20 ADD SWAP1 DUP2 MSTORE PUSH1 0x20 ADD PUSH1 0x0 KECCAK256 PUSH1 0x0 ADD PUSH1 0x0 DUP4 PUSH20 0xFFFFFFFFFFFFFFFFFFFFFFFFFFFFFFFFFFFFFFFF AND PUSH20 0xFFFFFFFFFFFFFFFFFFFFFFFFFFFFFFFFFFFFFFFF AND DUP2 MSTORE PUSH1 0x20 ADD SWAP1 DUP2 MSTORE PUSH1 0x20 ADD PUSH1 0x0 KECCAK256 PUSH1 0x0 PUSH2 0x100 EXP DUP2 SLOAD DUP2 PUSH1 0xFF MUL NOT AND SWAP1 DUP4 ISZERO ISZERO MUL OR SWAP1 SSTORE POP PUSH2 0x1E67 PUSH2 0x1AA6 JUMP JUMPDEST PUSH20 0xFFFFFFFFFFFFFFFFFFFFFFFFFFFFFFFFFFFFFFFF AND DUP2 PUSH20 0xFFFFFFFFFFFFFFFFFFFFFFFFFFFFFFFFFFFFFFFF AND DUP4 PUSH32 0x2F8788117E7EFF1D82E926EC794901D17C78024A50270940304540A733656F0D PUSH1 0x40 MLOAD PUSH1 0x40 MLOAD DUP1 SWAP2 SUB SWAP1 LOG4 JUMPDEST POP POP JUMP JUMPDEST PUSH1 0x0 PUSH20 0xFFFFFFFFFFFFFFFFFFFFFFFFFFFFFFFFFFFFFFFF AND DUP5 PUSH20 0xFFFFFFFFFFFFFFFFFFFFFFFFFFFFFFFFFFFFFFFF AND SUB PUSH2 0x1F35 JUMPI PUSH1 0x40 MLOAD PUSH32 0x8C379A000000000000000000000000000000000000000000000000000000000 DUP2 MSTORE PUSH1 0x4 ADD PUSH2 0x1F2C SWAP1 PUSH2 0x4B9A JUMP JUMPDEST PUSH1 0x40 MLOAD DUP1 SWAP2 SUB SWAP1 REVERT JUMPDEST DUP2 MLOAD DUP4 MLOAD EQ PUSH2 0x1F79 JUMPI PUSH1 0x40 MLOAD PUSH32 0x8C379A000000000000000000000000000000000000000000000000000000000 DUP2 MSTORE PUSH1 0x4 ADD PUSH2 0x1F70 SWAP1 PUSH2 0x49AD JUMP JUMPDEST PUSH1 0x40 MLOAD DUP1 SWAP2 SUB SWAP1 REVERT JUMPDEST PUSH1 0x0 PUSH2 0x1F83 PUSH2 0x1AA6 JUMP JUMPDEST SWAP1 POP PUSH2 0x1F94 DUP2 PUSH1 0x0 DUP8 DUP8 DUP8 DUP8 PUSH2 0x2D21 JUMP JUMPDEST PUSH1 0x0 JUMPDEST DUP5 MLOAD DUP2 LT ISZERO PUSH2 0x204E JUMPI DUP4 DUP2 DUP2 MLOAD DUP2 LT PUSH2 0x1FB3 JUMPI PUSH2 0x1FB2 PUSH2 0x4624 JUMP JUMPDEST JUMPDEST PUSH1 0x20 MUL PUSH1 0x20 ADD ADD MLOAD PUSH1 0x2 PUSH1 0x0 DUP8 DUP5 DUP2 MLOAD DUP2 LT PUSH2 0x1FD2 JUMPI PUSH2 0x1FD1 PUSH2 0x4624 JUMP JUMPDEST JUMPDEST PUSH1 0x20 MUL PUSH1 0x20 ADD ADD MLOAD DUP2 MSTORE PUSH1 0x20 ADD SWAP1 DUP2 MSTORE PUSH1 0x20 ADD PUSH1 0x0 KECCAK256 PUSH1 0x0 DUP9 PUSH20 0xFFFFFFFFFFFFFFFFFFFFFFFFFFFFFFFFFFFFFFFF AND PUSH20 0xFFFFFFFFFFFFFFFFFFFFFFFFFFFFFFFFFFFFFFFF AND DUP2 MSTORE PUSH1 0x20 ADD SWAP1 DUP2 MSTORE PUSH1 0x20 ADD PUSH1 0x0 KECCAK256 PUSH1 0x0 DUP3 DUP3 SLOAD PUSH2 0x2034 SWAP2 SWAP1 PUSH2 0x4850 JUMP JUMPDEST SWAP3 POP POP DUP2 SWAP1 SSTORE POP DUP1 DUP1 PUSH2 0x2046 SWAP1 PUSH2 0x4653 JUMP JUMPDEST SWAP2 POP POP PUSH2 0x1F97 JUMP JUMPDEST POP DUP5 PUSH20 0xFFFFFFFFFFFFFFFFFFFFFFFFFFFFFFFFFFFFFFFF AND PUSH1 0x0 PUSH20 0xFFFFFFFFFFFFFFFFFFFFFFFFFFFFFFFFFFFFFFFF AND DUP3 PUSH20 0xFFFFFFFFFFFFFFFFFFFFFFFFFFFFFFFFFFFFFFFF AND PUSH32 0x4A39DC06D4C0DBC64B70AF90FD698A233A518AA5D07E595D983B8C0526C8F7FB DUP8 DUP8 PUSH1 0x40 MLOAD PUSH2 0x20C6 SWAP3 SWAP2 SWAP1 PUSH2 0x4AF1 JUMP JUMPDEST PUSH1 0x40 MLOAD DUP1 SWAP2 SUB SWAP1 LOG4 PUSH2 0x20DD DUP2 PUSH1 0x0 DUP8 DUP8 DUP8 DUP8 PUSH2 0x2D29 JUMP JUMPDEST PUSH2 0x20EC DUP2 PUSH1 0x0 DUP8 DUP8 DUP8 DUP8 PUSH2 0x2D31 JUMP JUMPDEST POP POP POP POP POP JUMP JUMPDEST PUSH32 0x0 PUSH2 0x211D DUP2 PUSH2 0x1DD2 JUMP JUMPDEST PUSH2 0x2128 DUP5 DUP5 DUP5 PUSH2 0x2655 JUMP JUMPDEST POP POP POP POP JUMP JUMPDEST PUSH2 0x2138 DUP3 DUP3 PUSH2 0x12A4 JUMP JUMPDEST ISZERO PUSH2 0x220C JUMPI PUSH1 0x0 PUSH1 0x1 PUSH1 0x0 DUP5 DUP2 MSTORE PUSH1 0x20 ADD SWAP1 DUP2 MSTORE PUSH1 0x20 ADD PUSH1 0x0 KECCAK256 PUSH1 0x0 ADD PUSH1 0x0 DUP4 PUSH20 0xFFFFFFFFFFFFFFFFFFFFFFFFFFFFFFFFFFFFFFFF AND PUSH20 0xFFFFFFFFFFFFFFFFFFFFFFFFFFFFFFFFFFFFFFFF AND DUP2 MSTORE PUSH1 0x20 ADD SWAP1 DUP2 MSTORE PUSH1 0x20 ADD PUSH1 0x0 KECCAK256 PUSH1 0x0 PUSH2 0x100 EXP DUP2 SLOAD DUP2 PUSH1 0xFF MUL NOT AND SWAP1 DUP4 ISZERO ISZERO MUL OR SWAP1 SSTORE POP PUSH2 0x21B1 PUSH2 0x1AA6 JUMP JUMPDEST PUSH20 0xFFFFFFFFFFFFFFFFFFFFFFFFFFFFFFFFFFFFFFFF AND DUP2 PUSH20 0xFFFFFFFFFFFFFFFFFFFFFFFFFFFFFFFFFFFFFFFF AND DUP4 PUSH32 0xF6391F5C32D9C69D2A47EA670B442974B53935D1EDC7FD64EB21E047A839171B PUSH1 0x40 MLOAD PUSH1 0x40 MLOAD DUP1 SWAP2 SUB SWAP1 LOG4 JUMPDEST POP POP JUMP JUMPDEST PUSH1 0x0 PUSH20 0xFFFFFFFFFFFFFFFFFFFFFFFFFFFFFFFFFFFFFFFF AND DUP4 PUSH20 0xFFFFFFFFFFFFFFFFFFFFFFFFFFFFFFFFFFFFFFFF AND SUB PUSH2 0x227F JUMPI PUSH1 0x40 MLOAD PUSH32 0x8C379A000000000000000000000000000000000000000000000000000000000 DUP2 MSTORE PUSH1 0x4 ADD PUSH2 0x2276 SWAP1 PUSH2 0x4C2C JUMP JUMPDEST PUSH1 0x40 MLOAD DUP1 SWAP2 SUB SWAP1 REVERT JUMPDEST DUP1 MLOAD DUP3 MLOAD EQ PUSH2 0x22C3 JUMPI PUSH1 0x40 MLOAD PUSH32 0x8C379A000000000000000000000000000000000000000000000000000000000 DUP2 MSTORE PUSH1 0x4 ADD PUSH2 0x22BA SWAP1 PUSH2 0x49AD JUMP JUMPDEST PUSH1 0x40 MLOAD DUP1 SWAP2 SUB SWAP1 REVERT JUMPDEST PUSH1 0x0 PUSH2 0x22CD PUSH2 0x1AA6 JUMP JUMPDEST SWAP1 POP PUSH2 0x22ED DUP2 DUP6 PUSH1 0x0 DUP7 DUP7 PUSH1 0x40 MLOAD DUP1 PUSH1 0x20 ADD PUSH1 0x40 MSTORE DUP1 PUSH1 0x0 DUP2 MSTORE POP PUSH2 0x2D21 JUMP JUMPDEST PUSH1 0x0 JUMPDEST DUP4 MLOAD DUP2 LT ISZERO PUSH2 0x243C JUMPI PUSH1 0x0 DUP5 DUP3 DUP2 MLOAD DUP2 LT PUSH2 0x230E JUMPI PUSH2 0x230D PUSH2 0x4624 JUMP JUMPDEST JUMPDEST PUSH1 0x20 MUL PUSH1 0x20 ADD ADD MLOAD SWAP1 POP PUSH1 0x0 DUP5 DUP4 DUP2 MLOAD DUP2 LT PUSH2 0x232D JUMPI PUSH2 0x232C PUSH2 0x4624 JUMP JUMPDEST JUMPDEST PUSH1 0x20 MUL PUSH1 0x20 ADD ADD MLOAD SWAP1 POP PUSH1 0x0 PUSH1 0x2 PUSH1 0x0 DUP5 DUP2 MSTORE PUSH1 0x20 ADD SWAP1 DUP2 MSTORE PUSH1 0x20 ADD PUSH1 0x0 KECCAK256 PUSH1 0x0 DUP10 PUSH20 0xFFFFFFFFFFFFFFFFFFFFFFFFFFFFFFFFFFFFFFFF AND PUSH20 0xFFFFFFFFFFFFFFFFFFFFFFFFFFFFFFFFFFFFFFFF AND DUP2 MSTORE PUSH1 0x20 ADD SWAP1 DUP2 MSTORE PUSH1 0x20 ADD PUSH1 0x0 KECCAK256 SLOAD SWAP1 POP DUP2 DUP2 LT ISZERO PUSH2 0x23CF JUMPI PUSH1 0x40 MLOAD PUSH32 0x8C379A000000000000000000000000000000000000000000000000000000000 DUP2 MSTORE PUSH1 0x4 ADD PUSH2 0x23C6 SWAP1 PUSH2 0x4CBE JUMP JUMPDEST PUSH1 0x40 MLOAD DUP1 SWAP2 SUB SWAP1 REVERT JUMPDEST DUP2 DUP2 SUB PUSH1 0x2 PUSH1 0x0 DUP6 DUP2 MSTORE PUSH1 0x20 ADD SWAP1 DUP2 MSTORE PUSH1 0x20 ADD PUSH1 0x0 KECCAK256 PUSH1 0x0 DUP11 PUSH20 0xFFFFFFFFFFFFFFFFFFFFFFFFFFFFFFFFFFFFFFFF AND PUSH20 0xFFFFFFFFFFFFFFFFFFFFFFFFFFFFFFFFFFFFFFFF AND DUP2 MSTORE PUSH1 0x20 ADD SWAP1 DUP2 MSTORE PUSH1 0x20 ADD PUSH1 0x0 KECCAK256 DUP2 SWAP1 SSTORE POP POP POP POP DUP1 DUP1 PUSH2 0x2434 SWAP1 PUSH2 0x4653 JUMP JUMPDEST SWAP2 POP POP PUSH2 0x22F0 JUMP JUMPDEST POP PUSH1 0x0 PUSH20 0xFFFFFFFFFFFFFFFFFFFFFFFFFFFFFFFFFFFFFFFF AND DUP5 PUSH20 0xFFFFFFFFFFFFFFFFFFFFFFFFFFFFFFFFFFFFFFFF AND DUP3 PUSH20 0xFFFFFFFFFFFFFFFFFFFFFFFFFFFFFFFFFFFFFFFF AND PUSH32 0x4A39DC06D4C0DBC64B70AF90FD698A233A518AA5D07E595D983B8C0526C8F7FB DUP7 DUP7 PUSH1 0x40 MLOAD PUSH2 0x24B4 SWAP3 SWAP2 SWAP1 PUSH2 0x4AF1 JUMP JUMPDEST PUSH1 0x40 MLOAD DUP1 SWAP2 SUB SWAP1 LOG4 PUSH2 0x24DA DUP2 DUP6 PUSH1 0x0 DUP7 DUP7 PUSH1 0x40 MLOAD DUP1 PUSH1 0x20 ADD PUSH1 0x40 MSTORE DUP1 PUSH1 0x0 DUP2 MSTORE POP PUSH2 0x2D29 JUMP JUMPDEST POP POP POP POP JUMP JUMPDEST PUSH2 0x24E8 PUSH2 0x1AA6 JUMP JUMPDEST PUSH20 0xFFFFFFFFFFFFFFFFFFFFFFFFFFFFFFFFFFFFFFFF AND PUSH2 0x2506 PUSH2 0x127B JUMP JUMPDEST PUSH20 0xFFFFFFFFFFFFFFFFFFFFFFFFFFFFFFFFFFFFFFFF AND EQ PUSH2 0x255C JUMPI PUSH1 0x40 MLOAD PUSH32 0x8C379A000000000000000000000000000000000000000000000000000000000 DUP2 MSTORE PUSH1 0x4 ADD PUSH2 0x2553 SWAP1 PUSH2 0x4D2A JUMP JUMPDEST PUSH1 0x40 MLOAD DUP1 SWAP2 SUB SWAP1 REVERT JUMPDEST JUMP JUMPDEST PUSH1 0x0 DUP1 PUSH1 0x0 SWAP1 SLOAD SWAP1 PUSH2 0x100 EXP SWAP1 DIV PUSH20 0xFFFFFFFFFFFFFFFFFFFFFFFFFFFFFFFFFFFFFFFF AND SWAP1 POP DUP2 PUSH1 0x0 DUP1 PUSH2 0x100 EXP DUP2 SLOAD DUP2 PUSH20 0xFFFFFFFFFFFFFFFFFFFFFFFFFFFFFFFFFFFFFFFF MUL NOT AND SWAP1 DUP4 PUSH20 0xFFFFFFFFFFFFFFFFFFFFFFFFFFFFFFFFFFFFFFFF AND MUL OR SWAP1 SSTORE POP DUP2 PUSH20 0xFFFFFFFFFFFFFFFFFFFFFFFFFFFFFFFFFFFFFFFF AND DUP2 PUSH20 0xFFFFFFFFFFFFFFFFFFFFFFFFFFFFFFFFFFFFFFFF AND PUSH32 0x8BE0079C531659141344CD1FD0A4F28419497F9722A3DAAFE3B4186F6B6457E0 PUSH1 0x40 MLOAD PUSH1 0x40 MLOAD DUP1 SWAP2 SUB SWAP1 LOG3 POP POP JUMP JUMPDEST PUSH1 0x0 PUSH1 0x9 PUSH1 0x0 DUP4 PUSH1 0xFF AND PUSH1 0xFF AND DUP2 MSTORE PUSH1 0x20 ADD SWAP1 DUP2 MSTORE PUSH1 0x20 ADD PUSH1 0x0 KECCAK256 PUSH1 0x0 ADD PUSH1 0x1E SWAP1 SLOAD SWAP1 PUSH2 0x100 EXP SWAP1 DIV PUSH1 0xFF AND SWAP1 POP SWAP2 SWAP1 POP JUMP JUMPDEST DUP2 PUSH20 0xFFFFFFFFFFFFFFFFFFFFFFFFFFFFFFFFFFFFFFFF AND DUP4 PUSH20 0xFFFFFFFFFFFFFFFFFFFFFFFFFFFFFFFFFFFFFFFF AND SUB PUSH2 0x26C3 JUMPI PUSH1 0x40 MLOAD PUSH32 0x8C379A000000000000000000000000000000000000000000000000000000000 DUP2 MSTORE PUSH1 0x4 ADD PUSH2 0x26BA SWAP1 PUSH2 0x4DBC JUMP JUMPDEST PUSH1 0x40 MLOAD DUP1 SWAP2 SUB SWAP1 REVERT JUMPDEST DUP1 PUSH1 0x3 PUSH1 0x0 DUP6 PUSH20 0xFFFFFFFFFFFFFFFFFFFFFFFFFFFFFFFFFFFFFFFF AND PUSH20 0xFFFFFFFFFFFFFFFFFFFFFFFFFFFFFFFFFFFFFFFF AND DUP2 MSTORE PUSH1 0x20 ADD SWAP1 DUP2 MSTORE PUSH1 0x20 ADD PUSH1 0x0 KECCAK256 PUSH1 0x0 DUP5 PUSH20 0xFFFFFFFFFFFFFFFFFFFFFFFFFFFFFFFFFFFFFFFF AND PUSH20 0xFFFFFFFFFFFFFFFFFFFFFFFFFFFFFFFFFFFFFFFF AND DUP2 MSTORE PUSH1 0x20 ADD SWAP1 DUP2 MSTORE PUSH1 0x20 ADD PUSH1 0x0 KECCAK256 PUSH1 0x0 PUSH2 0x100 EXP DUP2 SLOAD DUP2 PUSH1 0xFF MUL NOT AND SWAP1 DUP4 ISZERO ISZERO MUL OR SWAP1 SSTORE POP DUP2 PUSH20 0xFFFFFFFFFFFFFFFFFFFFFFFFFFFFFFFFFFFFFFFF AND DUP4 PUSH20 0xFFFFFFFFFFFFFFFFFFFFFFFFFFFFFFFFFFFFFFFF AND PUSH32 0x17307EAB39AB6107E8899845AD3D59BD9653F200F220920489CA2B5937696C31 DUP4 PUSH1 0x40 MLOAD PUSH2 0x27B4 SWAP2 SWAP1 PUSH2 0x33FA JUMP JUMPDEST PUSH1 0x40 MLOAD DUP1 SWAP2 SUB SWAP1 LOG3 POP POP POP JUMP JUMPDEST PUSH1 0x0 PUSH20 0xFFFFFFFFFFFFFFFFFFFFFFFFFFFFFFFFFFFFFFFF AND DUP5 PUSH20 0xFFFFFFFFFFFFFFFFFFFFFFFFFFFFFFFFFFFFFFFF AND SUB PUSH2 0x2830 JUMPI PUSH1 0x40 MLOAD PUSH32 0x8C379A000000000000000000000000000000000000000000000000000000000 DUP2 MSTORE PUSH1 0x4 ADD PUSH2 0x2827 SWAP1 PUSH2 0x4A3F JUMP JUMPDEST PUSH1 0x40 MLOAD DUP1 SWAP2 SUB SWAP1 REVERT JUMPDEST PUSH1 0x0 PUSH2 0x283A PUSH2 0x1AA6 JUMP JUMPDEST SWAP1 POP PUSH1 0x0 PUSH2 0x2847 DUP6 PUSH2 0x2F8D JUMP JUMPDEST SWAP1 POP PUSH1 0x0 PUSH2 0x2854 DUP6 PUSH2 0x2F8D JUMP JUMPDEST SWAP1 POP PUSH2 0x2864 DUP4 DUP10 DUP10 DUP6 DUP6 DUP10 PUSH2 0x2D21 JUMP JUMPDEST PUSH1 0x0 PUSH1 0x2 PUSH1 0x0 DUP9 DUP2 MSTORE PUSH1 0x20 ADD SWAP1 DUP2 MSTORE PUSH1 0x20 ADD PUSH1 0x0 KECCAK256 PUSH1 0x0 DUP11 PUSH20 0xFFFFFFFFFFFFFFFFFFFFFFFFFFFFFFFFFFFFFFFF AND PUSH20 0xFFFFFFFFFFFFFFFFFFFFFFFFFFFFFFFFFFFFFFFF AND DUP2 MSTORE PUSH1 0x20 ADD SWAP1 DUP2 MSTORE PUSH1 0x20 ADD PUSH1 0x0 KECCAK256 SLOAD SWAP1 POP DUP6 DUP2 LT ISZERO PUSH2 0x28FC JUMPI PUSH1 0x40 MLOAD PUSH32 0x8C379A000000000000000000000000000000000000000000000000000000000 DUP2 MSTORE PUSH1 0x4 ADD PUSH2 0x28F3 SWAP1 PUSH2 0x4AD1 JUMP JUMPDEST PUSH1 0x40 MLOAD DUP1 SWAP2 SUB SWAP1 REVERT JUMPDEST DUP6 DUP2 SUB PUSH1 0x2 PUSH1 0x0 DUP10 DUP2 MSTORE PUSH1 0x20 ADD SWAP1 DUP2 MSTORE PUSH1 0x20 ADD PUSH1 0x0 KECCAK256 PUSH1 0x0 DUP12 PUSH20 0xFFFFFFFFFFFFFFFFFFFFFFFFFFFFFFFFFFFFFFFF AND PUSH20 0xFFFFFFFFFFFFFFFFFFFFFFFFFFFFFFFFFFFFFFFF AND DUP2 MSTORE PUSH1 0x20 ADD SWAP1 DUP2 MSTORE PUSH1 0x20 ADD PUSH1 0x0 KECCAK256 DUP2 SWAP1 SSTORE POP DUP6 PUSH1 0x2 PUSH1 0x0 DUP10 DUP2 MSTORE PUSH1 0x20 ADD SWAP1 DUP2 MSTORE PUSH1 0x20 ADD PUSH1 0x0 KECCAK256 PUSH1 0x0 DUP11 PUSH20 0xFFFFFFFFFFFFFFFFFFFFFFFFFFFFFFFFFFFFFFFF AND PUSH20 0xFFFFFFFFFFFFFFFFFFFFFFFFFFFFFFFFFFFFFFFF AND DUP2 MSTORE PUSH1 0x20 ADD SWAP1 DUP2 MSTORE PUSH1 0x20 ADD PUSH1 0x0 KECCAK256 PUSH1 0x0 DUP3 DUP3 SLOAD PUSH2 0x29B3 SWAP2 SWAP1 PUSH2 0x4850 JUMP JUMPDEST SWAP3 POP POP DUP2 SWAP1 SSTORE POP DUP8 PUSH20 0xFFFFFFFFFFFFFFFFFFFFFFFFFFFFFFFFFFFFFFFF AND DUP10 PUSH20 0xFFFFFFFFFFFFFFFFFFFFFFFFFFFFFFFFFFFFFFFF AND DUP6 PUSH20 0xFFFFFFFFFFFFFFFFFFFFFFFFFFFFFFFFFFFFFFFF AND PUSH32 0xC3D58168C5AE7397731D063D5BBF3D657854427343F4C083240F7AACAA2D0F62 DUP11 DUP11 PUSH1 0x40 MLOAD PUSH2 0x2A30 SWAP3 SWAP2 SWAP1 PUSH2 0x4DDC JUMP JUMPDEST PUSH1 0x40 MLOAD DUP1 SWAP2 SUB SWAP1 LOG4 PUSH2 0x2A46 DUP5 DUP11 DUP11 DUP7 DUP7 DUP11 PUSH2 0x2D29 JUMP JUMPDEST PUSH2 0x2A54 DUP5 DUP11 DUP11 DUP11 DUP11 DUP11 PUSH2 0x3007 JUMP JUMPDEST POP POP POP POP POP POP POP POP POP JUMP JUMPDEST PUSH1 0x0 PUSH20 0xFFFFFFFFFFFFFFFFFFFFFFFFFFFFFFFFFFFFFFFF AND DUP4 PUSH20 0xFFFFFFFFFFFFFFFFFFFFFFFFFFFFFFFFFFFFFFFF AND SUB PUSH2 0x2ACE JUMPI PUSH1 0x40 MLOAD PUSH32 0x8C379A000000000000000000000000000000000000000000000000000000000 DUP2 MSTORE PUSH1 0x4 ADD PUSH2 0x2AC5 SWAP1 PUSH2 0x4C2C JUMP JUMPDEST PUSH1 0x40 MLOAD DUP1 SWAP2 SUB SWAP1 REVERT JUMPDEST PUSH1 0x0 PUSH2 0x2AD8 PUSH2 0x1AA6 JUMP JUMPDEST SWAP1 POP PUSH1 0x0 PUSH2 0x2AE5 DUP5 PUSH2 0x2F8D JUMP JUMPDEST SWAP1 POP PUSH1 0x0 PUSH2 0x2AF2 DUP5 PUSH2 0x2F8D JUMP JUMPDEST SWAP1 POP PUSH2 0x2B12 DUP4 DUP8 PUSH1 0x0 DUP6 DUP6 PUSH1 0x40 MLOAD DUP1 PUSH1 0x20 ADD PUSH1 0x40 MSTORE DUP1 PUSH1 0x0 DUP2 MSTORE POP PUSH2 0x2D21 JUMP JUMPDEST PUSH1 0x0 PUSH1 0x2 PUSH1 0x0 DUP8 DUP2 MSTORE PUSH1 0x20 ADD SWAP1 DUP2 MSTORE PUSH1 0x20 ADD PUSH1 0x0 KECCAK256 PUSH1 0x0 DUP9 PUSH20 0xFFFFFFFFFFFFFFFFFFFFFFFFFFFFFFFFFFFFFFFF AND PUSH20 0xFFFFFFFFFFFFFFFFFFFFFFFFFFFFFFFFFFFFFFFF AND DUP2 MSTORE PUSH1 0x20 ADD SWAP1 DUP2 MSTORE PUSH1 0x20 ADD PUSH1 0x0 KECCAK256 SLOAD SWAP1 POP DUP5 DUP2 LT ISZERO PUSH2 0x2BAA JUMPI PUSH1 0x40 MLOAD PUSH32 0x8C379A000000000000000000000000000000000000000000000000000000000 DUP2 MSTORE PUSH1 0x4 ADD PUSH2 0x2BA1 SWAP1 PUSH2 0x4CBE JUMP JUMPDEST PUSH1 0x40 MLOAD DUP1 SWAP2 SUB SWAP1 REVERT JUMPDEST DUP5 DUP2 SUB PUSH1 0x2 PUSH1 0x0 DUP9 DUP2 MSTORE PUSH1 0x20 ADD SWAP1 DUP2 MSTORE PUSH1 0x20 ADD PUSH1 0x0 KECCAK256 PUSH1 0x0 DUP10 PUSH20 0xFFFFFFFFFFFFFFFFFFFFFFFFFFFFFFFFFFFFFFFF AND PUSH20 0xFFFFFFFFFFFFFFFFFFFFFFFFFFFFFFFFFFFFFFFF AND DUP2 MSTORE PUSH1 0x20 ADD SWAP1 DUP2 MSTORE PUSH1 0x20 ADD PUSH1 0x0 KECCAK256 DUP2 SWAP1 SSTORE POP PUSH1 0x0 PUSH20 0xFFFFFFFFFFFFFFFFFFFFFFFFFFFFFFFFFFFFFFFF AND DUP8 PUSH20 0xFFFFFFFFFFFFFFFFFFFFFFFFFFFFFFFFFFFFFFFF AND DUP6 PUSH20 0xFFFFFFFFFFFFFFFFFFFFFFFFFFFFFFFFFFFFFFFF AND PUSH32 0xC3D58168C5AE7397731D063D5BBF3D657854427343F4C083240F7AACAA2D0F62 DUP10 DUP10 PUSH1 0x40 MLOAD PUSH2 0x2C78 SWAP3 SWAP2 SWAP1 PUSH2 0x4DDC JUMP JUMPDEST PUSH1 0x40 MLOAD DUP1 SWAP2 SUB SWAP1 LOG4 PUSH2 0x2C9E DUP5 DUP9 PUSH1 0x0 DUP7 DUP7 PUSH1 0x40 MLOAD DUP1 PUSH1 0x20 ADD PUSH1 0x40 MSTORE DUP1 PUSH1 0x0 DUP2 MSTORE POP PUSH2 0x2D29 JUMP JUMPDEST POP POP POP POP POP POP POP JUMP JUMPDEST PUSH1 0x0 PUSH32 0x7965DB0B00000000000000000000000000000000000000000000000000000000 PUSH28 0xFFFFFFFFFFFFFFFFFFFFFFFFFFFFFFFFFFFFFFFFFFFFFFFFFFFFFFFF NOT AND DUP3 PUSH28 0xFFFFFFFFFFFFFFFFFFFFFFFFFFFFFFFFFFFFFFFFFFFFFFFFFFFFFFFF NOT AND EQ DUP1 PUSH2 0x2D1A JUMPI POP PUSH2 0x2D19 DUP3 PUSH2 0x31DE JUMP JUMPDEST JUMPDEST SWAP1 POP SWAP2 SWAP1 POP JUMP JUMPDEST POP POP POP POP POP POP JUMP JUMPDEST POP POP POP POP POP POP JUMP JUMPDEST PUSH2 0x2D50 DUP5 PUSH20 0xFFFFFFFFFFFFFFFFFFFFFFFFFFFFFFFFFFFFFFFF AND PUSH2 0x1738 JUMP JUMPDEST ISZERO PUSH2 0x2F00 JUMPI DUP4 PUSH20 0xFFFFFFFFFFFFFFFFFFFFFFFFFFFFFFFFFFFFFFFF AND PUSH4 0xBC197C81 DUP8 DUP8 DUP7 DUP7 DUP7 PUSH1 0x40 MLOAD DUP7 PUSH4 0xFFFFFFFF AND PUSH1 0xE0 SHL DUP2 MSTORE PUSH1 0x4 ADD PUSH2 0x2D96 SWAP6 SWAP5 SWAP4 SWAP3 SWAP2 SWAP1 PUSH2 0x4E5A JUMP JUMPDEST PUSH1 0x20 PUSH1 0x40 MLOAD DUP1 DUP4 SUB DUP2 PUSH1 0x0 DUP8 GAS CALL SWAP3 POP POP POP DUP1 ISZERO PUSH2 0x2DD2 JUMPI POP PUSH1 0x40 MLOAD RETURNDATASIZE PUSH1 0x1F NOT PUSH1 0x1F DUP3 ADD AND DUP3 ADD DUP1 PUSH1 0x40 MSTORE POP DUP2 ADD SWAP1 PUSH2 0x2DCF SWAP2 SWAP1 PUSH2 0x4ED7 JUMP JUMPDEST PUSH1 0x1 JUMPDEST PUSH2 0x2E77 JUMPI PUSH2 0x2DDE PUSH2 0x4F11 JUMP JUMPDEST DUP1 PUSH4 0x8C379A0 SUB PUSH2 0x2E3A JUMPI POP PUSH2 0x2DF2 PUSH2 0x4F33 JUMP JUMPDEST DUP1 PUSH2 0x2DFD JUMPI POP PUSH2 0x2E3C JUMP JUMPDEST DUP1 PUSH1 0x40 MLOAD PUSH32 0x8C379A000000000000000000000000000000000000000000000000000000000 DUP2 MSTORE PUSH1 0x4 ADD PUSH2 0x2E31 SWAP2 SWAP1 PUSH2 0x3513 JUMP JUMPDEST PUSH1 0x40 MLOAD DUP1 SWAP2 SUB SWAP1 REVERT JUMPDEST POP JUMPDEST PUSH1 0x40 MLOAD PUSH32 0x8C379A000000000000000000000000000000000000000000000000000000000 DUP2 MSTORE PUSH1 0x4 ADD PUSH2 0x2E6E SWAP1 PUSH2 0x5035 JUMP JUMPDEST PUSH1 0x40 MLOAD DUP1 SWAP2 SUB SWAP1 REVERT JUMPDEST PUSH4 0xBC197C81 PUSH1 0xE0 SHL PUSH28 0xFFFFFFFFFFFFFFFFFFFFFFFFFFFFFFFFFFFFFFFFFFFFFFFFFFFFFFFF NOT AND DUP2 PUSH28 0xFFFFFFFFFFFFFFFFFFFFFFFFFFFFFFFFFFFFFFFFFFFFFFFFFFFFFFFF NOT AND EQ PUSH2 0x2EFE JUMPI PUSH1 0x40 MLOAD PUSH32 0x8C379A000000000000000000000000000000000000000000000000000000000 DUP2 MSTORE PUSH1 0x4 ADD PUSH2 0x2EF5 SWAP1 PUSH2 0x50C7 JUMP JUMPDEST PUSH1 0x40 MLOAD DUP1 SWAP2 SUB SWAP1 REVERT JUMPDEST POP JUMPDEST POP POP POP POP POP POP JUMP JUMPDEST PUSH2 0x2F12 DUP3 DUP3 PUSH2 0x12A4 JUMP JUMPDEST PUSH2 0x2F89 JUMPI PUSH2 0x2F1F DUP2 PUSH2 0x175B JUMP JUMPDEST PUSH2 0x2F2D DUP4 PUSH1 0x0 SHR PUSH1 0x20 PUSH2 0x1788 JUMP JUMPDEST PUSH1 0x40 MLOAD PUSH1 0x20 ADD PUSH2 0x2F3E SWAP3 SWAP2 SWAP1 PUSH2 0x51BB JUMP JUMPDEST PUSH1 0x40 MLOAD PUSH1 0x20 DUP2 DUP4 SUB SUB DUP2 MSTORE SWAP1 PUSH1 0x40 MSTORE PUSH1 0x40 MLOAD PUSH32 0x8C379A000000000000000000000000000000000000000000000000000000000 DUP2 MSTORE PUSH1 0x4 ADD PUSH2 0x2F80 SWAP2 SWAP1 PUSH2 0x3513 JUMP JUMPDEST PUSH1 0x40 MLOAD DUP1 SWAP2 SUB SWAP1 REVERT JUMPDEST POP POP JUMP JUMPDEST PUSH1 0x60 PUSH1 0x0 PUSH1 0x1 PUSH8 0xFFFFFFFFFFFFFFFF DUP2 GT ISZERO PUSH2 0x2FAC JUMPI PUSH2 0x2FAB PUSH2 0x37B3 JUMP JUMPDEST JUMPDEST PUSH1 0x40 MLOAD SWAP1 DUP1 DUP3 MSTORE DUP1 PUSH1 0x20 MUL PUSH1 0x20 ADD DUP3 ADD PUSH1 0x40 MSTORE DUP1 ISZERO PUSH2 0x2FDA JUMPI DUP2 PUSH1 0x20 ADD PUSH1 0x20 DUP3 MUL DUP1 CALLDATASIZE DUP4 CALLDATACOPY DUP1 DUP3 ADD SWAP2 POP POP SWAP1 POP JUMPDEST POP SWAP1 POP DUP3 DUP2 PUSH1 0x0 DUP2 MLOAD DUP2 LT PUSH2 0x2FF2 JUMPI PUSH2 0x2FF1 PUSH2 0x4624 JUMP JUMPDEST JUMPDEST PUSH1 0x20 MUL PUSH1 0x20 ADD ADD DUP2 DUP2 MSTORE POP POP DUP1 SWAP2 POP POP SWAP2 SWAP1 POP JUMP JUMPDEST PUSH2 0x3026 DUP5 PUSH20 0xFFFFFFFFFFFFFFFFFFFFFFFFFFFFFFFFFFFFFFFF AND PUSH2 0x1738 JUMP JUMPDEST ISZERO PUSH2 0x31D6 JUMPI DUP4 PUSH20 0xFFFFFFFFFFFFFFFFFFFFFFFFFFFFFFFFFFFFFFFF AND PUSH4 0xF23A6E61 DUP8 DUP8 DUP7 DUP7 DUP7 PUSH1 0x40 MLOAD DUP7 PUSH4 0xFFFFFFFF AND PUSH1 0xE0 SHL DUP2 MSTORE PUSH1 0x4 ADD PUSH2 0x306C SWAP6 SWAP5 SWAP4 SWAP3 SWAP2 SWAP1 PUSH2 0x51F5 JUMP JUMPDEST PUSH1 0x20 PUSH1 0x40 MLOAD DUP1 DUP4 SUB DUP2 PUSH1 0x0 DUP8 GAS CALL SWAP3 POP POP POP DUP1 ISZERO PUSH2 0x30A8 JUMPI POP PUSH1 0x40 MLOAD RETURNDATASIZE PUSH1 0x1F NOT PUSH1 0x1F DUP3 ADD AND DUP3 ADD DUP1 PUSH1 0x40 MSTORE POP DUP2 ADD SWAP1 PUSH2 0x30A5 SWAP2 SWAP1 PUSH2 0x4ED7 JUMP JUMPDEST PUSH1 0x1 JUMPDEST PUSH2 0x314D JUMPI PUSH2 0x30B4 PUSH2 0x4F11 JUMP JUMPDEST DUP1 PUSH4 0x8C379A0 SUB PUSH2 0x3110 JUMPI POP PUSH2 0x30C8 PUSH2 0x4F33 JUMP JUMPDEST DUP1 PUSH2 0x30D3 JUMPI POP PUSH2 0x3112 JUMP JUMPDEST DUP1 PUSH1 0x40 MLOAD PUSH32 0x8C379A000000000000000000000000000000000000000000000000000000000 DUP2 MSTORE PUSH1 0x4 ADD PUSH2 0x3107 SWAP2 SWAP1 PUSH2 0x3513 JUMP JUMPDEST PUSH1 0x40 MLOAD DUP1 SWAP2 SUB SWAP1 REVERT JUMPDEST POP JUMPDEST PUSH1 0x40 MLOAD PUSH32 0x8C379A000000000000000000000000000000000000000000000000000000000 DUP2 MSTORE PUSH1 0x4 ADD PUSH2 0x3144 SWAP1 PUSH2 0x5035 JUMP JUMPDEST PUSH1 0x40 MLOAD DUP1 SWAP2 SUB SWAP1 REVERT JUMPDEST PUSH4 0xF23A6E61 PUSH1 0xE0 SHL PUSH28 0xFFFFFFFFFFFFFFFFFFFFFFFFFFFFFFFFFFFFFFFFFFFFFFFFFFFFFFFF NOT AND DUP2 PUSH28 0xFFFFFFFFFFFFFFFFFFFFFFFFFFFFFFFFFFFFFFFFFFFFFFFFFFFFFFFF NOT AND EQ PUSH2 0x31D4 JUMPI PUSH1 0x40 MLOAD PUSH32 0x8C379A000000000000000000000000000000000000000000000000000000000 DUP2 MSTORE PUSH1 0x4 ADD PUSH2 0x31CB SWAP1 PUSH2 0x50C7 JUMP JUMPDEST PUSH1 0x40 MLOAD DUP1 SWAP2 SUB SWAP1 REVERT JUMPDEST POP JUMPDEST POP POP POP POP POP POP JUMP JUMPDEST PUSH1 0x0 PUSH32 0x1FFC9A700000000000000000000000000000000000000000000000000000000 PUSH28 0xFFFFFFFFFFFFFFFFFFFFFFFFFFFFFFFFFFFFFFFFFFFFFFFFFFFFFFFF NOT AND DUP3 PUSH28 0xFFFFFFFFFFFFFFFFFFFFFFFFFFFFFFFFFFFFFFFFFFFFFFFFFFFFFFFF NOT AND EQ SWAP1 POP SWAP2 SWAP1 POP JUMP JUMPDEST PUSH1 0x0 PUSH1 0x40 MLOAD SWAP1 POP SWAP1 JUMP JUMPDEST PUSH1 0x0 DUP1 REVERT JUMPDEST PUSH1 0x0 DUP1 REVERT JUMPDEST PUSH1 0x0 PUSH20 0xFFFFFFFFFFFFFFFFFFFFFFFFFFFFFFFFFFFFFFFF DUP3 AND SWAP1 POP SWAP2 SWAP1 POP JUMP JUMPDEST PUSH1 0x0 PUSH2 0x3287 DUP3 PUSH2 0x325C JUMP JUMPDEST SWAP1 POP SWAP2 SWAP1 POP JUMP JUMPDEST PUSH2 0x3297 DUP2 PUSH2 0x327C JUMP JUMPDEST DUP2 EQ PUSH2 0x32A2 JUMPI PUSH1 0x0 DUP1 REVERT JUMPDEST POP JUMP JUMPDEST PUSH1 0x0 DUP2 CALLDATALOAD SWAP1 POP PUSH2 0x32B4 DUP2 PUSH2 0x328E JUMP JUMPDEST SWAP3 SWAP2 POP POP JUMP JUMPDEST PUSH1 0x0 DUP2 SWAP1 POP SWAP2 SWAP1 POP JUMP JUMPDEST PUSH2 0x32CD DUP2 PUSH2 0x32BA JUMP JUMPDEST DUP2 EQ PUSH2 0x32D8 JUMPI PUSH1 0x0 DUP1 REVERT JUMPDEST POP JUMP JUMPDEST PUSH1 0x0 DUP2 CALLDATALOAD SWAP1 POP PUSH2 0x32EA DUP2 PUSH2 0x32C4 JUMP JUMPDEST SWAP3 SWAP2 POP POP JUMP JUMPDEST PUSH1 0x0 DUP1 PUSH1 0x40 DUP4 DUP6 SUB SLT ISZERO PUSH2 0x3307 JUMPI PUSH2 0x3306 PUSH2 0x3252 JUMP JUMPDEST JUMPDEST PUSH1 0x0 PUSH2 0x3315 DUP6 DUP3 DUP7 ADD PUSH2 0x32A5 JUMP JUMPDEST SWAP3 POP POP PUSH1 0x20 PUSH2 0x3326 DUP6 DUP3 DUP7 ADD PUSH2 0x32DB JUMP JUMPDEST SWAP2 POP POP SWAP3 POP SWAP3 SWAP1 POP JUMP JUMPDEST PUSH2 0x3339 DUP2 PUSH2 0x32BA JUMP JUMPDEST DUP3 MSTORE POP POP JUMP JUMPDEST PUSH1 0x0 PUSH1 0x20 DUP3 ADD SWAP1 POP PUSH2 0x3354 PUSH1 0x0 DUP4 ADD DUP5 PUSH2 0x3330 JUMP JUMPDEST SWAP3 SWAP2 POP POP JUMP JUMPDEST PUSH1 0x0 PUSH32 0xFFFFFFFF00000000000000000000000000000000000000000000000000000000 DUP3 AND SWAP1 POP SWAP2 SWAP1 POP JUMP JUMPDEST PUSH2 0x338F DUP2 PUSH2 0x335A JUMP JUMPDEST DUP2 EQ PUSH2 0x339A JUMPI PUSH1 0x0 DUP1 REVERT JUMPDEST POP JUMP JUMPDEST PUSH1 0x0 DUP2 CALLDATALOAD SWAP1 POP PUSH2 0x33AC DUP2 PUSH2 0x3386 JUMP JUMPDEST SWAP3 SWAP2 POP POP JUMP JUMPDEST PUSH1 0x0 PUSH1 0x20 DUP3 DUP5 SUB SLT ISZERO PUSH2 0x33C8 JUMPI PUSH2 0x33C7 PUSH2 0x3252 JUMP JUMPDEST JUMPDEST PUSH1 0x0 PUSH2 0x33D6 DUP5 DUP3 DUP6 ADD PUSH2 0x339D JUMP JUMPDEST SWAP2 POP POP SWAP3 SWAP2 POP POP JUMP JUMPDEST PUSH1 0x0 DUP2 ISZERO ISZERO SWAP1 POP SWAP2 SWAP1 POP JUMP JUMPDEST PUSH2 0x33F4 DUP2 PUSH2 0x33DF JUMP JUMPDEST DUP3 MSTORE POP POP JUMP JUMPDEST PUSH1 0x0 PUSH1 0x20 DUP3 ADD SWAP1 POP PUSH2 0x340F PUSH1 0x0 DUP4 ADD DUP5 PUSH2 0x33EB JUMP JUMPDEST SWAP3 SWAP2 POP POP JUMP JUMPDEST PUSH1 0x0 PUSH2 0xFFFF DUP3 AND SWAP1 POP SWAP2 SWAP1 POP JUMP JUMPDEST PUSH2 0x342C DUP2 PUSH2 0x3415 JUMP JUMPDEST DUP3 MSTORE POP POP JUMP JUMPDEST PUSH1 0x0 PUSH1 0x20 DUP3 ADD SWAP1 POP PUSH2 0x3447 PUSH1 0x0 DUP4 ADD DUP5 PUSH2 0x3423 JUMP JUMPDEST SWAP3 SWAP2 POP POP JUMP JUMPDEST PUSH1 0x0 PUSH1 0x20 DUP3 DUP5 SUB SLT ISZERO PUSH2 0x3463 JUMPI PUSH2 0x3462 PUSH2 0x3252 JUMP JUMPDEST JUMPDEST PUSH1 0x0 PUSH2 0x3471 DUP5 DUP3 DUP6 ADD PUSH2 0x32DB JUMP JUMPDEST SWAP2 POP POP SWAP3 SWAP2 POP POP JUMP JUMPDEST PUSH1 0x0 DUP2 MLOAD SWAP1 POP SWAP2 SWAP1 POP JUMP JUMPDEST PUSH1 0x0 DUP3 DUP3 MSTORE PUSH1 0x20 DUP3 ADD SWAP1 POP SWAP3 SWAP2 POP POP JUMP JUMPDEST PUSH1 0x0 JUMPDEST DUP4 DUP2 LT ISZERO PUSH2 0x34B4 JUMPI DUP1 DUP3 ADD MLOAD DUP2 DUP5 ADD MSTORE PUSH1 0x20 DUP2 ADD SWAP1 POP PUSH2 0x3499 JUMP JUMPDEST DUP4 DUP2 GT ISZERO PUSH2 0x34C3 JUMPI PUSH1 0x0 DUP5 DUP5 ADD MSTORE JUMPDEST POP POP POP POP JUMP JUMPDEST PUSH1 0x0 PUSH1 0x1F NOT PUSH1 0x1F DUP4 ADD AND SWAP1 POP SWAP2 SWAP1 POP JUMP JUMPDEST PUSH1 0x0 PUSH2 0x34E5 DUP3 PUSH2 0x347A JUMP JUMPDEST PUSH2 0x34EF DUP2 DUP6 PUSH2 0x3485 JUMP JUMPDEST SWAP4 POP PUSH2 0x34FF DUP2 DUP6 PUSH1 0x20 DUP7 ADD PUSH2 0x3496 JUMP JUMPDEST PUSH2 0x3508 DUP2 PUSH2 0x34C9 JUMP JUMPDEST DUP5 ADD SWAP2 POP POP SWAP3 SWAP2 POP POP JUMP JUMPDEST PUSH1 0x0 PUSH1 0x20 DUP3 ADD SWAP1 POP DUP2 DUP2 SUB PUSH1 0x0 DUP4 ADD MSTORE PUSH2 0x352D DUP2 DUP5 PUSH2 0x34DA JUMP JUMPDEST SWAP1 POP SWAP3 SWAP2 POP POP JUMP JUMPDEST PUSH1 0x0 PUSH1 0xFF DUP3 AND SWAP1 POP SWAP2 SWAP1 POP JUMP JUMPDEST PUSH2 0x354B DUP2 PUSH2 0x3535 JUMP JUMPDEST DUP2 EQ PUSH2 0x3556 JUMPI PUSH1 0x0 DUP1 REVERT JUMPDEST POP JUMP JUMPDEST PUSH1 0x0 DUP2 CALLDATALOAD SWAP1 POP PUSH2 0x3568 DUP2 PUSH2 0x3542 JUMP JUMPDEST SWAP3 SWAP2 POP POP JUMP JUMPDEST PUSH1 0x0 PUSH1 0x20 DUP3 DUP5 SUB SLT ISZERO PUSH2 0x3584 JUMPI PUSH2 0x3583 PUSH2 0x3252 JUMP JUMPDEST JUMPDEST PUSH1 0x0 PUSH2 0x3592 DUP5 DUP3 DUP6 ADD PUSH2 0x3559 JUMP JUMPDEST SWAP2 POP POP SWAP3 SWAP2 POP POP JUMP JUMPDEST PUSH2 0x35A4 DUP2 PUSH2 0x327C JUMP JUMPDEST DUP3 MSTORE POP POP JUMP JUMPDEST PUSH32 0x4E487B7100000000000000000000000000000000000000000000000000000000 PUSH1 0x0 MSTORE PUSH1 0x21 PUSH1 0x4 MSTORE PUSH1 0x24 PUSH1 0x0 REVERT JUMPDEST PUSH1 0x2 DUP2 LT PUSH2 0x35EA JUMPI PUSH2 0x35E9 PUSH2 0x35AA JUMP JUMPDEST JUMPDEST POP JUMP JUMPDEST PUSH1 0x0 DUP2 SWAP1 POP PUSH2 0x35FB DUP3 PUSH2 0x35D9 JUMP JUMPDEST SWAP2 SWAP1 POP JUMP JUMPDEST PUSH1 0x0 PUSH2 0x360B DUP3 PUSH2 0x35ED JUMP JUMPDEST SWAP1 POP SWAP2 SWAP1 POP JUMP JUMPDEST PUSH2 0x361B DUP2 PUSH2 0x3600 JUMP JUMPDEST DUP3 MSTORE POP POP JUMP JUMPDEST PUSH1 0x2 DUP2 LT PUSH2 0x3632 JUMPI PUSH2 0x3631 PUSH2 0x35AA JUMP JUMPDEST JUMPDEST POP JUMP JUMPDEST PUSH1 0x0 DUP2 SWAP1 POP PUSH2 0x3643 DUP3 PUSH2 0x3621 JUMP JUMPDEST SWAP2 SWAP1 POP JUMP JUMPDEST PUSH1 0x0 PUSH2 0x3653 DUP3 PUSH2 0x3635 JUMP JUMPDEST SWAP1 POP SWAP2 SWAP1 POP JUMP JUMPDEST PUSH2 0x3663 DUP2 PUSH2 0x3648 JUMP JUMPDEST DUP3 MSTORE POP POP JUMP JUMPDEST PUSH1 0x0 PUSH4 0xFFFFFFFF DUP3 AND SWAP1 POP SWAP2 SWAP1 POP JUMP JUMPDEST PUSH2 0x3682 DUP2 PUSH2 0x3669 JUMP JUMPDEST DUP3 MSTORE POP POP JUMP JUMPDEST PUSH1 0x0 PUSH2 0x100 DUP3 ADD SWAP1 POP PUSH2 0x369E PUSH1 0x0 DUP4 ADD DUP12 PUSH2 0x359B JUMP JUMPDEST PUSH2 0x36AB PUSH1 0x20 DUP4 ADD DUP11 PUSH2 0x3612 JUMP JUMPDEST PUSH2 0x36B8 PUSH1 0x40 DUP4 ADD DUP10 PUSH2 0x3423 JUMP JUMPDEST PUSH2 0x36C5 PUSH1 0x60 DUP4 ADD DUP9 PUSH2 0x3423 JUMP JUMPDEST PUSH2 0x36D2 PUSH1 0x80 DUP4 ADD DUP8 PUSH2 0x365A JUMP JUMPDEST PUSH2 0x36DF PUSH1 0xA0 DUP4 ADD DUP7 PUSH2 0x3679 JUMP JUMPDEST PUSH2 0x36EC PUSH1 0xC0 DUP4 ADD DUP6 PUSH2 0x33EB JUMP JUMPDEST PUSH2 0x36F9 PUSH1 0xE0 DUP4 ADD DUP5 PUSH2 0x359B JUMP JUMPDEST SWAP10 SWAP9 POP POP POP POP POP POP POP POP POP JUMP JUMPDEST PUSH1 0x0 PUSH1 0x20 DUP3 ADD SWAP1 POP PUSH2 0x371B PUSH1 0x0 DUP4 ADD DUP5 PUSH2 0x359B JUMP JUMPDEST SWAP3 SWAP2 POP POP JUMP JUMPDEST PUSH1 0x0 DUP2 SWAP1 POP SWAP2 SWAP1 POP JUMP JUMPDEST PUSH2 0x3734 DUP2 PUSH2 0x3721 JUMP JUMPDEST DUP2 EQ PUSH2 0x373F JUMPI PUSH1 0x0 DUP1 REVERT JUMPDEST POP JUMP JUMPDEST PUSH1 0x0 DUP2 CALLDATALOAD SWAP1 POP PUSH2 0x3751 DUP2 PUSH2 0x372B JUMP JUMPDEST SWAP3 SWAP2 POP POP JUMP JUMPDEST PUSH1 0x0 PUSH1 0x20 DUP3 DUP5 SUB SLT ISZERO PUSH2 0x376D JUMPI PUSH2 0x376C PUSH2 0x3252 JUMP JUMPDEST JUMPDEST PUSH1 0x0 PUSH2 0x377B DUP5 DUP3 DUP6 ADD PUSH2 0x3742 JUMP JUMPDEST SWAP2 POP POP SWAP3 SWAP2 POP POP JUMP JUMPDEST PUSH2 0x378D DUP2 PUSH2 0x3721 JUMP JUMPDEST DUP3 MSTORE POP POP JUMP JUMPDEST PUSH1 0x0 PUSH1 0x20 DUP3 ADD SWAP1 POP PUSH2 0x37A8 PUSH1 0x0 DUP4 ADD DUP5 PUSH2 0x3784 JUMP JUMPDEST SWAP3 SWAP2 POP POP JUMP JUMPDEST PUSH1 0x0 DUP1 REVERT JUMPDEST PUSH32 0x4E487B7100000000000000000000000000000000000000000000000000000000 PUSH1 0x0 MSTORE PUSH1 0x41 PUSH1 0x4 MSTORE PUSH1 0x24 PUSH1 0x0 REVERT JUMPDEST PUSH2 0x37EB DUP3 PUSH2 0x34C9 JUMP JUMPDEST DUP2 ADD DUP2 DUP2 LT PUSH8 0xFFFFFFFFFFFFFFFF DUP3 GT OR ISZERO PUSH2 0x380A JUMPI PUSH2 0x3809 PUSH2 0x37B3 JUMP JUMPDEST JUMPDEST DUP1 PUSH1 0x40 MSTORE POP POP POP JUMP JUMPDEST PUSH1 0x0 PUSH2 0x381D PUSH2 0x3248 JUMP JUMPDEST SWAP1 POP PUSH2 0x3829 DUP3 DUP3 PUSH2 0x37E2 JUMP JUMPDEST SWAP2 SWAP1 POP JUMP JUMPDEST PUSH1 0x0 PUSH8 0xFFFFFFFFFFFFFFFF DUP3 GT ISZERO PUSH2 0x3849 JUMPI PUSH2 0x3848 PUSH2 0x37B3 JUMP JUMPDEST JUMPDEST PUSH1 0x20 DUP3 MUL SWAP1 POP PUSH1 0x20 DUP2 ADD SWAP1 POP SWAP2 SWAP1 POP JUMP JUMPDEST PUSH1 0x0 DUP1 REVERT JUMPDEST PUSH1 0x0 PUSH2 0x3872 PUSH2 0x386D DUP5 PUSH2 0x382E JUMP JUMPDEST PUSH2 0x3813 JUMP JUMPDEST SWAP1 POP DUP1 DUP4 DUP3 MSTORE PUSH1 0x20 DUP3 ADD SWAP1 POP PUSH1 0x20 DUP5 MUL DUP4 ADD DUP6 DUP2 GT ISZERO PUSH2 0x3895 JUMPI PUSH2 0x3894 PUSH2 0x385A JUMP JUMPDEST JUMPDEST DUP4 JUMPDEST DUP2 DUP2 LT ISZERO PUSH2 0x38BE JUMPI DUP1 PUSH2 0x38AA DUP9 DUP3 PUSH2 0x32DB JUMP JUMPDEST DUP5 MSTORE PUSH1 0x20 DUP5 ADD SWAP4 POP POP PUSH1 0x20 DUP2 ADD SWAP1 POP PUSH2 0x3897 JUMP JUMPDEST POP POP POP SWAP4 SWAP3 POP POP POP JUMP JUMPDEST PUSH1 0x0 DUP3 PUSH1 0x1F DUP4 ADD SLT PUSH2 0x38DD JUMPI PUSH2 0x38DC PUSH2 0x37AE JUMP JUMPDEST JUMPDEST DUP2 CALLDATALOAD PUSH2 0x38ED DUP5 DUP3 PUSH1 0x20 DUP7 ADD PUSH2 0x385F JUMP JUMPDEST SWAP2 POP POP SWAP3 SWAP2 POP POP JUMP JUMPDEST PUSH1 0x0 DUP1 REVERT JUMPDEST PUSH1 0x0 PUSH8 0xFFFFFFFFFFFFFFFF DUP3 GT ISZERO PUSH2 0x3916 JUMPI PUSH2 0x3915 PUSH2 0x37B3 JUMP JUMPDEST JUMPDEST PUSH2 0x391F DUP3 PUSH2 0x34C9 JUMP JUMPDEST SWAP1 POP PUSH1 0x20 DUP2 ADD SWAP1 POP SWAP2 SWAP1 POP JUMP JUMPDEST DUP3 DUP2 DUP4 CALLDATACOPY PUSH1 0x0 DUP4 DUP4 ADD MSTORE POP POP POP JUMP JUMPDEST PUSH1 0x0 PUSH2 0x394E PUSH2 0x3949 DUP5 PUSH2 0x38FB JUMP JUMPDEST PUSH2 0x3813 JUMP JUMPDEST SWAP1 POP DUP3 DUP2 MSTORE PUSH1 0x20 DUP2 ADD DUP5 DUP5 DUP5 ADD GT ISZERO PUSH2 0x396A JUMPI PUSH2 0x3969 PUSH2 0x38F6 JUMP JUMPDEST JUMPDEST PUSH2 0x3975 DUP5 DUP3 DUP6 PUSH2 0x392C JUMP JUMPDEST POP SWAP4 SWAP3 POP POP POP JUMP JUMPDEST PUSH1 0x0 DUP3 PUSH1 0x1F DUP4 ADD SLT PUSH2 0x3992 JUMPI PUSH2 0x3991 PUSH2 0x37AE JUMP JUMPDEST JUMPDEST DUP2 CALLDATALOAD PUSH2 0x39A2 DUP5 DUP3 PUSH1 0x20 DUP7 ADD PUSH2 0x393B JUMP JUMPDEST SWAP2 POP POP SWAP3 SWAP2 POP POP JUMP JUMPDEST PUSH1 0x0 DUP1 PUSH1 0x0 DUP1 PUSH1 0x0 PUSH1 0xA0 DUP7 DUP9 SUB SLT ISZERO PUSH2 0x39C7 JUMPI PUSH2 0x39C6 PUSH2 0x3252 JUMP JUMPDEST JUMPDEST PUSH1 0x0 PUSH2 0x39D5 DUP9 DUP3 DUP10 ADD PUSH2 0x32A5 JUMP JUMPDEST SWAP6 POP POP PUSH1 0x20 PUSH2 0x39E6 DUP9 DUP3 DUP10 ADD PUSH2 0x32A5 JUMP JUMPDEST SWAP5 POP POP PUSH1 0x40 DUP7 ADD CALLDATALOAD PUSH8 0xFFFFFFFFFFFFFFFF DUP2 GT ISZERO PUSH2 0x3A07 JUMPI PUSH2 0x3A06 PUSH2 0x3257 JUMP JUMPDEST JUMPDEST PUSH2 0x3A13 DUP9 DUP3 DUP10 ADD PUSH2 0x38C8 JUMP JUMPDEST SWAP4 POP POP PUSH1 0x60 DUP7 ADD CALLDATALOAD PUSH8 0xFFFFFFFFFFFFFFFF DUP2 GT ISZERO PUSH2 0x3A34 JUMPI PUSH2 0x3A33 PUSH2 0x3257 JUMP JUMPDEST JUMPDEST PUSH2 0x3A40 DUP9 DUP3 DUP10 ADD PUSH2 0x38C8 JUMP JUMPDEST SWAP3 POP POP PUSH1 0x80 DUP7 ADD CALLDATALOAD PUSH8 0xFFFFFFFFFFFFFFFF DUP2 GT ISZERO PUSH2 0x3A61 JUMPI PUSH2 0x3A60 PUSH2 0x3257 JUMP JUMPDEST JUMPDEST PUSH2 0x3A6D DUP9 DUP3 DUP10 ADD PUSH2 0x397D JUMP JUMPDEST SWAP2 POP POP SWAP3 SWAP6 POP SWAP3 SWAP6 SWAP1 SWAP4 POP JUMP JUMPDEST PUSH1 0x0 DUP1 PUSH1 0x40 DUP4 DUP6 SUB SLT ISZERO PUSH2 0x3A91 JUMPI PUSH2 0x3A90 PUSH2 0x3252 JUMP JUMPDEST JUMPDEST PUSH1 0x0 PUSH2 0x3A9F DUP6 DUP3 DUP7 ADD PUSH2 0x3742 JUMP JUMPDEST SWAP3 POP POP PUSH1 0x20 PUSH2 0x3AB0 DUP6 DUP3 DUP7 ADD PUSH2 0x32A5 JUMP JUMPDEST SWAP2 POP POP SWAP3 POP SWAP3 SWAP1 POP JUMP JUMPDEST PUSH1 0x2 DUP2 LT PUSH2 0x3AC7 JUMPI PUSH1 0x0 DUP1 REVERT JUMPDEST POP JUMP JUMPDEST PUSH1 0x0 DUP2 CALLDATALOAD SWAP1 POP PUSH2 0x3AD9 DUP2 PUSH2 0x3ABA JUMP JUMPDEST SWAP3 SWAP2 POP POP JUMP JUMPDEST PUSH2 0x3AE8 DUP2 PUSH2 0x3415 JUMP JUMPDEST DUP2 EQ PUSH2 0x3AF3 JUMPI PUSH1 0x0 DUP1 REVERT JUMPDEST POP JUMP JUMPDEST PUSH1 0x0 DUP2 CALLDATALOAD SWAP1 POP PUSH2 0x3B05 DUP2 PUSH2 0x3ADF JUMP JUMPDEST SWAP3 SWAP2 POP POP JUMP JUMPDEST PUSH1 0x2 DUP2 LT PUSH2 0x3B18 JUMPI PUSH1 0x0 DUP1 REVERT JUMPDEST POP JUMP JUMPDEST PUSH1 0x0 DUP2 CALLDATALOAD SWAP1 POP PUSH2 0x3B2A DUP2 PUSH2 0x3B0B JUMP JUMPDEST SWAP3 SWAP2 POP POP JUMP JUMPDEST PUSH2 0x3B39 DUP2 PUSH2 0x3669 JUMP JUMPDEST DUP2 EQ PUSH2 0x3B44 JUMPI PUSH1 0x0 DUP1 REVERT JUMPDEST POP JUMP JUMPDEST PUSH1 0x0 DUP2 CALLDATALOAD SWAP1 POP PUSH2 0x3B56 DUP2 PUSH2 0x3B30 JUMP JUMPDEST SWAP3 SWAP2 POP POP JUMP JUMPDEST PUSH1 0x0 DUP1 REVERT JUMPDEST PUSH1 0x0 DUP1 DUP4 PUSH1 0x1F DUP5 ADD SLT PUSH2 0x3B77 JUMPI PUSH2 0x3B76 PUSH2 0x37AE JUMP JUMPDEST JUMPDEST DUP3 CALLDATALOAD SWAP1 POP PUSH8 0xFFFFFFFFFFFFFFFF DUP2 GT ISZERO PUSH2 0x3B94 JUMPI PUSH2 0x3B93 PUSH2 0x3B5C JUMP JUMPDEST JUMPDEST PUSH1 0x20 DUP4 ADD SWAP2 POP DUP4 PUSH1 0x20 DUP3 MUL DUP4 ADD GT ISZERO PUSH2 0x3BB0 JUMPI PUSH2 0x3BAF PUSH2 0x385A JUMP JUMPDEST JUMPDEST SWAP3 POP SWAP3 SWAP1 POP JUMP JUMPDEST PUSH1 0x0 DUP1 PUSH1 0x0 DUP1 PUSH1 0x0 DUP1 PUSH1 0x0 DUP1 PUSH1 0x0 DUP1 PUSH2 0x100 DUP12 DUP14 SUB SLT ISZERO PUSH2 0x3BDB JUMPI PUSH2 0x3BDA PUSH2 0x3252 JUMP JUMPDEST JUMPDEST PUSH1 0x0 PUSH2 0x3BE9 DUP14 DUP3 DUP15 ADD PUSH2 0x32A5 JUMP JUMPDEST SWAP11 POP POP PUSH1 0x20 PUSH2 0x3BFA DUP14 DUP3 DUP15 ADD PUSH2 0x3ACA JUMP JUMPDEST SWAP10 POP POP PUSH1 0x40 PUSH2 0x3C0B DUP14 DUP3 DUP15 ADD PUSH2 0x3AF6 JUMP JUMPDEST SWAP9 POP POP PUSH1 0x60 PUSH2 0x3C1C DUP14 DUP3 DUP15 ADD PUSH2 0x3AF6 JUMP JUMPDEST SWAP8 POP POP PUSH1 0x80 PUSH2 0x3C2D DUP14 DUP3 DUP15 ADD PUSH2 0x3B1B JUMP JUMPDEST SWAP7 POP POP PUSH1 0xA0 PUSH2 0x3C3E DUP14 DUP3 DUP15 ADD PUSH2 0x3B47 JUMP JUMPDEST SWAP6 POP POP PUSH1 0xC0 DUP12 ADD CALLDATALOAD PUSH8 0xFFFFFFFFFFFFFFFF DUP2 GT ISZERO PUSH2 0x3C5F JUMPI PUSH2 0x3C5E PUSH2 0x3257 JUMP JUMPDEST JUMPDEST PUSH2 0x3C6B DUP14 DUP3 DUP15 ADD PUSH2 0x3B61 JUMP JUMPDEST SWAP5 POP SWAP5 POP POP PUSH1 0xE0 DUP12 ADD CALLDATALOAD PUSH8 0xFFFFFFFFFFFFFFFF DUP2 GT ISZERO PUSH2 0x3C8E JUMPI PUSH2 0x3C8D PUSH2 0x3257 JUMP JUMPDEST JUMPDEST PUSH2 0x3C9A DUP14 DUP3 DUP15 ADD PUSH2 0x3B61 JUMP JUMPDEST SWAP3 POP SWAP3 POP POP SWAP3 SWAP6 SWAP9 SWAP12 SWAP2 SWAP5 SWAP8 SWAP11 POP SWAP3 SWAP6 SWAP9 POP JUMP JUMPDEST PUSH1 0x0 PUSH1 0x20 DUP3 ADD SWAP1 POP PUSH2 0x3CC3 PUSH1 0x0 DUP4 ADD DUP5 PUSH2 0x3612 JUMP JUMPDEST SWAP3 SWAP2 POP POP JUMP JUMPDEST PUSH2 0x3CD2 DUP2 PUSH2 0x3535 JUMP JUMPDEST DUP3 MSTORE POP POP JUMP JUMPDEST PUSH1 0x0 PUSH1 0x20 DUP3 ADD SWAP1 POP PUSH2 0x3CED PUSH1 0x0 DUP4 ADD DUP5 PUSH2 0x3CC9 JUMP JUMPDEST SWAP3 SWAP2 POP POP JUMP JUMPDEST PUSH1 0x0 PUSH8 0xFFFFFFFFFFFFFFFF DUP3 GT ISZERO PUSH2 0x3D0E JUMPI PUSH2 0x3D0D PUSH2 0x37B3 JUMP JUMPDEST JUMPDEST PUSH1 0x20 DUP3 MUL SWAP1 POP PUSH1 0x20 DUP2 ADD SWAP1 POP SWAP2 SWAP1 POP JUMP JUMPDEST PUSH1 0x0 PUSH2 0x3D32 PUSH2 0x3D2D DUP5 PUSH2 0x3CF3 JUMP JUMPDEST PUSH2 0x3813 JUMP JUMPDEST SWAP1 POP DUP1 DUP4 DUP3 MSTORE PUSH1 0x20 DUP3 ADD SWAP1 POP PUSH1 0x20 DUP5 MUL DUP4 ADD DUP6 DUP2 GT ISZERO PUSH2 0x3D55 JUMPI PUSH2 0x3D54 PUSH2 0x385A JUMP JUMPDEST JUMPDEST DUP4 JUMPDEST DUP2 DUP2 LT ISZERO PUSH2 0x3D7E JUMPI DUP1 PUSH2 0x3D6A DUP9 DUP3 PUSH2 0x32A5 JUMP JUMPDEST DUP5 MSTORE PUSH1 0x20 DUP5 ADD SWAP4 POP POP PUSH1 0x20 DUP2 ADD SWAP1 POP PUSH2 0x3D57 JUMP JUMPDEST POP POP POP SWAP4 SWAP3 POP POP POP JUMP JUMPDEST PUSH1 0x0 DUP3 PUSH1 0x1F DUP4 ADD SLT PUSH2 0x3D9D JUMPI PUSH2 0x3D9C PUSH2 0x37AE JUMP JUMPDEST JUMPDEST DUP2 CALLDATALOAD PUSH2 0x3DAD DUP5 DUP3 PUSH1 0x20 DUP7 ADD PUSH2 0x3D1F JUMP JUMPDEST SWAP2 POP POP SWAP3 SWAP2 POP POP JUMP JUMPDEST PUSH1 0x0 DUP1 PUSH1 0x40 DUP4 DUP6 SUB SLT ISZERO PUSH2 0x3DCD JUMPI PUSH2 0x3DCC PUSH2 0x3252 JUMP JUMPDEST JUMPDEST PUSH1 0x0 DUP4 ADD CALLDATALOAD PUSH8 0xFFFFFFFFFFFFFFFF DUP2 GT ISZERO PUSH2 0x3DEB JUMPI PUSH2 0x3DEA PUSH2 0x3257 JUMP JUMPDEST JUMPDEST PUSH2 0x3DF7 DUP6 DUP3 DUP7 ADD PUSH2 0x3D88 JUMP JUMPDEST SWAP3 POP POP PUSH1 0x20 DUP4 ADD CALLDATALOAD PUSH8 0xFFFFFFFFFFFFFFFF DUP2 GT ISZERO PUSH2 0x3E18 JUMPI PUSH2 0x3E17 PUSH2 0x3257 JUMP JUMPDEST JUMPDEST PUSH2 0x3E24 DUP6 DUP3 DUP7 ADD PUSH2 0x38C8 JUMP JUMPDEST SWAP2 POP POP SWAP3 POP SWAP3 SWAP1 POP JUMP JUMPDEST PUSH1 0x0 DUP2 MLOAD SWAP1 POP SWAP2 SWAP1 POP JUMP JUMPDEST PUSH1 0x0 DUP3 DUP3 MSTORE PUSH1 0x20 DUP3 ADD SWAP1 POP SWAP3 SWAP2 POP POP JUMP JUMPDEST PUSH1 0x0 DUP2 SWAP1 POP PUSH1 0x20 DUP3 ADD SWAP1 POP SWAP2 SWAP1 POP JUMP JUMPDEST PUSH2 0x3E63 DUP2 PUSH2 0x32BA JUMP JUMPDEST DUP3 MSTORE POP POP JUMP JUMPDEST PUSH1 0x0 PUSH2 0x3E75 DUP4 DUP4 PUSH2 0x3E5A JUMP JUMPDEST PUSH1 0x20 DUP4 ADD SWAP1 POP SWAP3 SWAP2 POP POP JUMP JUMPDEST PUSH1 0x0 PUSH1 0x20 DUP3 ADD SWAP1 POP SWAP2 SWAP1 POP JUMP JUMPDEST PUSH1 0x0 PUSH2 0x3E99 DUP3 PUSH2 0x3E2E JUMP JUMPDEST PUSH2 0x3EA3 DUP2 DUP6 PUSH2 0x3E39 JUMP JUMPDEST SWAP4 POP PUSH2 0x3EAE DUP4 PUSH2 0x3E4A JUMP JUMPDEST DUP1 PUSH1 0x0 JUMPDEST DUP4 DUP2 LT ISZERO PUSH2 0x3EDF JUMPI DUP2 MLOAD PUSH2 0x3EC6 DUP9 DUP3 PUSH2 0x3E69 JUMP JUMPDEST SWAP8 POP PUSH2 0x3ED1 DUP4 PUSH2 0x3E81 JUMP JUMPDEST SWAP3 POP POP PUSH1 0x1 DUP2 ADD SWAP1 POP PUSH2 0x3EB2 JUMP JUMPDEST POP DUP6 SWAP4 POP POP POP POP SWAP3 SWAP2 POP POP JUMP JUMPDEST PUSH1 0x0 PUSH1 0x20 DUP3 ADD SWAP1 POP DUP2 DUP2 SUB PUSH1 0x0 DUP4 ADD MSTORE PUSH2 0x3F06 DUP2 DUP5 PUSH2 0x3E8E JUMP JUMPDEST SWAP1 POP SWAP3 SWAP2 POP POP JUMP JUMPDEST PUSH1 0x0 DUP1 PUSH1 0x0 PUSH1 0x60 DUP5 DUP7 SUB SLT ISZERO PUSH2 0x3F27 JUMPI PUSH2 0x3F26 PUSH2 0x3252 JUMP JUMPDEST JUMPDEST PUSH1 0x0 PUSH2 0x3F35 DUP7 DUP3 DUP8 ADD PUSH2 0x32A5 JUMP JUMPDEST SWAP4 POP POP PUSH1 0x20 DUP5 ADD CALLDATALOAD PUSH8 0xFFFFFFFFFFFFFFFF DUP2 GT ISZERO PUSH2 0x3F56 JUMPI PUSH2 0x3F55 PUSH2 0x3257 JUMP JUMPDEST JUMPDEST PUSH2 0x3F62 DUP7 DUP3 DUP8 ADD PUSH2 0x38C8 JUMP JUMPDEST SWAP3 POP POP PUSH1 0x40 DUP5 ADD CALLDATALOAD PUSH8 0xFFFFFFFFFFFFFFFF DUP2 GT ISZERO PUSH2 0x3F83 JUMPI PUSH2 0x3F82 PUSH2 0x3257 JUMP JUMPDEST JUMPDEST PUSH2 0x3F8F DUP7 DUP3 DUP8 ADD PUSH2 0x38C8 JUMP JUMPDEST SWAP2 POP POP SWAP3 POP SWAP3 POP SWAP3 JUMP JUMPDEST PUSH1 0x0 DUP1 PUSH1 0x0 PUSH1 0x60 DUP5 DUP7 SUB SLT ISZERO PUSH2 0x3FB2 JUMPI PUSH2 0x3FB1 PUSH2 0x3252 JUMP JUMPDEST JUMPDEST PUSH1 0x0 PUSH2 0x3FC0 DUP7 DUP3 DUP8 ADD PUSH2 0x3559 JUMP JUMPDEST SWAP4 POP POP PUSH1 0x20 PUSH2 0x3FD1 DUP7 DUP3 DUP8 ADD PUSH2 0x32A5 JUMP JUMPDEST SWAP3 POP POP PUSH1 0x40 PUSH2 0x3FE2 DUP7 DUP3 DUP8 ADD PUSH2 0x32DB JUMP JUMPDEST SWAP2 POP POP SWAP3 POP SWAP3 POP SWAP3 JUMP JUMPDEST PUSH2 0x3FF5 DUP2 PUSH2 0x33DF JUMP JUMPDEST DUP2 EQ PUSH2 0x4000 JUMPI PUSH1 0x0 DUP1 REVERT JUMPDEST POP JUMP JUMPDEST PUSH1 0x0 DUP2 CALLDATALOAD SWAP1 POP PUSH2 0x4012 DUP2 PUSH2 0x3FEC JUMP JUMPDEST SWAP3 SWAP2 POP POP JUMP JUMPDEST PUSH1 0x0 DUP1 PUSH1 0x40 DUP4 DUP6 SUB SLT ISZERO PUSH2 0x402F JUMPI PUSH2 0x402E PUSH2 0x3252 JUMP JUMPDEST JUMPDEST PUSH1 0x0 PUSH2 0x403D DUP6 DUP3 DUP7 ADD PUSH2 0x3559 JUMP JUMPDEST SWAP3 POP POP PUSH1 0x20 PUSH2 0x404E DUP6 DUP3 DUP7 ADD PUSH2 0x4003 JUMP JUMPDEST SWAP2 POP POP SWAP3 POP SWAP3 SWAP1 POP JUMP JUMPDEST PUSH1 0x0 DUP1 PUSH1 0x40 DUP4 DUP6 SUB SLT ISZERO PUSH2 0x406F JUMPI PUSH2 0x406E PUSH2 0x3252 JUMP JUMPDEST JUMPDEST PUSH1 0x0 PUSH2 0x407D DUP6 DUP3 DUP7 ADD PUSH2 0x32A5 JUMP JUMPDEST SWAP3 POP POP PUSH1 0x20 PUSH2 0x408E DUP6 DUP3 DUP7 ADD PUSH2 0x4003 JUMP JUMPDEST SWAP2 POP POP SWAP3 POP SWAP3 SWAP1 POP JUMP JUMPDEST PUSH1 0x0 DUP1 PUSH1 0x40 DUP4 DUP6 SUB SLT ISZERO PUSH2 0x40AF JUMPI PUSH2 0x40AE PUSH2 0x3252 JUMP JUMPDEST JUMPDEST PUSH1 0x0 PUSH2 0x40BD DUP6 DUP3 DUP7 ADD PUSH2 0x3559 JUMP JUMPDEST SWAP3 POP POP PUSH1 0x20 PUSH2 0x40CE DUP6 DUP3 DUP7 ADD PUSH2 0x3B47 JUMP JUMPDEST SWAP2 POP POP SWAP3 POP SWAP3 SWAP1 POP JUMP JUMPDEST PUSH1 0x0 PUSH1 0x20 DUP3 ADD SWAP1 POP PUSH2 0x40ED PUSH1 0x0 DUP4 ADD DUP5 PUSH2 0x3679 JUMP JUMPDEST SWAP3 SWAP2 POP POP JUMP JUMPDEST PUSH1 0x0 DUP1 PUSH1 0x40 DUP4 DUP6 SUB SLT ISZERO PUSH2 0x410A JUMPI PUSH2 0x4109 PUSH2 0x3252 JUMP JUMPDEST JUMPDEST PUSH1 0x0 PUSH2 0x4118 DUP6 DUP3 DUP7 ADD PUSH2 0x32A5 JUMP JUMPDEST SWAP3 POP POP PUSH1 0x20 PUSH2 0x4129 DUP6 DUP3 DUP7 ADD PUSH2 0x32A5 JUMP JUMPDEST SWAP2 POP POP SWAP3 POP SWAP3 SWAP1 POP JUMP JUMPDEST PUSH1 0x0 PUSH1 0x20 DUP3 DUP5 SUB SLT ISZERO PUSH2 0x4149 JUMPI PUSH2 0x4148 PUSH2 0x3252 JUMP JUMPDEST JUMPDEST PUSH1 0x0 PUSH2 0x4157 DUP5 DUP3 DUP6 ADD PUSH2 0x3AF6 JUMP JUMPDEST SWAP2 POP POP SWAP3 SWAP2 POP POP JUMP JUMPDEST PUSH1 0x0 DUP1 PUSH1 0x0 DUP1 PUSH1 0x0 PUSH1 0xA0 DUP7 DUP9 SUB SLT ISZERO PUSH2 0x417C JUMPI PUSH2 0x417B PUSH2 0x3252 JUMP JUMPDEST JUMPDEST PUSH1 0x0 PUSH2 0x418A DUP9 DUP3 DUP10 ADD PUSH2 0x32A5 JUMP JUMPDEST SWAP6 POP POP PUSH1 0x20 PUSH2 0x419B DUP9 DUP3 DUP10 ADD PUSH2 0x32A5 JUMP JUMPDEST SWAP5 POP POP PUSH1 0x40 PUSH2 0x41AC DUP9 DUP3 DUP10 ADD PUSH2 0x32DB JUMP JUMPDEST SWAP4 POP POP PUSH1 0x60 PUSH2 0x41BD DUP9 DUP3 DUP10 ADD PUSH2 0x32DB JUMP JUMPDEST SWAP3 POP POP PUSH1 0x80 DUP7 ADD CALLDATALOAD PUSH8 0xFFFFFFFFFFFFFFFF DUP2 GT ISZERO PUSH2 0x41DE JUMPI PUSH2 0x41DD PUSH2 0x3257 JUMP JUMPDEST JUMPDEST PUSH2 0x41EA DUP9 DUP3 DUP10 ADD PUSH2 0x397D JUMP JUMPDEST SWAP2 POP POP SWAP3 SWAP6 POP SWAP3 SWAP6 SWAP1 SWAP4 POP JUMP JUMPDEST PUSH1 0x0 PUSH1 0x20 DUP3 DUP5 SUB SLT ISZERO PUSH2 0x420D JUMPI PUSH2 0x420C PUSH2 0x3252 JUMP JUMPDEST JUMPDEST PUSH1 0x0 PUSH2 0x421B DUP5 DUP3 DUP6 ADD PUSH2 0x32A5 JUMP JUMPDEST SWAP2 POP POP SWAP3 SWAP2 POP POP JUMP JUMPDEST PUSH1 0x0 DUP1 PUSH1 0x0 PUSH1 0x60 DUP5 DUP7 SUB SLT ISZERO PUSH2 0x423D JUMPI PUSH2 0x423C PUSH2 0x3252 JUMP JUMPDEST JUMPDEST PUSH1 0x0 PUSH2 0x424B DUP7 DUP3 DUP8 ADD PUSH2 0x32A5 JUMP JUMPDEST SWAP4 POP POP PUSH1 0x20 PUSH2 0x425C DUP7 DUP3 DUP8 ADD PUSH2 0x32DB JUMP JUMPDEST SWAP3 POP POP PUSH1 0x40 PUSH2 0x426D DUP7 DUP3 DUP8 ADD PUSH2 0x32DB JUMP JUMPDEST SWAP2 POP POP SWAP3 POP SWAP3 POP SWAP3 JUMP JUMPDEST PUSH1 0x0 PUSH1 0x20 DUP3 ADD SWAP1 POP PUSH2 0x428C PUSH1 0x0 DUP4 ADD DUP5 PUSH2 0x365A JUMP JUMPDEST SWAP3 SWAP2 POP POP JUMP JUMPDEST PUSH32 0x455243313135353A2061646472657373207A65726F206973206E6F7420612076 PUSH1 0x0 DUP3 ADD MSTORE PUSH32 0x616C6964206F776E657200000000000000000000000000000000000000000000 PUSH1 0x20 DUP3 ADD MSTORE POP JUMP JUMPDEST PUSH1 0x0 PUSH2 0x42EE PUSH1 0x2A DUP4 PUSH2 0x3485 JUMP JUMPDEST SWAP2 POP PUSH2 0x42F9 DUP3 PUSH2 0x4292 JUMP JUMPDEST PUSH1 0x40 DUP3 ADD SWAP1 POP SWAP2 SWAP1 POP JUMP JUMPDEST PUSH1 0x0 PUSH1 0x20 DUP3 ADD SWAP1 POP DUP2 DUP2 SUB PUSH1 0x0 DUP4 ADD MSTORE PUSH2 0x431D DUP2 PUSH2 0x42E1 JUMP JUMPDEST SWAP1 POP SWAP2 SWAP1 POP JUMP JUMPDEST PUSH32 0x4E487B7100000000000000000000000000000000000000000000000000000000 PUSH1 0x0 MSTORE PUSH1 0x22 PUSH1 0x4 MSTORE PUSH1 0x24 PUSH1 0x0 REVERT JUMPDEST PUSH1 0x0 PUSH1 0x2 DUP3 DIV SWAP1 POP PUSH1 0x1 DUP3 AND DUP1 PUSH2 0x436B JUMPI PUSH1 0x7F DUP3 AND SWAP2 POP JUMPDEST PUSH1 0x20 DUP3 LT DUP2 SUB PUSH2 0x437E JUMPI PUSH2 0x437D PUSH2 0x4324 JUMP JUMPDEST JUMPDEST POP SWAP2 SWAP1 POP JUMP JUMPDEST PUSH32 0x455243313135353A2063616C6C6572206973206E6F7420746F6B656E206F776E PUSH1 0x0 DUP3 ADD MSTORE PUSH32 0x6572206F7220617070726F766564000000000000000000000000000000000000 PUSH1 0x20 DUP3 ADD MSTORE POP JUMP JUMPDEST PUSH1 0x0 PUSH2 0x43E0 PUSH1 0x2E DUP4 PUSH2 0x3485 JUMP JUMPDEST SWAP2 POP PUSH2 0x43EB DUP3 PUSH2 0x4384 JUMP JUMPDEST PUSH1 0x40 DUP3 ADD SWAP1 POP SWAP2 SWAP1 POP JUMP JUMPDEST PUSH1 0x0 PUSH1 0x20 DUP3 ADD SWAP1 POP DUP2 DUP2 SUB PUSH1 0x0 DUP4 ADD MSTORE PUSH2 0x440F DUP2 PUSH2 0x43D3 JUMP JUMPDEST SWAP1 POP SWAP2 SWAP1 POP JUMP JUMPDEST PUSH32 0x4E487B7100000000000000000000000000000000000000000000000000000000 PUSH1 0x0 MSTORE PUSH1 0x11 PUSH1 0x4 MSTORE PUSH1 0x24 PUSH1 0x0 REVERT JUMPDEST PUSH1 0x0 PUSH2 0x4450 DUP3 PUSH2 0x3535 JUMP JUMPDEST SWAP2 POP PUSH1 0xFF DUP3 SUB PUSH2 0x4463 JUMPI PUSH2 0x4462 PUSH2 0x4416 JUMP JUMPDEST JUMPDEST PUSH1 0x1 DUP3 ADD SWAP1 POP SWAP2 SWAP1 POP JUMP JUMPDEST PUSH32 0x536F7272792C20796F752063616E277420746F6B656E697A65206D6F72652061 PUSH1 0x0 DUP3 ADD MSTORE PUSH32 0x7373657473000000000000000000000000000000000000000000000000000000 PUSH1 0x20 DUP3 ADD MSTORE POP JUMP JUMPDEST PUSH1 0x0 PUSH2 0x44CA PUSH1 0x25 DUP4 PUSH2 0x3485 JUMP JUMPDEST SWAP2 POP PUSH2 0x44D5 DUP3 PUSH2 0x446E JUMP JUMPDEST PUSH1 0x40 DUP3 ADD SWAP1 POP SWAP2 SWAP1 POP JUMP JUMPDEST PUSH1 0x0 PUSH1 0x20 DUP3 ADD SWAP1 POP DUP2 DUP2 SUB PUSH1 0x0 DUP4 ADD MSTORE PUSH2 0x44F9 DUP2 PUSH2 0x44BD JUMP JUMPDEST SWAP1 POP SWAP2 SWAP1 POP JUMP JUMPDEST PUSH32 0x416363657373436F6E74726F6C3A2063616E206F6E6C792072656E6F756E6365 PUSH1 0x0 DUP3 ADD MSTORE PUSH32 0x20726F6C657320666F722073656C660000000000000000000000000000000000 PUSH1 0x20 DUP3 ADD MSTORE POP JUMP JUMPDEST PUSH1 0x0 PUSH2 0x455C PUSH1 0x2F DUP4 PUSH2 0x3485 JUMP JUMPDEST SWAP2 POP PUSH2 0x4567 DUP3 PUSH2 0x4500 JUMP JUMPDEST PUSH1 0x40 DUP3 ADD SWAP1 POP SWAP2 SWAP1 POP JUMP JUMPDEST PUSH1 0x0 PUSH1 0x20 DUP3 ADD SWAP1 POP DUP2 DUP2 SUB PUSH1 0x0 DUP4 ADD MSTORE PUSH2 0x458B DUP2 PUSH2 0x454F JUMP JUMPDEST SWAP1 POP SWAP2 SWAP1 POP JUMP JUMPDEST PUSH32 0x455243313135353A206163636F756E747320616E6420696473206C656E677468 PUSH1 0x0 DUP3 ADD MSTORE PUSH32 0x206D69736D617463680000000000000000000000000000000000000000000000 PUSH1 0x20 DUP3 ADD MSTORE POP JUMP JUMPDEST PUSH1 0x0 PUSH2 0x45EE PUSH1 0x29 DUP4 PUSH2 0x3485 JUMP JUMPDEST SWAP2 POP PUSH2 0x45F9 DUP3 PUSH2 0x4592 JUMP JUMPDEST PUSH1 0x40 DUP3 ADD SWAP1 POP SWAP2 SWAP1 POP JUMP JUMPDEST PUSH1 0x0 PUSH1 0x20 DUP3 ADD SWAP1 POP DUP2 DUP2 SUB PUSH1 0x0 DUP4 ADD MSTORE PUSH2 0x461D DUP2 PUSH2 0x45E1 JUMP JUMPDEST SWAP1 POP SWAP2 SWAP1 POP JUMP JUMPDEST PUSH32 0x4E487B7100000000000000000000000000000000000000000000000000000000 PUSH1 0x0 MSTORE PUSH1 0x32 PUSH1 0x4 MSTORE PUSH1 0x24 PUSH1 0x0 REVERT JUMPDEST PUSH1 0x0 PUSH2 0x465E DUP3 PUSH2 0x32BA JUMP JUMPDEST SWAP2 POP PUSH32 0xFFFFFFFFFFFFFFFFFFFFFFFFFFFFFFFFFFFFFFFFFFFFFFFFFFFFFFFFFFFFFFFF DUP3 SUB PUSH2 0x4690 JUMPI PUSH2 0x468F PUSH2 0x4416 JUMP JUMPDEST JUMPDEST PUSH1 0x1 DUP3 ADD SWAP1 POP SWAP2 SWAP1 POP JUMP JUMPDEST PUSH32 0x61737365742069732063757272656E746C79206E6F7420617661696C61626C65 PUSH1 0x0 DUP3 ADD MSTORE PUSH32 0x20666F72207472616E7366657200000000000000000000000000000000000000 PUSH1 0x20 DUP3 ADD MSTORE POP JUMP JUMPDEST PUSH1 0x0 PUSH2 0x46F7 PUSH1 0x2D DUP4 PUSH2 0x3485 JUMP JUMPDEST SWAP2 POP PUSH2 0x4702 DUP3 PUSH2 0x469B JUMP JUMPDEST PUSH1 0x40 DUP3 ADD SWAP1 POP SWAP2 SWAP1 POP JUMP JUMPDEST PUSH1 0x0 PUSH1 0x20 DUP3 ADD SWAP1 POP DUP2 DUP2 SUB PUSH1 0x0 DUP4 ADD MSTORE PUSH2 0x4726 DUP2 PUSH2 0x46EA JUMP JUMPDEST SWAP1 POP SWAP2 SWAP1 POP JUMP JUMPDEST PUSH1 0x0 PUSH1 0x60 DUP3 ADD SWAP1 POP PUSH2 0x4742 PUSH1 0x0 DUP4 ADD DUP7 PUSH2 0x3CC9 JUMP JUMPDEST PUSH2 0x474F PUSH1 0x20 DUP4 ADD DUP6 PUSH2 0x359B JUMP JUMPDEST PUSH2 0x475C PUSH1 0x40 DUP4 ADD DUP5 PUSH2 0x33EB JUMP JUMPDEST SWAP5 SWAP4 POP POP POP POP JUMP JUMPDEST PUSH32 0x4F776E61626C653A206E6577206F776E657220697320746865207A65726F2061 PUSH1 0x0 DUP3 ADD MSTORE PUSH32 0x6464726573730000000000000000000000000000000000000000000000000000 PUSH1 0x20 DUP3 ADD MSTORE POP JUMP JUMPDEST PUSH1 0x0 PUSH2 0x47C0 PUSH1 0x26 DUP4 PUSH2 0x3485 JUMP JUMPDEST SWAP2 POP PUSH2 0x47CB DUP3 PUSH2 0x4764 JUMP JUMPDEST PUSH1 0x40 DUP3 ADD SWAP1 POP SWAP2 SWAP1 POP JUMP JUMPDEST PUSH1 0x0 PUSH1 0x20 DUP3 ADD SWAP1 POP DUP2 DUP2 SUB PUSH1 0x0 DUP4 ADD MSTORE PUSH2 0x47EF DUP2 PUSH2 0x47B3 JUMP JUMPDEST SWAP1 POP SWAP2 SWAP1 POP JUMP JUMPDEST PUSH1 0x0 PUSH2 0x4801 DUP3 PUSH2 0x32BA JUMP JUMPDEST SWAP2 POP PUSH2 0x480C DUP4 PUSH2 0x32BA JUMP JUMPDEST SWAP3 POP DUP2 PUSH32 0xFFFFFFFFFFFFFFFFFFFFFFFFFFFFFFFFFFFFFFFFFFFFFFFFFFFFFFFFFFFFFFFF DIV DUP4 GT DUP3 ISZERO ISZERO AND ISZERO PUSH2 0x4845 JUMPI PUSH2 0x4844 PUSH2 0x4416 JUMP JUMPDEST JUMPDEST DUP3 DUP3 MUL SWAP1 POP SWAP3 SWAP2 POP POP JUMP JUMPDEST PUSH1 0x0 PUSH2 0x485B DUP3 PUSH2 0x32BA JUMP JUMPDEST SWAP2 POP PUSH2 0x4866 DUP4 PUSH2 0x32BA JUMP JUMPDEST SWAP3 POP DUP3 PUSH32 0xFFFFFFFFFFFFFFFFFFFFFFFFFFFFFFFFFFFFFFFFFFFFFFFFFFFFFFFFFFFFFFFF SUB DUP3 GT ISZERO PUSH2 0x489B JUMPI PUSH2 0x489A PUSH2 0x4416 JUMP JUMPDEST JUMPDEST DUP3 DUP3 ADD SWAP1 POP SWAP3 SWAP2 POP POP JUMP JUMPDEST PUSH1 0x0 PUSH2 0x48B1 DUP3 PUSH2 0x32BA JUMP JUMPDEST SWAP2 POP PUSH1 0x0 DUP3 SUB PUSH2 0x48C4 JUMPI PUSH2 0x48C3 PUSH2 0x4416 JUMP JUMPDEST JUMPDEST PUSH1 0x1 DUP3 SUB SWAP1 POP SWAP2 SWAP1 POP JUMP JUMPDEST PUSH32 0x537472696E67733A20686578206C656E67746820696E73756666696369656E74 PUSH1 0x0 DUP3 ADD MSTORE POP JUMP JUMPDEST PUSH1 0x0 PUSH2 0x4905 PUSH1 0x20 DUP4 PUSH2 0x3485 JUMP JUMPDEST SWAP2 POP PUSH2 0x4910 DUP3 PUSH2 0x48CF JUMP JUMPDEST PUSH1 0x20 DUP3 ADD SWAP1 POP SWAP2 SWAP1 POP JUMP JUMPDEST PUSH1 0x0 PUSH1 0x20 DUP3 ADD SWAP1 POP DUP2 DUP2 SUB PUSH1 0x0 DUP4 ADD MSTORE PUSH2 0x4934 DUP2 PUSH2 0x48F8 JUMP JUMPDEST SWAP1 POP SWAP2 SWAP1 POP JUMP JUMPDEST PUSH32 0x455243313135353A2069647320616E6420616D6F756E7473206C656E67746820 PUSH1 0x0 DUP3 ADD MSTORE PUSH32 0x6D69736D61746368000000000000000000000000000000000000000000000000 PUSH1 0x20 DUP3 ADD MSTORE POP JUMP JUMPDEST PUSH1 0x0 PUSH2 0x4997 PUSH1 0x28 DUP4 PUSH2 0x3485 JUMP JUMPDEST SWAP2 POP PUSH2 0x49A2 DUP3 PUSH2 0x493B JUMP JUMPDEST PUSH1 0x40 DUP3 ADD SWAP1 POP SWAP2 SWAP1 POP JUMP JUMPDEST PUSH1 0x0 PUSH1 0x20 DUP3 ADD SWAP1 POP DUP2 DUP2 SUB PUSH1 0x0 DUP4 ADD MSTORE PUSH2 0x49C6 DUP2 PUSH2 0x498A JUMP JUMPDEST SWAP1 POP SWAP2 SWAP1 POP JUMP JUMPDEST PUSH32 0x455243313135353A207472616E7366657220746F20746865207A65726F206164 PUSH1 0x0 DUP3 ADD MSTORE PUSH32 0x6472657373000000000000000000000000000000000000000000000000000000 PUSH1 0x20 DUP3 ADD MSTORE POP JUMP JUMPDEST PUSH1 0x0 PUSH2 0x4A29 PUSH1 0x25 DUP4 PUSH2 0x3485 JUMP JUMPDEST SWAP2 POP PUSH2 0x4A34 DUP3 PUSH2 0x49CD JUMP JUMPDEST PUSH1 0x40 DUP3 ADD SWAP1 POP SWAP2 SWAP1 POP JUMP JUMPDEST PUSH1 0x0 PUSH1 0x20 DUP3 ADD SWAP1 POP DUP2 DUP2 SUB PUSH1 0x0 DUP4 ADD MSTORE PUSH2 0x4A58 DUP2 PUSH2 0x4A1C JUMP JUMPDEST SWAP1 POP SWAP2 SWAP1 POP JUMP JUMPDEST PUSH32 0x455243313135353A20696E73756666696369656E742062616C616E636520666F PUSH1 0x0 DUP3 ADD MSTORE PUSH32 0x72207472616E7366657200000000000000000000000000000000000000000000 PUSH1 0x20 DUP3 ADD MSTORE POP JUMP JUMPDEST PUSH1 0x0 PUSH2 0x4ABB PUSH1 0x2A DUP4 PUSH2 0x3485 JUMP JUMPDEST SWAP2 POP PUSH2 0x4AC6 DUP3 PUSH2 0x4A5F JUMP JUMPDEST PUSH1 0x40 DUP3 ADD SWAP1 POP SWAP2 SWAP1 POP JUMP JUMPDEST PUSH1 0x0 PUSH1 0x20 DUP3 ADD SWAP1 POP DUP2 DUP2 SUB PUSH1 0x0 DUP4 ADD MSTORE PUSH2 0x4AEA DUP2 PUSH2 0x4AAE JUMP JUMPDEST SWAP1 POP SWAP2 SWAP1 POP JUMP JUMPDEST PUSH1 0x0 PUSH1 0x40 DUP3 ADD SWAP1 POP DUP2 DUP2 SUB PUSH1 0x0 DUP4 ADD MSTORE PUSH2 0x4B0B DUP2 DUP6 PUSH2 0x3E8E JUMP JUMPDEST SWAP1 POP DUP2 DUP2 SUB PUSH1 0x20 DUP4 ADD MSTORE PUSH2 0x4B1F DUP2 DUP5 PUSH2 0x3E8E JUMP JUMPDEST SWAP1 POP SWAP4 SWAP3 POP POP POP JUMP JUMPDEST PUSH32 0x455243313135353A206D696E7420746F20746865207A65726F20616464726573 PUSH1 0x0 DUP3 ADD MSTORE PUSH32 0x7300000000000000000000000000000000000000000000000000000000000000 PUSH1 0x20 DUP3 ADD MSTORE POP JUMP JUMPDEST PUSH1 0x0 PUSH2 0x4B84 PUSH1 0x21 DUP4 PUSH2 0x3485 JUMP JUMPDEST SWAP2 POP PUSH2 0x4B8F DUP3 PUSH2 0x4B28 JUMP JUMPDEST PUSH1 0x40 DUP3 ADD SWAP1 POP SWAP2 SWAP1 POP JUMP JUMPDEST PUSH1 0x0 PUSH1 0x20 DUP3 ADD SWAP1 POP DUP2 DUP2 SUB PUSH1 0x0 DUP4 ADD MSTORE PUSH2 0x4BB3 DUP2 PUSH2 0x4B77 JUMP JUMPDEST SWAP1 POP SWAP2 SWAP1 POP JUMP JUMPDEST PUSH32 0x455243313135353A206275726E2066726F6D20746865207A65726F2061646472 PUSH1 0x0 DUP3 ADD MSTORE PUSH32 0x6573730000000000000000000000000000000000000000000000000000000000 PUSH1 0x20 DUP3 ADD MSTORE POP JUMP JUMPDEST PUSH1 0x0 PUSH2 0x4C16 PUSH1 0x23 DUP4 PUSH2 0x3485 JUMP JUMPDEST SWAP2 POP PUSH2 0x4C21 DUP3 PUSH2 0x4BBA JUMP JUMPDEST PUSH1 0x40 DUP3 ADD SWAP1 POP SWAP2 SWAP1 POP JUMP JUMPDEST PUSH1 0x0 PUSH1 0x20 DUP3 ADD SWAP1 POP DUP2 DUP2 SUB PUSH1 0x0 DUP4 ADD MSTORE PUSH2 0x4C45 DUP2 PUSH2 0x4C09 JUMP JUMPDEST SWAP1 POP SWAP2 SWAP1 POP JUMP JUMPDEST PUSH32 0x455243313135353A206275726E20616D6F756E7420657863656564732062616C PUSH1 0x0 DUP3 ADD MSTORE PUSH32 0x616E636500000000000000000000000000000000000000000000000000000000 PUSH1 0x20 DUP3 ADD MSTORE POP JUMP JUMPDEST PUSH1 0x0 PUSH2 0x4CA8 PUSH1 0x24 DUP4 PUSH2 0x3485 JUMP JUMPDEST SWAP2 POP PUSH2 0x4CB3 DUP3 PUSH2 0x4C4C JUMP JUMPDEST PUSH1 0x40 DUP3 ADD SWAP1 POP SWAP2 SWAP1 POP JUMP JUMPDEST PUSH1 0x0 PUSH1 0x20 DUP3 ADD SWAP1 POP DUP2 DUP2 SUB PUSH1 0x0 DUP4 ADD MSTORE PUSH2 0x4CD7 DUP2 PUSH2 0x4C9B JUMP JUMPDEST SWAP1 POP SWAP2 SWAP1 POP JUMP JUMPDEST PUSH32 0x4F776E61626C653A2063616C6C6572206973206E6F7420746865206F776E6572 PUSH1 0x0 DUP3 ADD MSTORE POP JUMP JUMPDEST PUSH1 0x0 PUSH2 0x4D14 PUSH1 0x20 DUP4 PUSH2 0x3485 JUMP JUMPDEST SWAP2 POP PUSH2 0x4D1F DUP3 PUSH2 0x4CDE JUMP JUMPDEST PUSH1 0x20 DUP3 ADD SWAP1 POP SWAP2 SWAP1 POP JUMP JUMPDEST PUSH1 0x0 PUSH1 0x20 DUP3 ADD SWAP1 POP DUP2 DUP2 SUB PUSH1 0x0 DUP4 ADD MSTORE PUSH2 0x4D43 DUP2 PUSH2 0x4D07 JUMP JUMPDEST SWAP1 POP SWAP2 SWAP1 POP JUMP JUMPDEST PUSH32 0x455243313135353A2073657474696E6720617070726F76616C20737461747573 PUSH1 0x0 DUP3 ADD MSTORE PUSH32 0x20666F722073656C660000000000000000000000000000000000000000000000 PUSH1 0x20 DUP3 ADD MSTORE POP JUMP JUMPDEST PUSH1 0x0 PUSH2 0x4DA6 PUSH1 0x29 DUP4 PUSH2 0x3485 JUMP JUMPDEST SWAP2 POP PUSH2 0x4DB1 DUP3 PUSH2 0x4D4A JUMP JUMPDEST PUSH1 0x40 DUP3 ADD SWAP1 POP SWAP2 SWAP1 POP JUMP JUMPDEST PUSH1 0x0 PUSH1 0x20 DUP3 ADD SWAP1 POP DUP2 DUP2 SUB PUSH1 0x0 DUP4 ADD MSTORE PUSH2 0x4DD5 DUP2 PUSH2 0x4D99 JUMP JUMPDEST SWAP1 POP SWAP2 SWAP1 POP JUMP JUMPDEST PUSH1 0x0 PUSH1 0x40 DUP3 ADD SWAP1 POP PUSH2 0x4DF1 PUSH1 0x0 DUP4 ADD DUP6 PUSH2 0x3330 JUMP JUMPDEST PUSH2 0x4DFE PUSH1 0x20 DUP4 ADD DUP5 PUSH2 0x3330 JUMP JUMPDEST SWAP4 SWAP3 POP POP POP JUMP JUMPDEST PUSH1 0x0 DUP2 MLOAD SWAP1 POP SWAP2 SWAP1 POP JUMP JUMPDEST PUSH1 0x0 DUP3 DUP3 MSTORE PUSH1 0x20 DUP3 ADD SWAP1 POP SWAP3 SWAP2 POP POP JUMP JUMPDEST PUSH1 0x0 PUSH2 0x4E2C DUP3 PUSH2 0x4E05 JUMP JUMPDEST PUSH2 0x4E36 DUP2 DUP6 PUSH2 0x4E10 JUMP JUMPDEST SWAP4 POP PUSH2 0x4E46 DUP2 DUP6 PUSH1 0x20 DUP7 ADD PUSH2 0x3496 JUMP JUMPDEST PUSH2 0x4E4F DUP2 PUSH2 0x34C9 JUMP JUMPDEST DUP5 ADD SWAP2 POP POP SWAP3 SWAP2 POP POP JUMP JUMPDEST PUSH1 0x0 PUSH1 0xA0 DUP3 ADD SWAP1 POP PUSH2 0x4E6F PUSH1 0x0 DUP4 ADD DUP9 PUSH2 0x359B JUMP JUMPDEST PUSH2 0x4E7C PUSH1 0x20 DUP4 ADD DUP8 PUSH2 0x359B JUMP JUMPDEST DUP2 DUP2 SUB PUSH1 0x40 DUP4 ADD MSTORE PUSH2 0x4E8E DUP2 DUP7 PUSH2 0x3E8E JUMP JUMPDEST SWAP1 POP DUP2 DUP2 SUB PUSH1 0x60 DUP4 ADD MSTORE PUSH2 0x4EA2 DUP2 DUP6 PUSH2 0x3E8E JUMP JUMPDEST SWAP1 POP DUP2 DUP2 SUB PUSH1 0x80 DUP4 ADD MSTORE PUSH2 0x4EB6 DUP2 DUP5 PUSH2 0x4E21 JUMP JUMPDEST SWAP1 POP SWAP7 SWAP6 POP POP POP POP POP POP JUMP JUMPDEST PUSH1 0x0 DUP2 MLOAD SWAP1 POP PUSH2 0x4ED1 DUP2 PUSH2 0x3386 JUMP JUMPDEST SWAP3 SWAP2 POP POP JUMP JUMPDEST PUSH1 0x0 PUSH1 0x20 DUP3 DUP5 SUB SLT ISZERO PUSH2 0x4EED JUMPI PUSH2 0x4EEC PUSH2 0x3252 JUMP JUMPDEST JUMPDEST PUSH1 0x0 PUSH2 0x4EFB DUP5 DUP3 DUP6 ADD PUSH2 0x4EC2 JUMP JUMPDEST SWAP2 POP POP SWAP3 SWAP2 POP POP JUMP JUMPDEST PUSH1 0x0 DUP2 PUSH1 0xE0 SHR SWAP1 POP SWAP2 SWAP1 POP JUMP JUMPDEST PUSH1 0x0 PUSH1 0x3 RETURNDATASIZE GT ISZERO PUSH2 0x4F30 JUMPI PUSH1 0x4 PUSH1 0x0 DUP1 RETURNDATACOPY PUSH2 0x4F2D PUSH1 0x0 MLOAD PUSH2 0x4F04 JUMP JUMPDEST SWAP1 POP JUMPDEST SWAP1 JUMP JUMPDEST PUSH1 0x0 PUSH1 0x44 RETURNDATASIZE LT PUSH2 0x4FC0 JUMPI PUSH2 0x4F45 PUSH2 0x3248 JUMP JUMPDEST PUSH1 0x4 RETURNDATASIZE SUB PUSH1 0x4 DUP3 RETURNDATACOPY DUP1 MLOAD RETURNDATASIZE PUSH1 0x24 DUP3 ADD GT PUSH8 0xFFFFFFFFFFFFFFFF DUP3 GT OR ISZERO PUSH2 0x4F6D JUMPI POP POP PUSH2 0x4FC0 JUMP JUMPDEST DUP1 DUP3 ADD DUP1 MLOAD PUSH8 0xFFFFFFFFFFFFFFFF DUP2 GT ISZERO PUSH2 0x4F8B JUMPI POP POP POP POP PUSH2 0x4FC0 JUMP JUMPDEST DUP1 PUSH1 0x20 DUP4 ADD ADD PUSH1 0x4 RETURNDATASIZE SUB DUP6 ADD DUP2 GT ISZERO PUSH2 0x4FA8 JUMPI POP POP POP POP POP PUSH2 0x4FC0 JUMP JUMPDEST PUSH2 0x4FB7 DUP3 PUSH1 0x20 ADD DUP6 ADD DUP7 PUSH2 0x37E2 JUMP JUMPDEST DUP3 SWAP6 POP POP POP POP POP POP JUMPDEST SWAP1 JUMP JUMPDEST PUSH32 0x455243313135353A207472616E7366657220746F206E6F6E2D45524331313535 PUSH1 0x0 DUP3 ADD MSTORE PUSH32 0x526563656976657220696D706C656D656E746572000000000000000000000000 PUSH1 0x20 DUP3 ADD MSTORE POP JUMP JUMPDEST PUSH1 0x0 PUSH2 0x501F PUSH1 0x34 DUP4 PUSH2 0x3485 JUMP JUMPDEST SWAP2 POP PUSH2 0x502A DUP3 PUSH2 0x4FC3 JUMP JUMPDEST PUSH1 0x40 DUP3 ADD SWAP1 POP SWAP2 SWAP1 POP JUMP JUMPDEST PUSH1 0x0 PUSH1 0x20 DUP3 ADD SWAP1 POP DUP2 DUP2 SUB PUSH1 0x0 DUP4 ADD MSTORE PUSH2 0x504E DUP2 PUSH2 0x5012 JUMP JUMPDEST SWAP1 POP SWAP2 SWAP1 POP JUMP JUMPDEST PUSH32 0x455243313135353A204552433131353552656365697665722072656A65637465 PUSH1 0x0 DUP3 ADD MSTORE PUSH32 0x6420746F6B656E73000000000000000000000000000000000000000000000000 PUSH1 0x20 DUP3 ADD MSTORE POP JUMP JUMPDEST PUSH1 0x0 PUSH2 0x50B1 PUSH1 0x28 DUP4 PUSH2 0x3485 JUMP JUMPDEST SWAP2 POP PUSH2 0x50BC DUP3 PUSH2 0x5055 JUMP JUMPDEST PUSH1 0x40 DUP3 ADD SWAP1 POP SWAP2 SWAP1 POP JUMP JUMPDEST PUSH1 0x0 PUSH1 0x20 DUP3 ADD SWAP1 POP DUP2 DUP2 SUB PUSH1 0x0 DUP4 ADD MSTORE PUSH2 0x50E0 DUP2 PUSH2 0x50A4 JUMP JUMPDEST SWAP1 POP SWAP2 SWAP1 POP JUMP JUMPDEST PUSH1 0x0 DUP2 SWAP1 POP SWAP3 SWAP2 POP POP JUMP JUMPDEST PUSH32 0x416363657373436F6E74726F6C3A206163636F756E7420000000000000000000 PUSH1 0x0 DUP3 ADD MSTORE POP JUMP JUMPDEST PUSH1 0x0 PUSH2 0x5128 PUSH1 0x17 DUP4 PUSH2 0x50E7 JUMP JUMPDEST SWAP2 POP PUSH2 0x5133 DUP3 PUSH2 0x50F2 JUMP JUMPDEST PUSH1 0x17 DUP3 ADD SWAP1 POP SWAP2 SWAP1 POP JUMP JUMPDEST PUSH1 0x0 PUSH2 0x5149 DUP3 PUSH2 0x347A JUMP JUMPDEST PUSH2 0x5153 DUP2 DUP6 PUSH2 0x50E7 JUMP JUMPDEST SWAP4 POP PUSH2 0x5163 DUP2 DUP6 PUSH1 0x20 DUP7 ADD PUSH2 0x3496 JUMP JUMPDEST DUP1 DUP5 ADD SWAP2 POP POP SWAP3 SWAP2 POP POP JUMP JUMPDEST PUSH32 0x206973206D697373696E6720726F6C6520000000000000000000000000000000 PUSH1 0x0 DUP3 ADD MSTORE POP JUMP JUMPDEST PUSH1 0x0 PUSH2 0x51A5 PUSH1 0x11 DUP4 PUSH2 0x50E7 JUMP JUMPDEST SWAP2 POP PUSH2 0x51B0 DUP3 PUSH2 0x516F JUMP JUMPDEST PUSH1 0x11 DUP3 ADD SWAP1 POP SWAP2 SWAP1 POP JUMP JUMPDEST PUSH1 0x0 PUSH2 0x51C6 DUP3 PUSH2 0x511B JUMP JUMPDEST SWAP2 POP PUSH2 0x51D2 DUP3 DUP6 PUSH2 0x513E JUMP JUMPDEST SWAP2 POP PUSH2 0x51DD DUP3 PUSH2 0x5198 JUMP JUMPDEST SWAP2 POP PUSH2 0x51E9 DUP3 DUP5 PUSH2 0x513E JUMP JUMPDEST SWAP2 POP DUP2 SWAP1 POP SWAP4 SWAP3 POP POP POP JUMP JUMPDEST PUSH1 0x0 PUSH1 0xA0 DUP3 ADD SWAP1 POP PUSH2 0x520A PUSH1 0x0 DUP4 ADD DUP9 PUSH2 0x359B JUMP JUMPDEST PUSH2 0x5217 PUSH1 0x20 DUP4 ADD DUP8 PUSH2 0x359B JUMP JUMPDEST PUSH2 0x5224 PUSH1 0x40 DUP4 ADD DUP7 PUSH2 0x3330 JUMP JUMPDEST PUSH2 0x5231 PUSH1 0x60 DUP4 ADD DUP6 PUSH2 0x3330 JUMP JUMPDEST DUP2 DUP2 SUB PUSH1 0x80 DUP4 ADD MSTORE PUSH2 0x5243 DUP2 DUP5 PUSH2 0x4E21 JUMP JUMPDEST SWAP1 POP SWAP7 SWAP6 POP POP POP POP POP POP JUMP INVALID LOG2 PUSH5 0x6970667358 0x22 SLT KECCAK256 0x4F 0xF CALLVALUE AND 0xE3 0xAA 0xA8 0xC SWAP8 MOD PUSH1 0xCB SWAP3 0xFB 0xCC CREATE ADD DUP6 0xEC DUP6 AND EXTCODEHASH NOT PUSH19 0x4B4801CA4197389364736F6C634300080E0033 PUSH9 0x747470733A2F2F6761 PUSH14 0x652E6578616D706C652F6170692F PUSH10 0x74656D2F7B69647D2E6A PUSH20 0x6F6E000000000000000000000000000000000000 "
		},
		"gasEstimates": {
			"creation": {
				"codeDepositCost": "4225000",
				"executionCost": "infinite",
				"totalCost": "infinite"
			},
			"external": {
				"DEFAULT_ADMIN_ROLE()": "447",
				"MINTER_ROLE()": "infinite",
				"assetClassif()": "2742",
				"assetId()": "2566",
				"assetType()": "2722",
				"assets(uint8)": "infinite",
				"balanceOf(address,uint256)": "infinite",
				"balanceOfBatch(address[],uint256[])": "infinite",
				"burn(address,uint256,uint256)": "infinite",
				"burnBatch(address,uint256[],uint256[])": "infinite",
				"checkOwnership()": "2625",
				"currentYear()": "2612",
				"getRoleAdmin(bytes32)": "infinite",
				"grantRole(bytes32,address)": "infinite",
				"hasAssetValuationBeenSet(uint8)": "2997",
				"hasRole(bytes32,address)": "3230",
				"isApprovedForAll(address,address)": "infinite",
				"maxAssetsQuantity()": "2582",
				"mint(address,uint8,uint16,uint16,uint8,uint32,uint256[],uint256[])": "infinite",
				"owner()": "2590",
				"renounceOwnership()": "30509",
				"renounceRole(bytes32,address)": "infinite",
				"revokeRole(bytes32,address)": "infinite",
				"safeBatchTransferFrom(address,address,uint256[],uint256[],bytes)": "infinite",
				"safeTransferFrom(address,address,uint256,uint256,bytes)": "infinite",
				"setApprovalForAll(address,bool)": "infinite",
				"setAssetAvailabilityForTransfer(uint8,bool)": "infinite",
				"setAssetValuation(uint8,uint32)": "infinite",
				"setCurrentYear(uint16)": "infinite",
				"setMaxQuantityForCurrentCOPF(uint8)": "infinite",
				"supportsInterface(bytes4)": "974",
				"transferAsset(uint8,address,uint256)": "infinite",
				"transferOwnership(address)": "30832",
				"uri(uint256)": "infinite"
			},
			"internal": {
				"isAssetAvailableForTransfer(uint8)": "2316",
				"setApprovalToTransferAssets(address,address,bool)": "infinite"
			}
		},
		"methodIdentifiers": {
			"DEFAULT_ADMIN_ROLE()": "a217fddf",
			"MINTER_ROLE()": "d5391393",
			"assetClassif()": "fe9ef85f",
			"assetId()": "44de240a",
			"assetType()": "3fe3347a",
			"assets(uint8)": "1b3accac",
			"balanceOf(address,uint256)": "00fdd58e",
			"balanceOfBatch(address[],uint256[])": "4e1273f4",
			"burn(address,uint256,uint256)": "f5298aca",
			"burnBatch(address,uint256[],uint256[])": "6b20c454",
			"checkOwnership()": "219a1d77",
			"currentYear()": "0b5a006b",
			"getRoleAdmin(bytes32)": "248a9ca3",
			"grantRole(bytes32,address)": "2f2ff15d",
			"hasAssetValuationBeenSet(uint8)": "aeaf9020",
			"hasRole(bytes32,address)": "91d14854",
			"isApprovedForAll(address,address)": "e985e9c5",
			"maxAssetsQuantity()": "b5b6313f",
			"mint(address,uint8,uint16,uint16,uint8,uint32,uint256[],uint256[])": "30524b6e",
			"owner()": "8da5cb5b",
			"renounceOwnership()": "715018a6",
			"renounceRole(bytes32,address)": "36568abe",
			"revokeRole(bytes32,address)": "d547741f",
			"safeBatchTransferFrom(address,address,uint256[],uint256[],bytes)": "2eb2c2d6",
			"safeTransferFrom(address,address,uint256,uint256,bytes)": "f242432a",
			"setApprovalForAll(address,bool)": "a22cb465",
			"setAssetAvailabilityForTransfer(uint8,bool)": "87fec775",
			"setAssetValuation(uint8,uint32)": "e79eee5e",
			"setCurrentYear(uint16)": "ea3994bc",
			"setMaxQuantityForCurrentCOPF(uint8)": "a2689bfd",
			"supportsInterface(bytes4)": "01ffc9a7",
			"transferAsset(uint8,address,uint256)": "72961152",
			"transferOwnership(address)": "f2fde38b",
			"uri(uint256)": "0e89341c"
		}
	},
	"abi": [
		{
			"inputs": [
				{
					"internalType": "address",
					"name": "_minter",
					"type": "address"
				},
				{
					"internalType": "address",
					"name": "_initialOwner",
					"type": "address"
				},
				{
					"internalType": "uint8",
					"name": "_maxAssetsQuantity",
					"type": "uint8"
				},
				{
					"internalType": "uint8",
					"name": "_assetType",
					"type": "uint8"
				},
				{
					"internalType": "uint16",
					"name": "_projectStart",
					"type": "uint16"
				},
				{
					"internalType": "uint16",
					"name": "_projectEnd",
					"type": "uint16"
				},
				{
					"internalType": "uint8",
					"name": "_assetclass",
					"type": "uint8"
				},
				{
					"internalType": "uint256[]",
					"name": "_ids",
					"type": "uint256[]"
				},
				{
					"internalType": "uint256[]",
					"name": "_amount",
					"type": "uint256[]"
				}
			],
			"stateMutability": "nonpayable",
			"type": "constructor"
		},
		{
			"anonymous": false,
			"inputs": [
				{
					"indexed": true,
					"internalType": "address",
					"name": "account",
					"type": "address"
				},
				{
					"indexed": true,
					"internalType": "address",
					"name": "operator",
					"type": "address"
				},
				{
					"indexed": false,
					"internalType": "bool",
					"name": "approved",
					"type": "bool"
				}
			],
			"name": "ApprovalForAll",
			"type": "event"
		},
		{
			"anonymous": false,
			"inputs": [
				{
					"indexed": false,
					"internalType": "bool",
					"name": "availability",
					"type": "bool"
				}
			],
			"name": "AssetAvailabilityUpdated",
			"type": "event"
		},
		{
			"anonymous": false,
			"inputs": [
				{
					"indexed": false,
					"internalType": "uint8",
					"name": "assetId",
					"type": "uint8"
				},
				{
					"indexed": false,
					"internalType": "bool",
					"name": "wasBurned",
					"type": "bool"
				}
			],
			"name": "AssetBurned",
			"type": "event"
		},
		{
			"anonymous": false,
			"inputs": [
				{
					"indexed": false,
					"internalType": "uint32",
					"name": "AssetId",
					"type": "uint32"
				},
				{
					"indexed": false,
					"internalType": "address",
					"name": "tokenOwner",
					"type": "address"
				},
				{
					"indexed": false,
					"internalType": "uint8",
					"name": "assetId",
					"type": "uint8"
				}
			],
			"name": "AssetMinted",
			"type": "event"
		},
		{
			"anonymous": false,
			"inputs": [
				{
					"indexed": false,
					"internalType": "uint8",
					"name": "assetId",
					"type": "uint8"
				},
				{
					"indexed": false,
					"internalType": "address",
					"name": "newOwner",
					"type": "address"
				},
				{
					"indexed": false,
					"internalType": "bool",
					"name": "transferred",
					"type": "bool"
				}
			],
			"name": "AssetTransferred",
			"type": "event"
		},
		{
			"anonymous": false,
			"inputs": [
				{
					"indexed": false,
					"internalType": "uint32",
					"name": "value",
					"type": "uint32"
				},
				{
					"indexed": false,
					"internalType": "bool",
					"name": "valuationSet",
					"type": "bool"
				}
			],
			"name": "AssetValuationWevent",
			"type": "event"
		},
		{
			"anonymous": false,
			"inputs": [
				{
					"indexed": true,
					"internalType": "address",
					"name": "previousOwner",
					"type": "address"
				},
				{
					"indexed": true,
					"internalType": "address",
					"name": "newOwner",
					"type": "address"
				}
			],
			"name": "OwnershipTransferred",
			"type": "event"
		},
		{
			"anonymous": false,
			"inputs": [
				{
					"indexed": true,
					"internalType": "bytes32",
					"name": "role",
					"type": "bytes32"
				},
				{
					"indexed": true,
					"internalType": "bytes32",
					"name": "previousAdminRole",
					"type": "bytes32"
				},
				{
					"indexed": true,
					"internalType": "bytes32",
					"name": "newAdminRole",
					"type": "bytes32"
				}
			],
			"name": "RoleAdminChanged",
			"type": "event"
		},
		{
			"anonymous": false,
			"inputs": [
				{
					"indexed": true,
					"internalType": "bytes32",
					"name": "role",
					"type": "bytes32"
				},
				{
					"indexed": true,
					"internalType": "address",
					"name": "account",
					"type": "address"
				},
				{
					"indexed": true,
					"internalType": "address",
					"name": "sender",
					"type": "address"
				}
			],
			"name": "RoleGranted",
			"type": "event"
		},
		{
			"anonymous": false,
			"inputs": [
				{
					"indexed": true,
					"internalType": "bytes32",
					"name": "role",
					"type": "bytes32"
				},
				{
					"indexed": true,
					"internalType": "address",
					"name": "account",
					"type": "address"
				},
				{
					"indexed": true,
					"internalType": "address",
					"name": "sender",
					"type": "address"
				}
			],
			"name": "RoleRevoked",
			"type": "event"
		},
		{
			"anonymous": false,
			"inputs": [
				{
					"indexed": true,
					"internalType": "address",
					"name": "operator",
					"type": "address"
				},
				{
					"indexed": true,
					"internalType": "address",
					"name": "from",
					"type": "address"
				},
				{
					"indexed": true,
					"internalType": "address",
					"name": "to",
					"type": "address"
				},
				{
					"indexed": false,
					"internalType": "uint256[]",
					"name": "ids",
					"type": "uint256[]"
				},
				{
					"indexed": false,
					"internalType": "uint256[]",
					"name": "values",
					"type": "uint256[]"
				}
			],
			"name": "TransferBatch",
			"type": "event"
		},
		{
			"anonymous": false,
			"inputs": [
				{
					"indexed": true,
					"internalType": "address",
					"name": "operator",
					"type": "address"
				},
				{
					"indexed": true,
					"internalType": "address",
					"name": "from",
					"type": "address"
				},
				{
					"indexed": true,
					"internalType": "address",
					"name": "to",
					"type": "address"
				},
				{
					"indexed": false,
					"internalType": "uint256",
					"name": "id",
					"type": "uint256"
				},
				{
					"indexed": false,
					"internalType": "uint256",
					"name": "value",
					"type": "uint256"
				}
			],
			"name": "TransferSingle",
			"type": "event"
		},
		{
			"anonymous": false,
			"inputs": [
				{
					"indexed": false,
					"internalType": "string",
					"name": "value",
					"type": "string"
				},
				{
					"indexed": true,
					"internalType": "uint256",
					"name": "id",
					"type": "uint256"
				}
			],
			"name": "URI",
			"type": "event"
		},
		{
			"inputs": [],
			"name": "DEFAULT_ADMIN_ROLE",
			"outputs": [
				{
					"internalType": "bytes32",
					"name": "",
					"type": "bytes32"
				}
			],
			"stateMutability": "view",
			"type": "function"
		},
		{
			"inputs": [],
			"name": "MINTER_ROLE",
			"outputs": [
				{
					"internalType": "bytes32",
					"name": "",
					"type": "bytes32"
				}
			],
			"stateMutability": "view",
			"type": "function"
		},
		{
			"inputs": [],
			"name": "assetClassif",
			"outputs": [
				{
					"internalType": "enum COPF.AssetClassification",
					"name": "",
					"type": "uint8"
				}
			],
			"stateMutability": "view",
			"type": "function"
		},
		{
			"inputs": [],
			"name": "assetId",
			"outputs": [
				{
					"internalType": "uint8",
					"name": "",
					"type": "uint8"
				}
			],
			"stateMutability": "view",
			"type": "function"
		},
		{
			"inputs": [],
			"name": "assetType",
			"outputs": [
				{
					"internalType": "enum COPF.AssetType",
					"name": "",
					"type": "uint8"
				}
			],
			"stateMutability": "view",
			"type": "function"
		},
		{
			"inputs": [
				{
					"internalType": "uint8",
					"name": "",
					"type": "uint8"
				}
			],
			"name": "assets",
			"outputs": [
				{
					"internalType": "address",
					"name": "initialOwner",
					"type": "address"
				},
				{
					"internalType": "enum COPF.AssetType",
					"name": "assetType",
					"type": "uint8"
				},
				{
					"internalType": "uint16",
					"name": "projectStart",
					"type": "uint16"
				},
				{
					"internalType": "uint16",
					"name": "projectEnd",
					"type": "uint16"
				},
				{
					"internalType": "enum COPF.AssetClassification",
					"name": "assetClassification",
					"type": "uint8"
				},
				{
					"internalType": "uint32",
					"name": "AssetValuation",
					"type": "uint32"
				},
				{
					"internalType": "bool",
					"name": "isCurrentAssetAvailableForTransfer",
					"type": "bool"
				},
				{
					"internalType": "address",
					"name": "tokenOwner",
					"type": "address"
				}
			],
			"stateMutability": "view",
			"type": "function"
		},
		{
			"inputs": [
				{
					"internalType": "address",
					"name": "account",
					"type": "address"
				},
				{
					"internalType": "uint256",
					"name": "id",
					"type": "uint256"
				}
			],
			"name": "balanceOf",
			"outputs": [
				{
					"internalType": "uint256",
					"name": "",
					"type": "uint256"
				}
			],
			"stateMutability": "view",
			"type": "function"
		},
		{
			"inputs": [
				{
					"internalType": "address[]",
					"name": "accounts",
					"type": "address[]"
				},
				{
					"internalType": "uint256[]",
					"name": "ids",
					"type": "uint256[]"
				}
			],
			"name": "balanceOfBatch",
			"outputs": [
				{
					"internalType": "uint256[]",
					"name": "",
					"type": "uint256[]"
				}
			],
			"stateMutability": "view",
			"type": "function"
		},
		{
			"inputs": [
				{
					"internalType": "address",
					"name": "account",
					"type": "address"
				},
				{
					"internalType": "uint256",
					"name": "id",
					"type": "uint256"
				},
				{
					"internalType": "uint256",
					"name": "value",
					"type": "uint256"
				}
			],
			"name": "burn",
			"outputs": [],
			"stateMutability": "nonpayable",
			"type": "function"
		},
		{
			"inputs": [
				{
					"internalType": "address",
					"name": "account",
					"type": "address"
				},
				{
					"internalType": "uint256[]",
					"name": "ids",
					"type": "uint256[]"
				},
				{
					"internalType": "uint256[]",
					"name": "values",
					"type": "uint256[]"
				}
			],
			"name": "burnBatch",
			"outputs": [],
			"stateMutability": "nonpayable",
			"type": "function"
		},
		{
			"inputs": [],
			"name": "checkOwnership",
			"outputs": [
				{
					"internalType": "address",
					"name": "",
					"type": "address"
				}
			],
			"stateMutability": "view",
			"type": "function"
		},
		{
			"inputs": [],
			"name": "currentYear",
			"outputs": [
				{
					"internalType": "uint16",
					"name": "",
					"type": "uint16"
				}
			],
			"stateMutability": "view",
			"type": "function"
		},
		{
			"inputs": [
				{
					"internalType": "bytes32",
					"name": "role",
					"type": "bytes32"
				}
			],
			"name": "getRoleAdmin",
			"outputs": [
				{
					"internalType": "bytes32",
					"name": "",
					"type": "bytes32"
				}
			],
			"stateMutability": "view",
			"type": "function"
		},
		{
			"inputs": [
				{
					"internalType": "bytes32",
					"name": "role",
					"type": "bytes32"
				},
				{
					"internalType": "address",
					"name": "account",
					"type": "address"
				}
			],
			"name": "grantRole",
			"outputs": [],
			"stateMutability": "nonpayable",
			"type": "function"
		},
		{
			"inputs": [
				{
					"internalType": "uint8",
					"name": "_assetId",
					"type": "uint8"
				}
			],
			"name": "hasAssetValuationBeenSet",
			"outputs": [
				{
					"internalType": "bool",
					"name": "",
					"type": "bool"
				}
			],
			"stateMutability": "view",
			"type": "function"
		},
		{
			"inputs": [
				{
					"internalType": "bytes32",
					"name": "role",
					"type": "bytes32"
				},
				{
					"internalType": "address",
					"name": "account",
					"type": "address"
				}
			],
			"name": "hasRole",
			"outputs": [
				{
					"internalType": "bool",
					"name": "",
					"type": "bool"
				}
			],
			"stateMutability": "view",
			"type": "function"
		},
		{
			"inputs": [
				{
					"internalType": "address",
					"name": "account",
					"type": "address"
				},
				{
					"internalType": "address",
					"name": "operator",
					"type": "address"
				}
			],
			"name": "isApprovedForAll",
			"outputs": [
				{
					"internalType": "bool",
					"name": "",
					"type": "bool"
				}
			],
			"stateMutability": "view",
			"type": "function"
		},
		{
			"inputs": [],
			"name": "maxAssetsQuantity",
			"outputs": [
				{
					"internalType": "uint8",
					"name": "",
					"type": "uint8"
				}
			],
			"stateMutability": "view",
			"type": "function"
		},
		{
			"inputs": [
				{
					"internalType": "address",
					"name": "_initialOwner",
					"type": "address"
				},
				{
					"internalType": "enum COPF.AssetType",
					"name": "_assetType",
					"type": "uint8"
				},
				{
					"internalType": "uint16",
					"name": "_projectStart",
					"type": "uint16"
				},
				{
					"internalType": "uint16",
					"name": "_projectEnd",
					"type": "uint16"
				},
				{
					"internalType": "enum COPF.AssetClassification",
					"name": "_assetclass",
					"type": "uint8"
				},
				{
					"internalType": "uint32",
					"name": "_assetValuation",
					"type": "uint32"
				},
				{
					"internalType": "uint256[]",
					"name": "ids",
					"type": "uint256[]"
				},
				{
					"internalType": "uint256[]",
					"name": "amounts",
					"type": "uint256[]"
				}
			],
			"name": "mint",
			"outputs": [],
			"stateMutability": "nonpayable",
			"type": "function"
		},
		{
			"inputs": [],
			"name": "owner",
			"outputs": [
				{
					"internalType": "address",
					"name": "",
					"type": "address"
				}
			],
			"stateMutability": "view",
			"type": "function"
		},
		{
			"inputs": [],
			"name": "renounceOwnership",
			"outputs": [],
			"stateMutability": "nonpayable",
			"type": "function"
		},
		{
			"inputs": [
				{
					"internalType": "bytes32",
					"name": "role",
					"type": "bytes32"
				},
				{
					"internalType": "address",
					"name": "account",
					"type": "address"
				}
			],
			"name": "renounceRole",
			"outputs": [],
			"stateMutability": "nonpayable",
			"type": "function"
		},
		{
			"inputs": [
				{
					"internalType": "bytes32",
					"name": "role",
					"type": "bytes32"
				},
				{
					"internalType": "address",
					"name": "account",
					"type": "address"
				}
			],
			"name": "revokeRole",
			"outputs": [],
			"stateMutability": "nonpayable",
			"type": "function"
		},
		{
			"inputs": [
				{
					"internalType": "address",
					"name": "from",
					"type": "address"
				},
				{
					"internalType": "address",
					"name": "to",
					"type": "address"
				},
				{
					"internalType": "uint256[]",
					"name": "ids",
					"type": "uint256[]"
				},
				{
					"internalType": "uint256[]",
					"name": "amounts",
					"type": "uint256[]"
				},
				{
					"internalType": "bytes",
					"name": "data",
					"type": "bytes"
				}
			],
			"name": "safeBatchTransferFrom",
			"outputs": [],
			"stateMutability": "nonpayable",
			"type": "function"
		},
		{
			"inputs": [
				{
					"internalType": "address",
					"name": "from",
					"type": "address"
				},
				{
					"internalType": "address",
					"name": "to",
					"type": "address"
				},
				{
					"internalType": "uint256",
					"name": "id",
					"type": "uint256"
				},
				{
					"internalType": "uint256",
					"name": "amount",
					"type": "uint256"
				},
				{
					"internalType": "bytes",
					"name": "data",
					"type": "bytes"
				}
			],
			"name": "safeTransferFrom",
			"outputs": [],
			"stateMutability": "nonpayable",
			"type": "function"
		},
		{
			"inputs": [
				{
					"internalType": "address",
					"name": "operator",
					"type": "address"
				},
				{
					"internalType": "bool",
					"name": "approved",
					"type": "bool"
				}
			],
			"name": "setApprovalForAll",
			"outputs": [],
			"stateMutability": "nonpayable",
			"type": "function"
		},
		{
			"inputs": [
				{
					"internalType": "uint8",
					"name": "_assetId",
					"type": "uint8"
				},
				{
					"internalType": "bool",
					"name": "_availability",
					"type": "bool"
				}
			],
			"name": "setAssetAvailabilityForTransfer",
			"outputs": [
				{
					"internalType": "bool",
					"name": "",
					"type": "bool"
				}
			],
			"stateMutability": "nonpayable",
			"type": "function"
		},
		{
			"inputs": [
				{
					"internalType": "uint8",
					"name": "_assetId",
					"type": "uint8"
				},
				{
					"internalType": "uint32",
					"name": "_assetValuation",
					"type": "uint32"
				}
			],
			"name": "setAssetValuation",
			"outputs": [
				{
					"internalType": "uint32",
					"name": "",
					"type": "uint32"
				}
			],
			"stateMutability": "nonpayable",
			"type": "function"
		},
		{
			"inputs": [
				{
					"internalType": "uint16",
					"name": "_currentYear",
					"type": "uint16"
				}
			],
			"name": "setCurrentYear",
			"outputs": [],
			"stateMutability": "nonpayable",
			"type": "function"
		},
		{
			"inputs": [
				{
					"internalType": "uint8",
					"name": "_maxAssetsQuantity",
					"type": "uint8"
				}
			],
			"name": "setMaxQuantityForCurrentCOPF",
			"outputs": [],
			"stateMutability": "nonpayable",
			"type": "function"
		},
		{
			"inputs": [
				{
					"internalType": "bytes4",
					"name": "interfaceId",
					"type": "bytes4"
				}
			],
			"name": "supportsInterface",
			"outputs": [
				{
					"internalType": "bool",
					"name": "",
					"type": "bool"
				}
			],
			"stateMutability": "view",
			"type": "function"
		},
		{
			"inputs": [
				{
					"internalType": "uint8",
					"name": "_assetId",
					"type": "uint8"
				},
				{
					"internalType": "address",
					"name": "_newOwner",
					"type": "address"
				},
				{
					"internalType": "uint256",
					"name": "_amount",
					"type": "uint256"
				}
			],
			"name": "transferAsset",
			"outputs": [],
			"stateMutability": "nonpayable",
			"type": "function"
		},
		{
			"inputs": [
				{
					"internalType": "address",
					"name": "newOwner",
					"type": "address"
				}
			],
			"name": "transferOwnership",
			"outputs": [],
			"stateMutability": "nonpayable",
			"type": "function"
		},
		{
			"inputs": [
				{
					"internalType": "uint256",
					"name": "",
					"type": "uint256"
				}
			],
			"name": "uri",
			"outputs": [
				{
					"internalType": "string",
					"name": "",
					"type": "string"
				}
			],
			"stateMutability": "view",
			"type": "function"
		}
	]
}