{
	"data": {
		"bytecode": {
			"linkReferences": {},
			"object": "60a06040527f9f2df0fed2c77648de5860a4cc508cd0818c85b8b8a1ab4ceeef8d981c8956a6608052600a80546bffffffff000000ffffffffff19166a0138800000000007e701011790553480156200005757600080fd5b506040516200487b3803806200487b8339810160408190526200007a9162000757565b60405180606001604052806027815260200162004854602791393384620000a18262000106565b620000ae60008362000156565b608051620000bd908262000156565b50620000cb905081620001df565b50620000fc848383604051806040016040528060048152602001631b5a5b9d60e21b815250620001f460201b60201c565b5050505062000a9d565b600080546001600160a01b038381166001600160a01b0319831681178455604051919092169283917f8be0079c531659141344cd1fd0a4f28419497f9722a3daafe3b4186f6b6457e09190a35050565b60008281526001602090815260408083206001600160a01b038516845290915290205460ff16620001db5760008281526001602081815260408084206001600160a01b0386168086529252808420805460ff19169093179092559051339285917f2f8788117e7eff1d82e926ec794901d17c78024a50270940304540a733656f0d9190a45b5050565b8051620001db906004906020840190620005c6565b6001600160a01b0384166200025a5760405162461bcd60e51b815260206004820152602160248201527f455243313135353a206d696e7420746f20746865207a65726f206164647265736044820152607360f81b60648201526084015b60405180910390fd5b8151835114620002be5760405162461bcd60e51b815260206004820152602860248201527f455243313135353a2069647320616e6420616d6f756e7473206c656e677468206044820152670dad2e6dac2e8c6d60c31b606482015260840162000251565b3360005b84518110156200036757838181518110620002e157620002e1620007e7565b602002602001015160026000878481518110620003025762000302620007e7565b602002602001015181526020019081526020016000206000886001600160a01b03166001600160a01b0316815260200190815260200160002060008282546200034c919062000813565b909155508190506200035e816200082e565b915050620002c2565b50846001600160a01b031660006001600160a01b0316826001600160a01b03167f4a39dc06d4c0dbc64b70af90fd698a233a518aa5d07e595d983b8c0526c8f7fb8787604051620003ba92919062000887565b60405180910390a4620003d381600087878787620003e2565b5050505050565b505050505050565b62000401846001600160a01b0316620005b760201b62001c7c1760201c565b15620003da5760405163bc197c8160e01b81526001600160a01b0385169063bc197c81906200043d908990899088908890889060040162000909565b6020604051808303816000875af19250505080156200047b575060408051601f3d908101601f1916820190925262000478918101906200096d565b60015b6200053b576200048a620009a0565b806308c379a003620004ca5750620004a1620009bd565b80620004ae5750620004cc565b8060405162461bcd60e51b815260040162000251919062000a4c565b505b60405162461bcd60e51b815260206004820152603460248201527f455243313135353a207472616e7366657220746f206e6f6e2d4552433131353560448201527f526563656976657220696d706c656d656e746572000000000000000000000000606482015260840162000251565b6001600160e01b0319811663bc197c8160e01b14620005ae5760405162461bcd60e51b815260206004820152602860248201527f455243313135353a204552433131353552656365697665722072656a656374656044820152676420746f6b656e7360c01b606482015260840162000251565b50505050505050565b6001600160a01b03163b151590565b828054620005d49062000a61565b90600052602060002090601f016020900481019282620005f8576000855562000643565b82601f106200061357805160ff191683800117855562000643565b8280016001018555821562000643579182015b828111156200064357825182559160200191906001019062000626565b506200065192915062000655565b5090565b5b8082111562000651576000815560010162000656565b80516001600160a01b03811681146200068457600080fd5b919050565b634e487b7160e01b600052604160045260246000fd5b601f8201601f191681016001600160401b0381118282101715620006c757620006c762000689565b6040525050565b600082601f830112620006e057600080fd5b815160206001600160401b03821115620006fe57620006fe62000689565b8160051b60405162000713838301826200069f565b928352848101820192828101878511156200072d57600080fd5b83870192505b848310156200074c578251815291830191830162000733565b509695505050505050565b600080600080608085870312156200076e57600080fd5b62000779856200066c565b935062000789602086016200066c565b60408601519093506001600160401b0380821115620007a757600080fd5b620007b588838901620006ce565b93506060870151915080821115620007cc57600080fd5b50620007db87828801620006ce565b91505092959194509250565b634e487b7160e01b600052603260045260246000fd5b634e487b7160e01b600052601160045260246000fd5b60008219821115620008295762000829620007fd565b500190565b600060018201620008435762000843620007fd565b5060010190565b600081518084526020808501945080840160005b838110156200087c578151875295820195908201906001016200085e565b509495945050505050565b6040815260006200089c60408301856200084a565b8281036020840152620008b081856200084a565b95945050505050565b6000815180845260005b81811015620008e157602081850181015186830182015201620008c3565b81811115620008f4576000602083870101525b50601f01601f19169290920160200192915050565b6001600160a01b0386811682528516602082015260a06040820181905260009062000937908301866200084a565b82810360608401526200094b81866200084a565b90508281036080840152620009618185620008b9565b98975050505050505050565b6000602082840312156200098057600080fd5b81516001600160e01b0319811681146200099957600080fd5b9392505050565b600060033d1115620009ba5760046000803e5060005160e01c5b90565b600060443d1015620009cc5790565b6040516003193d81016004833e81513d6001600160401b038083116024840183101715620009fc57505050505090565b828501915081518181111562000a155750505050505090565b843d870101602082850101111562000a305750505050505090565b62000a41602082860101876200069f565b509095945050505050565b602081526000620009996020830184620008b9565b600181811c9082168062000a7657607f821691505b60208210810362000a9757634e487b7160e01b600052602260045260246000fd5b50919050565b608051613d8662000ace6000396000818161056801528181611759015281816119ba0152611ead0152613d866000f3fe608060405234801561001057600080fd5b50600436106102525760003560e01c8063764c1d9611610146578063d547741f116100c3578063f242432a11610087578063f242432a14610610578063f2fde38b14610623578063f5298aca14610636578063f70efa9714610649578063fa7a02a51461065c578063fc8513231461068957600080fd5b8063d547741f1461058a578063e985e9c51461059d578063ea3994bc146105d9578063ed008921146105ec578063f0e404c0146105f457600080fd5b8063a217fddf1161010a578063a217fddf1461052d578063a22cb46514610535578063a768396a14610548578063a9f920ed14610550578063d53913931461056357600080fd5b8063764c1d96146104da5780638da5cb5b146104ed5780638ec3ca14146104fe57806391d14854146105075780639727756a1461051a57600080fd5b80632eb2c2d6116101d45780634e1273f4116101985780634e1273f41461040a578063586091771461042a5780636b20c4541461044f5780636cd4762314610462578063715018a6146104d257600080fd5b80632eb2c2d6146103925780632f2ff15d146103a557806336568abe146103b857806344de240a146103cb5780634b5e91d4146103ea57600080fd5b8063135160371161021b57806313516037146102fa578063219a1d771461030f578063248a9ca3146103345780632a5a1dbc146103585780632d9c98dc1461036b57600080fd5b8062fdd58e1461025757806301ffc9a71461027d578063072a27a7146102a05780630b5a006b146102c65780630e89341c146102da575b600080fd5b61026a610265366004612bab565b610697565b6040519081526020015b60405180910390f35b61029061028b366004612beb565b61072f565b6040519015158152602001610274565b6102b36102ae366004612c46565b610740565b60405161ffff9091168152602001610274565b600a546102b39062010000900461ffff1681565b6102ed6102e8366004612c8d565b610850565b6040516102749190612cfe565b61030d610308366004612d22565b6108e4565b005b6000546001600160a01b03165b6040516001600160a01b039091168152602001610274565b61026a610342366004612c8d565b6000908152600160208190526040909120015490565b61030d610366366004612fe5565b610921565b61037e61037936600461307d565b610c56565b6040516102749897969594939291906130cd565b61030d6103a0366004613156565b610e71565b61030d6103b33660046131ff565b610ebd565b61030d6103c63660046131ff565b610ee8565b600a546103d89060ff1681565b60405160ff9091168152602001610274565b6103fd6103f8366004613222565b610f66565b604051610274919061323d565b61041d6104183660046132a3565b6110ca565b60405161027491906133a8565b600e5461043a9063ffffffff1681565b60405163ffffffff9091168152602001610274565b61030d61045d3660046133bb565b6111f3565b6104c0610470366004613222565b600d6020526000908152604090205463ffffffff8082169160ff600160201b820481169261ffff600160281b84041692600160381b810490911691600160581b8204811691600160601b90041686565b6040516102749695949392919061342e565b61030d611236565b6103fd6104e8366004613481565b61124a565b6000546001600160a01b031661031c565b61026a60055481565b6102906105153660046131ff565b61172c565b61030d61052836600461358e565b611757565b61026a600081565b61030d61054336600461360e565b611854565b6102ed61185f565b61030d61055e366004613638565b6118ed565b61026a7f000000000000000000000000000000000000000000000000000000000000000081565b61030d6105983660046131ff565b611992565b6102906105ab366004613695565b6001600160a01b03918216600090815260036020908152604080832093909416825291909152205460ff1690565b61030d6105e73660046136bf565b6119b8565b6102ed611a03565b600a5461043a9068010000000000000000900463ffffffff1681565b61030d61061e3660046136da565b611a10565b61030d61063136600461373e565b611a55565b61030d610644366004613759565b611ace565b6103fd610657366004612d22565b611b11565b6103d861066a366004613222565b60ff9081166000908152600d6020526040902054600160601b90041690565b6008546102b39061ffff1681565b60006001600160a01b0383166107075760405162461bcd60e51b815260206004820152602a60248201527f455243313135353a2061646472657373207a65726f206973206e6f742061207660448201526930b634b21037bbb732b960b11b60648201526084015b60405180910390fd5b5060009081526002602090815260408083206001600160a01b03949094168352929052205490565b600061073a82611c8b565b92915050565b600061074a611ccb565b620138808363ffffffff1611156107ba5760405162461bcd60e51b815260206004820152602e60248201527f5468697320666c6f726573742063616e277420696e6672696e6765207468652060448201526d756e6976657273616c2072756c6560901b60648201526084016106fe565b600a54610100900460ff166000908152600d6020526040902080548390829064ff000000001916600160201b8360018111156107f8576107f8613099565b0217905550805463ffffffff8516600160381b026affffffff000000ffffffff1961ffff8816600160281b02166affffffffffff00ffffffff199092169190911717905550600a5460ff610100909104169392505050565b60606004805461085f9061378c565b80601f016020809104026020016040519081016040528092919081815260200182805461088b9061378c565b80156108d85780601f106108ad576101008083540402835291602001916108d8565b820191906000526020600020905b8154815290600101906020018083116108bb57829003601f168201915b50505050509050919050565b6108ec611ccb565b60ff9091166000908152600d60205260409020805461ffff909216600160281b0266ffff000000000019909216919091179055565b600a5460ff16600103610b0857600c60008461ffff1661ffff16815260200190815260200160002060405180610100016040528086600001518152602001866020015181526020018660400151600181111561097f5761097f613099565b815260200186606001516001600160a01b0316815260200186608001516001600160a01b031681526020018660a0015160018111156109c0576109c0613099565b815260c0870151151560208083019190915260e0880151604090920191909152825460018101845560009384529281902082518051939460050290910192610a0b9284920190612af6565b506020828101518051610a249260018501920190612af6565b50604082015160028201805460ff191660018381811115610a4757610a47613099565b021790555060608201516002820180546001600160a01b0392831661010002610100600160a81b03199091161790556080830151600383018054919092166001600160a01b031982168117835560a085015192916001600160a81b03191617600160a01b836001811115610abd57610abd613099565b021790555060c0820151600382018054911515600160a81b0260ff60a81b1990921691909117905560e08201518051610b00916004840191602090910190612af6565b505050610bf5565b60005b600a5460ff90811690821611610bf35761ffff84166000908152600c60205260408120805460ff8416908110610b4357610b436137c6565b9060005260206000209060050201600001905080604051602001610b6791906137dc565b60408051601f1981840301815290829052805160209182012088519092610b8e9201613877565b6040516020818303038152906040528051906020012003610be05760405162461bcd60e51b815260206004820152600c60248201526b61737365742065786973747360a01b60448201526064016106fe565b5080610beb816138a9565b915050610b0b565b505b610c148460800151838360405180602001604052806000815250611d25565b610c248460800151336001611eab565b600a805460ff16906000610c37836138a9565b91906101000a81548160ff021916908360ff1602179055505050505050565b600c6020528160005260406000208181548110610c7257600080fd5b906000526020600020906005020160009150915050806000018054610c969061378c565b80601f0160208091040260200160405190810160405280929190818152602001828054610cc29061378c565b8015610d0f5780601f10610ce457610100808354040283529160200191610d0f565b820191906000526020600020905b815481529060010190602001808311610cf257829003601f168201915b505050505090806001018054610d249061378c565b80601f0160208091040260200160405190810160405280929190818152602001828054610d509061378c565b8015610d9d5780601f10610d7257610100808354040283529160200191610d9d565b820191906000526020600020905b815481529060010190602001808311610d8057829003601f168201915b5050505060028301546003840154600485018054949560ff808516966101009095046001600160a01b039081169650841694600160a01b8504821694600160a81b90049091169290610dee9061378c565b80601f0160208091040260200160405190810160405280929190818152602001828054610e1a9061378c565b8015610e675780601f10610e3c57610100808354040283529160200191610e67565b820191906000526020600020905b815481529060010190602001808311610e4a57829003601f168201915b5050505050905088565b6001600160a01b038516331480610e8d5750610e8d85336105ab565b610ea95760405162461bcd60e51b81526004016106fe906138c8565b610eb68585858585611ee6565b5050505050565b60008281526001602081905260409091200154610ed981612085565b610ee3838361208f565b505050565b6001600160a01b0381163314610f585760405162461bcd60e51b815260206004820152602f60248201527f416363657373436f6e74726f6c3a2063616e206f6e6c792072656e6f756e636560448201526e103937b632b9903337b91039b2b63360891b60648201526084016106fe565b610f6282826120fa565b5050565b610f956040805160a0810182526060808252600060208301819052928201839052810182905290608082015290565b60ff82166000908152600b6020526040812080548290610fb757610fb76137c6565b90600052602060002090600202019050806040518060a0016040529081600082018054610fe39061378c565b80601f016020809104026020016040519081016040528092919081815260200182805461100f9061378c565b801561105c5780601f106110315761010080835404028352916020019161105c565b820191906000526020600020905b81548152906001019060200180831161103f57829003601f168201915b505050918352505060018281015461ffff808216602085015262010000820481166040850152600160201b8204166060840152608090920191600160301b900460ff16908111156110af576110af613099565b60018111156110c0576110c0613099565b9052509392505050565b6060815183511461112f5760405162461bcd60e51b815260206004820152602960248201527f455243313135353a206163636f756e747320616e6420696473206c656e677468604482015268040dad2e6dac2e8c6d60bb1b60648201526084016106fe565b600083516001600160401b0381111561114a5761114a612d55565b604051908082528060200260200182016040528015611173578160200160208202803683370190505b50905060005b84518110156111eb576111be858281518110611197576111976137c6565b60200260200101518583815181106111b1576111b16137c6565b6020026020010151610697565b8282815181106111d0576111d06137c6565b60209081029190910101526111e481613916565b9050611179565b509392505050565b6001600160a01b03831633148061120f575061120f83336105ab565b61122b5760405162461bcd60e51b81526004016106fe906138c8565b610ee3838383612161565b61123e611ccb565b61124860006122ee565b565b6112796040805160a0810182526060808252600060208301819052928201839052810182905290608082015290565b60ff8083166000908152600d602052604090208054909161ffff600160281b830416916112b091600160601b90910416600161392f565b60ff1611156112ec5760405162461bcd60e51b8152602060048201526008602482015267195e18d95959195960c21b60448201526064016106fe565b8360800151600181111561130257611302613099565b8154600160201b900460ff16600181111561131f5761131f613099565b146113575760405162461bcd60e51b8152602060048201526008602482015267191a59999ddbdbd960c21b60448201526064016106fe565b8054600160601b900460ff166000036114cd57600b60008460ff1661ffff1681526020019081526020016000206040518060a0016040528086600001518152602001866020015161ffff168152602001866040015161ffff168152602001866060015161ffff168152602001866080015160018111156113d9576113d9613099565b90528154600181018355600092835260209283902082518051939460029093029091019261140a9284920190612af6565b506020820151600180830180546040860151606087015161ffff908116600160201b0265ffff0000000019928216620100000263ffffffff1990941691909616179190911790811684178255608086015193919266ff0000000000001990921666ffffff00000000199091161790600160301b90849081111561148f5761148f613099565b0217905550508154600160601b900460ff16905081600c6114af836138a9565b91906101000a81548160ff021916908360ff16021790555050611725565b60ff83166000908152600b60205260408120805482906114ef576114ef6137c6565b906000526020600020906002020190508060010160069054906101000a900460ff16600181111561152257611522613099565b8560800151600181111561153857611538613099565b146115765760405162461bcd60e51b815260206004820152600e60248201526d3bb7b7b2103a3cb832903730b4b360911b60448201526064016106fe565b6001810154602086015161ffff9081169116146115c55760405162461bcd60e51b815260206004820152600d60248201526c383637ba1030b3b2903730b4b360991b60448201526064016106fe565b600b60008560ff1661ffff1681526020019081526020016000206040518060a0016040528087600001518152602001876020015161ffff168152602001876040015161ffff168152602001876060015161ffff1681526020018760800151600181111561163457611634613099565b9052815460018101835560009283526020928390208251805193946002909302909101926116659284920190612af6565b506020820151600180830180546040860151606087015161ffff908116600160201b0265ffff0000000019928216620100000263ffffffff1990941691909616179190911790811684178255608086015193919266ff0000000000001990921666ffffff00000000199091161790600160301b9084908111156116ea576116ea613099565b0217905550508254600160601b900460ff16905082600c61170a836138a9565b91906101000a81548160ff021916908360ff16021790555050505b5092915050565b60009182526001602090815260408084206001600160a01b0393909316845291905290205460ff1690565b7f000000000000000000000000000000000000000000000000000000000000000061178181612085565b600a805460009160ff9091169082611798836138a9565b91906101000a81548160ff021916908360ff160217905550905061183f8787878080602002602001604051908101604052809392919081815260200183836020028082843760009201919091525050604080516020808b0282810182019093528a82529093508a925089918291850190849080828437600092019190915250506040805180820190915260078152666d696e74696e6760c81b60208201529150611d259050565b61184b87336001611eab565b50505050505050565b610f6233838361233e565b6007805461186c9061378c565b80601f01602080910402602001604051908101604052809291908181526020018280546118989061378c565b80156118e55780601f106118ba576101008083540402835291602001916118e5565b820191906000526020600020905b8154815290600101906020018083116118c857829003601f168201915b505050505081565b60ff81166000908152600d60205260409020805463ffffffff600160381b909104811690841611156119755760405162461bcd60e51b815260206004820152602b60248201527f666c6f72657374206e6f7420616c6c6f77656420746f20746f6b656e697a652060448201526a1d1a1a5cc8185b5bdd5b9d60aa1b60648201526084016106fe565b805463ffffffff191663ffffffff93909316929092179091555050565b600082815260016020819052604090912001546119ae81612085565b610ee383836120fa565b7f00000000000000000000000000000000000000000000000000000000000000006119e281612085565b50600a805461ffff909216620100000263ffff000019909216919091179055565b6006805461186c9061378c565b6001600160a01b038516331480611a2c5750611a2c85336105ab565b611a485760405162461bcd60e51b81526004016106fe906138c8565b610eb6858585858561241e565b611a5d611ccb565b6001600160a01b038116611ac25760405162461bcd60e51b815260206004820152602660248201527f4f776e61626c653a206e6577206f776e657220697320746865207a65726f206160448201526564647265737360d01b60648201526084016106fe565b611acb816122ee565b50565b6001600160a01b038316331480611aea5750611aea83336105ab565b611b065760405162461bcd60e51b81526004016106fe906138c8565b610ee383838361254c565b611b406040805160a0810182526060808252600060208301819052928201839052810182905290608082015290565b60ff83166000908152600b60205260408120805461ffff8516908110611b6857611b686137c6565b90600052602060002090600202019050806040518060a0016040529081600082018054611b949061378c565b80601f0160208091040260200160405190810160405280929190818152602001828054611bc09061378c565b8015611c0d5780601f10611be257610100808354040283529160200191611c0d565b820191906000526020600020905b815481529060010190602001808311611bf057829003601f168201915b505050918352505060018281015461ffff808216602085015262010000820481166040850152600160201b8204166060840152608090920191600160301b900460ff1690811115611c6057611c60613099565b6001811115611c7157611c71613099565b905250949350505050565b6001600160a01b03163b151590565b60006001600160e01b03198216636cdb3d1360e11b1480611cbc57506001600160e01b031982166303a24d0760e21b145b8061073a575061073a82612653565b6000546001600160a01b031633146112485760405162461bcd60e51b815260206004820181905260248201527f4f776e61626c653a2063616c6c6572206973206e6f7420746865206f776e657260448201526064016106fe565b6001600160a01b038416611d855760405162461bcd60e51b815260206004820152602160248201527f455243313135353a206d696e7420746f20746865207a65726f206164647265736044820152607360f81b60648201526084016106fe565b8151835114611da65760405162461bcd60e51b81526004016106fe90613954565b3360005b8451811015611e4357838181518110611dc557611dc56137c6565b602002602001015160026000878481518110611de357611de36137c6565b602002602001015181526020019081526020016000206000886001600160a01b03166001600160a01b031681526020019081526020016000206000828254611e2b919061399c565b90915550819050611e3b81613916565b915050611daa565b50846001600160a01b031660006001600160a01b0316826001600160a01b03167f4a39dc06d4c0dbc64b70af90fd698a233a518aa5d07e595d983b8c0526c8f7fb8787604051611e949291906139b4565b60405180910390a4610eb681600087878787612688565b7f0000000000000000000000000000000000000000000000000000000000000000611ed581612085565b611ee084848461233e565b50505050565b8151835114611f075760405162461bcd60e51b81526004016106fe90613954565b6001600160a01b038416611f2d5760405162461bcd60e51b81526004016106fe906139e2565b3360005b8451811015612017576000858281518110611f4e57611f4e6137c6565b602002602001015190506000858381518110611f6c57611f6c6137c6565b60209081029190910181015160008481526002835260408082206001600160a01b038e168352909352919091205490915081811015611fbd5760405162461bcd60e51b81526004016106fe90613a27565b60008381526002602090815260408083206001600160a01b038e8116855292528083208585039055908b16825281208054849290611ffc90849061399c565b925050819055505050508061201090613916565b9050611f31565b50846001600160a01b0316866001600160a01b0316826001600160a01b03167f4a39dc06d4c0dbc64b70af90fd698a233a518aa5d07e595d983b8c0526c8f7fb87876040516120679291906139b4565b60405180910390a461207d818787878787612688565b505050505050565b611acb81336127e3565b612099828261172c565b610f625760008281526001602081815260408084206001600160a01b0386168086529252808420805460ff19169093179092559051339285917f2f8788117e7eff1d82e926ec794901d17c78024a50270940304540a733656f0d9190a45050565b612104828261172c565b15610f625760008281526001602090815260408083206001600160a01b0385168085529252808320805460ff1916905551339285917ff6391f5c32d9c69d2a47ea670b442974b53935d1edc7fd64eb21e047a839171b9190a45050565b6001600160a01b0383166121875760405162461bcd60e51b81526004016106fe90613a71565b80518251146121a85760405162461bcd60e51b81526004016106fe90613954565b604080516020810190915260009081905233905b83518110156122815760008482815181106121d9576121d96137c6565b6020026020010151905060008483815181106121f7576121f76137c6565b60209081029190910181015160008481526002835260408082206001600160a01b038c1683529093529190912054909150818110156122485760405162461bcd60e51b81526004016106fe90613ab4565b60009283526002602090815260408085206001600160a01b038b168652909152909220910390558061227981613916565b9150506121bc565b5060006001600160a01b0316846001600160a01b0316826001600160a01b03167f4a39dc06d4c0dbc64b70af90fd698a233a518aa5d07e595d983b8c0526c8f7fb86866040516122d29291906139b4565b60405180910390a4604080516020810190915260009052611ee0565b600080546001600160a01b038381166001600160a01b0319831681178455604051919092169283917f8be0079c531659141344cd1fd0a4f28419497f9722a3daafe3b4186f6b6457e09190a35050565b816001600160a01b0316836001600160a01b0316036123b15760405162461bcd60e51b815260206004820152602960248201527f455243313135353a2073657474696e6720617070726f76616c20737461747573604482015268103337b91039b2b63360b91b60648201526084016106fe565b6001600160a01b03838116600081815260036020908152604080832094871680845294825291829020805460ff191686151590811790915591519182527f17307eab39ab6107e8899845ad3d59bd9653f200f220920489ca2b5937696c31910160405180910390a3505050565b6001600160a01b0384166124445760405162461bcd60e51b81526004016106fe906139e2565b3360006124508561283c565b9050600061245d8561283c565b905060008681526002602090815260408083206001600160a01b038c168452909152902054858110156124a25760405162461bcd60e51b81526004016106fe90613a27565b60008781526002602090815260408083206001600160a01b038d8116855292528083208985039055908a168252812080548892906124e190849061399c565b909155505060408051888152602081018890526001600160a01b03808b16928c821692918816917fc3d58168c5ae7397731d063d5bbf3d657854427343f4c083240f7aacaa2d0f62910160405180910390a4612541848a8a8a8a8a612887565b505050505050505050565b6001600160a01b0383166125725760405162461bcd60e51b81526004016106fe90613a71565b33600061257e8461283c565b9050600061258b8461283c565b6040805160208082018352600091829052888252600281528282206001600160a01b038b16835290522054909150848110156125d95760405162461bcd60e51b81526004016106fe90613ab4565b60008681526002602090815260408083206001600160a01b038b81168086529184528285208a8703905582518b81529384018a90529092908816917fc3d58168c5ae7397731d063d5bbf3d657854427343f4c083240f7aacaa2d0f62910160405180910390a460408051602081019091526000905261184b565b60006001600160e01b03198216637965db0b60e01b148061073a57506301ffc9a760e01b6001600160e01b031983161461073a565b6001600160a01b0384163b1561207d5760405163bc197c8160e01b81526001600160a01b0385169063bc197c81906126cc9089908990889088908890600401613af8565b6020604051808303816000875af1925050508015612707575060408051601f3d908101601f1916820190925261270491810190613b56565b60015b6127b357612713613b73565b806308c379a00361274c5750612727613b8f565b80612732575061274e565b8060405162461bcd60e51b81526004016106fe9190612cfe565b505b60405162461bcd60e51b815260206004820152603460248201527f455243313135353a207472616e7366657220746f206e6f6e2d455243313135356044820152732932b1b2b4bb32b91034b6b83632b6b2b73a32b960611b60648201526084016106fe565b6001600160e01b0319811663bc197c8160e01b1461184b5760405162461bcd60e51b81526004016106fe90613c18565b6127ed828261172c565b610f62576127fa81612942565b612805836020612954565b604051602001612816929190613c60565b60408051601f198184030181529082905262461bcd60e51b82526106fe91600401612cfe565b60408051600180825281830190925260609160009190602080830190803683370190505090508281600081518110612876576128766137c6565b602090810291909101015292915050565b6001600160a01b0384163b1561207d5760405163f23a6e6160e01b81526001600160a01b0385169063f23a6e61906128cb9089908990889088908890600401613cd5565b6020604051808303816000875af1925050508015612906575060408051601f3d908101601f1916820190925261290391810190613b56565b60015b61291257612713613b73565b6001600160e01b0319811663f23a6e6160e01b1461184b5760405162461bcd60e51b81526004016106fe90613c18565b606061073a6001600160a01b03831660145b60606000612963836002613d1a565b61296e90600261399c565b6001600160401b0381111561298557612985612d55565b6040519080825280601f01601f1916602001820160405280156129af576020820181803683370190505b509050600360fc1b816000815181106129ca576129ca6137c6565b60200101906001600160f81b031916908160001a905350600f60fb1b816001815181106129f9576129f96137c6565b60200101906001600160f81b031916908160001a9053506000612a1d846002613d1a565b612a2890600161399c565b90505b6001811115612aa0576f181899199a1a9b1b9c1cb0b131b232b360811b85600f1660108110612a5c57612a5c6137c6565b1a60f81b828281518110612a7257612a726137c6565b60200101906001600160f81b031916908160001a90535060049490941c93612a9981613d39565b9050612a2b565b508315612aef5760405162461bcd60e51b815260206004820181905260248201527f537472696e67733a20686578206c656e67746820696e73756666696369656e7460448201526064016106fe565b9392505050565b828054612b029061378c565b90600052602060002090601f016020900481019282612b245760008555612b6a565b82601f10612b3d57805160ff1916838001178555612b6a565b82800160010185558215612b6a579182015b82811115612b6a578251825591602001919060010190612b4f565b50612b76929150612b7a565b5090565b5b80821115612b765760008155600101612b7b565b80356001600160a01b0381168114612ba657600080fd5b919050565b60008060408385031215612bbe57600080fd5b612bc783612b8f565b946020939093013593505050565b6001600160e01b031981168114611acb57600080fd5b600060208284031215612bfd57600080fd5b8135612aef81612bd5565b803561ffff81168114612ba657600080fd5b803563ffffffff81168114612ba657600080fd5b60028110611acb57600080fd5b8035612ba681612c2e565b600080600060608486031215612c5b57600080fd5b612c6484612c08565b9250612c7260208501612c1a565b91506040840135612c8281612c2e565b809150509250925092565b600060208284031215612c9f57600080fd5b5035919050565b60005b83811015612cc1578181015183820152602001612ca9565b83811115611ee05750506000910152565b60008151808452612cea816020860160208601612ca6565b601f01601f19169290920160200192915050565b602081526000612aef6020830184612cd2565b803560ff81168114612ba657600080fd5b60008060408385031215612d3557600080fd5b612d3e83612d11565b9150612d4c60208401612c08565b90509250929050565b634e487b7160e01b600052604160045260246000fd5b60a081018181106001600160401b0382111715612d8a57612d8a612d55565b60405250565b601f8201601f191681016001600160401b0381118282101715612db557612db5612d55565b6040525050565b60405161010081016001600160401b0381118282101715612ddf57612ddf612d55565b60405290565b600082601f830112612df657600080fd5b81356001600160401b03811115612e0f57612e0f612d55565b604051612e26601f8301601f191660200182612d90565b818152846020838601011115612e3b57600080fd5b816020850160208301376000918101602001919091529392505050565b80358015158114612ba657600080fd5b60006101008284031215612e7b57600080fd5b612e83612dbc565b905081356001600160401b0380821115612e9c57600080fd5b612ea885838601612de5565b83526020840135915080821115612ebe57600080fd5b612eca85838601612de5565b6020840152612edb60408501612c3b565b6040840152612eec60608501612b8f565b6060840152612efd60808501612b8f565b6080840152612f0e60a08501612c3b565b60a0840152612f1f60c08501612e58565b60c084015260e0840135915080821115612f3857600080fd5b50612f4584828501612de5565b60e08301525092915050565b60006001600160401b03821115612f6a57612f6a612d55565b5060051b60200190565b600082601f830112612f8557600080fd5b81356020612f9282612f51565b604051612f9f8282612d90565b83815260059390931b8501820192828101915086841115612fbf57600080fd5b8286015b84811015612fda5780358352918301918301612fc3565b509695505050505050565b60008060008060808587031215612ffb57600080fd5b84356001600160401b038082111561301257600080fd5b61301e88838901612e68565b955061302c60208801612c08565b9450604087013591508082111561304257600080fd5b61304e88838901612f74565b9350606087013591508082111561306457600080fd5b5061307187828801612f74565b91505092959194509250565b6000806040838503121561309057600080fd5b612bc783612c08565b634e487b7160e01b600052602160045260246000fd5b60028110611acb57634e487b7160e01b600052602160045260246000fd5b60006101008083526130e18184018c612cd2565b905082810360208401526130f5818b612cd2565b9050613100896130af565b604083018990526001600160a01b03888116606085015287166080840152613127866130af565b8560a084015284151560c084015282810360e08401526131478185612cd2565b9b9a5050505050505050505050565b600080600080600060a0868803121561316e57600080fd5b61317786612b8f565b945061318560208701612b8f565b935060408601356001600160401b03808211156131a157600080fd5b6131ad89838a01612f74565b945060608801359150808211156131c357600080fd5b6131cf89838a01612f74565b935060808801359150808211156131e557600080fd5b506131f288828901612de5565b9150509295509295909350565b6000806040838503121561321257600080fd5b82359150612d4c60208401612b8f565b60006020828403121561323457600080fd5b612aef82612d11565b602081526000825160a0602084015261325960c0840182612cd2565b9050602084015161ffff808216604086015280604087015116606086015280606087015116608086015250506080840151613293816130af565b60a0939093019290925250919050565b600080604083850312156132b657600080fd5b82356001600160401b03808211156132cd57600080fd5b818501915085601f8301126132e157600080fd5b813560206132ee82612f51565b6040516132fb8282612d90565b83815260059390931b850182019282810191508984111561331b57600080fd5b948201945b838610156133405761333186612b8f565b82529482019490820190613320565b9650508601359250508082111561335657600080fd5b5061336385828601612f74565b9150509250929050565b600081518084526020808501945080840160005b8381101561339d57815187529582019590820190600101613381565b509495945050505050565b602081526000612aef602083018461336d565b6000806000606084860312156133d057600080fd5b6133d984612b8f565b925060208401356001600160401b03808211156133f557600080fd5b61340187838801612f74565b9350604086013591508082111561341757600080fd5b5061342486828701612f74565b9150509250925092565b63ffffffff878116825260c0820190613446886130af565b6020830188905261ffff8716604084015285166060830152613467846130af565b83608083015260ff831660a0830152979650505050505050565b6000806040838503121561349457600080fd5b82356001600160401b03808211156134ab57600080fd5b9084019060a082870312156134bf57600080fd5b6040516134cb81612d6b565b8235828111156134da57600080fd5b6134e688828601612de5565b8252506134f560208401612c08565b602082015261350660408401612c08565b604082015261351760608401612c08565b60608201526080830135925061352c83612c2e565b6080810192909252509150612d4c60208401612d11565b60008083601f84011261355557600080fd5b5081356001600160401b0381111561356c57600080fd5b6020830191508360208260051b850101111561358757600080fd5b9250929050565b6000806000806000606086880312156135a657600080fd5b6135af86612b8f565b945060208601356001600160401b03808211156135cb57600080fd5b6135d789838a01613543565b909650945060408801359150808211156135f057600080fd5b506135fd88828901613543565b969995985093965092949392505050565b6000806040838503121561362157600080fd5b61362a83612b8f565b9150612d4c60208401612e58565b60008060006060848603121561364d57600080fd5b83356001600160401b0381111561366357600080fd5b61366f86828701612e68565b93505061367e60208501612c1a565b915061368c60408501612d11565b90509250925092565b600080604083850312156136a857600080fd5b6136b183612b8f565b9150612d4c60208401612b8f565b6000602082840312156136d157600080fd5b612aef82612c08565b600080600080600060a086880312156136f257600080fd5b6136fb86612b8f565b945061370960208701612b8f565b9350604086013592506060860135915060808601356001600160401b0381111561373257600080fd5b6131f288828901612de5565b60006020828403121561375057600080fd5b612aef82612b8f565b60008060006060848603121561376e57600080fd5b61377784612b8f565b95602085013595506040909401359392505050565b600181811c908216806137a057607f821691505b6020821081036137c057634e487b7160e01b600052602260045260246000fd5b50919050565b634e487b7160e01b600052603260045260246000fd5b600080835481600182811c9150808316806137f857607f831692505b6020808410820361381757634e487b7160e01b86526022600452602486fd5b81801561382b576001811461383c57613869565b60ff19861689528489019650613869565b60008a81526020902060005b868110156138615781548b820152908501908301613848565b505084890196505b509498975050505050505050565b60008251613889818460208701612ca6565b9190910192915050565b634e487b7160e01b600052601160045260246000fd5b600060ff821660ff81036138bf576138bf613893565b60010192915050565b6020808252602e908201527f455243313135353a2063616c6c6572206973206e6f7420746f6b656e206f776e60408201526d195c881bdc88185c1c1c9bdd995960921b606082015260800190565b60006001820161392857613928613893565b5060010190565b600060ff821660ff84168060ff0382111561394c5761394c613893565b019392505050565b60208082526028908201527f455243313135353a2069647320616e6420616d6f756e7473206c656e677468206040820152670dad2e6dac2e8c6d60c31b606082015260800190565b600082198211156139af576139af613893565b500190565b6040815260006139c7604083018561336d565b82810360208401526139d9818561336d565b95945050505050565b60208082526025908201527f455243313135353a207472616e7366657220746f20746865207a65726f206164604082015264647265737360d81b606082015260800190565b6020808252602a908201527f455243313135353a20696e73756666696369656e742062616c616e636520666f60408201526939103a3930b739b332b960b11b606082015260800190565b60208082526023908201527f455243313135353a206275726e2066726f6d20746865207a65726f206164647260408201526265737360e81b606082015260800190565b60208082526024908201527f455243313135353a206275726e20616d6f756e7420657863656564732062616c604082015263616e636560e01b606082015260800190565b6001600160a01b0386811682528516602082015260a060408201819052600090613b249083018661336d565b8281036060840152613b36818661336d565b90508281036080840152613b4a8185612cd2565b98975050505050505050565b600060208284031215613b6857600080fd5b8151612aef81612bd5565b600060033d1115613b8c5760046000803e5060005160e01c5b90565b600060443d1015613b9d5790565b6040516003193d81016004833e81513d6001600160401b038160248401118184111715613bcc57505050505090565b8285019150815181811115613be45750505050505090565b843d8701016020828501011115613bfe5750505050505090565b613c0d60208286010187612d90565b509095945050505050565b60208082526028908201527f455243313135353a204552433131353552656365697665722072656a656374656040820152676420746f6b656e7360c01b606082015260800190565b7f416363657373436f6e74726f6c3a206163636f756e7420000000000000000000815260008351613c98816017850160208801612ca6565b7001034b99036b4b9b9b4b733903937b6329607d1b6017918401918201528351613cc9816028840160208801612ca6565b01602801949350505050565b6001600160a01b03868116825285166020820152604081018490526060810183905260a060808201819052600090613d0f90830184612cd2565b979650505050505050565b6000816000190483118215151615613d3457613d34613893565b500290565b600081613d4857613d48613893565b50600019019056fea2646970667358221220e2d35923b987d5d1c643871a850b3caff04a1243a1610731054bac67bd2fae7f64736f6c634300080e003368747470733a2f2f67616d652e6578616d706c652f6170692f6974656d2f7b69647d2e6a736f6e",
			"opcodes": "PUSH1 0xA0 PUSH1 0x40 MSTORE PUSH32 0x9F2DF0FED2C77648DE5860A4CC508CD0818C85B8B8A1AB4CEEEF8D981C8956A6 PUSH1 0x80 MSTORE PUSH1 0xA DUP1 SLOAD PUSH12 0xFFFFFFFF000000FFFFFFFFFF NOT AND PUSH11 0x138800000000007E70101 OR SWAP1 SSTORE CALLVALUE DUP1 ISZERO PUSH3 0x57 JUMPI PUSH1 0x0 DUP1 REVERT JUMPDEST POP PUSH1 0x40 MLOAD PUSH3 0x487B CODESIZE SUB DUP1 PUSH3 0x487B DUP4 CODECOPY DUP2 ADD PUSH1 0x40 DUP2 SWAP1 MSTORE PUSH3 0x7A SWAP2 PUSH3 0x757 JUMP JUMPDEST PUSH1 0x40 MLOAD DUP1 PUSH1 0x60 ADD PUSH1 0x40 MSTORE DUP1 PUSH1 0x27 DUP2 MSTORE PUSH1 0x20 ADD PUSH3 0x4854 PUSH1 0x27 SWAP2 CODECOPY CALLER DUP5 PUSH3 0xA1 DUP3 PUSH3 0x106 JUMP JUMPDEST PUSH3 0xAE PUSH1 0x0 DUP4 PUSH3 0x156 JUMP JUMPDEST PUSH1 0x80 MLOAD PUSH3 0xBD SWAP1 DUP3 PUSH3 0x156 JUMP JUMPDEST POP PUSH3 0xCB SWAP1 POP DUP2 PUSH3 0x1DF JUMP JUMPDEST POP PUSH3 0xFC DUP5 DUP4 DUP4 PUSH1 0x40 MLOAD DUP1 PUSH1 0x40 ADD PUSH1 0x40 MSTORE DUP1 PUSH1 0x4 DUP2 MSTORE PUSH1 0x20 ADD PUSH4 0x1B5A5B9D PUSH1 0xE2 SHL DUP2 MSTORE POP PUSH3 0x1F4 PUSH1 0x20 SHL PUSH1 0x20 SHR JUMP JUMPDEST POP POP POP POP PUSH3 0xA9D JUMP JUMPDEST PUSH1 0x0 DUP1 SLOAD PUSH1 0x1 PUSH1 0x1 PUSH1 0xA0 SHL SUB DUP4 DUP2 AND PUSH1 0x1 PUSH1 0x1 PUSH1 0xA0 SHL SUB NOT DUP4 AND DUP2 OR DUP5 SSTORE PUSH1 0x40 MLOAD SWAP2 SWAP1 SWAP3 AND SWAP3 DUP4 SWAP2 PUSH32 0x8BE0079C531659141344CD1FD0A4F28419497F9722A3DAAFE3B4186F6B6457E0 SWAP2 SWAP1 LOG3 POP POP JUMP JUMPDEST PUSH1 0x0 DUP3 DUP2 MSTORE PUSH1 0x1 PUSH1 0x20 SWAP1 DUP2 MSTORE PUSH1 0x40 DUP1 DUP4 KECCAK256 PUSH1 0x1 PUSH1 0x1 PUSH1 0xA0 SHL SUB DUP6 AND DUP5 MSTORE SWAP1 SWAP2 MSTORE SWAP1 KECCAK256 SLOAD PUSH1 0xFF AND PUSH3 0x1DB JUMPI PUSH1 0x0 DUP3 DUP2 MSTORE PUSH1 0x1 PUSH1 0x20 DUP2 DUP2 MSTORE PUSH1 0x40 DUP1 DUP5 KECCAK256 PUSH1 0x1 PUSH1 0x1 PUSH1 0xA0 SHL SUB DUP7 AND DUP1 DUP7 MSTORE SWAP3 MSTORE DUP1 DUP5 KECCAK256 DUP1 SLOAD PUSH1 0xFF NOT AND SWAP1 SWAP4 OR SWAP1 SWAP3 SSTORE SWAP1 MLOAD CALLER SWAP3 DUP6 SWAP2 PUSH32 0x2F8788117E7EFF1D82E926EC794901D17C78024A50270940304540A733656F0D SWAP2 SWAP1 LOG4 JUMPDEST POP POP JUMP JUMPDEST DUP1 MLOAD PUSH3 0x1DB SWAP1 PUSH1 0x4 SWAP1 PUSH1 0x20 DUP5 ADD SWAP1 PUSH3 0x5C6 JUMP JUMPDEST PUSH1 0x1 PUSH1 0x1 PUSH1 0xA0 SHL SUB DUP5 AND PUSH3 0x25A JUMPI PUSH1 0x40 MLOAD PUSH3 0x461BCD PUSH1 0xE5 SHL DUP2 MSTORE PUSH1 0x20 PUSH1 0x4 DUP3 ADD MSTORE PUSH1 0x21 PUSH1 0x24 DUP3 ADD MSTORE PUSH32 0x455243313135353A206D696E7420746F20746865207A65726F20616464726573 PUSH1 0x44 DUP3 ADD MSTORE PUSH1 0x73 PUSH1 0xF8 SHL PUSH1 0x64 DUP3 ADD MSTORE PUSH1 0x84 ADD JUMPDEST PUSH1 0x40 MLOAD DUP1 SWAP2 SUB SWAP1 REVERT JUMPDEST DUP2 MLOAD DUP4 MLOAD EQ PUSH3 0x2BE JUMPI PUSH1 0x40 MLOAD PUSH3 0x461BCD PUSH1 0xE5 SHL DUP2 MSTORE PUSH1 0x20 PUSH1 0x4 DUP3 ADD MSTORE PUSH1 0x28 PUSH1 0x24 DUP3 ADD MSTORE PUSH32 0x455243313135353A2069647320616E6420616D6F756E7473206C656E67746820 PUSH1 0x44 DUP3 ADD MSTORE PUSH8 0xDAD2E6DAC2E8C6D PUSH1 0xC3 SHL PUSH1 0x64 DUP3 ADD MSTORE PUSH1 0x84 ADD PUSH3 0x251 JUMP JUMPDEST CALLER PUSH1 0x0 JUMPDEST DUP5 MLOAD DUP2 LT ISZERO PUSH3 0x367 JUMPI DUP4 DUP2 DUP2 MLOAD DUP2 LT PUSH3 0x2E1 JUMPI PUSH3 0x2E1 PUSH3 0x7E7 JUMP JUMPDEST PUSH1 0x20 MUL PUSH1 0x20 ADD ADD MLOAD PUSH1 0x2 PUSH1 0x0 DUP8 DUP5 DUP2 MLOAD DUP2 LT PUSH3 0x302 JUMPI PUSH3 0x302 PUSH3 0x7E7 JUMP JUMPDEST PUSH1 0x20 MUL PUSH1 0x20 ADD ADD MLOAD DUP2 MSTORE PUSH1 0x20 ADD SWAP1 DUP2 MSTORE PUSH1 0x20 ADD PUSH1 0x0 KECCAK256 PUSH1 0x0 DUP9 PUSH1 0x1 PUSH1 0x1 PUSH1 0xA0 SHL SUB AND PUSH1 0x1 PUSH1 0x1 PUSH1 0xA0 SHL SUB AND DUP2 MSTORE PUSH1 0x20 ADD SWAP1 DUP2 MSTORE PUSH1 0x20 ADD PUSH1 0x0 KECCAK256 PUSH1 0x0 DUP3 DUP3 SLOAD PUSH3 0x34C SWAP2 SWAP1 PUSH3 0x813 JUMP JUMPDEST SWAP1 SWAP2 SSTORE POP DUP2 SWAP1 POP PUSH3 0x35E DUP2 PUSH3 0x82E JUMP JUMPDEST SWAP2 POP POP PUSH3 0x2C2 JUMP JUMPDEST POP DUP5 PUSH1 0x1 PUSH1 0x1 PUSH1 0xA0 SHL SUB AND PUSH1 0x0 PUSH1 0x1 PUSH1 0x1 PUSH1 0xA0 SHL SUB AND DUP3 PUSH1 0x1 PUSH1 0x1 PUSH1 0xA0 SHL SUB AND PUSH32 0x4A39DC06D4C0DBC64B70AF90FD698A233A518AA5D07E595D983B8C0526C8F7FB DUP8 DUP8 PUSH1 0x40 MLOAD PUSH3 0x3BA SWAP3 SWAP2 SWAP1 PUSH3 0x887 JUMP JUMPDEST PUSH1 0x40 MLOAD DUP1 SWAP2 SUB SWAP1 LOG4 PUSH3 0x3D3 DUP2 PUSH1 0x0 DUP8 DUP8 DUP8 DUP8 PUSH3 0x3E2 JUMP JUMPDEST POP POP POP POP POP JUMP JUMPDEST POP POP POP POP POP POP JUMP JUMPDEST PUSH3 0x401 DUP5 PUSH1 0x1 PUSH1 0x1 PUSH1 0xA0 SHL SUB AND PUSH3 0x5B7 PUSH1 0x20 SHL PUSH3 0x1C7C OR PUSH1 0x20 SHR JUMP JUMPDEST ISZERO PUSH3 0x3DA JUMPI PUSH1 0x40 MLOAD PUSH4 0xBC197C81 PUSH1 0xE0 SHL DUP2 MSTORE PUSH1 0x1 PUSH1 0x1 PUSH1 0xA0 SHL SUB DUP6 AND SWAP1 PUSH4 0xBC197C81 SWAP1 PUSH3 0x43D SWAP1 DUP10 SWAP1 DUP10 SWAP1 DUP9 SWAP1 DUP9 SWAP1 DUP9 SWAP1 PUSH1 0x4 ADD PUSH3 0x909 JUMP JUMPDEST PUSH1 0x20 PUSH1 0x40 MLOAD DUP1 DUP4 SUB DUP2 PUSH1 0x0 DUP8 GAS CALL SWAP3 POP POP POP DUP1 ISZERO PUSH3 0x47B JUMPI POP PUSH1 0x40 DUP1 MLOAD PUSH1 0x1F RETURNDATASIZE SWAP1 DUP2 ADD PUSH1 0x1F NOT AND DUP3 ADD SWAP1 SWAP3 MSTORE PUSH3 0x478 SWAP2 DUP2 ADD SWAP1 PUSH3 0x96D JUMP JUMPDEST PUSH1 0x1 JUMPDEST PUSH3 0x53B JUMPI PUSH3 0x48A PUSH3 0x9A0 JUMP JUMPDEST DUP1 PUSH4 0x8C379A0 SUB PUSH3 0x4CA JUMPI POP PUSH3 0x4A1 PUSH3 0x9BD JUMP JUMPDEST DUP1 PUSH3 0x4AE JUMPI POP PUSH3 0x4CC JUMP JUMPDEST DUP1 PUSH1 0x40 MLOAD PUSH3 0x461BCD PUSH1 0xE5 SHL DUP2 MSTORE PUSH1 0x4 ADD PUSH3 0x251 SWAP2 SWAP1 PUSH3 0xA4C JUMP JUMPDEST POP JUMPDEST PUSH1 0x40 MLOAD PUSH3 0x461BCD PUSH1 0xE5 SHL DUP2 MSTORE PUSH1 0x20 PUSH1 0x4 DUP3 ADD MSTORE PUSH1 0x34 PUSH1 0x24 DUP3 ADD MSTORE PUSH32 0x455243313135353A207472616E7366657220746F206E6F6E2D45524331313535 PUSH1 0x44 DUP3 ADD MSTORE PUSH32 0x526563656976657220696D706C656D656E746572000000000000000000000000 PUSH1 0x64 DUP3 ADD MSTORE PUSH1 0x84 ADD PUSH3 0x251 JUMP JUMPDEST PUSH1 0x1 PUSH1 0x1 PUSH1 0xE0 SHL SUB NOT DUP2 AND PUSH4 0xBC197C81 PUSH1 0xE0 SHL EQ PUSH3 0x5AE JUMPI PUSH1 0x40 MLOAD PUSH3 0x461BCD PUSH1 0xE5 SHL DUP2 MSTORE PUSH1 0x20 PUSH1 0x4 DUP3 ADD MSTORE PUSH1 0x28 PUSH1 0x24 DUP3 ADD MSTORE PUSH32 0x455243313135353A204552433131353552656365697665722072656A65637465 PUSH1 0x44 DUP3 ADD MSTORE PUSH8 0x6420746F6B656E73 PUSH1 0xC0 SHL PUSH1 0x64 DUP3 ADD MSTORE PUSH1 0x84 ADD PUSH3 0x251 JUMP JUMPDEST POP POP POP POP POP POP POP JUMP JUMPDEST PUSH1 0x1 PUSH1 0x1 PUSH1 0xA0 SHL SUB AND EXTCODESIZE ISZERO ISZERO SWAP1 JUMP JUMPDEST DUP3 DUP1 SLOAD PUSH3 0x5D4 SWAP1 PUSH3 0xA61 JUMP JUMPDEST SWAP1 PUSH1 0x0 MSTORE PUSH1 0x20 PUSH1 0x0 KECCAK256 SWAP1 PUSH1 0x1F ADD PUSH1 0x20 SWAP1 DIV DUP2 ADD SWAP3 DUP3 PUSH3 0x5F8 JUMPI PUSH1 0x0 DUP6 SSTORE PUSH3 0x643 JUMP JUMPDEST DUP3 PUSH1 0x1F LT PUSH3 0x613 JUMPI DUP1 MLOAD PUSH1 0xFF NOT AND DUP4 DUP1 ADD OR DUP6 SSTORE PUSH3 0x643 JUMP JUMPDEST DUP3 DUP1 ADD PUSH1 0x1 ADD DUP6 SSTORE DUP3 ISZERO PUSH3 0x643 JUMPI SWAP2 DUP3 ADD JUMPDEST DUP3 DUP2 GT ISZERO PUSH3 0x643 JUMPI DUP3 MLOAD DUP3 SSTORE SWAP2 PUSH1 0x20 ADD SWAP2 SWAP1 PUSH1 0x1 ADD SWAP1 PUSH3 0x626 JUMP JUMPDEST POP PUSH3 0x651 SWAP3 SWAP2 POP PUSH3 0x655 JUMP JUMPDEST POP SWAP1 JUMP JUMPDEST JUMPDEST DUP1 DUP3 GT ISZERO PUSH3 0x651 JUMPI PUSH1 0x0 DUP2 SSTORE PUSH1 0x1 ADD PUSH3 0x656 JUMP JUMPDEST DUP1 MLOAD PUSH1 0x1 PUSH1 0x1 PUSH1 0xA0 SHL SUB DUP2 AND DUP2 EQ PUSH3 0x684 JUMPI PUSH1 0x0 DUP1 REVERT JUMPDEST SWAP2 SWAP1 POP JUMP JUMPDEST PUSH4 0x4E487B71 PUSH1 0xE0 SHL PUSH1 0x0 MSTORE PUSH1 0x41 PUSH1 0x4 MSTORE PUSH1 0x24 PUSH1 0x0 REVERT JUMPDEST PUSH1 0x1F DUP3 ADD PUSH1 0x1F NOT AND DUP2 ADD PUSH1 0x1 PUSH1 0x1 PUSH1 0x40 SHL SUB DUP2 GT DUP3 DUP3 LT OR ISZERO PUSH3 0x6C7 JUMPI PUSH3 0x6C7 PUSH3 0x689 JUMP JUMPDEST PUSH1 0x40 MSTORE POP POP JUMP JUMPDEST PUSH1 0x0 DUP3 PUSH1 0x1F DUP4 ADD SLT PUSH3 0x6E0 JUMPI PUSH1 0x0 DUP1 REVERT JUMPDEST DUP2 MLOAD PUSH1 0x20 PUSH1 0x1 PUSH1 0x1 PUSH1 0x40 SHL SUB DUP3 GT ISZERO PUSH3 0x6FE JUMPI PUSH3 0x6FE PUSH3 0x689 JUMP JUMPDEST DUP2 PUSH1 0x5 SHL PUSH1 0x40 MLOAD PUSH3 0x713 DUP4 DUP4 ADD DUP3 PUSH3 0x69F JUMP JUMPDEST SWAP3 DUP4 MSTORE DUP5 DUP2 ADD DUP3 ADD SWAP3 DUP3 DUP2 ADD DUP8 DUP6 GT ISZERO PUSH3 0x72D JUMPI PUSH1 0x0 DUP1 REVERT JUMPDEST DUP4 DUP8 ADD SWAP3 POP JUMPDEST DUP5 DUP4 LT ISZERO PUSH3 0x74C JUMPI DUP3 MLOAD DUP2 MSTORE SWAP2 DUP4 ADD SWAP2 DUP4 ADD PUSH3 0x733 JUMP JUMPDEST POP SWAP7 SWAP6 POP POP POP POP POP POP JUMP JUMPDEST PUSH1 0x0 DUP1 PUSH1 0x0 DUP1 PUSH1 0x80 DUP6 DUP8 SUB SLT ISZERO PUSH3 0x76E JUMPI PUSH1 0x0 DUP1 REVERT JUMPDEST PUSH3 0x779 DUP6 PUSH3 0x66C JUMP JUMPDEST SWAP4 POP PUSH3 0x789 PUSH1 0x20 DUP7 ADD PUSH3 0x66C JUMP JUMPDEST PUSH1 0x40 DUP7 ADD MLOAD SWAP1 SWAP4 POP PUSH1 0x1 PUSH1 0x1 PUSH1 0x40 SHL SUB DUP1 DUP3 GT ISZERO PUSH3 0x7A7 JUMPI PUSH1 0x0 DUP1 REVERT JUMPDEST PUSH3 0x7B5 DUP9 DUP4 DUP10 ADD PUSH3 0x6CE JUMP JUMPDEST SWAP4 POP PUSH1 0x60 DUP8 ADD MLOAD SWAP2 POP DUP1 DUP3 GT ISZERO PUSH3 0x7CC JUMPI PUSH1 0x0 DUP1 REVERT JUMPDEST POP PUSH3 0x7DB DUP8 DUP3 DUP9 ADD PUSH3 0x6CE JUMP JUMPDEST SWAP2 POP POP SWAP3 SWAP6 SWAP2 SWAP5 POP SWAP3 POP JUMP JUMPDEST PUSH4 0x4E487B71 PUSH1 0xE0 SHL PUSH1 0x0 MSTORE PUSH1 0x32 PUSH1 0x4 MSTORE PUSH1 0x24 PUSH1 0x0 REVERT JUMPDEST PUSH4 0x4E487B71 PUSH1 0xE0 SHL PUSH1 0x0 MSTORE PUSH1 0x11 PUSH1 0x4 MSTORE PUSH1 0x24 PUSH1 0x0 REVERT JUMPDEST PUSH1 0x0 DUP3 NOT DUP3 GT ISZERO PUSH3 0x829 JUMPI PUSH3 0x829 PUSH3 0x7FD JUMP JUMPDEST POP ADD SWAP1 JUMP JUMPDEST PUSH1 0x0 PUSH1 0x1 DUP3 ADD PUSH3 0x843 JUMPI PUSH3 0x843 PUSH3 0x7FD JUMP JUMPDEST POP PUSH1 0x1 ADD SWAP1 JUMP JUMPDEST PUSH1 0x0 DUP2 MLOAD DUP1 DUP5 MSTORE PUSH1 0x20 DUP1 DUP6 ADD SWAP5 POP DUP1 DUP5 ADD PUSH1 0x0 JUMPDEST DUP4 DUP2 LT ISZERO PUSH3 0x87C JUMPI DUP2 MLOAD DUP8 MSTORE SWAP6 DUP3 ADD SWAP6 SWAP1 DUP3 ADD SWAP1 PUSH1 0x1 ADD PUSH3 0x85E JUMP JUMPDEST POP SWAP5 SWAP6 SWAP5 POP POP POP POP POP JUMP JUMPDEST PUSH1 0x40 DUP2 MSTORE PUSH1 0x0 PUSH3 0x89C PUSH1 0x40 DUP4 ADD DUP6 PUSH3 0x84A JUMP JUMPDEST DUP3 DUP2 SUB PUSH1 0x20 DUP5 ADD MSTORE PUSH3 0x8B0 DUP2 DUP6 PUSH3 0x84A JUMP JUMPDEST SWAP6 SWAP5 POP POP POP POP POP JUMP JUMPDEST PUSH1 0x0 DUP2 MLOAD DUP1 DUP5 MSTORE PUSH1 0x0 JUMPDEST DUP2 DUP2 LT ISZERO PUSH3 0x8E1 JUMPI PUSH1 0x20 DUP2 DUP6 ADD DUP2 ADD MLOAD DUP7 DUP4 ADD DUP3 ADD MSTORE ADD PUSH3 0x8C3 JUMP JUMPDEST DUP2 DUP2 GT ISZERO PUSH3 0x8F4 JUMPI PUSH1 0x0 PUSH1 0x20 DUP4 DUP8 ADD ADD MSTORE JUMPDEST POP PUSH1 0x1F ADD PUSH1 0x1F NOT AND SWAP3 SWAP1 SWAP3 ADD PUSH1 0x20 ADD SWAP3 SWAP2 POP POP JUMP JUMPDEST PUSH1 0x1 PUSH1 0x1 PUSH1 0xA0 SHL SUB DUP7 DUP2 AND DUP3 MSTORE DUP6 AND PUSH1 0x20 DUP3 ADD MSTORE PUSH1 0xA0 PUSH1 0x40 DUP3 ADD DUP2 SWAP1 MSTORE PUSH1 0x0 SWAP1 PUSH3 0x937 SWAP1 DUP4 ADD DUP7 PUSH3 0x84A JUMP JUMPDEST DUP3 DUP2 SUB PUSH1 0x60 DUP5 ADD MSTORE PUSH3 0x94B DUP2 DUP7 PUSH3 0x84A JUMP JUMPDEST SWAP1 POP DUP3 DUP2 SUB PUSH1 0x80 DUP5 ADD MSTORE PUSH3 0x961 DUP2 DUP6 PUSH3 0x8B9 JUMP JUMPDEST SWAP9 SWAP8 POP POP POP POP POP POP POP POP JUMP JUMPDEST PUSH1 0x0 PUSH1 0x20 DUP3 DUP5 SUB SLT ISZERO PUSH3 0x980 JUMPI PUSH1 0x0 DUP1 REVERT JUMPDEST DUP2 MLOAD PUSH1 0x1 PUSH1 0x1 PUSH1 0xE0 SHL SUB NOT DUP2 AND DUP2 EQ PUSH3 0x999 JUMPI PUSH1 0x0 DUP1 REVERT JUMPDEST SWAP4 SWAP3 POP POP POP JUMP JUMPDEST PUSH1 0x0 PUSH1 0x3 RETURNDATASIZE GT ISZERO PUSH3 0x9BA JUMPI PUSH1 0x4 PUSH1 0x0 DUP1 RETURNDATACOPY POP PUSH1 0x0 MLOAD PUSH1 0xE0 SHR JUMPDEST SWAP1 JUMP JUMPDEST PUSH1 0x0 PUSH1 0x44 RETURNDATASIZE LT ISZERO PUSH3 0x9CC JUMPI SWAP1 JUMP JUMPDEST PUSH1 0x40 MLOAD PUSH1 0x3 NOT RETURNDATASIZE DUP2 ADD PUSH1 0x4 DUP4 RETURNDATACOPY DUP2 MLOAD RETURNDATASIZE PUSH1 0x1 PUSH1 0x1 PUSH1 0x40 SHL SUB DUP1 DUP4 GT PUSH1 0x24 DUP5 ADD DUP4 LT OR ISZERO PUSH3 0x9FC JUMPI POP POP POP POP POP SWAP1 JUMP JUMPDEST DUP3 DUP6 ADD SWAP2 POP DUP2 MLOAD DUP2 DUP2 GT ISZERO PUSH3 0xA15 JUMPI POP POP POP POP POP POP SWAP1 JUMP JUMPDEST DUP5 RETURNDATASIZE DUP8 ADD ADD PUSH1 0x20 DUP3 DUP6 ADD ADD GT ISZERO PUSH3 0xA30 JUMPI POP POP POP POP POP POP SWAP1 JUMP JUMPDEST PUSH3 0xA41 PUSH1 0x20 DUP3 DUP7 ADD ADD DUP8 PUSH3 0x69F JUMP JUMPDEST POP SWAP1 SWAP6 SWAP5 POP POP POP POP POP JUMP JUMPDEST PUSH1 0x20 DUP2 MSTORE PUSH1 0x0 PUSH3 0x999 PUSH1 0x20 DUP4 ADD DUP5 PUSH3 0x8B9 JUMP JUMPDEST PUSH1 0x1 DUP2 DUP2 SHR SWAP1 DUP3 AND DUP1 PUSH3 0xA76 JUMPI PUSH1 0x7F DUP3 AND SWAP2 POP JUMPDEST PUSH1 0x20 DUP3 LT DUP2 SUB PUSH3 0xA97 JUMPI PUSH4 0x4E487B71 PUSH1 0xE0 SHL PUSH1 0x0 MSTORE PUSH1 0x22 PUSH1 0x4 MSTORE PUSH1 0x24 PUSH1 0x0 REVERT JUMPDEST POP SWAP2 SWAP1 POP JUMP JUMPDEST PUSH1 0x80 MLOAD PUSH2 0x3D86 PUSH3 0xACE PUSH1 0x0 CODECOPY PUSH1 0x0 DUP2 DUP2 PUSH2 0x568 ADD MSTORE DUP2 DUP2 PUSH2 0x1759 ADD MSTORE DUP2 DUP2 PUSH2 0x19BA ADD MSTORE PUSH2 0x1EAD ADD MSTORE PUSH2 0x3D86 PUSH1 0x0 RETURN INVALID PUSH1 0x80 PUSH1 0x40 MSTORE CALLVALUE DUP1 ISZERO PUSH2 0x10 JUMPI PUSH1 0x0 DUP1 REVERT JUMPDEST POP PUSH1 0x4 CALLDATASIZE LT PUSH2 0x252 JUMPI PUSH1 0x0 CALLDATALOAD PUSH1 0xE0 SHR DUP1 PUSH4 0x764C1D96 GT PUSH2 0x146 JUMPI DUP1 PUSH4 0xD547741F GT PUSH2 0xC3 JUMPI DUP1 PUSH4 0xF242432A GT PUSH2 0x87 JUMPI DUP1 PUSH4 0xF242432A EQ PUSH2 0x610 JUMPI DUP1 PUSH4 0xF2FDE38B EQ PUSH2 0x623 JUMPI DUP1 PUSH4 0xF5298ACA EQ PUSH2 0x636 JUMPI DUP1 PUSH4 0xF70EFA97 EQ PUSH2 0x649 JUMPI DUP1 PUSH4 0xFA7A02A5 EQ PUSH2 0x65C JUMPI DUP1 PUSH4 0xFC851323 EQ PUSH2 0x689 JUMPI PUSH1 0x0 DUP1 REVERT JUMPDEST DUP1 PUSH4 0xD547741F EQ PUSH2 0x58A JUMPI DUP1 PUSH4 0xE985E9C5 EQ PUSH2 0x59D JUMPI DUP1 PUSH4 0xEA3994BC EQ PUSH2 0x5D9 JUMPI DUP1 PUSH4 0xED008921 EQ PUSH2 0x5EC JUMPI DUP1 PUSH4 0xF0E404C0 EQ PUSH2 0x5F4 JUMPI PUSH1 0x0 DUP1 REVERT JUMPDEST DUP1 PUSH4 0xA217FDDF GT PUSH2 0x10A JUMPI DUP1 PUSH4 0xA217FDDF EQ PUSH2 0x52D JUMPI DUP1 PUSH4 0xA22CB465 EQ PUSH2 0x535 JUMPI DUP1 PUSH4 0xA768396A EQ PUSH2 0x548 JUMPI DUP1 PUSH4 0xA9F920ED EQ PUSH2 0x550 JUMPI DUP1 PUSH4 0xD5391393 EQ PUSH2 0x563 JUMPI PUSH1 0x0 DUP1 REVERT JUMPDEST DUP1 PUSH4 0x764C1D96 EQ PUSH2 0x4DA JUMPI DUP1 PUSH4 0x8DA5CB5B EQ PUSH2 0x4ED JUMPI DUP1 PUSH4 0x8EC3CA14 EQ PUSH2 0x4FE JUMPI DUP1 PUSH4 0x91D14854 EQ PUSH2 0x507 JUMPI DUP1 PUSH4 0x9727756A EQ PUSH2 0x51A JUMPI PUSH1 0x0 DUP1 REVERT JUMPDEST DUP1 PUSH4 0x2EB2C2D6 GT PUSH2 0x1D4 JUMPI DUP1 PUSH4 0x4E1273F4 GT PUSH2 0x198 JUMPI DUP1 PUSH4 0x4E1273F4 EQ PUSH2 0x40A JUMPI DUP1 PUSH4 0x58609177 EQ PUSH2 0x42A JUMPI DUP1 PUSH4 0x6B20C454 EQ PUSH2 0x44F JUMPI DUP1 PUSH4 0x6CD47623 EQ PUSH2 0x462 JUMPI DUP1 PUSH4 0x715018A6 EQ PUSH2 0x4D2 JUMPI PUSH1 0x0 DUP1 REVERT JUMPDEST DUP1 PUSH4 0x2EB2C2D6 EQ PUSH2 0x392 JUMPI DUP1 PUSH4 0x2F2FF15D EQ PUSH2 0x3A5 JUMPI DUP1 PUSH4 0x36568ABE EQ PUSH2 0x3B8 JUMPI DUP1 PUSH4 0x44DE240A EQ PUSH2 0x3CB JUMPI DUP1 PUSH4 0x4B5E91D4 EQ PUSH2 0x3EA JUMPI PUSH1 0x0 DUP1 REVERT JUMPDEST DUP1 PUSH4 0x13516037 GT PUSH2 0x21B JUMPI DUP1 PUSH4 0x13516037 EQ PUSH2 0x2FA JUMPI DUP1 PUSH4 0x219A1D77 EQ PUSH2 0x30F JUMPI DUP1 PUSH4 0x248A9CA3 EQ PUSH2 0x334 JUMPI DUP1 PUSH4 0x2A5A1DBC EQ PUSH2 0x358 JUMPI DUP1 PUSH4 0x2D9C98DC EQ PUSH2 0x36B JUMPI PUSH1 0x0 DUP1 REVERT JUMPDEST DUP1 PUSH3 0xFDD58E EQ PUSH2 0x257 JUMPI DUP1 PUSH4 0x1FFC9A7 EQ PUSH2 0x27D JUMPI DUP1 PUSH4 0x72A27A7 EQ PUSH2 0x2A0 JUMPI DUP1 PUSH4 0xB5A006B EQ PUSH2 0x2C6 JUMPI DUP1 PUSH4 0xE89341C EQ PUSH2 0x2DA JUMPI JUMPDEST PUSH1 0x0 DUP1 REVERT JUMPDEST PUSH2 0x26A PUSH2 0x265 CALLDATASIZE PUSH1 0x4 PUSH2 0x2BAB JUMP JUMPDEST PUSH2 0x697 JUMP JUMPDEST PUSH1 0x40 MLOAD SWAP1 DUP2 MSTORE PUSH1 0x20 ADD JUMPDEST PUSH1 0x40 MLOAD DUP1 SWAP2 SUB SWAP1 RETURN JUMPDEST PUSH2 0x290 PUSH2 0x28B CALLDATASIZE PUSH1 0x4 PUSH2 0x2BEB JUMP JUMPDEST PUSH2 0x72F JUMP JUMPDEST PUSH1 0x40 MLOAD SWAP1 ISZERO ISZERO DUP2 MSTORE PUSH1 0x20 ADD PUSH2 0x274 JUMP JUMPDEST PUSH2 0x2B3 PUSH2 0x2AE CALLDATASIZE PUSH1 0x4 PUSH2 0x2C46 JUMP JUMPDEST PUSH2 0x740 JUMP JUMPDEST PUSH1 0x40 MLOAD PUSH2 0xFFFF SWAP1 SWAP2 AND DUP2 MSTORE PUSH1 0x20 ADD PUSH2 0x274 JUMP JUMPDEST PUSH1 0xA SLOAD PUSH2 0x2B3 SWAP1 PUSH3 0x10000 SWAP1 DIV PUSH2 0xFFFF AND DUP2 JUMP JUMPDEST PUSH2 0x2ED PUSH2 0x2E8 CALLDATASIZE PUSH1 0x4 PUSH2 0x2C8D JUMP JUMPDEST PUSH2 0x850 JUMP JUMPDEST PUSH1 0x40 MLOAD PUSH2 0x274 SWAP2 SWAP1 PUSH2 0x2CFE JUMP JUMPDEST PUSH2 0x30D PUSH2 0x308 CALLDATASIZE PUSH1 0x4 PUSH2 0x2D22 JUMP JUMPDEST PUSH2 0x8E4 JUMP JUMPDEST STOP JUMPDEST PUSH1 0x0 SLOAD PUSH1 0x1 PUSH1 0x1 PUSH1 0xA0 SHL SUB AND JUMPDEST PUSH1 0x40 MLOAD PUSH1 0x1 PUSH1 0x1 PUSH1 0xA0 SHL SUB SWAP1 SWAP2 AND DUP2 MSTORE PUSH1 0x20 ADD PUSH2 0x274 JUMP JUMPDEST PUSH2 0x26A PUSH2 0x342 CALLDATASIZE PUSH1 0x4 PUSH2 0x2C8D JUMP JUMPDEST PUSH1 0x0 SWAP1 DUP2 MSTORE PUSH1 0x1 PUSH1 0x20 DUP2 SWAP1 MSTORE PUSH1 0x40 SWAP1 SWAP2 KECCAK256 ADD SLOAD SWAP1 JUMP JUMPDEST PUSH2 0x30D PUSH2 0x366 CALLDATASIZE PUSH1 0x4 PUSH2 0x2FE5 JUMP JUMPDEST PUSH2 0x921 JUMP JUMPDEST PUSH2 0x37E PUSH2 0x379 CALLDATASIZE PUSH1 0x4 PUSH2 0x307D JUMP JUMPDEST PUSH2 0xC56 JUMP JUMPDEST PUSH1 0x40 MLOAD PUSH2 0x274 SWAP9 SWAP8 SWAP7 SWAP6 SWAP5 SWAP4 SWAP3 SWAP2 SWAP1 PUSH2 0x30CD JUMP JUMPDEST PUSH2 0x30D PUSH2 0x3A0 CALLDATASIZE PUSH1 0x4 PUSH2 0x3156 JUMP JUMPDEST PUSH2 0xE71 JUMP JUMPDEST PUSH2 0x30D PUSH2 0x3B3 CALLDATASIZE PUSH1 0x4 PUSH2 0x31FF JUMP JUMPDEST PUSH2 0xEBD JUMP JUMPDEST PUSH2 0x30D PUSH2 0x3C6 CALLDATASIZE PUSH1 0x4 PUSH2 0x31FF JUMP JUMPDEST PUSH2 0xEE8 JUMP JUMPDEST PUSH1 0xA SLOAD PUSH2 0x3D8 SWAP1 PUSH1 0xFF AND DUP2 JUMP JUMPDEST PUSH1 0x40 MLOAD PUSH1 0xFF SWAP1 SWAP2 AND DUP2 MSTORE PUSH1 0x20 ADD PUSH2 0x274 JUMP JUMPDEST PUSH2 0x3FD PUSH2 0x3F8 CALLDATASIZE PUSH1 0x4 PUSH2 0x3222 JUMP JUMPDEST PUSH2 0xF66 JUMP JUMPDEST PUSH1 0x40 MLOAD PUSH2 0x274 SWAP2 SWAP1 PUSH2 0x323D JUMP JUMPDEST PUSH2 0x41D PUSH2 0x418 CALLDATASIZE PUSH1 0x4 PUSH2 0x32A3 JUMP JUMPDEST PUSH2 0x10CA JUMP JUMPDEST PUSH1 0x40 MLOAD PUSH2 0x274 SWAP2 SWAP1 PUSH2 0x33A8 JUMP JUMPDEST PUSH1 0xE SLOAD PUSH2 0x43A SWAP1 PUSH4 0xFFFFFFFF AND DUP2 JUMP JUMPDEST PUSH1 0x40 MLOAD PUSH4 0xFFFFFFFF SWAP1 SWAP2 AND DUP2 MSTORE PUSH1 0x20 ADD PUSH2 0x274 JUMP JUMPDEST PUSH2 0x30D PUSH2 0x45D CALLDATASIZE PUSH1 0x4 PUSH2 0x33BB JUMP JUMPDEST PUSH2 0x11F3 JUMP JUMPDEST PUSH2 0x4C0 PUSH2 0x470 CALLDATASIZE PUSH1 0x4 PUSH2 0x3222 JUMP JUMPDEST PUSH1 0xD PUSH1 0x20 MSTORE PUSH1 0x0 SWAP1 DUP2 MSTORE PUSH1 0x40 SWAP1 KECCAK256 SLOAD PUSH4 0xFFFFFFFF DUP1 DUP3 AND SWAP2 PUSH1 0xFF PUSH1 0x1 PUSH1 0x20 SHL DUP3 DIV DUP2 AND SWAP3 PUSH2 0xFFFF PUSH1 0x1 PUSH1 0x28 SHL DUP5 DIV AND SWAP3 PUSH1 0x1 PUSH1 0x38 SHL DUP2 DIV SWAP1 SWAP2 AND SWAP2 PUSH1 0x1 PUSH1 0x58 SHL DUP3 DIV DUP2 AND SWAP2 PUSH1 0x1 PUSH1 0x60 SHL SWAP1 DIV AND DUP7 JUMP JUMPDEST PUSH1 0x40 MLOAD PUSH2 0x274 SWAP7 SWAP6 SWAP5 SWAP4 SWAP3 SWAP2 SWAP1 PUSH2 0x342E JUMP JUMPDEST PUSH2 0x30D PUSH2 0x1236 JUMP JUMPDEST PUSH2 0x3FD PUSH2 0x4E8 CALLDATASIZE PUSH1 0x4 PUSH2 0x3481 JUMP JUMPDEST PUSH2 0x124A JUMP JUMPDEST PUSH1 0x0 SLOAD PUSH1 0x1 PUSH1 0x1 PUSH1 0xA0 SHL SUB AND PUSH2 0x31C JUMP JUMPDEST PUSH2 0x26A PUSH1 0x5 SLOAD DUP2 JUMP JUMPDEST PUSH2 0x290 PUSH2 0x515 CALLDATASIZE PUSH1 0x4 PUSH2 0x31FF JUMP JUMPDEST PUSH2 0x172C JUMP JUMPDEST PUSH2 0x30D PUSH2 0x528 CALLDATASIZE PUSH1 0x4 PUSH2 0x358E JUMP JUMPDEST PUSH2 0x1757 JUMP JUMPDEST PUSH2 0x26A PUSH1 0x0 DUP2 JUMP JUMPDEST PUSH2 0x30D PUSH2 0x543 CALLDATASIZE PUSH1 0x4 PUSH2 0x360E JUMP JUMPDEST PUSH2 0x1854 JUMP JUMPDEST PUSH2 0x2ED PUSH2 0x185F JUMP JUMPDEST PUSH2 0x30D PUSH2 0x55E CALLDATASIZE PUSH1 0x4 PUSH2 0x3638 JUMP JUMPDEST PUSH2 0x18ED JUMP JUMPDEST PUSH2 0x26A PUSH32 0x0 DUP2 JUMP JUMPDEST PUSH2 0x30D PUSH2 0x598 CALLDATASIZE PUSH1 0x4 PUSH2 0x31FF JUMP JUMPDEST PUSH2 0x1992 JUMP JUMPDEST PUSH2 0x290 PUSH2 0x5AB CALLDATASIZE PUSH1 0x4 PUSH2 0x3695 JUMP JUMPDEST PUSH1 0x1 PUSH1 0x1 PUSH1 0xA0 SHL SUB SWAP2 DUP3 AND PUSH1 0x0 SWAP1 DUP2 MSTORE PUSH1 0x3 PUSH1 0x20 SWAP1 DUP2 MSTORE PUSH1 0x40 DUP1 DUP4 KECCAK256 SWAP4 SWAP1 SWAP5 AND DUP3 MSTORE SWAP2 SWAP1 SWAP2 MSTORE KECCAK256 SLOAD PUSH1 0xFF AND SWAP1 JUMP JUMPDEST PUSH2 0x30D PUSH2 0x5E7 CALLDATASIZE PUSH1 0x4 PUSH2 0x36BF JUMP JUMPDEST PUSH2 0x19B8 JUMP JUMPDEST PUSH2 0x2ED PUSH2 0x1A03 JUMP JUMPDEST PUSH1 0xA SLOAD PUSH2 0x43A SWAP1 PUSH9 0x10000000000000000 SWAP1 DIV PUSH4 0xFFFFFFFF AND DUP2 JUMP JUMPDEST PUSH2 0x30D PUSH2 0x61E CALLDATASIZE PUSH1 0x4 PUSH2 0x36DA JUMP JUMPDEST PUSH2 0x1A10 JUMP JUMPDEST PUSH2 0x30D PUSH2 0x631 CALLDATASIZE PUSH1 0x4 PUSH2 0x373E JUMP JUMPDEST PUSH2 0x1A55 JUMP JUMPDEST PUSH2 0x30D PUSH2 0x644 CALLDATASIZE PUSH1 0x4 PUSH2 0x3759 JUMP JUMPDEST PUSH2 0x1ACE JUMP JUMPDEST PUSH2 0x3FD PUSH2 0x657 CALLDATASIZE PUSH1 0x4 PUSH2 0x2D22 JUMP JUMPDEST PUSH2 0x1B11 JUMP JUMPDEST PUSH2 0x3D8 PUSH2 0x66A CALLDATASIZE PUSH1 0x4 PUSH2 0x3222 JUMP JUMPDEST PUSH1 0xFF SWAP1 DUP2 AND PUSH1 0x0 SWAP1 DUP2 MSTORE PUSH1 0xD PUSH1 0x20 MSTORE PUSH1 0x40 SWAP1 KECCAK256 SLOAD PUSH1 0x1 PUSH1 0x60 SHL SWAP1 DIV AND SWAP1 JUMP JUMPDEST PUSH1 0x8 SLOAD PUSH2 0x2B3 SWAP1 PUSH2 0xFFFF AND DUP2 JUMP JUMPDEST PUSH1 0x0 PUSH1 0x1 PUSH1 0x1 PUSH1 0xA0 SHL SUB DUP4 AND PUSH2 0x707 JUMPI PUSH1 0x40 MLOAD PUSH3 0x461BCD PUSH1 0xE5 SHL DUP2 MSTORE PUSH1 0x20 PUSH1 0x4 DUP3 ADD MSTORE PUSH1 0x2A PUSH1 0x24 DUP3 ADD MSTORE PUSH32 0x455243313135353A2061646472657373207A65726F206973206E6F7420612076 PUSH1 0x44 DUP3 ADD MSTORE PUSH10 0x30B634B21037BBB732B9 PUSH1 0xB1 SHL PUSH1 0x64 DUP3 ADD MSTORE PUSH1 0x84 ADD JUMPDEST PUSH1 0x40 MLOAD DUP1 SWAP2 SUB SWAP1 REVERT JUMPDEST POP PUSH1 0x0 SWAP1 DUP2 MSTORE PUSH1 0x2 PUSH1 0x20 SWAP1 DUP2 MSTORE PUSH1 0x40 DUP1 DUP4 KECCAK256 PUSH1 0x1 PUSH1 0x1 PUSH1 0xA0 SHL SUB SWAP5 SWAP1 SWAP5 AND DUP4 MSTORE SWAP3 SWAP1 MSTORE KECCAK256 SLOAD SWAP1 JUMP JUMPDEST PUSH1 0x0 PUSH2 0x73A DUP3 PUSH2 0x1C8B JUMP JUMPDEST SWAP3 SWAP2 POP POP JUMP JUMPDEST PUSH1 0x0 PUSH2 0x74A PUSH2 0x1CCB JUMP JUMPDEST PUSH3 0x13880 DUP4 PUSH4 0xFFFFFFFF AND GT ISZERO PUSH2 0x7BA JUMPI PUSH1 0x40 MLOAD PUSH3 0x461BCD PUSH1 0xE5 SHL DUP2 MSTORE PUSH1 0x20 PUSH1 0x4 DUP3 ADD MSTORE PUSH1 0x2E PUSH1 0x24 DUP3 ADD MSTORE PUSH32 0x5468697320666C6F726573742063616E277420696E6672696E67652074686520 PUSH1 0x44 DUP3 ADD MSTORE PUSH14 0x756E6976657273616C2072756C65 PUSH1 0x90 SHL PUSH1 0x64 DUP3 ADD MSTORE PUSH1 0x84 ADD PUSH2 0x6FE JUMP JUMPDEST PUSH1 0xA SLOAD PUSH2 0x100 SWAP1 DIV PUSH1 0xFF AND PUSH1 0x0 SWAP1 DUP2 MSTORE PUSH1 0xD PUSH1 0x20 MSTORE PUSH1 0x40 SWAP1 KECCAK256 DUP1 SLOAD DUP4 SWAP1 DUP3 SWAP1 PUSH5 0xFF00000000 NOT AND PUSH1 0x1 PUSH1 0x20 SHL DUP4 PUSH1 0x1 DUP2 GT ISZERO PUSH2 0x7F8 JUMPI PUSH2 0x7F8 PUSH2 0x3099 JUMP JUMPDEST MUL OR SWAP1 SSTORE POP DUP1 SLOAD PUSH4 0xFFFFFFFF DUP6 AND PUSH1 0x1 PUSH1 0x38 SHL MUL PUSH11 0xFFFFFFFF000000FFFFFFFF NOT PUSH2 0xFFFF DUP9 AND PUSH1 0x1 PUSH1 0x28 SHL MUL AND PUSH11 0xFFFFFFFFFFFF00FFFFFFFF NOT SWAP1 SWAP3 AND SWAP2 SWAP1 SWAP2 OR OR SWAP1 SSTORE POP PUSH1 0xA SLOAD PUSH1 0xFF PUSH2 0x100 SWAP1 SWAP2 DIV AND SWAP4 SWAP3 POP POP POP JUMP JUMPDEST PUSH1 0x60 PUSH1 0x4 DUP1 SLOAD PUSH2 0x85F SWAP1 PUSH2 0x378C JUMP JUMPDEST DUP1 PUSH1 0x1F ADD PUSH1 0x20 DUP1 SWAP2 DIV MUL PUSH1 0x20 ADD PUSH1 0x40 MLOAD SWAP1 DUP2 ADD PUSH1 0x40 MSTORE DUP1 SWAP3 SWAP2 SWAP1 DUP2 DUP2 MSTORE PUSH1 0x20 ADD DUP3 DUP1 SLOAD PUSH2 0x88B SWAP1 PUSH2 0x378C JUMP JUMPDEST DUP1 ISZERO PUSH2 0x8D8 JUMPI DUP1 PUSH1 0x1F LT PUSH2 0x8AD JUMPI PUSH2 0x100 DUP1 DUP4 SLOAD DIV MUL DUP4 MSTORE SWAP2 PUSH1 0x20 ADD SWAP2 PUSH2 0x8D8 JUMP JUMPDEST DUP3 ADD SWAP2 SWAP1 PUSH1 0x0 MSTORE PUSH1 0x20 PUSH1 0x0 KECCAK256 SWAP1 JUMPDEST DUP2 SLOAD DUP2 MSTORE SWAP1 PUSH1 0x1 ADD SWAP1 PUSH1 0x20 ADD DUP1 DUP4 GT PUSH2 0x8BB JUMPI DUP3 SWAP1 SUB PUSH1 0x1F AND DUP3 ADD SWAP2 JUMPDEST POP POP POP POP POP SWAP1 POP SWAP2 SWAP1 POP JUMP JUMPDEST PUSH2 0x8EC PUSH2 0x1CCB JUMP JUMPDEST PUSH1 0xFF SWAP1 SWAP2 AND PUSH1 0x0 SWAP1 DUP2 MSTORE PUSH1 0xD PUSH1 0x20 MSTORE PUSH1 0x40 SWAP1 KECCAK256 DUP1 SLOAD PUSH2 0xFFFF SWAP1 SWAP3 AND PUSH1 0x1 PUSH1 0x28 SHL MUL PUSH7 0xFFFF0000000000 NOT SWAP1 SWAP3 AND SWAP2 SWAP1 SWAP2 OR SWAP1 SSTORE JUMP JUMPDEST PUSH1 0xA SLOAD PUSH1 0xFF AND PUSH1 0x1 SUB PUSH2 0xB08 JUMPI PUSH1 0xC PUSH1 0x0 DUP5 PUSH2 0xFFFF AND PUSH2 0xFFFF AND DUP2 MSTORE PUSH1 0x20 ADD SWAP1 DUP2 MSTORE PUSH1 0x20 ADD PUSH1 0x0 KECCAK256 PUSH1 0x40 MLOAD DUP1 PUSH2 0x100 ADD PUSH1 0x40 MSTORE DUP1 DUP7 PUSH1 0x0 ADD MLOAD DUP2 MSTORE PUSH1 0x20 ADD DUP7 PUSH1 0x20 ADD MLOAD DUP2 MSTORE PUSH1 0x20 ADD DUP7 PUSH1 0x40 ADD MLOAD PUSH1 0x1 DUP2 GT ISZERO PUSH2 0x97F JUMPI PUSH2 0x97F PUSH2 0x3099 JUMP JUMPDEST DUP2 MSTORE PUSH1 0x20 ADD DUP7 PUSH1 0x60 ADD MLOAD PUSH1 0x1 PUSH1 0x1 PUSH1 0xA0 SHL SUB AND DUP2 MSTORE PUSH1 0x20 ADD DUP7 PUSH1 0x80 ADD MLOAD PUSH1 0x1 PUSH1 0x1 PUSH1 0xA0 SHL SUB AND DUP2 MSTORE PUSH1 0x20 ADD DUP7 PUSH1 0xA0 ADD MLOAD PUSH1 0x1 DUP2 GT ISZERO PUSH2 0x9C0 JUMPI PUSH2 0x9C0 PUSH2 0x3099 JUMP JUMPDEST DUP2 MSTORE PUSH1 0xC0 DUP8 ADD MLOAD ISZERO ISZERO PUSH1 0x20 DUP1 DUP4 ADD SWAP2 SWAP1 SWAP2 MSTORE PUSH1 0xE0 DUP9 ADD MLOAD PUSH1 0x40 SWAP1 SWAP3 ADD SWAP2 SWAP1 SWAP2 MSTORE DUP3 SLOAD PUSH1 0x1 DUP2 ADD DUP5 SSTORE PUSH1 0x0 SWAP4 DUP5 MSTORE SWAP3 DUP2 SWAP1 KECCAK256 DUP3 MLOAD DUP1 MLOAD SWAP4 SWAP5 PUSH1 0x5 MUL SWAP1 SWAP2 ADD SWAP3 PUSH2 0xA0B SWAP3 DUP5 SWAP3 ADD SWAP1 PUSH2 0x2AF6 JUMP JUMPDEST POP PUSH1 0x20 DUP3 DUP2 ADD MLOAD DUP1 MLOAD PUSH2 0xA24 SWAP3 PUSH1 0x1 DUP6 ADD SWAP3 ADD SWAP1 PUSH2 0x2AF6 JUMP JUMPDEST POP PUSH1 0x40 DUP3 ADD MLOAD PUSH1 0x2 DUP3 ADD DUP1 SLOAD PUSH1 0xFF NOT AND PUSH1 0x1 DUP4 DUP2 DUP2 GT ISZERO PUSH2 0xA47 JUMPI PUSH2 0xA47 PUSH2 0x3099 JUMP JUMPDEST MUL OR SWAP1 SSTORE POP PUSH1 0x60 DUP3 ADD MLOAD PUSH1 0x2 DUP3 ADD DUP1 SLOAD PUSH1 0x1 PUSH1 0x1 PUSH1 0xA0 SHL SUB SWAP3 DUP4 AND PUSH2 0x100 MUL PUSH2 0x100 PUSH1 0x1 PUSH1 0xA8 SHL SUB NOT SWAP1 SWAP2 AND OR SWAP1 SSTORE PUSH1 0x80 DUP4 ADD MLOAD PUSH1 0x3 DUP4 ADD DUP1 SLOAD SWAP2 SWAP1 SWAP3 AND PUSH1 0x1 PUSH1 0x1 PUSH1 0xA0 SHL SUB NOT DUP3 AND DUP2 OR DUP4 SSTORE PUSH1 0xA0 DUP6 ADD MLOAD SWAP3 SWAP2 PUSH1 0x1 PUSH1 0x1 PUSH1 0xA8 SHL SUB NOT AND OR PUSH1 0x1 PUSH1 0xA0 SHL DUP4 PUSH1 0x1 DUP2 GT ISZERO PUSH2 0xABD JUMPI PUSH2 0xABD PUSH2 0x3099 JUMP JUMPDEST MUL OR SWAP1 SSTORE POP PUSH1 0xC0 DUP3 ADD MLOAD PUSH1 0x3 DUP3 ADD DUP1 SLOAD SWAP2 ISZERO ISZERO PUSH1 0x1 PUSH1 0xA8 SHL MUL PUSH1 0xFF PUSH1 0xA8 SHL NOT SWAP1 SWAP3 AND SWAP2 SWAP1 SWAP2 OR SWAP1 SSTORE PUSH1 0xE0 DUP3 ADD MLOAD DUP1 MLOAD PUSH2 0xB00 SWAP2 PUSH1 0x4 DUP5 ADD SWAP2 PUSH1 0x20 SWAP1 SWAP2 ADD SWAP1 PUSH2 0x2AF6 JUMP JUMPDEST POP POP POP PUSH2 0xBF5 JUMP JUMPDEST PUSH1 0x0 JUMPDEST PUSH1 0xA SLOAD PUSH1 0xFF SWAP1 DUP2 AND SWAP1 DUP3 AND GT PUSH2 0xBF3 JUMPI PUSH2 0xFFFF DUP5 AND PUSH1 0x0 SWAP1 DUP2 MSTORE PUSH1 0xC PUSH1 0x20 MSTORE PUSH1 0x40 DUP2 KECCAK256 DUP1 SLOAD PUSH1 0xFF DUP5 AND SWAP1 DUP2 LT PUSH2 0xB43 JUMPI PUSH2 0xB43 PUSH2 0x37C6 JUMP JUMPDEST SWAP1 PUSH1 0x0 MSTORE PUSH1 0x20 PUSH1 0x0 KECCAK256 SWAP1 PUSH1 0x5 MUL ADD PUSH1 0x0 ADD SWAP1 POP DUP1 PUSH1 0x40 MLOAD PUSH1 0x20 ADD PUSH2 0xB67 SWAP2 SWAP1 PUSH2 0x37DC JUMP JUMPDEST PUSH1 0x40 DUP1 MLOAD PUSH1 0x1F NOT DUP2 DUP5 SUB ADD DUP2 MSTORE SWAP1 DUP3 SWAP1 MSTORE DUP1 MLOAD PUSH1 0x20 SWAP2 DUP3 ADD KECCAK256 DUP9 MLOAD SWAP1 SWAP3 PUSH2 0xB8E SWAP3 ADD PUSH2 0x3877 JUMP JUMPDEST PUSH1 0x40 MLOAD PUSH1 0x20 DUP2 DUP4 SUB SUB DUP2 MSTORE SWAP1 PUSH1 0x40 MSTORE DUP1 MLOAD SWAP1 PUSH1 0x20 ADD KECCAK256 SUB PUSH2 0xBE0 JUMPI PUSH1 0x40 MLOAD PUSH3 0x461BCD PUSH1 0xE5 SHL DUP2 MSTORE PUSH1 0x20 PUSH1 0x4 DUP3 ADD MSTORE PUSH1 0xC PUSH1 0x24 DUP3 ADD MSTORE PUSH12 0x617373657420657869737473 PUSH1 0xA0 SHL PUSH1 0x44 DUP3 ADD MSTORE PUSH1 0x64 ADD PUSH2 0x6FE JUMP JUMPDEST POP DUP1 PUSH2 0xBEB DUP2 PUSH2 0x38A9 JUMP JUMPDEST SWAP2 POP POP PUSH2 0xB0B JUMP JUMPDEST POP JUMPDEST PUSH2 0xC14 DUP5 PUSH1 0x80 ADD MLOAD DUP4 DUP4 PUSH1 0x40 MLOAD DUP1 PUSH1 0x20 ADD PUSH1 0x40 MSTORE DUP1 PUSH1 0x0 DUP2 MSTORE POP PUSH2 0x1D25 JUMP JUMPDEST PUSH2 0xC24 DUP5 PUSH1 0x80 ADD MLOAD CALLER PUSH1 0x1 PUSH2 0x1EAB JUMP JUMPDEST PUSH1 0xA DUP1 SLOAD PUSH1 0xFF AND SWAP1 PUSH1 0x0 PUSH2 0xC37 DUP4 PUSH2 0x38A9 JUMP JUMPDEST SWAP2 SWAP1 PUSH2 0x100 EXP DUP2 SLOAD DUP2 PUSH1 0xFF MUL NOT AND SWAP1 DUP4 PUSH1 0xFF AND MUL OR SWAP1 SSTORE POP POP POP POP POP POP JUMP JUMPDEST PUSH1 0xC PUSH1 0x20 MSTORE DUP2 PUSH1 0x0 MSTORE PUSH1 0x40 PUSH1 0x0 KECCAK256 DUP2 DUP2 SLOAD DUP2 LT PUSH2 0xC72 JUMPI PUSH1 0x0 DUP1 REVERT JUMPDEST SWAP1 PUSH1 0x0 MSTORE PUSH1 0x20 PUSH1 0x0 KECCAK256 SWAP1 PUSH1 0x5 MUL ADD PUSH1 0x0 SWAP2 POP SWAP2 POP POP DUP1 PUSH1 0x0 ADD DUP1 SLOAD PUSH2 0xC96 SWAP1 PUSH2 0x378C JUMP JUMPDEST DUP1 PUSH1 0x1F ADD PUSH1 0x20 DUP1 SWAP2 DIV MUL PUSH1 0x20 ADD PUSH1 0x40 MLOAD SWAP1 DUP2 ADD PUSH1 0x40 MSTORE DUP1 SWAP3 SWAP2 SWAP1 DUP2 DUP2 MSTORE PUSH1 0x20 ADD DUP3 DUP1 SLOAD PUSH2 0xCC2 SWAP1 PUSH2 0x378C JUMP JUMPDEST DUP1 ISZERO PUSH2 0xD0F JUMPI DUP1 PUSH1 0x1F LT PUSH2 0xCE4 JUMPI PUSH2 0x100 DUP1 DUP4 SLOAD DIV MUL DUP4 MSTORE SWAP2 PUSH1 0x20 ADD SWAP2 PUSH2 0xD0F JUMP JUMPDEST DUP3 ADD SWAP2 SWAP1 PUSH1 0x0 MSTORE PUSH1 0x20 PUSH1 0x0 KECCAK256 SWAP1 JUMPDEST DUP2 SLOAD DUP2 MSTORE SWAP1 PUSH1 0x1 ADD SWAP1 PUSH1 0x20 ADD DUP1 DUP4 GT PUSH2 0xCF2 JUMPI DUP3 SWAP1 SUB PUSH1 0x1F AND DUP3 ADD SWAP2 JUMPDEST POP POP POP POP POP SWAP1 DUP1 PUSH1 0x1 ADD DUP1 SLOAD PUSH2 0xD24 SWAP1 PUSH2 0x378C JUMP JUMPDEST DUP1 PUSH1 0x1F ADD PUSH1 0x20 DUP1 SWAP2 DIV MUL PUSH1 0x20 ADD PUSH1 0x40 MLOAD SWAP1 DUP2 ADD PUSH1 0x40 MSTORE DUP1 SWAP3 SWAP2 SWAP1 DUP2 DUP2 MSTORE PUSH1 0x20 ADD DUP3 DUP1 SLOAD PUSH2 0xD50 SWAP1 PUSH2 0x378C JUMP JUMPDEST DUP1 ISZERO PUSH2 0xD9D JUMPI DUP1 PUSH1 0x1F LT PUSH2 0xD72 JUMPI PUSH2 0x100 DUP1 DUP4 SLOAD DIV MUL DUP4 MSTORE SWAP2 PUSH1 0x20 ADD SWAP2 PUSH2 0xD9D JUMP JUMPDEST DUP3 ADD SWAP2 SWAP1 PUSH1 0x0 MSTORE PUSH1 0x20 PUSH1 0x0 KECCAK256 SWAP1 JUMPDEST DUP2 SLOAD DUP2 MSTORE SWAP1 PUSH1 0x1 ADD SWAP1 PUSH1 0x20 ADD DUP1 DUP4 GT PUSH2 0xD80 JUMPI DUP3 SWAP1 SUB PUSH1 0x1F AND DUP3 ADD SWAP2 JUMPDEST POP POP POP POP PUSH1 0x2 DUP4 ADD SLOAD PUSH1 0x3 DUP5 ADD SLOAD PUSH1 0x4 DUP6 ADD DUP1 SLOAD SWAP5 SWAP6 PUSH1 0xFF DUP1 DUP6 AND SWAP7 PUSH2 0x100 SWAP1 SWAP6 DIV PUSH1 0x1 PUSH1 0x1 PUSH1 0xA0 SHL SUB SWAP1 DUP2 AND SWAP7 POP DUP5 AND SWAP5 PUSH1 0x1 PUSH1 0xA0 SHL DUP6 DIV DUP3 AND SWAP5 PUSH1 0x1 PUSH1 0xA8 SHL SWAP1 DIV SWAP1 SWAP2 AND SWAP3 SWAP1 PUSH2 0xDEE SWAP1 PUSH2 0x378C JUMP JUMPDEST DUP1 PUSH1 0x1F ADD PUSH1 0x20 DUP1 SWAP2 DIV MUL PUSH1 0x20 ADD PUSH1 0x40 MLOAD SWAP1 DUP2 ADD PUSH1 0x40 MSTORE DUP1 SWAP3 SWAP2 SWAP1 DUP2 DUP2 MSTORE PUSH1 0x20 ADD DUP3 DUP1 SLOAD PUSH2 0xE1A SWAP1 PUSH2 0x378C JUMP JUMPDEST DUP1 ISZERO PUSH2 0xE67 JUMPI DUP1 PUSH1 0x1F LT PUSH2 0xE3C JUMPI PUSH2 0x100 DUP1 DUP4 SLOAD DIV MUL DUP4 MSTORE SWAP2 PUSH1 0x20 ADD SWAP2 PUSH2 0xE67 JUMP JUMPDEST DUP3 ADD SWAP2 SWAP1 PUSH1 0x0 MSTORE PUSH1 0x20 PUSH1 0x0 KECCAK256 SWAP1 JUMPDEST DUP2 SLOAD DUP2 MSTORE SWAP1 PUSH1 0x1 ADD SWAP1 PUSH1 0x20 ADD DUP1 DUP4 GT PUSH2 0xE4A JUMPI DUP3 SWAP1 SUB PUSH1 0x1F AND DUP3 ADD SWAP2 JUMPDEST POP POP POP POP POP SWAP1 POP DUP9 JUMP JUMPDEST PUSH1 0x1 PUSH1 0x1 PUSH1 0xA0 SHL SUB DUP6 AND CALLER EQ DUP1 PUSH2 0xE8D JUMPI POP PUSH2 0xE8D DUP6 CALLER PUSH2 0x5AB JUMP JUMPDEST PUSH2 0xEA9 JUMPI PUSH1 0x40 MLOAD PUSH3 0x461BCD PUSH1 0xE5 SHL DUP2 MSTORE PUSH1 0x4 ADD PUSH2 0x6FE SWAP1 PUSH2 0x38C8 JUMP JUMPDEST PUSH2 0xEB6 DUP6 DUP6 DUP6 DUP6 DUP6 PUSH2 0x1EE6 JUMP JUMPDEST POP POP POP POP POP JUMP JUMPDEST PUSH1 0x0 DUP3 DUP2 MSTORE PUSH1 0x1 PUSH1 0x20 DUP2 SWAP1 MSTORE PUSH1 0x40 SWAP1 SWAP2 KECCAK256 ADD SLOAD PUSH2 0xED9 DUP2 PUSH2 0x2085 JUMP JUMPDEST PUSH2 0xEE3 DUP4 DUP4 PUSH2 0x208F JUMP JUMPDEST POP POP POP JUMP JUMPDEST PUSH1 0x1 PUSH1 0x1 PUSH1 0xA0 SHL SUB DUP2 AND CALLER EQ PUSH2 0xF58 JUMPI PUSH1 0x40 MLOAD PUSH3 0x461BCD PUSH1 0xE5 SHL DUP2 MSTORE PUSH1 0x20 PUSH1 0x4 DUP3 ADD MSTORE PUSH1 0x2F PUSH1 0x24 DUP3 ADD MSTORE PUSH32 0x416363657373436F6E74726F6C3A2063616E206F6E6C792072656E6F756E6365 PUSH1 0x44 DUP3 ADD MSTORE PUSH15 0x103937B632B9903337B91039B2B633 PUSH1 0x89 SHL PUSH1 0x64 DUP3 ADD MSTORE PUSH1 0x84 ADD PUSH2 0x6FE JUMP JUMPDEST PUSH2 0xF62 DUP3 DUP3 PUSH2 0x20FA JUMP JUMPDEST POP POP JUMP JUMPDEST PUSH2 0xF95 PUSH1 0x40 DUP1 MLOAD PUSH1 0xA0 DUP2 ADD DUP3 MSTORE PUSH1 0x60 DUP1 DUP3 MSTORE PUSH1 0x0 PUSH1 0x20 DUP4 ADD DUP2 SWAP1 MSTORE SWAP3 DUP3 ADD DUP4 SWAP1 MSTORE DUP2 ADD DUP3 SWAP1 MSTORE SWAP1 PUSH1 0x80 DUP3 ADD MSTORE SWAP1 JUMP JUMPDEST PUSH1 0xFF DUP3 AND PUSH1 0x0 SWAP1 DUP2 MSTORE PUSH1 0xB PUSH1 0x20 MSTORE PUSH1 0x40 DUP2 KECCAK256 DUP1 SLOAD DUP3 SWAP1 PUSH2 0xFB7 JUMPI PUSH2 0xFB7 PUSH2 0x37C6 JUMP JUMPDEST SWAP1 PUSH1 0x0 MSTORE PUSH1 0x20 PUSH1 0x0 KECCAK256 SWAP1 PUSH1 0x2 MUL ADD SWAP1 POP DUP1 PUSH1 0x40 MLOAD DUP1 PUSH1 0xA0 ADD PUSH1 0x40 MSTORE SWAP1 DUP2 PUSH1 0x0 DUP3 ADD DUP1 SLOAD PUSH2 0xFE3 SWAP1 PUSH2 0x378C JUMP JUMPDEST DUP1 PUSH1 0x1F ADD PUSH1 0x20 DUP1 SWAP2 DIV MUL PUSH1 0x20 ADD PUSH1 0x40 MLOAD SWAP1 DUP2 ADD PUSH1 0x40 MSTORE DUP1 SWAP3 SWAP2 SWAP1 DUP2 DUP2 MSTORE PUSH1 0x20 ADD DUP3 DUP1 SLOAD PUSH2 0x100F SWAP1 PUSH2 0x378C JUMP JUMPDEST DUP1 ISZERO PUSH2 0x105C JUMPI DUP1 PUSH1 0x1F LT PUSH2 0x1031 JUMPI PUSH2 0x100 DUP1 DUP4 SLOAD DIV MUL DUP4 MSTORE SWAP2 PUSH1 0x20 ADD SWAP2 PUSH2 0x105C JUMP JUMPDEST DUP3 ADD SWAP2 SWAP1 PUSH1 0x0 MSTORE PUSH1 0x20 PUSH1 0x0 KECCAK256 SWAP1 JUMPDEST DUP2 SLOAD DUP2 MSTORE SWAP1 PUSH1 0x1 ADD SWAP1 PUSH1 0x20 ADD DUP1 DUP4 GT PUSH2 0x103F JUMPI DUP3 SWAP1 SUB PUSH1 0x1F AND DUP3 ADD SWAP2 JUMPDEST POP POP POP SWAP2 DUP4 MSTORE POP POP PUSH1 0x1 DUP3 DUP2 ADD SLOAD PUSH2 0xFFFF DUP1 DUP3 AND PUSH1 0x20 DUP6 ADD MSTORE PUSH3 0x10000 DUP3 DIV DUP2 AND PUSH1 0x40 DUP6 ADD MSTORE PUSH1 0x1 PUSH1 0x20 SHL DUP3 DIV AND PUSH1 0x60 DUP5 ADD MSTORE PUSH1 0x80 SWAP1 SWAP3 ADD SWAP2 PUSH1 0x1 PUSH1 0x30 SHL SWAP1 DIV PUSH1 0xFF AND SWAP1 DUP2 GT ISZERO PUSH2 0x10AF JUMPI PUSH2 0x10AF PUSH2 0x3099 JUMP JUMPDEST PUSH1 0x1 DUP2 GT ISZERO PUSH2 0x10C0 JUMPI PUSH2 0x10C0 PUSH2 0x3099 JUMP JUMPDEST SWAP1 MSTORE POP SWAP4 SWAP3 POP POP POP JUMP JUMPDEST PUSH1 0x60 DUP2 MLOAD DUP4 MLOAD EQ PUSH2 0x112F JUMPI PUSH1 0x40 MLOAD PUSH3 0x461BCD PUSH1 0xE5 SHL DUP2 MSTORE PUSH1 0x20 PUSH1 0x4 DUP3 ADD MSTORE PUSH1 0x29 PUSH1 0x24 DUP3 ADD MSTORE PUSH32 0x455243313135353A206163636F756E747320616E6420696473206C656E677468 PUSH1 0x44 DUP3 ADD MSTORE PUSH9 0x40DAD2E6DAC2E8C6D PUSH1 0xBB SHL PUSH1 0x64 DUP3 ADD MSTORE PUSH1 0x84 ADD PUSH2 0x6FE JUMP JUMPDEST PUSH1 0x0 DUP4 MLOAD PUSH1 0x1 PUSH1 0x1 PUSH1 0x40 SHL SUB DUP2 GT ISZERO PUSH2 0x114A JUMPI PUSH2 0x114A PUSH2 0x2D55 JUMP JUMPDEST PUSH1 0x40 MLOAD SWAP1 DUP1 DUP3 MSTORE DUP1 PUSH1 0x20 MUL PUSH1 0x20 ADD DUP3 ADD PUSH1 0x40 MSTORE DUP1 ISZERO PUSH2 0x1173 JUMPI DUP2 PUSH1 0x20 ADD PUSH1 0x20 DUP3 MUL DUP1 CALLDATASIZE DUP4 CALLDATACOPY ADD SWAP1 POP JUMPDEST POP SWAP1 POP PUSH1 0x0 JUMPDEST DUP5 MLOAD DUP2 LT ISZERO PUSH2 0x11EB JUMPI PUSH2 0x11BE DUP6 DUP3 DUP2 MLOAD DUP2 LT PUSH2 0x1197 JUMPI PUSH2 0x1197 PUSH2 0x37C6 JUMP JUMPDEST PUSH1 0x20 MUL PUSH1 0x20 ADD ADD MLOAD DUP6 DUP4 DUP2 MLOAD DUP2 LT PUSH2 0x11B1 JUMPI PUSH2 0x11B1 PUSH2 0x37C6 JUMP JUMPDEST PUSH1 0x20 MUL PUSH1 0x20 ADD ADD MLOAD PUSH2 0x697 JUMP JUMPDEST DUP3 DUP3 DUP2 MLOAD DUP2 LT PUSH2 0x11D0 JUMPI PUSH2 0x11D0 PUSH2 0x37C6 JUMP JUMPDEST PUSH1 0x20 SWAP1 DUP2 MUL SWAP2 SWAP1 SWAP2 ADD ADD MSTORE PUSH2 0x11E4 DUP2 PUSH2 0x3916 JUMP JUMPDEST SWAP1 POP PUSH2 0x1179 JUMP JUMPDEST POP SWAP4 SWAP3 POP POP POP JUMP JUMPDEST PUSH1 0x1 PUSH1 0x1 PUSH1 0xA0 SHL SUB DUP4 AND CALLER EQ DUP1 PUSH2 0x120F JUMPI POP PUSH2 0x120F DUP4 CALLER PUSH2 0x5AB JUMP JUMPDEST PUSH2 0x122B JUMPI PUSH1 0x40 MLOAD PUSH3 0x461BCD PUSH1 0xE5 SHL DUP2 MSTORE PUSH1 0x4 ADD PUSH2 0x6FE SWAP1 PUSH2 0x38C8 JUMP JUMPDEST PUSH2 0xEE3 DUP4 DUP4 DUP4 PUSH2 0x2161 JUMP JUMPDEST PUSH2 0x123E PUSH2 0x1CCB JUMP JUMPDEST PUSH2 0x1248 PUSH1 0x0 PUSH2 0x22EE JUMP JUMPDEST JUMP JUMPDEST PUSH2 0x1279 PUSH1 0x40 DUP1 MLOAD PUSH1 0xA0 DUP2 ADD DUP3 MSTORE PUSH1 0x60 DUP1 DUP3 MSTORE PUSH1 0x0 PUSH1 0x20 DUP4 ADD DUP2 SWAP1 MSTORE SWAP3 DUP3 ADD DUP4 SWAP1 MSTORE DUP2 ADD DUP3 SWAP1 MSTORE SWAP1 PUSH1 0x80 DUP3 ADD MSTORE SWAP1 JUMP JUMPDEST PUSH1 0xFF DUP1 DUP4 AND PUSH1 0x0 SWAP1 DUP2 MSTORE PUSH1 0xD PUSH1 0x20 MSTORE PUSH1 0x40 SWAP1 KECCAK256 DUP1 SLOAD SWAP1 SWAP2 PUSH2 0xFFFF PUSH1 0x1 PUSH1 0x28 SHL DUP4 DIV AND SWAP2 PUSH2 0x12B0 SWAP2 PUSH1 0x1 PUSH1 0x60 SHL SWAP1 SWAP2 DIV AND PUSH1 0x1 PUSH2 0x392F JUMP JUMPDEST PUSH1 0xFF AND GT ISZERO PUSH2 0x12EC JUMPI PUSH1 0x40 MLOAD PUSH3 0x461BCD PUSH1 0xE5 SHL DUP2 MSTORE PUSH1 0x20 PUSH1 0x4 DUP3 ADD MSTORE PUSH1 0x8 PUSH1 0x24 DUP3 ADD MSTORE PUSH8 0x195E18D959591959 PUSH1 0xC2 SHL PUSH1 0x44 DUP3 ADD MSTORE PUSH1 0x64 ADD PUSH2 0x6FE JUMP JUMPDEST DUP4 PUSH1 0x80 ADD MLOAD PUSH1 0x1 DUP2 GT ISZERO PUSH2 0x1302 JUMPI PUSH2 0x1302 PUSH2 0x3099 JUMP JUMPDEST DUP2 SLOAD PUSH1 0x1 PUSH1 0x20 SHL SWAP1 DIV PUSH1 0xFF AND PUSH1 0x1 DUP2 GT ISZERO PUSH2 0x131F JUMPI PUSH2 0x131F PUSH2 0x3099 JUMP JUMPDEST EQ PUSH2 0x1357 JUMPI PUSH1 0x40 MLOAD PUSH3 0x461BCD PUSH1 0xE5 SHL DUP2 MSTORE PUSH1 0x20 PUSH1 0x4 DUP3 ADD MSTORE PUSH1 0x8 PUSH1 0x24 DUP3 ADD MSTORE PUSH8 0x191A59999DDBDBD9 PUSH1 0xC2 SHL PUSH1 0x44 DUP3 ADD MSTORE PUSH1 0x64 ADD PUSH2 0x6FE JUMP JUMPDEST DUP1 SLOAD PUSH1 0x1 PUSH1 0x60 SHL SWAP1 DIV PUSH1 0xFF AND PUSH1 0x0 SUB PUSH2 0x14CD JUMPI PUSH1 0xB PUSH1 0x0 DUP5 PUSH1 0xFF AND PUSH2 0xFFFF AND DUP2 MSTORE PUSH1 0x20 ADD SWAP1 DUP2 MSTORE PUSH1 0x20 ADD PUSH1 0x0 KECCAK256 PUSH1 0x40 MLOAD DUP1 PUSH1 0xA0 ADD PUSH1 0x40 MSTORE DUP1 DUP7 PUSH1 0x0 ADD MLOAD DUP2 MSTORE PUSH1 0x20 ADD DUP7 PUSH1 0x20 ADD MLOAD PUSH2 0xFFFF AND DUP2 MSTORE PUSH1 0x20 ADD DUP7 PUSH1 0x40 ADD MLOAD PUSH2 0xFFFF AND DUP2 MSTORE PUSH1 0x20 ADD DUP7 PUSH1 0x60 ADD MLOAD PUSH2 0xFFFF AND DUP2 MSTORE PUSH1 0x20 ADD DUP7 PUSH1 0x80 ADD MLOAD PUSH1 0x1 DUP2 GT ISZERO PUSH2 0x13D9 JUMPI PUSH2 0x13D9 PUSH2 0x3099 JUMP JUMPDEST SWAP1 MSTORE DUP2 SLOAD PUSH1 0x1 DUP2 ADD DUP4 SSTORE PUSH1 0x0 SWAP3 DUP4 MSTORE PUSH1 0x20 SWAP3 DUP4 SWAP1 KECCAK256 DUP3 MLOAD DUP1 MLOAD SWAP4 SWAP5 PUSH1 0x2 SWAP1 SWAP4 MUL SWAP1 SWAP2 ADD SWAP3 PUSH2 0x140A SWAP3 DUP5 SWAP3 ADD SWAP1 PUSH2 0x2AF6 JUMP JUMPDEST POP PUSH1 0x20 DUP3 ADD MLOAD PUSH1 0x1 DUP1 DUP4 ADD DUP1 SLOAD PUSH1 0x40 DUP7 ADD MLOAD PUSH1 0x60 DUP8 ADD MLOAD PUSH2 0xFFFF SWAP1 DUP2 AND PUSH1 0x1 PUSH1 0x20 SHL MUL PUSH6 0xFFFF00000000 NOT SWAP3 DUP3 AND PUSH3 0x10000 MUL PUSH4 0xFFFFFFFF NOT SWAP1 SWAP5 AND SWAP2 SWAP1 SWAP7 AND OR SWAP2 SWAP1 SWAP2 OR SWAP1 DUP2 AND DUP5 OR DUP3 SSTORE PUSH1 0x80 DUP7 ADD MLOAD SWAP4 SWAP2 SWAP3 PUSH7 0xFF000000000000 NOT SWAP1 SWAP3 AND PUSH7 0xFFFFFF00000000 NOT SWAP1 SWAP2 AND OR SWAP1 PUSH1 0x1 PUSH1 0x30 SHL SWAP1 DUP5 SWAP1 DUP2 GT ISZERO PUSH2 0x148F JUMPI PUSH2 0x148F PUSH2 0x3099 JUMP JUMPDEST MUL OR SWAP1 SSTORE POP POP DUP2 SLOAD PUSH1 0x1 PUSH1 0x60 SHL SWAP1 DIV PUSH1 0xFF AND SWAP1 POP DUP2 PUSH1 0xC PUSH2 0x14AF DUP4 PUSH2 0x38A9 JUMP JUMPDEST SWAP2 SWAP1 PUSH2 0x100 EXP DUP2 SLOAD DUP2 PUSH1 0xFF MUL NOT AND SWAP1 DUP4 PUSH1 0xFF AND MUL OR SWAP1 SSTORE POP POP PUSH2 0x1725 JUMP JUMPDEST PUSH1 0xFF DUP4 AND PUSH1 0x0 SWAP1 DUP2 MSTORE PUSH1 0xB PUSH1 0x20 MSTORE PUSH1 0x40 DUP2 KECCAK256 DUP1 SLOAD DUP3 SWAP1 PUSH2 0x14EF JUMPI PUSH2 0x14EF PUSH2 0x37C6 JUMP JUMPDEST SWAP1 PUSH1 0x0 MSTORE PUSH1 0x20 PUSH1 0x0 KECCAK256 SWAP1 PUSH1 0x2 MUL ADD SWAP1 POP DUP1 PUSH1 0x1 ADD PUSH1 0x6 SWAP1 SLOAD SWAP1 PUSH2 0x100 EXP SWAP1 DIV PUSH1 0xFF AND PUSH1 0x1 DUP2 GT ISZERO PUSH2 0x1522 JUMPI PUSH2 0x1522 PUSH2 0x3099 JUMP JUMPDEST DUP6 PUSH1 0x80 ADD MLOAD PUSH1 0x1 DUP2 GT ISZERO PUSH2 0x1538 JUMPI PUSH2 0x1538 PUSH2 0x3099 JUMP JUMPDEST EQ PUSH2 0x1576 JUMPI PUSH1 0x40 MLOAD PUSH3 0x461BCD PUSH1 0xE5 SHL DUP2 MSTORE PUSH1 0x20 PUSH1 0x4 DUP3 ADD MSTORE PUSH1 0xE PUSH1 0x24 DUP3 ADD MSTORE PUSH14 0x3BB7B7B2103A3CB832903730B4B3 PUSH1 0x91 SHL PUSH1 0x44 DUP3 ADD MSTORE PUSH1 0x64 ADD PUSH2 0x6FE JUMP JUMPDEST PUSH1 0x1 DUP2 ADD SLOAD PUSH1 0x20 DUP7 ADD MLOAD PUSH2 0xFFFF SWAP1 DUP2 AND SWAP2 AND EQ PUSH2 0x15C5 JUMPI PUSH1 0x40 MLOAD PUSH3 0x461BCD PUSH1 0xE5 SHL DUP2 MSTORE PUSH1 0x20 PUSH1 0x4 DUP3 ADD MSTORE PUSH1 0xD PUSH1 0x24 DUP3 ADD MSTORE PUSH13 0x383637BA1030B3B2903730B4B3 PUSH1 0x99 SHL PUSH1 0x44 DUP3 ADD MSTORE PUSH1 0x64 ADD PUSH2 0x6FE JUMP JUMPDEST PUSH1 0xB PUSH1 0x0 DUP6 PUSH1 0xFF AND PUSH2 0xFFFF AND DUP2 MSTORE PUSH1 0x20 ADD SWAP1 DUP2 MSTORE PUSH1 0x20 ADD PUSH1 0x0 KECCAK256 PUSH1 0x40 MLOAD DUP1 PUSH1 0xA0 ADD PUSH1 0x40 MSTORE DUP1 DUP8 PUSH1 0x0 ADD MLOAD DUP2 MSTORE PUSH1 0x20 ADD DUP8 PUSH1 0x20 ADD MLOAD PUSH2 0xFFFF AND DUP2 MSTORE PUSH1 0x20 ADD DUP8 PUSH1 0x40 ADD MLOAD PUSH2 0xFFFF AND DUP2 MSTORE PUSH1 0x20 ADD DUP8 PUSH1 0x60 ADD MLOAD PUSH2 0xFFFF AND DUP2 MSTORE PUSH1 0x20 ADD DUP8 PUSH1 0x80 ADD MLOAD PUSH1 0x1 DUP2 GT ISZERO PUSH2 0x1634 JUMPI PUSH2 0x1634 PUSH2 0x3099 JUMP JUMPDEST SWAP1 MSTORE DUP2 SLOAD PUSH1 0x1 DUP2 ADD DUP4 SSTORE PUSH1 0x0 SWAP3 DUP4 MSTORE PUSH1 0x20 SWAP3 DUP4 SWAP1 KECCAK256 DUP3 MLOAD DUP1 MLOAD SWAP4 SWAP5 PUSH1 0x2 SWAP1 SWAP4 MUL SWAP1 SWAP2 ADD SWAP3 PUSH2 0x1665 SWAP3 DUP5 SWAP3 ADD SWAP1 PUSH2 0x2AF6 JUMP JUMPDEST POP PUSH1 0x20 DUP3 ADD MLOAD PUSH1 0x1 DUP1 DUP4 ADD DUP1 SLOAD PUSH1 0x40 DUP7 ADD MLOAD PUSH1 0x60 DUP8 ADD MLOAD PUSH2 0xFFFF SWAP1 DUP2 AND PUSH1 0x1 PUSH1 0x20 SHL MUL PUSH6 0xFFFF00000000 NOT SWAP3 DUP3 AND PUSH3 0x10000 MUL PUSH4 0xFFFFFFFF NOT SWAP1 SWAP5 AND SWAP2 SWAP1 SWAP7 AND OR SWAP2 SWAP1 SWAP2 OR SWAP1 DUP2 AND DUP5 OR DUP3 SSTORE PUSH1 0x80 DUP7 ADD MLOAD SWAP4 SWAP2 SWAP3 PUSH7 0xFF000000000000 NOT SWAP1 SWAP3 AND PUSH7 0xFFFFFF00000000 NOT SWAP1 SWAP2 AND OR SWAP1 PUSH1 0x1 PUSH1 0x30 SHL SWAP1 DUP5 SWAP1 DUP2 GT ISZERO PUSH2 0x16EA JUMPI PUSH2 0x16EA PUSH2 0x3099 JUMP JUMPDEST MUL OR SWAP1 SSTORE POP POP DUP3 SLOAD PUSH1 0x1 PUSH1 0x60 SHL SWAP1 DIV PUSH1 0xFF AND SWAP1 POP DUP3 PUSH1 0xC PUSH2 0x170A DUP4 PUSH2 0x38A9 JUMP JUMPDEST SWAP2 SWAP1 PUSH2 0x100 EXP DUP2 SLOAD DUP2 PUSH1 0xFF MUL NOT AND SWAP1 DUP4 PUSH1 0xFF AND MUL OR SWAP1 SSTORE POP POP POP JUMPDEST POP SWAP3 SWAP2 POP POP JUMP JUMPDEST PUSH1 0x0 SWAP2 DUP3 MSTORE PUSH1 0x1 PUSH1 0x20 SWAP1 DUP2 MSTORE PUSH1 0x40 DUP1 DUP5 KECCAK256 PUSH1 0x1 PUSH1 0x1 PUSH1 0xA0 SHL SUB SWAP4 SWAP1 SWAP4 AND DUP5 MSTORE SWAP2 SWAP1 MSTORE SWAP1 KECCAK256 SLOAD PUSH1 0xFF AND SWAP1 JUMP JUMPDEST PUSH32 0x0 PUSH2 0x1781 DUP2 PUSH2 0x2085 JUMP JUMPDEST PUSH1 0xA DUP1 SLOAD PUSH1 0x0 SWAP2 PUSH1 0xFF SWAP1 SWAP2 AND SWAP1 DUP3 PUSH2 0x1798 DUP4 PUSH2 0x38A9 JUMP JUMPDEST SWAP2 SWAP1 PUSH2 0x100 EXP DUP2 SLOAD DUP2 PUSH1 0xFF MUL NOT AND SWAP1 DUP4 PUSH1 0xFF AND MUL OR SWAP1 SSTORE POP SWAP1 POP PUSH2 0x183F DUP8 DUP8 DUP8 DUP1 DUP1 PUSH1 0x20 MUL PUSH1 0x20 ADD PUSH1 0x40 MLOAD SWAP1 DUP2 ADD PUSH1 0x40 MSTORE DUP1 SWAP4 SWAP3 SWAP2 SWAP1 DUP2 DUP2 MSTORE PUSH1 0x20 ADD DUP4 DUP4 PUSH1 0x20 MUL DUP1 DUP3 DUP5 CALLDATACOPY PUSH1 0x0 SWAP3 ADD SWAP2 SWAP1 SWAP2 MSTORE POP POP PUSH1 0x40 DUP1 MLOAD PUSH1 0x20 DUP1 DUP12 MUL DUP3 DUP2 ADD DUP3 ADD SWAP1 SWAP4 MSTORE DUP11 DUP3 MSTORE SWAP1 SWAP4 POP DUP11 SWAP3 POP DUP10 SWAP2 DUP3 SWAP2 DUP6 ADD SWAP1 DUP5 SWAP1 DUP1 DUP3 DUP5 CALLDATACOPY PUSH1 0x0 SWAP3 ADD SWAP2 SWAP1 SWAP2 MSTORE POP POP PUSH1 0x40 DUP1 MLOAD DUP1 DUP3 ADD SWAP1 SWAP2 MSTORE PUSH1 0x7 DUP2 MSTORE PUSH7 0x6D696E74696E67 PUSH1 0xC8 SHL PUSH1 0x20 DUP3 ADD MSTORE SWAP2 POP PUSH2 0x1D25 SWAP1 POP JUMP JUMPDEST PUSH2 0x184B DUP8 CALLER PUSH1 0x1 PUSH2 0x1EAB JUMP JUMPDEST POP POP POP POP POP POP POP JUMP JUMPDEST PUSH2 0xF62 CALLER DUP4 DUP4 PUSH2 0x233E JUMP JUMPDEST PUSH1 0x7 DUP1 SLOAD PUSH2 0x186C SWAP1 PUSH2 0x378C JUMP JUMPDEST DUP1 PUSH1 0x1F ADD PUSH1 0x20 DUP1 SWAP2 DIV MUL PUSH1 0x20 ADD PUSH1 0x40 MLOAD SWAP1 DUP2 ADD PUSH1 0x40 MSTORE DUP1 SWAP3 SWAP2 SWAP1 DUP2 DUP2 MSTORE PUSH1 0x20 ADD DUP3 DUP1 SLOAD PUSH2 0x1898 SWAP1 PUSH2 0x378C JUMP JUMPDEST DUP1 ISZERO PUSH2 0x18E5 JUMPI DUP1 PUSH1 0x1F LT PUSH2 0x18BA JUMPI PUSH2 0x100 DUP1 DUP4 SLOAD DIV MUL DUP4 MSTORE SWAP2 PUSH1 0x20 ADD SWAP2 PUSH2 0x18E5 JUMP JUMPDEST DUP3 ADD SWAP2 SWAP1 PUSH1 0x0 MSTORE PUSH1 0x20 PUSH1 0x0 KECCAK256 SWAP1 JUMPDEST DUP2 SLOAD DUP2 MSTORE SWAP1 PUSH1 0x1 ADD SWAP1 PUSH1 0x20 ADD DUP1 DUP4 GT PUSH2 0x18C8 JUMPI DUP3 SWAP1 SUB PUSH1 0x1F AND DUP3 ADD SWAP2 JUMPDEST POP POP POP POP POP DUP2 JUMP JUMPDEST PUSH1 0xFF DUP2 AND PUSH1 0x0 SWAP1 DUP2 MSTORE PUSH1 0xD PUSH1 0x20 MSTORE PUSH1 0x40 SWAP1 KECCAK256 DUP1 SLOAD PUSH4 0xFFFFFFFF PUSH1 0x1 PUSH1 0x38 SHL SWAP1 SWAP2 DIV DUP2 AND SWAP1 DUP5 AND GT ISZERO PUSH2 0x1975 JUMPI PUSH1 0x40 MLOAD PUSH3 0x461BCD PUSH1 0xE5 SHL DUP2 MSTORE PUSH1 0x20 PUSH1 0x4 DUP3 ADD MSTORE PUSH1 0x2B PUSH1 0x24 DUP3 ADD MSTORE PUSH32 0x666C6F72657374206E6F7420616C6C6F77656420746F20746F6B656E697A6520 PUSH1 0x44 DUP3 ADD MSTORE PUSH11 0x1D1A1A5CC8185B5BDD5B9D PUSH1 0xAA SHL PUSH1 0x64 DUP3 ADD MSTORE PUSH1 0x84 ADD PUSH2 0x6FE JUMP JUMPDEST DUP1 SLOAD PUSH4 0xFFFFFFFF NOT AND PUSH4 0xFFFFFFFF SWAP4 SWAP1 SWAP4 AND SWAP3 SWAP1 SWAP3 OR SWAP1 SWAP2 SSTORE POP POP JUMP JUMPDEST PUSH1 0x0 DUP3 DUP2 MSTORE PUSH1 0x1 PUSH1 0x20 DUP2 SWAP1 MSTORE PUSH1 0x40 SWAP1 SWAP2 KECCAK256 ADD SLOAD PUSH2 0x19AE DUP2 PUSH2 0x2085 JUMP JUMPDEST PUSH2 0xEE3 DUP4 DUP4 PUSH2 0x20FA JUMP JUMPDEST PUSH32 0x0 PUSH2 0x19E2 DUP2 PUSH2 0x2085 JUMP JUMPDEST POP PUSH1 0xA DUP1 SLOAD PUSH2 0xFFFF SWAP1 SWAP3 AND PUSH3 0x10000 MUL PUSH4 0xFFFF0000 NOT SWAP1 SWAP3 AND SWAP2 SWAP1 SWAP2 OR SWAP1 SSTORE JUMP JUMPDEST PUSH1 0x6 DUP1 SLOAD PUSH2 0x186C SWAP1 PUSH2 0x378C JUMP JUMPDEST PUSH1 0x1 PUSH1 0x1 PUSH1 0xA0 SHL SUB DUP6 AND CALLER EQ DUP1 PUSH2 0x1A2C JUMPI POP PUSH2 0x1A2C DUP6 CALLER PUSH2 0x5AB JUMP JUMPDEST PUSH2 0x1A48 JUMPI PUSH1 0x40 MLOAD PUSH3 0x461BCD PUSH1 0xE5 SHL DUP2 MSTORE PUSH1 0x4 ADD PUSH2 0x6FE SWAP1 PUSH2 0x38C8 JUMP JUMPDEST PUSH2 0xEB6 DUP6 DUP6 DUP6 DUP6 DUP6 PUSH2 0x241E JUMP JUMPDEST PUSH2 0x1A5D PUSH2 0x1CCB JUMP JUMPDEST PUSH1 0x1 PUSH1 0x1 PUSH1 0xA0 SHL SUB DUP2 AND PUSH2 0x1AC2 JUMPI PUSH1 0x40 MLOAD PUSH3 0x461BCD PUSH1 0xE5 SHL DUP2 MSTORE PUSH1 0x20 PUSH1 0x4 DUP3 ADD MSTORE PUSH1 0x26 PUSH1 0x24 DUP3 ADD MSTORE PUSH32 0x4F776E61626C653A206E6577206F776E657220697320746865207A65726F2061 PUSH1 0x44 DUP3 ADD MSTORE PUSH6 0x646472657373 PUSH1 0xD0 SHL PUSH1 0x64 DUP3 ADD MSTORE PUSH1 0x84 ADD PUSH2 0x6FE JUMP JUMPDEST PUSH2 0x1ACB DUP2 PUSH2 0x22EE JUMP JUMPDEST POP JUMP JUMPDEST PUSH1 0x1 PUSH1 0x1 PUSH1 0xA0 SHL SUB DUP4 AND CALLER EQ DUP1 PUSH2 0x1AEA JUMPI POP PUSH2 0x1AEA DUP4 CALLER PUSH2 0x5AB JUMP JUMPDEST PUSH2 0x1B06 JUMPI PUSH1 0x40 MLOAD PUSH3 0x461BCD PUSH1 0xE5 SHL DUP2 MSTORE PUSH1 0x4 ADD PUSH2 0x6FE SWAP1 PUSH2 0x38C8 JUMP JUMPDEST PUSH2 0xEE3 DUP4 DUP4 DUP4 PUSH2 0x254C JUMP JUMPDEST PUSH2 0x1B40 PUSH1 0x40 DUP1 MLOAD PUSH1 0xA0 DUP2 ADD DUP3 MSTORE PUSH1 0x60 DUP1 DUP3 MSTORE PUSH1 0x0 PUSH1 0x20 DUP4 ADD DUP2 SWAP1 MSTORE SWAP3 DUP3 ADD DUP4 SWAP1 MSTORE DUP2 ADD DUP3 SWAP1 MSTORE SWAP1 PUSH1 0x80 DUP3 ADD MSTORE SWAP1 JUMP JUMPDEST PUSH1 0xFF DUP4 AND PUSH1 0x0 SWAP1 DUP2 MSTORE PUSH1 0xB PUSH1 0x20 MSTORE PUSH1 0x40 DUP2 KECCAK256 DUP1 SLOAD PUSH2 0xFFFF DUP6 AND SWAP1 DUP2 LT PUSH2 0x1B68 JUMPI PUSH2 0x1B68 PUSH2 0x37C6 JUMP JUMPDEST SWAP1 PUSH1 0x0 MSTORE PUSH1 0x20 PUSH1 0x0 KECCAK256 SWAP1 PUSH1 0x2 MUL ADD SWAP1 POP DUP1 PUSH1 0x40 MLOAD DUP1 PUSH1 0xA0 ADD PUSH1 0x40 MSTORE SWAP1 DUP2 PUSH1 0x0 DUP3 ADD DUP1 SLOAD PUSH2 0x1B94 SWAP1 PUSH2 0x378C JUMP JUMPDEST DUP1 PUSH1 0x1F ADD PUSH1 0x20 DUP1 SWAP2 DIV MUL PUSH1 0x20 ADD PUSH1 0x40 MLOAD SWAP1 DUP2 ADD PUSH1 0x40 MSTORE DUP1 SWAP3 SWAP2 SWAP1 DUP2 DUP2 MSTORE PUSH1 0x20 ADD DUP3 DUP1 SLOAD PUSH2 0x1BC0 SWAP1 PUSH2 0x378C JUMP JUMPDEST DUP1 ISZERO PUSH2 0x1C0D JUMPI DUP1 PUSH1 0x1F LT PUSH2 0x1BE2 JUMPI PUSH2 0x100 DUP1 DUP4 SLOAD DIV MUL DUP4 MSTORE SWAP2 PUSH1 0x20 ADD SWAP2 PUSH2 0x1C0D JUMP JUMPDEST DUP3 ADD SWAP2 SWAP1 PUSH1 0x0 MSTORE PUSH1 0x20 PUSH1 0x0 KECCAK256 SWAP1 JUMPDEST DUP2 SLOAD DUP2 MSTORE SWAP1 PUSH1 0x1 ADD SWAP1 PUSH1 0x20 ADD DUP1 DUP4 GT PUSH2 0x1BF0 JUMPI DUP3 SWAP1 SUB PUSH1 0x1F AND DUP3 ADD SWAP2 JUMPDEST POP POP POP SWAP2 DUP4 MSTORE POP POP PUSH1 0x1 DUP3 DUP2 ADD SLOAD PUSH2 0xFFFF DUP1 DUP3 AND PUSH1 0x20 DUP6 ADD MSTORE PUSH3 0x10000 DUP3 DIV DUP2 AND PUSH1 0x40 DUP6 ADD MSTORE PUSH1 0x1 PUSH1 0x20 SHL DUP3 DIV AND PUSH1 0x60 DUP5 ADD MSTORE PUSH1 0x80 SWAP1 SWAP3 ADD SWAP2 PUSH1 0x1 PUSH1 0x30 SHL SWAP1 DIV PUSH1 0xFF AND SWAP1 DUP2 GT ISZERO PUSH2 0x1C60 JUMPI PUSH2 0x1C60 PUSH2 0x3099 JUMP JUMPDEST PUSH1 0x1 DUP2 GT ISZERO PUSH2 0x1C71 JUMPI PUSH2 0x1C71 PUSH2 0x3099 JUMP JUMPDEST SWAP1 MSTORE POP SWAP5 SWAP4 POP POP POP POP JUMP JUMPDEST PUSH1 0x1 PUSH1 0x1 PUSH1 0xA0 SHL SUB AND EXTCODESIZE ISZERO ISZERO SWAP1 JUMP JUMPDEST PUSH1 0x0 PUSH1 0x1 PUSH1 0x1 PUSH1 0xE0 SHL SUB NOT DUP3 AND PUSH4 0x6CDB3D13 PUSH1 0xE1 SHL EQ DUP1 PUSH2 0x1CBC JUMPI POP PUSH1 0x1 PUSH1 0x1 PUSH1 0xE0 SHL SUB NOT DUP3 AND PUSH4 0x3A24D07 PUSH1 0xE2 SHL EQ JUMPDEST DUP1 PUSH2 0x73A JUMPI POP PUSH2 0x73A DUP3 PUSH2 0x2653 JUMP JUMPDEST PUSH1 0x0 SLOAD PUSH1 0x1 PUSH1 0x1 PUSH1 0xA0 SHL SUB AND CALLER EQ PUSH2 0x1248 JUMPI PUSH1 0x40 MLOAD PUSH3 0x461BCD PUSH1 0xE5 SHL DUP2 MSTORE PUSH1 0x20 PUSH1 0x4 DUP3 ADD DUP2 SWAP1 MSTORE PUSH1 0x24 DUP3 ADD MSTORE PUSH32 0x4F776E61626C653A2063616C6C6572206973206E6F7420746865206F776E6572 PUSH1 0x44 DUP3 ADD MSTORE PUSH1 0x64 ADD PUSH2 0x6FE JUMP JUMPDEST PUSH1 0x1 PUSH1 0x1 PUSH1 0xA0 SHL SUB DUP5 AND PUSH2 0x1D85 JUMPI PUSH1 0x40 MLOAD PUSH3 0x461BCD PUSH1 0xE5 SHL DUP2 MSTORE PUSH1 0x20 PUSH1 0x4 DUP3 ADD MSTORE PUSH1 0x21 PUSH1 0x24 DUP3 ADD MSTORE PUSH32 0x455243313135353A206D696E7420746F20746865207A65726F20616464726573 PUSH1 0x44 DUP3 ADD MSTORE PUSH1 0x73 PUSH1 0xF8 SHL PUSH1 0x64 DUP3 ADD MSTORE PUSH1 0x84 ADD PUSH2 0x6FE JUMP JUMPDEST DUP2 MLOAD DUP4 MLOAD EQ PUSH2 0x1DA6 JUMPI PUSH1 0x40 MLOAD PUSH3 0x461BCD PUSH1 0xE5 SHL DUP2 MSTORE PUSH1 0x4 ADD PUSH2 0x6FE SWAP1 PUSH2 0x3954 JUMP JUMPDEST CALLER PUSH1 0x0 JUMPDEST DUP5 MLOAD DUP2 LT ISZERO PUSH2 0x1E43 JUMPI DUP4 DUP2 DUP2 MLOAD DUP2 LT PUSH2 0x1DC5 JUMPI PUSH2 0x1DC5 PUSH2 0x37C6 JUMP JUMPDEST PUSH1 0x20 MUL PUSH1 0x20 ADD ADD MLOAD PUSH1 0x2 PUSH1 0x0 DUP8 DUP5 DUP2 MLOAD DUP2 LT PUSH2 0x1DE3 JUMPI PUSH2 0x1DE3 PUSH2 0x37C6 JUMP JUMPDEST PUSH1 0x20 MUL PUSH1 0x20 ADD ADD MLOAD DUP2 MSTORE PUSH1 0x20 ADD SWAP1 DUP2 MSTORE PUSH1 0x20 ADD PUSH1 0x0 KECCAK256 PUSH1 0x0 DUP9 PUSH1 0x1 PUSH1 0x1 PUSH1 0xA0 SHL SUB AND PUSH1 0x1 PUSH1 0x1 PUSH1 0xA0 SHL SUB AND DUP2 MSTORE PUSH1 0x20 ADD SWAP1 DUP2 MSTORE PUSH1 0x20 ADD PUSH1 0x0 KECCAK256 PUSH1 0x0 DUP3 DUP3 SLOAD PUSH2 0x1E2B SWAP2 SWAP1 PUSH2 0x399C JUMP JUMPDEST SWAP1 SWAP2 SSTORE POP DUP2 SWAP1 POP PUSH2 0x1E3B DUP2 PUSH2 0x3916 JUMP JUMPDEST SWAP2 POP POP PUSH2 0x1DAA JUMP JUMPDEST POP DUP5 PUSH1 0x1 PUSH1 0x1 PUSH1 0xA0 SHL SUB AND PUSH1 0x0 PUSH1 0x1 PUSH1 0x1 PUSH1 0xA0 SHL SUB AND DUP3 PUSH1 0x1 PUSH1 0x1 PUSH1 0xA0 SHL SUB AND PUSH32 0x4A39DC06D4C0DBC64B70AF90FD698A233A518AA5D07E595D983B8C0526C8F7FB DUP8 DUP8 PUSH1 0x40 MLOAD PUSH2 0x1E94 SWAP3 SWAP2 SWAP1 PUSH2 0x39B4 JUMP JUMPDEST PUSH1 0x40 MLOAD DUP1 SWAP2 SUB SWAP1 LOG4 PUSH2 0xEB6 DUP2 PUSH1 0x0 DUP8 DUP8 DUP8 DUP8 PUSH2 0x2688 JUMP JUMPDEST PUSH32 0x0 PUSH2 0x1ED5 DUP2 PUSH2 0x2085 JUMP JUMPDEST PUSH2 0x1EE0 DUP5 DUP5 DUP5 PUSH2 0x233E JUMP JUMPDEST POP POP POP POP JUMP JUMPDEST DUP2 MLOAD DUP4 MLOAD EQ PUSH2 0x1F07 JUMPI PUSH1 0x40 MLOAD PUSH3 0x461BCD PUSH1 0xE5 SHL DUP2 MSTORE PUSH1 0x4 ADD PUSH2 0x6FE SWAP1 PUSH2 0x3954 JUMP JUMPDEST PUSH1 0x1 PUSH1 0x1 PUSH1 0xA0 SHL SUB DUP5 AND PUSH2 0x1F2D JUMPI PUSH1 0x40 MLOAD PUSH3 0x461BCD PUSH1 0xE5 SHL DUP2 MSTORE PUSH1 0x4 ADD PUSH2 0x6FE SWAP1 PUSH2 0x39E2 JUMP JUMPDEST CALLER PUSH1 0x0 JUMPDEST DUP5 MLOAD DUP2 LT ISZERO PUSH2 0x2017 JUMPI PUSH1 0x0 DUP6 DUP3 DUP2 MLOAD DUP2 LT PUSH2 0x1F4E JUMPI PUSH2 0x1F4E PUSH2 0x37C6 JUMP JUMPDEST PUSH1 0x20 MUL PUSH1 0x20 ADD ADD MLOAD SWAP1 POP PUSH1 0x0 DUP6 DUP4 DUP2 MLOAD DUP2 LT PUSH2 0x1F6C JUMPI PUSH2 0x1F6C PUSH2 0x37C6 JUMP JUMPDEST PUSH1 0x20 SWAP1 DUP2 MUL SWAP2 SWAP1 SWAP2 ADD DUP2 ADD MLOAD PUSH1 0x0 DUP5 DUP2 MSTORE PUSH1 0x2 DUP4 MSTORE PUSH1 0x40 DUP1 DUP3 KECCAK256 PUSH1 0x1 PUSH1 0x1 PUSH1 0xA0 SHL SUB DUP15 AND DUP4 MSTORE SWAP1 SWAP4 MSTORE SWAP2 SWAP1 SWAP2 KECCAK256 SLOAD SWAP1 SWAP2 POP DUP2 DUP2 LT ISZERO PUSH2 0x1FBD JUMPI PUSH1 0x40 MLOAD PUSH3 0x461BCD PUSH1 0xE5 SHL DUP2 MSTORE PUSH1 0x4 ADD PUSH2 0x6FE SWAP1 PUSH2 0x3A27 JUMP JUMPDEST PUSH1 0x0 DUP4 DUP2 MSTORE PUSH1 0x2 PUSH1 0x20 SWAP1 DUP2 MSTORE PUSH1 0x40 DUP1 DUP4 KECCAK256 PUSH1 0x1 PUSH1 0x1 PUSH1 0xA0 SHL SUB DUP15 DUP2 AND DUP6 MSTORE SWAP3 MSTORE DUP1 DUP4 KECCAK256 DUP6 DUP6 SUB SWAP1 SSTORE SWAP1 DUP12 AND DUP3 MSTORE DUP2 KECCAK256 DUP1 SLOAD DUP5 SWAP3 SWAP1 PUSH2 0x1FFC SWAP1 DUP5 SWAP1 PUSH2 0x399C JUMP JUMPDEST SWAP3 POP POP DUP2 SWAP1 SSTORE POP POP POP POP DUP1 PUSH2 0x2010 SWAP1 PUSH2 0x3916 JUMP JUMPDEST SWAP1 POP PUSH2 0x1F31 JUMP JUMPDEST POP DUP5 PUSH1 0x1 PUSH1 0x1 PUSH1 0xA0 SHL SUB AND DUP7 PUSH1 0x1 PUSH1 0x1 PUSH1 0xA0 SHL SUB AND DUP3 PUSH1 0x1 PUSH1 0x1 PUSH1 0xA0 SHL SUB AND PUSH32 0x4A39DC06D4C0DBC64B70AF90FD698A233A518AA5D07E595D983B8C0526C8F7FB DUP8 DUP8 PUSH1 0x40 MLOAD PUSH2 0x2067 SWAP3 SWAP2 SWAP1 PUSH2 0x39B4 JUMP JUMPDEST PUSH1 0x40 MLOAD DUP1 SWAP2 SUB SWAP1 LOG4 PUSH2 0x207D DUP2 DUP8 DUP8 DUP8 DUP8 DUP8 PUSH2 0x2688 JUMP JUMPDEST POP POP POP POP POP POP JUMP JUMPDEST PUSH2 0x1ACB DUP2 CALLER PUSH2 0x27E3 JUMP JUMPDEST PUSH2 0x2099 DUP3 DUP3 PUSH2 0x172C JUMP JUMPDEST PUSH2 0xF62 JUMPI PUSH1 0x0 DUP3 DUP2 MSTORE PUSH1 0x1 PUSH1 0x20 DUP2 DUP2 MSTORE PUSH1 0x40 DUP1 DUP5 KECCAK256 PUSH1 0x1 PUSH1 0x1 PUSH1 0xA0 SHL SUB DUP7 AND DUP1 DUP7 MSTORE SWAP3 MSTORE DUP1 DUP5 KECCAK256 DUP1 SLOAD PUSH1 0xFF NOT AND SWAP1 SWAP4 OR SWAP1 SWAP3 SSTORE SWAP1 MLOAD CALLER SWAP3 DUP6 SWAP2 PUSH32 0x2F8788117E7EFF1D82E926EC794901D17C78024A50270940304540A733656F0D SWAP2 SWAP1 LOG4 POP POP JUMP JUMPDEST PUSH2 0x2104 DUP3 DUP3 PUSH2 0x172C JUMP JUMPDEST ISZERO PUSH2 0xF62 JUMPI PUSH1 0x0 DUP3 DUP2 MSTORE PUSH1 0x1 PUSH1 0x20 SWAP1 DUP2 MSTORE PUSH1 0x40 DUP1 DUP4 KECCAK256 PUSH1 0x1 PUSH1 0x1 PUSH1 0xA0 SHL SUB DUP6 AND DUP1 DUP6 MSTORE SWAP3 MSTORE DUP1 DUP4 KECCAK256 DUP1 SLOAD PUSH1 0xFF NOT AND SWAP1 SSTORE MLOAD CALLER SWAP3 DUP6 SWAP2 PUSH32 0xF6391F5C32D9C69D2A47EA670B442974B53935D1EDC7FD64EB21E047A839171B SWAP2 SWAP1 LOG4 POP POP JUMP JUMPDEST PUSH1 0x1 PUSH1 0x1 PUSH1 0xA0 SHL SUB DUP4 AND PUSH2 0x2187 JUMPI PUSH1 0x40 MLOAD PUSH3 0x461BCD PUSH1 0xE5 SHL DUP2 MSTORE PUSH1 0x4 ADD PUSH2 0x6FE SWAP1 PUSH2 0x3A71 JUMP JUMPDEST DUP1 MLOAD DUP3 MLOAD EQ PUSH2 0x21A8 JUMPI PUSH1 0x40 MLOAD PUSH3 0x461BCD PUSH1 0xE5 SHL DUP2 MSTORE PUSH1 0x4 ADD PUSH2 0x6FE SWAP1 PUSH2 0x3954 JUMP JUMPDEST PUSH1 0x40 DUP1 MLOAD PUSH1 0x20 DUP2 ADD SWAP1 SWAP2 MSTORE PUSH1 0x0 SWAP1 DUP2 SWAP1 MSTORE CALLER SWAP1 JUMPDEST DUP4 MLOAD DUP2 LT ISZERO PUSH2 0x2281 JUMPI PUSH1 0x0 DUP5 DUP3 DUP2 MLOAD DUP2 LT PUSH2 0x21D9 JUMPI PUSH2 0x21D9 PUSH2 0x37C6 JUMP JUMPDEST PUSH1 0x20 MUL PUSH1 0x20 ADD ADD MLOAD SWAP1 POP PUSH1 0x0 DUP5 DUP4 DUP2 MLOAD DUP2 LT PUSH2 0x21F7 JUMPI PUSH2 0x21F7 PUSH2 0x37C6 JUMP JUMPDEST PUSH1 0x20 SWAP1 DUP2 MUL SWAP2 SWAP1 SWAP2 ADD DUP2 ADD MLOAD PUSH1 0x0 DUP5 DUP2 MSTORE PUSH1 0x2 DUP4 MSTORE PUSH1 0x40 DUP1 DUP3 KECCAK256 PUSH1 0x1 PUSH1 0x1 PUSH1 0xA0 SHL SUB DUP13 AND DUP4 MSTORE SWAP1 SWAP4 MSTORE SWAP2 SWAP1 SWAP2 KECCAK256 SLOAD SWAP1 SWAP2 POP DUP2 DUP2 LT ISZERO PUSH2 0x2248 JUMPI PUSH1 0x40 MLOAD PUSH3 0x461BCD PUSH1 0xE5 SHL DUP2 MSTORE PUSH1 0x4 ADD PUSH2 0x6FE SWAP1 PUSH2 0x3AB4 JUMP JUMPDEST PUSH1 0x0 SWAP3 DUP4 MSTORE PUSH1 0x2 PUSH1 0x20 SWAP1 DUP2 MSTORE PUSH1 0x40 DUP1 DUP6 KECCAK256 PUSH1 0x1 PUSH1 0x1 PUSH1 0xA0 SHL SUB DUP12 AND DUP7 MSTORE SWAP1 SWAP2 MSTORE SWAP1 SWAP3 KECCAK256 SWAP2 SUB SWAP1 SSTORE DUP1 PUSH2 0x2279 DUP2 PUSH2 0x3916 JUMP JUMPDEST SWAP2 POP POP PUSH2 0x21BC JUMP JUMPDEST POP PUSH1 0x0 PUSH1 0x1 PUSH1 0x1 PUSH1 0xA0 SHL SUB AND DUP5 PUSH1 0x1 PUSH1 0x1 PUSH1 0xA0 SHL SUB AND DUP3 PUSH1 0x1 PUSH1 0x1 PUSH1 0xA0 SHL SUB AND PUSH32 0x4A39DC06D4C0DBC64B70AF90FD698A233A518AA5D07E595D983B8C0526C8F7FB DUP7 DUP7 PUSH1 0x40 MLOAD PUSH2 0x22D2 SWAP3 SWAP2 SWAP1 PUSH2 0x39B4 JUMP JUMPDEST PUSH1 0x40 MLOAD DUP1 SWAP2 SUB SWAP1 LOG4 PUSH1 0x40 DUP1 MLOAD PUSH1 0x20 DUP2 ADD SWAP1 SWAP2 MSTORE PUSH1 0x0 SWAP1 MSTORE PUSH2 0x1EE0 JUMP JUMPDEST PUSH1 0x0 DUP1 SLOAD PUSH1 0x1 PUSH1 0x1 PUSH1 0xA0 SHL SUB DUP4 DUP2 AND PUSH1 0x1 PUSH1 0x1 PUSH1 0xA0 SHL SUB NOT DUP4 AND DUP2 OR DUP5 SSTORE PUSH1 0x40 MLOAD SWAP2 SWAP1 SWAP3 AND SWAP3 DUP4 SWAP2 PUSH32 0x8BE0079C531659141344CD1FD0A4F28419497F9722A3DAAFE3B4186F6B6457E0 SWAP2 SWAP1 LOG3 POP POP JUMP JUMPDEST DUP2 PUSH1 0x1 PUSH1 0x1 PUSH1 0xA0 SHL SUB AND DUP4 PUSH1 0x1 PUSH1 0x1 PUSH1 0xA0 SHL SUB AND SUB PUSH2 0x23B1 JUMPI PUSH1 0x40 MLOAD PUSH3 0x461BCD PUSH1 0xE5 SHL DUP2 MSTORE PUSH1 0x20 PUSH1 0x4 DUP3 ADD MSTORE PUSH1 0x29 PUSH1 0x24 DUP3 ADD MSTORE PUSH32 0x455243313135353A2073657474696E6720617070726F76616C20737461747573 PUSH1 0x44 DUP3 ADD MSTORE PUSH9 0x103337B91039B2B633 PUSH1 0xB9 SHL PUSH1 0x64 DUP3 ADD MSTORE PUSH1 0x84 ADD PUSH2 0x6FE JUMP JUMPDEST PUSH1 0x1 PUSH1 0x1 PUSH1 0xA0 SHL SUB DUP4 DUP2 AND PUSH1 0x0 DUP2 DUP2 MSTORE PUSH1 0x3 PUSH1 0x20 SWAP1 DUP2 MSTORE PUSH1 0x40 DUP1 DUP4 KECCAK256 SWAP5 DUP8 AND DUP1 DUP5 MSTORE SWAP5 DUP3 MSTORE SWAP2 DUP3 SWAP1 KECCAK256 DUP1 SLOAD PUSH1 0xFF NOT AND DUP7 ISZERO ISZERO SWAP1 DUP2 OR SWAP1 SWAP2 SSTORE SWAP2 MLOAD SWAP2 DUP3 MSTORE PUSH32 0x17307EAB39AB6107E8899845AD3D59BD9653F200F220920489CA2B5937696C31 SWAP2 ADD PUSH1 0x40 MLOAD DUP1 SWAP2 SUB SWAP1 LOG3 POP POP POP JUMP JUMPDEST PUSH1 0x1 PUSH1 0x1 PUSH1 0xA0 SHL SUB DUP5 AND PUSH2 0x2444 JUMPI PUSH1 0x40 MLOAD PUSH3 0x461BCD PUSH1 0xE5 SHL DUP2 MSTORE PUSH1 0x4 ADD PUSH2 0x6FE SWAP1 PUSH2 0x39E2 JUMP JUMPDEST CALLER PUSH1 0x0 PUSH2 0x2450 DUP6 PUSH2 0x283C JUMP JUMPDEST SWAP1 POP PUSH1 0x0 PUSH2 0x245D DUP6 PUSH2 0x283C JUMP JUMPDEST SWAP1 POP PUSH1 0x0 DUP7 DUP2 MSTORE PUSH1 0x2 PUSH1 0x20 SWAP1 DUP2 MSTORE PUSH1 0x40 DUP1 DUP4 KECCAK256 PUSH1 0x1 PUSH1 0x1 PUSH1 0xA0 SHL SUB DUP13 AND DUP5 MSTORE SWAP1 SWAP2 MSTORE SWAP1 KECCAK256 SLOAD DUP6 DUP2 LT ISZERO PUSH2 0x24A2 JUMPI PUSH1 0x40 MLOAD PUSH3 0x461BCD PUSH1 0xE5 SHL DUP2 MSTORE PUSH1 0x4 ADD PUSH2 0x6FE SWAP1 PUSH2 0x3A27 JUMP JUMPDEST PUSH1 0x0 DUP8 DUP2 MSTORE PUSH1 0x2 PUSH1 0x20 SWAP1 DUP2 MSTORE PUSH1 0x40 DUP1 DUP4 KECCAK256 PUSH1 0x1 PUSH1 0x1 PUSH1 0xA0 SHL SUB DUP14 DUP2 AND DUP6 MSTORE SWAP3 MSTORE DUP1 DUP4 KECCAK256 DUP10 DUP6 SUB SWAP1 SSTORE SWAP1 DUP11 AND DUP3 MSTORE DUP2 KECCAK256 DUP1 SLOAD DUP9 SWAP3 SWAP1 PUSH2 0x24E1 SWAP1 DUP5 SWAP1 PUSH2 0x399C JUMP JUMPDEST SWAP1 SWAP2 SSTORE POP POP PUSH1 0x40 DUP1 MLOAD DUP9 DUP2 MSTORE PUSH1 0x20 DUP2 ADD DUP9 SWAP1 MSTORE PUSH1 0x1 PUSH1 0x1 PUSH1 0xA0 SHL SUB DUP1 DUP12 AND SWAP3 DUP13 DUP3 AND SWAP3 SWAP2 DUP9 AND SWAP2 PUSH32 0xC3D58168C5AE7397731D063D5BBF3D657854427343F4C083240F7AACAA2D0F62 SWAP2 ADD PUSH1 0x40 MLOAD DUP1 SWAP2 SUB SWAP1 LOG4 PUSH2 0x2541 DUP5 DUP11 DUP11 DUP11 DUP11 DUP11 PUSH2 0x2887 JUMP JUMPDEST POP POP POP POP POP POP POP POP POP JUMP JUMPDEST PUSH1 0x1 PUSH1 0x1 PUSH1 0xA0 SHL SUB DUP4 AND PUSH2 0x2572 JUMPI PUSH1 0x40 MLOAD PUSH3 0x461BCD PUSH1 0xE5 SHL DUP2 MSTORE PUSH1 0x4 ADD PUSH2 0x6FE SWAP1 PUSH2 0x3A71 JUMP JUMPDEST CALLER PUSH1 0x0 PUSH2 0x257E DUP5 PUSH2 0x283C JUMP JUMPDEST SWAP1 POP PUSH1 0x0 PUSH2 0x258B DUP5 PUSH2 0x283C JUMP JUMPDEST PUSH1 0x40 DUP1 MLOAD PUSH1 0x20 DUP1 DUP3 ADD DUP4 MSTORE PUSH1 0x0 SWAP2 DUP3 SWAP1 MSTORE DUP9 DUP3 MSTORE PUSH1 0x2 DUP2 MSTORE DUP3 DUP3 KECCAK256 PUSH1 0x1 PUSH1 0x1 PUSH1 0xA0 SHL SUB DUP12 AND DUP4 MSTORE SWAP1 MSTORE KECCAK256 SLOAD SWAP1 SWAP2 POP DUP5 DUP2 LT ISZERO PUSH2 0x25D9 JUMPI PUSH1 0x40 MLOAD PUSH3 0x461BCD PUSH1 0xE5 SHL DUP2 MSTORE PUSH1 0x4 ADD PUSH2 0x6FE SWAP1 PUSH2 0x3AB4 JUMP JUMPDEST PUSH1 0x0 DUP7 DUP2 MSTORE PUSH1 0x2 PUSH1 0x20 SWAP1 DUP2 MSTORE PUSH1 0x40 DUP1 DUP4 KECCAK256 PUSH1 0x1 PUSH1 0x1 PUSH1 0xA0 SHL SUB DUP12 DUP2 AND DUP1 DUP7 MSTORE SWAP2 DUP5 MSTORE DUP3 DUP6 KECCAK256 DUP11 DUP8 SUB SWAP1 SSTORE DUP3 MLOAD DUP12 DUP2 MSTORE SWAP4 DUP5 ADD DUP11 SWAP1 MSTORE SWAP1 SWAP3 SWAP1 DUP9 AND SWAP2 PUSH32 0xC3D58168C5AE7397731D063D5BBF3D657854427343F4C083240F7AACAA2D0F62 SWAP2 ADD PUSH1 0x40 MLOAD DUP1 SWAP2 SUB SWAP1 LOG4 PUSH1 0x40 DUP1 MLOAD PUSH1 0x20 DUP2 ADD SWAP1 SWAP2 MSTORE PUSH1 0x0 SWAP1 MSTORE PUSH2 0x184B JUMP JUMPDEST PUSH1 0x0 PUSH1 0x1 PUSH1 0x1 PUSH1 0xE0 SHL SUB NOT DUP3 AND PUSH4 0x7965DB0B PUSH1 0xE0 SHL EQ DUP1 PUSH2 0x73A JUMPI POP PUSH4 0x1FFC9A7 PUSH1 0xE0 SHL PUSH1 0x1 PUSH1 0x1 PUSH1 0xE0 SHL SUB NOT DUP4 AND EQ PUSH2 0x73A JUMP JUMPDEST PUSH1 0x1 PUSH1 0x1 PUSH1 0xA0 SHL SUB DUP5 AND EXTCODESIZE ISZERO PUSH2 0x207D JUMPI PUSH1 0x40 MLOAD PUSH4 0xBC197C81 PUSH1 0xE0 SHL DUP2 MSTORE PUSH1 0x1 PUSH1 0x1 PUSH1 0xA0 SHL SUB DUP6 AND SWAP1 PUSH4 0xBC197C81 SWAP1 PUSH2 0x26CC SWAP1 DUP10 SWAP1 DUP10 SWAP1 DUP9 SWAP1 DUP9 SWAP1 DUP9 SWAP1 PUSH1 0x4 ADD PUSH2 0x3AF8 JUMP JUMPDEST PUSH1 0x20 PUSH1 0x40 MLOAD DUP1 DUP4 SUB DUP2 PUSH1 0x0 DUP8 GAS CALL SWAP3 POP POP POP DUP1 ISZERO PUSH2 0x2707 JUMPI POP PUSH1 0x40 DUP1 MLOAD PUSH1 0x1F RETURNDATASIZE SWAP1 DUP2 ADD PUSH1 0x1F NOT AND DUP3 ADD SWAP1 SWAP3 MSTORE PUSH2 0x2704 SWAP2 DUP2 ADD SWAP1 PUSH2 0x3B56 JUMP JUMPDEST PUSH1 0x1 JUMPDEST PUSH2 0x27B3 JUMPI PUSH2 0x2713 PUSH2 0x3B73 JUMP JUMPDEST DUP1 PUSH4 0x8C379A0 SUB PUSH2 0x274C JUMPI POP PUSH2 0x2727 PUSH2 0x3B8F JUMP JUMPDEST DUP1 PUSH2 0x2732 JUMPI POP PUSH2 0x274E JUMP JUMPDEST DUP1 PUSH1 0x40 MLOAD PUSH3 0x461BCD PUSH1 0xE5 SHL DUP2 MSTORE PUSH1 0x4 ADD PUSH2 0x6FE SWAP2 SWAP1 PUSH2 0x2CFE JUMP JUMPDEST POP JUMPDEST PUSH1 0x40 MLOAD PUSH3 0x461BCD PUSH1 0xE5 SHL DUP2 MSTORE PUSH1 0x20 PUSH1 0x4 DUP3 ADD MSTORE PUSH1 0x34 PUSH1 0x24 DUP3 ADD MSTORE PUSH32 0x455243313135353A207472616E7366657220746F206E6F6E2D45524331313535 PUSH1 0x44 DUP3 ADD MSTORE PUSH20 0x2932B1B2B4BB32B91034B6B83632B6B2B73A32B9 PUSH1 0x61 SHL PUSH1 0x64 DUP3 ADD MSTORE PUSH1 0x84 ADD PUSH2 0x6FE JUMP JUMPDEST PUSH1 0x1 PUSH1 0x1 PUSH1 0xE0 SHL SUB NOT DUP2 AND PUSH4 0xBC197C81 PUSH1 0xE0 SHL EQ PUSH2 0x184B JUMPI PUSH1 0x40 MLOAD PUSH3 0x461BCD PUSH1 0xE5 SHL DUP2 MSTORE PUSH1 0x4 ADD PUSH2 0x6FE SWAP1 PUSH2 0x3C18 JUMP JUMPDEST PUSH2 0x27ED DUP3 DUP3 PUSH2 0x172C JUMP JUMPDEST PUSH2 0xF62 JUMPI PUSH2 0x27FA DUP2 PUSH2 0x2942 JUMP JUMPDEST PUSH2 0x2805 DUP4 PUSH1 0x20 PUSH2 0x2954 JUMP JUMPDEST PUSH1 0x40 MLOAD PUSH1 0x20 ADD PUSH2 0x2816 SWAP3 SWAP2 SWAP1 PUSH2 0x3C60 JUMP JUMPDEST PUSH1 0x40 DUP1 MLOAD PUSH1 0x1F NOT DUP2 DUP5 SUB ADD DUP2 MSTORE SWAP1 DUP3 SWAP1 MSTORE PUSH3 0x461BCD PUSH1 0xE5 SHL DUP3 MSTORE PUSH2 0x6FE SWAP2 PUSH1 0x4 ADD PUSH2 0x2CFE JUMP JUMPDEST PUSH1 0x40 DUP1 MLOAD PUSH1 0x1 DUP1 DUP3 MSTORE DUP2 DUP4 ADD SWAP1 SWAP3 MSTORE PUSH1 0x60 SWAP2 PUSH1 0x0 SWAP2 SWAP1 PUSH1 0x20 DUP1 DUP4 ADD SWAP1 DUP1 CALLDATASIZE DUP4 CALLDATACOPY ADD SWAP1 POP POP SWAP1 POP DUP3 DUP2 PUSH1 0x0 DUP2 MLOAD DUP2 LT PUSH2 0x2876 JUMPI PUSH2 0x2876 PUSH2 0x37C6 JUMP JUMPDEST PUSH1 0x20 SWAP1 DUP2 MUL SWAP2 SWAP1 SWAP2 ADD ADD MSTORE SWAP3 SWAP2 POP POP JUMP JUMPDEST PUSH1 0x1 PUSH1 0x1 PUSH1 0xA0 SHL SUB DUP5 AND EXTCODESIZE ISZERO PUSH2 0x207D JUMPI PUSH1 0x40 MLOAD PUSH4 0xF23A6E61 PUSH1 0xE0 SHL DUP2 MSTORE PUSH1 0x1 PUSH1 0x1 PUSH1 0xA0 SHL SUB DUP6 AND SWAP1 PUSH4 0xF23A6E61 SWAP1 PUSH2 0x28CB SWAP1 DUP10 SWAP1 DUP10 SWAP1 DUP9 SWAP1 DUP9 SWAP1 DUP9 SWAP1 PUSH1 0x4 ADD PUSH2 0x3CD5 JUMP JUMPDEST PUSH1 0x20 PUSH1 0x40 MLOAD DUP1 DUP4 SUB DUP2 PUSH1 0x0 DUP8 GAS CALL SWAP3 POP POP POP DUP1 ISZERO PUSH2 0x2906 JUMPI POP PUSH1 0x40 DUP1 MLOAD PUSH1 0x1F RETURNDATASIZE SWAP1 DUP2 ADD PUSH1 0x1F NOT AND DUP3 ADD SWAP1 SWAP3 MSTORE PUSH2 0x2903 SWAP2 DUP2 ADD SWAP1 PUSH2 0x3B56 JUMP JUMPDEST PUSH1 0x1 JUMPDEST PUSH2 0x2912 JUMPI PUSH2 0x2713 PUSH2 0x3B73 JUMP JUMPDEST PUSH1 0x1 PUSH1 0x1 PUSH1 0xE0 SHL SUB NOT DUP2 AND PUSH4 0xF23A6E61 PUSH1 0xE0 SHL EQ PUSH2 0x184B JUMPI PUSH1 0x40 MLOAD PUSH3 0x461BCD PUSH1 0xE5 SHL DUP2 MSTORE PUSH1 0x4 ADD PUSH2 0x6FE SWAP1 PUSH2 0x3C18 JUMP JUMPDEST PUSH1 0x60 PUSH2 0x73A PUSH1 0x1 PUSH1 0x1 PUSH1 0xA0 SHL SUB DUP4 AND PUSH1 0x14 JUMPDEST PUSH1 0x60 PUSH1 0x0 PUSH2 0x2963 DUP4 PUSH1 0x2 PUSH2 0x3D1A JUMP JUMPDEST PUSH2 0x296E SWAP1 PUSH1 0x2 PUSH2 0x399C JUMP JUMPDEST PUSH1 0x1 PUSH1 0x1 PUSH1 0x40 SHL SUB DUP2 GT ISZERO PUSH2 0x2985 JUMPI PUSH2 0x2985 PUSH2 0x2D55 JUMP JUMPDEST PUSH1 0x40 MLOAD SWAP1 DUP1 DUP3 MSTORE DUP1 PUSH1 0x1F ADD PUSH1 0x1F NOT AND PUSH1 0x20 ADD DUP3 ADD PUSH1 0x40 MSTORE DUP1 ISZERO PUSH2 0x29AF JUMPI PUSH1 0x20 DUP3 ADD DUP2 DUP1 CALLDATASIZE DUP4 CALLDATACOPY ADD SWAP1 POP JUMPDEST POP SWAP1 POP PUSH1 0x3 PUSH1 0xFC SHL DUP2 PUSH1 0x0 DUP2 MLOAD DUP2 LT PUSH2 0x29CA JUMPI PUSH2 0x29CA PUSH2 0x37C6 JUMP JUMPDEST PUSH1 0x20 ADD ADD SWAP1 PUSH1 0x1 PUSH1 0x1 PUSH1 0xF8 SHL SUB NOT AND SWAP1 DUP2 PUSH1 0x0 BYTE SWAP1 MSTORE8 POP PUSH1 0xF PUSH1 0xFB SHL DUP2 PUSH1 0x1 DUP2 MLOAD DUP2 LT PUSH2 0x29F9 JUMPI PUSH2 0x29F9 PUSH2 0x37C6 JUMP JUMPDEST PUSH1 0x20 ADD ADD SWAP1 PUSH1 0x1 PUSH1 0x1 PUSH1 0xF8 SHL SUB NOT AND SWAP1 DUP2 PUSH1 0x0 BYTE SWAP1 MSTORE8 POP PUSH1 0x0 PUSH2 0x2A1D DUP5 PUSH1 0x2 PUSH2 0x3D1A JUMP JUMPDEST PUSH2 0x2A28 SWAP1 PUSH1 0x1 PUSH2 0x399C JUMP JUMPDEST SWAP1 POP JUMPDEST PUSH1 0x1 DUP2 GT ISZERO PUSH2 0x2AA0 JUMPI PUSH16 0x181899199A1A9B1B9C1CB0B131B232B3 PUSH1 0x81 SHL DUP6 PUSH1 0xF AND PUSH1 0x10 DUP2 LT PUSH2 0x2A5C JUMPI PUSH2 0x2A5C PUSH2 0x37C6 JUMP JUMPDEST BYTE PUSH1 0xF8 SHL DUP3 DUP3 DUP2 MLOAD DUP2 LT PUSH2 0x2A72 JUMPI PUSH2 0x2A72 PUSH2 0x37C6 JUMP JUMPDEST PUSH1 0x20 ADD ADD SWAP1 PUSH1 0x1 PUSH1 0x1 PUSH1 0xF8 SHL SUB NOT AND SWAP1 DUP2 PUSH1 0x0 BYTE SWAP1 MSTORE8 POP PUSH1 0x4 SWAP5 SWAP1 SWAP5 SHR SWAP4 PUSH2 0x2A99 DUP2 PUSH2 0x3D39 JUMP JUMPDEST SWAP1 POP PUSH2 0x2A2B JUMP JUMPDEST POP DUP4 ISZERO PUSH2 0x2AEF JUMPI PUSH1 0x40 MLOAD PUSH3 0x461BCD PUSH1 0xE5 SHL DUP2 MSTORE PUSH1 0x20 PUSH1 0x4 DUP3 ADD DUP2 SWAP1 MSTORE PUSH1 0x24 DUP3 ADD MSTORE PUSH32 0x537472696E67733A20686578206C656E67746820696E73756666696369656E74 PUSH1 0x44 DUP3 ADD MSTORE PUSH1 0x64 ADD PUSH2 0x6FE JUMP JUMPDEST SWAP4 SWAP3 POP POP POP JUMP JUMPDEST DUP3 DUP1 SLOAD PUSH2 0x2B02 SWAP1 PUSH2 0x378C JUMP JUMPDEST SWAP1 PUSH1 0x0 MSTORE PUSH1 0x20 PUSH1 0x0 KECCAK256 SWAP1 PUSH1 0x1F ADD PUSH1 0x20 SWAP1 DIV DUP2 ADD SWAP3 DUP3 PUSH2 0x2B24 JUMPI PUSH1 0x0 DUP6 SSTORE PUSH2 0x2B6A JUMP JUMPDEST DUP3 PUSH1 0x1F LT PUSH2 0x2B3D JUMPI DUP1 MLOAD PUSH1 0xFF NOT AND DUP4 DUP1 ADD OR DUP6 SSTORE PUSH2 0x2B6A JUMP JUMPDEST DUP3 DUP1 ADD PUSH1 0x1 ADD DUP6 SSTORE DUP3 ISZERO PUSH2 0x2B6A JUMPI SWAP2 DUP3 ADD JUMPDEST DUP3 DUP2 GT ISZERO PUSH2 0x2B6A JUMPI DUP3 MLOAD DUP3 SSTORE SWAP2 PUSH1 0x20 ADD SWAP2 SWAP1 PUSH1 0x1 ADD SWAP1 PUSH2 0x2B4F JUMP JUMPDEST POP PUSH2 0x2B76 SWAP3 SWAP2 POP PUSH2 0x2B7A JUMP JUMPDEST POP SWAP1 JUMP JUMPDEST JUMPDEST DUP1 DUP3 GT ISZERO PUSH2 0x2B76 JUMPI PUSH1 0x0 DUP2 SSTORE PUSH1 0x1 ADD PUSH2 0x2B7B JUMP JUMPDEST DUP1 CALLDATALOAD PUSH1 0x1 PUSH1 0x1 PUSH1 0xA0 SHL SUB DUP2 AND DUP2 EQ PUSH2 0x2BA6 JUMPI PUSH1 0x0 DUP1 REVERT JUMPDEST SWAP2 SWAP1 POP JUMP JUMPDEST PUSH1 0x0 DUP1 PUSH1 0x40 DUP4 DUP6 SUB SLT ISZERO PUSH2 0x2BBE JUMPI PUSH1 0x0 DUP1 REVERT JUMPDEST PUSH2 0x2BC7 DUP4 PUSH2 0x2B8F JUMP JUMPDEST SWAP5 PUSH1 0x20 SWAP4 SWAP1 SWAP4 ADD CALLDATALOAD SWAP4 POP POP POP JUMP JUMPDEST PUSH1 0x1 PUSH1 0x1 PUSH1 0xE0 SHL SUB NOT DUP2 AND DUP2 EQ PUSH2 0x1ACB JUMPI PUSH1 0x0 DUP1 REVERT JUMPDEST PUSH1 0x0 PUSH1 0x20 DUP3 DUP5 SUB SLT ISZERO PUSH2 0x2BFD JUMPI PUSH1 0x0 DUP1 REVERT JUMPDEST DUP2 CALLDATALOAD PUSH2 0x2AEF DUP2 PUSH2 0x2BD5 JUMP JUMPDEST DUP1 CALLDATALOAD PUSH2 0xFFFF DUP2 AND DUP2 EQ PUSH2 0x2BA6 JUMPI PUSH1 0x0 DUP1 REVERT JUMPDEST DUP1 CALLDATALOAD PUSH4 0xFFFFFFFF DUP2 AND DUP2 EQ PUSH2 0x2BA6 JUMPI PUSH1 0x0 DUP1 REVERT JUMPDEST PUSH1 0x2 DUP2 LT PUSH2 0x1ACB JUMPI PUSH1 0x0 DUP1 REVERT JUMPDEST DUP1 CALLDATALOAD PUSH2 0x2BA6 DUP2 PUSH2 0x2C2E JUMP JUMPDEST PUSH1 0x0 DUP1 PUSH1 0x0 PUSH1 0x60 DUP5 DUP7 SUB SLT ISZERO PUSH2 0x2C5B JUMPI PUSH1 0x0 DUP1 REVERT JUMPDEST PUSH2 0x2C64 DUP5 PUSH2 0x2C08 JUMP JUMPDEST SWAP3 POP PUSH2 0x2C72 PUSH1 0x20 DUP6 ADD PUSH2 0x2C1A JUMP JUMPDEST SWAP2 POP PUSH1 0x40 DUP5 ADD CALLDATALOAD PUSH2 0x2C82 DUP2 PUSH2 0x2C2E JUMP JUMPDEST DUP1 SWAP2 POP POP SWAP3 POP SWAP3 POP SWAP3 JUMP JUMPDEST PUSH1 0x0 PUSH1 0x20 DUP3 DUP5 SUB SLT ISZERO PUSH2 0x2C9F JUMPI PUSH1 0x0 DUP1 REVERT JUMPDEST POP CALLDATALOAD SWAP2 SWAP1 POP JUMP JUMPDEST PUSH1 0x0 JUMPDEST DUP4 DUP2 LT ISZERO PUSH2 0x2CC1 JUMPI DUP2 DUP2 ADD MLOAD DUP4 DUP3 ADD MSTORE PUSH1 0x20 ADD PUSH2 0x2CA9 JUMP JUMPDEST DUP4 DUP2 GT ISZERO PUSH2 0x1EE0 JUMPI POP POP PUSH1 0x0 SWAP2 ADD MSTORE JUMP JUMPDEST PUSH1 0x0 DUP2 MLOAD DUP1 DUP5 MSTORE PUSH2 0x2CEA DUP2 PUSH1 0x20 DUP7 ADD PUSH1 0x20 DUP7 ADD PUSH2 0x2CA6 JUMP JUMPDEST PUSH1 0x1F ADD PUSH1 0x1F NOT AND SWAP3 SWAP1 SWAP3 ADD PUSH1 0x20 ADD SWAP3 SWAP2 POP POP JUMP JUMPDEST PUSH1 0x20 DUP2 MSTORE PUSH1 0x0 PUSH2 0x2AEF PUSH1 0x20 DUP4 ADD DUP5 PUSH2 0x2CD2 JUMP JUMPDEST DUP1 CALLDATALOAD PUSH1 0xFF DUP2 AND DUP2 EQ PUSH2 0x2BA6 JUMPI PUSH1 0x0 DUP1 REVERT JUMPDEST PUSH1 0x0 DUP1 PUSH1 0x40 DUP4 DUP6 SUB SLT ISZERO PUSH2 0x2D35 JUMPI PUSH1 0x0 DUP1 REVERT JUMPDEST PUSH2 0x2D3E DUP4 PUSH2 0x2D11 JUMP JUMPDEST SWAP2 POP PUSH2 0x2D4C PUSH1 0x20 DUP5 ADD PUSH2 0x2C08 JUMP JUMPDEST SWAP1 POP SWAP3 POP SWAP3 SWAP1 POP JUMP JUMPDEST PUSH4 0x4E487B71 PUSH1 0xE0 SHL PUSH1 0x0 MSTORE PUSH1 0x41 PUSH1 0x4 MSTORE PUSH1 0x24 PUSH1 0x0 REVERT JUMPDEST PUSH1 0xA0 DUP2 ADD DUP2 DUP2 LT PUSH1 0x1 PUSH1 0x1 PUSH1 0x40 SHL SUB DUP3 GT OR ISZERO PUSH2 0x2D8A JUMPI PUSH2 0x2D8A PUSH2 0x2D55 JUMP JUMPDEST PUSH1 0x40 MSTORE POP JUMP JUMPDEST PUSH1 0x1F DUP3 ADD PUSH1 0x1F NOT AND DUP2 ADD PUSH1 0x1 PUSH1 0x1 PUSH1 0x40 SHL SUB DUP2 GT DUP3 DUP3 LT OR ISZERO PUSH2 0x2DB5 JUMPI PUSH2 0x2DB5 PUSH2 0x2D55 JUMP JUMPDEST PUSH1 0x40 MSTORE POP POP JUMP JUMPDEST PUSH1 0x40 MLOAD PUSH2 0x100 DUP2 ADD PUSH1 0x1 PUSH1 0x1 PUSH1 0x40 SHL SUB DUP2 GT DUP3 DUP3 LT OR ISZERO PUSH2 0x2DDF JUMPI PUSH2 0x2DDF PUSH2 0x2D55 JUMP JUMPDEST PUSH1 0x40 MSTORE SWAP1 JUMP JUMPDEST PUSH1 0x0 DUP3 PUSH1 0x1F DUP4 ADD SLT PUSH2 0x2DF6 JUMPI PUSH1 0x0 DUP1 REVERT JUMPDEST DUP2 CALLDATALOAD PUSH1 0x1 PUSH1 0x1 PUSH1 0x40 SHL SUB DUP2 GT ISZERO PUSH2 0x2E0F JUMPI PUSH2 0x2E0F PUSH2 0x2D55 JUMP JUMPDEST PUSH1 0x40 MLOAD PUSH2 0x2E26 PUSH1 0x1F DUP4 ADD PUSH1 0x1F NOT AND PUSH1 0x20 ADD DUP3 PUSH2 0x2D90 JUMP JUMPDEST DUP2 DUP2 MSTORE DUP5 PUSH1 0x20 DUP4 DUP7 ADD ADD GT ISZERO PUSH2 0x2E3B JUMPI PUSH1 0x0 DUP1 REVERT JUMPDEST DUP2 PUSH1 0x20 DUP6 ADD PUSH1 0x20 DUP4 ADD CALLDATACOPY PUSH1 0x0 SWAP2 DUP2 ADD PUSH1 0x20 ADD SWAP2 SWAP1 SWAP2 MSTORE SWAP4 SWAP3 POP POP POP JUMP JUMPDEST DUP1 CALLDATALOAD DUP1 ISZERO ISZERO DUP2 EQ PUSH2 0x2BA6 JUMPI PUSH1 0x0 DUP1 REVERT JUMPDEST PUSH1 0x0 PUSH2 0x100 DUP3 DUP5 SUB SLT ISZERO PUSH2 0x2E7B JUMPI PUSH1 0x0 DUP1 REVERT JUMPDEST PUSH2 0x2E83 PUSH2 0x2DBC JUMP JUMPDEST SWAP1 POP DUP2 CALLDATALOAD PUSH1 0x1 PUSH1 0x1 PUSH1 0x40 SHL SUB DUP1 DUP3 GT ISZERO PUSH2 0x2E9C JUMPI PUSH1 0x0 DUP1 REVERT JUMPDEST PUSH2 0x2EA8 DUP6 DUP4 DUP7 ADD PUSH2 0x2DE5 JUMP JUMPDEST DUP4 MSTORE PUSH1 0x20 DUP5 ADD CALLDATALOAD SWAP2 POP DUP1 DUP3 GT ISZERO PUSH2 0x2EBE JUMPI PUSH1 0x0 DUP1 REVERT JUMPDEST PUSH2 0x2ECA DUP6 DUP4 DUP7 ADD PUSH2 0x2DE5 JUMP JUMPDEST PUSH1 0x20 DUP5 ADD MSTORE PUSH2 0x2EDB PUSH1 0x40 DUP6 ADD PUSH2 0x2C3B JUMP JUMPDEST PUSH1 0x40 DUP5 ADD MSTORE PUSH2 0x2EEC PUSH1 0x60 DUP6 ADD PUSH2 0x2B8F JUMP JUMPDEST PUSH1 0x60 DUP5 ADD MSTORE PUSH2 0x2EFD PUSH1 0x80 DUP6 ADD PUSH2 0x2B8F JUMP JUMPDEST PUSH1 0x80 DUP5 ADD MSTORE PUSH2 0x2F0E PUSH1 0xA0 DUP6 ADD PUSH2 0x2C3B JUMP JUMPDEST PUSH1 0xA0 DUP5 ADD MSTORE PUSH2 0x2F1F PUSH1 0xC0 DUP6 ADD PUSH2 0x2E58 JUMP JUMPDEST PUSH1 0xC0 DUP5 ADD MSTORE PUSH1 0xE0 DUP5 ADD CALLDATALOAD SWAP2 POP DUP1 DUP3 GT ISZERO PUSH2 0x2F38 JUMPI PUSH1 0x0 DUP1 REVERT JUMPDEST POP PUSH2 0x2F45 DUP5 DUP3 DUP6 ADD PUSH2 0x2DE5 JUMP JUMPDEST PUSH1 0xE0 DUP4 ADD MSTORE POP SWAP3 SWAP2 POP POP JUMP JUMPDEST PUSH1 0x0 PUSH1 0x1 PUSH1 0x1 PUSH1 0x40 SHL SUB DUP3 GT ISZERO PUSH2 0x2F6A JUMPI PUSH2 0x2F6A PUSH2 0x2D55 JUMP JUMPDEST POP PUSH1 0x5 SHL PUSH1 0x20 ADD SWAP1 JUMP JUMPDEST PUSH1 0x0 DUP3 PUSH1 0x1F DUP4 ADD SLT PUSH2 0x2F85 JUMPI PUSH1 0x0 DUP1 REVERT JUMPDEST DUP2 CALLDATALOAD PUSH1 0x20 PUSH2 0x2F92 DUP3 PUSH2 0x2F51 JUMP JUMPDEST PUSH1 0x40 MLOAD PUSH2 0x2F9F DUP3 DUP3 PUSH2 0x2D90 JUMP JUMPDEST DUP4 DUP2 MSTORE PUSH1 0x5 SWAP4 SWAP1 SWAP4 SHL DUP6 ADD DUP3 ADD SWAP3 DUP3 DUP2 ADD SWAP2 POP DUP7 DUP5 GT ISZERO PUSH2 0x2FBF JUMPI PUSH1 0x0 DUP1 REVERT JUMPDEST DUP3 DUP7 ADD JUMPDEST DUP5 DUP2 LT ISZERO PUSH2 0x2FDA JUMPI DUP1 CALLDATALOAD DUP4 MSTORE SWAP2 DUP4 ADD SWAP2 DUP4 ADD PUSH2 0x2FC3 JUMP JUMPDEST POP SWAP7 SWAP6 POP POP POP POP POP POP JUMP JUMPDEST PUSH1 0x0 DUP1 PUSH1 0x0 DUP1 PUSH1 0x80 DUP6 DUP8 SUB SLT ISZERO PUSH2 0x2FFB JUMPI PUSH1 0x0 DUP1 REVERT JUMPDEST DUP5 CALLDATALOAD PUSH1 0x1 PUSH1 0x1 PUSH1 0x40 SHL SUB DUP1 DUP3 GT ISZERO PUSH2 0x3012 JUMPI PUSH1 0x0 DUP1 REVERT JUMPDEST PUSH2 0x301E DUP9 DUP4 DUP10 ADD PUSH2 0x2E68 JUMP JUMPDEST SWAP6 POP PUSH2 0x302C PUSH1 0x20 DUP9 ADD PUSH2 0x2C08 JUMP JUMPDEST SWAP5 POP PUSH1 0x40 DUP8 ADD CALLDATALOAD SWAP2 POP DUP1 DUP3 GT ISZERO PUSH2 0x3042 JUMPI PUSH1 0x0 DUP1 REVERT JUMPDEST PUSH2 0x304E DUP9 DUP4 DUP10 ADD PUSH2 0x2F74 JUMP JUMPDEST SWAP4 POP PUSH1 0x60 DUP8 ADD CALLDATALOAD SWAP2 POP DUP1 DUP3 GT ISZERO PUSH2 0x3064 JUMPI PUSH1 0x0 DUP1 REVERT JUMPDEST POP PUSH2 0x3071 DUP8 DUP3 DUP9 ADD PUSH2 0x2F74 JUMP JUMPDEST SWAP2 POP POP SWAP3 SWAP6 SWAP2 SWAP5 POP SWAP3 POP JUMP JUMPDEST PUSH1 0x0 DUP1 PUSH1 0x40 DUP4 DUP6 SUB SLT ISZERO PUSH2 0x3090 JUMPI PUSH1 0x0 DUP1 REVERT JUMPDEST PUSH2 0x2BC7 DUP4 PUSH2 0x2C08 JUMP JUMPDEST PUSH4 0x4E487B71 PUSH1 0xE0 SHL PUSH1 0x0 MSTORE PUSH1 0x21 PUSH1 0x4 MSTORE PUSH1 0x24 PUSH1 0x0 REVERT JUMPDEST PUSH1 0x2 DUP2 LT PUSH2 0x1ACB JUMPI PUSH4 0x4E487B71 PUSH1 0xE0 SHL PUSH1 0x0 MSTORE PUSH1 0x21 PUSH1 0x4 MSTORE PUSH1 0x24 PUSH1 0x0 REVERT JUMPDEST PUSH1 0x0 PUSH2 0x100 DUP1 DUP4 MSTORE PUSH2 0x30E1 DUP2 DUP5 ADD DUP13 PUSH2 0x2CD2 JUMP JUMPDEST SWAP1 POP DUP3 DUP2 SUB PUSH1 0x20 DUP5 ADD MSTORE PUSH2 0x30F5 DUP2 DUP12 PUSH2 0x2CD2 JUMP JUMPDEST SWAP1 POP PUSH2 0x3100 DUP10 PUSH2 0x30AF JUMP JUMPDEST PUSH1 0x40 DUP4 ADD DUP10 SWAP1 MSTORE PUSH1 0x1 PUSH1 0x1 PUSH1 0xA0 SHL SUB DUP9 DUP2 AND PUSH1 0x60 DUP6 ADD MSTORE DUP8 AND PUSH1 0x80 DUP5 ADD MSTORE PUSH2 0x3127 DUP7 PUSH2 0x30AF JUMP JUMPDEST DUP6 PUSH1 0xA0 DUP5 ADD MSTORE DUP5 ISZERO ISZERO PUSH1 0xC0 DUP5 ADD MSTORE DUP3 DUP2 SUB PUSH1 0xE0 DUP5 ADD MSTORE PUSH2 0x3147 DUP2 DUP6 PUSH2 0x2CD2 JUMP JUMPDEST SWAP12 SWAP11 POP POP POP POP POP POP POP POP POP POP POP JUMP JUMPDEST PUSH1 0x0 DUP1 PUSH1 0x0 DUP1 PUSH1 0x0 PUSH1 0xA0 DUP7 DUP9 SUB SLT ISZERO PUSH2 0x316E JUMPI PUSH1 0x0 DUP1 REVERT JUMPDEST PUSH2 0x3177 DUP7 PUSH2 0x2B8F JUMP JUMPDEST SWAP5 POP PUSH2 0x3185 PUSH1 0x20 DUP8 ADD PUSH2 0x2B8F JUMP JUMPDEST SWAP4 POP PUSH1 0x40 DUP7 ADD CALLDATALOAD PUSH1 0x1 PUSH1 0x1 PUSH1 0x40 SHL SUB DUP1 DUP3 GT ISZERO PUSH2 0x31A1 JUMPI PUSH1 0x0 DUP1 REVERT JUMPDEST PUSH2 0x31AD DUP10 DUP4 DUP11 ADD PUSH2 0x2F74 JUMP JUMPDEST SWAP5 POP PUSH1 0x60 DUP9 ADD CALLDATALOAD SWAP2 POP DUP1 DUP3 GT ISZERO PUSH2 0x31C3 JUMPI PUSH1 0x0 DUP1 REVERT JUMPDEST PUSH2 0x31CF DUP10 DUP4 DUP11 ADD PUSH2 0x2F74 JUMP JUMPDEST SWAP4 POP PUSH1 0x80 DUP9 ADD CALLDATALOAD SWAP2 POP DUP1 DUP3 GT ISZERO PUSH2 0x31E5 JUMPI PUSH1 0x0 DUP1 REVERT JUMPDEST POP PUSH2 0x31F2 DUP9 DUP3 DUP10 ADD PUSH2 0x2DE5 JUMP JUMPDEST SWAP2 POP POP SWAP3 SWAP6 POP SWAP3 SWAP6 SWAP1 SWAP4 POP JUMP JUMPDEST PUSH1 0x0 DUP1 PUSH1 0x40 DUP4 DUP6 SUB SLT ISZERO PUSH2 0x3212 JUMPI PUSH1 0x0 DUP1 REVERT JUMPDEST DUP3 CALLDATALOAD SWAP2 POP PUSH2 0x2D4C PUSH1 0x20 DUP5 ADD PUSH2 0x2B8F JUMP JUMPDEST PUSH1 0x0 PUSH1 0x20 DUP3 DUP5 SUB SLT ISZERO PUSH2 0x3234 JUMPI PUSH1 0x0 DUP1 REVERT JUMPDEST PUSH2 0x2AEF DUP3 PUSH2 0x2D11 JUMP JUMPDEST PUSH1 0x20 DUP2 MSTORE PUSH1 0x0 DUP3 MLOAD PUSH1 0xA0 PUSH1 0x20 DUP5 ADD MSTORE PUSH2 0x3259 PUSH1 0xC0 DUP5 ADD DUP3 PUSH2 0x2CD2 JUMP JUMPDEST SWAP1 POP PUSH1 0x20 DUP5 ADD MLOAD PUSH2 0xFFFF DUP1 DUP3 AND PUSH1 0x40 DUP7 ADD MSTORE DUP1 PUSH1 0x40 DUP8 ADD MLOAD AND PUSH1 0x60 DUP7 ADD MSTORE DUP1 PUSH1 0x60 DUP8 ADD MLOAD AND PUSH1 0x80 DUP7 ADD MSTORE POP POP PUSH1 0x80 DUP5 ADD MLOAD PUSH2 0x3293 DUP2 PUSH2 0x30AF JUMP JUMPDEST PUSH1 0xA0 SWAP4 SWAP1 SWAP4 ADD SWAP3 SWAP1 SWAP3 MSTORE POP SWAP2 SWAP1 POP JUMP JUMPDEST PUSH1 0x0 DUP1 PUSH1 0x40 DUP4 DUP6 SUB SLT ISZERO PUSH2 0x32B6 JUMPI PUSH1 0x0 DUP1 REVERT JUMPDEST DUP3 CALLDATALOAD PUSH1 0x1 PUSH1 0x1 PUSH1 0x40 SHL SUB DUP1 DUP3 GT ISZERO PUSH2 0x32CD JUMPI PUSH1 0x0 DUP1 REVERT JUMPDEST DUP2 DUP6 ADD SWAP2 POP DUP6 PUSH1 0x1F DUP4 ADD SLT PUSH2 0x32E1 JUMPI PUSH1 0x0 DUP1 REVERT JUMPDEST DUP2 CALLDATALOAD PUSH1 0x20 PUSH2 0x32EE DUP3 PUSH2 0x2F51 JUMP JUMPDEST PUSH1 0x40 MLOAD PUSH2 0x32FB DUP3 DUP3 PUSH2 0x2D90 JUMP JUMPDEST DUP4 DUP2 MSTORE PUSH1 0x5 SWAP4 SWAP1 SWAP4 SHL DUP6 ADD DUP3 ADD SWAP3 DUP3 DUP2 ADD SWAP2 POP DUP10 DUP5 GT ISZERO PUSH2 0x331B JUMPI PUSH1 0x0 DUP1 REVERT JUMPDEST SWAP5 DUP3 ADD SWAP5 JUMPDEST DUP4 DUP7 LT ISZERO PUSH2 0x3340 JUMPI PUSH2 0x3331 DUP7 PUSH2 0x2B8F JUMP JUMPDEST DUP3 MSTORE SWAP5 DUP3 ADD SWAP5 SWAP1 DUP3 ADD SWAP1 PUSH2 0x3320 JUMP JUMPDEST SWAP7 POP POP DUP7 ADD CALLDATALOAD SWAP3 POP POP DUP1 DUP3 GT ISZERO PUSH2 0x3356 JUMPI PUSH1 0x0 DUP1 REVERT JUMPDEST POP PUSH2 0x3363 DUP6 DUP3 DUP7 ADD PUSH2 0x2F74 JUMP JUMPDEST SWAP2 POP POP SWAP3 POP SWAP3 SWAP1 POP JUMP JUMPDEST PUSH1 0x0 DUP2 MLOAD DUP1 DUP5 MSTORE PUSH1 0x20 DUP1 DUP6 ADD SWAP5 POP DUP1 DUP5 ADD PUSH1 0x0 JUMPDEST DUP4 DUP2 LT ISZERO PUSH2 0x339D JUMPI DUP2 MLOAD DUP8 MSTORE SWAP6 DUP3 ADD SWAP6 SWAP1 DUP3 ADD SWAP1 PUSH1 0x1 ADD PUSH2 0x3381 JUMP JUMPDEST POP SWAP5 SWAP6 SWAP5 POP POP POP POP POP JUMP JUMPDEST PUSH1 0x20 DUP2 MSTORE PUSH1 0x0 PUSH2 0x2AEF PUSH1 0x20 DUP4 ADD DUP5 PUSH2 0x336D JUMP JUMPDEST PUSH1 0x0 DUP1 PUSH1 0x0 PUSH1 0x60 DUP5 DUP7 SUB SLT ISZERO PUSH2 0x33D0 JUMPI PUSH1 0x0 DUP1 REVERT JUMPDEST PUSH2 0x33D9 DUP5 PUSH2 0x2B8F JUMP JUMPDEST SWAP3 POP PUSH1 0x20 DUP5 ADD CALLDATALOAD PUSH1 0x1 PUSH1 0x1 PUSH1 0x40 SHL SUB DUP1 DUP3 GT ISZERO PUSH2 0x33F5 JUMPI PUSH1 0x0 DUP1 REVERT JUMPDEST PUSH2 0x3401 DUP8 DUP4 DUP9 ADD PUSH2 0x2F74 JUMP JUMPDEST SWAP4 POP PUSH1 0x40 DUP7 ADD CALLDATALOAD SWAP2 POP DUP1 DUP3 GT ISZERO PUSH2 0x3417 JUMPI PUSH1 0x0 DUP1 REVERT JUMPDEST POP PUSH2 0x3424 DUP7 DUP3 DUP8 ADD PUSH2 0x2F74 JUMP JUMPDEST SWAP2 POP POP SWAP3 POP SWAP3 POP SWAP3 JUMP JUMPDEST PUSH4 0xFFFFFFFF DUP8 DUP2 AND DUP3 MSTORE PUSH1 0xC0 DUP3 ADD SWAP1 PUSH2 0x3446 DUP9 PUSH2 0x30AF JUMP JUMPDEST PUSH1 0x20 DUP4 ADD DUP9 SWAP1 MSTORE PUSH2 0xFFFF DUP8 AND PUSH1 0x40 DUP5 ADD MSTORE DUP6 AND PUSH1 0x60 DUP4 ADD MSTORE PUSH2 0x3467 DUP5 PUSH2 0x30AF JUMP JUMPDEST DUP4 PUSH1 0x80 DUP4 ADD MSTORE PUSH1 0xFF DUP4 AND PUSH1 0xA0 DUP4 ADD MSTORE SWAP8 SWAP7 POP POP POP POP POP POP POP JUMP JUMPDEST PUSH1 0x0 DUP1 PUSH1 0x40 DUP4 DUP6 SUB SLT ISZERO PUSH2 0x3494 JUMPI PUSH1 0x0 DUP1 REVERT JUMPDEST DUP3 CALLDATALOAD PUSH1 0x1 PUSH1 0x1 PUSH1 0x40 SHL SUB DUP1 DUP3 GT ISZERO PUSH2 0x34AB JUMPI PUSH1 0x0 DUP1 REVERT JUMPDEST SWAP1 DUP5 ADD SWAP1 PUSH1 0xA0 DUP3 DUP8 SUB SLT ISZERO PUSH2 0x34BF JUMPI PUSH1 0x0 DUP1 REVERT JUMPDEST PUSH1 0x40 MLOAD PUSH2 0x34CB DUP2 PUSH2 0x2D6B JUMP JUMPDEST DUP3 CALLDATALOAD DUP3 DUP2 GT ISZERO PUSH2 0x34DA JUMPI PUSH1 0x0 DUP1 REVERT JUMPDEST PUSH2 0x34E6 DUP9 DUP3 DUP7 ADD PUSH2 0x2DE5 JUMP JUMPDEST DUP3 MSTORE POP PUSH2 0x34F5 PUSH1 0x20 DUP5 ADD PUSH2 0x2C08 JUMP JUMPDEST PUSH1 0x20 DUP3 ADD MSTORE PUSH2 0x3506 PUSH1 0x40 DUP5 ADD PUSH2 0x2C08 JUMP JUMPDEST PUSH1 0x40 DUP3 ADD MSTORE PUSH2 0x3517 PUSH1 0x60 DUP5 ADD PUSH2 0x2C08 JUMP JUMPDEST PUSH1 0x60 DUP3 ADD MSTORE PUSH1 0x80 DUP4 ADD CALLDATALOAD SWAP3 POP PUSH2 0x352C DUP4 PUSH2 0x2C2E JUMP JUMPDEST PUSH1 0x80 DUP2 ADD SWAP3 SWAP1 SWAP3 MSTORE POP SWAP2 POP PUSH2 0x2D4C PUSH1 0x20 DUP5 ADD PUSH2 0x2D11 JUMP JUMPDEST PUSH1 0x0 DUP1 DUP4 PUSH1 0x1F DUP5 ADD SLT PUSH2 0x3555 JUMPI PUSH1 0x0 DUP1 REVERT JUMPDEST POP DUP2 CALLDATALOAD PUSH1 0x1 PUSH1 0x1 PUSH1 0x40 SHL SUB DUP2 GT ISZERO PUSH2 0x356C JUMPI PUSH1 0x0 DUP1 REVERT JUMPDEST PUSH1 0x20 DUP4 ADD SWAP2 POP DUP4 PUSH1 0x20 DUP3 PUSH1 0x5 SHL DUP6 ADD ADD GT ISZERO PUSH2 0x3587 JUMPI PUSH1 0x0 DUP1 REVERT JUMPDEST SWAP3 POP SWAP3 SWAP1 POP JUMP JUMPDEST PUSH1 0x0 DUP1 PUSH1 0x0 DUP1 PUSH1 0x0 PUSH1 0x60 DUP7 DUP9 SUB SLT ISZERO PUSH2 0x35A6 JUMPI PUSH1 0x0 DUP1 REVERT JUMPDEST PUSH2 0x35AF DUP7 PUSH2 0x2B8F JUMP JUMPDEST SWAP5 POP PUSH1 0x20 DUP7 ADD CALLDATALOAD PUSH1 0x1 PUSH1 0x1 PUSH1 0x40 SHL SUB DUP1 DUP3 GT ISZERO PUSH2 0x35CB JUMPI PUSH1 0x0 DUP1 REVERT JUMPDEST PUSH2 0x35D7 DUP10 DUP4 DUP11 ADD PUSH2 0x3543 JUMP JUMPDEST SWAP1 SWAP7 POP SWAP5 POP PUSH1 0x40 DUP9 ADD CALLDATALOAD SWAP2 POP DUP1 DUP3 GT ISZERO PUSH2 0x35F0 JUMPI PUSH1 0x0 DUP1 REVERT JUMPDEST POP PUSH2 0x35FD DUP9 DUP3 DUP10 ADD PUSH2 0x3543 JUMP JUMPDEST SWAP7 SWAP10 SWAP6 SWAP9 POP SWAP4 SWAP7 POP SWAP3 SWAP5 SWAP4 SWAP3 POP POP POP JUMP JUMPDEST PUSH1 0x0 DUP1 PUSH1 0x40 DUP4 DUP6 SUB SLT ISZERO PUSH2 0x3621 JUMPI PUSH1 0x0 DUP1 REVERT JUMPDEST PUSH2 0x362A DUP4 PUSH2 0x2B8F JUMP JUMPDEST SWAP2 POP PUSH2 0x2D4C PUSH1 0x20 DUP5 ADD PUSH2 0x2E58 JUMP JUMPDEST PUSH1 0x0 DUP1 PUSH1 0x0 PUSH1 0x60 DUP5 DUP7 SUB SLT ISZERO PUSH2 0x364D JUMPI PUSH1 0x0 DUP1 REVERT JUMPDEST DUP4 CALLDATALOAD PUSH1 0x1 PUSH1 0x1 PUSH1 0x40 SHL SUB DUP2 GT ISZERO PUSH2 0x3663 JUMPI PUSH1 0x0 DUP1 REVERT JUMPDEST PUSH2 0x366F DUP7 DUP3 DUP8 ADD PUSH2 0x2E68 JUMP JUMPDEST SWAP4 POP POP PUSH2 0x367E PUSH1 0x20 DUP6 ADD PUSH2 0x2C1A JUMP JUMPDEST SWAP2 POP PUSH2 0x368C PUSH1 0x40 DUP6 ADD PUSH2 0x2D11 JUMP JUMPDEST SWAP1 POP SWAP3 POP SWAP3 POP SWAP3 JUMP JUMPDEST PUSH1 0x0 DUP1 PUSH1 0x40 DUP4 DUP6 SUB SLT ISZERO PUSH2 0x36A8 JUMPI PUSH1 0x0 DUP1 REVERT JUMPDEST PUSH2 0x36B1 DUP4 PUSH2 0x2B8F JUMP JUMPDEST SWAP2 POP PUSH2 0x2D4C PUSH1 0x20 DUP5 ADD PUSH2 0x2B8F JUMP JUMPDEST PUSH1 0x0 PUSH1 0x20 DUP3 DUP5 SUB SLT ISZERO PUSH2 0x36D1 JUMPI PUSH1 0x0 DUP1 REVERT JUMPDEST PUSH2 0x2AEF DUP3 PUSH2 0x2C08 JUMP JUMPDEST PUSH1 0x0 DUP1 PUSH1 0x0 DUP1 PUSH1 0x0 PUSH1 0xA0 DUP7 DUP9 SUB SLT ISZERO PUSH2 0x36F2 JUMPI PUSH1 0x0 DUP1 REVERT JUMPDEST PUSH2 0x36FB DUP7 PUSH2 0x2B8F JUMP JUMPDEST SWAP5 POP PUSH2 0x3709 PUSH1 0x20 DUP8 ADD PUSH2 0x2B8F JUMP JUMPDEST SWAP4 POP PUSH1 0x40 DUP7 ADD CALLDATALOAD SWAP3 POP PUSH1 0x60 DUP7 ADD CALLDATALOAD SWAP2 POP PUSH1 0x80 DUP7 ADD CALLDATALOAD PUSH1 0x1 PUSH1 0x1 PUSH1 0x40 SHL SUB DUP2 GT ISZERO PUSH2 0x3732 JUMPI PUSH1 0x0 DUP1 REVERT JUMPDEST PUSH2 0x31F2 DUP9 DUP3 DUP10 ADD PUSH2 0x2DE5 JUMP JUMPDEST PUSH1 0x0 PUSH1 0x20 DUP3 DUP5 SUB SLT ISZERO PUSH2 0x3750 JUMPI PUSH1 0x0 DUP1 REVERT JUMPDEST PUSH2 0x2AEF DUP3 PUSH2 0x2B8F JUMP JUMPDEST PUSH1 0x0 DUP1 PUSH1 0x0 PUSH1 0x60 DUP5 DUP7 SUB SLT ISZERO PUSH2 0x376E JUMPI PUSH1 0x0 DUP1 REVERT JUMPDEST PUSH2 0x3777 DUP5 PUSH2 0x2B8F JUMP JUMPDEST SWAP6 PUSH1 0x20 DUP6 ADD CALLDATALOAD SWAP6 POP PUSH1 0x40 SWAP1 SWAP5 ADD CALLDATALOAD SWAP4 SWAP3 POP POP POP JUMP JUMPDEST PUSH1 0x1 DUP2 DUP2 SHR SWAP1 DUP3 AND DUP1 PUSH2 0x37A0 JUMPI PUSH1 0x7F DUP3 AND SWAP2 POP JUMPDEST PUSH1 0x20 DUP3 LT DUP2 SUB PUSH2 0x37C0 JUMPI PUSH4 0x4E487B71 PUSH1 0xE0 SHL PUSH1 0x0 MSTORE PUSH1 0x22 PUSH1 0x4 MSTORE PUSH1 0x24 PUSH1 0x0 REVERT JUMPDEST POP SWAP2 SWAP1 POP JUMP JUMPDEST PUSH4 0x4E487B71 PUSH1 0xE0 SHL PUSH1 0x0 MSTORE PUSH1 0x32 PUSH1 0x4 MSTORE PUSH1 0x24 PUSH1 0x0 REVERT JUMPDEST PUSH1 0x0 DUP1 DUP4 SLOAD DUP2 PUSH1 0x1 DUP3 DUP2 SHR SWAP2 POP DUP1 DUP4 AND DUP1 PUSH2 0x37F8 JUMPI PUSH1 0x7F DUP4 AND SWAP3 POP JUMPDEST PUSH1 0x20 DUP1 DUP5 LT DUP3 SUB PUSH2 0x3817 JUMPI PUSH4 0x4E487B71 PUSH1 0xE0 SHL DUP7 MSTORE PUSH1 0x22 PUSH1 0x4 MSTORE PUSH1 0x24 DUP7 REVERT JUMPDEST DUP2 DUP1 ISZERO PUSH2 0x382B JUMPI PUSH1 0x1 DUP2 EQ PUSH2 0x383C JUMPI PUSH2 0x3869 JUMP JUMPDEST PUSH1 0xFF NOT DUP7 AND DUP10 MSTORE DUP5 DUP10 ADD SWAP7 POP PUSH2 0x3869 JUMP JUMPDEST PUSH1 0x0 DUP11 DUP2 MSTORE PUSH1 0x20 SWAP1 KECCAK256 PUSH1 0x0 JUMPDEST DUP7 DUP2 LT ISZERO PUSH2 0x3861 JUMPI DUP2 SLOAD DUP12 DUP3 ADD MSTORE SWAP1 DUP6 ADD SWAP1 DUP4 ADD PUSH2 0x3848 JUMP JUMPDEST POP POP DUP5 DUP10 ADD SWAP7 POP JUMPDEST POP SWAP5 SWAP9 SWAP8 POP POP POP POP POP POP POP POP JUMP JUMPDEST PUSH1 0x0 DUP3 MLOAD PUSH2 0x3889 DUP2 DUP5 PUSH1 0x20 DUP8 ADD PUSH2 0x2CA6 JUMP JUMPDEST SWAP2 SWAP1 SWAP2 ADD SWAP3 SWAP2 POP POP JUMP JUMPDEST PUSH4 0x4E487B71 PUSH1 0xE0 SHL PUSH1 0x0 MSTORE PUSH1 0x11 PUSH1 0x4 MSTORE PUSH1 0x24 PUSH1 0x0 REVERT JUMPDEST PUSH1 0x0 PUSH1 0xFF DUP3 AND PUSH1 0xFF DUP2 SUB PUSH2 0x38BF JUMPI PUSH2 0x38BF PUSH2 0x3893 JUMP JUMPDEST PUSH1 0x1 ADD SWAP3 SWAP2 POP POP JUMP JUMPDEST PUSH1 0x20 DUP1 DUP3 MSTORE PUSH1 0x2E SWAP1 DUP3 ADD MSTORE PUSH32 0x455243313135353A2063616C6C6572206973206E6F7420746F6B656E206F776E PUSH1 0x40 DUP3 ADD MSTORE PUSH14 0x195C881BDC88185C1C1C9BDD9959 PUSH1 0x92 SHL PUSH1 0x60 DUP3 ADD MSTORE PUSH1 0x80 ADD SWAP1 JUMP JUMPDEST PUSH1 0x0 PUSH1 0x1 DUP3 ADD PUSH2 0x3928 JUMPI PUSH2 0x3928 PUSH2 0x3893 JUMP JUMPDEST POP PUSH1 0x1 ADD SWAP1 JUMP JUMPDEST PUSH1 0x0 PUSH1 0xFF DUP3 AND PUSH1 0xFF DUP5 AND DUP1 PUSH1 0xFF SUB DUP3 GT ISZERO PUSH2 0x394C JUMPI PUSH2 0x394C PUSH2 0x3893 JUMP JUMPDEST ADD SWAP4 SWAP3 POP POP POP JUMP JUMPDEST PUSH1 0x20 DUP1 DUP3 MSTORE PUSH1 0x28 SWAP1 DUP3 ADD MSTORE PUSH32 0x455243313135353A2069647320616E6420616D6F756E7473206C656E67746820 PUSH1 0x40 DUP3 ADD MSTORE PUSH8 0xDAD2E6DAC2E8C6D PUSH1 0xC3 SHL PUSH1 0x60 DUP3 ADD MSTORE PUSH1 0x80 ADD SWAP1 JUMP JUMPDEST PUSH1 0x0 DUP3 NOT DUP3 GT ISZERO PUSH2 0x39AF JUMPI PUSH2 0x39AF PUSH2 0x3893 JUMP JUMPDEST POP ADD SWAP1 JUMP JUMPDEST PUSH1 0x40 DUP2 MSTORE PUSH1 0x0 PUSH2 0x39C7 PUSH1 0x40 DUP4 ADD DUP6 PUSH2 0x336D JUMP JUMPDEST DUP3 DUP2 SUB PUSH1 0x20 DUP5 ADD MSTORE PUSH2 0x39D9 DUP2 DUP6 PUSH2 0x336D JUMP JUMPDEST SWAP6 SWAP5 POP POP POP POP POP JUMP JUMPDEST PUSH1 0x20 DUP1 DUP3 MSTORE PUSH1 0x25 SWAP1 DUP3 ADD MSTORE PUSH32 0x455243313135353A207472616E7366657220746F20746865207A65726F206164 PUSH1 0x40 DUP3 ADD MSTORE PUSH5 0x6472657373 PUSH1 0xD8 SHL PUSH1 0x60 DUP3 ADD MSTORE PUSH1 0x80 ADD SWAP1 JUMP JUMPDEST PUSH1 0x20 DUP1 DUP3 MSTORE PUSH1 0x2A SWAP1 DUP3 ADD MSTORE PUSH32 0x455243313135353A20696E73756666696369656E742062616C616E636520666F PUSH1 0x40 DUP3 ADD MSTORE PUSH10 0x39103A3930B739B332B9 PUSH1 0xB1 SHL PUSH1 0x60 DUP3 ADD MSTORE PUSH1 0x80 ADD SWAP1 JUMP JUMPDEST PUSH1 0x20 DUP1 DUP3 MSTORE PUSH1 0x23 SWAP1 DUP3 ADD MSTORE PUSH32 0x455243313135353A206275726E2066726F6D20746865207A65726F2061646472 PUSH1 0x40 DUP3 ADD MSTORE PUSH3 0x657373 PUSH1 0xE8 SHL PUSH1 0x60 DUP3 ADD MSTORE PUSH1 0x80 ADD SWAP1 JUMP JUMPDEST PUSH1 0x20 DUP1 DUP3 MSTORE PUSH1 0x24 SWAP1 DUP3 ADD MSTORE PUSH32 0x455243313135353A206275726E20616D6F756E7420657863656564732062616C PUSH1 0x40 DUP3 ADD MSTORE PUSH4 0x616E6365 PUSH1 0xE0 SHL PUSH1 0x60 DUP3 ADD MSTORE PUSH1 0x80 ADD SWAP1 JUMP JUMPDEST PUSH1 0x1 PUSH1 0x1 PUSH1 0xA0 SHL SUB DUP7 DUP2 AND DUP3 MSTORE DUP6 AND PUSH1 0x20 DUP3 ADD MSTORE PUSH1 0xA0 PUSH1 0x40 DUP3 ADD DUP2 SWAP1 MSTORE PUSH1 0x0 SWAP1 PUSH2 0x3B24 SWAP1 DUP4 ADD DUP7 PUSH2 0x336D JUMP JUMPDEST DUP3 DUP2 SUB PUSH1 0x60 DUP5 ADD MSTORE PUSH2 0x3B36 DUP2 DUP7 PUSH2 0x336D JUMP JUMPDEST SWAP1 POP DUP3 DUP2 SUB PUSH1 0x80 DUP5 ADD MSTORE PUSH2 0x3B4A DUP2 DUP6 PUSH2 0x2CD2 JUMP JUMPDEST SWAP9 SWAP8 POP POP POP POP POP POP POP POP JUMP JUMPDEST PUSH1 0x0 PUSH1 0x20 DUP3 DUP5 SUB SLT ISZERO PUSH2 0x3B68 JUMPI PUSH1 0x0 DUP1 REVERT JUMPDEST DUP2 MLOAD PUSH2 0x2AEF DUP2 PUSH2 0x2BD5 JUMP JUMPDEST PUSH1 0x0 PUSH1 0x3 RETURNDATASIZE GT ISZERO PUSH2 0x3B8C JUMPI PUSH1 0x4 PUSH1 0x0 DUP1 RETURNDATACOPY POP PUSH1 0x0 MLOAD PUSH1 0xE0 SHR JUMPDEST SWAP1 JUMP JUMPDEST PUSH1 0x0 PUSH1 0x44 RETURNDATASIZE LT ISZERO PUSH2 0x3B9D JUMPI SWAP1 JUMP JUMPDEST PUSH1 0x40 MLOAD PUSH1 0x3 NOT RETURNDATASIZE DUP2 ADD PUSH1 0x4 DUP4 RETURNDATACOPY DUP2 MLOAD RETURNDATASIZE PUSH1 0x1 PUSH1 0x1 PUSH1 0x40 SHL SUB DUP2 PUSH1 0x24 DUP5 ADD GT DUP2 DUP5 GT OR ISZERO PUSH2 0x3BCC JUMPI POP POP POP POP POP SWAP1 JUMP JUMPDEST DUP3 DUP6 ADD SWAP2 POP DUP2 MLOAD DUP2 DUP2 GT ISZERO PUSH2 0x3BE4 JUMPI POP POP POP POP POP POP SWAP1 JUMP JUMPDEST DUP5 RETURNDATASIZE DUP8 ADD ADD PUSH1 0x20 DUP3 DUP6 ADD ADD GT ISZERO PUSH2 0x3BFE JUMPI POP POP POP POP POP POP SWAP1 JUMP JUMPDEST PUSH2 0x3C0D PUSH1 0x20 DUP3 DUP7 ADD ADD DUP8 PUSH2 0x2D90 JUMP JUMPDEST POP SWAP1 SWAP6 SWAP5 POP POP POP POP POP JUMP JUMPDEST PUSH1 0x20 DUP1 DUP3 MSTORE PUSH1 0x28 SWAP1 DUP3 ADD MSTORE PUSH32 0x455243313135353A204552433131353552656365697665722072656A65637465 PUSH1 0x40 DUP3 ADD MSTORE PUSH8 0x6420746F6B656E73 PUSH1 0xC0 SHL PUSH1 0x60 DUP3 ADD MSTORE PUSH1 0x80 ADD SWAP1 JUMP JUMPDEST PUSH32 0x416363657373436F6E74726F6C3A206163636F756E7420000000000000000000 DUP2 MSTORE PUSH1 0x0 DUP4 MLOAD PUSH2 0x3C98 DUP2 PUSH1 0x17 DUP6 ADD PUSH1 0x20 DUP9 ADD PUSH2 0x2CA6 JUMP JUMPDEST PUSH17 0x1034B99036B4B9B9B4B733903937B6329 PUSH1 0x7D SHL PUSH1 0x17 SWAP2 DUP5 ADD SWAP2 DUP3 ADD MSTORE DUP4 MLOAD PUSH2 0x3CC9 DUP2 PUSH1 0x28 DUP5 ADD PUSH1 0x20 DUP9 ADD PUSH2 0x2CA6 JUMP JUMPDEST ADD PUSH1 0x28 ADD SWAP5 SWAP4 POP POP POP POP JUMP JUMPDEST PUSH1 0x1 PUSH1 0x1 PUSH1 0xA0 SHL SUB DUP7 DUP2 AND DUP3 MSTORE DUP6 AND PUSH1 0x20 DUP3 ADD MSTORE PUSH1 0x40 DUP2 ADD DUP5 SWAP1 MSTORE PUSH1 0x60 DUP2 ADD DUP4 SWAP1 MSTORE PUSH1 0xA0 PUSH1 0x80 DUP3 ADD DUP2 SWAP1 MSTORE PUSH1 0x0 SWAP1 PUSH2 0x3D0F SWAP1 DUP4 ADD DUP5 PUSH2 0x2CD2 JUMP JUMPDEST SWAP8 SWAP7 POP POP POP POP POP POP POP JUMP JUMPDEST PUSH1 0x0 DUP2 PUSH1 0x0 NOT DIV DUP4 GT DUP3 ISZERO ISZERO AND ISZERO PUSH2 0x3D34 JUMPI PUSH2 0x3D34 PUSH2 0x3893 JUMP JUMPDEST POP MUL SWAP1 JUMP JUMPDEST PUSH1 0x0 DUP2 PUSH2 0x3D48 JUMPI PUSH2 0x3D48 PUSH2 0x3893 JUMP JUMPDEST POP PUSH1 0x0 NOT ADD SWAP1 JUMP INVALID LOG2 PUSH5 0x6970667358 0x22 SLT KECCAK256 0xE2 0xD3 MSIZE 0x23 0xB9 DUP8 0xD5 0xD1 0xC6 NUMBER DUP8 BYTE DUP6 SIGNEXTEND EXTCODECOPY 0xAF CREATE 0x4A SLT NUMBER LOG1 PUSH2 0x731 SDIV 0x4B 0xAC PUSH8 0xBD2FAE7F64736F6C PUSH4 0x4300080E STOP CALLER PUSH9 0x747470733A2F2F6761 PUSH14 0x652E6578616D706C652F6170692F PUSH10 0x74656D2F7B69647D2E6A PUSH20 0x6F6E000000000000000000000000000000000000 "
		},
		"gasEstimates": {
			"creation": {
				"codeDepositCost": "3150000",
				"executionCost": "infinite",
				"totalCost": "infinite"
			},
			"external": {
				"DEFAULT_ADMIN_ROLE()": "229",
				"MINTER_ROLE()": "infinite",
				"assetId()": "2425",
				"assetsInFlorest(uint16,uint256)": "infinite",
				"balanceOf(address,uint256)": "2721",
				"balanceOfBatch(address[],uint256[])": "infinite",
				"burn(address,uint256,uint256)": "infinite",
				"burnBatch(address,uint256[],uint256[])": "infinite",
				"checkOwnership()": "2388",
				"createAFlorest(uint16,uint32,uint8)": "infinite",
				"createAPlot((string,uint16,uint16,uint16,uint8),uint8)": "infinite",
				"createAsset((string,string,uint8,address,address,uint8,bool,string),uint16,uint256[],uint256[])": "infinite",
				"currentYear()": "2437",
				"dataRoomLink()": "infinite",
				"florestsInProperty(uint8)": "infinite",
				"florestsQuantity()": "2467",
				"getCurrentPlotNumberinFlorest(uint8)": "2680",
				"getDefaultPlot(uint8)": "infinite",
				"getPlot(uint8,uint16)": "infinite",
				"getRoleAdmin(bytes32)": "2529",
				"grantRole(bytes32,address)": "infinite",
				"hasRole(bytes32,address)": "2777",
				"isApprovedForAll(address,address)": "infinite",
				"maxGlobalAllowedFlorestTokenizationPercentage()": "2457",
				"mint(address,uint256[],uint256[])": "infinite",
				"owner()": "2399",
				"propertyRegistration()": "2374",
				"renounceOwnership()": "infinite",
				"renounceRole(bytes32,address)": "29091",
				"resetPlotQuantityinFlorest(uint8,uint16)": "infinite",
				"revokeRole(bytes32,address)": "infinite",
				"safeBatchTransferFrom(address,address,uint256[],uint256[],bytes)": "infinite",
				"safeTransferFrom(address,address,uint256,uint256,bytes)": "infinite",
				"setApprovalForAll(address,bool)": "infinite",
				"setCurrentYear(uint16)": "infinite",
				"supportsInterface(bytes4)": "infinite",
				"tokenizationContractLink()": "infinite",
				"tokenizeAssetInFlorest((string,string,uint8,address,address,uint8,bool,string),uint32,uint8)": "infinite",
				"transferOwnership(address)": "28399",
				"uri(uint256)": "infinite",
				"woodPropertyMaxPotential()": "2380"
			},
			"internal": {
				"setApprovalToTransferAssets(address,address,bool)": "infinite"
			}
		},
		"methodIdentifiers": {
			"DEFAULT_ADMIN_ROLE()": "a217fddf",
			"MINTER_ROLE()": "d5391393",
			"assetId()": "44de240a",
			"assetsInFlorest(uint16,uint256)": "2d9c98dc",
			"balanceOf(address,uint256)": "00fdd58e",
			"balanceOfBatch(address[],uint256[])": "4e1273f4",
			"burn(address,uint256,uint256)": "f5298aca",
			"burnBatch(address,uint256[],uint256[])": "6b20c454",
			"checkOwnership()": "219a1d77",
			"createAFlorest(uint16,uint32,uint8)": "072a27a7",
			"createAPlot((string,uint16,uint16,uint16,uint8),uint8)": "764c1d96",
			"createAsset((string,string,uint8,address,address,uint8,bool,string),uint16,uint256[],uint256[])": "2a5a1dbc",
			"currentYear()": "0b5a006b",
			"dataRoomLink()": "ed008921",
			"florestsInProperty(uint8)": "6cd47623",
			"florestsQuantity()": "fc851323",
			"getCurrentPlotNumberinFlorest(uint8)": "fa7a02a5",
			"getDefaultPlot(uint8)": "4b5e91d4",
			"getPlot(uint8,uint16)": "f70efa97",
			"getRoleAdmin(bytes32)": "248a9ca3",
			"grantRole(bytes32,address)": "2f2ff15d",
			"hasRole(bytes32,address)": "91d14854",
			"isApprovedForAll(address,address)": "e985e9c5",
			"maxGlobalAllowedFlorestTokenizationPercentage()": "f0e404c0",
			"mint(address,uint256[],uint256[])": "9727756a",
			"owner()": "8da5cb5b",
			"propertyRegistration()": "8ec3ca14",
			"renounceOwnership()": "715018a6",
			"renounceRole(bytes32,address)": "36568abe",
			"resetPlotQuantityinFlorest(uint8,uint16)": "13516037",
			"revokeRole(bytes32,address)": "d547741f",
			"safeBatchTransferFrom(address,address,uint256[],uint256[],bytes)": "2eb2c2d6",
			"safeTransferFrom(address,address,uint256,uint256,bytes)": "f242432a",
			"setApprovalForAll(address,bool)": "a22cb465",
			"setCurrentYear(uint16)": "ea3994bc",
			"supportsInterface(bytes4)": "01ffc9a7",
			"tokenizationContractLink()": "a768396a",
			"tokenizeAssetInFlorest((string,string,uint8,address,address,uint8,bool,string),uint32,uint8)": "a9f920ed",
			"transferOwnership(address)": "f2fde38b",
			"uri(uint256)": "0e89341c",
			"woodPropertyMaxPotential()": "58609177"
		}
	},
	"abi": [
		{
			"inputs": [
				{
					"internalType": "address",
					"name": "_initialOwner",
					"type": "address"
				},
				{
					"internalType": "address",
					"name": "_minter",
					"type": "address"
				},
				{
					"internalType": "uint256[]",
					"name": "_ids",
					"type": "uint256[]"
				},
				{
					"internalType": "uint256[]",
					"name": "_amount",
					"type": "uint256[]"
				}
			],
			"stateMutability": "nonpayable",
			"type": "constructor"
		},
		{
			"anonymous": false,
			"inputs": [
				{
					"indexed": true,
					"internalType": "address",
					"name": "account",
					"type": "address"
				},
				{
					"indexed": true,
					"internalType": "address",
					"name": "operator",
					"type": "address"
				},
				{
					"indexed": false,
					"internalType": "bool",
					"name": "approved",
					"type": "bool"
				}
			],
			"name": "ApprovalForAll",
			"type": "event"
		},
		{
			"anonymous": false,
			"inputs": [
				{
					"indexed": false,
					"internalType": "bool",
					"name": "availability",
					"type": "bool"
				}
			],
			"name": "AssetAvailabilityUpdated",
			"type": "event"
		},
		{
			"anonymous": false,
			"inputs": [
				{
					"indexed": false,
					"internalType": "uint8",
					"name": "assetId",
					"type": "uint8"
				},
				{
					"indexed": false,
					"internalType": "bool",
					"name": "wasBurned",
					"type": "bool"
				}
			],
			"name": "AssetBurned",
			"type": "event"
		},
		{
			"anonymous": false,
			"inputs": [
				{
					"indexed": false,
					"internalType": "uint32",
					"name": "AssetId",
					"type": "uint32"
				},
				{
					"indexed": false,
					"internalType": "address",
					"name": "tokenOwner",
					"type": "address"
				},
				{
					"indexed": false,
					"internalType": "uint8",
					"name": "assetId",
					"type": "uint8"
				}
			],
			"name": "AssetMinted",
			"type": "event"
		},
		{
			"anonymous": false,
			"inputs": [
				{
					"indexed": false,
					"internalType": "uint8",
					"name": "assetId",
					"type": "uint8"
				},
				{
					"indexed": false,
					"internalType": "address",
					"name": "newOwner",
					"type": "address"
				},
				{
					"indexed": false,
					"internalType": "bool",
					"name": "transferred",
					"type": "bool"
				}
			],
			"name": "AssetTransferred",
			"type": "event"
		},
		{
			"anonymous": false,
			"inputs": [
				{
					"indexed": false,
					"internalType": "uint32",
					"name": "value",
					"type": "uint32"
				},
				{
					"indexed": false,
					"internalType": "bool",
					"name": "valuationSet",
					"type": "bool"
				}
			],
			"name": "AssetValuationWevent",
			"type": "event"
		},
		{
			"anonymous": false,
			"inputs": [
				{
					"indexed": true,
					"internalType": "address",
					"name": "previousOwner",
					"type": "address"
				},
				{
					"indexed": true,
					"internalType": "address",
					"name": "newOwner",
					"type": "address"
				}
			],
			"name": "OwnershipTransferred",
			"type": "event"
		},
		{
			"anonymous": false,
			"inputs": [
				{
					"indexed": true,
					"internalType": "bytes32",
					"name": "role",
					"type": "bytes32"
				},
				{
					"indexed": true,
					"internalType": "bytes32",
					"name": "previousAdminRole",
					"type": "bytes32"
				},
				{
					"indexed": true,
					"internalType": "bytes32",
					"name": "newAdminRole",
					"type": "bytes32"
				}
			],
			"name": "RoleAdminChanged",
			"type": "event"
		},
		{
			"anonymous": false,
			"inputs": [
				{
					"indexed": true,
					"internalType": "bytes32",
					"name": "role",
					"type": "bytes32"
				},
				{
					"indexed": true,
					"internalType": "address",
					"name": "account",
					"type": "address"
				},
				{
					"indexed": true,
					"internalType": "address",
					"name": "sender",
					"type": "address"
				}
			],
			"name": "RoleGranted",
			"type": "event"
		},
		{
			"anonymous": false,
			"inputs": [
				{
					"indexed": true,
					"internalType": "bytes32",
					"name": "role",
					"type": "bytes32"
				},
				{
					"indexed": true,
					"internalType": "address",
					"name": "account",
					"type": "address"
				},
				{
					"indexed": true,
					"internalType": "address",
					"name": "sender",
					"type": "address"
				}
			],
			"name": "RoleRevoked",
			"type": "event"
		},
		{
			"anonymous": false,
			"inputs": [
				{
					"indexed": true,
					"internalType": "address",
					"name": "operator",
					"type": "address"
				},
				{
					"indexed": true,
					"internalType": "address",
					"name": "from",
					"type": "address"
				},
				{
					"indexed": true,
					"internalType": "address",
					"name": "to",
					"type": "address"
				},
				{
					"indexed": false,
					"internalType": "uint256[]",
					"name": "ids",
					"type": "uint256[]"
				},
				{
					"indexed": false,
					"internalType": "uint256[]",
					"name": "values",
					"type": "uint256[]"
				}
			],
			"name": "TransferBatch",
			"type": "event"
		},
		{
			"anonymous": false,
			"inputs": [
				{
					"indexed": true,
					"internalType": "address",
					"name": "operator",
					"type": "address"
				},
				{
					"indexed": true,
					"internalType": "address",
					"name": "from",
					"type": "address"
				},
				{
					"indexed": true,
					"internalType": "address",
					"name": "to",
					"type": "address"
				},
				{
					"indexed": false,
					"internalType": "uint256",
					"name": "id",
					"type": "uint256"
				},
				{
					"indexed": false,
					"internalType": "uint256",
					"name": "value",
					"type": "uint256"
				}
			],
			"name": "TransferSingle",
			"type": "event"
		},
		{
			"anonymous": false,
			"inputs": [
				{
					"indexed": false,
					"internalType": "string",
					"name": "value",
					"type": "string"
				},
				{
					"indexed": true,
					"internalType": "uint256",
					"name": "id",
					"type": "uint256"
				}
			],
			"name": "URI",
			"type": "event"
		},
		{
			"inputs": [],
			"name": "DEFAULT_ADMIN_ROLE",
			"outputs": [
				{
					"internalType": "bytes32",
					"name": "",
					"type": "bytes32"
				}
			],
			"stateMutability": "view",
			"type": "function"
		},
		{
			"inputs": [],
			"name": "MINTER_ROLE",
			"outputs": [
				{
					"internalType": "bytes32",
					"name": "",
					"type": "bytes32"
				}
			],
			"stateMutability": "view",
			"type": "function"
		},
		{
			"inputs": [],
			"name": "assetId",
			"outputs": [
				{
					"internalType": "uint8",
					"name": "",
					"type": "uint8"
				}
			],
			"stateMutability": "view",
			"type": "function"
		},
		{
			"inputs": [
				{
					"internalType": "uint16",
					"name": "",
					"type": "uint16"
				},
				{
					"internalType": "uint256",
					"name": "",
					"type": "uint256"
				}
			],
			"name": "assetsInFlorest",
			"outputs": [
				{
					"internalType": "string",
					"name": "geographicLocation",
					"type": "string"
				},
				{
					"internalType": "string",
					"name": "buyOrSellContractLink",
					"type": "string"
				},
				{
					"internalType": "enum COPF.NegociationType",
					"name": "assetTokenizationType",
					"type": "uint8"
				},
				{
					"internalType": "address",
					"name": "initialOwner",
					"type": "address"
				},
				{
					"internalType": "address",
					"name": "currentTokenOwner",
					"type": "address"
				},
				{
					"internalType": "enum COPF.AssetClassification",
					"name": "class",
					"type": "uint8"
				},
				{
					"internalType": "bool",
					"name": "isCurrentAssetAvailableForTransfer",
					"type": "bool"
				},
				{
					"internalType": "string",
					"name": "assetPropertyRegistration",
					"type": "string"
				}
			],
			"stateMutability": "view",
			"type": "function"
		},
		{
			"inputs": [
				{
					"internalType": "address",
					"name": "account",
					"type": "address"
				},
				{
					"internalType": "uint256",
					"name": "id",
					"type": "uint256"
				}
			],
			"name": "balanceOf",
			"outputs": [
				{
					"internalType": "uint256",
					"name": "",
					"type": "uint256"
				}
			],
			"stateMutability": "view",
			"type": "function"
		},
		{
			"inputs": [
				{
					"internalType": "address[]",
					"name": "accounts",
					"type": "address[]"
				},
				{
					"internalType": "uint256[]",
					"name": "ids",
					"type": "uint256[]"
				}
			],
			"name": "balanceOfBatch",
			"outputs": [
				{
					"internalType": "uint256[]",
					"name": "",
					"type": "uint256[]"
				}
			],
			"stateMutability": "view",
			"type": "function"
		},
		{
			"inputs": [
				{
					"internalType": "address",
					"name": "account",
					"type": "address"
				},
				{
					"internalType": "uint256",
					"name": "id",
					"type": "uint256"
				},
				{
					"internalType": "uint256",
					"name": "value",
					"type": "uint256"
				}
			],
			"name": "burn",
			"outputs": [],
			"stateMutability": "nonpayable",
			"type": "function"
		},
		{
			"inputs": [
				{
					"internalType": "address",
					"name": "account",
					"type": "address"
				},
				{
					"internalType": "uint256[]",
					"name": "ids",
					"type": "uint256[]"
				},
				{
					"internalType": "uint256[]",
					"name": "values",
					"type": "uint256[]"
				}
			],
			"name": "burnBatch",
			"outputs": [],
			"stateMutability": "nonpayable",
			"type": "function"
		},
		{
			"inputs": [],
			"name": "checkOwnership",
			"outputs": [
				{
					"internalType": "address",
					"name": "",
					"type": "address"
				}
			],
			"stateMutability": "view",
			"type": "function"
		},
		{
			"inputs": [
				{
					"internalType": "uint16",
					"name": "_plotsQuantityInCurrentFlorest",
					"type": "uint16"
				},
				{
					"internalType": "uint32",
					"name": "_tokenizationPercentageGivenToFlorest",
					"type": "uint32"
				},
				{
					"internalType": "enum COPF.WoodType",
					"name": "_woodTypeForFlorest",
					"type": "uint8"
				}
			],
			"name": "createAFlorest",
			"outputs": [
				{
					"internalType": "uint16",
					"name": "",
					"type": "uint16"
				}
			],
			"stateMutability": "nonpayable",
			"type": "function"
		},
		{
			"inputs": [
				{
					"components": [
						{
							"internalType": "string",
							"name": "localization",
							"type": "string"
						},
						{
							"internalType": "uint16",
							"name": "plotAge",
							"type": "uint16"
						},
						{
							"internalType": "uint16",
							"name": "plotPlantingYear",
							"type": "uint16"
						},
						{
							"internalType": "uint16",
							"name": "plotCutYear",
							"type": "uint16"
						},
						{
							"internalType": "enum COPF.WoodType",
							"name": "woodTypeForPlot",
							"type": "uint8"
						}
					],
					"internalType": "struct COPF.Plot",
					"name": "plot",
					"type": "tuple"
				},
				{
					"internalType": "uint8",
					"name": "_correspondingFlorest",
					"type": "uint8"
				}
			],
			"name": "createAPlot",
			"outputs": [
				{
					"components": [
						{
							"internalType": "string",
							"name": "localization",
							"type": "string"
						},
						{
							"internalType": "uint16",
							"name": "plotAge",
							"type": "uint16"
						},
						{
							"internalType": "uint16",
							"name": "plotPlantingYear",
							"type": "uint16"
						},
						{
							"internalType": "uint16",
							"name": "plotCutYear",
							"type": "uint16"
						},
						{
							"internalType": "enum COPF.WoodType",
							"name": "woodTypeForPlot",
							"type": "uint8"
						}
					],
					"internalType": "struct COPF.Plot",
					"name": "",
					"type": "tuple"
				}
			],
			"stateMutability": "nonpayable",
			"type": "function"
		},
		{
			"inputs": [
				{
					"components": [
						{
							"internalType": "string",
							"name": "geographicLocation",
							"type": "string"
						},
						{
							"internalType": "string",
							"name": "buyOrSellContractLink",
							"type": "string"
						},
						{
							"internalType": "enum COPF.NegociationType",
							"name": "assetTokenizationType",
							"type": "uint8"
						},
						{
							"internalType": "address",
							"name": "initialOwner",
							"type": "address"
						},
						{
							"internalType": "address",
							"name": "currentTokenOwner",
							"type": "address"
						},
						{
							"internalType": "enum COPF.AssetClassification",
							"name": "class",
							"type": "uint8"
						},
						{
							"internalType": "bool",
							"name": "isCurrentAssetAvailableForTransfer",
							"type": "bool"
						},
						{
							"internalType": "string",
							"name": "assetPropertyRegistration",
							"type": "string"
						}
					],
					"internalType": "struct COPF.Asset",
					"name": "asset",
					"type": "tuple"
				},
				{
					"internalType": "uint16",
					"name": "_correspondingFlorest",
					"type": "uint16"
				},
				{
					"internalType": "uint256[]",
					"name": "ids",
					"type": "uint256[]"
				},
				{
					"internalType": "uint256[]",
					"name": "amount",
					"type": "uint256[]"
				}
			],
			"name": "createAsset",
			"outputs": [],
			"stateMutability": "nonpayable",
			"type": "function"
		},
		{
			"inputs": [],
			"name": "currentYear",
			"outputs": [
				{
					"internalType": "uint16",
					"name": "",
					"type": "uint16"
				}
			],
			"stateMutability": "view",
			"type": "function"
		},
		{
			"inputs": [],
			"name": "dataRoomLink",
			"outputs": [
				{
					"internalType": "string",
					"name": "",
					"type": "string"
				}
			],
			"stateMutability": "view",
			"type": "function"
		},
		{
			"inputs": [
				{
					"internalType": "uint8",
					"name": "",
					"type": "uint8"
				}
			],
			"name": "florestsInProperty",
			"outputs": [
				{
					"internalType": "uint32",
					"name": "tokenizedPercentage",
					"type": "uint32"
				},
				{
					"internalType": "enum COPF.WoodType",
					"name": "woodTypeForFlorest",
					"type": "uint8"
				},
				{
					"internalType": "uint16",
					"name": "plotsQuantityInCurrentFlorest",
					"type": "uint16"
				},
				{
					"internalType": "uint32",
					"name": "tokenizationPercentageGivenToFlorest",
					"type": "uint32"
				},
				{
					"internalType": "enum COPF.AssetClassification",
					"name": "class",
					"type": "uint8"
				},
				{
					"internalType": "uint8",
					"name": "plotId",
					"type": "uint8"
				}
			],
			"stateMutability": "view",
			"type": "function"
		},
		{
			"inputs": [],
			"name": "florestsQuantity",
			"outputs": [
				{
					"internalType": "uint16",
					"name": "",
					"type": "uint16"
				}
			],
			"stateMutability": "view",
			"type": "function"
		},
		{
			"inputs": [
				{
					"internalType": "uint8",
					"name": "_correspondingFlorest",
					"type": "uint8"
				}
			],
			"name": "getCurrentPlotNumberinFlorest",
			"outputs": [
				{
					"internalType": "uint8",
					"name": "",
					"type": "uint8"
				}
			],
			"stateMutability": "view",
			"type": "function"
		},
		{
			"inputs": [
				{
					"internalType": "uint8",
					"name": "_correspondingFlorest",
					"type": "uint8"
				}
			],
			"name": "getDefaultPlot",
			"outputs": [
				{
					"components": [
						{
							"internalType": "string",
							"name": "localization",
							"type": "string"
						},
						{
							"internalType": "uint16",
							"name": "plotAge",
							"type": "uint16"
						},
						{
							"internalType": "uint16",
							"name": "plotPlantingYear",
							"type": "uint16"
						},
						{
							"internalType": "uint16",
							"name": "plotCutYear",
							"type": "uint16"
						},
						{
							"internalType": "enum COPF.WoodType",
							"name": "woodTypeForPlot",
							"type": "uint8"
						}
					],
					"internalType": "struct COPF.Plot",
					"name": "",
					"type": "tuple"
				}
			],
			"stateMutability": "view",
			"type": "function"
		},
		{
			"inputs": [
				{
					"internalType": "uint8",
					"name": "_correspondingFlorest",
					"type": "uint8"
				},
				{
					"internalType": "uint16",
					"name": "_correspondingPlot",
					"type": "uint16"
				}
			],
			"name": "getPlot",
			"outputs": [
				{
					"components": [
						{
							"internalType": "string",
							"name": "localization",
							"type": "string"
						},
						{
							"internalType": "uint16",
							"name": "plotAge",
							"type": "uint16"
						},
						{
							"internalType": "uint16",
							"name": "plotPlantingYear",
							"type": "uint16"
						},
						{
							"internalType": "uint16",
							"name": "plotCutYear",
							"type": "uint16"
						},
						{
							"internalType": "enum COPF.WoodType",
							"name": "woodTypeForPlot",
							"type": "uint8"
						}
					],
					"internalType": "struct COPF.Plot",
					"name": "",
					"type": "tuple"
				}
			],
			"stateMutability": "view",
			"type": "function"
		},
		{
			"inputs": [
				{
					"internalType": "bytes32",
					"name": "role",
					"type": "bytes32"
				}
			],
			"name": "getRoleAdmin",
			"outputs": [
				{
					"internalType": "bytes32",
					"name": "",
					"type": "bytes32"
				}
			],
			"stateMutability": "view",
			"type": "function"
		},
		{
			"inputs": [
				{
					"internalType": "bytes32",
					"name": "role",
					"type": "bytes32"
				},
				{
					"internalType": "address",
					"name": "account",
					"type": "address"
				}
			],
			"name": "grantRole",
			"outputs": [],
			"stateMutability": "nonpayable",
			"type": "function"
		},
		{
			"inputs": [
				{
					"internalType": "bytes32",
					"name": "role",
					"type": "bytes32"
				},
				{
					"internalType": "address",
					"name": "account",
					"type": "address"
				}
			],
			"name": "hasRole",
			"outputs": [
				{
					"internalType": "bool",
					"name": "",
					"type": "bool"
				}
			],
			"stateMutability": "view",
			"type": "function"
		},
		{
			"inputs": [
				{
					"internalType": "address",
					"name": "account",
					"type": "address"
				},
				{
					"internalType": "address",
					"name": "operator",
					"type": "address"
				}
			],
			"name": "isApprovedForAll",
			"outputs": [
				{
					"internalType": "bool",
					"name": "",
					"type": "bool"
				}
			],
			"stateMutability": "view",
			"type": "function"
		},
		{
			"inputs": [],
			"name": "maxGlobalAllowedFlorestTokenizationPercentage",
			"outputs": [
				{
					"internalType": "uint32",
					"name": "",
					"type": "uint32"
				}
			],
			"stateMutability": "view",
			"type": "function"
		},
		{
			"inputs": [
				{
					"internalType": "address",
					"name": "_initialOwner",
					"type": "address"
				},
				{
					"internalType": "uint256[]",
					"name": "ids",
					"type": "uint256[]"
				},
				{
					"internalType": "uint256[]",
					"name": "amounts",
					"type": "uint256[]"
				}
			],
			"name": "mint",
			"outputs": [],
			"stateMutability": "nonpayable",
			"type": "function"
		},
		{
			"inputs": [],
			"name": "owner",
			"outputs": [
				{
					"internalType": "address",
					"name": "",
					"type": "address"
				}
			],
			"stateMutability": "view",
			"type": "function"
		},
		{
			"inputs": [],
			"name": "propertyRegistration",
			"outputs": [
				{
					"internalType": "uint256",
					"name": "",
					"type": "uint256"
				}
			],
			"stateMutability": "view",
			"type": "function"
		},
		{
			"inputs": [],
			"name": "renounceOwnership",
			"outputs": [],
			"stateMutability": "nonpayable",
			"type": "function"
		},
		{
			"inputs": [
				{
					"internalType": "bytes32",
					"name": "role",
					"type": "bytes32"
				},
				{
					"internalType": "address",
					"name": "account",
					"type": "address"
				}
			],
			"name": "renounceRole",
			"outputs": [],
			"stateMutability": "nonpayable",
			"type": "function"
		},
		{
			"inputs": [
				{
					"internalType": "uint8",
					"name": "_correspondingFlorest",
					"type": "uint8"
				},
				{
					"internalType": "uint16",
					"name": "_newPlotQuantityInFlorest",
					"type": "uint16"
				}
			],
			"name": "resetPlotQuantityinFlorest",
			"outputs": [],
			"stateMutability": "nonpayable",
			"type": "function"
		},
		{
			"inputs": [
				{
					"internalType": "bytes32",
					"name": "role",
					"type": "bytes32"
				},
				{
					"internalType": "address",
					"name": "account",
					"type": "address"
				}
			],
			"name": "revokeRole",
			"outputs": [],
			"stateMutability": "nonpayable",
			"type": "function"
		},
		{
			"inputs": [
				{
					"internalType": "address",
					"name": "from",
					"type": "address"
				},
				{
					"internalType": "address",
					"name": "to",
					"type": "address"
				},
				{
					"internalType": "uint256[]",
					"name": "ids",
					"type": "uint256[]"
				},
				{
					"internalType": "uint256[]",
					"name": "amounts",
					"type": "uint256[]"
				},
				{
					"internalType": "bytes",
					"name": "data",
					"type": "bytes"
				}
			],
			"name": "safeBatchTransferFrom",
			"outputs": [],
			"stateMutability": "nonpayable",
			"type": "function"
		},
		{
			"inputs": [
				{
					"internalType": "address",
					"name": "from",
					"type": "address"
				},
				{
					"internalType": "address",
					"name": "to",
					"type": "address"
				},
				{
					"internalType": "uint256",
					"name": "id",
					"type": "uint256"
				},
				{
					"internalType": "uint256",
					"name": "amount",
					"type": "uint256"
				},
				{
					"internalType": "bytes",
					"name": "data",
					"type": "bytes"
				}
			],
			"name": "safeTransferFrom",
			"outputs": [],
			"stateMutability": "nonpayable",
			"type": "function"
		},
		{
			"inputs": [
				{
					"internalType": "address",
					"name": "operator",
					"type": "address"
				},
				{
					"internalType": "bool",
					"name": "approved",
					"type": "bool"
				}
			],
			"name": "setApprovalForAll",
			"outputs": [],
			"stateMutability": "nonpayable",
			"type": "function"
		},
		{
			"inputs": [
				{
					"internalType": "uint16",
					"name": "_currentYear",
					"type": "uint16"
				}
			],
			"name": "setCurrentYear",
			"outputs": [],
			"stateMutability": "nonpayable",
			"type": "function"
		},
		{
			"inputs": [
				{
					"internalType": "bytes4",
					"name": "interfaceId",
					"type": "bytes4"
				}
			],
			"name": "supportsInterface",
			"outputs": [
				{
					"internalType": "bool",
					"name": "",
					"type": "bool"
				}
			],
			"stateMutability": "view",
			"type": "function"
		},
		{
			"inputs": [],
			"name": "tokenizationContractLink",
			"outputs": [
				{
					"internalType": "string",
					"name": "",
					"type": "string"
				}
			],
			"stateMutability": "view",
			"type": "function"
		},
		{
			"inputs": [
				{
					"components": [
						{
							"internalType": "string",
							"name": "geographicLocation",
							"type": "string"
						},
						{
							"internalType": "string",
							"name": "buyOrSellContractLink",
							"type": "string"
						},
						{
							"internalType": "enum COPF.NegociationType",
							"name": "assetTokenizationType",
							"type": "uint8"
						},
						{
							"internalType": "address",
							"name": "initialOwner",
							"type": "address"
						},
						{
							"internalType": "address",
							"name": "currentTokenOwner",
							"type": "address"
						},
						{
							"internalType": "enum COPF.AssetClassification",
							"name": "class",
							"type": "uint8"
						},
						{
							"internalType": "bool",
							"name": "isCurrentAssetAvailableForTransfer",
							"type": "bool"
						},
						{
							"internalType": "string",
							"name": "assetPropertyRegistration",
							"type": "string"
						}
					],
					"internalType": "struct COPF.Asset",
					"name": "_asset",
					"type": "tuple"
				},
				{
					"internalType": "uint32",
					"name": "_tokenizePercentage",
					"type": "uint32"
				},
				{
					"internalType": "uint8",
					"name": "_correspondingFlorest",
					"type": "uint8"
				}
			],
			"name": "tokenizeAssetInFlorest",
			"outputs": [],
			"stateMutability": "nonpayable",
			"type": "function"
		},
		{
			"inputs": [
				{
					"internalType": "address",
					"name": "newOwner",
					"type": "address"
				}
			],
			"name": "transferOwnership",
			"outputs": [],
			"stateMutability": "nonpayable",
			"type": "function"
		},
		{
			"inputs": [
				{
					"internalType": "uint256",
					"name": "",
					"type": "uint256"
				}
			],
			"name": "uri",
			"outputs": [
				{
					"internalType": "string",
					"name": "",
					"type": "string"
				}
			],
			"stateMutability": "view",
			"type": "function"
		},
		{
			"inputs": [],
			"name": "woodPropertyMaxPotential",
			"outputs": [
				{
					"internalType": "uint32",
					"name": "",
					"type": "uint32"
				}
			],
			"stateMutability": "view",
			"type": "function"
		}
	]
}