{
	"data": {
		"bytecode": {
			"linkReferences": {},
			"object": "60a06040527f9f2df0fed2c77648de5860a4cc508cd0818c85b8b8a1ab4ceeef8d981c8956a6608052600a80546bffffffff000000ffffffffff19166a0138800000000007e701011790553480156200005757600080fd5b50604051620049fc380380620049fc8339810160408190526200007a916200033b565b604051806060016040528060278152602001620049d5602791393384620000a182620000d6565b620000ae60008362000126565b608051620000bd908262000126565b50620000cb905081620001af565b505050505062000407565b600080546001600160a01b038381166001600160a01b0319831681178455604051919092169283917f8be0079c531659141344cd1fd0a4f28419497f9722a3daafe3b4186f6b6457e09190a35050565b60008281526001602090815260408083206001600160a01b038516845290915290205460ff16620001ab5760008281526001602081815260408084206001600160a01b0386168086529252808420805460ff19169093179092559051339285917f2f8788117e7eff1d82e926ec794901d17c78024a50270940304540a733656f0d9190a45b5050565b8051620001ab906004906020840190828054620001cc90620003cb565b90600052602060002090601f016020900481019282620001f057600085556200023b565b82601f106200020b57805160ff19168380011785556200023b565b828001600101855582156200023b579182015b828111156200023b5782518255916020019190600101906200021e565b50620002499291506200024d565b5090565b5b808211156200024957600081556001016200024e565b80516001600160a01b03811681146200027c57600080fd5b919050565b634e487b7160e01b600052604160045260246000fd5b600082601f830112620002a957600080fd5b815160206001600160401b0380831115620002c857620002c862000281565b8260051b604051601f19603f83011681018181108482111715620002f057620002f062000281565b6040529384528581018301938381019250878511156200030f57600080fd5b83870191505b84821015620003305781518352918301919083019062000315565b979650505050505050565b600080600080608085870312156200035257600080fd5b6200035d8562000264565b93506200036d6020860162000264565b60408601519093506001600160401b03808211156200038b57600080fd5b620003998883890162000297565b93506060870151915080821115620003b057600080fd5b50620003bf8782880162000297565b91505092959194509250565b600181811c90821680620003e057607f821691505b6020821081036200040157634e487b7160e01b600052602260045260246000fd5b50919050565b60805161459d620004386000396000818161059301528181611a8701528181611fd80152612589015261459d6000f3fe608060405234801561001057600080fd5b506004361061025d5760003560e01c80638da5cb5b11610146578063d547741f116100c3578063f242432a11610087578063f242432a1461063b578063f2fde38b1461064e578063f5298aca14610661578063f70efa9714610674578063fa7a02a514610687578063fc851323146106b457600080fd5b8063d547741f146105b5578063e985e9c5146105c8578063ea3994bc14610604578063ed00892114610617578063f0e404c01461061f57600080fd5b8063a22cb4651161010a578063a22cb46514610540578063a768396a14610553578063a9f920ed1461055b578063c781b9491461056e578063d53913931461058e57600080fd5b80638da5cb5b146104f85780638ec3ca141461050957806391d14854146105125780639727756a14610525578063a217fddf1461053857600080fd5b80632eb2c2d6116101df5780634e1273f4116101a35780634e1273f41461041557806358609177146104355780636b20c4541461045a5780636cd476231461046d578063715018a6146104dd578063764c1d96146104e557600080fd5b80632eb2c2d61461039d5780632f2ff15d146103b057806336568abe146103c357806344de240a146103d65780634b5e91d4146103f557600080fd5b806313516037116102265780631351603714610305578063219a1d771461031a578063248a9ca31461033f5780632a5a1dbc146103635780632d9c98dc1461037657600080fd5b8062fdd58e1461026257806301ffc9a714610288578063072a27a7146102ab5780630b5a006b146102d15780630e89341c146102e5575b600080fd5b6102756102703660046132a2565b6106c2565b6040519081526020015b60405180910390f35b61029b6102963660046132e2565b61075a565b604051901515815260200161027f565b6102be6102b936600461333d565b61076b565b60405161ffff909116815260200161027f565b600a546102be9062010000900461ffff1681565b6102f86102f3366004613384565b61087b565b60405161027f91906133f5565b610318610313366004613419565b61090f565b005b6000546001600160a01b03165b6040516001600160a01b03909116815260200161027f565b61027561034d366004613384565b6000908152600160208190526040909120015490565b6103186103713660046136dc565b61094c565b610389610384366004613774565b610f84565b60405161027f9897969594939291906137d1565b6103186103ab36600461385a565b61119f565b6103186103be366004613903565b6111eb565b6103186103d1366004613903565b611216565b600a546103e39060ff1681565b60405160ff909116815260200161027f565b610408610403366004613926565b611294565b60405161027f9190613941565b6104286104233660046139a7565b6113f8565b60405161027f9190613aac565b600e546104459063ffffffff1681565b60405163ffffffff909116815260200161027f565b610318610468366004613abf565b611521565b6104cb61047b366004613926565b600d6020526000908152604090205463ffffffff8082169160ff600160201b820481169261ffff600160281b84041692600160381b810490911691600160581b8204811691600160601b90041686565b60405161027f96959493929190613b32565b610318611564565b6104086104f3366004613b85565b611578565b6000546001600160a01b0316610327565b61027560055481565b61029b610520366004613903565b611a5a565b610318610533366004613c92565b611a85565b610275600081565b61031861054e366004613d12565b611b82565b6102f8611b8d565b610318610569366004613d3c565b611c1b565b61058161057c366004613d99565b611cc0565b60405161027f9190613dc3565b6102757f000000000000000000000000000000000000000000000000000000000000000081565b6103186105c3366004613903565b611fb0565b61029b6105d6366004613e8a565b6001600160a01b03918216600090815260036020908152604080832093909416825291909152205460ff1690565b610318610612366004613eb4565b611fd6565b6102f8612021565b600a546104459068010000000000000000900463ffffffff1681565b610318610649366004613ecf565b61202e565b61031861065c366004613f33565b612073565b61031861066f366004613f4e565b6120ec565b610408610682366004613419565b61212f565b6103e3610695366004613926565b60ff9081166000908152600d6020526040902054600160601b90041690565b6008546102be9061ffff1681565b60006001600160a01b0383166107325760405162461bcd60e51b815260206004820152602a60248201527f455243313135353a2061646472657373207a65726f206973206e6f742061207660448201526930b634b21037bbb732b960b11b60648201526084015b60405180910390fd5b5060009081526002602090815260408083206001600160a01b03949094168352929052205490565b60006107658261229a565b92915050565b60006107756122da565b620138808363ffffffff1611156107e55760405162461bcd60e51b815260206004820152602e60248201527f5468697320666c6f726573742063616e277420696e6672696e6765207468652060448201526d756e6976657273616c2072756c6560901b6064820152608401610729565b600a54610100900460ff166000908152600d6020526040902080548390829064ff000000001916600160201b83600181111561082357610823613790565b0217905550805463ffffffff8516600160381b026affffffff000000ffffffff1961ffff8816600160281b02166affffffffffff00ffffffff199092169190911717905550600a5460ff610100909104169392505050565b60606004805461088a90613f81565b80601f01602080910402602001604051908101604052809291908181526020018280546108b690613f81565b80156109035780601f106108d857610100808354040283529160200191610903565b820191906000526020600020905b8154815290600101906020018083116108e657829003601f168201915b50505050509050919050565b6109176122da565b60ff9091166000908152600d60205260409020805461ffff909216600160281b0266ffff000000000019909216919091179055565b60408051808201909152600381526269643160e81b6020820152600a54610976919060ff16612334565b600a5460ff16600103610b5d57600c60008461ffff1661ffff1681526020019081526020016000206040518061010001604052808660000151815260200186602001518152602001866040015160018111156109d4576109d4613790565b815260200186606001516001600160a01b0316815260200186608001516001600160a01b031681526020018660a001516001811115610a1557610a15613790565b815260c0870151151560208083019190915260e0880151604090920191909152825460018101845560009384529281902082518051939460050290910192610a6092849201906131ed565b506020828101518051610a7992600185019201906131ed565b50604082015160028201805460ff191660018381811115610a9c57610a9c613790565b021790555060608201516002820180546001600160a01b0392831661010002610100600160a81b03199091161790556080830151600383018054919092166001600160a01b031982168117835560a085015192916001600160a81b03191617600160a01b836001811115610b1257610b12613790565b021790555060c0820151600382018054911515600160a81b0260ff60a81b1990921691909117905560e08201518051610b559160048401916020909101906131ed565b505050610edc565b61ffff83166000908152600c6020526040902054610b7a90612379565b60005b61ffff84166000908152600c602052604090205460ff82161015610d055761ffff84166000908152600c60205260408120805460ff8416908110610bc357610bc3613fbb565b90600052602060002090600502016000019050610c68818054610be590613f81565b80601f0160208091040260200160405190810160405280929190818152602001828054610c1190613f81565b8015610c5e5780601f10610c3357610100808354040283529160200191610c5e565b820191906000526020600020905b815481529060010190602001808311610c4157829003601f168201915b50505050506123be565b80604051602001610c799190613fd1565b60408051601f1981840301815290829052805160209182012088519092610ca0920161406c565b6040516020818303038152906040528051906020012003610cf25760405162461bcd60e51b815260206004820152600c60248201526b61737365742065786973747360a01b6044820152606401610729565b5080610cfd8161409e565b915050610b7d565b50600c60008461ffff1661ffff168152602001908152602001600020604051806101000160405280866000015181526020018660200151815260200186604001516001811115610d5757610d57613790565b815260200186606001516001600160a01b0316815260200186608001516001600160a01b031681526020018660a001516001811115610d9857610d98613790565b815260c0870151151560208083019190915260e0880151604090920191909152825460018101845560009384529281902082518051939460050290910192610de392849201906131ed565b506020828101518051610dfc92600185019201906131ed565b50604082015160028201805460ff191660018381811115610e1f57610e1f613790565b021790555060608201516002820180546001600160a01b0392831661010002610100600160a81b03199091161790556080830151600383018054919092166001600160a01b031982168117835560a085015192916001600160a81b03191617600160a01b836001811115610e9557610e95613790565b021790555060c0820151600382018054911515600160a81b0260ff60a81b1990921691909117905560e08201518051610ed89160048401916020909101906131ed565b5050505b610efb8460800151838360405180602001604052806000815250612401565b610f0b8460800151336001612587565b600a805460ff16906000610f1e8361409e565b82546101009290920a60ff8181021990931691831602179091556040805180820190915260028152611a5960f21b6020820152600a54610f619350909116612334565b61ffff83166000908152600c6020526040902054610f7e90612379565b50505050565b600c6020528160005260406000208181548110610fa057600080fd5b906000526020600020906005020160009150915050806000018054610fc490613f81565b80601f0160208091040260200160405190810160405280929190818152602001828054610ff090613f81565b801561103d5780601f106110125761010080835404028352916020019161103d565b820191906000526020600020905b81548152906001019060200180831161102057829003601f168201915b50505050509080600101805461105290613f81565b80601f016020809104026020016040519081016040528092919081815260200182805461107e90613f81565b80156110cb5780601f106110a0576101008083540402835291602001916110cb565b820191906000526020600020905b8154815290600101906020018083116110ae57829003601f168201915b5050505060028301546003840154600485018054949560ff808516966101009095046001600160a01b039081169650841694600160a01b8504821694600160a81b9004909116929061111c90613f81565b80601f016020809104026020016040519081016040528092919081815260200182805461114890613f81565b80156111955780601f1061116a57610100808354040283529160200191611195565b820191906000526020600020905b81548152906001019060200180831161117857829003601f168201915b5050505050905088565b6001600160a01b0385163314806111bb57506111bb85336105d6565b6111d75760405162461bcd60e51b8152600401610729906140bd565b6111e485858585856125bc565b5050505050565b600082815260016020819052604090912001546112078161275b565b6112118383612765565b505050565b6001600160a01b03811633146112865760405162461bcd60e51b815260206004820152602f60248201527f416363657373436f6e74726f6c3a2063616e206f6e6c792072656e6f756e636560448201526e103937b632b9903337b91039b2b63360891b6064820152608401610729565b61129082826127d0565b5050565b6112c36040805160a0810182526060808252600060208301819052928201839052810182905290608082015290565b60ff82166000908152600b60205260408120805482906112e5576112e5613fbb565b90600052602060002090600202019050806040518060a001604052908160008201805461131190613f81565b80601f016020809104026020016040519081016040528092919081815260200182805461133d90613f81565b801561138a5780601f1061135f5761010080835404028352916020019161138a565b820191906000526020600020905b81548152906001019060200180831161136d57829003601f168201915b505050918352505060018281015461ffff808216602085015262010000820481166040850152600160201b8204166060840152608090920191600160301b900460ff16908111156113dd576113dd613790565b60018111156113ee576113ee613790565b9052509392505050565b6060815183511461145d5760405162461bcd60e51b815260206004820152602960248201527f455243313135353a206163636f756e747320616e6420696473206c656e677468604482015268040dad2e6dac2e8c6d60bb1b6064820152608401610729565b600083516001600160401b038111156114785761147861344c565b6040519080825280602002602001820160405280156114a1578160200160208202803683370190505b50905060005b8451811015611519576114ec8582815181106114c5576114c5613fbb565b60200260200101518583815181106114df576114df613fbb565b60200260200101516106c2565b8282815181106114fe576114fe613fbb565b60209081029190910101526115128161410b565b90506114a7565b509392505050565b6001600160a01b03831633148061153d575061153d83336105d6565b6115595760405162461bcd60e51b8152600401610729906140bd565b611211838383612837565b61156c6122da565b61157660006129c4565b565b6115a76040805160a0810182526060808252600060208301819052928201839052810182905290608082015290565b60ff8083166000908152600d602052604090208054909161ffff600160281b830416916115de91600160601b909104166001614124565b60ff16111561161a5760405162461bcd60e51b8152602060048201526008602482015267195e18d95959195960c21b6044820152606401610729565b8360800151600181111561163057611630613790565b8154600160201b900460ff16600181111561164d5761164d613790565b146116855760405162461bcd60e51b8152602060048201526008602482015267191a59999ddbdbd960c21b6044820152606401610729565b8054600160601b900460ff166000036117fb57600b60008460ff1661ffff1681526020019081526020016000206040518060a0016040528086600001518152602001866020015161ffff168152602001866040015161ffff168152602001866060015161ffff1681526020018660800151600181111561170757611707613790565b90528154600181018355600092835260209283902082518051939460029093029091019261173892849201906131ed565b506020820151600180830180546040860151606087015161ffff908116600160201b0265ffff0000000019928216620100000263ffffffff1990941691909616179190911790811684178255608086015193919266ff0000000000001990921666ffffff00000000199091161790600160301b9084908111156117bd576117bd613790565b0217905550508154600160601b900460ff16905081600c6117dd8361409e565b91906101000a81548160ff021916908360ff16021790555050611a53565b60ff83166000908152600b602052604081208054829061181d5761181d613fbb565b906000526020600020906002020190508060010160069054906101000a900460ff16600181111561185057611850613790565b8560800151600181111561186657611866613790565b146118a45760405162461bcd60e51b815260206004820152600e60248201526d3bb7b7b2103a3cb832903730b4b360911b6044820152606401610729565b6001810154602086015161ffff9081169116146118f35760405162461bcd60e51b815260206004820152600d60248201526c383637ba1030b3b2903730b4b360991b6044820152606401610729565b600b60008560ff1661ffff1681526020019081526020016000206040518060a0016040528087600001518152602001876020015161ffff168152602001876040015161ffff168152602001876060015161ffff1681526020018760800151600181111561196257611962613790565b90528154600181018355600092835260209283902082518051939460029093029091019261199392849201906131ed565b506020820151600180830180546040860151606087015161ffff908116600160201b0265ffff0000000019928216620100000263ffffffff1990941691909616179190911790811684178255608086015193919266ff0000000000001990921666ffffff00000000199091161790600160301b908490811115611a1857611a18613790565b0217905550508254600160601b900460ff16905082600c611a388361409e565b91906101000a81548160ff021916908360ff16021790555050505b5092915050565b60009182526001602090815260408084206001600160a01b0393909316845291905290205460ff1690565b7f0000000000000000000000000000000000000000000000000000000000000000611aaf8161275b565b600a805460009160ff9091169082611ac68361409e565b91906101000a81548160ff021916908360ff1602179055509050611b6d8787878080602002602001604051908101604052809392919081815260200183836020028082843760009201919091525050604080516020808b0282810182019093528a82529093508a925089918291850190849080828437600092019190915250506040805180820190915260078152666d696e74696e6760c81b602082015291506124019050565b611b7987336001612587565b50505050505050565b611290338383612a14565b60078054611b9a90613f81565b80601f0160208091040260200160405190810160405280929190818152602001828054611bc690613f81565b8015611c135780601f10611be857610100808354040283529160200191611c13565b820191906000526020600020905b815481529060010190602001808311611bf657829003601f168201915b505050505081565b60ff81166000908152600d60205260409020805463ffffffff600160381b90910481169084161115611ca35760405162461bcd60e51b815260206004820152602b60248201527f666c6f72657374206e6f7420616c6c6f77656420746f20746f6b656e697a652060448201526a1d1a1a5cc8185b5bdd5b9d60aa1b6064820152608401610729565b805463ffffffff191663ffffffff93909316929092179091555050565b611d096040805161010081018252606080825260208201529081016000815260006020820181905260408201819052606090910190815260006020820152606060409091015290565b61ffff83166000908152600c60205260409020805460ff8416908110611d3157611d31613fbb565b906000526020600020906005020160405180610100016040529081600082018054611d5b90613f81565b80601f0160208091040260200160405190810160405280929190818152602001828054611d8790613f81565b8015611dd45780601f10611da957610100808354040283529160200191611dd4565b820191906000526020600020905b815481529060010190602001808311611db757829003601f168201915b50505050508152602001600182018054611ded90613f81565b80601f0160208091040260200160405190810160405280929190818152602001828054611e1990613f81565b8015611e665780601f10611e3b57610100808354040283529160200191611e66565b820191906000526020600020905b815481529060010190602001808311611e4957829003601f168201915b5050509183525050600282015460209091019060ff166001811115611e8d57611e8d613790565b6001811115611e9e57611e9e613790565b8152600282015461010090046001600160a01b03908116602083015260038301549081166040830152606090910190600160a01b900460ff166001811115611ee857611ee8613790565b6001811115611ef957611ef9613790565b81526003820154600160a81b900460ff1615156020820152600482018054604090920191611f2690613f81565b80601f0160208091040260200160405190810160405280929190818152602001828054611f5290613f81565b8015611f9f5780601f10611f7457610100808354040283529160200191611f9f565b820191906000526020600020905b815481529060010190602001808311611f8257829003601f168201915b505050505081525050905092915050565b60008281526001602081905260409091200154611fcc8161275b565b61121183836127d0565b7f00000000000000000000000000000000000000000000000000000000000000006120008161275b565b50600a805461ffff909216620100000263ffff000019909216919091179055565b60068054611b9a90613f81565b6001600160a01b03851633148061204a575061204a85336105d6565b6120665760405162461bcd60e51b8152600401610729906140bd565b6111e48585858585612af4565b61207b6122da565b6001600160a01b0381166120e05760405162461bcd60e51b815260206004820152602660248201527f4f776e61626c653a206e6577206f776e657220697320746865207a65726f206160448201526564647265737360d01b6064820152608401610729565b6120e9816129c4565b50565b6001600160a01b038316331480612108575061210883336105d6565b6121245760405162461bcd60e51b8152600401610729906140bd565b611211838383612c22565b61215e6040805160a0810182526060808252600060208301819052928201839052810182905290608082015290565b60ff83166000908152600b60205260408120805461ffff851690811061218657612186613fbb565b90600052602060002090600202019050806040518060a00160405290816000820180546121b290613f81565b80601f01602080910402602001604051908101604052809291908181526020018280546121de90613f81565b801561222b5780601f106122005761010080835404028352916020019161222b565b820191906000526020600020905b81548152906001019060200180831161220e57829003601f168201915b505050918352505060018281015461ffff808216602085015262010000820481166040850152600160201b8204166060840152608090920191600160301b900460ff169081111561227e5761227e613790565b600181111561228f5761228f613790565b905250949350505050565b60006001600160e01b03198216636cdb3d1360e11b14806122cb57506001600160e01b031982166303a24d0760e21b145b80610765575061076582612d29565b6000546001600160a01b031633146115765760405162461bcd60e51b815260206004820181905260248201527f4f776e61626c653a2063616c6c6572206973206e6f7420746865206f776e65726044820152606401610729565b611290828260405160240161234a929190614149565b60408051601f198184030181529190526020810180516001600160e01b0316632d839cb360e21b179052612d5e565b6120e98160405160240161238f91815260200190565b60408051601f198184030181529190526020810180516001600160e01b031663f82c50f160e01b179052612d5e565b6120e9816040516024016123d291906133f5565b60408051601f198184030181529190526020810180516001600160e01b031663104c13eb60e21b179052612d5e565b6001600160a01b0384166124615760405162461bcd60e51b815260206004820152602160248201527f455243313135353a206d696e7420746f20746865207a65726f206164647265736044820152607360f81b6064820152608401610729565b81518351146124825760405162461bcd60e51b81526004016107299061416b565b3360005b845181101561251f578381815181106124a1576124a1613fbb565b6020026020010151600260008784815181106124bf576124bf613fbb565b602002602001015181526020019081526020016000206000886001600160a01b03166001600160a01b03168152602001908152602001600020600082825461250791906141b3565b909155508190506125178161410b565b915050612486565b50846001600160a01b031660006001600160a01b0316826001600160a01b03167f4a39dc06d4c0dbc64b70af90fd698a233a518aa5d07e595d983b8c0526c8f7fb87876040516125709291906141cb565b60405180910390a46111e481600087878787612d7f565b7f00000000000000000000000000000000000000000000000000000000000000006125b18161275b565b610f7e848484612a14565b81518351146125dd5760405162461bcd60e51b81526004016107299061416b565b6001600160a01b0384166126035760405162461bcd60e51b8152600401610729906141f9565b3360005b84518110156126ed57600085828151811061262457612624613fbb565b60200260200101519050600085838151811061264257612642613fbb565b60209081029190910181015160008481526002835260408082206001600160a01b038e1683529093529190912054909150818110156126935760405162461bcd60e51b81526004016107299061423e565b60008381526002602090815260408083206001600160a01b038e8116855292528083208585039055908b168252812080548492906126d29084906141b3565b92505081905550505050806126e69061410b565b9050612607565b50846001600160a01b0316866001600160a01b0316826001600160a01b03167f4a39dc06d4c0dbc64b70af90fd698a233a518aa5d07e595d983b8c0526c8f7fb878760405161273d9291906141cb565b60405180910390a4612753818787878787612d7f565b505050505050565b6120e98133612eda565b61276f8282611a5a565b6112905760008281526001602081815260408084206001600160a01b0386168086529252808420805460ff19169093179092559051339285917f2f8788117e7eff1d82e926ec794901d17c78024a50270940304540a733656f0d9190a45050565b6127da8282611a5a565b156112905760008281526001602090815260408083206001600160a01b0385168085529252808320805460ff1916905551339285917ff6391f5c32d9c69d2a47ea670b442974b53935d1edc7fd64eb21e047a839171b9190a45050565b6001600160a01b03831661285d5760405162461bcd60e51b815260040161072990614288565b805182511461287e5760405162461bcd60e51b81526004016107299061416b565b604080516020810190915260009081905233905b83518110156129575760008482815181106128af576128af613fbb565b6020026020010151905060008483815181106128cd576128cd613fbb565b60209081029190910181015160008481526002835260408082206001600160a01b038c16835290935291909120549091508181101561291e5760405162461bcd60e51b8152600401610729906142cb565b60009283526002602090815260408085206001600160a01b038b168652909152909220910390558061294f8161410b565b915050612892565b5060006001600160a01b0316846001600160a01b0316826001600160a01b03167f4a39dc06d4c0dbc64b70af90fd698a233a518aa5d07e595d983b8c0526c8f7fb86866040516129a89291906141cb565b60405180910390a4604080516020810190915260009052610f7e565b600080546001600160a01b038381166001600160a01b0319831681178455604051919092169283917f8be0079c531659141344cd1fd0a4f28419497f9722a3daafe3b4186f6b6457e09190a35050565b816001600160a01b0316836001600160a01b031603612a875760405162461bcd60e51b815260206004820152602960248201527f455243313135353a2073657474696e6720617070726f76616c20737461747573604482015268103337b91039b2b63360b91b6064820152608401610729565b6001600160a01b03838116600081815260036020908152604080832094871680845294825291829020805460ff191686151590811790915591519182527f17307eab39ab6107e8899845ad3d59bd9653f200f220920489ca2b5937696c31910160405180910390a3505050565b6001600160a01b038416612b1a5760405162461bcd60e51b8152600401610729906141f9565b336000612b2685612f33565b90506000612b3385612f33565b905060008681526002602090815260408083206001600160a01b038c16845290915290205485811015612b785760405162461bcd60e51b81526004016107299061423e565b60008781526002602090815260408083206001600160a01b038d8116855292528083208985039055908a16825281208054889290612bb79084906141b3565b909155505060408051888152602081018890526001600160a01b03808b16928c821692918816917fc3d58168c5ae7397731d063d5bbf3d657854427343f4c083240f7aacaa2d0f62910160405180910390a4612c17848a8a8a8a8a612f7e565b505050505050505050565b6001600160a01b038316612c485760405162461bcd60e51b815260040161072990614288565b336000612c5484612f33565b90506000612c6184612f33565b6040805160208082018352600091829052888252600281528282206001600160a01b038b1683529052205490915084811015612caf5760405162461bcd60e51b8152600401610729906142cb565b60008681526002602090815260408083206001600160a01b038b81168086529184528285208a8703905582518b81529384018a90529092908816917fc3d58168c5ae7397731d063d5bbf3d657854427343f4c083240f7aacaa2d0f62910160405180910390a4604080516020810190915260009052611b79565b60006001600160e01b03198216637965db0b60e01b148061076557506301ffc9a760e01b6001600160e01b0319831614610765565b80516a636f6e736f6c652e6c6f67602083016000808483855afa5050505050565b6001600160a01b0384163b156127535760405163bc197c8160e01b81526001600160a01b0385169063bc197c8190612dc3908990899088908890889060040161430f565b6020604051808303816000875af1925050508015612dfe575060408051601f3d908101601f19168201909252612dfb9181019061436d565b60015b612eaa57612e0a61438a565b806308c379a003612e435750612e1e6143a6565b80612e295750612e45565b8060405162461bcd60e51b815260040161072991906133f5565b505b60405162461bcd60e51b815260206004820152603460248201527f455243313135353a207472616e7366657220746f206e6f6e2d455243313135356044820152732932b1b2b4bb32b91034b6b83632b6b2b73a32b960611b6064820152608401610729565b6001600160e01b0319811663bc197c8160e01b14611b795760405162461bcd60e51b81526004016107299061442f565b612ee48282611a5a565b61129057612ef181613039565b612efc83602061304b565b604051602001612f0d929190614477565b60408051601f198184030181529082905262461bcd60e51b8252610729916004016133f5565b60408051600180825281830190925260609160009190602080830190803683370190505090508281600081518110612f6d57612f6d613fbb565b602090810291909101015292915050565b6001600160a01b0384163b156127535760405163f23a6e6160e01b81526001600160a01b0385169063f23a6e6190612fc290899089908890889088906004016144ec565b6020604051808303816000875af1925050508015612ffd575060408051601f3d908101601f19168201909252612ffa9181019061436d565b60015b61300957612e0a61438a565b6001600160e01b0319811663f23a6e6160e01b14611b795760405162461bcd60e51b81526004016107299061442f565b60606107656001600160a01b03831660145b6060600061305a836002614531565b6130659060026141b3565b6001600160401b0381111561307c5761307c61344c565b6040519080825280601f01601f1916602001820160405280156130a6576020820181803683370190505b509050600360fc1b816000815181106130c1576130c1613fbb565b60200101906001600160f81b031916908160001a905350600f60fb1b816001815181106130f0576130f0613fbb565b60200101906001600160f81b031916908160001a9053506000613114846002614531565b61311f9060016141b3565b90505b6001811115613197576f181899199a1a9b1b9c1cb0b131b232b360811b85600f166010811061315357613153613fbb565b1a60f81b82828151811061316957613169613fbb565b60200101906001600160f81b031916908160001a90535060049490941c9361319081614550565b9050613122565b5083156131e65760405162461bcd60e51b815260206004820181905260248201527f537472696e67733a20686578206c656e67746820696e73756666696369656e746044820152606401610729565b9392505050565b8280546131f990613f81565b90600052602060002090601f01602090048101928261321b5760008555613261565b82601f1061323457805160ff1916838001178555613261565b82800160010185558215613261579182015b82811115613261578251825591602001919060010190613246565b5061326d929150613271565b5090565b5b8082111561326d5760008155600101613272565b80356001600160a01b038116811461329d57600080fd5b919050565b600080604083850312156132b557600080fd5b6132be83613286565b946020939093013593505050565b6001600160e01b0319811681146120e957600080fd5b6000602082840312156132f457600080fd5b81356131e6816132cc565b803561ffff8116811461329d57600080fd5b803563ffffffff8116811461329d57600080fd5b600281106120e957600080fd5b803561329d81613325565b60008060006060848603121561335257600080fd5b61335b846132ff565b925061336960208501613311565b9150604084013561337981613325565b809150509250925092565b60006020828403121561339657600080fd5b5035919050565b60005b838110156133b85781810151838201526020016133a0565b83811115610f7e5750506000910152565b600081518084526133e181602086016020860161339d565b601f01601f19169290920160200192915050565b6020815260006131e660208301846133c9565b803560ff8116811461329d57600080fd5b6000806040838503121561342c57600080fd5b61343583613408565b9150613443602084016132ff565b90509250929050565b634e487b7160e01b600052604160045260246000fd5b60a081018181106001600160401b03821117156134815761348161344c565b60405250565b601f8201601f191681016001600160401b03811182821017156134ac576134ac61344c565b6040525050565b60405161010081016001600160401b03811182821017156134d6576134d661344c565b60405290565b600082601f8301126134ed57600080fd5b81356001600160401b038111156135065761350661344c565b60405161351d601f8301601f191660200182613487565b81815284602083860101111561353257600080fd5b816020850160208301376000918101602001919091529392505050565b8035801515811461329d57600080fd5b6000610100828403121561357257600080fd5b61357a6134b3565b905081356001600160401b038082111561359357600080fd5b61359f858386016134dc565b835260208401359150808211156135b557600080fd5b6135c1858386016134dc565b60208401526135d260408501613332565b60408401526135e360608501613286565b60608401526135f460808501613286565b608084015261360560a08501613332565b60a084015261361660c0850161354f565b60c084015260e084013591508082111561362f57600080fd5b5061363c848285016134dc565b60e08301525092915050565b60006001600160401b038211156136615761366161344c565b5060051b60200190565b600082601f83011261367c57600080fd5b8135602061368982613648565b6040516136968282613487565b83815260059390931b85018201928281019150868411156136b657600080fd5b8286015b848110156136d157803583529183019183016136ba565b509695505050505050565b600080600080608085870312156136f257600080fd5b84356001600160401b038082111561370957600080fd5b6137158883890161355f565b9550613723602088016132ff565b9450604087013591508082111561373957600080fd5b6137458883890161366b565b9350606087013591508082111561375b57600080fd5b506137688782880161366b565b91505092959194509250565b6000806040838503121561378757600080fd5b6132be836132ff565b634e487b7160e01b600052602160045260246000fd5b600281106120e957634e487b7160e01b600052602160045260246000fd5b6137cd816137a6565b9052565b60006101008083526137e58184018c6133c9565b905082810360208401526137f9818b6133c9565b9050613804896137a6565b604083018990526001600160a01b0388811660608501528716608084015261382b866137a6565b8560a084015284151560c084015282810360e084015261384b81856133c9565b9b9a5050505050505050505050565b600080600080600060a0868803121561387257600080fd5b61387b86613286565b945061388960208701613286565b935060408601356001600160401b03808211156138a557600080fd5b6138b189838a0161366b565b945060608801359150808211156138c757600080fd5b6138d389838a0161366b565b935060808801359150808211156138e957600080fd5b506138f6888289016134dc565b9150509295509295909350565b6000806040838503121561391657600080fd5b8235915061344360208401613286565b60006020828403121561393857600080fd5b6131e682613408565b602081526000825160a0602084015261395d60c08401826133c9565b9050602084015161ffff808216604086015280604087015116606086015280606087015116608086015250506080840151613997816137a6565b60a0939093019290925250919050565b600080604083850312156139ba57600080fd5b82356001600160401b03808211156139d157600080fd5b818501915085601f8301126139e557600080fd5b813560206139f282613648565b6040516139ff8282613487565b83815260059390931b8501820192828101915089841115613a1f57600080fd5b948201945b83861015613a4457613a3586613286565b82529482019490820190613a24565b96505086013592505080821115613a5a57600080fd5b50613a678582860161366b565b9150509250929050565b600081518084526020808501945080840160005b83811015613aa157815187529582019590820190600101613a85565b509495945050505050565b6020815260006131e66020830184613a71565b600080600060608486031215613ad457600080fd5b613add84613286565b925060208401356001600160401b0380821115613af957600080fd5b613b058783880161366b565b93506040860135915080821115613b1b57600080fd5b50613b288682870161366b565b9150509250925092565b63ffffffff878116825260c0820190613b4a886137a6565b6020830188905261ffff8716604084015285166060830152613b6b846137a6565b83608083015260ff831660a0830152979650505050505050565b60008060408385031215613b9857600080fd5b82356001600160401b0380821115613baf57600080fd5b9084019060a08287031215613bc357600080fd5b604051613bcf81613462565b823582811115613bde57600080fd5b613bea888286016134dc565b825250613bf9602084016132ff565b6020820152613c0a604084016132ff565b6040820152613c1b606084016132ff565b606082015260808301359250613c3083613325565b608081019290925250915061344360208401613408565b60008083601f840112613c5957600080fd5b5081356001600160401b03811115613c7057600080fd5b6020830191508360208260051b8501011115613c8b57600080fd5b9250929050565b600080600080600060608688031215613caa57600080fd5b613cb386613286565b945060208601356001600160401b0380821115613ccf57600080fd5b613cdb89838a01613c47565b90965094506040880135915080821115613cf457600080fd5b50613d0188828901613c47565b969995985093965092949392505050565b60008060408385031215613d2557600080fd5b613d2e83613286565b91506134436020840161354f565b600080600060608486031215613d5157600080fd5b83356001600160401b03811115613d6757600080fd5b613d738682870161355f565b935050613d8260208501613311565b9150613d9060408501613408565b90509250925092565b60008060408385031215613dac57600080fd5b613db5836132ff565b915061344360208401613408565b6020815260008251610100806020850152613de26101208501836133c9565b91506020850151601f1980868503016040870152613e0084836133c9565b935060408701519150613e1660608701836137c4565b60608701516001600160a01b0381166080880152915060808701516001600160a01b03811660a0880152915060a08701519150613e5660c08701836137c4565b60c087015180151560e0880152915060e0870151915080868503018387015250613e8083826133c9565b9695505050505050565b60008060408385031215613e9d57600080fd5b613ea683613286565b915061344360208401613286565b600060208284031215613ec657600080fd5b6131e6826132ff565b600080600080600060a08688031215613ee757600080fd5b613ef086613286565b9450613efe60208701613286565b9350604086013592506060860135915060808601356001600160401b03811115613f2757600080fd5b6138f6888289016134dc565b600060208284031215613f4557600080fd5b6131e682613286565b600080600060608486031215613f6357600080fd5b613f6c84613286565b95602085013595506040909401359392505050565b600181811c90821680613f9557607f821691505b602082108103613fb557634e487b7160e01b600052602260045260246000fd5b50919050565b634e487b7160e01b600052603260045260246000fd5b600080835481600182811c915080831680613fed57607f831692505b6020808410820361400c57634e487b7160e01b86526022600452602486fd5b81801561402057600181146140315761405e565b60ff1986168952848901965061405e565b60008a81526020902060005b868110156140565781548b82015290850190830161403d565b505084890196505b509498975050505050505050565b6000825161407e81846020870161339d565b9190910192915050565b634e487b7160e01b600052601160045260246000fd5b600060ff821660ff81036140b4576140b4614088565b60010192915050565b6020808252602e908201527f455243313135353a2063616c6c6572206973206e6f7420746f6b656e206f776e60408201526d195c881bdc88185c1c1c9bdd995960921b606082015260800190565b60006001820161411d5761411d614088565b5060010190565b600060ff821660ff84168060ff0382111561414157614141614088565b019392505050565b60408152600061415c60408301856133c9565b90508260208301529392505050565b60208082526028908201527f455243313135353a2069647320616e6420616d6f756e7473206c656e677468206040820152670dad2e6dac2e8c6d60c31b606082015260800190565b600082198211156141c6576141c6614088565b500190565b6040815260006141de6040830185613a71565b82810360208401526141f08185613a71565b95945050505050565b60208082526025908201527f455243313135353a207472616e7366657220746f20746865207a65726f206164604082015264647265737360d81b606082015260800190565b6020808252602a908201527f455243313135353a20696e73756666696369656e742062616c616e636520666f60408201526939103a3930b739b332b960b11b606082015260800190565b60208082526023908201527f455243313135353a206275726e2066726f6d20746865207a65726f206164647260408201526265737360e81b606082015260800190565b60208082526024908201527f455243313135353a206275726e20616d6f756e7420657863656564732062616c604082015263616e636560e01b606082015260800190565b6001600160a01b0386811682528516602082015260a06040820181905260009061433b90830186613a71565b828103606084015261434d8186613a71565b9050828103608084015261436181856133c9565b98975050505050505050565b60006020828403121561437f57600080fd5b81516131e6816132cc565b600060033d11156143a35760046000803e5060005160e01c5b90565b600060443d10156143b45790565b6040516003193d81016004833e81513d6001600160401b0381602484011181841117156143e357505050505090565b82850191508151818111156143fb5750505050505090565b843d87010160208285010111156144155750505050505090565b61442460208286010187613487565b509095945050505050565b60208082526028908201527f455243313135353a204552433131353552656365697665722072656a656374656040820152676420746f6b656e7360c01b606082015260800190565b7f416363657373436f6e74726f6c3a206163636f756e74200000000000000000008152600083516144af81601785016020880161339d565b7001034b99036b4b9b9b4b733903937b6329607d1b60179184019182015283516144e081602884016020880161339d565b01602801949350505050565b6001600160a01b03868116825285166020820152604081018490526060810183905260a060808201819052600090614526908301846133c9565b979650505050505050565b600081600019048311821515161561454b5761454b614088565b500290565b60008161455f5761455f614088565b50600019019056fea2646970667358221220ec98c58178750dbb7d049ee68724e12ee0008b16fdec3790aa6e5c893718216364736f6c634300080e003368747470733a2f2f67616d652e6578616d706c652f6170692f6974656d2f7b69647d2e6a736f6e",
			"opcodes": "PUSH1 0xA0 PUSH1 0x40 MSTORE PUSH32 0x9F2DF0FED2C77648DE5860A4CC508CD0818C85B8B8A1AB4CEEEF8D981C8956A6 PUSH1 0x80 MSTORE PUSH1 0xA DUP1 SLOAD PUSH12 0xFFFFFFFF000000FFFFFFFFFF NOT AND PUSH11 0x138800000000007E70101 OR SWAP1 SSTORE CALLVALUE DUP1 ISZERO PUSH3 0x57 JUMPI PUSH1 0x0 DUP1 REVERT JUMPDEST POP PUSH1 0x40 MLOAD PUSH3 0x49FC CODESIZE SUB DUP1 PUSH3 0x49FC DUP4 CODECOPY DUP2 ADD PUSH1 0x40 DUP2 SWAP1 MSTORE PUSH3 0x7A SWAP2 PUSH3 0x33B JUMP JUMPDEST PUSH1 0x40 MLOAD DUP1 PUSH1 0x60 ADD PUSH1 0x40 MSTORE DUP1 PUSH1 0x27 DUP2 MSTORE PUSH1 0x20 ADD PUSH3 0x49D5 PUSH1 0x27 SWAP2 CODECOPY CALLER DUP5 PUSH3 0xA1 DUP3 PUSH3 0xD6 JUMP JUMPDEST PUSH3 0xAE PUSH1 0x0 DUP4 PUSH3 0x126 JUMP JUMPDEST PUSH1 0x80 MLOAD PUSH3 0xBD SWAP1 DUP3 PUSH3 0x126 JUMP JUMPDEST POP PUSH3 0xCB SWAP1 POP DUP2 PUSH3 0x1AF JUMP JUMPDEST POP POP POP POP POP PUSH3 0x407 JUMP JUMPDEST PUSH1 0x0 DUP1 SLOAD PUSH1 0x1 PUSH1 0x1 PUSH1 0xA0 SHL SUB DUP4 DUP2 AND PUSH1 0x1 PUSH1 0x1 PUSH1 0xA0 SHL SUB NOT DUP4 AND DUP2 OR DUP5 SSTORE PUSH1 0x40 MLOAD SWAP2 SWAP1 SWAP3 AND SWAP3 DUP4 SWAP2 PUSH32 0x8BE0079C531659141344CD1FD0A4F28419497F9722A3DAAFE3B4186F6B6457E0 SWAP2 SWAP1 LOG3 POP POP JUMP JUMPDEST PUSH1 0x0 DUP3 DUP2 MSTORE PUSH1 0x1 PUSH1 0x20 SWAP1 DUP2 MSTORE PUSH1 0x40 DUP1 DUP4 KECCAK256 PUSH1 0x1 PUSH1 0x1 PUSH1 0xA0 SHL SUB DUP6 AND DUP5 MSTORE SWAP1 SWAP2 MSTORE SWAP1 KECCAK256 SLOAD PUSH1 0xFF AND PUSH3 0x1AB JUMPI PUSH1 0x0 DUP3 DUP2 MSTORE PUSH1 0x1 PUSH1 0x20 DUP2 DUP2 MSTORE PUSH1 0x40 DUP1 DUP5 KECCAK256 PUSH1 0x1 PUSH1 0x1 PUSH1 0xA0 SHL SUB DUP7 AND DUP1 DUP7 MSTORE SWAP3 MSTORE DUP1 DUP5 KECCAK256 DUP1 SLOAD PUSH1 0xFF NOT AND SWAP1 SWAP4 OR SWAP1 SWAP3 SSTORE SWAP1 MLOAD CALLER SWAP3 DUP6 SWAP2 PUSH32 0x2F8788117E7EFF1D82E926EC794901D17C78024A50270940304540A733656F0D SWAP2 SWAP1 LOG4 JUMPDEST POP POP JUMP JUMPDEST DUP1 MLOAD PUSH3 0x1AB SWAP1 PUSH1 0x4 SWAP1 PUSH1 0x20 DUP5 ADD SWAP1 DUP3 DUP1 SLOAD PUSH3 0x1CC SWAP1 PUSH3 0x3CB JUMP JUMPDEST SWAP1 PUSH1 0x0 MSTORE PUSH1 0x20 PUSH1 0x0 KECCAK256 SWAP1 PUSH1 0x1F ADD PUSH1 0x20 SWAP1 DIV DUP2 ADD SWAP3 DUP3 PUSH3 0x1F0 JUMPI PUSH1 0x0 DUP6 SSTORE PUSH3 0x23B JUMP JUMPDEST DUP3 PUSH1 0x1F LT PUSH3 0x20B JUMPI DUP1 MLOAD PUSH1 0xFF NOT AND DUP4 DUP1 ADD OR DUP6 SSTORE PUSH3 0x23B JUMP JUMPDEST DUP3 DUP1 ADD PUSH1 0x1 ADD DUP6 SSTORE DUP3 ISZERO PUSH3 0x23B JUMPI SWAP2 DUP3 ADD JUMPDEST DUP3 DUP2 GT ISZERO PUSH3 0x23B JUMPI DUP3 MLOAD DUP3 SSTORE SWAP2 PUSH1 0x20 ADD SWAP2 SWAP1 PUSH1 0x1 ADD SWAP1 PUSH3 0x21E JUMP JUMPDEST POP PUSH3 0x249 SWAP3 SWAP2 POP PUSH3 0x24D JUMP JUMPDEST POP SWAP1 JUMP JUMPDEST JUMPDEST DUP1 DUP3 GT ISZERO PUSH3 0x249 JUMPI PUSH1 0x0 DUP2 SSTORE PUSH1 0x1 ADD PUSH3 0x24E JUMP JUMPDEST DUP1 MLOAD PUSH1 0x1 PUSH1 0x1 PUSH1 0xA0 SHL SUB DUP2 AND DUP2 EQ PUSH3 0x27C JUMPI PUSH1 0x0 DUP1 REVERT JUMPDEST SWAP2 SWAP1 POP JUMP JUMPDEST PUSH4 0x4E487B71 PUSH1 0xE0 SHL PUSH1 0x0 MSTORE PUSH1 0x41 PUSH1 0x4 MSTORE PUSH1 0x24 PUSH1 0x0 REVERT JUMPDEST PUSH1 0x0 DUP3 PUSH1 0x1F DUP4 ADD SLT PUSH3 0x2A9 JUMPI PUSH1 0x0 DUP1 REVERT JUMPDEST DUP2 MLOAD PUSH1 0x20 PUSH1 0x1 PUSH1 0x1 PUSH1 0x40 SHL SUB DUP1 DUP4 GT ISZERO PUSH3 0x2C8 JUMPI PUSH3 0x2C8 PUSH3 0x281 JUMP JUMPDEST DUP3 PUSH1 0x5 SHL PUSH1 0x40 MLOAD PUSH1 0x1F NOT PUSH1 0x3F DUP4 ADD AND DUP2 ADD DUP2 DUP2 LT DUP5 DUP3 GT OR ISZERO PUSH3 0x2F0 JUMPI PUSH3 0x2F0 PUSH3 0x281 JUMP JUMPDEST PUSH1 0x40 MSTORE SWAP4 DUP5 MSTORE DUP6 DUP2 ADD DUP4 ADD SWAP4 DUP4 DUP2 ADD SWAP3 POP DUP8 DUP6 GT ISZERO PUSH3 0x30F JUMPI PUSH1 0x0 DUP1 REVERT JUMPDEST DUP4 DUP8 ADD SWAP2 POP JUMPDEST DUP5 DUP3 LT ISZERO PUSH3 0x330 JUMPI DUP2 MLOAD DUP4 MSTORE SWAP2 DUP4 ADD SWAP2 SWAP1 DUP4 ADD SWAP1 PUSH3 0x315 JUMP JUMPDEST SWAP8 SWAP7 POP POP POP POP POP POP POP JUMP JUMPDEST PUSH1 0x0 DUP1 PUSH1 0x0 DUP1 PUSH1 0x80 DUP6 DUP8 SUB SLT ISZERO PUSH3 0x352 JUMPI PUSH1 0x0 DUP1 REVERT JUMPDEST PUSH3 0x35D DUP6 PUSH3 0x264 JUMP JUMPDEST SWAP4 POP PUSH3 0x36D PUSH1 0x20 DUP7 ADD PUSH3 0x264 JUMP JUMPDEST PUSH1 0x40 DUP7 ADD MLOAD SWAP1 SWAP4 POP PUSH1 0x1 PUSH1 0x1 PUSH1 0x40 SHL SUB DUP1 DUP3 GT ISZERO PUSH3 0x38B JUMPI PUSH1 0x0 DUP1 REVERT JUMPDEST PUSH3 0x399 DUP9 DUP4 DUP10 ADD PUSH3 0x297 JUMP JUMPDEST SWAP4 POP PUSH1 0x60 DUP8 ADD MLOAD SWAP2 POP DUP1 DUP3 GT ISZERO PUSH3 0x3B0 JUMPI PUSH1 0x0 DUP1 REVERT JUMPDEST POP PUSH3 0x3BF DUP8 DUP3 DUP9 ADD PUSH3 0x297 JUMP JUMPDEST SWAP2 POP POP SWAP3 SWAP6 SWAP2 SWAP5 POP SWAP3 POP JUMP JUMPDEST PUSH1 0x1 DUP2 DUP2 SHR SWAP1 DUP3 AND DUP1 PUSH3 0x3E0 JUMPI PUSH1 0x7F DUP3 AND SWAP2 POP JUMPDEST PUSH1 0x20 DUP3 LT DUP2 SUB PUSH3 0x401 JUMPI PUSH4 0x4E487B71 PUSH1 0xE0 SHL PUSH1 0x0 MSTORE PUSH1 0x22 PUSH1 0x4 MSTORE PUSH1 0x24 PUSH1 0x0 REVERT JUMPDEST POP SWAP2 SWAP1 POP JUMP JUMPDEST PUSH1 0x80 MLOAD PUSH2 0x459D PUSH3 0x438 PUSH1 0x0 CODECOPY PUSH1 0x0 DUP2 DUP2 PUSH2 0x593 ADD MSTORE DUP2 DUP2 PUSH2 0x1A87 ADD MSTORE DUP2 DUP2 PUSH2 0x1FD8 ADD MSTORE PUSH2 0x2589 ADD MSTORE PUSH2 0x459D PUSH1 0x0 RETURN INVALID PUSH1 0x80 PUSH1 0x40 MSTORE CALLVALUE DUP1 ISZERO PUSH2 0x10 JUMPI PUSH1 0x0 DUP1 REVERT JUMPDEST POP PUSH1 0x4 CALLDATASIZE LT PUSH2 0x25D JUMPI PUSH1 0x0 CALLDATALOAD PUSH1 0xE0 SHR DUP1 PUSH4 0x8DA5CB5B GT PUSH2 0x146 JUMPI DUP1 PUSH4 0xD547741F GT PUSH2 0xC3 JUMPI DUP1 PUSH4 0xF242432A GT PUSH2 0x87 JUMPI DUP1 PUSH4 0xF242432A EQ PUSH2 0x63B JUMPI DUP1 PUSH4 0xF2FDE38B EQ PUSH2 0x64E JUMPI DUP1 PUSH4 0xF5298ACA EQ PUSH2 0x661 JUMPI DUP1 PUSH4 0xF70EFA97 EQ PUSH2 0x674 JUMPI DUP1 PUSH4 0xFA7A02A5 EQ PUSH2 0x687 JUMPI DUP1 PUSH4 0xFC851323 EQ PUSH2 0x6B4 JUMPI PUSH1 0x0 DUP1 REVERT JUMPDEST DUP1 PUSH4 0xD547741F EQ PUSH2 0x5B5 JUMPI DUP1 PUSH4 0xE985E9C5 EQ PUSH2 0x5C8 JUMPI DUP1 PUSH4 0xEA3994BC EQ PUSH2 0x604 JUMPI DUP1 PUSH4 0xED008921 EQ PUSH2 0x617 JUMPI DUP1 PUSH4 0xF0E404C0 EQ PUSH2 0x61F JUMPI PUSH1 0x0 DUP1 REVERT JUMPDEST DUP1 PUSH4 0xA22CB465 GT PUSH2 0x10A JUMPI DUP1 PUSH4 0xA22CB465 EQ PUSH2 0x540 JUMPI DUP1 PUSH4 0xA768396A EQ PUSH2 0x553 JUMPI DUP1 PUSH4 0xA9F920ED EQ PUSH2 0x55B JUMPI DUP1 PUSH4 0xC781B949 EQ PUSH2 0x56E JUMPI DUP1 PUSH4 0xD5391393 EQ PUSH2 0x58E JUMPI PUSH1 0x0 DUP1 REVERT JUMPDEST DUP1 PUSH4 0x8DA5CB5B EQ PUSH2 0x4F8 JUMPI DUP1 PUSH4 0x8EC3CA14 EQ PUSH2 0x509 JUMPI DUP1 PUSH4 0x91D14854 EQ PUSH2 0x512 JUMPI DUP1 PUSH4 0x9727756A EQ PUSH2 0x525 JUMPI DUP1 PUSH4 0xA217FDDF EQ PUSH2 0x538 JUMPI PUSH1 0x0 DUP1 REVERT JUMPDEST DUP1 PUSH4 0x2EB2C2D6 GT PUSH2 0x1DF JUMPI DUP1 PUSH4 0x4E1273F4 GT PUSH2 0x1A3 JUMPI DUP1 PUSH4 0x4E1273F4 EQ PUSH2 0x415 JUMPI DUP1 PUSH4 0x58609177 EQ PUSH2 0x435 JUMPI DUP1 PUSH4 0x6B20C454 EQ PUSH2 0x45A JUMPI DUP1 PUSH4 0x6CD47623 EQ PUSH2 0x46D JUMPI DUP1 PUSH4 0x715018A6 EQ PUSH2 0x4DD JUMPI DUP1 PUSH4 0x764C1D96 EQ PUSH2 0x4E5 JUMPI PUSH1 0x0 DUP1 REVERT JUMPDEST DUP1 PUSH4 0x2EB2C2D6 EQ PUSH2 0x39D JUMPI DUP1 PUSH4 0x2F2FF15D EQ PUSH2 0x3B0 JUMPI DUP1 PUSH4 0x36568ABE EQ PUSH2 0x3C3 JUMPI DUP1 PUSH4 0x44DE240A EQ PUSH2 0x3D6 JUMPI DUP1 PUSH4 0x4B5E91D4 EQ PUSH2 0x3F5 JUMPI PUSH1 0x0 DUP1 REVERT JUMPDEST DUP1 PUSH4 0x13516037 GT PUSH2 0x226 JUMPI DUP1 PUSH4 0x13516037 EQ PUSH2 0x305 JUMPI DUP1 PUSH4 0x219A1D77 EQ PUSH2 0x31A JUMPI DUP1 PUSH4 0x248A9CA3 EQ PUSH2 0x33F JUMPI DUP1 PUSH4 0x2A5A1DBC EQ PUSH2 0x363 JUMPI DUP1 PUSH4 0x2D9C98DC EQ PUSH2 0x376 JUMPI PUSH1 0x0 DUP1 REVERT JUMPDEST DUP1 PUSH3 0xFDD58E EQ PUSH2 0x262 JUMPI DUP1 PUSH4 0x1FFC9A7 EQ PUSH2 0x288 JUMPI DUP1 PUSH4 0x72A27A7 EQ PUSH2 0x2AB JUMPI DUP1 PUSH4 0xB5A006B EQ PUSH2 0x2D1 JUMPI DUP1 PUSH4 0xE89341C EQ PUSH2 0x2E5 JUMPI JUMPDEST PUSH1 0x0 DUP1 REVERT JUMPDEST PUSH2 0x275 PUSH2 0x270 CALLDATASIZE PUSH1 0x4 PUSH2 0x32A2 JUMP JUMPDEST PUSH2 0x6C2 JUMP JUMPDEST PUSH1 0x40 MLOAD SWAP1 DUP2 MSTORE PUSH1 0x20 ADD JUMPDEST PUSH1 0x40 MLOAD DUP1 SWAP2 SUB SWAP1 RETURN JUMPDEST PUSH2 0x29B PUSH2 0x296 CALLDATASIZE PUSH1 0x4 PUSH2 0x32E2 JUMP JUMPDEST PUSH2 0x75A JUMP JUMPDEST PUSH1 0x40 MLOAD SWAP1 ISZERO ISZERO DUP2 MSTORE PUSH1 0x20 ADD PUSH2 0x27F JUMP JUMPDEST PUSH2 0x2BE PUSH2 0x2B9 CALLDATASIZE PUSH1 0x4 PUSH2 0x333D JUMP JUMPDEST PUSH2 0x76B JUMP JUMPDEST PUSH1 0x40 MLOAD PUSH2 0xFFFF SWAP1 SWAP2 AND DUP2 MSTORE PUSH1 0x20 ADD PUSH2 0x27F JUMP JUMPDEST PUSH1 0xA SLOAD PUSH2 0x2BE SWAP1 PUSH3 0x10000 SWAP1 DIV PUSH2 0xFFFF AND DUP2 JUMP JUMPDEST PUSH2 0x2F8 PUSH2 0x2F3 CALLDATASIZE PUSH1 0x4 PUSH2 0x3384 JUMP JUMPDEST PUSH2 0x87B JUMP JUMPDEST PUSH1 0x40 MLOAD PUSH2 0x27F SWAP2 SWAP1 PUSH2 0x33F5 JUMP JUMPDEST PUSH2 0x318 PUSH2 0x313 CALLDATASIZE PUSH1 0x4 PUSH2 0x3419 JUMP JUMPDEST PUSH2 0x90F JUMP JUMPDEST STOP JUMPDEST PUSH1 0x0 SLOAD PUSH1 0x1 PUSH1 0x1 PUSH1 0xA0 SHL SUB AND JUMPDEST PUSH1 0x40 MLOAD PUSH1 0x1 PUSH1 0x1 PUSH1 0xA0 SHL SUB SWAP1 SWAP2 AND DUP2 MSTORE PUSH1 0x20 ADD PUSH2 0x27F JUMP JUMPDEST PUSH2 0x275 PUSH2 0x34D CALLDATASIZE PUSH1 0x4 PUSH2 0x3384 JUMP JUMPDEST PUSH1 0x0 SWAP1 DUP2 MSTORE PUSH1 0x1 PUSH1 0x20 DUP2 SWAP1 MSTORE PUSH1 0x40 SWAP1 SWAP2 KECCAK256 ADD SLOAD SWAP1 JUMP JUMPDEST PUSH2 0x318 PUSH2 0x371 CALLDATASIZE PUSH1 0x4 PUSH2 0x36DC JUMP JUMPDEST PUSH2 0x94C JUMP JUMPDEST PUSH2 0x389 PUSH2 0x384 CALLDATASIZE PUSH1 0x4 PUSH2 0x3774 JUMP JUMPDEST PUSH2 0xF84 JUMP JUMPDEST PUSH1 0x40 MLOAD PUSH2 0x27F SWAP9 SWAP8 SWAP7 SWAP6 SWAP5 SWAP4 SWAP3 SWAP2 SWAP1 PUSH2 0x37D1 JUMP JUMPDEST PUSH2 0x318 PUSH2 0x3AB CALLDATASIZE PUSH1 0x4 PUSH2 0x385A JUMP JUMPDEST PUSH2 0x119F JUMP JUMPDEST PUSH2 0x318 PUSH2 0x3BE CALLDATASIZE PUSH1 0x4 PUSH2 0x3903 JUMP JUMPDEST PUSH2 0x11EB JUMP JUMPDEST PUSH2 0x318 PUSH2 0x3D1 CALLDATASIZE PUSH1 0x4 PUSH2 0x3903 JUMP JUMPDEST PUSH2 0x1216 JUMP JUMPDEST PUSH1 0xA SLOAD PUSH2 0x3E3 SWAP1 PUSH1 0xFF AND DUP2 JUMP JUMPDEST PUSH1 0x40 MLOAD PUSH1 0xFF SWAP1 SWAP2 AND DUP2 MSTORE PUSH1 0x20 ADD PUSH2 0x27F JUMP JUMPDEST PUSH2 0x408 PUSH2 0x403 CALLDATASIZE PUSH1 0x4 PUSH2 0x3926 JUMP JUMPDEST PUSH2 0x1294 JUMP JUMPDEST PUSH1 0x40 MLOAD PUSH2 0x27F SWAP2 SWAP1 PUSH2 0x3941 JUMP JUMPDEST PUSH2 0x428 PUSH2 0x423 CALLDATASIZE PUSH1 0x4 PUSH2 0x39A7 JUMP JUMPDEST PUSH2 0x13F8 JUMP JUMPDEST PUSH1 0x40 MLOAD PUSH2 0x27F SWAP2 SWAP1 PUSH2 0x3AAC JUMP JUMPDEST PUSH1 0xE SLOAD PUSH2 0x445 SWAP1 PUSH4 0xFFFFFFFF AND DUP2 JUMP JUMPDEST PUSH1 0x40 MLOAD PUSH4 0xFFFFFFFF SWAP1 SWAP2 AND DUP2 MSTORE PUSH1 0x20 ADD PUSH2 0x27F JUMP JUMPDEST PUSH2 0x318 PUSH2 0x468 CALLDATASIZE PUSH1 0x4 PUSH2 0x3ABF JUMP JUMPDEST PUSH2 0x1521 JUMP JUMPDEST PUSH2 0x4CB PUSH2 0x47B CALLDATASIZE PUSH1 0x4 PUSH2 0x3926 JUMP JUMPDEST PUSH1 0xD PUSH1 0x20 MSTORE PUSH1 0x0 SWAP1 DUP2 MSTORE PUSH1 0x40 SWAP1 KECCAK256 SLOAD PUSH4 0xFFFFFFFF DUP1 DUP3 AND SWAP2 PUSH1 0xFF PUSH1 0x1 PUSH1 0x20 SHL DUP3 DIV DUP2 AND SWAP3 PUSH2 0xFFFF PUSH1 0x1 PUSH1 0x28 SHL DUP5 DIV AND SWAP3 PUSH1 0x1 PUSH1 0x38 SHL DUP2 DIV SWAP1 SWAP2 AND SWAP2 PUSH1 0x1 PUSH1 0x58 SHL DUP3 DIV DUP2 AND SWAP2 PUSH1 0x1 PUSH1 0x60 SHL SWAP1 DIV AND DUP7 JUMP JUMPDEST PUSH1 0x40 MLOAD PUSH2 0x27F SWAP7 SWAP6 SWAP5 SWAP4 SWAP3 SWAP2 SWAP1 PUSH2 0x3B32 JUMP JUMPDEST PUSH2 0x318 PUSH2 0x1564 JUMP JUMPDEST PUSH2 0x408 PUSH2 0x4F3 CALLDATASIZE PUSH1 0x4 PUSH2 0x3B85 JUMP JUMPDEST PUSH2 0x1578 JUMP JUMPDEST PUSH1 0x0 SLOAD PUSH1 0x1 PUSH1 0x1 PUSH1 0xA0 SHL SUB AND PUSH2 0x327 JUMP JUMPDEST PUSH2 0x275 PUSH1 0x5 SLOAD DUP2 JUMP JUMPDEST PUSH2 0x29B PUSH2 0x520 CALLDATASIZE PUSH1 0x4 PUSH2 0x3903 JUMP JUMPDEST PUSH2 0x1A5A JUMP JUMPDEST PUSH2 0x318 PUSH2 0x533 CALLDATASIZE PUSH1 0x4 PUSH2 0x3C92 JUMP JUMPDEST PUSH2 0x1A85 JUMP JUMPDEST PUSH2 0x275 PUSH1 0x0 DUP2 JUMP JUMPDEST PUSH2 0x318 PUSH2 0x54E CALLDATASIZE PUSH1 0x4 PUSH2 0x3D12 JUMP JUMPDEST PUSH2 0x1B82 JUMP JUMPDEST PUSH2 0x2F8 PUSH2 0x1B8D JUMP JUMPDEST PUSH2 0x318 PUSH2 0x569 CALLDATASIZE PUSH1 0x4 PUSH2 0x3D3C JUMP JUMPDEST PUSH2 0x1C1B JUMP JUMPDEST PUSH2 0x581 PUSH2 0x57C CALLDATASIZE PUSH1 0x4 PUSH2 0x3D99 JUMP JUMPDEST PUSH2 0x1CC0 JUMP JUMPDEST PUSH1 0x40 MLOAD PUSH2 0x27F SWAP2 SWAP1 PUSH2 0x3DC3 JUMP JUMPDEST PUSH2 0x275 PUSH32 0x0 DUP2 JUMP JUMPDEST PUSH2 0x318 PUSH2 0x5C3 CALLDATASIZE PUSH1 0x4 PUSH2 0x3903 JUMP JUMPDEST PUSH2 0x1FB0 JUMP JUMPDEST PUSH2 0x29B PUSH2 0x5D6 CALLDATASIZE PUSH1 0x4 PUSH2 0x3E8A JUMP JUMPDEST PUSH1 0x1 PUSH1 0x1 PUSH1 0xA0 SHL SUB SWAP2 DUP3 AND PUSH1 0x0 SWAP1 DUP2 MSTORE PUSH1 0x3 PUSH1 0x20 SWAP1 DUP2 MSTORE PUSH1 0x40 DUP1 DUP4 KECCAK256 SWAP4 SWAP1 SWAP5 AND DUP3 MSTORE SWAP2 SWAP1 SWAP2 MSTORE KECCAK256 SLOAD PUSH1 0xFF AND SWAP1 JUMP JUMPDEST PUSH2 0x318 PUSH2 0x612 CALLDATASIZE PUSH1 0x4 PUSH2 0x3EB4 JUMP JUMPDEST PUSH2 0x1FD6 JUMP JUMPDEST PUSH2 0x2F8 PUSH2 0x2021 JUMP JUMPDEST PUSH1 0xA SLOAD PUSH2 0x445 SWAP1 PUSH9 0x10000000000000000 SWAP1 DIV PUSH4 0xFFFFFFFF AND DUP2 JUMP JUMPDEST PUSH2 0x318 PUSH2 0x649 CALLDATASIZE PUSH1 0x4 PUSH2 0x3ECF JUMP JUMPDEST PUSH2 0x202E JUMP JUMPDEST PUSH2 0x318 PUSH2 0x65C CALLDATASIZE PUSH1 0x4 PUSH2 0x3F33 JUMP JUMPDEST PUSH2 0x2073 JUMP JUMPDEST PUSH2 0x318 PUSH2 0x66F CALLDATASIZE PUSH1 0x4 PUSH2 0x3F4E JUMP JUMPDEST PUSH2 0x20EC JUMP JUMPDEST PUSH2 0x408 PUSH2 0x682 CALLDATASIZE PUSH1 0x4 PUSH2 0x3419 JUMP JUMPDEST PUSH2 0x212F JUMP JUMPDEST PUSH2 0x3E3 PUSH2 0x695 CALLDATASIZE PUSH1 0x4 PUSH2 0x3926 JUMP JUMPDEST PUSH1 0xFF SWAP1 DUP2 AND PUSH1 0x0 SWAP1 DUP2 MSTORE PUSH1 0xD PUSH1 0x20 MSTORE PUSH1 0x40 SWAP1 KECCAK256 SLOAD PUSH1 0x1 PUSH1 0x60 SHL SWAP1 DIV AND SWAP1 JUMP JUMPDEST PUSH1 0x8 SLOAD PUSH2 0x2BE SWAP1 PUSH2 0xFFFF AND DUP2 JUMP JUMPDEST PUSH1 0x0 PUSH1 0x1 PUSH1 0x1 PUSH1 0xA0 SHL SUB DUP4 AND PUSH2 0x732 JUMPI PUSH1 0x40 MLOAD PUSH3 0x461BCD PUSH1 0xE5 SHL DUP2 MSTORE PUSH1 0x20 PUSH1 0x4 DUP3 ADD MSTORE PUSH1 0x2A PUSH1 0x24 DUP3 ADD MSTORE PUSH32 0x455243313135353A2061646472657373207A65726F206973206E6F7420612076 PUSH1 0x44 DUP3 ADD MSTORE PUSH10 0x30B634B21037BBB732B9 PUSH1 0xB1 SHL PUSH1 0x64 DUP3 ADD MSTORE PUSH1 0x84 ADD JUMPDEST PUSH1 0x40 MLOAD DUP1 SWAP2 SUB SWAP1 REVERT JUMPDEST POP PUSH1 0x0 SWAP1 DUP2 MSTORE PUSH1 0x2 PUSH1 0x20 SWAP1 DUP2 MSTORE PUSH1 0x40 DUP1 DUP4 KECCAK256 PUSH1 0x1 PUSH1 0x1 PUSH1 0xA0 SHL SUB SWAP5 SWAP1 SWAP5 AND DUP4 MSTORE SWAP3 SWAP1 MSTORE KECCAK256 SLOAD SWAP1 JUMP JUMPDEST PUSH1 0x0 PUSH2 0x765 DUP3 PUSH2 0x229A JUMP JUMPDEST SWAP3 SWAP2 POP POP JUMP JUMPDEST PUSH1 0x0 PUSH2 0x775 PUSH2 0x22DA JUMP JUMPDEST PUSH3 0x13880 DUP4 PUSH4 0xFFFFFFFF AND GT ISZERO PUSH2 0x7E5 JUMPI PUSH1 0x40 MLOAD PUSH3 0x461BCD PUSH1 0xE5 SHL DUP2 MSTORE PUSH1 0x20 PUSH1 0x4 DUP3 ADD MSTORE PUSH1 0x2E PUSH1 0x24 DUP3 ADD MSTORE PUSH32 0x5468697320666C6F726573742063616E277420696E6672696E67652074686520 PUSH1 0x44 DUP3 ADD MSTORE PUSH14 0x756E6976657273616C2072756C65 PUSH1 0x90 SHL PUSH1 0x64 DUP3 ADD MSTORE PUSH1 0x84 ADD PUSH2 0x729 JUMP JUMPDEST PUSH1 0xA SLOAD PUSH2 0x100 SWAP1 DIV PUSH1 0xFF AND PUSH1 0x0 SWAP1 DUP2 MSTORE PUSH1 0xD PUSH1 0x20 MSTORE PUSH1 0x40 SWAP1 KECCAK256 DUP1 SLOAD DUP4 SWAP1 DUP3 SWAP1 PUSH5 0xFF00000000 NOT AND PUSH1 0x1 PUSH1 0x20 SHL DUP4 PUSH1 0x1 DUP2 GT ISZERO PUSH2 0x823 JUMPI PUSH2 0x823 PUSH2 0x3790 JUMP JUMPDEST MUL OR SWAP1 SSTORE POP DUP1 SLOAD PUSH4 0xFFFFFFFF DUP6 AND PUSH1 0x1 PUSH1 0x38 SHL MUL PUSH11 0xFFFFFFFF000000FFFFFFFF NOT PUSH2 0xFFFF DUP9 AND PUSH1 0x1 PUSH1 0x28 SHL MUL AND PUSH11 0xFFFFFFFFFFFF00FFFFFFFF NOT SWAP1 SWAP3 AND SWAP2 SWAP1 SWAP2 OR OR SWAP1 SSTORE POP PUSH1 0xA SLOAD PUSH1 0xFF PUSH2 0x100 SWAP1 SWAP2 DIV AND SWAP4 SWAP3 POP POP POP JUMP JUMPDEST PUSH1 0x60 PUSH1 0x4 DUP1 SLOAD PUSH2 0x88A SWAP1 PUSH2 0x3F81 JUMP JUMPDEST DUP1 PUSH1 0x1F ADD PUSH1 0x20 DUP1 SWAP2 DIV MUL PUSH1 0x20 ADD PUSH1 0x40 MLOAD SWAP1 DUP2 ADD PUSH1 0x40 MSTORE DUP1 SWAP3 SWAP2 SWAP1 DUP2 DUP2 MSTORE PUSH1 0x20 ADD DUP3 DUP1 SLOAD PUSH2 0x8B6 SWAP1 PUSH2 0x3F81 JUMP JUMPDEST DUP1 ISZERO PUSH2 0x903 JUMPI DUP1 PUSH1 0x1F LT PUSH2 0x8D8 JUMPI PUSH2 0x100 DUP1 DUP4 SLOAD DIV MUL DUP4 MSTORE SWAP2 PUSH1 0x20 ADD SWAP2 PUSH2 0x903 JUMP JUMPDEST DUP3 ADD SWAP2 SWAP1 PUSH1 0x0 MSTORE PUSH1 0x20 PUSH1 0x0 KECCAK256 SWAP1 JUMPDEST DUP2 SLOAD DUP2 MSTORE SWAP1 PUSH1 0x1 ADD SWAP1 PUSH1 0x20 ADD DUP1 DUP4 GT PUSH2 0x8E6 JUMPI DUP3 SWAP1 SUB PUSH1 0x1F AND DUP3 ADD SWAP2 JUMPDEST POP POP POP POP POP SWAP1 POP SWAP2 SWAP1 POP JUMP JUMPDEST PUSH2 0x917 PUSH2 0x22DA JUMP JUMPDEST PUSH1 0xFF SWAP1 SWAP2 AND PUSH1 0x0 SWAP1 DUP2 MSTORE PUSH1 0xD PUSH1 0x20 MSTORE PUSH1 0x40 SWAP1 KECCAK256 DUP1 SLOAD PUSH2 0xFFFF SWAP1 SWAP3 AND PUSH1 0x1 PUSH1 0x28 SHL MUL PUSH7 0xFFFF0000000000 NOT SWAP1 SWAP3 AND SWAP2 SWAP1 SWAP2 OR SWAP1 SSTORE JUMP JUMPDEST PUSH1 0x40 DUP1 MLOAD DUP1 DUP3 ADD SWAP1 SWAP2 MSTORE PUSH1 0x3 DUP2 MSTORE PUSH3 0x696431 PUSH1 0xE8 SHL PUSH1 0x20 DUP3 ADD MSTORE PUSH1 0xA SLOAD PUSH2 0x976 SWAP2 SWAP1 PUSH1 0xFF AND PUSH2 0x2334 JUMP JUMPDEST PUSH1 0xA SLOAD PUSH1 0xFF AND PUSH1 0x1 SUB PUSH2 0xB5D JUMPI PUSH1 0xC PUSH1 0x0 DUP5 PUSH2 0xFFFF AND PUSH2 0xFFFF AND DUP2 MSTORE PUSH1 0x20 ADD SWAP1 DUP2 MSTORE PUSH1 0x20 ADD PUSH1 0x0 KECCAK256 PUSH1 0x40 MLOAD DUP1 PUSH2 0x100 ADD PUSH1 0x40 MSTORE DUP1 DUP7 PUSH1 0x0 ADD MLOAD DUP2 MSTORE PUSH1 0x20 ADD DUP7 PUSH1 0x20 ADD MLOAD DUP2 MSTORE PUSH1 0x20 ADD DUP7 PUSH1 0x40 ADD MLOAD PUSH1 0x1 DUP2 GT ISZERO PUSH2 0x9D4 JUMPI PUSH2 0x9D4 PUSH2 0x3790 JUMP JUMPDEST DUP2 MSTORE PUSH1 0x20 ADD DUP7 PUSH1 0x60 ADD MLOAD PUSH1 0x1 PUSH1 0x1 PUSH1 0xA0 SHL SUB AND DUP2 MSTORE PUSH1 0x20 ADD DUP7 PUSH1 0x80 ADD MLOAD PUSH1 0x1 PUSH1 0x1 PUSH1 0xA0 SHL SUB AND DUP2 MSTORE PUSH1 0x20 ADD DUP7 PUSH1 0xA0 ADD MLOAD PUSH1 0x1 DUP2 GT ISZERO PUSH2 0xA15 JUMPI PUSH2 0xA15 PUSH2 0x3790 JUMP JUMPDEST DUP2 MSTORE PUSH1 0xC0 DUP8 ADD MLOAD ISZERO ISZERO PUSH1 0x20 DUP1 DUP4 ADD SWAP2 SWAP1 SWAP2 MSTORE PUSH1 0xE0 DUP9 ADD MLOAD PUSH1 0x40 SWAP1 SWAP3 ADD SWAP2 SWAP1 SWAP2 MSTORE DUP3 SLOAD PUSH1 0x1 DUP2 ADD DUP5 SSTORE PUSH1 0x0 SWAP4 DUP5 MSTORE SWAP3 DUP2 SWAP1 KECCAK256 DUP3 MLOAD DUP1 MLOAD SWAP4 SWAP5 PUSH1 0x5 MUL SWAP1 SWAP2 ADD SWAP3 PUSH2 0xA60 SWAP3 DUP5 SWAP3 ADD SWAP1 PUSH2 0x31ED JUMP JUMPDEST POP PUSH1 0x20 DUP3 DUP2 ADD MLOAD DUP1 MLOAD PUSH2 0xA79 SWAP3 PUSH1 0x1 DUP6 ADD SWAP3 ADD SWAP1 PUSH2 0x31ED JUMP JUMPDEST POP PUSH1 0x40 DUP3 ADD MLOAD PUSH1 0x2 DUP3 ADD DUP1 SLOAD PUSH1 0xFF NOT AND PUSH1 0x1 DUP4 DUP2 DUP2 GT ISZERO PUSH2 0xA9C JUMPI PUSH2 0xA9C PUSH2 0x3790 JUMP JUMPDEST MUL OR SWAP1 SSTORE POP PUSH1 0x60 DUP3 ADD MLOAD PUSH1 0x2 DUP3 ADD DUP1 SLOAD PUSH1 0x1 PUSH1 0x1 PUSH1 0xA0 SHL SUB SWAP3 DUP4 AND PUSH2 0x100 MUL PUSH2 0x100 PUSH1 0x1 PUSH1 0xA8 SHL SUB NOT SWAP1 SWAP2 AND OR SWAP1 SSTORE PUSH1 0x80 DUP4 ADD MLOAD PUSH1 0x3 DUP4 ADD DUP1 SLOAD SWAP2 SWAP1 SWAP3 AND PUSH1 0x1 PUSH1 0x1 PUSH1 0xA0 SHL SUB NOT DUP3 AND DUP2 OR DUP4 SSTORE PUSH1 0xA0 DUP6 ADD MLOAD SWAP3 SWAP2 PUSH1 0x1 PUSH1 0x1 PUSH1 0xA8 SHL SUB NOT AND OR PUSH1 0x1 PUSH1 0xA0 SHL DUP4 PUSH1 0x1 DUP2 GT ISZERO PUSH2 0xB12 JUMPI PUSH2 0xB12 PUSH2 0x3790 JUMP JUMPDEST MUL OR SWAP1 SSTORE POP PUSH1 0xC0 DUP3 ADD MLOAD PUSH1 0x3 DUP3 ADD DUP1 SLOAD SWAP2 ISZERO ISZERO PUSH1 0x1 PUSH1 0xA8 SHL MUL PUSH1 0xFF PUSH1 0xA8 SHL NOT SWAP1 SWAP3 AND SWAP2 SWAP1 SWAP2 OR SWAP1 SSTORE PUSH1 0xE0 DUP3 ADD MLOAD DUP1 MLOAD PUSH2 0xB55 SWAP2 PUSH1 0x4 DUP5 ADD SWAP2 PUSH1 0x20 SWAP1 SWAP2 ADD SWAP1 PUSH2 0x31ED JUMP JUMPDEST POP POP POP PUSH2 0xEDC JUMP JUMPDEST PUSH2 0xFFFF DUP4 AND PUSH1 0x0 SWAP1 DUP2 MSTORE PUSH1 0xC PUSH1 0x20 MSTORE PUSH1 0x40 SWAP1 KECCAK256 SLOAD PUSH2 0xB7A SWAP1 PUSH2 0x2379 JUMP JUMPDEST PUSH1 0x0 JUMPDEST PUSH2 0xFFFF DUP5 AND PUSH1 0x0 SWAP1 DUP2 MSTORE PUSH1 0xC PUSH1 0x20 MSTORE PUSH1 0x40 SWAP1 KECCAK256 SLOAD PUSH1 0xFF DUP3 AND LT ISZERO PUSH2 0xD05 JUMPI PUSH2 0xFFFF DUP5 AND PUSH1 0x0 SWAP1 DUP2 MSTORE PUSH1 0xC PUSH1 0x20 MSTORE PUSH1 0x40 DUP2 KECCAK256 DUP1 SLOAD PUSH1 0xFF DUP5 AND SWAP1 DUP2 LT PUSH2 0xBC3 JUMPI PUSH2 0xBC3 PUSH2 0x3FBB JUMP JUMPDEST SWAP1 PUSH1 0x0 MSTORE PUSH1 0x20 PUSH1 0x0 KECCAK256 SWAP1 PUSH1 0x5 MUL ADD PUSH1 0x0 ADD SWAP1 POP PUSH2 0xC68 DUP2 DUP1 SLOAD PUSH2 0xBE5 SWAP1 PUSH2 0x3F81 JUMP JUMPDEST DUP1 PUSH1 0x1F ADD PUSH1 0x20 DUP1 SWAP2 DIV MUL PUSH1 0x20 ADD PUSH1 0x40 MLOAD SWAP1 DUP2 ADD PUSH1 0x40 MSTORE DUP1 SWAP3 SWAP2 SWAP1 DUP2 DUP2 MSTORE PUSH1 0x20 ADD DUP3 DUP1 SLOAD PUSH2 0xC11 SWAP1 PUSH2 0x3F81 JUMP JUMPDEST DUP1 ISZERO PUSH2 0xC5E JUMPI DUP1 PUSH1 0x1F LT PUSH2 0xC33 JUMPI PUSH2 0x100 DUP1 DUP4 SLOAD DIV MUL DUP4 MSTORE SWAP2 PUSH1 0x20 ADD SWAP2 PUSH2 0xC5E JUMP JUMPDEST DUP3 ADD SWAP2 SWAP1 PUSH1 0x0 MSTORE PUSH1 0x20 PUSH1 0x0 KECCAK256 SWAP1 JUMPDEST DUP2 SLOAD DUP2 MSTORE SWAP1 PUSH1 0x1 ADD SWAP1 PUSH1 0x20 ADD DUP1 DUP4 GT PUSH2 0xC41 JUMPI DUP3 SWAP1 SUB PUSH1 0x1F AND DUP3 ADD SWAP2 JUMPDEST POP POP POP POP POP PUSH2 0x23BE JUMP JUMPDEST DUP1 PUSH1 0x40 MLOAD PUSH1 0x20 ADD PUSH2 0xC79 SWAP2 SWAP1 PUSH2 0x3FD1 JUMP JUMPDEST PUSH1 0x40 DUP1 MLOAD PUSH1 0x1F NOT DUP2 DUP5 SUB ADD DUP2 MSTORE SWAP1 DUP3 SWAP1 MSTORE DUP1 MLOAD PUSH1 0x20 SWAP2 DUP3 ADD KECCAK256 DUP9 MLOAD SWAP1 SWAP3 PUSH2 0xCA0 SWAP3 ADD PUSH2 0x406C JUMP JUMPDEST PUSH1 0x40 MLOAD PUSH1 0x20 DUP2 DUP4 SUB SUB DUP2 MSTORE SWAP1 PUSH1 0x40 MSTORE DUP1 MLOAD SWAP1 PUSH1 0x20 ADD KECCAK256 SUB PUSH2 0xCF2 JUMPI PUSH1 0x40 MLOAD PUSH3 0x461BCD PUSH1 0xE5 SHL DUP2 MSTORE PUSH1 0x20 PUSH1 0x4 DUP3 ADD MSTORE PUSH1 0xC PUSH1 0x24 DUP3 ADD MSTORE PUSH12 0x617373657420657869737473 PUSH1 0xA0 SHL PUSH1 0x44 DUP3 ADD MSTORE PUSH1 0x64 ADD PUSH2 0x729 JUMP JUMPDEST POP DUP1 PUSH2 0xCFD DUP2 PUSH2 0x409E JUMP JUMPDEST SWAP2 POP POP PUSH2 0xB7D JUMP JUMPDEST POP PUSH1 0xC PUSH1 0x0 DUP5 PUSH2 0xFFFF AND PUSH2 0xFFFF AND DUP2 MSTORE PUSH1 0x20 ADD SWAP1 DUP2 MSTORE PUSH1 0x20 ADD PUSH1 0x0 KECCAK256 PUSH1 0x40 MLOAD DUP1 PUSH2 0x100 ADD PUSH1 0x40 MSTORE DUP1 DUP7 PUSH1 0x0 ADD MLOAD DUP2 MSTORE PUSH1 0x20 ADD DUP7 PUSH1 0x20 ADD MLOAD DUP2 MSTORE PUSH1 0x20 ADD DUP7 PUSH1 0x40 ADD MLOAD PUSH1 0x1 DUP2 GT ISZERO PUSH2 0xD57 JUMPI PUSH2 0xD57 PUSH2 0x3790 JUMP JUMPDEST DUP2 MSTORE PUSH1 0x20 ADD DUP7 PUSH1 0x60 ADD MLOAD PUSH1 0x1 PUSH1 0x1 PUSH1 0xA0 SHL SUB AND DUP2 MSTORE PUSH1 0x20 ADD DUP7 PUSH1 0x80 ADD MLOAD PUSH1 0x1 PUSH1 0x1 PUSH1 0xA0 SHL SUB AND DUP2 MSTORE PUSH1 0x20 ADD DUP7 PUSH1 0xA0 ADD MLOAD PUSH1 0x1 DUP2 GT ISZERO PUSH2 0xD98 JUMPI PUSH2 0xD98 PUSH2 0x3790 JUMP JUMPDEST DUP2 MSTORE PUSH1 0xC0 DUP8 ADD MLOAD ISZERO ISZERO PUSH1 0x20 DUP1 DUP4 ADD SWAP2 SWAP1 SWAP2 MSTORE PUSH1 0xE0 DUP9 ADD MLOAD PUSH1 0x40 SWAP1 SWAP3 ADD SWAP2 SWAP1 SWAP2 MSTORE DUP3 SLOAD PUSH1 0x1 DUP2 ADD DUP5 SSTORE PUSH1 0x0 SWAP4 DUP5 MSTORE SWAP3 DUP2 SWAP1 KECCAK256 DUP3 MLOAD DUP1 MLOAD SWAP4 SWAP5 PUSH1 0x5 MUL SWAP1 SWAP2 ADD SWAP3 PUSH2 0xDE3 SWAP3 DUP5 SWAP3 ADD SWAP1 PUSH2 0x31ED JUMP JUMPDEST POP PUSH1 0x20 DUP3 DUP2 ADD MLOAD DUP1 MLOAD PUSH2 0xDFC SWAP3 PUSH1 0x1 DUP6 ADD SWAP3 ADD SWAP1 PUSH2 0x31ED JUMP JUMPDEST POP PUSH1 0x40 DUP3 ADD MLOAD PUSH1 0x2 DUP3 ADD DUP1 SLOAD PUSH1 0xFF NOT AND PUSH1 0x1 DUP4 DUP2 DUP2 GT ISZERO PUSH2 0xE1F JUMPI PUSH2 0xE1F PUSH2 0x3790 JUMP JUMPDEST MUL OR SWAP1 SSTORE POP PUSH1 0x60 DUP3 ADD MLOAD PUSH1 0x2 DUP3 ADD DUP1 SLOAD PUSH1 0x1 PUSH1 0x1 PUSH1 0xA0 SHL SUB SWAP3 DUP4 AND PUSH2 0x100 MUL PUSH2 0x100 PUSH1 0x1 PUSH1 0xA8 SHL SUB NOT SWAP1 SWAP2 AND OR SWAP1 SSTORE PUSH1 0x80 DUP4 ADD MLOAD PUSH1 0x3 DUP4 ADD DUP1 SLOAD SWAP2 SWAP1 SWAP3 AND PUSH1 0x1 PUSH1 0x1 PUSH1 0xA0 SHL SUB NOT DUP3 AND DUP2 OR DUP4 SSTORE PUSH1 0xA0 DUP6 ADD MLOAD SWAP3 SWAP2 PUSH1 0x1 PUSH1 0x1 PUSH1 0xA8 SHL SUB NOT AND OR PUSH1 0x1 PUSH1 0xA0 SHL DUP4 PUSH1 0x1 DUP2 GT ISZERO PUSH2 0xE95 JUMPI PUSH2 0xE95 PUSH2 0x3790 JUMP JUMPDEST MUL OR SWAP1 SSTORE POP PUSH1 0xC0 DUP3 ADD MLOAD PUSH1 0x3 DUP3 ADD DUP1 SLOAD SWAP2 ISZERO ISZERO PUSH1 0x1 PUSH1 0xA8 SHL MUL PUSH1 0xFF PUSH1 0xA8 SHL NOT SWAP1 SWAP3 AND SWAP2 SWAP1 SWAP2 OR SWAP1 SSTORE PUSH1 0xE0 DUP3 ADD MLOAD DUP1 MLOAD PUSH2 0xED8 SWAP2 PUSH1 0x4 DUP5 ADD SWAP2 PUSH1 0x20 SWAP1 SWAP2 ADD SWAP1 PUSH2 0x31ED JUMP JUMPDEST POP POP POP JUMPDEST PUSH2 0xEFB DUP5 PUSH1 0x80 ADD MLOAD DUP4 DUP4 PUSH1 0x40 MLOAD DUP1 PUSH1 0x20 ADD PUSH1 0x40 MSTORE DUP1 PUSH1 0x0 DUP2 MSTORE POP PUSH2 0x2401 JUMP JUMPDEST PUSH2 0xF0B DUP5 PUSH1 0x80 ADD MLOAD CALLER PUSH1 0x1 PUSH2 0x2587 JUMP JUMPDEST PUSH1 0xA DUP1 SLOAD PUSH1 0xFF AND SWAP1 PUSH1 0x0 PUSH2 0xF1E DUP4 PUSH2 0x409E JUMP JUMPDEST DUP3 SLOAD PUSH2 0x100 SWAP3 SWAP1 SWAP3 EXP PUSH1 0xFF DUP2 DUP2 MUL NOT SWAP1 SWAP4 AND SWAP2 DUP4 AND MUL OR SWAP1 SWAP2 SSTORE PUSH1 0x40 DUP1 MLOAD DUP1 DUP3 ADD SWAP1 SWAP2 MSTORE PUSH1 0x2 DUP2 MSTORE PUSH2 0x1A59 PUSH1 0xF2 SHL PUSH1 0x20 DUP3 ADD MSTORE PUSH1 0xA SLOAD PUSH2 0xF61 SWAP4 POP SWAP1 SWAP2 AND PUSH2 0x2334 JUMP JUMPDEST PUSH2 0xFFFF DUP4 AND PUSH1 0x0 SWAP1 DUP2 MSTORE PUSH1 0xC PUSH1 0x20 MSTORE PUSH1 0x40 SWAP1 KECCAK256 SLOAD PUSH2 0xF7E SWAP1 PUSH2 0x2379 JUMP JUMPDEST POP POP POP POP JUMP JUMPDEST PUSH1 0xC PUSH1 0x20 MSTORE DUP2 PUSH1 0x0 MSTORE PUSH1 0x40 PUSH1 0x0 KECCAK256 DUP2 DUP2 SLOAD DUP2 LT PUSH2 0xFA0 JUMPI PUSH1 0x0 DUP1 REVERT JUMPDEST SWAP1 PUSH1 0x0 MSTORE PUSH1 0x20 PUSH1 0x0 KECCAK256 SWAP1 PUSH1 0x5 MUL ADD PUSH1 0x0 SWAP2 POP SWAP2 POP POP DUP1 PUSH1 0x0 ADD DUP1 SLOAD PUSH2 0xFC4 SWAP1 PUSH2 0x3F81 JUMP JUMPDEST DUP1 PUSH1 0x1F ADD PUSH1 0x20 DUP1 SWAP2 DIV MUL PUSH1 0x20 ADD PUSH1 0x40 MLOAD SWAP1 DUP2 ADD PUSH1 0x40 MSTORE DUP1 SWAP3 SWAP2 SWAP1 DUP2 DUP2 MSTORE PUSH1 0x20 ADD DUP3 DUP1 SLOAD PUSH2 0xFF0 SWAP1 PUSH2 0x3F81 JUMP JUMPDEST DUP1 ISZERO PUSH2 0x103D JUMPI DUP1 PUSH1 0x1F LT PUSH2 0x1012 JUMPI PUSH2 0x100 DUP1 DUP4 SLOAD DIV MUL DUP4 MSTORE SWAP2 PUSH1 0x20 ADD SWAP2 PUSH2 0x103D JUMP JUMPDEST DUP3 ADD SWAP2 SWAP1 PUSH1 0x0 MSTORE PUSH1 0x20 PUSH1 0x0 KECCAK256 SWAP1 JUMPDEST DUP2 SLOAD DUP2 MSTORE SWAP1 PUSH1 0x1 ADD SWAP1 PUSH1 0x20 ADD DUP1 DUP4 GT PUSH2 0x1020 JUMPI DUP3 SWAP1 SUB PUSH1 0x1F AND DUP3 ADD SWAP2 JUMPDEST POP POP POP POP POP SWAP1 DUP1 PUSH1 0x1 ADD DUP1 SLOAD PUSH2 0x1052 SWAP1 PUSH2 0x3F81 JUMP JUMPDEST DUP1 PUSH1 0x1F ADD PUSH1 0x20 DUP1 SWAP2 DIV MUL PUSH1 0x20 ADD PUSH1 0x40 MLOAD SWAP1 DUP2 ADD PUSH1 0x40 MSTORE DUP1 SWAP3 SWAP2 SWAP1 DUP2 DUP2 MSTORE PUSH1 0x20 ADD DUP3 DUP1 SLOAD PUSH2 0x107E SWAP1 PUSH2 0x3F81 JUMP JUMPDEST DUP1 ISZERO PUSH2 0x10CB JUMPI DUP1 PUSH1 0x1F LT PUSH2 0x10A0 JUMPI PUSH2 0x100 DUP1 DUP4 SLOAD DIV MUL DUP4 MSTORE SWAP2 PUSH1 0x20 ADD SWAP2 PUSH2 0x10CB JUMP JUMPDEST DUP3 ADD SWAP2 SWAP1 PUSH1 0x0 MSTORE PUSH1 0x20 PUSH1 0x0 KECCAK256 SWAP1 JUMPDEST DUP2 SLOAD DUP2 MSTORE SWAP1 PUSH1 0x1 ADD SWAP1 PUSH1 0x20 ADD DUP1 DUP4 GT PUSH2 0x10AE JUMPI DUP3 SWAP1 SUB PUSH1 0x1F AND DUP3 ADD SWAP2 JUMPDEST POP POP POP POP PUSH1 0x2 DUP4 ADD SLOAD PUSH1 0x3 DUP5 ADD SLOAD PUSH1 0x4 DUP6 ADD DUP1 SLOAD SWAP5 SWAP6 PUSH1 0xFF DUP1 DUP6 AND SWAP7 PUSH2 0x100 SWAP1 SWAP6 DIV PUSH1 0x1 PUSH1 0x1 PUSH1 0xA0 SHL SUB SWAP1 DUP2 AND SWAP7 POP DUP5 AND SWAP5 PUSH1 0x1 PUSH1 0xA0 SHL DUP6 DIV DUP3 AND SWAP5 PUSH1 0x1 PUSH1 0xA8 SHL SWAP1 DIV SWAP1 SWAP2 AND SWAP3 SWAP1 PUSH2 0x111C SWAP1 PUSH2 0x3F81 JUMP JUMPDEST DUP1 PUSH1 0x1F ADD PUSH1 0x20 DUP1 SWAP2 DIV MUL PUSH1 0x20 ADD PUSH1 0x40 MLOAD SWAP1 DUP2 ADD PUSH1 0x40 MSTORE DUP1 SWAP3 SWAP2 SWAP1 DUP2 DUP2 MSTORE PUSH1 0x20 ADD DUP3 DUP1 SLOAD PUSH2 0x1148 SWAP1 PUSH2 0x3F81 JUMP JUMPDEST DUP1 ISZERO PUSH2 0x1195 JUMPI DUP1 PUSH1 0x1F LT PUSH2 0x116A JUMPI PUSH2 0x100 DUP1 DUP4 SLOAD DIV MUL DUP4 MSTORE SWAP2 PUSH1 0x20 ADD SWAP2 PUSH2 0x1195 JUMP JUMPDEST DUP3 ADD SWAP2 SWAP1 PUSH1 0x0 MSTORE PUSH1 0x20 PUSH1 0x0 KECCAK256 SWAP1 JUMPDEST DUP2 SLOAD DUP2 MSTORE SWAP1 PUSH1 0x1 ADD SWAP1 PUSH1 0x20 ADD DUP1 DUP4 GT PUSH2 0x1178 JUMPI DUP3 SWAP1 SUB PUSH1 0x1F AND DUP3 ADD SWAP2 JUMPDEST POP POP POP POP POP SWAP1 POP DUP9 JUMP JUMPDEST PUSH1 0x1 PUSH1 0x1 PUSH1 0xA0 SHL SUB DUP6 AND CALLER EQ DUP1 PUSH2 0x11BB JUMPI POP PUSH2 0x11BB DUP6 CALLER PUSH2 0x5D6 JUMP JUMPDEST PUSH2 0x11D7 JUMPI PUSH1 0x40 MLOAD PUSH3 0x461BCD PUSH1 0xE5 SHL DUP2 MSTORE PUSH1 0x4 ADD PUSH2 0x729 SWAP1 PUSH2 0x40BD JUMP JUMPDEST PUSH2 0x11E4 DUP6 DUP6 DUP6 DUP6 DUP6 PUSH2 0x25BC JUMP JUMPDEST POP POP POP POP POP JUMP JUMPDEST PUSH1 0x0 DUP3 DUP2 MSTORE PUSH1 0x1 PUSH1 0x20 DUP2 SWAP1 MSTORE PUSH1 0x40 SWAP1 SWAP2 KECCAK256 ADD SLOAD PUSH2 0x1207 DUP2 PUSH2 0x275B JUMP JUMPDEST PUSH2 0x1211 DUP4 DUP4 PUSH2 0x2765 JUMP JUMPDEST POP POP POP JUMP JUMPDEST PUSH1 0x1 PUSH1 0x1 PUSH1 0xA0 SHL SUB DUP2 AND CALLER EQ PUSH2 0x1286 JUMPI PUSH1 0x40 MLOAD PUSH3 0x461BCD PUSH1 0xE5 SHL DUP2 MSTORE PUSH1 0x20 PUSH1 0x4 DUP3 ADD MSTORE PUSH1 0x2F PUSH1 0x24 DUP3 ADD MSTORE PUSH32 0x416363657373436F6E74726F6C3A2063616E206F6E6C792072656E6F756E6365 PUSH1 0x44 DUP3 ADD MSTORE PUSH15 0x103937B632B9903337B91039B2B633 PUSH1 0x89 SHL PUSH1 0x64 DUP3 ADD MSTORE PUSH1 0x84 ADD PUSH2 0x729 JUMP JUMPDEST PUSH2 0x1290 DUP3 DUP3 PUSH2 0x27D0 JUMP JUMPDEST POP POP JUMP JUMPDEST PUSH2 0x12C3 PUSH1 0x40 DUP1 MLOAD PUSH1 0xA0 DUP2 ADD DUP3 MSTORE PUSH1 0x60 DUP1 DUP3 MSTORE PUSH1 0x0 PUSH1 0x20 DUP4 ADD DUP2 SWAP1 MSTORE SWAP3 DUP3 ADD DUP4 SWAP1 MSTORE DUP2 ADD DUP3 SWAP1 MSTORE SWAP1 PUSH1 0x80 DUP3 ADD MSTORE SWAP1 JUMP JUMPDEST PUSH1 0xFF DUP3 AND PUSH1 0x0 SWAP1 DUP2 MSTORE PUSH1 0xB PUSH1 0x20 MSTORE PUSH1 0x40 DUP2 KECCAK256 DUP1 SLOAD DUP3 SWAP1 PUSH2 0x12E5 JUMPI PUSH2 0x12E5 PUSH2 0x3FBB JUMP JUMPDEST SWAP1 PUSH1 0x0 MSTORE PUSH1 0x20 PUSH1 0x0 KECCAK256 SWAP1 PUSH1 0x2 MUL ADD SWAP1 POP DUP1 PUSH1 0x40 MLOAD DUP1 PUSH1 0xA0 ADD PUSH1 0x40 MSTORE SWAP1 DUP2 PUSH1 0x0 DUP3 ADD DUP1 SLOAD PUSH2 0x1311 SWAP1 PUSH2 0x3F81 JUMP JUMPDEST DUP1 PUSH1 0x1F ADD PUSH1 0x20 DUP1 SWAP2 DIV MUL PUSH1 0x20 ADD PUSH1 0x40 MLOAD SWAP1 DUP2 ADD PUSH1 0x40 MSTORE DUP1 SWAP3 SWAP2 SWAP1 DUP2 DUP2 MSTORE PUSH1 0x20 ADD DUP3 DUP1 SLOAD PUSH2 0x133D SWAP1 PUSH2 0x3F81 JUMP JUMPDEST DUP1 ISZERO PUSH2 0x138A JUMPI DUP1 PUSH1 0x1F LT PUSH2 0x135F JUMPI PUSH2 0x100 DUP1 DUP4 SLOAD DIV MUL DUP4 MSTORE SWAP2 PUSH1 0x20 ADD SWAP2 PUSH2 0x138A JUMP JUMPDEST DUP3 ADD SWAP2 SWAP1 PUSH1 0x0 MSTORE PUSH1 0x20 PUSH1 0x0 KECCAK256 SWAP1 JUMPDEST DUP2 SLOAD DUP2 MSTORE SWAP1 PUSH1 0x1 ADD SWAP1 PUSH1 0x20 ADD DUP1 DUP4 GT PUSH2 0x136D JUMPI DUP3 SWAP1 SUB PUSH1 0x1F AND DUP3 ADD SWAP2 JUMPDEST POP POP POP SWAP2 DUP4 MSTORE POP POP PUSH1 0x1 DUP3 DUP2 ADD SLOAD PUSH2 0xFFFF DUP1 DUP3 AND PUSH1 0x20 DUP6 ADD MSTORE PUSH3 0x10000 DUP3 DIV DUP2 AND PUSH1 0x40 DUP6 ADD MSTORE PUSH1 0x1 PUSH1 0x20 SHL DUP3 DIV AND PUSH1 0x60 DUP5 ADD MSTORE PUSH1 0x80 SWAP1 SWAP3 ADD SWAP2 PUSH1 0x1 PUSH1 0x30 SHL SWAP1 DIV PUSH1 0xFF AND SWAP1 DUP2 GT ISZERO PUSH2 0x13DD JUMPI PUSH2 0x13DD PUSH2 0x3790 JUMP JUMPDEST PUSH1 0x1 DUP2 GT ISZERO PUSH2 0x13EE JUMPI PUSH2 0x13EE PUSH2 0x3790 JUMP JUMPDEST SWAP1 MSTORE POP SWAP4 SWAP3 POP POP POP JUMP JUMPDEST PUSH1 0x60 DUP2 MLOAD DUP4 MLOAD EQ PUSH2 0x145D JUMPI PUSH1 0x40 MLOAD PUSH3 0x461BCD PUSH1 0xE5 SHL DUP2 MSTORE PUSH1 0x20 PUSH1 0x4 DUP3 ADD MSTORE PUSH1 0x29 PUSH1 0x24 DUP3 ADD MSTORE PUSH32 0x455243313135353A206163636F756E747320616E6420696473206C656E677468 PUSH1 0x44 DUP3 ADD MSTORE PUSH9 0x40DAD2E6DAC2E8C6D PUSH1 0xBB SHL PUSH1 0x64 DUP3 ADD MSTORE PUSH1 0x84 ADD PUSH2 0x729 JUMP JUMPDEST PUSH1 0x0 DUP4 MLOAD PUSH1 0x1 PUSH1 0x1 PUSH1 0x40 SHL SUB DUP2 GT ISZERO PUSH2 0x1478 JUMPI PUSH2 0x1478 PUSH2 0x344C JUMP JUMPDEST PUSH1 0x40 MLOAD SWAP1 DUP1 DUP3 MSTORE DUP1 PUSH1 0x20 MUL PUSH1 0x20 ADD DUP3 ADD PUSH1 0x40 MSTORE DUP1 ISZERO PUSH2 0x14A1 JUMPI DUP2 PUSH1 0x20 ADD PUSH1 0x20 DUP3 MUL DUP1 CALLDATASIZE DUP4 CALLDATACOPY ADD SWAP1 POP JUMPDEST POP SWAP1 POP PUSH1 0x0 JUMPDEST DUP5 MLOAD DUP2 LT ISZERO PUSH2 0x1519 JUMPI PUSH2 0x14EC DUP6 DUP3 DUP2 MLOAD DUP2 LT PUSH2 0x14C5 JUMPI PUSH2 0x14C5 PUSH2 0x3FBB JUMP JUMPDEST PUSH1 0x20 MUL PUSH1 0x20 ADD ADD MLOAD DUP6 DUP4 DUP2 MLOAD DUP2 LT PUSH2 0x14DF JUMPI PUSH2 0x14DF PUSH2 0x3FBB JUMP JUMPDEST PUSH1 0x20 MUL PUSH1 0x20 ADD ADD MLOAD PUSH2 0x6C2 JUMP JUMPDEST DUP3 DUP3 DUP2 MLOAD DUP2 LT PUSH2 0x14FE JUMPI PUSH2 0x14FE PUSH2 0x3FBB JUMP JUMPDEST PUSH1 0x20 SWAP1 DUP2 MUL SWAP2 SWAP1 SWAP2 ADD ADD MSTORE PUSH2 0x1512 DUP2 PUSH2 0x410B JUMP JUMPDEST SWAP1 POP PUSH2 0x14A7 JUMP JUMPDEST POP SWAP4 SWAP3 POP POP POP JUMP JUMPDEST PUSH1 0x1 PUSH1 0x1 PUSH1 0xA0 SHL SUB DUP4 AND CALLER EQ DUP1 PUSH2 0x153D JUMPI POP PUSH2 0x153D DUP4 CALLER PUSH2 0x5D6 JUMP JUMPDEST PUSH2 0x1559 JUMPI PUSH1 0x40 MLOAD PUSH3 0x461BCD PUSH1 0xE5 SHL DUP2 MSTORE PUSH1 0x4 ADD PUSH2 0x729 SWAP1 PUSH2 0x40BD JUMP JUMPDEST PUSH2 0x1211 DUP4 DUP4 DUP4 PUSH2 0x2837 JUMP JUMPDEST PUSH2 0x156C PUSH2 0x22DA JUMP JUMPDEST PUSH2 0x1576 PUSH1 0x0 PUSH2 0x29C4 JUMP JUMPDEST JUMP JUMPDEST PUSH2 0x15A7 PUSH1 0x40 DUP1 MLOAD PUSH1 0xA0 DUP2 ADD DUP3 MSTORE PUSH1 0x60 DUP1 DUP3 MSTORE PUSH1 0x0 PUSH1 0x20 DUP4 ADD DUP2 SWAP1 MSTORE SWAP3 DUP3 ADD DUP4 SWAP1 MSTORE DUP2 ADD DUP3 SWAP1 MSTORE SWAP1 PUSH1 0x80 DUP3 ADD MSTORE SWAP1 JUMP JUMPDEST PUSH1 0xFF DUP1 DUP4 AND PUSH1 0x0 SWAP1 DUP2 MSTORE PUSH1 0xD PUSH1 0x20 MSTORE PUSH1 0x40 SWAP1 KECCAK256 DUP1 SLOAD SWAP1 SWAP2 PUSH2 0xFFFF PUSH1 0x1 PUSH1 0x28 SHL DUP4 DIV AND SWAP2 PUSH2 0x15DE SWAP2 PUSH1 0x1 PUSH1 0x60 SHL SWAP1 SWAP2 DIV AND PUSH1 0x1 PUSH2 0x4124 JUMP JUMPDEST PUSH1 0xFF AND GT ISZERO PUSH2 0x161A JUMPI PUSH1 0x40 MLOAD PUSH3 0x461BCD PUSH1 0xE5 SHL DUP2 MSTORE PUSH1 0x20 PUSH1 0x4 DUP3 ADD MSTORE PUSH1 0x8 PUSH1 0x24 DUP3 ADD MSTORE PUSH8 0x195E18D959591959 PUSH1 0xC2 SHL PUSH1 0x44 DUP3 ADD MSTORE PUSH1 0x64 ADD PUSH2 0x729 JUMP JUMPDEST DUP4 PUSH1 0x80 ADD MLOAD PUSH1 0x1 DUP2 GT ISZERO PUSH2 0x1630 JUMPI PUSH2 0x1630 PUSH2 0x3790 JUMP JUMPDEST DUP2 SLOAD PUSH1 0x1 PUSH1 0x20 SHL SWAP1 DIV PUSH1 0xFF AND PUSH1 0x1 DUP2 GT ISZERO PUSH2 0x164D JUMPI PUSH2 0x164D PUSH2 0x3790 JUMP JUMPDEST EQ PUSH2 0x1685 JUMPI PUSH1 0x40 MLOAD PUSH3 0x461BCD PUSH1 0xE5 SHL DUP2 MSTORE PUSH1 0x20 PUSH1 0x4 DUP3 ADD MSTORE PUSH1 0x8 PUSH1 0x24 DUP3 ADD MSTORE PUSH8 0x191A59999DDBDBD9 PUSH1 0xC2 SHL PUSH1 0x44 DUP3 ADD MSTORE PUSH1 0x64 ADD PUSH2 0x729 JUMP JUMPDEST DUP1 SLOAD PUSH1 0x1 PUSH1 0x60 SHL SWAP1 DIV PUSH1 0xFF AND PUSH1 0x0 SUB PUSH2 0x17FB JUMPI PUSH1 0xB PUSH1 0x0 DUP5 PUSH1 0xFF AND PUSH2 0xFFFF AND DUP2 MSTORE PUSH1 0x20 ADD SWAP1 DUP2 MSTORE PUSH1 0x20 ADD PUSH1 0x0 KECCAK256 PUSH1 0x40 MLOAD DUP1 PUSH1 0xA0 ADD PUSH1 0x40 MSTORE DUP1 DUP7 PUSH1 0x0 ADD MLOAD DUP2 MSTORE PUSH1 0x20 ADD DUP7 PUSH1 0x20 ADD MLOAD PUSH2 0xFFFF AND DUP2 MSTORE PUSH1 0x20 ADD DUP7 PUSH1 0x40 ADD MLOAD PUSH2 0xFFFF AND DUP2 MSTORE PUSH1 0x20 ADD DUP7 PUSH1 0x60 ADD MLOAD PUSH2 0xFFFF AND DUP2 MSTORE PUSH1 0x20 ADD DUP7 PUSH1 0x80 ADD MLOAD PUSH1 0x1 DUP2 GT ISZERO PUSH2 0x1707 JUMPI PUSH2 0x1707 PUSH2 0x3790 JUMP JUMPDEST SWAP1 MSTORE DUP2 SLOAD PUSH1 0x1 DUP2 ADD DUP4 SSTORE PUSH1 0x0 SWAP3 DUP4 MSTORE PUSH1 0x20 SWAP3 DUP4 SWAP1 KECCAK256 DUP3 MLOAD DUP1 MLOAD SWAP4 SWAP5 PUSH1 0x2 SWAP1 SWAP4 MUL SWAP1 SWAP2 ADD SWAP3 PUSH2 0x1738 SWAP3 DUP5 SWAP3 ADD SWAP1 PUSH2 0x31ED JUMP JUMPDEST POP PUSH1 0x20 DUP3 ADD MLOAD PUSH1 0x1 DUP1 DUP4 ADD DUP1 SLOAD PUSH1 0x40 DUP7 ADD MLOAD PUSH1 0x60 DUP8 ADD MLOAD PUSH2 0xFFFF SWAP1 DUP2 AND PUSH1 0x1 PUSH1 0x20 SHL MUL PUSH6 0xFFFF00000000 NOT SWAP3 DUP3 AND PUSH3 0x10000 MUL PUSH4 0xFFFFFFFF NOT SWAP1 SWAP5 AND SWAP2 SWAP1 SWAP7 AND OR SWAP2 SWAP1 SWAP2 OR SWAP1 DUP2 AND DUP5 OR DUP3 SSTORE PUSH1 0x80 DUP7 ADD MLOAD SWAP4 SWAP2 SWAP3 PUSH7 0xFF000000000000 NOT SWAP1 SWAP3 AND PUSH7 0xFFFFFF00000000 NOT SWAP1 SWAP2 AND OR SWAP1 PUSH1 0x1 PUSH1 0x30 SHL SWAP1 DUP5 SWAP1 DUP2 GT ISZERO PUSH2 0x17BD JUMPI PUSH2 0x17BD PUSH2 0x3790 JUMP JUMPDEST MUL OR SWAP1 SSTORE POP POP DUP2 SLOAD PUSH1 0x1 PUSH1 0x60 SHL SWAP1 DIV PUSH1 0xFF AND SWAP1 POP DUP2 PUSH1 0xC PUSH2 0x17DD DUP4 PUSH2 0x409E JUMP JUMPDEST SWAP2 SWAP1 PUSH2 0x100 EXP DUP2 SLOAD DUP2 PUSH1 0xFF MUL NOT AND SWAP1 DUP4 PUSH1 0xFF AND MUL OR SWAP1 SSTORE POP POP PUSH2 0x1A53 JUMP JUMPDEST PUSH1 0xFF DUP4 AND PUSH1 0x0 SWAP1 DUP2 MSTORE PUSH1 0xB PUSH1 0x20 MSTORE PUSH1 0x40 DUP2 KECCAK256 DUP1 SLOAD DUP3 SWAP1 PUSH2 0x181D JUMPI PUSH2 0x181D PUSH2 0x3FBB JUMP JUMPDEST SWAP1 PUSH1 0x0 MSTORE PUSH1 0x20 PUSH1 0x0 KECCAK256 SWAP1 PUSH1 0x2 MUL ADD SWAP1 POP DUP1 PUSH1 0x1 ADD PUSH1 0x6 SWAP1 SLOAD SWAP1 PUSH2 0x100 EXP SWAP1 DIV PUSH1 0xFF AND PUSH1 0x1 DUP2 GT ISZERO PUSH2 0x1850 JUMPI PUSH2 0x1850 PUSH2 0x3790 JUMP JUMPDEST DUP6 PUSH1 0x80 ADD MLOAD PUSH1 0x1 DUP2 GT ISZERO PUSH2 0x1866 JUMPI PUSH2 0x1866 PUSH2 0x3790 JUMP JUMPDEST EQ PUSH2 0x18A4 JUMPI PUSH1 0x40 MLOAD PUSH3 0x461BCD PUSH1 0xE5 SHL DUP2 MSTORE PUSH1 0x20 PUSH1 0x4 DUP3 ADD MSTORE PUSH1 0xE PUSH1 0x24 DUP3 ADD MSTORE PUSH14 0x3BB7B7B2103A3CB832903730B4B3 PUSH1 0x91 SHL PUSH1 0x44 DUP3 ADD MSTORE PUSH1 0x64 ADD PUSH2 0x729 JUMP JUMPDEST PUSH1 0x1 DUP2 ADD SLOAD PUSH1 0x20 DUP7 ADD MLOAD PUSH2 0xFFFF SWAP1 DUP2 AND SWAP2 AND EQ PUSH2 0x18F3 JUMPI PUSH1 0x40 MLOAD PUSH3 0x461BCD PUSH1 0xE5 SHL DUP2 MSTORE PUSH1 0x20 PUSH1 0x4 DUP3 ADD MSTORE PUSH1 0xD PUSH1 0x24 DUP3 ADD MSTORE PUSH13 0x383637BA1030B3B2903730B4B3 PUSH1 0x99 SHL PUSH1 0x44 DUP3 ADD MSTORE PUSH1 0x64 ADD PUSH2 0x729 JUMP JUMPDEST PUSH1 0xB PUSH1 0x0 DUP6 PUSH1 0xFF AND PUSH2 0xFFFF AND DUP2 MSTORE PUSH1 0x20 ADD SWAP1 DUP2 MSTORE PUSH1 0x20 ADD PUSH1 0x0 KECCAK256 PUSH1 0x40 MLOAD DUP1 PUSH1 0xA0 ADD PUSH1 0x40 MSTORE DUP1 DUP8 PUSH1 0x0 ADD MLOAD DUP2 MSTORE PUSH1 0x20 ADD DUP8 PUSH1 0x20 ADD MLOAD PUSH2 0xFFFF AND DUP2 MSTORE PUSH1 0x20 ADD DUP8 PUSH1 0x40 ADD MLOAD PUSH2 0xFFFF AND DUP2 MSTORE PUSH1 0x20 ADD DUP8 PUSH1 0x60 ADD MLOAD PUSH2 0xFFFF AND DUP2 MSTORE PUSH1 0x20 ADD DUP8 PUSH1 0x80 ADD MLOAD PUSH1 0x1 DUP2 GT ISZERO PUSH2 0x1962 JUMPI PUSH2 0x1962 PUSH2 0x3790 JUMP JUMPDEST SWAP1 MSTORE DUP2 SLOAD PUSH1 0x1 DUP2 ADD DUP4 SSTORE PUSH1 0x0 SWAP3 DUP4 MSTORE PUSH1 0x20 SWAP3 DUP4 SWAP1 KECCAK256 DUP3 MLOAD DUP1 MLOAD SWAP4 SWAP5 PUSH1 0x2 SWAP1 SWAP4 MUL SWAP1 SWAP2 ADD SWAP3 PUSH2 0x1993 SWAP3 DUP5 SWAP3 ADD SWAP1 PUSH2 0x31ED JUMP JUMPDEST POP PUSH1 0x20 DUP3 ADD MLOAD PUSH1 0x1 DUP1 DUP4 ADD DUP1 SLOAD PUSH1 0x40 DUP7 ADD MLOAD PUSH1 0x60 DUP8 ADD MLOAD PUSH2 0xFFFF SWAP1 DUP2 AND PUSH1 0x1 PUSH1 0x20 SHL MUL PUSH6 0xFFFF00000000 NOT SWAP3 DUP3 AND PUSH3 0x10000 MUL PUSH4 0xFFFFFFFF NOT SWAP1 SWAP5 AND SWAP2 SWAP1 SWAP7 AND OR SWAP2 SWAP1 SWAP2 OR SWAP1 DUP2 AND DUP5 OR DUP3 SSTORE PUSH1 0x80 DUP7 ADD MLOAD SWAP4 SWAP2 SWAP3 PUSH7 0xFF000000000000 NOT SWAP1 SWAP3 AND PUSH7 0xFFFFFF00000000 NOT SWAP1 SWAP2 AND OR SWAP1 PUSH1 0x1 PUSH1 0x30 SHL SWAP1 DUP5 SWAP1 DUP2 GT ISZERO PUSH2 0x1A18 JUMPI PUSH2 0x1A18 PUSH2 0x3790 JUMP JUMPDEST MUL OR SWAP1 SSTORE POP POP DUP3 SLOAD PUSH1 0x1 PUSH1 0x60 SHL SWAP1 DIV PUSH1 0xFF AND SWAP1 POP DUP3 PUSH1 0xC PUSH2 0x1A38 DUP4 PUSH2 0x409E JUMP JUMPDEST SWAP2 SWAP1 PUSH2 0x100 EXP DUP2 SLOAD DUP2 PUSH1 0xFF MUL NOT AND SWAP1 DUP4 PUSH1 0xFF AND MUL OR SWAP1 SSTORE POP POP POP JUMPDEST POP SWAP3 SWAP2 POP POP JUMP JUMPDEST PUSH1 0x0 SWAP2 DUP3 MSTORE PUSH1 0x1 PUSH1 0x20 SWAP1 DUP2 MSTORE PUSH1 0x40 DUP1 DUP5 KECCAK256 PUSH1 0x1 PUSH1 0x1 PUSH1 0xA0 SHL SUB SWAP4 SWAP1 SWAP4 AND DUP5 MSTORE SWAP2 SWAP1 MSTORE SWAP1 KECCAK256 SLOAD PUSH1 0xFF AND SWAP1 JUMP JUMPDEST PUSH32 0x0 PUSH2 0x1AAF DUP2 PUSH2 0x275B JUMP JUMPDEST PUSH1 0xA DUP1 SLOAD PUSH1 0x0 SWAP2 PUSH1 0xFF SWAP1 SWAP2 AND SWAP1 DUP3 PUSH2 0x1AC6 DUP4 PUSH2 0x409E JUMP JUMPDEST SWAP2 SWAP1 PUSH2 0x100 EXP DUP2 SLOAD DUP2 PUSH1 0xFF MUL NOT AND SWAP1 DUP4 PUSH1 0xFF AND MUL OR SWAP1 SSTORE POP SWAP1 POP PUSH2 0x1B6D DUP8 DUP8 DUP8 DUP1 DUP1 PUSH1 0x20 MUL PUSH1 0x20 ADD PUSH1 0x40 MLOAD SWAP1 DUP2 ADD PUSH1 0x40 MSTORE DUP1 SWAP4 SWAP3 SWAP2 SWAP1 DUP2 DUP2 MSTORE PUSH1 0x20 ADD DUP4 DUP4 PUSH1 0x20 MUL DUP1 DUP3 DUP5 CALLDATACOPY PUSH1 0x0 SWAP3 ADD SWAP2 SWAP1 SWAP2 MSTORE POP POP PUSH1 0x40 DUP1 MLOAD PUSH1 0x20 DUP1 DUP12 MUL DUP3 DUP2 ADD DUP3 ADD SWAP1 SWAP4 MSTORE DUP11 DUP3 MSTORE SWAP1 SWAP4 POP DUP11 SWAP3 POP DUP10 SWAP2 DUP3 SWAP2 DUP6 ADD SWAP1 DUP5 SWAP1 DUP1 DUP3 DUP5 CALLDATACOPY PUSH1 0x0 SWAP3 ADD SWAP2 SWAP1 SWAP2 MSTORE POP POP PUSH1 0x40 DUP1 MLOAD DUP1 DUP3 ADD SWAP1 SWAP2 MSTORE PUSH1 0x7 DUP2 MSTORE PUSH7 0x6D696E74696E67 PUSH1 0xC8 SHL PUSH1 0x20 DUP3 ADD MSTORE SWAP2 POP PUSH2 0x2401 SWAP1 POP JUMP JUMPDEST PUSH2 0x1B79 DUP8 CALLER PUSH1 0x1 PUSH2 0x2587 JUMP JUMPDEST POP POP POP POP POP POP POP JUMP JUMPDEST PUSH2 0x1290 CALLER DUP4 DUP4 PUSH2 0x2A14 JUMP JUMPDEST PUSH1 0x7 DUP1 SLOAD PUSH2 0x1B9A SWAP1 PUSH2 0x3F81 JUMP JUMPDEST DUP1 PUSH1 0x1F ADD PUSH1 0x20 DUP1 SWAP2 DIV MUL PUSH1 0x20 ADD PUSH1 0x40 MLOAD SWAP1 DUP2 ADD PUSH1 0x40 MSTORE DUP1 SWAP3 SWAP2 SWAP1 DUP2 DUP2 MSTORE PUSH1 0x20 ADD DUP3 DUP1 SLOAD PUSH2 0x1BC6 SWAP1 PUSH2 0x3F81 JUMP JUMPDEST DUP1 ISZERO PUSH2 0x1C13 JUMPI DUP1 PUSH1 0x1F LT PUSH2 0x1BE8 JUMPI PUSH2 0x100 DUP1 DUP4 SLOAD DIV MUL DUP4 MSTORE SWAP2 PUSH1 0x20 ADD SWAP2 PUSH2 0x1C13 JUMP JUMPDEST DUP3 ADD SWAP2 SWAP1 PUSH1 0x0 MSTORE PUSH1 0x20 PUSH1 0x0 KECCAK256 SWAP1 JUMPDEST DUP2 SLOAD DUP2 MSTORE SWAP1 PUSH1 0x1 ADD SWAP1 PUSH1 0x20 ADD DUP1 DUP4 GT PUSH2 0x1BF6 JUMPI DUP3 SWAP1 SUB PUSH1 0x1F AND DUP3 ADD SWAP2 JUMPDEST POP POP POP POP POP DUP2 JUMP JUMPDEST PUSH1 0xFF DUP2 AND PUSH1 0x0 SWAP1 DUP2 MSTORE PUSH1 0xD PUSH1 0x20 MSTORE PUSH1 0x40 SWAP1 KECCAK256 DUP1 SLOAD PUSH4 0xFFFFFFFF PUSH1 0x1 PUSH1 0x38 SHL SWAP1 SWAP2 DIV DUP2 AND SWAP1 DUP5 AND GT ISZERO PUSH2 0x1CA3 JUMPI PUSH1 0x40 MLOAD PUSH3 0x461BCD PUSH1 0xE5 SHL DUP2 MSTORE PUSH1 0x20 PUSH1 0x4 DUP3 ADD MSTORE PUSH1 0x2B PUSH1 0x24 DUP3 ADD MSTORE PUSH32 0x666C6F72657374206E6F7420616C6C6F77656420746F20746F6B656E697A6520 PUSH1 0x44 DUP3 ADD MSTORE PUSH11 0x1D1A1A5CC8185B5BDD5B9D PUSH1 0xAA SHL PUSH1 0x64 DUP3 ADD MSTORE PUSH1 0x84 ADD PUSH2 0x729 JUMP JUMPDEST DUP1 SLOAD PUSH4 0xFFFFFFFF NOT AND PUSH4 0xFFFFFFFF SWAP4 SWAP1 SWAP4 AND SWAP3 SWAP1 SWAP3 OR SWAP1 SWAP2 SSTORE POP POP JUMP JUMPDEST PUSH2 0x1D09 PUSH1 0x40 DUP1 MLOAD PUSH2 0x100 DUP2 ADD DUP3 MSTORE PUSH1 0x60 DUP1 DUP3 MSTORE PUSH1 0x20 DUP3 ADD MSTORE SWAP1 DUP2 ADD PUSH1 0x0 DUP2 MSTORE PUSH1 0x0 PUSH1 0x20 DUP3 ADD DUP2 SWAP1 MSTORE PUSH1 0x40 DUP3 ADD DUP2 SWAP1 MSTORE PUSH1 0x60 SWAP1 SWAP2 ADD SWAP1 DUP2 MSTORE PUSH1 0x0 PUSH1 0x20 DUP3 ADD MSTORE PUSH1 0x60 PUSH1 0x40 SWAP1 SWAP2 ADD MSTORE SWAP1 JUMP JUMPDEST PUSH2 0xFFFF DUP4 AND PUSH1 0x0 SWAP1 DUP2 MSTORE PUSH1 0xC PUSH1 0x20 MSTORE PUSH1 0x40 SWAP1 KECCAK256 DUP1 SLOAD PUSH1 0xFF DUP5 AND SWAP1 DUP2 LT PUSH2 0x1D31 JUMPI PUSH2 0x1D31 PUSH2 0x3FBB JUMP JUMPDEST SWAP1 PUSH1 0x0 MSTORE PUSH1 0x20 PUSH1 0x0 KECCAK256 SWAP1 PUSH1 0x5 MUL ADD PUSH1 0x40 MLOAD DUP1 PUSH2 0x100 ADD PUSH1 0x40 MSTORE SWAP1 DUP2 PUSH1 0x0 DUP3 ADD DUP1 SLOAD PUSH2 0x1D5B SWAP1 PUSH2 0x3F81 JUMP JUMPDEST DUP1 PUSH1 0x1F ADD PUSH1 0x20 DUP1 SWAP2 DIV MUL PUSH1 0x20 ADD PUSH1 0x40 MLOAD SWAP1 DUP2 ADD PUSH1 0x40 MSTORE DUP1 SWAP3 SWAP2 SWAP1 DUP2 DUP2 MSTORE PUSH1 0x20 ADD DUP3 DUP1 SLOAD PUSH2 0x1D87 SWAP1 PUSH2 0x3F81 JUMP JUMPDEST DUP1 ISZERO PUSH2 0x1DD4 JUMPI DUP1 PUSH1 0x1F LT PUSH2 0x1DA9 JUMPI PUSH2 0x100 DUP1 DUP4 SLOAD DIV MUL DUP4 MSTORE SWAP2 PUSH1 0x20 ADD SWAP2 PUSH2 0x1DD4 JUMP JUMPDEST DUP3 ADD SWAP2 SWAP1 PUSH1 0x0 MSTORE PUSH1 0x20 PUSH1 0x0 KECCAK256 SWAP1 JUMPDEST DUP2 SLOAD DUP2 MSTORE SWAP1 PUSH1 0x1 ADD SWAP1 PUSH1 0x20 ADD DUP1 DUP4 GT PUSH2 0x1DB7 JUMPI DUP3 SWAP1 SUB PUSH1 0x1F AND DUP3 ADD SWAP2 JUMPDEST POP POP POP POP POP DUP2 MSTORE PUSH1 0x20 ADD PUSH1 0x1 DUP3 ADD DUP1 SLOAD PUSH2 0x1DED SWAP1 PUSH2 0x3F81 JUMP JUMPDEST DUP1 PUSH1 0x1F ADD PUSH1 0x20 DUP1 SWAP2 DIV MUL PUSH1 0x20 ADD PUSH1 0x40 MLOAD SWAP1 DUP2 ADD PUSH1 0x40 MSTORE DUP1 SWAP3 SWAP2 SWAP1 DUP2 DUP2 MSTORE PUSH1 0x20 ADD DUP3 DUP1 SLOAD PUSH2 0x1E19 SWAP1 PUSH2 0x3F81 JUMP JUMPDEST DUP1 ISZERO PUSH2 0x1E66 JUMPI DUP1 PUSH1 0x1F LT PUSH2 0x1E3B JUMPI PUSH2 0x100 DUP1 DUP4 SLOAD DIV MUL DUP4 MSTORE SWAP2 PUSH1 0x20 ADD SWAP2 PUSH2 0x1E66 JUMP JUMPDEST DUP3 ADD SWAP2 SWAP1 PUSH1 0x0 MSTORE PUSH1 0x20 PUSH1 0x0 KECCAK256 SWAP1 JUMPDEST DUP2 SLOAD DUP2 MSTORE SWAP1 PUSH1 0x1 ADD SWAP1 PUSH1 0x20 ADD DUP1 DUP4 GT PUSH2 0x1E49 JUMPI DUP3 SWAP1 SUB PUSH1 0x1F AND DUP3 ADD SWAP2 JUMPDEST POP POP POP SWAP2 DUP4 MSTORE POP POP PUSH1 0x2 DUP3 ADD SLOAD PUSH1 0x20 SWAP1 SWAP2 ADD SWAP1 PUSH1 0xFF AND PUSH1 0x1 DUP2 GT ISZERO PUSH2 0x1E8D JUMPI PUSH2 0x1E8D PUSH2 0x3790 JUMP JUMPDEST PUSH1 0x1 DUP2 GT ISZERO PUSH2 0x1E9E JUMPI PUSH2 0x1E9E PUSH2 0x3790 JUMP JUMPDEST DUP2 MSTORE PUSH1 0x2 DUP3 ADD SLOAD PUSH2 0x100 SWAP1 DIV PUSH1 0x1 PUSH1 0x1 PUSH1 0xA0 SHL SUB SWAP1 DUP2 AND PUSH1 0x20 DUP4 ADD MSTORE PUSH1 0x3 DUP4 ADD SLOAD SWAP1 DUP2 AND PUSH1 0x40 DUP4 ADD MSTORE PUSH1 0x60 SWAP1 SWAP2 ADD SWAP1 PUSH1 0x1 PUSH1 0xA0 SHL SWAP1 DIV PUSH1 0xFF AND PUSH1 0x1 DUP2 GT ISZERO PUSH2 0x1EE8 JUMPI PUSH2 0x1EE8 PUSH2 0x3790 JUMP JUMPDEST PUSH1 0x1 DUP2 GT ISZERO PUSH2 0x1EF9 JUMPI PUSH2 0x1EF9 PUSH2 0x3790 JUMP JUMPDEST DUP2 MSTORE PUSH1 0x3 DUP3 ADD SLOAD PUSH1 0x1 PUSH1 0xA8 SHL SWAP1 DIV PUSH1 0xFF AND ISZERO ISZERO PUSH1 0x20 DUP3 ADD MSTORE PUSH1 0x4 DUP3 ADD DUP1 SLOAD PUSH1 0x40 SWAP1 SWAP3 ADD SWAP2 PUSH2 0x1F26 SWAP1 PUSH2 0x3F81 JUMP JUMPDEST DUP1 PUSH1 0x1F ADD PUSH1 0x20 DUP1 SWAP2 DIV MUL PUSH1 0x20 ADD PUSH1 0x40 MLOAD SWAP1 DUP2 ADD PUSH1 0x40 MSTORE DUP1 SWAP3 SWAP2 SWAP1 DUP2 DUP2 MSTORE PUSH1 0x20 ADD DUP3 DUP1 SLOAD PUSH2 0x1F52 SWAP1 PUSH2 0x3F81 JUMP JUMPDEST DUP1 ISZERO PUSH2 0x1F9F JUMPI DUP1 PUSH1 0x1F LT PUSH2 0x1F74 JUMPI PUSH2 0x100 DUP1 DUP4 SLOAD DIV MUL DUP4 MSTORE SWAP2 PUSH1 0x20 ADD SWAP2 PUSH2 0x1F9F JUMP JUMPDEST DUP3 ADD SWAP2 SWAP1 PUSH1 0x0 MSTORE PUSH1 0x20 PUSH1 0x0 KECCAK256 SWAP1 JUMPDEST DUP2 SLOAD DUP2 MSTORE SWAP1 PUSH1 0x1 ADD SWAP1 PUSH1 0x20 ADD DUP1 DUP4 GT PUSH2 0x1F82 JUMPI DUP3 SWAP1 SUB PUSH1 0x1F AND DUP3 ADD SWAP2 JUMPDEST POP POP POP POP POP DUP2 MSTORE POP POP SWAP1 POP SWAP3 SWAP2 POP POP JUMP JUMPDEST PUSH1 0x0 DUP3 DUP2 MSTORE PUSH1 0x1 PUSH1 0x20 DUP2 SWAP1 MSTORE PUSH1 0x40 SWAP1 SWAP2 KECCAK256 ADD SLOAD PUSH2 0x1FCC DUP2 PUSH2 0x275B JUMP JUMPDEST PUSH2 0x1211 DUP4 DUP4 PUSH2 0x27D0 JUMP JUMPDEST PUSH32 0x0 PUSH2 0x2000 DUP2 PUSH2 0x275B JUMP JUMPDEST POP PUSH1 0xA DUP1 SLOAD PUSH2 0xFFFF SWAP1 SWAP3 AND PUSH3 0x10000 MUL PUSH4 0xFFFF0000 NOT SWAP1 SWAP3 AND SWAP2 SWAP1 SWAP2 OR SWAP1 SSTORE JUMP JUMPDEST PUSH1 0x6 DUP1 SLOAD PUSH2 0x1B9A SWAP1 PUSH2 0x3F81 JUMP JUMPDEST PUSH1 0x1 PUSH1 0x1 PUSH1 0xA0 SHL SUB DUP6 AND CALLER EQ DUP1 PUSH2 0x204A JUMPI POP PUSH2 0x204A DUP6 CALLER PUSH2 0x5D6 JUMP JUMPDEST PUSH2 0x2066 JUMPI PUSH1 0x40 MLOAD PUSH3 0x461BCD PUSH1 0xE5 SHL DUP2 MSTORE PUSH1 0x4 ADD PUSH2 0x729 SWAP1 PUSH2 0x40BD JUMP JUMPDEST PUSH2 0x11E4 DUP6 DUP6 DUP6 DUP6 DUP6 PUSH2 0x2AF4 JUMP JUMPDEST PUSH2 0x207B PUSH2 0x22DA JUMP JUMPDEST PUSH1 0x1 PUSH1 0x1 PUSH1 0xA0 SHL SUB DUP2 AND PUSH2 0x20E0 JUMPI PUSH1 0x40 MLOAD PUSH3 0x461BCD PUSH1 0xE5 SHL DUP2 MSTORE PUSH1 0x20 PUSH1 0x4 DUP3 ADD MSTORE PUSH1 0x26 PUSH1 0x24 DUP3 ADD MSTORE PUSH32 0x4F776E61626C653A206E6577206F776E657220697320746865207A65726F2061 PUSH1 0x44 DUP3 ADD MSTORE PUSH6 0x646472657373 PUSH1 0xD0 SHL PUSH1 0x64 DUP3 ADD MSTORE PUSH1 0x84 ADD PUSH2 0x729 JUMP JUMPDEST PUSH2 0x20E9 DUP2 PUSH2 0x29C4 JUMP JUMPDEST POP JUMP JUMPDEST PUSH1 0x1 PUSH1 0x1 PUSH1 0xA0 SHL SUB DUP4 AND CALLER EQ DUP1 PUSH2 0x2108 JUMPI POP PUSH2 0x2108 DUP4 CALLER PUSH2 0x5D6 JUMP JUMPDEST PUSH2 0x2124 JUMPI PUSH1 0x40 MLOAD PUSH3 0x461BCD PUSH1 0xE5 SHL DUP2 MSTORE PUSH1 0x4 ADD PUSH2 0x729 SWAP1 PUSH2 0x40BD JUMP JUMPDEST PUSH2 0x1211 DUP4 DUP4 DUP4 PUSH2 0x2C22 JUMP JUMPDEST PUSH2 0x215E PUSH1 0x40 DUP1 MLOAD PUSH1 0xA0 DUP2 ADD DUP3 MSTORE PUSH1 0x60 DUP1 DUP3 MSTORE PUSH1 0x0 PUSH1 0x20 DUP4 ADD DUP2 SWAP1 MSTORE SWAP3 DUP3 ADD DUP4 SWAP1 MSTORE DUP2 ADD DUP3 SWAP1 MSTORE SWAP1 PUSH1 0x80 DUP3 ADD MSTORE SWAP1 JUMP JUMPDEST PUSH1 0xFF DUP4 AND PUSH1 0x0 SWAP1 DUP2 MSTORE PUSH1 0xB PUSH1 0x20 MSTORE PUSH1 0x40 DUP2 KECCAK256 DUP1 SLOAD PUSH2 0xFFFF DUP6 AND SWAP1 DUP2 LT PUSH2 0x2186 JUMPI PUSH2 0x2186 PUSH2 0x3FBB JUMP JUMPDEST SWAP1 PUSH1 0x0 MSTORE PUSH1 0x20 PUSH1 0x0 KECCAK256 SWAP1 PUSH1 0x2 MUL ADD SWAP1 POP DUP1 PUSH1 0x40 MLOAD DUP1 PUSH1 0xA0 ADD PUSH1 0x40 MSTORE SWAP1 DUP2 PUSH1 0x0 DUP3 ADD DUP1 SLOAD PUSH2 0x21B2 SWAP1 PUSH2 0x3F81 JUMP JUMPDEST DUP1 PUSH1 0x1F ADD PUSH1 0x20 DUP1 SWAP2 DIV MUL PUSH1 0x20 ADD PUSH1 0x40 MLOAD SWAP1 DUP2 ADD PUSH1 0x40 MSTORE DUP1 SWAP3 SWAP2 SWAP1 DUP2 DUP2 MSTORE PUSH1 0x20 ADD DUP3 DUP1 SLOAD PUSH2 0x21DE SWAP1 PUSH2 0x3F81 JUMP JUMPDEST DUP1 ISZERO PUSH2 0x222B JUMPI DUP1 PUSH1 0x1F LT PUSH2 0x2200 JUMPI PUSH2 0x100 DUP1 DUP4 SLOAD DIV MUL DUP4 MSTORE SWAP2 PUSH1 0x20 ADD SWAP2 PUSH2 0x222B JUMP JUMPDEST DUP3 ADD SWAP2 SWAP1 PUSH1 0x0 MSTORE PUSH1 0x20 PUSH1 0x0 KECCAK256 SWAP1 JUMPDEST DUP2 SLOAD DUP2 MSTORE SWAP1 PUSH1 0x1 ADD SWAP1 PUSH1 0x20 ADD DUP1 DUP4 GT PUSH2 0x220E JUMPI DUP3 SWAP1 SUB PUSH1 0x1F AND DUP3 ADD SWAP2 JUMPDEST POP POP POP SWAP2 DUP4 MSTORE POP POP PUSH1 0x1 DUP3 DUP2 ADD SLOAD PUSH2 0xFFFF DUP1 DUP3 AND PUSH1 0x20 DUP6 ADD MSTORE PUSH3 0x10000 DUP3 DIV DUP2 AND PUSH1 0x40 DUP6 ADD MSTORE PUSH1 0x1 PUSH1 0x20 SHL DUP3 DIV AND PUSH1 0x60 DUP5 ADD MSTORE PUSH1 0x80 SWAP1 SWAP3 ADD SWAP2 PUSH1 0x1 PUSH1 0x30 SHL SWAP1 DIV PUSH1 0xFF AND SWAP1 DUP2 GT ISZERO PUSH2 0x227E JUMPI PUSH2 0x227E PUSH2 0x3790 JUMP JUMPDEST PUSH1 0x1 DUP2 GT ISZERO PUSH2 0x228F JUMPI PUSH2 0x228F PUSH2 0x3790 JUMP JUMPDEST SWAP1 MSTORE POP SWAP5 SWAP4 POP POP POP POP JUMP JUMPDEST PUSH1 0x0 PUSH1 0x1 PUSH1 0x1 PUSH1 0xE0 SHL SUB NOT DUP3 AND PUSH4 0x6CDB3D13 PUSH1 0xE1 SHL EQ DUP1 PUSH2 0x22CB JUMPI POP PUSH1 0x1 PUSH1 0x1 PUSH1 0xE0 SHL SUB NOT DUP3 AND PUSH4 0x3A24D07 PUSH1 0xE2 SHL EQ JUMPDEST DUP1 PUSH2 0x765 JUMPI POP PUSH2 0x765 DUP3 PUSH2 0x2D29 JUMP JUMPDEST PUSH1 0x0 SLOAD PUSH1 0x1 PUSH1 0x1 PUSH1 0xA0 SHL SUB AND CALLER EQ PUSH2 0x1576 JUMPI PUSH1 0x40 MLOAD PUSH3 0x461BCD PUSH1 0xE5 SHL DUP2 MSTORE PUSH1 0x20 PUSH1 0x4 DUP3 ADD DUP2 SWAP1 MSTORE PUSH1 0x24 DUP3 ADD MSTORE PUSH32 0x4F776E61626C653A2063616C6C6572206973206E6F7420746865206F776E6572 PUSH1 0x44 DUP3 ADD MSTORE PUSH1 0x64 ADD PUSH2 0x729 JUMP JUMPDEST PUSH2 0x1290 DUP3 DUP3 PUSH1 0x40 MLOAD PUSH1 0x24 ADD PUSH2 0x234A SWAP3 SWAP2 SWAP1 PUSH2 0x4149 JUMP JUMPDEST PUSH1 0x40 DUP1 MLOAD PUSH1 0x1F NOT DUP2 DUP5 SUB ADD DUP2 MSTORE SWAP2 SWAP1 MSTORE PUSH1 0x20 DUP2 ADD DUP1 MLOAD PUSH1 0x1 PUSH1 0x1 PUSH1 0xE0 SHL SUB AND PUSH4 0x2D839CB3 PUSH1 0xE2 SHL OR SWAP1 MSTORE PUSH2 0x2D5E JUMP JUMPDEST PUSH2 0x20E9 DUP2 PUSH1 0x40 MLOAD PUSH1 0x24 ADD PUSH2 0x238F SWAP2 DUP2 MSTORE PUSH1 0x20 ADD SWAP1 JUMP JUMPDEST PUSH1 0x40 DUP1 MLOAD PUSH1 0x1F NOT DUP2 DUP5 SUB ADD DUP2 MSTORE SWAP2 SWAP1 MSTORE PUSH1 0x20 DUP2 ADD DUP1 MLOAD PUSH1 0x1 PUSH1 0x1 PUSH1 0xE0 SHL SUB AND PUSH4 0xF82C50F1 PUSH1 0xE0 SHL OR SWAP1 MSTORE PUSH2 0x2D5E JUMP JUMPDEST PUSH2 0x20E9 DUP2 PUSH1 0x40 MLOAD PUSH1 0x24 ADD PUSH2 0x23D2 SWAP2 SWAP1 PUSH2 0x33F5 JUMP JUMPDEST PUSH1 0x40 DUP1 MLOAD PUSH1 0x1F NOT DUP2 DUP5 SUB ADD DUP2 MSTORE SWAP2 SWAP1 MSTORE PUSH1 0x20 DUP2 ADD DUP1 MLOAD PUSH1 0x1 PUSH1 0x1 PUSH1 0xE0 SHL SUB AND PUSH4 0x104C13EB PUSH1 0xE2 SHL OR SWAP1 MSTORE PUSH2 0x2D5E JUMP JUMPDEST PUSH1 0x1 PUSH1 0x1 PUSH1 0xA0 SHL SUB DUP5 AND PUSH2 0x2461 JUMPI PUSH1 0x40 MLOAD PUSH3 0x461BCD PUSH1 0xE5 SHL DUP2 MSTORE PUSH1 0x20 PUSH1 0x4 DUP3 ADD MSTORE PUSH1 0x21 PUSH1 0x24 DUP3 ADD MSTORE PUSH32 0x455243313135353A206D696E7420746F20746865207A65726F20616464726573 PUSH1 0x44 DUP3 ADD MSTORE PUSH1 0x73 PUSH1 0xF8 SHL PUSH1 0x64 DUP3 ADD MSTORE PUSH1 0x84 ADD PUSH2 0x729 JUMP JUMPDEST DUP2 MLOAD DUP4 MLOAD EQ PUSH2 0x2482 JUMPI PUSH1 0x40 MLOAD PUSH3 0x461BCD PUSH1 0xE5 SHL DUP2 MSTORE PUSH1 0x4 ADD PUSH2 0x729 SWAP1 PUSH2 0x416B JUMP JUMPDEST CALLER PUSH1 0x0 JUMPDEST DUP5 MLOAD DUP2 LT ISZERO PUSH2 0x251F JUMPI DUP4 DUP2 DUP2 MLOAD DUP2 LT PUSH2 0x24A1 JUMPI PUSH2 0x24A1 PUSH2 0x3FBB JUMP JUMPDEST PUSH1 0x20 MUL PUSH1 0x20 ADD ADD MLOAD PUSH1 0x2 PUSH1 0x0 DUP8 DUP5 DUP2 MLOAD DUP2 LT PUSH2 0x24BF JUMPI PUSH2 0x24BF PUSH2 0x3FBB JUMP JUMPDEST PUSH1 0x20 MUL PUSH1 0x20 ADD ADD MLOAD DUP2 MSTORE PUSH1 0x20 ADD SWAP1 DUP2 MSTORE PUSH1 0x20 ADD PUSH1 0x0 KECCAK256 PUSH1 0x0 DUP9 PUSH1 0x1 PUSH1 0x1 PUSH1 0xA0 SHL SUB AND PUSH1 0x1 PUSH1 0x1 PUSH1 0xA0 SHL SUB AND DUP2 MSTORE PUSH1 0x20 ADD SWAP1 DUP2 MSTORE PUSH1 0x20 ADD PUSH1 0x0 KECCAK256 PUSH1 0x0 DUP3 DUP3 SLOAD PUSH2 0x2507 SWAP2 SWAP1 PUSH2 0x41B3 JUMP JUMPDEST SWAP1 SWAP2 SSTORE POP DUP2 SWAP1 POP PUSH2 0x2517 DUP2 PUSH2 0x410B JUMP JUMPDEST SWAP2 POP POP PUSH2 0x2486 JUMP JUMPDEST POP DUP5 PUSH1 0x1 PUSH1 0x1 PUSH1 0xA0 SHL SUB AND PUSH1 0x0 PUSH1 0x1 PUSH1 0x1 PUSH1 0xA0 SHL SUB AND DUP3 PUSH1 0x1 PUSH1 0x1 PUSH1 0xA0 SHL SUB AND PUSH32 0x4A39DC06D4C0DBC64B70AF90FD698A233A518AA5D07E595D983B8C0526C8F7FB DUP8 DUP8 PUSH1 0x40 MLOAD PUSH2 0x2570 SWAP3 SWAP2 SWAP1 PUSH2 0x41CB JUMP JUMPDEST PUSH1 0x40 MLOAD DUP1 SWAP2 SUB SWAP1 LOG4 PUSH2 0x11E4 DUP2 PUSH1 0x0 DUP8 DUP8 DUP8 DUP8 PUSH2 0x2D7F JUMP JUMPDEST PUSH32 0x0 PUSH2 0x25B1 DUP2 PUSH2 0x275B JUMP JUMPDEST PUSH2 0xF7E DUP5 DUP5 DUP5 PUSH2 0x2A14 JUMP JUMPDEST DUP2 MLOAD DUP4 MLOAD EQ PUSH2 0x25DD JUMPI PUSH1 0x40 MLOAD PUSH3 0x461BCD PUSH1 0xE5 SHL DUP2 MSTORE PUSH1 0x4 ADD PUSH2 0x729 SWAP1 PUSH2 0x416B JUMP JUMPDEST PUSH1 0x1 PUSH1 0x1 PUSH1 0xA0 SHL SUB DUP5 AND PUSH2 0x2603 JUMPI PUSH1 0x40 MLOAD PUSH3 0x461BCD PUSH1 0xE5 SHL DUP2 MSTORE PUSH1 0x4 ADD PUSH2 0x729 SWAP1 PUSH2 0x41F9 JUMP JUMPDEST CALLER PUSH1 0x0 JUMPDEST DUP5 MLOAD DUP2 LT ISZERO PUSH2 0x26ED JUMPI PUSH1 0x0 DUP6 DUP3 DUP2 MLOAD DUP2 LT PUSH2 0x2624 JUMPI PUSH2 0x2624 PUSH2 0x3FBB JUMP JUMPDEST PUSH1 0x20 MUL PUSH1 0x20 ADD ADD MLOAD SWAP1 POP PUSH1 0x0 DUP6 DUP4 DUP2 MLOAD DUP2 LT PUSH2 0x2642 JUMPI PUSH2 0x2642 PUSH2 0x3FBB JUMP JUMPDEST PUSH1 0x20 SWAP1 DUP2 MUL SWAP2 SWAP1 SWAP2 ADD DUP2 ADD MLOAD PUSH1 0x0 DUP5 DUP2 MSTORE PUSH1 0x2 DUP4 MSTORE PUSH1 0x40 DUP1 DUP3 KECCAK256 PUSH1 0x1 PUSH1 0x1 PUSH1 0xA0 SHL SUB DUP15 AND DUP4 MSTORE SWAP1 SWAP4 MSTORE SWAP2 SWAP1 SWAP2 KECCAK256 SLOAD SWAP1 SWAP2 POP DUP2 DUP2 LT ISZERO PUSH2 0x2693 JUMPI PUSH1 0x40 MLOAD PUSH3 0x461BCD PUSH1 0xE5 SHL DUP2 MSTORE PUSH1 0x4 ADD PUSH2 0x729 SWAP1 PUSH2 0x423E JUMP JUMPDEST PUSH1 0x0 DUP4 DUP2 MSTORE PUSH1 0x2 PUSH1 0x20 SWAP1 DUP2 MSTORE PUSH1 0x40 DUP1 DUP4 KECCAK256 PUSH1 0x1 PUSH1 0x1 PUSH1 0xA0 SHL SUB DUP15 DUP2 AND DUP6 MSTORE SWAP3 MSTORE DUP1 DUP4 KECCAK256 DUP6 DUP6 SUB SWAP1 SSTORE SWAP1 DUP12 AND DUP3 MSTORE DUP2 KECCAK256 DUP1 SLOAD DUP5 SWAP3 SWAP1 PUSH2 0x26D2 SWAP1 DUP5 SWAP1 PUSH2 0x41B3 JUMP JUMPDEST SWAP3 POP POP DUP2 SWAP1 SSTORE POP POP POP POP DUP1 PUSH2 0x26E6 SWAP1 PUSH2 0x410B JUMP JUMPDEST SWAP1 POP PUSH2 0x2607 JUMP JUMPDEST POP DUP5 PUSH1 0x1 PUSH1 0x1 PUSH1 0xA0 SHL SUB AND DUP7 PUSH1 0x1 PUSH1 0x1 PUSH1 0xA0 SHL SUB AND DUP3 PUSH1 0x1 PUSH1 0x1 PUSH1 0xA0 SHL SUB AND PUSH32 0x4A39DC06D4C0DBC64B70AF90FD698A233A518AA5D07E595D983B8C0526C8F7FB DUP8 DUP8 PUSH1 0x40 MLOAD PUSH2 0x273D SWAP3 SWAP2 SWAP1 PUSH2 0x41CB JUMP JUMPDEST PUSH1 0x40 MLOAD DUP1 SWAP2 SUB SWAP1 LOG4 PUSH2 0x2753 DUP2 DUP8 DUP8 DUP8 DUP8 DUP8 PUSH2 0x2D7F JUMP JUMPDEST POP POP POP POP POP POP JUMP JUMPDEST PUSH2 0x20E9 DUP2 CALLER PUSH2 0x2EDA JUMP JUMPDEST PUSH2 0x276F DUP3 DUP3 PUSH2 0x1A5A JUMP JUMPDEST PUSH2 0x1290 JUMPI PUSH1 0x0 DUP3 DUP2 MSTORE PUSH1 0x1 PUSH1 0x20 DUP2 DUP2 MSTORE PUSH1 0x40 DUP1 DUP5 KECCAK256 PUSH1 0x1 PUSH1 0x1 PUSH1 0xA0 SHL SUB DUP7 AND DUP1 DUP7 MSTORE SWAP3 MSTORE DUP1 DUP5 KECCAK256 DUP1 SLOAD PUSH1 0xFF NOT AND SWAP1 SWAP4 OR SWAP1 SWAP3 SSTORE SWAP1 MLOAD CALLER SWAP3 DUP6 SWAP2 PUSH32 0x2F8788117E7EFF1D82E926EC794901D17C78024A50270940304540A733656F0D SWAP2 SWAP1 LOG4 POP POP JUMP JUMPDEST PUSH2 0x27DA DUP3 DUP3 PUSH2 0x1A5A JUMP JUMPDEST ISZERO PUSH2 0x1290 JUMPI PUSH1 0x0 DUP3 DUP2 MSTORE PUSH1 0x1 PUSH1 0x20 SWAP1 DUP2 MSTORE PUSH1 0x40 DUP1 DUP4 KECCAK256 PUSH1 0x1 PUSH1 0x1 PUSH1 0xA0 SHL SUB DUP6 AND DUP1 DUP6 MSTORE SWAP3 MSTORE DUP1 DUP4 KECCAK256 DUP1 SLOAD PUSH1 0xFF NOT AND SWAP1 SSTORE MLOAD CALLER SWAP3 DUP6 SWAP2 PUSH32 0xF6391F5C32D9C69D2A47EA670B442974B53935D1EDC7FD64EB21E047A839171B SWAP2 SWAP1 LOG4 POP POP JUMP JUMPDEST PUSH1 0x1 PUSH1 0x1 PUSH1 0xA0 SHL SUB DUP4 AND PUSH2 0x285D JUMPI PUSH1 0x40 MLOAD PUSH3 0x461BCD PUSH1 0xE5 SHL DUP2 MSTORE PUSH1 0x4 ADD PUSH2 0x729 SWAP1 PUSH2 0x4288 JUMP JUMPDEST DUP1 MLOAD DUP3 MLOAD EQ PUSH2 0x287E JUMPI PUSH1 0x40 MLOAD PUSH3 0x461BCD PUSH1 0xE5 SHL DUP2 MSTORE PUSH1 0x4 ADD PUSH2 0x729 SWAP1 PUSH2 0x416B JUMP JUMPDEST PUSH1 0x40 DUP1 MLOAD PUSH1 0x20 DUP2 ADD SWAP1 SWAP2 MSTORE PUSH1 0x0 SWAP1 DUP2 SWAP1 MSTORE CALLER SWAP1 JUMPDEST DUP4 MLOAD DUP2 LT ISZERO PUSH2 0x2957 JUMPI PUSH1 0x0 DUP5 DUP3 DUP2 MLOAD DUP2 LT PUSH2 0x28AF JUMPI PUSH2 0x28AF PUSH2 0x3FBB JUMP JUMPDEST PUSH1 0x20 MUL PUSH1 0x20 ADD ADD MLOAD SWAP1 POP PUSH1 0x0 DUP5 DUP4 DUP2 MLOAD DUP2 LT PUSH2 0x28CD JUMPI PUSH2 0x28CD PUSH2 0x3FBB JUMP JUMPDEST PUSH1 0x20 SWAP1 DUP2 MUL SWAP2 SWAP1 SWAP2 ADD DUP2 ADD MLOAD PUSH1 0x0 DUP5 DUP2 MSTORE PUSH1 0x2 DUP4 MSTORE PUSH1 0x40 DUP1 DUP3 KECCAK256 PUSH1 0x1 PUSH1 0x1 PUSH1 0xA0 SHL SUB DUP13 AND DUP4 MSTORE SWAP1 SWAP4 MSTORE SWAP2 SWAP1 SWAP2 KECCAK256 SLOAD SWAP1 SWAP2 POP DUP2 DUP2 LT ISZERO PUSH2 0x291E JUMPI PUSH1 0x40 MLOAD PUSH3 0x461BCD PUSH1 0xE5 SHL DUP2 MSTORE PUSH1 0x4 ADD PUSH2 0x729 SWAP1 PUSH2 0x42CB JUMP JUMPDEST PUSH1 0x0 SWAP3 DUP4 MSTORE PUSH1 0x2 PUSH1 0x20 SWAP1 DUP2 MSTORE PUSH1 0x40 DUP1 DUP6 KECCAK256 PUSH1 0x1 PUSH1 0x1 PUSH1 0xA0 SHL SUB DUP12 AND DUP7 MSTORE SWAP1 SWAP2 MSTORE SWAP1 SWAP3 KECCAK256 SWAP2 SUB SWAP1 SSTORE DUP1 PUSH2 0x294F DUP2 PUSH2 0x410B JUMP JUMPDEST SWAP2 POP POP PUSH2 0x2892 JUMP JUMPDEST POP PUSH1 0x0 PUSH1 0x1 PUSH1 0x1 PUSH1 0xA0 SHL SUB AND DUP5 PUSH1 0x1 PUSH1 0x1 PUSH1 0xA0 SHL SUB AND DUP3 PUSH1 0x1 PUSH1 0x1 PUSH1 0xA0 SHL SUB AND PUSH32 0x4A39DC06D4C0DBC64B70AF90FD698A233A518AA5D07E595D983B8C0526C8F7FB DUP7 DUP7 PUSH1 0x40 MLOAD PUSH2 0x29A8 SWAP3 SWAP2 SWAP1 PUSH2 0x41CB JUMP JUMPDEST PUSH1 0x40 MLOAD DUP1 SWAP2 SUB SWAP1 LOG4 PUSH1 0x40 DUP1 MLOAD PUSH1 0x20 DUP2 ADD SWAP1 SWAP2 MSTORE PUSH1 0x0 SWAP1 MSTORE PUSH2 0xF7E JUMP JUMPDEST PUSH1 0x0 DUP1 SLOAD PUSH1 0x1 PUSH1 0x1 PUSH1 0xA0 SHL SUB DUP4 DUP2 AND PUSH1 0x1 PUSH1 0x1 PUSH1 0xA0 SHL SUB NOT DUP4 AND DUP2 OR DUP5 SSTORE PUSH1 0x40 MLOAD SWAP2 SWAP1 SWAP3 AND SWAP3 DUP4 SWAP2 PUSH32 0x8BE0079C531659141344CD1FD0A4F28419497F9722A3DAAFE3B4186F6B6457E0 SWAP2 SWAP1 LOG3 POP POP JUMP JUMPDEST DUP2 PUSH1 0x1 PUSH1 0x1 PUSH1 0xA0 SHL SUB AND DUP4 PUSH1 0x1 PUSH1 0x1 PUSH1 0xA0 SHL SUB AND SUB PUSH2 0x2A87 JUMPI PUSH1 0x40 MLOAD PUSH3 0x461BCD PUSH1 0xE5 SHL DUP2 MSTORE PUSH1 0x20 PUSH1 0x4 DUP3 ADD MSTORE PUSH1 0x29 PUSH1 0x24 DUP3 ADD MSTORE PUSH32 0x455243313135353A2073657474696E6720617070726F76616C20737461747573 PUSH1 0x44 DUP3 ADD MSTORE PUSH9 0x103337B91039B2B633 PUSH1 0xB9 SHL PUSH1 0x64 DUP3 ADD MSTORE PUSH1 0x84 ADD PUSH2 0x729 JUMP JUMPDEST PUSH1 0x1 PUSH1 0x1 PUSH1 0xA0 SHL SUB DUP4 DUP2 AND PUSH1 0x0 DUP2 DUP2 MSTORE PUSH1 0x3 PUSH1 0x20 SWAP1 DUP2 MSTORE PUSH1 0x40 DUP1 DUP4 KECCAK256 SWAP5 DUP8 AND DUP1 DUP5 MSTORE SWAP5 DUP3 MSTORE SWAP2 DUP3 SWAP1 KECCAK256 DUP1 SLOAD PUSH1 0xFF NOT AND DUP7 ISZERO ISZERO SWAP1 DUP2 OR SWAP1 SWAP2 SSTORE SWAP2 MLOAD SWAP2 DUP3 MSTORE PUSH32 0x17307EAB39AB6107E8899845AD3D59BD9653F200F220920489CA2B5937696C31 SWAP2 ADD PUSH1 0x40 MLOAD DUP1 SWAP2 SUB SWAP1 LOG3 POP POP POP JUMP JUMPDEST PUSH1 0x1 PUSH1 0x1 PUSH1 0xA0 SHL SUB DUP5 AND PUSH2 0x2B1A JUMPI PUSH1 0x40 MLOAD PUSH3 0x461BCD PUSH1 0xE5 SHL DUP2 MSTORE PUSH1 0x4 ADD PUSH2 0x729 SWAP1 PUSH2 0x41F9 JUMP JUMPDEST CALLER PUSH1 0x0 PUSH2 0x2B26 DUP6 PUSH2 0x2F33 JUMP JUMPDEST SWAP1 POP PUSH1 0x0 PUSH2 0x2B33 DUP6 PUSH2 0x2F33 JUMP JUMPDEST SWAP1 POP PUSH1 0x0 DUP7 DUP2 MSTORE PUSH1 0x2 PUSH1 0x20 SWAP1 DUP2 MSTORE PUSH1 0x40 DUP1 DUP4 KECCAK256 PUSH1 0x1 PUSH1 0x1 PUSH1 0xA0 SHL SUB DUP13 AND DUP5 MSTORE SWAP1 SWAP2 MSTORE SWAP1 KECCAK256 SLOAD DUP6 DUP2 LT ISZERO PUSH2 0x2B78 JUMPI PUSH1 0x40 MLOAD PUSH3 0x461BCD PUSH1 0xE5 SHL DUP2 MSTORE PUSH1 0x4 ADD PUSH2 0x729 SWAP1 PUSH2 0x423E JUMP JUMPDEST PUSH1 0x0 DUP8 DUP2 MSTORE PUSH1 0x2 PUSH1 0x20 SWAP1 DUP2 MSTORE PUSH1 0x40 DUP1 DUP4 KECCAK256 PUSH1 0x1 PUSH1 0x1 PUSH1 0xA0 SHL SUB DUP14 DUP2 AND DUP6 MSTORE SWAP3 MSTORE DUP1 DUP4 KECCAK256 DUP10 DUP6 SUB SWAP1 SSTORE SWAP1 DUP11 AND DUP3 MSTORE DUP2 KECCAK256 DUP1 SLOAD DUP9 SWAP3 SWAP1 PUSH2 0x2BB7 SWAP1 DUP5 SWAP1 PUSH2 0x41B3 JUMP JUMPDEST SWAP1 SWAP2 SSTORE POP POP PUSH1 0x40 DUP1 MLOAD DUP9 DUP2 MSTORE PUSH1 0x20 DUP2 ADD DUP9 SWAP1 MSTORE PUSH1 0x1 PUSH1 0x1 PUSH1 0xA0 SHL SUB DUP1 DUP12 AND SWAP3 DUP13 DUP3 AND SWAP3 SWAP2 DUP9 AND SWAP2 PUSH32 0xC3D58168C5AE7397731D063D5BBF3D657854427343F4C083240F7AACAA2D0F62 SWAP2 ADD PUSH1 0x40 MLOAD DUP1 SWAP2 SUB SWAP1 LOG4 PUSH2 0x2C17 DUP5 DUP11 DUP11 DUP11 DUP11 DUP11 PUSH2 0x2F7E JUMP JUMPDEST POP POP POP POP POP POP POP POP POP JUMP JUMPDEST PUSH1 0x1 PUSH1 0x1 PUSH1 0xA0 SHL SUB DUP4 AND PUSH2 0x2C48 JUMPI PUSH1 0x40 MLOAD PUSH3 0x461BCD PUSH1 0xE5 SHL DUP2 MSTORE PUSH1 0x4 ADD PUSH2 0x729 SWAP1 PUSH2 0x4288 JUMP JUMPDEST CALLER PUSH1 0x0 PUSH2 0x2C54 DUP5 PUSH2 0x2F33 JUMP JUMPDEST SWAP1 POP PUSH1 0x0 PUSH2 0x2C61 DUP5 PUSH2 0x2F33 JUMP JUMPDEST PUSH1 0x40 DUP1 MLOAD PUSH1 0x20 DUP1 DUP3 ADD DUP4 MSTORE PUSH1 0x0 SWAP2 DUP3 SWAP1 MSTORE DUP9 DUP3 MSTORE PUSH1 0x2 DUP2 MSTORE DUP3 DUP3 KECCAK256 PUSH1 0x1 PUSH1 0x1 PUSH1 0xA0 SHL SUB DUP12 AND DUP4 MSTORE SWAP1 MSTORE KECCAK256 SLOAD SWAP1 SWAP2 POP DUP5 DUP2 LT ISZERO PUSH2 0x2CAF JUMPI PUSH1 0x40 MLOAD PUSH3 0x461BCD PUSH1 0xE5 SHL DUP2 MSTORE PUSH1 0x4 ADD PUSH2 0x729 SWAP1 PUSH2 0x42CB JUMP JUMPDEST PUSH1 0x0 DUP7 DUP2 MSTORE PUSH1 0x2 PUSH1 0x20 SWAP1 DUP2 MSTORE PUSH1 0x40 DUP1 DUP4 KECCAK256 PUSH1 0x1 PUSH1 0x1 PUSH1 0xA0 SHL SUB DUP12 DUP2 AND DUP1 DUP7 MSTORE SWAP2 DUP5 MSTORE DUP3 DUP6 KECCAK256 DUP11 DUP8 SUB SWAP1 SSTORE DUP3 MLOAD DUP12 DUP2 MSTORE SWAP4 DUP5 ADD DUP11 SWAP1 MSTORE SWAP1 SWAP3 SWAP1 DUP9 AND SWAP2 PUSH32 0xC3D58168C5AE7397731D063D5BBF3D657854427343F4C083240F7AACAA2D0F62 SWAP2 ADD PUSH1 0x40 MLOAD DUP1 SWAP2 SUB SWAP1 LOG4 PUSH1 0x40 DUP1 MLOAD PUSH1 0x20 DUP2 ADD SWAP1 SWAP2 MSTORE PUSH1 0x0 SWAP1 MSTORE PUSH2 0x1B79 JUMP JUMPDEST PUSH1 0x0 PUSH1 0x1 PUSH1 0x1 PUSH1 0xE0 SHL SUB NOT DUP3 AND PUSH4 0x7965DB0B PUSH1 0xE0 SHL EQ DUP1 PUSH2 0x765 JUMPI POP PUSH4 0x1FFC9A7 PUSH1 0xE0 SHL PUSH1 0x1 PUSH1 0x1 PUSH1 0xE0 SHL SUB NOT DUP4 AND EQ PUSH2 0x765 JUMP JUMPDEST DUP1 MLOAD PUSH11 0x636F6E736F6C652E6C6F67 PUSH1 0x20 DUP4 ADD PUSH1 0x0 DUP1 DUP5 DUP4 DUP6 GAS STATICCALL POP POP POP POP POP JUMP JUMPDEST PUSH1 0x1 PUSH1 0x1 PUSH1 0xA0 SHL SUB DUP5 AND EXTCODESIZE ISZERO PUSH2 0x2753 JUMPI PUSH1 0x40 MLOAD PUSH4 0xBC197C81 PUSH1 0xE0 SHL DUP2 MSTORE PUSH1 0x1 PUSH1 0x1 PUSH1 0xA0 SHL SUB DUP6 AND SWAP1 PUSH4 0xBC197C81 SWAP1 PUSH2 0x2DC3 SWAP1 DUP10 SWAP1 DUP10 SWAP1 DUP9 SWAP1 DUP9 SWAP1 DUP9 SWAP1 PUSH1 0x4 ADD PUSH2 0x430F JUMP JUMPDEST PUSH1 0x20 PUSH1 0x40 MLOAD DUP1 DUP4 SUB DUP2 PUSH1 0x0 DUP8 GAS CALL SWAP3 POP POP POP DUP1 ISZERO PUSH2 0x2DFE JUMPI POP PUSH1 0x40 DUP1 MLOAD PUSH1 0x1F RETURNDATASIZE SWAP1 DUP2 ADD PUSH1 0x1F NOT AND DUP3 ADD SWAP1 SWAP3 MSTORE PUSH2 0x2DFB SWAP2 DUP2 ADD SWAP1 PUSH2 0x436D JUMP JUMPDEST PUSH1 0x1 JUMPDEST PUSH2 0x2EAA JUMPI PUSH2 0x2E0A PUSH2 0x438A JUMP JUMPDEST DUP1 PUSH4 0x8C379A0 SUB PUSH2 0x2E43 JUMPI POP PUSH2 0x2E1E PUSH2 0x43A6 JUMP JUMPDEST DUP1 PUSH2 0x2E29 JUMPI POP PUSH2 0x2E45 JUMP JUMPDEST DUP1 PUSH1 0x40 MLOAD PUSH3 0x461BCD PUSH1 0xE5 SHL DUP2 MSTORE PUSH1 0x4 ADD PUSH2 0x729 SWAP2 SWAP1 PUSH2 0x33F5 JUMP JUMPDEST POP JUMPDEST PUSH1 0x40 MLOAD PUSH3 0x461BCD PUSH1 0xE5 SHL DUP2 MSTORE PUSH1 0x20 PUSH1 0x4 DUP3 ADD MSTORE PUSH1 0x34 PUSH1 0x24 DUP3 ADD MSTORE PUSH32 0x455243313135353A207472616E7366657220746F206E6F6E2D45524331313535 PUSH1 0x44 DUP3 ADD MSTORE PUSH20 0x2932B1B2B4BB32B91034B6B83632B6B2B73A32B9 PUSH1 0x61 SHL PUSH1 0x64 DUP3 ADD MSTORE PUSH1 0x84 ADD PUSH2 0x729 JUMP JUMPDEST PUSH1 0x1 PUSH1 0x1 PUSH1 0xE0 SHL SUB NOT DUP2 AND PUSH4 0xBC197C81 PUSH1 0xE0 SHL EQ PUSH2 0x1B79 JUMPI PUSH1 0x40 MLOAD PUSH3 0x461BCD PUSH1 0xE5 SHL DUP2 MSTORE PUSH1 0x4 ADD PUSH2 0x729 SWAP1 PUSH2 0x442F JUMP JUMPDEST PUSH2 0x2EE4 DUP3 DUP3 PUSH2 0x1A5A JUMP JUMPDEST PUSH2 0x1290 JUMPI PUSH2 0x2EF1 DUP2 PUSH2 0x3039 JUMP JUMPDEST PUSH2 0x2EFC DUP4 PUSH1 0x20 PUSH2 0x304B JUMP JUMPDEST PUSH1 0x40 MLOAD PUSH1 0x20 ADD PUSH2 0x2F0D SWAP3 SWAP2 SWAP1 PUSH2 0x4477 JUMP JUMPDEST PUSH1 0x40 DUP1 MLOAD PUSH1 0x1F NOT DUP2 DUP5 SUB ADD DUP2 MSTORE SWAP1 DUP3 SWAP1 MSTORE PUSH3 0x461BCD PUSH1 0xE5 SHL DUP3 MSTORE PUSH2 0x729 SWAP2 PUSH1 0x4 ADD PUSH2 0x33F5 JUMP JUMPDEST PUSH1 0x40 DUP1 MLOAD PUSH1 0x1 DUP1 DUP3 MSTORE DUP2 DUP4 ADD SWAP1 SWAP3 MSTORE PUSH1 0x60 SWAP2 PUSH1 0x0 SWAP2 SWAP1 PUSH1 0x20 DUP1 DUP4 ADD SWAP1 DUP1 CALLDATASIZE DUP4 CALLDATACOPY ADD SWAP1 POP POP SWAP1 POP DUP3 DUP2 PUSH1 0x0 DUP2 MLOAD DUP2 LT PUSH2 0x2F6D JUMPI PUSH2 0x2F6D PUSH2 0x3FBB JUMP JUMPDEST PUSH1 0x20 SWAP1 DUP2 MUL SWAP2 SWAP1 SWAP2 ADD ADD MSTORE SWAP3 SWAP2 POP POP JUMP JUMPDEST PUSH1 0x1 PUSH1 0x1 PUSH1 0xA0 SHL SUB DUP5 AND EXTCODESIZE ISZERO PUSH2 0x2753 JUMPI PUSH1 0x40 MLOAD PUSH4 0xF23A6E61 PUSH1 0xE0 SHL DUP2 MSTORE PUSH1 0x1 PUSH1 0x1 PUSH1 0xA0 SHL SUB DUP6 AND SWAP1 PUSH4 0xF23A6E61 SWAP1 PUSH2 0x2FC2 SWAP1 DUP10 SWAP1 DUP10 SWAP1 DUP9 SWAP1 DUP9 SWAP1 DUP9 SWAP1 PUSH1 0x4 ADD PUSH2 0x44EC JUMP JUMPDEST PUSH1 0x20 PUSH1 0x40 MLOAD DUP1 DUP4 SUB DUP2 PUSH1 0x0 DUP8 GAS CALL SWAP3 POP POP POP DUP1 ISZERO PUSH2 0x2FFD JUMPI POP PUSH1 0x40 DUP1 MLOAD PUSH1 0x1F RETURNDATASIZE SWAP1 DUP2 ADD PUSH1 0x1F NOT AND DUP3 ADD SWAP1 SWAP3 MSTORE PUSH2 0x2FFA SWAP2 DUP2 ADD SWAP1 PUSH2 0x436D JUMP JUMPDEST PUSH1 0x1 JUMPDEST PUSH2 0x3009 JUMPI PUSH2 0x2E0A PUSH2 0x438A JUMP JUMPDEST PUSH1 0x1 PUSH1 0x1 PUSH1 0xE0 SHL SUB NOT DUP2 AND PUSH4 0xF23A6E61 PUSH1 0xE0 SHL EQ PUSH2 0x1B79 JUMPI PUSH1 0x40 MLOAD PUSH3 0x461BCD PUSH1 0xE5 SHL DUP2 MSTORE PUSH1 0x4 ADD PUSH2 0x729 SWAP1 PUSH2 0x442F JUMP JUMPDEST PUSH1 0x60 PUSH2 0x765 PUSH1 0x1 PUSH1 0x1 PUSH1 0xA0 SHL SUB DUP4 AND PUSH1 0x14 JUMPDEST PUSH1 0x60 PUSH1 0x0 PUSH2 0x305A DUP4 PUSH1 0x2 PUSH2 0x4531 JUMP JUMPDEST PUSH2 0x3065 SWAP1 PUSH1 0x2 PUSH2 0x41B3 JUMP JUMPDEST PUSH1 0x1 PUSH1 0x1 PUSH1 0x40 SHL SUB DUP2 GT ISZERO PUSH2 0x307C JUMPI PUSH2 0x307C PUSH2 0x344C JUMP JUMPDEST PUSH1 0x40 MLOAD SWAP1 DUP1 DUP3 MSTORE DUP1 PUSH1 0x1F ADD PUSH1 0x1F NOT AND PUSH1 0x20 ADD DUP3 ADD PUSH1 0x40 MSTORE DUP1 ISZERO PUSH2 0x30A6 JUMPI PUSH1 0x20 DUP3 ADD DUP2 DUP1 CALLDATASIZE DUP4 CALLDATACOPY ADD SWAP1 POP JUMPDEST POP SWAP1 POP PUSH1 0x3 PUSH1 0xFC SHL DUP2 PUSH1 0x0 DUP2 MLOAD DUP2 LT PUSH2 0x30C1 JUMPI PUSH2 0x30C1 PUSH2 0x3FBB JUMP JUMPDEST PUSH1 0x20 ADD ADD SWAP1 PUSH1 0x1 PUSH1 0x1 PUSH1 0xF8 SHL SUB NOT AND SWAP1 DUP2 PUSH1 0x0 BYTE SWAP1 MSTORE8 POP PUSH1 0xF PUSH1 0xFB SHL DUP2 PUSH1 0x1 DUP2 MLOAD DUP2 LT PUSH2 0x30F0 JUMPI PUSH2 0x30F0 PUSH2 0x3FBB JUMP JUMPDEST PUSH1 0x20 ADD ADD SWAP1 PUSH1 0x1 PUSH1 0x1 PUSH1 0xF8 SHL SUB NOT AND SWAP1 DUP2 PUSH1 0x0 BYTE SWAP1 MSTORE8 POP PUSH1 0x0 PUSH2 0x3114 DUP5 PUSH1 0x2 PUSH2 0x4531 JUMP JUMPDEST PUSH2 0x311F SWAP1 PUSH1 0x1 PUSH2 0x41B3 JUMP JUMPDEST SWAP1 POP JUMPDEST PUSH1 0x1 DUP2 GT ISZERO PUSH2 0x3197 JUMPI PUSH16 0x181899199A1A9B1B9C1CB0B131B232B3 PUSH1 0x81 SHL DUP6 PUSH1 0xF AND PUSH1 0x10 DUP2 LT PUSH2 0x3153 JUMPI PUSH2 0x3153 PUSH2 0x3FBB JUMP JUMPDEST BYTE PUSH1 0xF8 SHL DUP3 DUP3 DUP2 MLOAD DUP2 LT PUSH2 0x3169 JUMPI PUSH2 0x3169 PUSH2 0x3FBB JUMP JUMPDEST PUSH1 0x20 ADD ADD SWAP1 PUSH1 0x1 PUSH1 0x1 PUSH1 0xF8 SHL SUB NOT AND SWAP1 DUP2 PUSH1 0x0 BYTE SWAP1 MSTORE8 POP PUSH1 0x4 SWAP5 SWAP1 SWAP5 SHR SWAP4 PUSH2 0x3190 DUP2 PUSH2 0x4550 JUMP JUMPDEST SWAP1 POP PUSH2 0x3122 JUMP JUMPDEST POP DUP4 ISZERO PUSH2 0x31E6 JUMPI PUSH1 0x40 MLOAD PUSH3 0x461BCD PUSH1 0xE5 SHL DUP2 MSTORE PUSH1 0x20 PUSH1 0x4 DUP3 ADD DUP2 SWAP1 MSTORE PUSH1 0x24 DUP3 ADD MSTORE PUSH32 0x537472696E67733A20686578206C656E67746820696E73756666696369656E74 PUSH1 0x44 DUP3 ADD MSTORE PUSH1 0x64 ADD PUSH2 0x729 JUMP JUMPDEST SWAP4 SWAP3 POP POP POP JUMP JUMPDEST DUP3 DUP1 SLOAD PUSH2 0x31F9 SWAP1 PUSH2 0x3F81 JUMP JUMPDEST SWAP1 PUSH1 0x0 MSTORE PUSH1 0x20 PUSH1 0x0 KECCAK256 SWAP1 PUSH1 0x1F ADD PUSH1 0x20 SWAP1 DIV DUP2 ADD SWAP3 DUP3 PUSH2 0x321B JUMPI PUSH1 0x0 DUP6 SSTORE PUSH2 0x3261 JUMP JUMPDEST DUP3 PUSH1 0x1F LT PUSH2 0x3234 JUMPI DUP1 MLOAD PUSH1 0xFF NOT AND DUP4 DUP1 ADD OR DUP6 SSTORE PUSH2 0x3261 JUMP JUMPDEST DUP3 DUP1 ADD PUSH1 0x1 ADD DUP6 SSTORE DUP3 ISZERO PUSH2 0x3261 JUMPI SWAP2 DUP3 ADD JUMPDEST DUP3 DUP2 GT ISZERO PUSH2 0x3261 JUMPI DUP3 MLOAD DUP3 SSTORE SWAP2 PUSH1 0x20 ADD SWAP2 SWAP1 PUSH1 0x1 ADD SWAP1 PUSH2 0x3246 JUMP JUMPDEST POP PUSH2 0x326D SWAP3 SWAP2 POP PUSH2 0x3271 JUMP JUMPDEST POP SWAP1 JUMP JUMPDEST JUMPDEST DUP1 DUP3 GT ISZERO PUSH2 0x326D JUMPI PUSH1 0x0 DUP2 SSTORE PUSH1 0x1 ADD PUSH2 0x3272 JUMP JUMPDEST DUP1 CALLDATALOAD PUSH1 0x1 PUSH1 0x1 PUSH1 0xA0 SHL SUB DUP2 AND DUP2 EQ PUSH2 0x329D JUMPI PUSH1 0x0 DUP1 REVERT JUMPDEST SWAP2 SWAP1 POP JUMP JUMPDEST PUSH1 0x0 DUP1 PUSH1 0x40 DUP4 DUP6 SUB SLT ISZERO PUSH2 0x32B5 JUMPI PUSH1 0x0 DUP1 REVERT JUMPDEST PUSH2 0x32BE DUP4 PUSH2 0x3286 JUMP JUMPDEST SWAP5 PUSH1 0x20 SWAP4 SWAP1 SWAP4 ADD CALLDATALOAD SWAP4 POP POP POP JUMP JUMPDEST PUSH1 0x1 PUSH1 0x1 PUSH1 0xE0 SHL SUB NOT DUP2 AND DUP2 EQ PUSH2 0x20E9 JUMPI PUSH1 0x0 DUP1 REVERT JUMPDEST PUSH1 0x0 PUSH1 0x20 DUP3 DUP5 SUB SLT ISZERO PUSH2 0x32F4 JUMPI PUSH1 0x0 DUP1 REVERT JUMPDEST DUP2 CALLDATALOAD PUSH2 0x31E6 DUP2 PUSH2 0x32CC JUMP JUMPDEST DUP1 CALLDATALOAD PUSH2 0xFFFF DUP2 AND DUP2 EQ PUSH2 0x329D JUMPI PUSH1 0x0 DUP1 REVERT JUMPDEST DUP1 CALLDATALOAD PUSH4 0xFFFFFFFF DUP2 AND DUP2 EQ PUSH2 0x329D JUMPI PUSH1 0x0 DUP1 REVERT JUMPDEST PUSH1 0x2 DUP2 LT PUSH2 0x20E9 JUMPI PUSH1 0x0 DUP1 REVERT JUMPDEST DUP1 CALLDATALOAD PUSH2 0x329D DUP2 PUSH2 0x3325 JUMP JUMPDEST PUSH1 0x0 DUP1 PUSH1 0x0 PUSH1 0x60 DUP5 DUP7 SUB SLT ISZERO PUSH2 0x3352 JUMPI PUSH1 0x0 DUP1 REVERT JUMPDEST PUSH2 0x335B DUP5 PUSH2 0x32FF JUMP JUMPDEST SWAP3 POP PUSH2 0x3369 PUSH1 0x20 DUP6 ADD PUSH2 0x3311 JUMP JUMPDEST SWAP2 POP PUSH1 0x40 DUP5 ADD CALLDATALOAD PUSH2 0x3379 DUP2 PUSH2 0x3325 JUMP JUMPDEST DUP1 SWAP2 POP POP SWAP3 POP SWAP3 POP SWAP3 JUMP JUMPDEST PUSH1 0x0 PUSH1 0x20 DUP3 DUP5 SUB SLT ISZERO PUSH2 0x3396 JUMPI PUSH1 0x0 DUP1 REVERT JUMPDEST POP CALLDATALOAD SWAP2 SWAP1 POP JUMP JUMPDEST PUSH1 0x0 JUMPDEST DUP4 DUP2 LT ISZERO PUSH2 0x33B8 JUMPI DUP2 DUP2 ADD MLOAD DUP4 DUP3 ADD MSTORE PUSH1 0x20 ADD PUSH2 0x33A0 JUMP JUMPDEST DUP4 DUP2 GT ISZERO PUSH2 0xF7E JUMPI POP POP PUSH1 0x0 SWAP2 ADD MSTORE JUMP JUMPDEST PUSH1 0x0 DUP2 MLOAD DUP1 DUP5 MSTORE PUSH2 0x33E1 DUP2 PUSH1 0x20 DUP7 ADD PUSH1 0x20 DUP7 ADD PUSH2 0x339D JUMP JUMPDEST PUSH1 0x1F ADD PUSH1 0x1F NOT AND SWAP3 SWAP1 SWAP3 ADD PUSH1 0x20 ADD SWAP3 SWAP2 POP POP JUMP JUMPDEST PUSH1 0x20 DUP2 MSTORE PUSH1 0x0 PUSH2 0x31E6 PUSH1 0x20 DUP4 ADD DUP5 PUSH2 0x33C9 JUMP JUMPDEST DUP1 CALLDATALOAD PUSH1 0xFF DUP2 AND DUP2 EQ PUSH2 0x329D JUMPI PUSH1 0x0 DUP1 REVERT JUMPDEST PUSH1 0x0 DUP1 PUSH1 0x40 DUP4 DUP6 SUB SLT ISZERO PUSH2 0x342C JUMPI PUSH1 0x0 DUP1 REVERT JUMPDEST PUSH2 0x3435 DUP4 PUSH2 0x3408 JUMP JUMPDEST SWAP2 POP PUSH2 0x3443 PUSH1 0x20 DUP5 ADD PUSH2 0x32FF JUMP JUMPDEST SWAP1 POP SWAP3 POP SWAP3 SWAP1 POP JUMP JUMPDEST PUSH4 0x4E487B71 PUSH1 0xE0 SHL PUSH1 0x0 MSTORE PUSH1 0x41 PUSH1 0x4 MSTORE PUSH1 0x24 PUSH1 0x0 REVERT JUMPDEST PUSH1 0xA0 DUP2 ADD DUP2 DUP2 LT PUSH1 0x1 PUSH1 0x1 PUSH1 0x40 SHL SUB DUP3 GT OR ISZERO PUSH2 0x3481 JUMPI PUSH2 0x3481 PUSH2 0x344C JUMP JUMPDEST PUSH1 0x40 MSTORE POP JUMP JUMPDEST PUSH1 0x1F DUP3 ADD PUSH1 0x1F NOT AND DUP2 ADD PUSH1 0x1 PUSH1 0x1 PUSH1 0x40 SHL SUB DUP2 GT DUP3 DUP3 LT OR ISZERO PUSH2 0x34AC JUMPI PUSH2 0x34AC PUSH2 0x344C JUMP JUMPDEST PUSH1 0x40 MSTORE POP POP JUMP JUMPDEST PUSH1 0x40 MLOAD PUSH2 0x100 DUP2 ADD PUSH1 0x1 PUSH1 0x1 PUSH1 0x40 SHL SUB DUP2 GT DUP3 DUP3 LT OR ISZERO PUSH2 0x34D6 JUMPI PUSH2 0x34D6 PUSH2 0x344C JUMP JUMPDEST PUSH1 0x40 MSTORE SWAP1 JUMP JUMPDEST PUSH1 0x0 DUP3 PUSH1 0x1F DUP4 ADD SLT PUSH2 0x34ED JUMPI PUSH1 0x0 DUP1 REVERT JUMPDEST DUP2 CALLDATALOAD PUSH1 0x1 PUSH1 0x1 PUSH1 0x40 SHL SUB DUP2 GT ISZERO PUSH2 0x3506 JUMPI PUSH2 0x3506 PUSH2 0x344C JUMP JUMPDEST PUSH1 0x40 MLOAD PUSH2 0x351D PUSH1 0x1F DUP4 ADD PUSH1 0x1F NOT AND PUSH1 0x20 ADD DUP3 PUSH2 0x3487 JUMP JUMPDEST DUP2 DUP2 MSTORE DUP5 PUSH1 0x20 DUP4 DUP7 ADD ADD GT ISZERO PUSH2 0x3532 JUMPI PUSH1 0x0 DUP1 REVERT JUMPDEST DUP2 PUSH1 0x20 DUP6 ADD PUSH1 0x20 DUP4 ADD CALLDATACOPY PUSH1 0x0 SWAP2 DUP2 ADD PUSH1 0x20 ADD SWAP2 SWAP1 SWAP2 MSTORE SWAP4 SWAP3 POP POP POP JUMP JUMPDEST DUP1 CALLDATALOAD DUP1 ISZERO ISZERO DUP2 EQ PUSH2 0x329D JUMPI PUSH1 0x0 DUP1 REVERT JUMPDEST PUSH1 0x0 PUSH2 0x100 DUP3 DUP5 SUB SLT ISZERO PUSH2 0x3572 JUMPI PUSH1 0x0 DUP1 REVERT JUMPDEST PUSH2 0x357A PUSH2 0x34B3 JUMP JUMPDEST SWAP1 POP DUP2 CALLDATALOAD PUSH1 0x1 PUSH1 0x1 PUSH1 0x40 SHL SUB DUP1 DUP3 GT ISZERO PUSH2 0x3593 JUMPI PUSH1 0x0 DUP1 REVERT JUMPDEST PUSH2 0x359F DUP6 DUP4 DUP7 ADD PUSH2 0x34DC JUMP JUMPDEST DUP4 MSTORE PUSH1 0x20 DUP5 ADD CALLDATALOAD SWAP2 POP DUP1 DUP3 GT ISZERO PUSH2 0x35B5 JUMPI PUSH1 0x0 DUP1 REVERT JUMPDEST PUSH2 0x35C1 DUP6 DUP4 DUP7 ADD PUSH2 0x34DC JUMP JUMPDEST PUSH1 0x20 DUP5 ADD MSTORE PUSH2 0x35D2 PUSH1 0x40 DUP6 ADD PUSH2 0x3332 JUMP JUMPDEST PUSH1 0x40 DUP5 ADD MSTORE PUSH2 0x35E3 PUSH1 0x60 DUP6 ADD PUSH2 0x3286 JUMP JUMPDEST PUSH1 0x60 DUP5 ADD MSTORE PUSH2 0x35F4 PUSH1 0x80 DUP6 ADD PUSH2 0x3286 JUMP JUMPDEST PUSH1 0x80 DUP5 ADD MSTORE PUSH2 0x3605 PUSH1 0xA0 DUP6 ADD PUSH2 0x3332 JUMP JUMPDEST PUSH1 0xA0 DUP5 ADD MSTORE PUSH2 0x3616 PUSH1 0xC0 DUP6 ADD PUSH2 0x354F JUMP JUMPDEST PUSH1 0xC0 DUP5 ADD MSTORE PUSH1 0xE0 DUP5 ADD CALLDATALOAD SWAP2 POP DUP1 DUP3 GT ISZERO PUSH2 0x362F JUMPI PUSH1 0x0 DUP1 REVERT JUMPDEST POP PUSH2 0x363C DUP5 DUP3 DUP6 ADD PUSH2 0x34DC JUMP JUMPDEST PUSH1 0xE0 DUP4 ADD MSTORE POP SWAP3 SWAP2 POP POP JUMP JUMPDEST PUSH1 0x0 PUSH1 0x1 PUSH1 0x1 PUSH1 0x40 SHL SUB DUP3 GT ISZERO PUSH2 0x3661 JUMPI PUSH2 0x3661 PUSH2 0x344C JUMP JUMPDEST POP PUSH1 0x5 SHL PUSH1 0x20 ADD SWAP1 JUMP JUMPDEST PUSH1 0x0 DUP3 PUSH1 0x1F DUP4 ADD SLT PUSH2 0x367C JUMPI PUSH1 0x0 DUP1 REVERT JUMPDEST DUP2 CALLDATALOAD PUSH1 0x20 PUSH2 0x3689 DUP3 PUSH2 0x3648 JUMP JUMPDEST PUSH1 0x40 MLOAD PUSH2 0x3696 DUP3 DUP3 PUSH2 0x3487 JUMP JUMPDEST DUP4 DUP2 MSTORE PUSH1 0x5 SWAP4 SWAP1 SWAP4 SHL DUP6 ADD DUP3 ADD SWAP3 DUP3 DUP2 ADD SWAP2 POP DUP7 DUP5 GT ISZERO PUSH2 0x36B6 JUMPI PUSH1 0x0 DUP1 REVERT JUMPDEST DUP3 DUP7 ADD JUMPDEST DUP5 DUP2 LT ISZERO PUSH2 0x36D1 JUMPI DUP1 CALLDATALOAD DUP4 MSTORE SWAP2 DUP4 ADD SWAP2 DUP4 ADD PUSH2 0x36BA JUMP JUMPDEST POP SWAP7 SWAP6 POP POP POP POP POP POP JUMP JUMPDEST PUSH1 0x0 DUP1 PUSH1 0x0 DUP1 PUSH1 0x80 DUP6 DUP8 SUB SLT ISZERO PUSH2 0x36F2 JUMPI PUSH1 0x0 DUP1 REVERT JUMPDEST DUP5 CALLDATALOAD PUSH1 0x1 PUSH1 0x1 PUSH1 0x40 SHL SUB DUP1 DUP3 GT ISZERO PUSH2 0x3709 JUMPI PUSH1 0x0 DUP1 REVERT JUMPDEST PUSH2 0x3715 DUP9 DUP4 DUP10 ADD PUSH2 0x355F JUMP JUMPDEST SWAP6 POP PUSH2 0x3723 PUSH1 0x20 DUP9 ADD PUSH2 0x32FF JUMP JUMPDEST SWAP5 POP PUSH1 0x40 DUP8 ADD CALLDATALOAD SWAP2 POP DUP1 DUP3 GT ISZERO PUSH2 0x3739 JUMPI PUSH1 0x0 DUP1 REVERT JUMPDEST PUSH2 0x3745 DUP9 DUP4 DUP10 ADD PUSH2 0x366B JUMP JUMPDEST SWAP4 POP PUSH1 0x60 DUP8 ADD CALLDATALOAD SWAP2 POP DUP1 DUP3 GT ISZERO PUSH2 0x375B JUMPI PUSH1 0x0 DUP1 REVERT JUMPDEST POP PUSH2 0x3768 DUP8 DUP3 DUP9 ADD PUSH2 0x366B JUMP JUMPDEST SWAP2 POP POP SWAP3 SWAP6 SWAP2 SWAP5 POP SWAP3 POP JUMP JUMPDEST PUSH1 0x0 DUP1 PUSH1 0x40 DUP4 DUP6 SUB SLT ISZERO PUSH2 0x3787 JUMPI PUSH1 0x0 DUP1 REVERT JUMPDEST PUSH2 0x32BE DUP4 PUSH2 0x32FF JUMP JUMPDEST PUSH4 0x4E487B71 PUSH1 0xE0 SHL PUSH1 0x0 MSTORE PUSH1 0x21 PUSH1 0x4 MSTORE PUSH1 0x24 PUSH1 0x0 REVERT JUMPDEST PUSH1 0x2 DUP2 LT PUSH2 0x20E9 JUMPI PUSH4 0x4E487B71 PUSH1 0xE0 SHL PUSH1 0x0 MSTORE PUSH1 0x21 PUSH1 0x4 MSTORE PUSH1 0x24 PUSH1 0x0 REVERT JUMPDEST PUSH2 0x37CD DUP2 PUSH2 0x37A6 JUMP JUMPDEST SWAP1 MSTORE JUMP JUMPDEST PUSH1 0x0 PUSH2 0x100 DUP1 DUP4 MSTORE PUSH2 0x37E5 DUP2 DUP5 ADD DUP13 PUSH2 0x33C9 JUMP JUMPDEST SWAP1 POP DUP3 DUP2 SUB PUSH1 0x20 DUP5 ADD MSTORE PUSH2 0x37F9 DUP2 DUP12 PUSH2 0x33C9 JUMP JUMPDEST SWAP1 POP PUSH2 0x3804 DUP10 PUSH2 0x37A6 JUMP JUMPDEST PUSH1 0x40 DUP4 ADD DUP10 SWAP1 MSTORE PUSH1 0x1 PUSH1 0x1 PUSH1 0xA0 SHL SUB DUP9 DUP2 AND PUSH1 0x60 DUP6 ADD MSTORE DUP8 AND PUSH1 0x80 DUP5 ADD MSTORE PUSH2 0x382B DUP7 PUSH2 0x37A6 JUMP JUMPDEST DUP6 PUSH1 0xA0 DUP5 ADD MSTORE DUP5 ISZERO ISZERO PUSH1 0xC0 DUP5 ADD MSTORE DUP3 DUP2 SUB PUSH1 0xE0 DUP5 ADD MSTORE PUSH2 0x384B DUP2 DUP6 PUSH2 0x33C9 JUMP JUMPDEST SWAP12 SWAP11 POP POP POP POP POP POP POP POP POP POP POP JUMP JUMPDEST PUSH1 0x0 DUP1 PUSH1 0x0 DUP1 PUSH1 0x0 PUSH1 0xA0 DUP7 DUP9 SUB SLT ISZERO PUSH2 0x3872 JUMPI PUSH1 0x0 DUP1 REVERT JUMPDEST PUSH2 0x387B DUP7 PUSH2 0x3286 JUMP JUMPDEST SWAP5 POP PUSH2 0x3889 PUSH1 0x20 DUP8 ADD PUSH2 0x3286 JUMP JUMPDEST SWAP4 POP PUSH1 0x40 DUP7 ADD CALLDATALOAD PUSH1 0x1 PUSH1 0x1 PUSH1 0x40 SHL SUB DUP1 DUP3 GT ISZERO PUSH2 0x38A5 JUMPI PUSH1 0x0 DUP1 REVERT JUMPDEST PUSH2 0x38B1 DUP10 DUP4 DUP11 ADD PUSH2 0x366B JUMP JUMPDEST SWAP5 POP PUSH1 0x60 DUP9 ADD CALLDATALOAD SWAP2 POP DUP1 DUP3 GT ISZERO PUSH2 0x38C7 JUMPI PUSH1 0x0 DUP1 REVERT JUMPDEST PUSH2 0x38D3 DUP10 DUP4 DUP11 ADD PUSH2 0x366B JUMP JUMPDEST SWAP4 POP PUSH1 0x80 DUP9 ADD CALLDATALOAD SWAP2 POP DUP1 DUP3 GT ISZERO PUSH2 0x38E9 JUMPI PUSH1 0x0 DUP1 REVERT JUMPDEST POP PUSH2 0x38F6 DUP9 DUP3 DUP10 ADD PUSH2 0x34DC JUMP JUMPDEST SWAP2 POP POP SWAP3 SWAP6 POP SWAP3 SWAP6 SWAP1 SWAP4 POP JUMP JUMPDEST PUSH1 0x0 DUP1 PUSH1 0x40 DUP4 DUP6 SUB SLT ISZERO PUSH2 0x3916 JUMPI PUSH1 0x0 DUP1 REVERT JUMPDEST DUP3 CALLDATALOAD SWAP2 POP PUSH2 0x3443 PUSH1 0x20 DUP5 ADD PUSH2 0x3286 JUMP JUMPDEST PUSH1 0x0 PUSH1 0x20 DUP3 DUP5 SUB SLT ISZERO PUSH2 0x3938 JUMPI PUSH1 0x0 DUP1 REVERT JUMPDEST PUSH2 0x31E6 DUP3 PUSH2 0x3408 JUMP JUMPDEST PUSH1 0x20 DUP2 MSTORE PUSH1 0x0 DUP3 MLOAD PUSH1 0xA0 PUSH1 0x20 DUP5 ADD MSTORE PUSH2 0x395D PUSH1 0xC0 DUP5 ADD DUP3 PUSH2 0x33C9 JUMP JUMPDEST SWAP1 POP PUSH1 0x20 DUP5 ADD MLOAD PUSH2 0xFFFF DUP1 DUP3 AND PUSH1 0x40 DUP7 ADD MSTORE DUP1 PUSH1 0x40 DUP8 ADD MLOAD AND PUSH1 0x60 DUP7 ADD MSTORE DUP1 PUSH1 0x60 DUP8 ADD MLOAD AND PUSH1 0x80 DUP7 ADD MSTORE POP POP PUSH1 0x80 DUP5 ADD MLOAD PUSH2 0x3997 DUP2 PUSH2 0x37A6 JUMP JUMPDEST PUSH1 0xA0 SWAP4 SWAP1 SWAP4 ADD SWAP3 SWAP1 SWAP3 MSTORE POP SWAP2 SWAP1 POP JUMP JUMPDEST PUSH1 0x0 DUP1 PUSH1 0x40 DUP4 DUP6 SUB SLT ISZERO PUSH2 0x39BA JUMPI PUSH1 0x0 DUP1 REVERT JUMPDEST DUP3 CALLDATALOAD PUSH1 0x1 PUSH1 0x1 PUSH1 0x40 SHL SUB DUP1 DUP3 GT ISZERO PUSH2 0x39D1 JUMPI PUSH1 0x0 DUP1 REVERT JUMPDEST DUP2 DUP6 ADD SWAP2 POP DUP6 PUSH1 0x1F DUP4 ADD SLT PUSH2 0x39E5 JUMPI PUSH1 0x0 DUP1 REVERT JUMPDEST DUP2 CALLDATALOAD PUSH1 0x20 PUSH2 0x39F2 DUP3 PUSH2 0x3648 JUMP JUMPDEST PUSH1 0x40 MLOAD PUSH2 0x39FF DUP3 DUP3 PUSH2 0x3487 JUMP JUMPDEST DUP4 DUP2 MSTORE PUSH1 0x5 SWAP4 SWAP1 SWAP4 SHL DUP6 ADD DUP3 ADD SWAP3 DUP3 DUP2 ADD SWAP2 POP DUP10 DUP5 GT ISZERO PUSH2 0x3A1F JUMPI PUSH1 0x0 DUP1 REVERT JUMPDEST SWAP5 DUP3 ADD SWAP5 JUMPDEST DUP4 DUP7 LT ISZERO PUSH2 0x3A44 JUMPI PUSH2 0x3A35 DUP7 PUSH2 0x3286 JUMP JUMPDEST DUP3 MSTORE SWAP5 DUP3 ADD SWAP5 SWAP1 DUP3 ADD SWAP1 PUSH2 0x3A24 JUMP JUMPDEST SWAP7 POP POP DUP7 ADD CALLDATALOAD SWAP3 POP POP DUP1 DUP3 GT ISZERO PUSH2 0x3A5A JUMPI PUSH1 0x0 DUP1 REVERT JUMPDEST POP PUSH2 0x3A67 DUP6 DUP3 DUP7 ADD PUSH2 0x366B JUMP JUMPDEST SWAP2 POP POP SWAP3 POP SWAP3 SWAP1 POP JUMP JUMPDEST PUSH1 0x0 DUP2 MLOAD DUP1 DUP5 MSTORE PUSH1 0x20 DUP1 DUP6 ADD SWAP5 POP DUP1 DUP5 ADD PUSH1 0x0 JUMPDEST DUP4 DUP2 LT ISZERO PUSH2 0x3AA1 JUMPI DUP2 MLOAD DUP8 MSTORE SWAP6 DUP3 ADD SWAP6 SWAP1 DUP3 ADD SWAP1 PUSH1 0x1 ADD PUSH2 0x3A85 JUMP JUMPDEST POP SWAP5 SWAP6 SWAP5 POP POP POP POP POP JUMP JUMPDEST PUSH1 0x20 DUP2 MSTORE PUSH1 0x0 PUSH2 0x31E6 PUSH1 0x20 DUP4 ADD DUP5 PUSH2 0x3A71 JUMP JUMPDEST PUSH1 0x0 DUP1 PUSH1 0x0 PUSH1 0x60 DUP5 DUP7 SUB SLT ISZERO PUSH2 0x3AD4 JUMPI PUSH1 0x0 DUP1 REVERT JUMPDEST PUSH2 0x3ADD DUP5 PUSH2 0x3286 JUMP JUMPDEST SWAP3 POP PUSH1 0x20 DUP5 ADD CALLDATALOAD PUSH1 0x1 PUSH1 0x1 PUSH1 0x40 SHL SUB DUP1 DUP3 GT ISZERO PUSH2 0x3AF9 JUMPI PUSH1 0x0 DUP1 REVERT JUMPDEST PUSH2 0x3B05 DUP8 DUP4 DUP9 ADD PUSH2 0x366B JUMP JUMPDEST SWAP4 POP PUSH1 0x40 DUP7 ADD CALLDATALOAD SWAP2 POP DUP1 DUP3 GT ISZERO PUSH2 0x3B1B JUMPI PUSH1 0x0 DUP1 REVERT JUMPDEST POP PUSH2 0x3B28 DUP7 DUP3 DUP8 ADD PUSH2 0x366B JUMP JUMPDEST SWAP2 POP POP SWAP3 POP SWAP3 POP SWAP3 JUMP JUMPDEST PUSH4 0xFFFFFFFF DUP8 DUP2 AND DUP3 MSTORE PUSH1 0xC0 DUP3 ADD SWAP1 PUSH2 0x3B4A DUP9 PUSH2 0x37A6 JUMP JUMPDEST PUSH1 0x20 DUP4 ADD DUP9 SWAP1 MSTORE PUSH2 0xFFFF DUP8 AND PUSH1 0x40 DUP5 ADD MSTORE DUP6 AND PUSH1 0x60 DUP4 ADD MSTORE PUSH2 0x3B6B DUP5 PUSH2 0x37A6 JUMP JUMPDEST DUP4 PUSH1 0x80 DUP4 ADD MSTORE PUSH1 0xFF DUP4 AND PUSH1 0xA0 DUP4 ADD MSTORE SWAP8 SWAP7 POP POP POP POP POP POP POP JUMP JUMPDEST PUSH1 0x0 DUP1 PUSH1 0x40 DUP4 DUP6 SUB SLT ISZERO PUSH2 0x3B98 JUMPI PUSH1 0x0 DUP1 REVERT JUMPDEST DUP3 CALLDATALOAD PUSH1 0x1 PUSH1 0x1 PUSH1 0x40 SHL SUB DUP1 DUP3 GT ISZERO PUSH2 0x3BAF JUMPI PUSH1 0x0 DUP1 REVERT JUMPDEST SWAP1 DUP5 ADD SWAP1 PUSH1 0xA0 DUP3 DUP8 SUB SLT ISZERO PUSH2 0x3BC3 JUMPI PUSH1 0x0 DUP1 REVERT JUMPDEST PUSH1 0x40 MLOAD PUSH2 0x3BCF DUP2 PUSH2 0x3462 JUMP JUMPDEST DUP3 CALLDATALOAD DUP3 DUP2 GT ISZERO PUSH2 0x3BDE JUMPI PUSH1 0x0 DUP1 REVERT JUMPDEST PUSH2 0x3BEA DUP9 DUP3 DUP7 ADD PUSH2 0x34DC JUMP JUMPDEST DUP3 MSTORE POP PUSH2 0x3BF9 PUSH1 0x20 DUP5 ADD PUSH2 0x32FF JUMP JUMPDEST PUSH1 0x20 DUP3 ADD MSTORE PUSH2 0x3C0A PUSH1 0x40 DUP5 ADD PUSH2 0x32FF JUMP JUMPDEST PUSH1 0x40 DUP3 ADD MSTORE PUSH2 0x3C1B PUSH1 0x60 DUP5 ADD PUSH2 0x32FF JUMP JUMPDEST PUSH1 0x60 DUP3 ADD MSTORE PUSH1 0x80 DUP4 ADD CALLDATALOAD SWAP3 POP PUSH2 0x3C30 DUP4 PUSH2 0x3325 JUMP JUMPDEST PUSH1 0x80 DUP2 ADD SWAP3 SWAP1 SWAP3 MSTORE POP SWAP2 POP PUSH2 0x3443 PUSH1 0x20 DUP5 ADD PUSH2 0x3408 JUMP JUMPDEST PUSH1 0x0 DUP1 DUP4 PUSH1 0x1F DUP5 ADD SLT PUSH2 0x3C59 JUMPI PUSH1 0x0 DUP1 REVERT JUMPDEST POP DUP2 CALLDATALOAD PUSH1 0x1 PUSH1 0x1 PUSH1 0x40 SHL SUB DUP2 GT ISZERO PUSH2 0x3C70 JUMPI PUSH1 0x0 DUP1 REVERT JUMPDEST PUSH1 0x20 DUP4 ADD SWAP2 POP DUP4 PUSH1 0x20 DUP3 PUSH1 0x5 SHL DUP6 ADD ADD GT ISZERO PUSH2 0x3C8B JUMPI PUSH1 0x0 DUP1 REVERT JUMPDEST SWAP3 POP SWAP3 SWAP1 POP JUMP JUMPDEST PUSH1 0x0 DUP1 PUSH1 0x0 DUP1 PUSH1 0x0 PUSH1 0x60 DUP7 DUP9 SUB SLT ISZERO PUSH2 0x3CAA JUMPI PUSH1 0x0 DUP1 REVERT JUMPDEST PUSH2 0x3CB3 DUP7 PUSH2 0x3286 JUMP JUMPDEST SWAP5 POP PUSH1 0x20 DUP7 ADD CALLDATALOAD PUSH1 0x1 PUSH1 0x1 PUSH1 0x40 SHL SUB DUP1 DUP3 GT ISZERO PUSH2 0x3CCF JUMPI PUSH1 0x0 DUP1 REVERT JUMPDEST PUSH2 0x3CDB DUP10 DUP4 DUP11 ADD PUSH2 0x3C47 JUMP JUMPDEST SWAP1 SWAP7 POP SWAP5 POP PUSH1 0x40 DUP9 ADD CALLDATALOAD SWAP2 POP DUP1 DUP3 GT ISZERO PUSH2 0x3CF4 JUMPI PUSH1 0x0 DUP1 REVERT JUMPDEST POP PUSH2 0x3D01 DUP9 DUP3 DUP10 ADD PUSH2 0x3C47 JUMP JUMPDEST SWAP7 SWAP10 SWAP6 SWAP9 POP SWAP4 SWAP7 POP SWAP3 SWAP5 SWAP4 SWAP3 POP POP POP JUMP JUMPDEST PUSH1 0x0 DUP1 PUSH1 0x40 DUP4 DUP6 SUB SLT ISZERO PUSH2 0x3D25 JUMPI PUSH1 0x0 DUP1 REVERT JUMPDEST PUSH2 0x3D2E DUP4 PUSH2 0x3286 JUMP JUMPDEST SWAP2 POP PUSH2 0x3443 PUSH1 0x20 DUP5 ADD PUSH2 0x354F JUMP JUMPDEST PUSH1 0x0 DUP1 PUSH1 0x0 PUSH1 0x60 DUP5 DUP7 SUB SLT ISZERO PUSH2 0x3D51 JUMPI PUSH1 0x0 DUP1 REVERT JUMPDEST DUP4 CALLDATALOAD PUSH1 0x1 PUSH1 0x1 PUSH1 0x40 SHL SUB DUP2 GT ISZERO PUSH2 0x3D67 JUMPI PUSH1 0x0 DUP1 REVERT JUMPDEST PUSH2 0x3D73 DUP7 DUP3 DUP8 ADD PUSH2 0x355F JUMP JUMPDEST SWAP4 POP POP PUSH2 0x3D82 PUSH1 0x20 DUP6 ADD PUSH2 0x3311 JUMP JUMPDEST SWAP2 POP PUSH2 0x3D90 PUSH1 0x40 DUP6 ADD PUSH2 0x3408 JUMP JUMPDEST SWAP1 POP SWAP3 POP SWAP3 POP SWAP3 JUMP JUMPDEST PUSH1 0x0 DUP1 PUSH1 0x40 DUP4 DUP6 SUB SLT ISZERO PUSH2 0x3DAC JUMPI PUSH1 0x0 DUP1 REVERT JUMPDEST PUSH2 0x3DB5 DUP4 PUSH2 0x32FF JUMP JUMPDEST SWAP2 POP PUSH2 0x3443 PUSH1 0x20 DUP5 ADD PUSH2 0x3408 JUMP JUMPDEST PUSH1 0x20 DUP2 MSTORE PUSH1 0x0 DUP3 MLOAD PUSH2 0x100 DUP1 PUSH1 0x20 DUP6 ADD MSTORE PUSH2 0x3DE2 PUSH2 0x120 DUP6 ADD DUP4 PUSH2 0x33C9 JUMP JUMPDEST SWAP2 POP PUSH1 0x20 DUP6 ADD MLOAD PUSH1 0x1F NOT DUP1 DUP7 DUP6 SUB ADD PUSH1 0x40 DUP8 ADD MSTORE PUSH2 0x3E00 DUP5 DUP4 PUSH2 0x33C9 JUMP JUMPDEST SWAP4 POP PUSH1 0x40 DUP8 ADD MLOAD SWAP2 POP PUSH2 0x3E16 PUSH1 0x60 DUP8 ADD DUP4 PUSH2 0x37C4 JUMP JUMPDEST PUSH1 0x60 DUP8 ADD MLOAD PUSH1 0x1 PUSH1 0x1 PUSH1 0xA0 SHL SUB DUP2 AND PUSH1 0x80 DUP9 ADD MSTORE SWAP2 POP PUSH1 0x80 DUP8 ADD MLOAD PUSH1 0x1 PUSH1 0x1 PUSH1 0xA0 SHL SUB DUP2 AND PUSH1 0xA0 DUP9 ADD MSTORE SWAP2 POP PUSH1 0xA0 DUP8 ADD MLOAD SWAP2 POP PUSH2 0x3E56 PUSH1 0xC0 DUP8 ADD DUP4 PUSH2 0x37C4 JUMP JUMPDEST PUSH1 0xC0 DUP8 ADD MLOAD DUP1 ISZERO ISZERO PUSH1 0xE0 DUP9 ADD MSTORE SWAP2 POP PUSH1 0xE0 DUP8 ADD MLOAD SWAP2 POP DUP1 DUP7 DUP6 SUB ADD DUP4 DUP8 ADD MSTORE POP PUSH2 0x3E80 DUP4 DUP3 PUSH2 0x33C9 JUMP JUMPDEST SWAP7 SWAP6 POP POP POP POP POP POP JUMP JUMPDEST PUSH1 0x0 DUP1 PUSH1 0x40 DUP4 DUP6 SUB SLT ISZERO PUSH2 0x3E9D JUMPI PUSH1 0x0 DUP1 REVERT JUMPDEST PUSH2 0x3EA6 DUP4 PUSH2 0x3286 JUMP JUMPDEST SWAP2 POP PUSH2 0x3443 PUSH1 0x20 DUP5 ADD PUSH2 0x3286 JUMP JUMPDEST PUSH1 0x0 PUSH1 0x20 DUP3 DUP5 SUB SLT ISZERO PUSH2 0x3EC6 JUMPI PUSH1 0x0 DUP1 REVERT JUMPDEST PUSH2 0x31E6 DUP3 PUSH2 0x32FF JUMP JUMPDEST PUSH1 0x0 DUP1 PUSH1 0x0 DUP1 PUSH1 0x0 PUSH1 0xA0 DUP7 DUP9 SUB SLT ISZERO PUSH2 0x3EE7 JUMPI PUSH1 0x0 DUP1 REVERT JUMPDEST PUSH2 0x3EF0 DUP7 PUSH2 0x3286 JUMP JUMPDEST SWAP5 POP PUSH2 0x3EFE PUSH1 0x20 DUP8 ADD PUSH2 0x3286 JUMP JUMPDEST SWAP4 POP PUSH1 0x40 DUP7 ADD CALLDATALOAD SWAP3 POP PUSH1 0x60 DUP7 ADD CALLDATALOAD SWAP2 POP PUSH1 0x80 DUP7 ADD CALLDATALOAD PUSH1 0x1 PUSH1 0x1 PUSH1 0x40 SHL SUB DUP2 GT ISZERO PUSH2 0x3F27 JUMPI PUSH1 0x0 DUP1 REVERT JUMPDEST PUSH2 0x38F6 DUP9 DUP3 DUP10 ADD PUSH2 0x34DC JUMP JUMPDEST PUSH1 0x0 PUSH1 0x20 DUP3 DUP5 SUB SLT ISZERO PUSH2 0x3F45 JUMPI PUSH1 0x0 DUP1 REVERT JUMPDEST PUSH2 0x31E6 DUP3 PUSH2 0x3286 JUMP JUMPDEST PUSH1 0x0 DUP1 PUSH1 0x0 PUSH1 0x60 DUP5 DUP7 SUB SLT ISZERO PUSH2 0x3F63 JUMPI PUSH1 0x0 DUP1 REVERT JUMPDEST PUSH2 0x3F6C DUP5 PUSH2 0x3286 JUMP JUMPDEST SWAP6 PUSH1 0x20 DUP6 ADD CALLDATALOAD SWAP6 POP PUSH1 0x40 SWAP1 SWAP5 ADD CALLDATALOAD SWAP4 SWAP3 POP POP POP JUMP JUMPDEST PUSH1 0x1 DUP2 DUP2 SHR SWAP1 DUP3 AND DUP1 PUSH2 0x3F95 JUMPI PUSH1 0x7F DUP3 AND SWAP2 POP JUMPDEST PUSH1 0x20 DUP3 LT DUP2 SUB PUSH2 0x3FB5 JUMPI PUSH4 0x4E487B71 PUSH1 0xE0 SHL PUSH1 0x0 MSTORE PUSH1 0x22 PUSH1 0x4 MSTORE PUSH1 0x24 PUSH1 0x0 REVERT JUMPDEST POP SWAP2 SWAP1 POP JUMP JUMPDEST PUSH4 0x4E487B71 PUSH1 0xE0 SHL PUSH1 0x0 MSTORE PUSH1 0x32 PUSH1 0x4 MSTORE PUSH1 0x24 PUSH1 0x0 REVERT JUMPDEST PUSH1 0x0 DUP1 DUP4 SLOAD DUP2 PUSH1 0x1 DUP3 DUP2 SHR SWAP2 POP DUP1 DUP4 AND DUP1 PUSH2 0x3FED JUMPI PUSH1 0x7F DUP4 AND SWAP3 POP JUMPDEST PUSH1 0x20 DUP1 DUP5 LT DUP3 SUB PUSH2 0x400C JUMPI PUSH4 0x4E487B71 PUSH1 0xE0 SHL DUP7 MSTORE PUSH1 0x22 PUSH1 0x4 MSTORE PUSH1 0x24 DUP7 REVERT JUMPDEST DUP2 DUP1 ISZERO PUSH2 0x4020 JUMPI PUSH1 0x1 DUP2 EQ PUSH2 0x4031 JUMPI PUSH2 0x405E JUMP JUMPDEST PUSH1 0xFF NOT DUP7 AND DUP10 MSTORE DUP5 DUP10 ADD SWAP7 POP PUSH2 0x405E JUMP JUMPDEST PUSH1 0x0 DUP11 DUP2 MSTORE PUSH1 0x20 SWAP1 KECCAK256 PUSH1 0x0 JUMPDEST DUP7 DUP2 LT ISZERO PUSH2 0x4056 JUMPI DUP2 SLOAD DUP12 DUP3 ADD MSTORE SWAP1 DUP6 ADD SWAP1 DUP4 ADD PUSH2 0x403D JUMP JUMPDEST POP POP DUP5 DUP10 ADD SWAP7 POP JUMPDEST POP SWAP5 SWAP9 SWAP8 POP POP POP POP POP POP POP POP JUMP JUMPDEST PUSH1 0x0 DUP3 MLOAD PUSH2 0x407E DUP2 DUP5 PUSH1 0x20 DUP8 ADD PUSH2 0x339D JUMP JUMPDEST SWAP2 SWAP1 SWAP2 ADD SWAP3 SWAP2 POP POP JUMP JUMPDEST PUSH4 0x4E487B71 PUSH1 0xE0 SHL PUSH1 0x0 MSTORE PUSH1 0x11 PUSH1 0x4 MSTORE PUSH1 0x24 PUSH1 0x0 REVERT JUMPDEST PUSH1 0x0 PUSH1 0xFF DUP3 AND PUSH1 0xFF DUP2 SUB PUSH2 0x40B4 JUMPI PUSH2 0x40B4 PUSH2 0x4088 JUMP JUMPDEST PUSH1 0x1 ADD SWAP3 SWAP2 POP POP JUMP JUMPDEST PUSH1 0x20 DUP1 DUP3 MSTORE PUSH1 0x2E SWAP1 DUP3 ADD MSTORE PUSH32 0x455243313135353A2063616C6C6572206973206E6F7420746F6B656E206F776E PUSH1 0x40 DUP3 ADD MSTORE PUSH14 0x195C881BDC88185C1C1C9BDD9959 PUSH1 0x92 SHL PUSH1 0x60 DUP3 ADD MSTORE PUSH1 0x80 ADD SWAP1 JUMP JUMPDEST PUSH1 0x0 PUSH1 0x1 DUP3 ADD PUSH2 0x411D JUMPI PUSH2 0x411D PUSH2 0x4088 JUMP JUMPDEST POP PUSH1 0x1 ADD SWAP1 JUMP JUMPDEST PUSH1 0x0 PUSH1 0xFF DUP3 AND PUSH1 0xFF DUP5 AND DUP1 PUSH1 0xFF SUB DUP3 GT ISZERO PUSH2 0x4141 JUMPI PUSH2 0x4141 PUSH2 0x4088 JUMP JUMPDEST ADD SWAP4 SWAP3 POP POP POP JUMP JUMPDEST PUSH1 0x40 DUP2 MSTORE PUSH1 0x0 PUSH2 0x415C PUSH1 0x40 DUP4 ADD DUP6 PUSH2 0x33C9 JUMP JUMPDEST SWAP1 POP DUP3 PUSH1 0x20 DUP4 ADD MSTORE SWAP4 SWAP3 POP POP POP JUMP JUMPDEST PUSH1 0x20 DUP1 DUP3 MSTORE PUSH1 0x28 SWAP1 DUP3 ADD MSTORE PUSH32 0x455243313135353A2069647320616E6420616D6F756E7473206C656E67746820 PUSH1 0x40 DUP3 ADD MSTORE PUSH8 0xDAD2E6DAC2E8C6D PUSH1 0xC3 SHL PUSH1 0x60 DUP3 ADD MSTORE PUSH1 0x80 ADD SWAP1 JUMP JUMPDEST PUSH1 0x0 DUP3 NOT DUP3 GT ISZERO PUSH2 0x41C6 JUMPI PUSH2 0x41C6 PUSH2 0x4088 JUMP JUMPDEST POP ADD SWAP1 JUMP JUMPDEST PUSH1 0x40 DUP2 MSTORE PUSH1 0x0 PUSH2 0x41DE PUSH1 0x40 DUP4 ADD DUP6 PUSH2 0x3A71 JUMP JUMPDEST DUP3 DUP2 SUB PUSH1 0x20 DUP5 ADD MSTORE PUSH2 0x41F0 DUP2 DUP6 PUSH2 0x3A71 JUMP JUMPDEST SWAP6 SWAP5 POP POP POP POP POP JUMP JUMPDEST PUSH1 0x20 DUP1 DUP3 MSTORE PUSH1 0x25 SWAP1 DUP3 ADD MSTORE PUSH32 0x455243313135353A207472616E7366657220746F20746865207A65726F206164 PUSH1 0x40 DUP3 ADD MSTORE PUSH5 0x6472657373 PUSH1 0xD8 SHL PUSH1 0x60 DUP3 ADD MSTORE PUSH1 0x80 ADD SWAP1 JUMP JUMPDEST PUSH1 0x20 DUP1 DUP3 MSTORE PUSH1 0x2A SWAP1 DUP3 ADD MSTORE PUSH32 0x455243313135353A20696E73756666696369656E742062616C616E636520666F PUSH1 0x40 DUP3 ADD MSTORE PUSH10 0x39103A3930B739B332B9 PUSH1 0xB1 SHL PUSH1 0x60 DUP3 ADD MSTORE PUSH1 0x80 ADD SWAP1 JUMP JUMPDEST PUSH1 0x20 DUP1 DUP3 MSTORE PUSH1 0x23 SWAP1 DUP3 ADD MSTORE PUSH32 0x455243313135353A206275726E2066726F6D20746865207A65726F2061646472 PUSH1 0x40 DUP3 ADD MSTORE PUSH3 0x657373 PUSH1 0xE8 SHL PUSH1 0x60 DUP3 ADD MSTORE PUSH1 0x80 ADD SWAP1 JUMP JUMPDEST PUSH1 0x20 DUP1 DUP3 MSTORE PUSH1 0x24 SWAP1 DUP3 ADD MSTORE PUSH32 0x455243313135353A206275726E20616D6F756E7420657863656564732062616C PUSH1 0x40 DUP3 ADD MSTORE PUSH4 0x616E6365 PUSH1 0xE0 SHL PUSH1 0x60 DUP3 ADD MSTORE PUSH1 0x80 ADD SWAP1 JUMP JUMPDEST PUSH1 0x1 PUSH1 0x1 PUSH1 0xA0 SHL SUB DUP7 DUP2 AND DUP3 MSTORE DUP6 AND PUSH1 0x20 DUP3 ADD MSTORE PUSH1 0xA0 PUSH1 0x40 DUP3 ADD DUP2 SWAP1 MSTORE PUSH1 0x0 SWAP1 PUSH2 0x433B SWAP1 DUP4 ADD DUP7 PUSH2 0x3A71 JUMP JUMPDEST DUP3 DUP2 SUB PUSH1 0x60 DUP5 ADD MSTORE PUSH2 0x434D DUP2 DUP7 PUSH2 0x3A71 JUMP JUMPDEST SWAP1 POP DUP3 DUP2 SUB PUSH1 0x80 DUP5 ADD MSTORE PUSH2 0x4361 DUP2 DUP6 PUSH2 0x33C9 JUMP JUMPDEST SWAP9 SWAP8 POP POP POP POP POP POP POP POP JUMP JUMPDEST PUSH1 0x0 PUSH1 0x20 DUP3 DUP5 SUB SLT ISZERO PUSH2 0x437F JUMPI PUSH1 0x0 DUP1 REVERT JUMPDEST DUP2 MLOAD PUSH2 0x31E6 DUP2 PUSH2 0x32CC JUMP JUMPDEST PUSH1 0x0 PUSH1 0x3 RETURNDATASIZE GT ISZERO PUSH2 0x43A3 JUMPI PUSH1 0x4 PUSH1 0x0 DUP1 RETURNDATACOPY POP PUSH1 0x0 MLOAD PUSH1 0xE0 SHR JUMPDEST SWAP1 JUMP JUMPDEST PUSH1 0x0 PUSH1 0x44 RETURNDATASIZE LT ISZERO PUSH2 0x43B4 JUMPI SWAP1 JUMP JUMPDEST PUSH1 0x40 MLOAD PUSH1 0x3 NOT RETURNDATASIZE DUP2 ADD PUSH1 0x4 DUP4 RETURNDATACOPY DUP2 MLOAD RETURNDATASIZE PUSH1 0x1 PUSH1 0x1 PUSH1 0x40 SHL SUB DUP2 PUSH1 0x24 DUP5 ADD GT DUP2 DUP5 GT OR ISZERO PUSH2 0x43E3 JUMPI POP POP POP POP POP SWAP1 JUMP JUMPDEST DUP3 DUP6 ADD SWAP2 POP DUP2 MLOAD DUP2 DUP2 GT ISZERO PUSH2 0x43FB JUMPI POP POP POP POP POP POP SWAP1 JUMP JUMPDEST DUP5 RETURNDATASIZE DUP8 ADD ADD PUSH1 0x20 DUP3 DUP6 ADD ADD GT ISZERO PUSH2 0x4415 JUMPI POP POP POP POP POP POP SWAP1 JUMP JUMPDEST PUSH2 0x4424 PUSH1 0x20 DUP3 DUP7 ADD ADD DUP8 PUSH2 0x3487 JUMP JUMPDEST POP SWAP1 SWAP6 SWAP5 POP POP POP POP POP JUMP JUMPDEST PUSH1 0x20 DUP1 DUP3 MSTORE PUSH1 0x28 SWAP1 DUP3 ADD MSTORE PUSH32 0x455243313135353A204552433131353552656365697665722072656A65637465 PUSH1 0x40 DUP3 ADD MSTORE PUSH8 0x6420746F6B656E73 PUSH1 0xC0 SHL PUSH1 0x60 DUP3 ADD MSTORE PUSH1 0x80 ADD SWAP1 JUMP JUMPDEST PUSH32 0x416363657373436F6E74726F6C3A206163636F756E7420000000000000000000 DUP2 MSTORE PUSH1 0x0 DUP4 MLOAD PUSH2 0x44AF DUP2 PUSH1 0x17 DUP6 ADD PUSH1 0x20 DUP9 ADD PUSH2 0x339D JUMP JUMPDEST PUSH17 0x1034B99036B4B9B9B4B733903937B6329 PUSH1 0x7D SHL PUSH1 0x17 SWAP2 DUP5 ADD SWAP2 DUP3 ADD MSTORE DUP4 MLOAD PUSH2 0x44E0 DUP2 PUSH1 0x28 DUP5 ADD PUSH1 0x20 DUP9 ADD PUSH2 0x339D JUMP JUMPDEST ADD PUSH1 0x28 ADD SWAP5 SWAP4 POP POP POP POP JUMP JUMPDEST PUSH1 0x1 PUSH1 0x1 PUSH1 0xA0 SHL SUB DUP7 DUP2 AND DUP3 MSTORE DUP6 AND PUSH1 0x20 DUP3 ADD MSTORE PUSH1 0x40 DUP2 ADD DUP5 SWAP1 MSTORE PUSH1 0x60 DUP2 ADD DUP4 SWAP1 MSTORE PUSH1 0xA0 PUSH1 0x80 DUP3 ADD DUP2 SWAP1 MSTORE PUSH1 0x0 SWAP1 PUSH2 0x4526 SWAP1 DUP4 ADD DUP5 PUSH2 0x33C9 JUMP JUMPDEST SWAP8 SWAP7 POP POP POP POP POP POP POP JUMP JUMPDEST PUSH1 0x0 DUP2 PUSH1 0x0 NOT DIV DUP4 GT DUP3 ISZERO ISZERO AND ISZERO PUSH2 0x454B JUMPI PUSH2 0x454B PUSH2 0x4088 JUMP JUMPDEST POP MUL SWAP1 JUMP JUMPDEST PUSH1 0x0 DUP2 PUSH2 0x455F JUMPI PUSH2 0x455F PUSH2 0x4088 JUMP JUMPDEST POP PUSH1 0x0 NOT ADD SWAP1 JUMP INVALID LOG2 PUSH5 0x6970667358 0x22 SLT KECCAK256 0xEC SWAP9 0xC5 DUP2 PUSH25 0x750DBB7D049EE68724E12EE0008B16FDEC3790AA6E5C893718 0x21 PUSH4 0x64736F6C PUSH4 0x4300080E STOP CALLER PUSH9 0x747470733A2F2F6761 PUSH14 0x652E6578616D706C652F6170692F PUSH10 0x74656D2F7B69647D2E6A PUSH20 0x6F6E000000000000000000000000000000000000 "
		},
		"gasEstimates": {
			"creation": {
				"codeDepositCost": "3564200",
				"executionCost": "infinite",
				"totalCost": "infinite"
			},
			"external": {
				"DEFAULT_ADMIN_ROLE()": "318",
				"MINTER_ROLE()": "infinite",
				"assetId()": "2425",
				"assetsInFlorest(uint16,uint256)": "infinite",
				"balanceOf(address,uint256)": "2721",
				"balanceOfBatch(address[],uint256[])": "infinite",
				"burn(address,uint256,uint256)": "infinite",
				"burnBatch(address,uint256[],uint256[])": "infinite",
				"checkOwnership()": "2388",
				"createAFlorest(uint16,uint32,uint8)": "infinite",
				"createAPlot((string,uint16,uint16,uint16,uint8),uint8)": "infinite",
				"createAsset((string,string,uint8,address,address,uint8,bool,string),uint16,uint256[],uint256[])": "infinite",
				"currentYear()": "2437",
				"dataRoomLink()": "infinite",
				"florestsInProperty(uint8)": "infinite",
				"florestsQuantity()": "2467",
				"getAssetInFlorest(uint16,uint8)": "infinite",
				"getCurrentPlotNumberinFlorest(uint8)": "2680",
				"getDefaultPlot(uint8)": "infinite",
				"getPlot(uint8,uint16)": "infinite",
				"getRoleAdmin(bytes32)": "2529",
				"grantRole(bytes32,address)": "infinite",
				"hasRole(bytes32,address)": "2755",
				"isApprovedForAll(address,address)": "infinite",
				"maxGlobalAllowedFlorestTokenizationPercentage()": "2457",
				"mint(address,uint256[],uint256[])": "infinite",
				"owner()": "2377",
				"propertyRegistration()": "2352",
				"renounceOwnership()": "infinite",
				"renounceRole(bytes32,address)": "29091",
				"resetPlotQuantityinFlorest(uint8,uint16)": "infinite",
				"revokeRole(bytes32,address)": "infinite",
				"safeBatchTransferFrom(address,address,uint256[],uint256[],bytes)": "infinite",
				"safeTransferFrom(address,address,uint256,uint256,bytes)": "infinite",
				"setApprovalForAll(address,bool)": "infinite",
				"setCurrentYear(uint16)": "infinite",
				"supportsInterface(bytes4)": "infinite",
				"tokenizationContractLink()": "infinite",
				"tokenizeAssetInFlorest((string,string,uint8,address,address,uint8,bool,string),uint32,uint8)": "infinite",
				"transferOwnership(address)": "28399",
				"uri(uint256)": "infinite",
				"woodPropertyMaxPotential()": "2380"
			},
			"internal": {
				"setApprovalToTransferAssets(address,address,bool)": "infinite"
			}
		},
		"methodIdentifiers": {
			"DEFAULT_ADMIN_ROLE()": "a217fddf",
			"MINTER_ROLE()": "d5391393",
			"assetId()": "44de240a",
			"assetsInFlorest(uint16,uint256)": "2d9c98dc",
			"balanceOf(address,uint256)": "00fdd58e",
			"balanceOfBatch(address[],uint256[])": "4e1273f4",
			"burn(address,uint256,uint256)": "f5298aca",
			"burnBatch(address,uint256[],uint256[])": "6b20c454",
			"checkOwnership()": "219a1d77",
			"createAFlorest(uint16,uint32,uint8)": "072a27a7",
			"createAPlot((string,uint16,uint16,uint16,uint8),uint8)": "764c1d96",
			"createAsset((string,string,uint8,address,address,uint8,bool,string),uint16,uint256[],uint256[])": "2a5a1dbc",
			"currentYear()": "0b5a006b",
			"dataRoomLink()": "ed008921",
			"florestsInProperty(uint8)": "6cd47623",
			"florestsQuantity()": "fc851323",
			"getAssetInFlorest(uint16,uint8)": "c781b949",
			"getCurrentPlotNumberinFlorest(uint8)": "fa7a02a5",
			"getDefaultPlot(uint8)": "4b5e91d4",
			"getPlot(uint8,uint16)": "f70efa97",
			"getRoleAdmin(bytes32)": "248a9ca3",
			"grantRole(bytes32,address)": "2f2ff15d",
			"hasRole(bytes32,address)": "91d14854",
			"isApprovedForAll(address,address)": "e985e9c5",
			"maxGlobalAllowedFlorestTokenizationPercentage()": "f0e404c0",
			"mint(address,uint256[],uint256[])": "9727756a",
			"owner()": "8da5cb5b",
			"propertyRegistration()": "8ec3ca14",
			"renounceOwnership()": "715018a6",
			"renounceRole(bytes32,address)": "36568abe",
			"resetPlotQuantityinFlorest(uint8,uint16)": "13516037",
			"revokeRole(bytes32,address)": "d547741f",
			"safeBatchTransferFrom(address,address,uint256[],uint256[],bytes)": "2eb2c2d6",
			"safeTransferFrom(address,address,uint256,uint256,bytes)": "f242432a",
			"setApprovalForAll(address,bool)": "a22cb465",
			"setCurrentYear(uint16)": "ea3994bc",
			"supportsInterface(bytes4)": "01ffc9a7",
			"tokenizationContractLink()": "a768396a",
			"tokenizeAssetInFlorest((string,string,uint8,address,address,uint8,bool,string),uint32,uint8)": "a9f920ed",
			"transferOwnership(address)": "f2fde38b",
			"uri(uint256)": "0e89341c",
			"woodPropertyMaxPotential()": "58609177"
		}
	},
	"abi": [
		{
			"inputs": [
				{
					"internalType": "address",
					"name": "_initialOwner",
					"type": "address"
				},
				{
					"internalType": "address",
					"name": "_minter",
					"type": "address"
				},
				{
					"internalType": "uint256[]",
					"name": "_ids",
					"type": "uint256[]"
				},
				{
					"internalType": "uint256[]",
					"name": "_amount",
					"type": "uint256[]"
				}
			],
			"stateMutability": "nonpayable",
			"type": "constructor"
		},
		{
			"anonymous": false,
			"inputs": [
				{
					"indexed": true,
					"internalType": "address",
					"name": "account",
					"type": "address"
				},
				{
					"indexed": true,
					"internalType": "address",
					"name": "operator",
					"type": "address"
				},
				{
					"indexed": false,
					"internalType": "bool",
					"name": "approved",
					"type": "bool"
				}
			],
			"name": "ApprovalForAll",
			"type": "event"
		},
		{
			"anonymous": false,
			"inputs": [
				{
					"indexed": false,
					"internalType": "bool",
					"name": "availability",
					"type": "bool"
				}
			],
			"name": "AssetAvailabilityUpdated",
			"type": "event"
		},
		{
			"anonymous": false,
			"inputs": [
				{
					"indexed": false,
					"internalType": "uint8",
					"name": "assetId",
					"type": "uint8"
				},
				{
					"indexed": false,
					"internalType": "bool",
					"name": "wasBurned",
					"type": "bool"
				}
			],
			"name": "AssetBurned",
			"type": "event"
		},
		{
			"anonymous": false,
			"inputs": [
				{
					"indexed": false,
					"internalType": "uint32",
					"name": "AssetId",
					"type": "uint32"
				},
				{
					"indexed": false,
					"internalType": "address",
					"name": "tokenOwner",
					"type": "address"
				},
				{
					"indexed": false,
					"internalType": "uint8",
					"name": "assetId",
					"type": "uint8"
				}
			],
			"name": "AssetMinted",
			"type": "event"
		},
		{
			"anonymous": false,
			"inputs": [
				{
					"indexed": false,
					"internalType": "uint8",
					"name": "assetId",
					"type": "uint8"
				},
				{
					"indexed": false,
					"internalType": "address",
					"name": "newOwner",
					"type": "address"
				},
				{
					"indexed": false,
					"internalType": "bool",
					"name": "transferred",
					"type": "bool"
				}
			],
			"name": "AssetTransferred",
			"type": "event"
		},
		{
			"anonymous": false,
			"inputs": [
				{
					"indexed": false,
					"internalType": "uint32",
					"name": "value",
					"type": "uint32"
				},
				{
					"indexed": false,
					"internalType": "bool",
					"name": "valuationSet",
					"type": "bool"
				}
			],
			"name": "AssetValuationWevent",
			"type": "event"
		},
		{
			"anonymous": false,
			"inputs": [
				{
					"indexed": true,
					"internalType": "address",
					"name": "previousOwner",
					"type": "address"
				},
				{
					"indexed": true,
					"internalType": "address",
					"name": "newOwner",
					"type": "address"
				}
			],
			"name": "OwnershipTransferred",
			"type": "event"
		},
		{
			"anonymous": false,
			"inputs": [
				{
					"indexed": true,
					"internalType": "bytes32",
					"name": "role",
					"type": "bytes32"
				},
				{
					"indexed": true,
					"internalType": "bytes32",
					"name": "previousAdminRole",
					"type": "bytes32"
				},
				{
					"indexed": true,
					"internalType": "bytes32",
					"name": "newAdminRole",
					"type": "bytes32"
				}
			],
			"name": "RoleAdminChanged",
			"type": "event"
		},
		{
			"anonymous": false,
			"inputs": [
				{
					"indexed": true,
					"internalType": "bytes32",
					"name": "role",
					"type": "bytes32"
				},
				{
					"indexed": true,
					"internalType": "address",
					"name": "account",
					"type": "address"
				},
				{
					"indexed": true,
					"internalType": "address",
					"name": "sender",
					"type": "address"
				}
			],
			"name": "RoleGranted",
			"type": "event"
		},
		{
			"anonymous": false,
			"inputs": [
				{
					"indexed": true,
					"internalType": "bytes32",
					"name": "role",
					"type": "bytes32"
				},
				{
					"indexed": true,
					"internalType": "address",
					"name": "account",
					"type": "address"
				},
				{
					"indexed": true,
					"internalType": "address",
					"name": "sender",
					"type": "address"
				}
			],
			"name": "RoleRevoked",
			"type": "event"
		},
		{
			"anonymous": false,
			"inputs": [
				{
					"indexed": true,
					"internalType": "address",
					"name": "operator",
					"type": "address"
				},
				{
					"indexed": true,
					"internalType": "address",
					"name": "from",
					"type": "address"
				},
				{
					"indexed": true,
					"internalType": "address",
					"name": "to",
					"type": "address"
				},
				{
					"indexed": false,
					"internalType": "uint256[]",
					"name": "ids",
					"type": "uint256[]"
				},
				{
					"indexed": false,
					"internalType": "uint256[]",
					"name": "values",
					"type": "uint256[]"
				}
			],
			"name": "TransferBatch",
			"type": "event"
		},
		{
			"anonymous": false,
			"inputs": [
				{
					"indexed": true,
					"internalType": "address",
					"name": "operator",
					"type": "address"
				},
				{
					"indexed": true,
					"internalType": "address",
					"name": "from",
					"type": "address"
				},
				{
					"indexed": true,
					"internalType": "address",
					"name": "to",
					"type": "address"
				},
				{
					"indexed": false,
					"internalType": "uint256",
					"name": "id",
					"type": "uint256"
				},
				{
					"indexed": false,
					"internalType": "uint256",
					"name": "value",
					"type": "uint256"
				}
			],
			"name": "TransferSingle",
			"type": "event"
		},
		{
			"anonymous": false,
			"inputs": [
				{
					"indexed": false,
					"internalType": "string",
					"name": "value",
					"type": "string"
				},
				{
					"indexed": true,
					"internalType": "uint256",
					"name": "id",
					"type": "uint256"
				}
			],
			"name": "URI",
			"type": "event"
		},
		{
			"inputs": [],
			"name": "DEFAULT_ADMIN_ROLE",
			"outputs": [
				{
					"internalType": "bytes32",
					"name": "",
					"type": "bytes32"
				}
			],
			"stateMutability": "view",
			"type": "function"
		},
		{
			"inputs": [],
			"name": "MINTER_ROLE",
			"outputs": [
				{
					"internalType": "bytes32",
					"name": "",
					"type": "bytes32"
				}
			],
			"stateMutability": "view",
			"type": "function"
		},
		{
			"inputs": [],
			"name": "assetId",
			"outputs": [
				{
					"internalType": "uint8",
					"name": "",
					"type": "uint8"
				}
			],
			"stateMutability": "view",
			"type": "function"
		},
		{
			"inputs": [
				{
					"internalType": "uint16",
					"name": "",
					"type": "uint16"
				},
				{
					"internalType": "uint256",
					"name": "",
					"type": "uint256"
				}
			],
			"name": "assetsInFlorest",
			"outputs": [
				{
					"internalType": "string",
					"name": "geographicLocation",
					"type": "string"
				},
				{
					"internalType": "string",
					"name": "buyOrSellContractLink",
					"type": "string"
				},
				{
					"internalType": "enum COPF.NegociationType",
					"name": "assetTokenizationType",
					"type": "uint8"
				},
				{
					"internalType": "address",
					"name": "initialOwner",
					"type": "address"
				},
				{
					"internalType": "address",
					"name": "currentTokenOwner",
					"type": "address"
				},
				{
					"internalType": "enum COPF.AssetClassification",
					"name": "class",
					"type": "uint8"
				},
				{
					"internalType": "bool",
					"name": "isCurrentAssetAvailableForTransfer",
					"type": "bool"
				},
				{
					"internalType": "string",
					"name": "assetPropertyRegistration",
					"type": "string"
				}
			],
			"stateMutability": "view",
			"type": "function"
		},
		{
			"inputs": [
				{
					"internalType": "address",
					"name": "account",
					"type": "address"
				},
				{
					"internalType": "uint256",
					"name": "id",
					"type": "uint256"
				}
			],
			"name": "balanceOf",
			"outputs": [
				{
					"internalType": "uint256",
					"name": "",
					"type": "uint256"
				}
			],
			"stateMutability": "view",
			"type": "function"
		},
		{
			"inputs": [
				{
					"internalType": "address[]",
					"name": "accounts",
					"type": "address[]"
				},
				{
					"internalType": "uint256[]",
					"name": "ids",
					"type": "uint256[]"
				}
			],
			"name": "balanceOfBatch",
			"outputs": [
				{
					"internalType": "uint256[]",
					"name": "",
					"type": "uint256[]"
				}
			],
			"stateMutability": "view",
			"type": "function"
		},
		{
			"inputs": [
				{
					"internalType": "address",
					"name": "account",
					"type": "address"
				},
				{
					"internalType": "uint256",
					"name": "id",
					"type": "uint256"
				},
				{
					"internalType": "uint256",
					"name": "value",
					"type": "uint256"
				}
			],
			"name": "burn",
			"outputs": [],
			"stateMutability": "nonpayable",
			"type": "function"
		},
		{
			"inputs": [
				{
					"internalType": "address",
					"name": "account",
					"type": "address"
				},
				{
					"internalType": "uint256[]",
					"name": "ids",
					"type": "uint256[]"
				},
				{
					"internalType": "uint256[]",
					"name": "values",
					"type": "uint256[]"
				}
			],
			"name": "burnBatch",
			"outputs": [],
			"stateMutability": "nonpayable",
			"type": "function"
		},
		{
			"inputs": [],
			"name": "checkOwnership",
			"outputs": [
				{
					"internalType": "address",
					"name": "",
					"type": "address"
				}
			],
			"stateMutability": "view",
			"type": "function"
		},
		{
			"inputs": [
				{
					"internalType": "uint16",
					"name": "_plotsQuantityInCurrentFlorest",
					"type": "uint16"
				},
				{
					"internalType": "uint32",
					"name": "_tokenizationPercentageGivenToFlorest",
					"type": "uint32"
				},
				{
					"internalType": "enum COPF.WoodType",
					"name": "_woodTypeForFlorest",
					"type": "uint8"
				}
			],
			"name": "createAFlorest",
			"outputs": [
				{
					"internalType": "uint16",
					"name": "",
					"type": "uint16"
				}
			],
			"stateMutability": "nonpayable",
			"type": "function"
		},
		{
			"inputs": [
				{
					"components": [
						{
							"internalType": "string",
							"name": "localization",
							"type": "string"
						},
						{
							"internalType": "uint16",
							"name": "plotAge",
							"type": "uint16"
						},
						{
							"internalType": "uint16",
							"name": "plotPlantingYear",
							"type": "uint16"
						},
						{
							"internalType": "uint16",
							"name": "plotCutYear",
							"type": "uint16"
						},
						{
							"internalType": "enum COPF.WoodType",
							"name": "woodTypeForPlot",
							"type": "uint8"
						}
					],
					"internalType": "struct COPF.Plot",
					"name": "plot",
					"type": "tuple"
				},
				{
					"internalType": "uint8",
					"name": "_correspondingFlorest",
					"type": "uint8"
				}
			],
			"name": "createAPlot",
			"outputs": [
				{
					"components": [
						{
							"internalType": "string",
							"name": "localization",
							"type": "string"
						},
						{
							"internalType": "uint16",
							"name": "plotAge",
							"type": "uint16"
						},
						{
							"internalType": "uint16",
							"name": "plotPlantingYear",
							"type": "uint16"
						},
						{
							"internalType": "uint16",
							"name": "plotCutYear",
							"type": "uint16"
						},
						{
							"internalType": "enum COPF.WoodType",
							"name": "woodTypeForPlot",
							"type": "uint8"
						}
					],
					"internalType": "struct COPF.Plot",
					"name": "",
					"type": "tuple"
				}
			],
			"stateMutability": "nonpayable",
			"type": "function"
		},
		{
			"inputs": [
				{
					"components": [
						{
							"internalType": "string",
							"name": "geographicLocation",
							"type": "string"
						},
						{
							"internalType": "string",
							"name": "buyOrSellContractLink",
							"type": "string"
						},
						{
							"internalType": "enum COPF.NegociationType",
							"name": "assetTokenizationType",
							"type": "uint8"
						},
						{
							"internalType": "address",
							"name": "initialOwner",
							"type": "address"
						},
						{
							"internalType": "address",
							"name": "currentTokenOwner",
							"type": "address"
						},
						{
							"internalType": "enum COPF.AssetClassification",
							"name": "class",
							"type": "uint8"
						},
						{
							"internalType": "bool",
							"name": "isCurrentAssetAvailableForTransfer",
							"type": "bool"
						},
						{
							"internalType": "string",
							"name": "assetPropertyRegistration",
							"type": "string"
						}
					],
					"internalType": "struct COPF.Asset",
					"name": "asset",
					"type": "tuple"
				},
				{
					"internalType": "uint16",
					"name": "_correspondingFlorest",
					"type": "uint16"
				},
				{
					"internalType": "uint256[]",
					"name": "ids",
					"type": "uint256[]"
				},
				{
					"internalType": "uint256[]",
					"name": "amount",
					"type": "uint256[]"
				}
			],
			"name": "createAsset",
			"outputs": [],
			"stateMutability": "nonpayable",
			"type": "function"
		},
		{
			"inputs": [],
			"name": "currentYear",
			"outputs": [
				{
					"internalType": "uint16",
					"name": "",
					"type": "uint16"
				}
			],
			"stateMutability": "view",
			"type": "function"
		},
		{
			"inputs": [],
			"name": "dataRoomLink",
			"outputs": [
				{
					"internalType": "string",
					"name": "",
					"type": "string"
				}
			],
			"stateMutability": "view",
			"type": "function"
		},
		{
			"inputs": [
				{
					"internalType": "uint8",
					"name": "",
					"type": "uint8"
				}
			],
			"name": "florestsInProperty",
			"outputs": [
				{
					"internalType": "uint32",
					"name": "tokenizedPercentage",
					"type": "uint32"
				},
				{
					"internalType": "enum COPF.WoodType",
					"name": "woodTypeForFlorest",
					"type": "uint8"
				},
				{
					"internalType": "uint16",
					"name": "plotsQuantityInCurrentFlorest",
					"type": "uint16"
				},
				{
					"internalType": "uint32",
					"name": "tokenizationPercentageGivenToFlorest",
					"type": "uint32"
				},
				{
					"internalType": "enum COPF.AssetClassification",
					"name": "class",
					"type": "uint8"
				},
				{
					"internalType": "uint8",
					"name": "plotId",
					"type": "uint8"
				}
			],
			"stateMutability": "view",
			"type": "function"
		},
		{
			"inputs": [],
			"name": "florestsQuantity",
			"outputs": [
				{
					"internalType": "uint16",
					"name": "",
					"type": "uint16"
				}
			],
			"stateMutability": "view",
			"type": "function"
		},
		{
			"inputs": [
				{
					"internalType": "uint16",
					"name": "_correspondingFlorest",
					"type": "uint16"
				},
				{
					"internalType": "uint8",
					"name": "_assetId",
					"type": "uint8"
				}
			],
			"name": "getAssetInFlorest",
			"outputs": [
				{
					"components": [
						{
							"internalType": "string",
							"name": "geographicLocation",
							"type": "string"
						},
						{
							"internalType": "string",
							"name": "buyOrSellContractLink",
							"type": "string"
						},
						{
							"internalType": "enum COPF.NegociationType",
							"name": "assetTokenizationType",
							"type": "uint8"
						},
						{
							"internalType": "address",
							"name": "initialOwner",
							"type": "address"
						},
						{
							"internalType": "address",
							"name": "currentTokenOwner",
							"type": "address"
						},
						{
							"internalType": "enum COPF.AssetClassification",
							"name": "class",
							"type": "uint8"
						},
						{
							"internalType": "bool",
							"name": "isCurrentAssetAvailableForTransfer",
							"type": "bool"
						},
						{
							"internalType": "string",
							"name": "assetPropertyRegistration",
							"type": "string"
						}
					],
					"internalType": "struct COPF.Asset",
					"name": "",
					"type": "tuple"
				}
			],
			"stateMutability": "view",
			"type": "function"
		},
		{
			"inputs": [
				{
					"internalType": "uint8",
					"name": "_correspondingFlorest",
					"type": "uint8"
				}
			],
			"name": "getCurrentPlotNumberinFlorest",
			"outputs": [
				{
					"internalType": "uint8",
					"name": "",
					"type": "uint8"
				}
			],
			"stateMutability": "view",
			"type": "function"
		},
		{
			"inputs": [
				{
					"internalType": "uint8",
					"name": "_correspondingFlorest",
					"type": "uint8"
				}
			],
			"name": "getDefaultPlot",
			"outputs": [
				{
					"components": [
						{
							"internalType": "string",
							"name": "localization",
							"type": "string"
						},
						{
							"internalType": "uint16",
							"name": "plotAge",
							"type": "uint16"
						},
						{
							"internalType": "uint16",
							"name": "plotPlantingYear",
							"type": "uint16"
						},
						{
							"internalType": "uint16",
							"name": "plotCutYear",
							"type": "uint16"
						},
						{
							"internalType": "enum COPF.WoodType",
							"name": "woodTypeForPlot",
							"type": "uint8"
						}
					],
					"internalType": "struct COPF.Plot",
					"name": "",
					"type": "tuple"
				}
			],
			"stateMutability": "view",
			"type": "function"
		},
		{
			"inputs": [
				{
					"internalType": "uint8",
					"name": "_correspondingFlorest",
					"type": "uint8"
				},
				{
					"internalType": "uint16",
					"name": "_correspondingPlot",
					"type": "uint16"
				}
			],
			"name": "getPlot",
			"outputs": [
				{
					"components": [
						{
							"internalType": "string",
							"name": "localization",
							"type": "string"
						},
						{
							"internalType": "uint16",
							"name": "plotAge",
							"type": "uint16"
						},
						{
							"internalType": "uint16",
							"name": "plotPlantingYear",
							"type": "uint16"
						},
						{
							"internalType": "uint16",
							"name": "plotCutYear",
							"type": "uint16"
						},
						{
							"internalType": "enum COPF.WoodType",
							"name": "woodTypeForPlot",
							"type": "uint8"
						}
					],
					"internalType": "struct COPF.Plot",
					"name": "",
					"type": "tuple"
				}
			],
			"stateMutability": "view",
			"type": "function"
		},
		{
			"inputs": [
				{
					"internalType": "bytes32",
					"name": "role",
					"type": "bytes32"
				}
			],
			"name": "getRoleAdmin",
			"outputs": [
				{
					"internalType": "bytes32",
					"name": "",
					"type": "bytes32"
				}
			],
			"stateMutability": "view",
			"type": "function"
		},
		{
			"inputs": [
				{
					"internalType": "bytes32",
					"name": "role",
					"type": "bytes32"
				},
				{
					"internalType": "address",
					"name": "account",
					"type": "address"
				}
			],
			"name": "grantRole",
			"outputs": [],
			"stateMutability": "nonpayable",
			"type": "function"
		},
		{
			"inputs": [
				{
					"internalType": "bytes32",
					"name": "role",
					"type": "bytes32"
				},
				{
					"internalType": "address",
					"name": "account",
					"type": "address"
				}
			],
			"name": "hasRole",
			"outputs": [
				{
					"internalType": "bool",
					"name": "",
					"type": "bool"
				}
			],
			"stateMutability": "view",
			"type": "function"
		},
		{
			"inputs": [
				{
					"internalType": "address",
					"name": "account",
					"type": "address"
				},
				{
					"internalType": "address",
					"name": "operator",
					"type": "address"
				}
			],
			"name": "isApprovedForAll",
			"outputs": [
				{
					"internalType": "bool",
					"name": "",
					"type": "bool"
				}
			],
			"stateMutability": "view",
			"type": "function"
		},
		{
			"inputs": [],
			"name": "maxGlobalAllowedFlorestTokenizationPercentage",
			"outputs": [
				{
					"internalType": "uint32",
					"name": "",
					"type": "uint32"
				}
			],
			"stateMutability": "view",
			"type": "function"
		},
		{
			"inputs": [
				{
					"internalType": "address",
					"name": "_initialOwner",
					"type": "address"
				},
				{
					"internalType": "uint256[]",
					"name": "ids",
					"type": "uint256[]"
				},
				{
					"internalType": "uint256[]",
					"name": "amounts",
					"type": "uint256[]"
				}
			],
			"name": "mint",
			"outputs": [],
			"stateMutability": "nonpayable",
			"type": "function"
		},
		{
			"inputs": [],
			"name": "owner",
			"outputs": [
				{
					"internalType": "address",
					"name": "",
					"type": "address"
				}
			],
			"stateMutability": "view",
			"type": "function"
		},
		{
			"inputs": [],
			"name": "propertyRegistration",
			"outputs": [
				{
					"internalType": "uint256",
					"name": "",
					"type": "uint256"
				}
			],
			"stateMutability": "view",
			"type": "function"
		},
		{
			"inputs": [],
			"name": "renounceOwnership",
			"outputs": [],
			"stateMutability": "nonpayable",
			"type": "function"
		},
		{
			"inputs": [
				{
					"internalType": "bytes32",
					"name": "role",
					"type": "bytes32"
				},
				{
					"internalType": "address",
					"name": "account",
					"type": "address"
				}
			],
			"name": "renounceRole",
			"outputs": [],
			"stateMutability": "nonpayable",
			"type": "function"
		},
		{
			"inputs": [
				{
					"internalType": "uint8",
					"name": "_correspondingFlorest",
					"type": "uint8"
				},
				{
					"internalType": "uint16",
					"name": "_newPlotQuantityInFlorest",
					"type": "uint16"
				}
			],
			"name": "resetPlotQuantityinFlorest",
			"outputs": [],
			"stateMutability": "nonpayable",
			"type": "function"
		},
		{
			"inputs": [
				{
					"internalType": "bytes32",
					"name": "role",
					"type": "bytes32"
				},
				{
					"internalType": "address",
					"name": "account",
					"type": "address"
				}
			],
			"name": "revokeRole",
			"outputs": [],
			"stateMutability": "nonpayable",
			"type": "function"
		},
		{
			"inputs": [
				{
					"internalType": "address",
					"name": "from",
					"type": "address"
				},
				{
					"internalType": "address",
					"name": "to",
					"type": "address"
				},
				{
					"internalType": "uint256[]",
					"name": "ids",
					"type": "uint256[]"
				},
				{
					"internalType": "uint256[]",
					"name": "amounts",
					"type": "uint256[]"
				},
				{
					"internalType": "bytes",
					"name": "data",
					"type": "bytes"
				}
			],
			"name": "safeBatchTransferFrom",
			"outputs": [],
			"stateMutability": "nonpayable",
			"type": "function"
		},
		{
			"inputs": [
				{
					"internalType": "address",
					"name": "from",
					"type": "address"
				},
				{
					"internalType": "address",
					"name": "to",
					"type": "address"
				},
				{
					"internalType": "uint256",
					"name": "id",
					"type": "uint256"
				},
				{
					"internalType": "uint256",
					"name": "amount",
					"type": "uint256"
				},
				{
					"internalType": "bytes",
					"name": "data",
					"type": "bytes"
				}
			],
			"name": "safeTransferFrom",
			"outputs": [],
			"stateMutability": "nonpayable",
			"type": "function"
		},
		{
			"inputs": [
				{
					"internalType": "address",
					"name": "operator",
					"type": "address"
				},
				{
					"internalType": "bool",
					"name": "approved",
					"type": "bool"
				}
			],
			"name": "setApprovalForAll",
			"outputs": [],
			"stateMutability": "nonpayable",
			"type": "function"
		},
		{
			"inputs": [
				{
					"internalType": "uint16",
					"name": "_currentYear",
					"type": "uint16"
				}
			],
			"name": "setCurrentYear",
			"outputs": [],
			"stateMutability": "nonpayable",
			"type": "function"
		},
		{
			"inputs": [
				{
					"internalType": "bytes4",
					"name": "interfaceId",
					"type": "bytes4"
				}
			],
			"name": "supportsInterface",
			"outputs": [
				{
					"internalType": "bool",
					"name": "",
					"type": "bool"
				}
			],
			"stateMutability": "view",
			"type": "function"
		},
		{
			"inputs": [],
			"name": "tokenizationContractLink",
			"outputs": [
				{
					"internalType": "string",
					"name": "",
					"type": "string"
				}
			],
			"stateMutability": "view",
			"type": "function"
		},
		{
			"inputs": [
				{
					"components": [
						{
							"internalType": "string",
							"name": "geographicLocation",
							"type": "string"
						},
						{
							"internalType": "string",
							"name": "buyOrSellContractLink",
							"type": "string"
						},
						{
							"internalType": "enum COPF.NegociationType",
							"name": "assetTokenizationType",
							"type": "uint8"
						},
						{
							"internalType": "address",
							"name": "initialOwner",
							"type": "address"
						},
						{
							"internalType": "address",
							"name": "currentTokenOwner",
							"type": "address"
						},
						{
							"internalType": "enum COPF.AssetClassification",
							"name": "class",
							"type": "uint8"
						},
						{
							"internalType": "bool",
							"name": "isCurrentAssetAvailableForTransfer",
							"type": "bool"
						},
						{
							"internalType": "string",
							"name": "assetPropertyRegistration",
							"type": "string"
						}
					],
					"internalType": "struct COPF.Asset",
					"name": "_asset",
					"type": "tuple"
				},
				{
					"internalType": "uint32",
					"name": "_tokenizePercentage",
					"type": "uint32"
				},
				{
					"internalType": "uint8",
					"name": "_correspondingFlorest",
					"type": "uint8"
				}
			],
			"name": "tokenizeAssetInFlorest",
			"outputs": [],
			"stateMutability": "nonpayable",
			"type": "function"
		},
		{
			"inputs": [
				{
					"internalType": "address",
					"name": "newOwner",
					"type": "address"
				}
			],
			"name": "transferOwnership",
			"outputs": [],
			"stateMutability": "nonpayable",
			"type": "function"
		},
		{
			"inputs": [
				{
					"internalType": "uint256",
					"name": "",
					"type": "uint256"
				}
			],
			"name": "uri",
			"outputs": [
				{
					"internalType": "string",
					"name": "",
					"type": "string"
				}
			],
			"stateMutability": "view",
			"type": "function"
		},
		{
			"inputs": [],
			"name": "woodPropertyMaxPotential",
			"outputs": [
				{
					"internalType": "uint32",
					"name": "",
					"type": "uint32"
				}
			],
			"stateMutability": "view",
			"type": "function"
		}
	]
}