{
	"data": {
		"bytecode": {
			"linkReferences": {},
			"object": "60a06040527f9f2df0fed2c77648de5860a4cc508cd0818c85b8b8a1ab4ceeef8d981c8956a66080908152506000600860006101000a81548160ff021916908360ff1602179055506000600860016101000a81548160ff0219169083151502179055503480156200006f57600080fd5b5060405162006141380380620061418339818101604052810190620000959190620010f4565b33866040518060400160405280601e81526020017f4365727469666963617465206f6620506c616e746564466c6f726573747300008152506040518060400160405280600481526020017f434f50460000000000000000000000000000000000000000000000000000000081525081600090805190602001906200011b92919062000f5d565b5080600190805190602001906200013492919062000f5d565b505050620001576200014b6200043560201b60201c565b6200043d60201b60201c565b6200016c6000801b836200050360201b60201c565b62000180608051826200050360201b60201c565b505060096040518061010001604052808773ffffffffffffffffffffffffffffffffffffffff1681526020018660ff166001811115620001c557620001c462001190565b5b6001811115620001da57620001d962001190565b5b81526020018561ffff1681526020018461ffff1681526020018360ff1660018111156200020c576200020b62001190565b5b600181111562000221576200022062001190565b5b8152602001600063ffffffff1681526020016000151581526020018773ffffffffffffffffffffffffffffffffffffffff16815250908060018154018082558091505060019003906000526020600020906002020160009091909190915060008201518160000160006101000a81548173ffffffffffffffffffffffffffffffffffffffff021916908373ffffffffffffffffffffffffffffffffffffffff16021790555060208201518160000160146101000a81548160ff02191690836001811115620002f457620002f362001190565b5b021790555060408201518160000160156101000a81548161ffff021916908361ffff16021790555060608201518160000160176101000a81548161ffff021916908361ffff16021790555060808201518160000160196101000a81548160ff021916908360018111156200036d576200036c62001190565b5b021790555060a082015181600001601a6101000a81548163ffffffff021916908363ffffffff16021790555060c082015181600001601e6101000a81548160ff02191690831515021790555060e08201518160010160006101000a81548173ffffffffffffffffffffffffffffffffffffffff021916908373ffffffffffffffffffffffffffffffffffffffff160217905550505062000415856000620005f560201b60201c565b62000429853360016200083b60201b60201c565b505050505050620017cf565b600033905090565b6000600660009054906101000a900473ffffffffffffffffffffffffffffffffffffffff16905081600660006101000a81548173ffffffffffffffffffffffffffffffffffffffff021916908373ffffffffffffffffffffffffffffffffffffffff1602179055508173ffffffffffffffffffffffffffffffffffffffff168173ffffffffffffffffffffffffffffffffffffffff167f8be0079c531659141344cd1fd0a4f28419497f9722a3daafe3b4186f6b6457e060405160405180910390a35050565b6200051582826200086860201b60201c565b620005f15760016007600084815260200190815260200160002060000160008373ffffffffffffffffffffffffffffffffffffffff1673ffffffffffffffffffffffffffffffffffffffff16815260200190815260200160002060006101000a81548160ff021916908315150217905550620005966200043560201b60201c565b73ffffffffffffffffffffffffffffffffffffffff168173ffffffffffffffffffffffffffffffffffffffff16837f2f8788117e7eff1d82e926ec794901d17c78024a50270940304540a733656f0d60405160405180910390a45b5050565b600073ffffffffffffffffffffffffffffffffffffffff168273ffffffffffffffffffffffffffffffffffffffff160362000667576040517f08c379a00000000000000000000000000000000000000000000000000000000081526004016200065e9062001220565b60405180910390fd5b6200067881620008d360201b60201c565b15620006bb576040517f08c379a0000000000000000000000000000000000000000000000000000000008152600401620006b29062001292565b60405180910390fd5b620006d16000838360016200091c60201b60201c565b620006e281620008d360201b60201c565b1562000725576040517f08c379a00000000000000000000000000000000000000000000000000000000081526004016200071c9062001292565b60405180910390fd5b6001600360008473ffffffffffffffffffffffffffffffffffffffff1673ffffffffffffffffffffffffffffffffffffffff16815260200190815260200160002060008282540192505081905550816002600083815260200190815260200160002060006101000a81548173ffffffffffffffffffffffffffffffffffffffff021916908373ffffffffffffffffffffffffffffffffffffffff160217905550808273ffffffffffffffffffffffffffffffffffffffff16600073ffffffffffffffffffffffffffffffffffffffff167fddf252ad1be2c89b69c2b068fc378daa952ba7f163c4a11628f55a4df523b3ef60405160405180910390a46200083760008383600162000a4960201b60201c565b5050565b6080516200084f8162000a4f60201b60201c565b6200086284848462000a7360201b60201c565b50505050565b60006007600084815260200190815260200160002060000160008373ffffffffffffffffffffffffffffffffffffffff1673ffffffffffffffffffffffffffffffffffffffff16815260200190815260200160002060009054906101000a900460ff16905092915050565b60008073ffffffffffffffffffffffffffffffffffffffff16620008fd8362000be460201b60201c565b73ffffffffffffffffffffffffffffffffffffffff1614159050919050565b600181111562000a4357600073ffffffffffffffffffffffffffffffffffffffff168473ffffffffffffffffffffffffffffffffffffffff1614620009b45780600360008673ffffffffffffffffffffffffffffffffffffffff1673ffffffffffffffffffffffffffffffffffffffff1681526020019081526020016000206000828254620009ac9190620012ed565b925050819055505b600073ffffffffffffffffffffffffffffffffffffffff168373ffffffffffffffffffffffffffffffffffffffff161462000a425780600360008573ffffffffffffffffffffffffffffffffffffffff1673ffffffffffffffffffffffffffffffffffffffff168152602001908152602001600020600082825462000a3a919062001328565b925050819055505b5b50505050565b50505050565b62000a708162000a646200043560201b60201c565b62000c2160201b60201c565b50565b8173ffffffffffffffffffffffffffffffffffffffff168373ffffffffffffffffffffffffffffffffffffffff160362000ae4576040517f08c379a000000000000000000000000000000000000000000000000000000000815260040162000adb90620013d5565b60405180910390fd5b80600560008573ffffffffffffffffffffffffffffffffffffffff1673ffffffffffffffffffffffffffffffffffffffff16815260200190815260200160002060008473ffffffffffffffffffffffffffffffffffffffff1673ffffffffffffffffffffffffffffffffffffffff16815260200190815260200160002060006101000a81548160ff0219169083151502179055508173ffffffffffffffffffffffffffffffffffffffff168373ffffffffffffffffffffffffffffffffffffffff167f17307eab39ab6107e8899845ad3d59bd9653f200f220920489ca2b5937696c318360405162000bd7919062001414565b60405180910390a3505050565b60006002600083815260200190815260200160002060009054906101000a900473ffffffffffffffffffffffffffffffffffffffff169050919050565b62000c3382826200086860201b60201c565b62000cc95762000c4e8162000ccd60201b6200186d1760201c565b62000c698360001c602062000d0260201b6200189a1760201c565b60405160200162000c7c92919062001554565b6040516020818303038152906040526040517f08c379a000000000000000000000000000000000000000000000000000000000815260040162000cc09190620015e8565b60405180910390fd5b5050565b606062000cfb8273ffffffffffffffffffffffffffffffffffffffff16601460ff1662000d0260201b60201c565b9050919050565b60606000600283600262000d1791906200160c565b62000d23919062001328565b67ffffffffffffffff81111562000d3f5762000d3e6200166d565b5b6040519080825280601f01601f19166020018201604052801562000d725781602001600182028036833780820191505090505b5090507f30000000000000000000000000000000000000000000000000000000000000008160008151811062000dad5762000dac6200169c565b5b60200101907effffffffffffffffffffffffffffffffffffffffffffffffffffffffffffff1916908160001a9053507f78000000000000000000000000000000000000000000000000000000000000008160018151811062000e145762000e136200169c565b5b60200101907effffffffffffffffffffffffffffffffffffffffffffffffffffffffffffff1916908160001a9053506000600184600262000e5691906200160c565b62000e62919062001328565b90505b600181111562000f0c577f3031323334353637383961626364656600000000000000000000000000000000600f86166010811062000ea85762000ea76200169c565b5b1a60f81b82828151811062000ec25762000ec16200169c565b5b60200101907effffffffffffffffffffffffffffffffffffffffffffffffffffffffffffff1916908160001a905350600485901c94508062000f0490620016cb565b905062000e65565b506000841462000f53576040517f08c379a000000000000000000000000000000000000000000000000000000000815260040162000f4a9062001749565b60405180910390fd5b8091505092915050565b82805462000f6b906200179a565b90600052602060002090601f01602090048101928262000f8f576000855562000fdb565b82601f1062000faa57805160ff191683800117855562000fdb565b8280016001018555821562000fdb579182015b8281111562000fda57825182559160200191906001019062000fbd565b5b50905062000fea919062000fee565b5090565b5b808211156200100957600081600090555060010162000fef565b5090565b600080fd5b600073ffffffffffffffffffffffffffffffffffffffff82169050919050565b60006200103f8262001012565b9050919050565b620010518162001032565b81146200105d57600080fd5b50565b600081519050620010718162001046565b92915050565b600060ff82169050919050565b6200108f8162001077565b81146200109b57600080fd5b50565b600081519050620010af8162001084565b92915050565b600061ffff82169050919050565b620010ce81620010b5565b8114620010da57600080fd5b50565b600081519050620010ee81620010c3565b92915050565b60008060008060008060c087890312156200111457620011136200100d565b5b60006200112489828a0162001060565b96505060206200113789828a0162001060565b95505060406200114a89828a016200109e565b94505060606200115d89828a01620010dd565b93505060806200117089828a01620010dd565b92505060a06200118389828a016200109e565b9150509295509295509295565b7f4e487b7100000000000000000000000000000000000000000000000000000000600052602160045260246000fd5b600082825260208201905092915050565b7f4552433732313a206d696e7420746f20746865207a65726f2061646472657373600082015250565b600062001208602083620011bf565b91506200121582620011d0565b602082019050919050565b600060208201905081810360008301526200123b81620011f9565b9050919050565b7f4552433732313a20746f6b656e20616c7265616479206d696e74656400000000600082015250565b60006200127a601c83620011bf565b9150620012878262001242565b602082019050919050565b60006020820190508181036000830152620012ad816200126b565b9050919050565b6000819050919050565b7f4e487b7100000000000000000000000000000000000000000000000000000000600052601160045260246000fd5b6000620012fa82620012b4565b91506200130783620012b4565b9250828210156200131d576200131c620012be565b5b828203905092915050565b60006200133582620012b4565b91506200134283620012b4565b9250827fffffffffffffffffffffffffffffffffffffffffffffffffffffffffffffffff038211156200137a5762001379620012be565b5b828201905092915050565b7f4552433732313a20617070726f766520746f2063616c6c657200000000000000600082015250565b6000620013bd601983620011bf565b9150620013ca8262001385565b602082019050919050565b60006020820190508181036000830152620013f081620013ae565b9050919050565b60008115159050919050565b6200140e81620013f7565b82525050565b60006020820190506200142b600083018462001403565b92915050565b600081905092915050565b7f416363657373436f6e74726f6c3a206163636f756e7420000000000000000000600082015250565b60006200147460178362001431565b915062001481826200143c565b601782019050919050565b600081519050919050565b60005b83811015620014b75780820151818401526020810190506200149a565b83811115620014c7576000848401525b50505050565b6000620014da826200148c565b620014e6818562001431565b9350620014f881856020860162001497565b80840191505092915050565b7f206973206d697373696e6720726f6c6520000000000000000000000000000000600082015250565b60006200153c60118362001431565b9150620015498262001504565b601182019050919050565b6000620015618262001465565b91506200156f8285620014cd565b91506200157c826200152d565b91506200158a8284620014cd565b91508190509392505050565b6000601f19601f8301169050919050565b6000620015b4826200148c565b620015c08185620011bf565b9350620015d281856020860162001497565b620015dd8162001596565b840191505092915050565b60006020820190508181036000830152620016048184620015a7565b905092915050565b60006200161982620012b4565b91506200162683620012b4565b9250817fffffffffffffffffffffffffffffffffffffffffffffffffffffffffffffffff0483118215151615620016625762001661620012be565b5b828202905092915050565b7f4e487b7100000000000000000000000000000000000000000000000000000000600052604160045260246000fd5b7f4e487b7100000000000000000000000000000000000000000000000000000000600052603260045260246000fd5b6000620016d882620012b4565b915060008203620016ee57620016ed620012be565b5b600182039050919050565b7f537472696e67733a20686578206c656e67746820696e73756666696369656e74600082015250565b600062001731602083620011bf565b91506200173e82620016f9565b602082019050919050565b60006020820190508181036000830152620017648162001722565b9050919050565b7f4e487b7100000000000000000000000000000000000000000000000000000000600052602260045260246000fd5b60006002820490506001821680620017b357607f821691505b602082108103620017c957620017c86200176b565b5b50919050565b60805161493a6200180760003960008181610bd90152818161103d0152818161164b015281816116920152612877015261493a6000f3fe608060405234801561001057600080fd5b506004361061021c5760003560e01c806395d89b4111610125578063caca36e1116100ad578063d547741f1161007c578063d547741f14610654578063e79eee5e14610670578063e985e9c5146106a0578063f2fde38b146106d0578063fe9ef85f146106ec5761021c565b8063caca36e1146105c5578063ce41607a146105e1578063cf35bdd0146105ff578063d5391393146106365761021c565b8063aeaf9020116100f4578063aeaf902014610511578063b19b5b4c14610541578063b88d4fde1461055d578063c0b1c62714610579578063c87b56dd146105955761021c565b806395d89b411461049d5780639cff6832146104bb578063a217fddf146104d7578063a22cb465146104f55761021c565b80633fe3347a116101a857806370a082311161017757806370a08231146103e5578063715018a61461041557806387fec7751461041f5780638da5cb5b1461044f57806391d148541461046d5761021c565b80633fe3347a1461035d57806342842e0e1461037b57806344de240a146103975780636352211e146103b55761021c565b8063219a1d77116101ef578063219a1d77146102bb57806323b872dd146102d9578063248a9ca3146102f55780632f2ff15d1461032557806336568abe146103415761021c565b806301ffc9a71461022157806306fdde0314610251578063081812fc1461026f578063095ea7b31461029f575b600080fd5b61023b6004803603810190610236919061307b565b61070a565b60405161024891906130c3565b60405180910390f35b61025961071c565b6040516102669190613177565b60405180910390f35b610289600480360381019061028491906131cf565b6107ae565b604051610296919061323d565b60405180910390f35b6102b960048036038101906102b49190613284565b6107f4565b005b6102c361090b565b6040516102d0919061323d565b60405180910390f35b6102f360048036038101906102ee91906132c4565b61091a565b005b61030f600480360381019061030a919061334d565b61097a565b60405161031c9190613389565b60405180910390f35b61033f600480360381019061033a91906133a4565b61099a565b005b61035b600480360381019061035691906133a4565b6109bb565b005b610365610a3e565b604051610372919061345b565b60405180910390f35b610395600480360381019061039091906132c4565b610a51565b005b61039f610a71565b6040516103ac9190613492565b60405180910390f35b6103cf60048036038101906103ca91906131cf565b610a84565b6040516103dc919061323d565b60405180910390f35b6103ff60048036038101906103fa91906134ad565b610b0a565b60405161040c91906134e9565b60405180910390f35b61041d610bc1565b005b6104396004803603810190610434919061355c565b610bd5565b60405161044691906130c3565b60405180910390f35b610457610c80565b604051610464919061323d565b60405180910390f35b610487600480360381019061048291906133a4565b610caa565b60405161049491906130c3565b60405180910390f35b6104a5610d15565b6040516104b29190613177565b60405180910390f35b6104d560048036038101906104d091906134ad565b610da7565b005b6104df610dbb565b6040516104ec9190613389565b60405180910390f35b61050f600480360381019061050a919061359c565b610dc2565b005b61052b600480360381019061052691906135dc565b610dd8565b60405161053891906130c3565b60405180910390f35b61055b60048036038101906105569190613609565b610e22565b005b6105776004803603810190610572919061377e565b610fd9565b005b610593600480360381019061058e91906138c1565b61103b565b005b6105af60048036038101906105aa91906131cf565b611301565b6040516105bc9190613177565b60405180910390f35b6105df60048036038101906105da9190613609565b611369565b005b6105e9611535565b6040516105f691906134e9565b60405180910390f35b610619600480360381019061061491906131cf565b61155e565b60405161062d9897969594939291906139b4565b60405180910390f35b61063e611649565b60405161064b9190613389565b60405180910390f35b61066e600480360381019061066991906133a4565b61166d565b005b61068a60048036038101906106859190613a32565b61168e565b6040516106979190613a72565b60405180910390f35b6106ba60048036038101906106b59190613a8d565b611743565b6040516106c791906130c3565b60405180910390f35b6106ea60048036038101906106e591906134ad565b6117d7565b005b6106f461185a565b6040516107019190613acd565b60405180910390f35b600061071582611ad6565b9050919050565b60606000805461072b90613b17565b80601f016020809104026020016040519081016040528092919081815260200182805461075790613b17565b80156107a45780601f10610779576101008083540402835291602001916107a4565b820191906000526020600020905b81548152906001019060200180831161078757829003601f168201915b5050505050905090565b60006107b982611b50565b6004600083815260200190815260200160002060009054906101000a900473ffffffffffffffffffffffffffffffffffffffff169050919050565b60006107ff82610a84565b90508073ffffffffffffffffffffffffffffffffffffffff168373ffffffffffffffffffffffffffffffffffffffff160361086f576040517f08c379a000000000000000000000000000000000000000000000000000000000815260040161086690613bba565b60405180910390fd5b8073ffffffffffffffffffffffffffffffffffffffff1661088e611b9b565b73ffffffffffffffffffffffffffffffffffffffff1614806108bd57506108bc816108b7611b9b565b611743565b5b6108fc576040517f08c379a00000000000000000000000000000000000000000000000000000000081526004016108f390613c4c565b60405180910390fd5b6109068383611ba3565b505050565b6000610915610c80565b905090565b61092b610925611b9b565b82611c5c565b61096a576040517f08c379a000000000000000000000000000000000000000000000000000000000815260040161096190613cde565b60405180910390fd5b610975838383611cf1565b505050565b600060076000838152602001908152602001600020600101549050919050565b6109a38261097a565b6109ac81611fea565b6109b68383611ffe565b505050565b6109c3611b9b565b73ffffffffffffffffffffffffffffffffffffffff168173ffffffffffffffffffffffffffffffffffffffff1614610a30576040517f08c379a0000000000000000000000000000000000000000000000000000000008152600401610a2790613d70565b60405180910390fd5b610a3a82826120df565b5050565b600860029054906101000a900460ff1681565b610a6c83838360405180602001604052806000815250610fd9565b505050565b600860009054906101000a900460ff1681565b600080610a90836121c1565b9050600073ffffffffffffffffffffffffffffffffffffffff168173ffffffffffffffffffffffffffffffffffffffff1603610b01576040517f08c379a0000000000000000000000000000000000000000000000000000000008152600401610af890613ddc565b60405180910390fd5b80915050919050565b60008073ffffffffffffffffffffffffffffffffffffffff168273ffffffffffffffffffffffffffffffffffffffff1603610b7a576040517f08c379a0000000000000000000000000000000000000000000000000000000008152600401610b7190613e6e565b60405180910390fd5b600360008373ffffffffffffffffffffffffffffffffffffffff1673ffffffffffffffffffffffffffffffffffffffff168152602001908152602001600020549050919050565b610bc96121fe565b610bd3600061227c565b565b60007f0000000000000000000000000000000000000000000000000000000000000000610c0181611fea565b8260098560ff1681548110610c1957610c18613e8e565b5b9060005260206000209060020201600001601e6101000a81548160ff02191690831515021790555060098460ff1681548110610c5857610c57613e8e565b5b9060005260206000209060020201600001601e9054906101000a900460ff1691505092915050565b6000600660009054906101000a900473ffffffffffffffffffffffffffffffffffffffff16905090565b60006007600084815260200190815260200160002060000160008373ffffffffffffffffffffffffffffffffffffffff1673ffffffffffffffffffffffffffffffffffffffff16815260200190815260200160002060009054906101000a900460ff16905092915050565b606060018054610d2490613b17565b80601f0160208091040260200160405190810160405280929190818152602001828054610d5090613b17565b8015610d9d5780601f10610d7257610100808354040283529160200191610d9d565b820191906000526020600020905b815481529060010190602001808311610d8057829003601f168201915b5050505050905090565b610daf6121fe565b610db8816117d7565b50565b6000801b81565b610dd4610dcd611b9b565b8383612342565b5050565b60008060098360ff1681548110610df257610df1613e8e565b5b9060005260206000209060020201600001601a9054906101000a900463ffffffff1663ffffffff16149050919050565b818160098260ff1681548110610e3b57610e3a613e8e565b5b906000526020600020906002020160000160009054906101000a900473ffffffffffffffffffffffffffffffffffffffff1673ffffffffffffffffffffffffffffffffffffffff168173ffffffffffffffffffffffffffffffffffffffff1614610eda576040517f08c379a0000000000000000000000000000000000000000000000000000000008152600401610ed190613f2f565b60405180910390fd5b8360098160ff1681548110610ef257610ef1613e8e565b5b906000526020600020906002020160000160179054906101000a900461ffff1661ffff163073ffffffffffffffffffffffffffffffffffffffff1663ce41607a6040518163ffffffff1660e01b8152600401602060405180830381865afa158015610f61573d6000803e3d6000fd5b505050506040513d601f19601f82011682018060405250810190610f859190613f64565b1115610fc6576040517f08c379a0000000000000000000000000000000000000000000000000000000008152600401610fbd90613fdd565b60405180910390fd5b610fd28560ff166124ae565b5050505050565b610fea610fe4611b9b565b83611c5c565b611029576040517f08c379a000000000000000000000000000000000000000000000000000000000815260040161102090613cde565b60405180910390fd5b611035848484846125fc565b50505050565b7f000000000000000000000000000000000000000000000000000000000000000061106581611fea565b60006008600081819054906101000a900460ff166110829061402c565b91906101000a81548160ff021916908360ff1602179055905060096040518061010001604052808a73ffffffffffffffffffffffffffffffffffffffff1681526020018960018111156110d8576110d76133e4565b5b81526020018861ffff1681526020018761ffff168152602001866001811115611104576111036133e4565b5b81526020018563ffffffff1681526020016000151581526020018a73ffffffffffffffffffffffffffffffffffffffff16815250908060018154018082558091505060019003906000526020600020906002020160009091909190915060008201518160000160006101000a81548173ffffffffffffffffffffffffffffffffffffffff021916908373ffffffffffffffffffffffffffffffffffffffff16021790555060208201518160000160146101000a81548160ff021916908360018111156111d3576111d26133e4565b5b021790555060408201518160000160156101000a81548161ffff021916908361ffff16021790555060608201518160000160176101000a81548161ffff021916908361ffff16021790555060808201518160000160196101000a81548160ff02191690836001811115611249576112486133e4565b5b021790555060a082015181600001601a6101000a81548163ffffffff021916908363ffffffff16021790555060c082015181600001601e6101000a81548160ff02191690831515021790555060e08201518160010160006101000a81548173ffffffffffffffffffffffffffffffffffffffff021916908373ffffffffffffffffffffffffffffffffffffffff16021790555050506112eb888260ff16612658565b6112f788336001612875565b5050505050505050565b606061130c82611b50565b60006113166128b0565b905060008151116113365760405180602001604052806000815250611361565b80611340846128c7565b604051602001611351929190614091565b6040516020818303038152906040525b915050919050565b61137282612995565b6113b1576040517f08c379a00000000000000000000000000000000000000000000000000000000081526004016113a890614127565b60405180910390fd5b600060098360ff16815481106113ca576113c9613e8e565b5b906000526020600020906002020160010160009054906101000a900473ffffffffffffffffffffffffffffffffffffffff16905061140a81336001612875565b61141881838560ff16610a51565b8160098460ff16815481106114305761142f613e8e565b5b906000526020600020906002020160010160006101000a81548173ffffffffffffffffffffffffffffffffffffffff021916908373ffffffffffffffffffffffffffffffffffffffff1602179055507f2e72e059585d8687c8e378e3c55bdd48912ea1dcbb4b26e097af901e297ad28583838473ffffffffffffffffffffffffffffffffffffffff1660098760ff16815481106114d0576114cf613e8e565b5b906000526020600020906002020160010160009054906101000a900473ffffffffffffffffffffffffffffffffffffffff1673ffffffffffffffffffffffffffffffffffffffff161460405161152893929190614147565b60405180910390a1505050565b6000806107b26301e187e04261154b91906141ad565b61155591906141de565b90508091505090565b6009818154811061156e57600080fd5b90600052602060002090600202016000915090508060000160009054906101000a900473ffffffffffffffffffffffffffffffffffffffff16908060000160149054906101000a900460ff16908060000160159054906101000a900461ffff16908060000160179054906101000a900461ffff16908060000160199054906101000a900460ff169080600001601a9054906101000a900463ffffffff169080600001601e9054906101000a900460ff16908060010160009054906101000a900473ffffffffffffffffffffffffffffffffffffffff16905088565b7f000000000000000000000000000000000000000000000000000000000000000081565b6116768261097a565b61167f81611fea565b61168983836120df565b505050565b60007f00000000000000000000000000000000000000000000000000000000000000006116ba81611fea565b8260098560ff16815481106116d2576116d1613e8e565b5b9060005260206000209060020201600001601a6101000a81548163ffffffff021916908363ffffffff16021790555060098460ff168154811061171857611717613e8e565b5b9060005260206000209060020201600001601a9054906101000a900463ffffffff1691505092915050565b6000600560008473ffffffffffffffffffffffffffffffffffffffff1673ffffffffffffffffffffffffffffffffffffffff16815260200190815260200160002060008373ffffffffffffffffffffffffffffffffffffffff1673ffffffffffffffffffffffffffffffffffffffff16815260200190815260200160002060009054906101000a900460ff16905092915050565b6117df6121fe565b600073ffffffffffffffffffffffffffffffffffffffff168173ffffffffffffffffffffffffffffffffffffffff160361184e576040517f08c379a0000000000000000000000000000000000000000000000000000000008152600401611845906142a6565b60405180910390fd5b6118578161227c565b50565b600860039054906101000a900460ff1681565b60606118938273ffffffffffffffffffffffffffffffffffffffff16601460ff1661189a565b9050919050565b6060600060028360026118ad91906142c6565b6118b791906141de565b67ffffffffffffffff8111156118d0576118cf613653565b5b6040519080825280601f01601f1916602001820160405280156119025781602001600182028036833780820191505090505b5090507f30000000000000000000000000000000000000000000000000000000000000008160008151811061193a57611939613e8e565b5b60200101907effffffffffffffffffffffffffffffffffffffffffffffffffffffffffffff1916908160001a9053507f78000000000000000000000000000000000000000000000000000000000000008160018151811061199e5761199d613e8e565b5b60200101907effffffffffffffffffffffffffffffffffffffffffffffffffffffffffffff1916908160001a905350600060018460026119de91906142c6565b6119e891906141de565b90505b6001811115611a88577f3031323334353637383961626364656600000000000000000000000000000000600f861660108110611a2a57611a29613e8e565b5b1a60f81b828281518110611a4157611a40613e8e565b5b60200101907effffffffffffffffffffffffffffffffffffffffffffffffffffffffffffff1916908160001a905350600485901c945080611a8190614320565b90506119eb565b5060008414611acc576040517f08c379a0000000000000000000000000000000000000000000000000000000008152600401611ac390614395565b60405180910390fd5b8091505092915050565b60007f7965db0b000000000000000000000000000000000000000000000000000000007bffffffffffffffffffffffffffffffffffffffffffffffffffffffff1916827bffffffffffffffffffffffffffffffffffffffffffffffffffffffff19161480611b495750611b48826129d4565b5b9050919050565b611b5981612ab6565b611b98576040517f08c379a0000000000000000000000000000000000000000000000000000000008152600401611b8f90613ddc565b60405180910390fd5b50565b600033905090565b816004600083815260200190815260200160002060006101000a81548173ffffffffffffffffffffffffffffffffffffffff021916908373ffffffffffffffffffffffffffffffffffffffff160217905550808273ffffffffffffffffffffffffffffffffffffffff16611c1683610a84565b73ffffffffffffffffffffffffffffffffffffffff167f8c5be1e5ebec7d5bd14f71427d1e84f3dd0314c0f7b2291e5b200ac8c7c3b92560405160405180910390a45050565b600080611c6883610a84565b90508073ffffffffffffffffffffffffffffffffffffffff168473ffffffffffffffffffffffffffffffffffffffff161480611caa5750611ca98185611743565b5b80611ce857508373ffffffffffffffffffffffffffffffffffffffff16611cd0846107ae565b73ffffffffffffffffffffffffffffffffffffffff16145b91505092915050565b8273ffffffffffffffffffffffffffffffffffffffff16611d1182610a84565b73ffffffffffffffffffffffffffffffffffffffff1614611d67576040517f08c379a0000000000000000000000000000000000000000000000000000000008152600401611d5e90614427565b60405180910390fd5b600073ffffffffffffffffffffffffffffffffffffffff168273ffffffffffffffffffffffffffffffffffffffff1603611dd6576040517f08c379a0000000000000000000000000000000000000000000000000000000008152600401611dcd906144b9565b60405180910390fd5b611de38383836001612af7565b8273ffffffffffffffffffffffffffffffffffffffff16611e0382610a84565b73ffffffffffffffffffffffffffffffffffffffff1614611e59576040517f08c379a0000000000000000000000000000000000000000000000000000000008152600401611e5090614427565b60405180910390fd5b6004600082815260200190815260200160002060006101000a81549073ffffffffffffffffffffffffffffffffffffffff02191690556001600360008573ffffffffffffffffffffffffffffffffffffffff1673ffffffffffffffffffffffffffffffffffffffff168152602001908152602001600020600082825403925050819055506001600360008473ffffffffffffffffffffffffffffffffffffffff1673ffffffffffffffffffffffffffffffffffffffff16815260200190815260200160002060008282540192505081905550816002600083815260200190815260200160002060006101000a81548173ffffffffffffffffffffffffffffffffffffffff021916908373ffffffffffffffffffffffffffffffffffffffff160217905550808273ffffffffffffffffffffffffffffffffffffffff168473ffffffffffffffffffffffffffffffffffffffff167fddf252ad1be2c89b69c2b068fc378daa952ba7f163c4a11628f55a4df523b3ef60405160405180910390a4611fe58383836001612c1d565b505050565b611ffb81611ff6611b9b565b612c23565b50565b6120088282610caa565b6120db5760016007600084815260200190815260200160002060000160008373ffffffffffffffffffffffffffffffffffffffff1673ffffffffffffffffffffffffffffffffffffffff16815260200190815260200160002060006101000a81548160ff021916908315150217905550612080611b9b565b73ffffffffffffffffffffffffffffffffffffffff168173ffffffffffffffffffffffffffffffffffffffff16837f2f8788117e7eff1d82e926ec794901d17c78024a50270940304540a733656f0d60405160405180910390a45b5050565b6120e98282610caa565b156121bd5760006007600084815260200190815260200160002060000160008373ffffffffffffffffffffffffffffffffffffffff1673ffffffffffffffffffffffffffffffffffffffff16815260200190815260200160002060006101000a81548160ff021916908315150217905550612162611b9b565b73ffffffffffffffffffffffffffffffffffffffff168173ffffffffffffffffffffffffffffffffffffffff16837ff6391f5c32d9c69d2a47ea670b442974b53935d1edc7fd64eb21e047a839171b60405160405180910390a45b5050565b60006002600083815260200190815260200160002060009054906101000a900473ffffffffffffffffffffffffffffffffffffffff169050919050565b612206611b9b565b73ffffffffffffffffffffffffffffffffffffffff16612224610c80565b73ffffffffffffffffffffffffffffffffffffffff161461227a576040517f08c379a000000000000000000000000000000000000000000000000000000000815260040161227190614525565b60405180910390fd5b565b6000600660009054906101000a900473ffffffffffffffffffffffffffffffffffffffff16905081600660006101000a81548173ffffffffffffffffffffffffffffffffffffffff021916908373ffffffffffffffffffffffffffffffffffffffff1602179055508173ffffffffffffffffffffffffffffffffffffffff168173ffffffffffffffffffffffffffffffffffffffff167f8be0079c531659141344cd1fd0a4f28419497f9722a3daafe3b4186f6b6457e060405160405180910390a35050565b8173ffffffffffffffffffffffffffffffffffffffff168373ffffffffffffffffffffffffffffffffffffffff16036123b0576040517f08c379a00000000000000000000000000000000000000000000000000000000081526004016123a790614591565b60405180910390fd5b80600560008573ffffffffffffffffffffffffffffffffffffffff1673ffffffffffffffffffffffffffffffffffffffff16815260200190815260200160002060008473ffffffffffffffffffffffffffffffffffffffff1673ffffffffffffffffffffffffffffffffffffffff16815260200190815260200160002060006101000a81548160ff0219169083151502179055508173ffffffffffffffffffffffffffffffffffffffff168373ffffffffffffffffffffffffffffffffffffffff167f17307eab39ab6107e8899845ad3d59bd9653f200f220920489ca2b5937696c31836040516124a191906130c3565b60405180910390a3505050565b60006124b982610a84565b90506124c9816000846001612af7565b6124d282610a84565b90506004600083815260200190815260200160002060006101000a81549073ffffffffffffffffffffffffffffffffffffffff02191690556001600360008373ffffffffffffffffffffffffffffffffffffffff1673ffffffffffffffffffffffffffffffffffffffff168152602001908152602001600020600082825403925050819055506002600083815260200190815260200160002060006101000a81549073ffffffffffffffffffffffffffffffffffffffff021916905581600073ffffffffffffffffffffffffffffffffffffffff168273ffffffffffffffffffffffffffffffffffffffff167fddf252ad1be2c89b69c2b068fc378daa952ba7f163c4a11628f55a4df523b3ef60405160405180910390a46125f8816000846001612c1d565b5050565b612607848484611cf1565b61261384848484612ca8565b612652576040517f08c379a000000000000000000000000000000000000000000000000000000000815260040161264990614623565b60405180910390fd5b50505050565b600073ffffffffffffffffffffffffffffffffffffffff168273ffffffffffffffffffffffffffffffffffffffff16036126c7576040517f08c379a00000000000000000000000000000000000000000000000000000000081526004016126be9061468f565b60405180910390fd5b6126d081612ab6565b15612710576040517f08c379a0000000000000000000000000000000000000000000000000000000008152600401612707906146fb565b60405180910390fd5b61271e600083836001612af7565b61272781612ab6565b15612767576040517f08c379a000000000000000000000000000000000000000000000000000000000815260040161275e906146fb565b60405180910390fd5b6001600360008473ffffffffffffffffffffffffffffffffffffffff1673ffffffffffffffffffffffffffffffffffffffff16815260200190815260200160002060008282540192505081905550816002600083815260200190815260200160002060006101000a81548173ffffffffffffffffffffffffffffffffffffffff021916908373ffffffffffffffffffffffffffffffffffffffff160217905550808273ffffffffffffffffffffffffffffffffffffffff16600073ffffffffffffffffffffffffffffffffffffffff167fddf252ad1be2c89b69c2b068fc378daa952ba7f163c4a11628f55a4df523b3ef60405160405180910390a4612871600083836001612c1d565b5050565b7f000000000000000000000000000000000000000000000000000000000000000061289f81611fea565b6128aa848484612342565b50505050565b606060405180602001604052806000815250905090565b6060600060016128d684612e2f565b01905060008167ffffffffffffffff8111156128f5576128f4613653565b5b6040519080825280601f01601f1916602001820160405280156129275781602001600182028036833780820191505090505b509050600082602001820190505b60011561298a578080600190039150507f3031323334353637383961626364656600000000000000000000000000000000600a86061a8153600a858161297e5761297d61417e565b5b04945060008503612935575b819350505050919050565b600060098260ff16815481106129ae576129ad613e8e565b5b9060005260206000209060020201600001601e9054906101000a900460ff169050919050565b60007f80ac58cd000000000000000000000000000000000000000000000000000000007bffffffffffffffffffffffffffffffffffffffffffffffffffffffff1916827bffffffffffffffffffffffffffffffffffffffffffffffffffffffff19161480612a9f57507f5b5e139f000000000000000000000000000000000000000000000000000000007bffffffffffffffffffffffffffffffffffffffffffffffffffffffff1916827bffffffffffffffffffffffffffffffffffffffffffffffffffffffff1916145b80612aaf5750612aae82612f82565b5b9050919050565b60008073ffffffffffffffffffffffffffffffffffffffff16612ad8836121c1565b73ffffffffffffffffffffffffffffffffffffffff1614159050919050565b6001811115612c1757600073ffffffffffffffffffffffffffffffffffffffff168473ffffffffffffffffffffffffffffffffffffffff1614612b8b5780600360008673ffffffffffffffffffffffffffffffffffffffff1673ffffffffffffffffffffffffffffffffffffffff1681526020019081526020016000206000828254612b83919061471b565b925050819055505b600073ffffffffffffffffffffffffffffffffffffffff168373ffffffffffffffffffffffffffffffffffffffff1614612c165780600360008573ffffffffffffffffffffffffffffffffffffffff1673ffffffffffffffffffffffffffffffffffffffff1681526020019081526020016000206000828254612c0e91906141de565b925050819055505b5b50505050565b50505050565b612c2d8282610caa565b612ca457612c3a8161186d565b612c488360001c602061189a565b604051602001612c599291906147e7565b6040516020818303038152906040526040517f08c379a0000000000000000000000000000000000000000000000000000000008152600401612c9b9190613177565b60405180910390fd5b5050565b6000612cc98473ffffffffffffffffffffffffffffffffffffffff16612fec565b15612e22578373ffffffffffffffffffffffffffffffffffffffff1663150b7a02612cf2611b9b565b8786866040518563ffffffff1660e01b8152600401612d149493929190614876565b6020604051808303816000875af1925050508015612d5057506040513d601f19601f82011682018060405250810190612d4d91906148d7565b60015b612dd2573d8060008114612d80576040519150601f19603f3d011682016040523d82523d6000602084013e612d85565b606091505b506000815103612dca576040517f08c379a0000000000000000000000000000000000000000000000000000000008152600401612dc190614623565b60405180910390fd5b805181602001fd5b63150b7a0260e01b7bffffffffffffffffffffffffffffffffffffffffffffffffffffffff1916817bffffffffffffffffffffffffffffffffffffffffffffffffffffffff191614915050612e27565b600190505b949350505050565b600080600090507a184f03e93ff9f4daa797ed6e38ed64bf6a1f0100000000000000008310612e8d577a184f03e93ff9f4daa797ed6e38ed64bf6a1f0100000000000000008381612e8357612e8261417e565b5b0492506040810190505b6d04ee2d6d415b85acef81000000008310612eca576d04ee2d6d415b85acef81000000008381612ec057612ebf61417e565b5b0492506020810190505b662386f26fc100008310612ef957662386f26fc100008381612eef57612eee61417e565b5b0492506010810190505b6305f5e1008310612f22576305f5e1008381612f1857612f1761417e565b5b0492506008810190505b6127108310612f47576127108381612f3d57612f3c61417e565b5b0492506004810190505b60648310612f6a5760648381612f6057612f5f61417e565b5b0492506002810190505b600a8310612f79576001810190505b80915050919050565b60007f01ffc9a7000000000000000000000000000000000000000000000000000000007bffffffffffffffffffffffffffffffffffffffffffffffffffffffff1916827bffffffffffffffffffffffffffffffffffffffffffffffffffffffff1916149050919050565b6000808273ffffffffffffffffffffffffffffffffffffffff163b119050919050565b6000604051905090565b600080fd5b600080fd5b60007fffffffff0000000000000000000000000000000000000000000000000000000082169050919050565b61305881613023565b811461306357600080fd5b50565b6000813590506130758161304f565b92915050565b60006020828403121561309157613090613019565b5b600061309f84828501613066565b91505092915050565b60008115159050919050565b6130bd816130a8565b82525050565b60006020820190506130d860008301846130b4565b92915050565b600081519050919050565b600082825260208201905092915050565b60005b838110156131185780820151818401526020810190506130fd565b83811115613127576000848401525b50505050565b6000601f19601f8301169050919050565b6000613149826130de565b61315381856130e9565b93506131638185602086016130fa565b61316c8161312d565b840191505092915050565b60006020820190508181036000830152613191818461313e565b905092915050565b6000819050919050565b6131ac81613199565b81146131b757600080fd5b50565b6000813590506131c9816131a3565b92915050565b6000602082840312156131e5576131e4613019565b5b60006131f3848285016131ba565b91505092915050565b600073ffffffffffffffffffffffffffffffffffffffff82169050919050565b6000613227826131fc565b9050919050565b6132378161321c565b82525050565b6000602082019050613252600083018461322e565b92915050565b6132618161321c565b811461326c57600080fd5b50565b60008135905061327e81613258565b92915050565b6000806040838503121561329b5761329a613019565b5b60006132a98582860161326f565b92505060206132ba858286016131ba565b9150509250929050565b6000806000606084860312156132dd576132dc613019565b5b60006132eb8682870161326f565b93505060206132fc8682870161326f565b925050604061330d868287016131ba565b9150509250925092565b6000819050919050565b61332a81613317565b811461333557600080fd5b50565b60008135905061334781613321565b92915050565b60006020828403121561336357613362613019565b5b600061337184828501613338565b91505092915050565b61338381613317565b82525050565b600060208201905061339e600083018461337a565b92915050565b600080604083850312156133bb576133ba613019565b5b60006133c985828601613338565b92505060206133da8582860161326f565b9150509250929050565b7f4e487b7100000000000000000000000000000000000000000000000000000000600052602160045260246000fd5b60028110613424576134236133e4565b5b50565b600081905061343582613413565b919050565b600061344582613427565b9050919050565b6134558161343a565b82525050565b6000602082019050613470600083018461344c565b92915050565b600060ff82169050919050565b61348c81613476565b82525050565b60006020820190506134a76000830184613483565b92915050565b6000602082840312156134c3576134c2613019565b5b60006134d18482850161326f565b91505092915050565b6134e381613199565b82525050565b60006020820190506134fe60008301846134da565b92915050565b61350d81613476565b811461351857600080fd5b50565b60008135905061352a81613504565b92915050565b613539816130a8565b811461354457600080fd5b50565b60008135905061355681613530565b92915050565b6000806040838503121561357357613572613019565b5b60006135818582860161351b565b925050602061359285828601613547565b9150509250929050565b600080604083850312156135b3576135b2613019565b5b60006135c18582860161326f565b92505060206135d285828601613547565b9150509250929050565b6000602082840312156135f2576135f1613019565b5b60006136008482850161351b565b91505092915050565b600080604083850312156136205761361f613019565b5b600061362e8582860161351b565b925050602061363f8582860161326f565b9150509250929050565b600080fd5b600080fd5b7f4e487b7100000000000000000000000000000000000000000000000000000000600052604160045260246000fd5b61368b8261312d565b810181811067ffffffffffffffff821117156136aa576136a9613653565b5b80604052505050565b60006136bd61300f565b90506136c98282613682565b919050565b600067ffffffffffffffff8211156136e9576136e8613653565b5b6136f28261312d565b9050602081019050919050565b82818337600083830152505050565b600061372161371c846136ce565b6136b3565b90508281526020810184848401111561373d5761373c61364e565b5b6137488482856136ff565b509392505050565b600082601f83011261376557613764613649565b5b813561377584826020860161370e565b91505092915050565b6000806000806080858703121561379857613797613019565b5b60006137a68782880161326f565b94505060206137b78782880161326f565b93505060406137c8878288016131ba565b925050606085013567ffffffffffffffff8111156137e9576137e861301e565b5b6137f587828801613750565b91505092959194509250565b6002811061380e57600080fd5b50565b60008135905061382081613801565b92915050565b600061ffff82169050919050565b61383d81613826565b811461384857600080fd5b50565b60008135905061385a81613834565b92915050565b6002811061386d57600080fd5b50565b60008135905061387f81613860565b92915050565b600063ffffffff82169050919050565b61389e81613885565b81146138a957600080fd5b50565b6000813590506138bb81613895565b92915050565b60008060008060008060c087890312156138de576138dd613019565b5b60006138ec89828a0161326f565b96505060206138fd89828a01613811565b955050604061390e89828a0161384b565b945050606061391f89828a0161384b565b935050608061393089828a01613870565b92505060a061394189828a016138ac565b9150509295509295509295565b61395781613826565b82525050565b6002811061396e5761396d6133e4565b5b50565b600081905061397f8261395d565b919050565b600061398f82613971565b9050919050565b61399f81613984565b82525050565b6139ae81613885565b82525050565b6000610100820190506139ca600083018b61322e565b6139d7602083018a61344c565b6139e4604083018961394e565b6139f1606083018861394e565b6139fe6080830187613996565b613a0b60a08301866139a5565b613a1860c08301856130b4565b613a2560e083018461322e565b9998505050505050505050565b60008060408385031215613a4957613a48613019565b5b6000613a578582860161351b565b9250506020613a68858286016138ac565b9150509250929050565b6000602082019050613a8760008301846139a5565b92915050565b60008060408385031215613aa457613aa3613019565b5b6000613ab28582860161326f565b9250506020613ac38582860161326f565b9150509250929050565b6000602082019050613ae26000830184613996565b92915050565b7f4e487b7100000000000000000000000000000000000000000000000000000000600052602260045260246000fd5b60006002820490506001821680613b2f57607f821691505b602082108103613b4257613b41613ae8565b5b50919050565b7f4552433732313a20617070726f76616c20746f2063757272656e74206f776e6560008201527f7200000000000000000000000000000000000000000000000000000000000000602082015250565b6000613ba46021836130e9565b9150613baf82613b48565b604082019050919050565b60006020820190508181036000830152613bd381613b97565b9050919050565b7f4552433732313a20617070726f76652063616c6c6572206973206e6f7420746f60008201527f6b656e206f776e6572206f7220617070726f76656420666f7220616c6c000000602082015250565b6000613c36603d836130e9565b9150613c4182613bda565b604082019050919050565b60006020820190508181036000830152613c6581613c29565b9050919050565b7f4552433732313a2063616c6c6572206973206e6f7420746f6b656e206f776e6560008201527f72206f7220617070726f76656400000000000000000000000000000000000000602082015250565b6000613cc8602d836130e9565b9150613cd382613c6c565b604082019050919050565b60006020820190508181036000830152613cf781613cbb565b9050919050565b7f416363657373436f6e74726f6c3a2063616e206f6e6c792072656e6f756e636560008201527f20726f6c657320666f722073656c660000000000000000000000000000000000602082015250565b6000613d5a602f836130e9565b9150613d6582613cfe565b604082019050919050565b60006020820190508181036000830152613d8981613d4d565b9050919050565b7f4552433732313a20696e76616c696420746f6b656e2049440000000000000000600082015250565b6000613dc66018836130e9565b9150613dd182613d90565b602082019050919050565b60006020820190508181036000830152613df581613db9565b9050919050565b7f4552433732313a2061646472657373207a65726f206973206e6f74206120766160008201527f6c6964206f776e65720000000000000000000000000000000000000000000000602082015250565b6000613e586029836130e9565b9150613e6382613dfc565b604082019050919050565b60006020820190508181036000830152613e8781613e4b565b9050919050565b7f4e487b7100000000000000000000000000000000000000000000000000000000600052603260045260246000fd5b7f4f6e6c7920666c6f72657374277320696e697469616c206f776e65722069732060008201527f616c6c6f77656420666f72207468697320747800000000000000000000000000602082015250565b6000613f196033836130e9565b9150613f2482613ebd565b604082019050919050565b60006020820190508181036000830152613f4881613f0c565b9050919050565b600081519050613f5e816131a3565b92915050565b600060208284031215613f7a57613f79613019565b5b6000613f8884828501613f4f565b91505092915050565b7f70726f6a656374206973207374696c6c206f6e676f696e672100000000000000600082015250565b6000613fc76019836130e9565b9150613fd282613f91565b602082019050919050565b60006020820190508181036000830152613ff681613fba565b9050919050565b7f4e487b7100000000000000000000000000000000000000000000000000000000600052601160045260246000fd5b600061403782613476565b915060ff820361404a57614049613ffd565b5b600182019050919050565b600081905092915050565b600061406b826130de565b6140758185614055565b93506140858185602086016130fa565b80840191505092915050565b600061409d8285614060565b91506140a98284614060565b91508190509392505050565b7f61737365742069732063757272656e746c79206e6f7420617661696c61626c6560008201527f20666f72207472616e7366657200000000000000000000000000000000000000602082015250565b6000614111602d836130e9565b915061411c826140b5565b604082019050919050565b6000602082019050818103600083015261414081614104565b9050919050565b600060608201905061415c6000830186613483565b614169602083018561322e565b61417660408301846130b4565b949350505050565b7f4e487b7100000000000000000000000000000000000000000000000000000000600052601260045260246000fd5b60006141b882613199565b91506141c383613199565b9250826141d3576141d261417e565b5b828204905092915050565b60006141e982613199565b91506141f483613199565b9250827fffffffffffffffffffffffffffffffffffffffffffffffffffffffffffffffff0382111561422957614228613ffd565b5b828201905092915050565b7f4f776e61626c653a206e6577206f776e657220697320746865207a65726f206160008201527f6464726573730000000000000000000000000000000000000000000000000000602082015250565b60006142906026836130e9565b915061429b82614234565b604082019050919050565b600060208201905081810360008301526142bf81614283565b9050919050565b60006142d182613199565b91506142dc83613199565b9250817fffffffffffffffffffffffffffffffffffffffffffffffffffffffffffffffff048311821515161561431557614314613ffd565b5b828202905092915050565b600061432b82613199565b91506000820361433e5761433d613ffd565b5b600182039050919050565b7f537472696e67733a20686578206c656e67746820696e73756666696369656e74600082015250565b600061437f6020836130e9565b915061438a82614349565b602082019050919050565b600060208201905081810360008301526143ae81614372565b9050919050565b7f4552433732313a207472616e736665722066726f6d20696e636f72726563742060008201527f6f776e6572000000000000000000000000000000000000000000000000000000602082015250565b60006144116025836130e9565b915061441c826143b5565b604082019050919050565b6000602082019050818103600083015261444081614404565b9050919050565b7f4552433732313a207472616e7366657220746f20746865207a65726f2061646460008201527f7265737300000000000000000000000000000000000000000000000000000000602082015250565b60006144a36024836130e9565b91506144ae82614447565b604082019050919050565b600060208201905081810360008301526144d281614496565b9050919050565b7f4f776e61626c653a2063616c6c6572206973206e6f7420746865206f776e6572600082015250565b600061450f6020836130e9565b915061451a826144d9565b602082019050919050565b6000602082019050818103600083015261453e81614502565b9050919050565b7f4552433732313a20617070726f766520746f2063616c6c657200000000000000600082015250565b600061457b6019836130e9565b915061458682614545565b602082019050919050565b600060208201905081810360008301526145aa8161456e565b9050919050565b7f4552433732313a207472616e7366657220746f206e6f6e20455243373231526560008201527f63656976657220696d706c656d656e7465720000000000000000000000000000602082015250565b600061460d6032836130e9565b9150614618826145b1565b604082019050919050565b6000602082019050818103600083015261463c81614600565b9050919050565b7f4552433732313a206d696e7420746f20746865207a65726f2061646472657373600082015250565b60006146796020836130e9565b915061468482614643565b602082019050919050565b600060208201905081810360008301526146a88161466c565b9050919050565b7f4552433732313a20746f6b656e20616c7265616479206d696e74656400000000600082015250565b60006146e5601c836130e9565b91506146f0826146af565b602082019050919050565b60006020820190508181036000830152614714816146d8565b9050919050565b600061472682613199565b915061473183613199565b92508282101561474457614743613ffd565b5b828203905092915050565b7f416363657373436f6e74726f6c3a206163636f756e7420000000000000000000600082015250565b6000614785601783614055565b91506147908261474f565b601782019050919050565b7f206973206d697373696e6720726f6c6520000000000000000000000000000000600082015250565b60006147d1601183614055565b91506147dc8261479b565b601182019050919050565b60006147f282614778565b91506147fe8285614060565b9150614809826147c4565b91506148158284614060565b91508190509392505050565b600081519050919050565b600082825260208201905092915050565b600061484882614821565b614852818561482c565b93506148628185602086016130fa565b61486b8161312d565b840191505092915050565b600060808201905061488b600083018761322e565b614898602083018661322e565b6148a560408301856134da565b81810360608301526148b7818461483d565b905095945050505050565b6000815190506148d18161304f565b92915050565b6000602082840312156148ed576148ec613019565b5b60006148fb848285016148c2565b9150509291505056fea26469706673582212201f0d2d4c64de74da8f1fdd3a1dceab0a45c239041458f59c63c451a39d84fea964736f6c634300080e0033",
			"opcodes": "PUSH1 0xA0 PUSH1 0x40 MSTORE PUSH32 0x9F2DF0FED2C77648DE5860A4CC508CD0818C85B8B8A1AB4CEEEF8D981C8956A6 PUSH1 0x80 SWAP1 DUP2 MSTORE POP PUSH1 0x0 PUSH1 0x8 PUSH1 0x0 PUSH2 0x100 EXP DUP2 SLOAD DUP2 PUSH1 0xFF MUL NOT AND SWAP1 DUP4 PUSH1 0xFF AND MUL OR SWAP1 SSTORE POP PUSH1 0x0 PUSH1 0x8 PUSH1 0x1 PUSH2 0x100 EXP DUP2 SLOAD DUP2 PUSH1 0xFF MUL NOT AND SWAP1 DUP4 ISZERO ISZERO MUL OR SWAP1 SSTORE POP CALLVALUE DUP1 ISZERO PUSH3 0x6F JUMPI PUSH1 0x0 DUP1 REVERT JUMPDEST POP PUSH1 0x40 MLOAD PUSH3 0x6141 CODESIZE SUB DUP1 PUSH3 0x6141 DUP4 CODECOPY DUP2 DUP2 ADD PUSH1 0x40 MSTORE DUP2 ADD SWAP1 PUSH3 0x95 SWAP2 SWAP1 PUSH3 0x10F4 JUMP JUMPDEST CALLER DUP7 PUSH1 0x40 MLOAD DUP1 PUSH1 0x40 ADD PUSH1 0x40 MSTORE DUP1 PUSH1 0x1E DUP2 MSTORE PUSH1 0x20 ADD PUSH32 0x4365727469666963617465206F6620506C616E746564466C6F72657374730000 DUP2 MSTORE POP PUSH1 0x40 MLOAD DUP1 PUSH1 0x40 ADD PUSH1 0x40 MSTORE DUP1 PUSH1 0x4 DUP2 MSTORE PUSH1 0x20 ADD PUSH32 0x434F504600000000000000000000000000000000000000000000000000000000 DUP2 MSTORE POP DUP2 PUSH1 0x0 SWAP1 DUP1 MLOAD SWAP1 PUSH1 0x20 ADD SWAP1 PUSH3 0x11B SWAP3 SWAP2 SWAP1 PUSH3 0xF5D JUMP JUMPDEST POP DUP1 PUSH1 0x1 SWAP1 DUP1 MLOAD SWAP1 PUSH1 0x20 ADD SWAP1 PUSH3 0x134 SWAP3 SWAP2 SWAP1 PUSH3 0xF5D JUMP JUMPDEST POP POP POP PUSH3 0x157 PUSH3 0x14B PUSH3 0x435 PUSH1 0x20 SHL PUSH1 0x20 SHR JUMP JUMPDEST PUSH3 0x43D PUSH1 0x20 SHL PUSH1 0x20 SHR JUMP JUMPDEST PUSH3 0x16C PUSH1 0x0 DUP1 SHL DUP4 PUSH3 0x503 PUSH1 0x20 SHL PUSH1 0x20 SHR JUMP JUMPDEST PUSH3 0x180 PUSH1 0x80 MLOAD DUP3 PUSH3 0x503 PUSH1 0x20 SHL PUSH1 0x20 SHR JUMP JUMPDEST POP POP PUSH1 0x9 PUSH1 0x40 MLOAD DUP1 PUSH2 0x100 ADD PUSH1 0x40 MSTORE DUP1 DUP8 PUSH20 0xFFFFFFFFFFFFFFFFFFFFFFFFFFFFFFFFFFFFFFFF AND DUP2 MSTORE PUSH1 0x20 ADD DUP7 PUSH1 0xFF AND PUSH1 0x1 DUP2 GT ISZERO PUSH3 0x1C5 JUMPI PUSH3 0x1C4 PUSH3 0x1190 JUMP JUMPDEST JUMPDEST PUSH1 0x1 DUP2 GT ISZERO PUSH3 0x1DA JUMPI PUSH3 0x1D9 PUSH3 0x1190 JUMP JUMPDEST JUMPDEST DUP2 MSTORE PUSH1 0x20 ADD DUP6 PUSH2 0xFFFF AND DUP2 MSTORE PUSH1 0x20 ADD DUP5 PUSH2 0xFFFF AND DUP2 MSTORE PUSH1 0x20 ADD DUP4 PUSH1 0xFF AND PUSH1 0x1 DUP2 GT ISZERO PUSH3 0x20C JUMPI PUSH3 0x20B PUSH3 0x1190 JUMP JUMPDEST JUMPDEST PUSH1 0x1 DUP2 GT ISZERO PUSH3 0x221 JUMPI PUSH3 0x220 PUSH3 0x1190 JUMP JUMPDEST JUMPDEST DUP2 MSTORE PUSH1 0x20 ADD PUSH1 0x0 PUSH4 0xFFFFFFFF AND DUP2 MSTORE PUSH1 0x20 ADD PUSH1 0x0 ISZERO ISZERO DUP2 MSTORE PUSH1 0x20 ADD DUP8 PUSH20 0xFFFFFFFFFFFFFFFFFFFFFFFFFFFFFFFFFFFFFFFF AND DUP2 MSTORE POP SWAP1 DUP1 PUSH1 0x1 DUP2 SLOAD ADD DUP1 DUP3 SSTORE DUP1 SWAP2 POP POP PUSH1 0x1 SWAP1 SUB SWAP1 PUSH1 0x0 MSTORE PUSH1 0x20 PUSH1 0x0 KECCAK256 SWAP1 PUSH1 0x2 MUL ADD PUSH1 0x0 SWAP1 SWAP2 SWAP1 SWAP2 SWAP1 SWAP2 POP PUSH1 0x0 DUP3 ADD MLOAD DUP2 PUSH1 0x0 ADD PUSH1 0x0 PUSH2 0x100 EXP DUP2 SLOAD DUP2 PUSH20 0xFFFFFFFFFFFFFFFFFFFFFFFFFFFFFFFFFFFFFFFF MUL NOT AND SWAP1 DUP4 PUSH20 0xFFFFFFFFFFFFFFFFFFFFFFFFFFFFFFFFFFFFFFFF AND MUL OR SWAP1 SSTORE POP PUSH1 0x20 DUP3 ADD MLOAD DUP2 PUSH1 0x0 ADD PUSH1 0x14 PUSH2 0x100 EXP DUP2 SLOAD DUP2 PUSH1 0xFF MUL NOT AND SWAP1 DUP4 PUSH1 0x1 DUP2 GT ISZERO PUSH3 0x2F4 JUMPI PUSH3 0x2F3 PUSH3 0x1190 JUMP JUMPDEST JUMPDEST MUL OR SWAP1 SSTORE POP PUSH1 0x40 DUP3 ADD MLOAD DUP2 PUSH1 0x0 ADD PUSH1 0x15 PUSH2 0x100 EXP DUP2 SLOAD DUP2 PUSH2 0xFFFF MUL NOT AND SWAP1 DUP4 PUSH2 0xFFFF AND MUL OR SWAP1 SSTORE POP PUSH1 0x60 DUP3 ADD MLOAD DUP2 PUSH1 0x0 ADD PUSH1 0x17 PUSH2 0x100 EXP DUP2 SLOAD DUP2 PUSH2 0xFFFF MUL NOT AND SWAP1 DUP4 PUSH2 0xFFFF AND MUL OR SWAP1 SSTORE POP PUSH1 0x80 DUP3 ADD MLOAD DUP2 PUSH1 0x0 ADD PUSH1 0x19 PUSH2 0x100 EXP DUP2 SLOAD DUP2 PUSH1 0xFF MUL NOT AND SWAP1 DUP4 PUSH1 0x1 DUP2 GT ISZERO PUSH3 0x36D JUMPI PUSH3 0x36C PUSH3 0x1190 JUMP JUMPDEST JUMPDEST MUL OR SWAP1 SSTORE POP PUSH1 0xA0 DUP3 ADD MLOAD DUP2 PUSH1 0x0 ADD PUSH1 0x1A PUSH2 0x100 EXP DUP2 SLOAD DUP2 PUSH4 0xFFFFFFFF MUL NOT AND SWAP1 DUP4 PUSH4 0xFFFFFFFF AND MUL OR SWAP1 SSTORE POP PUSH1 0xC0 DUP3 ADD MLOAD DUP2 PUSH1 0x0 ADD PUSH1 0x1E PUSH2 0x100 EXP DUP2 SLOAD DUP2 PUSH1 0xFF MUL NOT AND SWAP1 DUP4 ISZERO ISZERO MUL OR SWAP1 SSTORE POP PUSH1 0xE0 DUP3 ADD MLOAD DUP2 PUSH1 0x1 ADD PUSH1 0x0 PUSH2 0x100 EXP DUP2 SLOAD DUP2 PUSH20 0xFFFFFFFFFFFFFFFFFFFFFFFFFFFFFFFFFFFFFFFF MUL NOT AND SWAP1 DUP4 PUSH20 0xFFFFFFFFFFFFFFFFFFFFFFFFFFFFFFFFFFFFFFFF AND MUL OR SWAP1 SSTORE POP POP POP PUSH3 0x415 DUP6 PUSH1 0x0 PUSH3 0x5F5 PUSH1 0x20 SHL PUSH1 0x20 SHR JUMP JUMPDEST PUSH3 0x429 DUP6 CALLER PUSH1 0x1 PUSH3 0x83B PUSH1 0x20 SHL PUSH1 0x20 SHR JUMP JUMPDEST POP POP POP POP POP POP PUSH3 0x17CF JUMP JUMPDEST PUSH1 0x0 CALLER SWAP1 POP SWAP1 JUMP JUMPDEST PUSH1 0x0 PUSH1 0x6 PUSH1 0x0 SWAP1 SLOAD SWAP1 PUSH2 0x100 EXP SWAP1 DIV PUSH20 0xFFFFFFFFFFFFFFFFFFFFFFFFFFFFFFFFFFFFFFFF AND SWAP1 POP DUP2 PUSH1 0x6 PUSH1 0x0 PUSH2 0x100 EXP DUP2 SLOAD DUP2 PUSH20 0xFFFFFFFFFFFFFFFFFFFFFFFFFFFFFFFFFFFFFFFF MUL NOT AND SWAP1 DUP4 PUSH20 0xFFFFFFFFFFFFFFFFFFFFFFFFFFFFFFFFFFFFFFFF AND MUL OR SWAP1 SSTORE POP DUP2 PUSH20 0xFFFFFFFFFFFFFFFFFFFFFFFFFFFFFFFFFFFFFFFF AND DUP2 PUSH20 0xFFFFFFFFFFFFFFFFFFFFFFFFFFFFFFFFFFFFFFFF AND PUSH32 0x8BE0079C531659141344CD1FD0A4F28419497F9722A3DAAFE3B4186F6B6457E0 PUSH1 0x40 MLOAD PUSH1 0x40 MLOAD DUP1 SWAP2 SUB SWAP1 LOG3 POP POP JUMP JUMPDEST PUSH3 0x515 DUP3 DUP3 PUSH3 0x868 PUSH1 0x20 SHL PUSH1 0x20 SHR JUMP JUMPDEST PUSH3 0x5F1 JUMPI PUSH1 0x1 PUSH1 0x7 PUSH1 0x0 DUP5 DUP2 MSTORE PUSH1 0x20 ADD SWAP1 DUP2 MSTORE PUSH1 0x20 ADD PUSH1 0x0 KECCAK256 PUSH1 0x0 ADD PUSH1 0x0 DUP4 PUSH20 0xFFFFFFFFFFFFFFFFFFFFFFFFFFFFFFFFFFFFFFFF AND PUSH20 0xFFFFFFFFFFFFFFFFFFFFFFFFFFFFFFFFFFFFFFFF AND DUP2 MSTORE PUSH1 0x20 ADD SWAP1 DUP2 MSTORE PUSH1 0x20 ADD PUSH1 0x0 KECCAK256 PUSH1 0x0 PUSH2 0x100 EXP DUP2 SLOAD DUP2 PUSH1 0xFF MUL NOT AND SWAP1 DUP4 ISZERO ISZERO MUL OR SWAP1 SSTORE POP PUSH3 0x596 PUSH3 0x435 PUSH1 0x20 SHL PUSH1 0x20 SHR JUMP JUMPDEST PUSH20 0xFFFFFFFFFFFFFFFFFFFFFFFFFFFFFFFFFFFFFFFF AND DUP2 PUSH20 0xFFFFFFFFFFFFFFFFFFFFFFFFFFFFFFFFFFFFFFFF AND DUP4 PUSH32 0x2F8788117E7EFF1D82E926EC794901D17C78024A50270940304540A733656F0D PUSH1 0x40 MLOAD PUSH1 0x40 MLOAD DUP1 SWAP2 SUB SWAP1 LOG4 JUMPDEST POP POP JUMP JUMPDEST PUSH1 0x0 PUSH20 0xFFFFFFFFFFFFFFFFFFFFFFFFFFFFFFFFFFFFFFFF AND DUP3 PUSH20 0xFFFFFFFFFFFFFFFFFFFFFFFFFFFFFFFFFFFFFFFF AND SUB PUSH3 0x667 JUMPI PUSH1 0x40 MLOAD PUSH32 0x8C379A000000000000000000000000000000000000000000000000000000000 DUP2 MSTORE PUSH1 0x4 ADD PUSH3 0x65E SWAP1 PUSH3 0x1220 JUMP JUMPDEST PUSH1 0x40 MLOAD DUP1 SWAP2 SUB SWAP1 REVERT JUMPDEST PUSH3 0x678 DUP2 PUSH3 0x8D3 PUSH1 0x20 SHL PUSH1 0x20 SHR JUMP JUMPDEST ISZERO PUSH3 0x6BB JUMPI PUSH1 0x40 MLOAD PUSH32 0x8C379A000000000000000000000000000000000000000000000000000000000 DUP2 MSTORE PUSH1 0x4 ADD PUSH3 0x6B2 SWAP1 PUSH3 0x1292 JUMP JUMPDEST PUSH1 0x40 MLOAD DUP1 SWAP2 SUB SWAP1 REVERT JUMPDEST PUSH3 0x6D1 PUSH1 0x0 DUP4 DUP4 PUSH1 0x1 PUSH3 0x91C PUSH1 0x20 SHL PUSH1 0x20 SHR JUMP JUMPDEST PUSH3 0x6E2 DUP2 PUSH3 0x8D3 PUSH1 0x20 SHL PUSH1 0x20 SHR JUMP JUMPDEST ISZERO PUSH3 0x725 JUMPI PUSH1 0x40 MLOAD PUSH32 0x8C379A000000000000000000000000000000000000000000000000000000000 DUP2 MSTORE PUSH1 0x4 ADD PUSH3 0x71C SWAP1 PUSH3 0x1292 JUMP JUMPDEST PUSH1 0x40 MLOAD DUP1 SWAP2 SUB SWAP1 REVERT JUMPDEST PUSH1 0x1 PUSH1 0x3 PUSH1 0x0 DUP5 PUSH20 0xFFFFFFFFFFFFFFFFFFFFFFFFFFFFFFFFFFFFFFFF AND PUSH20 0xFFFFFFFFFFFFFFFFFFFFFFFFFFFFFFFFFFFFFFFF AND DUP2 MSTORE PUSH1 0x20 ADD SWAP1 DUP2 MSTORE PUSH1 0x20 ADD PUSH1 0x0 KECCAK256 PUSH1 0x0 DUP3 DUP3 SLOAD ADD SWAP3 POP POP DUP2 SWAP1 SSTORE POP DUP2 PUSH1 0x2 PUSH1 0x0 DUP4 DUP2 MSTORE PUSH1 0x20 ADD SWAP1 DUP2 MSTORE PUSH1 0x20 ADD PUSH1 0x0 KECCAK256 PUSH1 0x0 PUSH2 0x100 EXP DUP2 SLOAD DUP2 PUSH20 0xFFFFFFFFFFFFFFFFFFFFFFFFFFFFFFFFFFFFFFFF MUL NOT AND SWAP1 DUP4 PUSH20 0xFFFFFFFFFFFFFFFFFFFFFFFFFFFFFFFFFFFFFFFF AND MUL OR SWAP1 SSTORE POP DUP1 DUP3 PUSH20 0xFFFFFFFFFFFFFFFFFFFFFFFFFFFFFFFFFFFFFFFF AND PUSH1 0x0 PUSH20 0xFFFFFFFFFFFFFFFFFFFFFFFFFFFFFFFFFFFFFFFF AND PUSH32 0xDDF252AD1BE2C89B69C2B068FC378DAA952BA7F163C4A11628F55A4DF523B3EF PUSH1 0x40 MLOAD PUSH1 0x40 MLOAD DUP1 SWAP2 SUB SWAP1 LOG4 PUSH3 0x837 PUSH1 0x0 DUP4 DUP4 PUSH1 0x1 PUSH3 0xA49 PUSH1 0x20 SHL PUSH1 0x20 SHR JUMP JUMPDEST POP POP JUMP JUMPDEST PUSH1 0x80 MLOAD PUSH3 0x84F DUP2 PUSH3 0xA4F PUSH1 0x20 SHL PUSH1 0x20 SHR JUMP JUMPDEST PUSH3 0x862 DUP5 DUP5 DUP5 PUSH3 0xA73 PUSH1 0x20 SHL PUSH1 0x20 SHR JUMP JUMPDEST POP POP POP POP JUMP JUMPDEST PUSH1 0x0 PUSH1 0x7 PUSH1 0x0 DUP5 DUP2 MSTORE PUSH1 0x20 ADD SWAP1 DUP2 MSTORE PUSH1 0x20 ADD PUSH1 0x0 KECCAK256 PUSH1 0x0 ADD PUSH1 0x0 DUP4 PUSH20 0xFFFFFFFFFFFFFFFFFFFFFFFFFFFFFFFFFFFFFFFF AND PUSH20 0xFFFFFFFFFFFFFFFFFFFFFFFFFFFFFFFFFFFFFFFF AND DUP2 MSTORE PUSH1 0x20 ADD SWAP1 DUP2 MSTORE PUSH1 0x20 ADD PUSH1 0x0 KECCAK256 PUSH1 0x0 SWAP1 SLOAD SWAP1 PUSH2 0x100 EXP SWAP1 DIV PUSH1 0xFF AND SWAP1 POP SWAP3 SWAP2 POP POP JUMP JUMPDEST PUSH1 0x0 DUP1 PUSH20 0xFFFFFFFFFFFFFFFFFFFFFFFFFFFFFFFFFFFFFFFF AND PUSH3 0x8FD DUP4 PUSH3 0xBE4 PUSH1 0x20 SHL PUSH1 0x20 SHR JUMP JUMPDEST PUSH20 0xFFFFFFFFFFFFFFFFFFFFFFFFFFFFFFFFFFFFFFFF AND EQ ISZERO SWAP1 POP SWAP2 SWAP1 POP JUMP JUMPDEST PUSH1 0x1 DUP2 GT ISZERO PUSH3 0xA43 JUMPI PUSH1 0x0 PUSH20 0xFFFFFFFFFFFFFFFFFFFFFFFFFFFFFFFFFFFFFFFF AND DUP5 PUSH20 0xFFFFFFFFFFFFFFFFFFFFFFFFFFFFFFFFFFFFFFFF AND EQ PUSH3 0x9B4 JUMPI DUP1 PUSH1 0x3 PUSH1 0x0 DUP7 PUSH20 0xFFFFFFFFFFFFFFFFFFFFFFFFFFFFFFFFFFFFFFFF AND PUSH20 0xFFFFFFFFFFFFFFFFFFFFFFFFFFFFFFFFFFFFFFFF AND DUP2 MSTORE PUSH1 0x20 ADD SWAP1 DUP2 MSTORE PUSH1 0x20 ADD PUSH1 0x0 KECCAK256 PUSH1 0x0 DUP3 DUP3 SLOAD PUSH3 0x9AC SWAP2 SWAP1 PUSH3 0x12ED JUMP JUMPDEST SWAP3 POP POP DUP2 SWAP1 SSTORE POP JUMPDEST PUSH1 0x0 PUSH20 0xFFFFFFFFFFFFFFFFFFFFFFFFFFFFFFFFFFFFFFFF AND DUP4 PUSH20 0xFFFFFFFFFFFFFFFFFFFFFFFFFFFFFFFFFFFFFFFF AND EQ PUSH3 0xA42 JUMPI DUP1 PUSH1 0x3 PUSH1 0x0 DUP6 PUSH20 0xFFFFFFFFFFFFFFFFFFFFFFFFFFFFFFFFFFFFFFFF AND PUSH20 0xFFFFFFFFFFFFFFFFFFFFFFFFFFFFFFFFFFFFFFFF AND DUP2 MSTORE PUSH1 0x20 ADD SWAP1 DUP2 MSTORE PUSH1 0x20 ADD PUSH1 0x0 KECCAK256 PUSH1 0x0 DUP3 DUP3 SLOAD PUSH3 0xA3A SWAP2 SWAP1 PUSH3 0x1328 JUMP JUMPDEST SWAP3 POP POP DUP2 SWAP1 SSTORE POP JUMPDEST JUMPDEST POP POP POP POP JUMP JUMPDEST POP POP POP POP JUMP JUMPDEST PUSH3 0xA70 DUP2 PUSH3 0xA64 PUSH3 0x435 PUSH1 0x20 SHL PUSH1 0x20 SHR JUMP JUMPDEST PUSH3 0xC21 PUSH1 0x20 SHL PUSH1 0x20 SHR JUMP JUMPDEST POP JUMP JUMPDEST DUP2 PUSH20 0xFFFFFFFFFFFFFFFFFFFFFFFFFFFFFFFFFFFFFFFF AND DUP4 PUSH20 0xFFFFFFFFFFFFFFFFFFFFFFFFFFFFFFFFFFFFFFFF AND SUB PUSH3 0xAE4 JUMPI PUSH1 0x40 MLOAD PUSH32 0x8C379A000000000000000000000000000000000000000000000000000000000 DUP2 MSTORE PUSH1 0x4 ADD PUSH3 0xADB SWAP1 PUSH3 0x13D5 JUMP JUMPDEST PUSH1 0x40 MLOAD DUP1 SWAP2 SUB SWAP1 REVERT JUMPDEST DUP1 PUSH1 0x5 PUSH1 0x0 DUP6 PUSH20 0xFFFFFFFFFFFFFFFFFFFFFFFFFFFFFFFFFFFFFFFF AND PUSH20 0xFFFFFFFFFFFFFFFFFFFFFFFFFFFFFFFFFFFFFFFF AND DUP2 MSTORE PUSH1 0x20 ADD SWAP1 DUP2 MSTORE PUSH1 0x20 ADD PUSH1 0x0 KECCAK256 PUSH1 0x0 DUP5 PUSH20 0xFFFFFFFFFFFFFFFFFFFFFFFFFFFFFFFFFFFFFFFF AND PUSH20 0xFFFFFFFFFFFFFFFFFFFFFFFFFFFFFFFFFFFFFFFF AND DUP2 MSTORE PUSH1 0x20 ADD SWAP1 DUP2 MSTORE PUSH1 0x20 ADD PUSH1 0x0 KECCAK256 PUSH1 0x0 PUSH2 0x100 EXP DUP2 SLOAD DUP2 PUSH1 0xFF MUL NOT AND SWAP1 DUP4 ISZERO ISZERO MUL OR SWAP1 SSTORE POP DUP2 PUSH20 0xFFFFFFFFFFFFFFFFFFFFFFFFFFFFFFFFFFFFFFFF AND DUP4 PUSH20 0xFFFFFFFFFFFFFFFFFFFFFFFFFFFFFFFFFFFFFFFF AND PUSH32 0x17307EAB39AB6107E8899845AD3D59BD9653F200F220920489CA2B5937696C31 DUP4 PUSH1 0x40 MLOAD PUSH3 0xBD7 SWAP2 SWAP1 PUSH3 0x1414 JUMP JUMPDEST PUSH1 0x40 MLOAD DUP1 SWAP2 SUB SWAP1 LOG3 POP POP POP JUMP JUMPDEST PUSH1 0x0 PUSH1 0x2 PUSH1 0x0 DUP4 DUP2 MSTORE PUSH1 0x20 ADD SWAP1 DUP2 MSTORE PUSH1 0x20 ADD PUSH1 0x0 KECCAK256 PUSH1 0x0 SWAP1 SLOAD SWAP1 PUSH2 0x100 EXP SWAP1 DIV PUSH20 0xFFFFFFFFFFFFFFFFFFFFFFFFFFFFFFFFFFFFFFFF AND SWAP1 POP SWAP2 SWAP1 POP JUMP JUMPDEST PUSH3 0xC33 DUP3 DUP3 PUSH3 0x868 PUSH1 0x20 SHL PUSH1 0x20 SHR JUMP JUMPDEST PUSH3 0xCC9 JUMPI PUSH3 0xC4E DUP2 PUSH3 0xCCD PUSH1 0x20 SHL PUSH3 0x186D OR PUSH1 0x20 SHR JUMP JUMPDEST PUSH3 0xC69 DUP4 PUSH1 0x0 SHR PUSH1 0x20 PUSH3 0xD02 PUSH1 0x20 SHL PUSH3 0x189A OR PUSH1 0x20 SHR JUMP JUMPDEST PUSH1 0x40 MLOAD PUSH1 0x20 ADD PUSH3 0xC7C SWAP3 SWAP2 SWAP1 PUSH3 0x1554 JUMP JUMPDEST PUSH1 0x40 MLOAD PUSH1 0x20 DUP2 DUP4 SUB SUB DUP2 MSTORE SWAP1 PUSH1 0x40 MSTORE PUSH1 0x40 MLOAD PUSH32 0x8C379A000000000000000000000000000000000000000000000000000000000 DUP2 MSTORE PUSH1 0x4 ADD PUSH3 0xCC0 SWAP2 SWAP1 PUSH3 0x15E8 JUMP JUMPDEST PUSH1 0x40 MLOAD DUP1 SWAP2 SUB SWAP1 REVERT JUMPDEST POP POP JUMP JUMPDEST PUSH1 0x60 PUSH3 0xCFB DUP3 PUSH20 0xFFFFFFFFFFFFFFFFFFFFFFFFFFFFFFFFFFFFFFFF AND PUSH1 0x14 PUSH1 0xFF AND PUSH3 0xD02 PUSH1 0x20 SHL PUSH1 0x20 SHR JUMP JUMPDEST SWAP1 POP SWAP2 SWAP1 POP JUMP JUMPDEST PUSH1 0x60 PUSH1 0x0 PUSH1 0x2 DUP4 PUSH1 0x2 PUSH3 0xD17 SWAP2 SWAP1 PUSH3 0x160C JUMP JUMPDEST PUSH3 0xD23 SWAP2 SWAP1 PUSH3 0x1328 JUMP JUMPDEST PUSH8 0xFFFFFFFFFFFFFFFF DUP2 GT ISZERO PUSH3 0xD3F JUMPI PUSH3 0xD3E PUSH3 0x166D JUMP JUMPDEST JUMPDEST PUSH1 0x40 MLOAD SWAP1 DUP1 DUP3 MSTORE DUP1 PUSH1 0x1F ADD PUSH1 0x1F NOT AND PUSH1 0x20 ADD DUP3 ADD PUSH1 0x40 MSTORE DUP1 ISZERO PUSH3 0xD72 JUMPI DUP2 PUSH1 0x20 ADD PUSH1 0x1 DUP3 MUL DUP1 CALLDATASIZE DUP4 CALLDATACOPY DUP1 DUP3 ADD SWAP2 POP POP SWAP1 POP JUMPDEST POP SWAP1 POP PUSH32 0x3000000000000000000000000000000000000000000000000000000000000000 DUP2 PUSH1 0x0 DUP2 MLOAD DUP2 LT PUSH3 0xDAD JUMPI PUSH3 0xDAC PUSH3 0x169C JUMP JUMPDEST JUMPDEST PUSH1 0x20 ADD ADD SWAP1 PUSH31 0xFFFFFFFFFFFFFFFFFFFFFFFFFFFFFFFFFFFFFFFFFFFFFFFFFFFFFFFFFFFFFF NOT AND SWAP1 DUP2 PUSH1 0x0 BYTE SWAP1 MSTORE8 POP PUSH32 0x7800000000000000000000000000000000000000000000000000000000000000 DUP2 PUSH1 0x1 DUP2 MLOAD DUP2 LT PUSH3 0xE14 JUMPI PUSH3 0xE13 PUSH3 0x169C JUMP JUMPDEST JUMPDEST PUSH1 0x20 ADD ADD SWAP1 PUSH31 0xFFFFFFFFFFFFFFFFFFFFFFFFFFFFFFFFFFFFFFFFFFFFFFFFFFFFFFFFFFFFFF NOT AND SWAP1 DUP2 PUSH1 0x0 BYTE SWAP1 MSTORE8 POP PUSH1 0x0 PUSH1 0x1 DUP5 PUSH1 0x2 PUSH3 0xE56 SWAP2 SWAP1 PUSH3 0x160C JUMP JUMPDEST PUSH3 0xE62 SWAP2 SWAP1 PUSH3 0x1328 JUMP JUMPDEST SWAP1 POP JUMPDEST PUSH1 0x1 DUP2 GT ISZERO PUSH3 0xF0C JUMPI PUSH32 0x3031323334353637383961626364656600000000000000000000000000000000 PUSH1 0xF DUP7 AND PUSH1 0x10 DUP2 LT PUSH3 0xEA8 JUMPI PUSH3 0xEA7 PUSH3 0x169C JUMP JUMPDEST JUMPDEST BYTE PUSH1 0xF8 SHL DUP3 DUP3 DUP2 MLOAD DUP2 LT PUSH3 0xEC2 JUMPI PUSH3 0xEC1 PUSH3 0x169C JUMP JUMPDEST JUMPDEST PUSH1 0x20 ADD ADD SWAP1 PUSH31 0xFFFFFFFFFFFFFFFFFFFFFFFFFFFFFFFFFFFFFFFFFFFFFFFFFFFFFFFFFFFFFF NOT AND SWAP1 DUP2 PUSH1 0x0 BYTE SWAP1 MSTORE8 POP PUSH1 0x4 DUP6 SWAP1 SHR SWAP5 POP DUP1 PUSH3 0xF04 SWAP1 PUSH3 0x16CB JUMP JUMPDEST SWAP1 POP PUSH3 0xE65 JUMP JUMPDEST POP PUSH1 0x0 DUP5 EQ PUSH3 0xF53 JUMPI PUSH1 0x40 MLOAD PUSH32 0x8C379A000000000000000000000000000000000000000000000000000000000 DUP2 MSTORE PUSH1 0x4 ADD PUSH3 0xF4A SWAP1 PUSH3 0x1749 JUMP JUMPDEST PUSH1 0x40 MLOAD DUP1 SWAP2 SUB SWAP1 REVERT JUMPDEST DUP1 SWAP2 POP POP SWAP3 SWAP2 POP POP JUMP JUMPDEST DUP3 DUP1 SLOAD PUSH3 0xF6B SWAP1 PUSH3 0x179A JUMP JUMPDEST SWAP1 PUSH1 0x0 MSTORE PUSH1 0x20 PUSH1 0x0 KECCAK256 SWAP1 PUSH1 0x1F ADD PUSH1 0x20 SWAP1 DIV DUP2 ADD SWAP3 DUP3 PUSH3 0xF8F JUMPI PUSH1 0x0 DUP6 SSTORE PUSH3 0xFDB JUMP JUMPDEST DUP3 PUSH1 0x1F LT PUSH3 0xFAA JUMPI DUP1 MLOAD PUSH1 0xFF NOT AND DUP4 DUP1 ADD OR DUP6 SSTORE PUSH3 0xFDB JUMP JUMPDEST DUP3 DUP1 ADD PUSH1 0x1 ADD DUP6 SSTORE DUP3 ISZERO PUSH3 0xFDB JUMPI SWAP2 DUP3 ADD JUMPDEST DUP3 DUP2 GT ISZERO PUSH3 0xFDA JUMPI DUP3 MLOAD DUP3 SSTORE SWAP2 PUSH1 0x20 ADD SWAP2 SWAP1 PUSH1 0x1 ADD SWAP1 PUSH3 0xFBD JUMP JUMPDEST JUMPDEST POP SWAP1 POP PUSH3 0xFEA SWAP2 SWAP1 PUSH3 0xFEE JUMP JUMPDEST POP SWAP1 JUMP JUMPDEST JUMPDEST DUP1 DUP3 GT ISZERO PUSH3 0x1009 JUMPI PUSH1 0x0 DUP2 PUSH1 0x0 SWAP1 SSTORE POP PUSH1 0x1 ADD PUSH3 0xFEF JUMP JUMPDEST POP SWAP1 JUMP JUMPDEST PUSH1 0x0 DUP1 REVERT JUMPDEST PUSH1 0x0 PUSH20 0xFFFFFFFFFFFFFFFFFFFFFFFFFFFFFFFFFFFFFFFF DUP3 AND SWAP1 POP SWAP2 SWAP1 POP JUMP JUMPDEST PUSH1 0x0 PUSH3 0x103F DUP3 PUSH3 0x1012 JUMP JUMPDEST SWAP1 POP SWAP2 SWAP1 POP JUMP JUMPDEST PUSH3 0x1051 DUP2 PUSH3 0x1032 JUMP JUMPDEST DUP2 EQ PUSH3 0x105D JUMPI PUSH1 0x0 DUP1 REVERT JUMPDEST POP JUMP JUMPDEST PUSH1 0x0 DUP2 MLOAD SWAP1 POP PUSH3 0x1071 DUP2 PUSH3 0x1046 JUMP JUMPDEST SWAP3 SWAP2 POP POP JUMP JUMPDEST PUSH1 0x0 PUSH1 0xFF DUP3 AND SWAP1 POP SWAP2 SWAP1 POP JUMP JUMPDEST PUSH3 0x108F DUP2 PUSH3 0x1077 JUMP JUMPDEST DUP2 EQ PUSH3 0x109B JUMPI PUSH1 0x0 DUP1 REVERT JUMPDEST POP JUMP JUMPDEST PUSH1 0x0 DUP2 MLOAD SWAP1 POP PUSH3 0x10AF DUP2 PUSH3 0x1084 JUMP JUMPDEST SWAP3 SWAP2 POP POP JUMP JUMPDEST PUSH1 0x0 PUSH2 0xFFFF DUP3 AND SWAP1 POP SWAP2 SWAP1 POP JUMP JUMPDEST PUSH3 0x10CE DUP2 PUSH3 0x10B5 JUMP JUMPDEST DUP2 EQ PUSH3 0x10DA JUMPI PUSH1 0x0 DUP1 REVERT JUMPDEST POP JUMP JUMPDEST PUSH1 0x0 DUP2 MLOAD SWAP1 POP PUSH3 0x10EE DUP2 PUSH3 0x10C3 JUMP JUMPDEST SWAP3 SWAP2 POP POP JUMP JUMPDEST PUSH1 0x0 DUP1 PUSH1 0x0 DUP1 PUSH1 0x0 DUP1 PUSH1 0xC0 DUP8 DUP10 SUB SLT ISZERO PUSH3 0x1114 JUMPI PUSH3 0x1113 PUSH3 0x100D JUMP JUMPDEST JUMPDEST PUSH1 0x0 PUSH3 0x1124 DUP10 DUP3 DUP11 ADD PUSH3 0x1060 JUMP JUMPDEST SWAP7 POP POP PUSH1 0x20 PUSH3 0x1137 DUP10 DUP3 DUP11 ADD PUSH3 0x1060 JUMP JUMPDEST SWAP6 POP POP PUSH1 0x40 PUSH3 0x114A DUP10 DUP3 DUP11 ADD PUSH3 0x109E JUMP JUMPDEST SWAP5 POP POP PUSH1 0x60 PUSH3 0x115D DUP10 DUP3 DUP11 ADD PUSH3 0x10DD JUMP JUMPDEST SWAP4 POP POP PUSH1 0x80 PUSH3 0x1170 DUP10 DUP3 DUP11 ADD PUSH3 0x10DD JUMP JUMPDEST SWAP3 POP POP PUSH1 0xA0 PUSH3 0x1183 DUP10 DUP3 DUP11 ADD PUSH3 0x109E JUMP JUMPDEST SWAP2 POP POP SWAP3 SWAP6 POP SWAP3 SWAP6 POP SWAP3 SWAP6 JUMP JUMPDEST PUSH32 0x4E487B7100000000000000000000000000000000000000000000000000000000 PUSH1 0x0 MSTORE PUSH1 0x21 PUSH1 0x4 MSTORE PUSH1 0x24 PUSH1 0x0 REVERT JUMPDEST PUSH1 0x0 DUP3 DUP3 MSTORE PUSH1 0x20 DUP3 ADD SWAP1 POP SWAP3 SWAP2 POP POP JUMP JUMPDEST PUSH32 0x4552433732313A206D696E7420746F20746865207A65726F2061646472657373 PUSH1 0x0 DUP3 ADD MSTORE POP JUMP JUMPDEST PUSH1 0x0 PUSH3 0x1208 PUSH1 0x20 DUP4 PUSH3 0x11BF JUMP JUMPDEST SWAP2 POP PUSH3 0x1215 DUP3 PUSH3 0x11D0 JUMP JUMPDEST PUSH1 0x20 DUP3 ADD SWAP1 POP SWAP2 SWAP1 POP JUMP JUMPDEST PUSH1 0x0 PUSH1 0x20 DUP3 ADD SWAP1 POP DUP2 DUP2 SUB PUSH1 0x0 DUP4 ADD MSTORE PUSH3 0x123B DUP2 PUSH3 0x11F9 JUMP JUMPDEST SWAP1 POP SWAP2 SWAP1 POP JUMP JUMPDEST PUSH32 0x4552433732313A20746F6B656E20616C7265616479206D696E74656400000000 PUSH1 0x0 DUP3 ADD MSTORE POP JUMP JUMPDEST PUSH1 0x0 PUSH3 0x127A PUSH1 0x1C DUP4 PUSH3 0x11BF JUMP JUMPDEST SWAP2 POP PUSH3 0x1287 DUP3 PUSH3 0x1242 JUMP JUMPDEST PUSH1 0x20 DUP3 ADD SWAP1 POP SWAP2 SWAP1 POP JUMP JUMPDEST PUSH1 0x0 PUSH1 0x20 DUP3 ADD SWAP1 POP DUP2 DUP2 SUB PUSH1 0x0 DUP4 ADD MSTORE PUSH3 0x12AD DUP2 PUSH3 0x126B JUMP JUMPDEST SWAP1 POP SWAP2 SWAP1 POP JUMP JUMPDEST PUSH1 0x0 DUP2 SWAP1 POP SWAP2 SWAP1 POP JUMP JUMPDEST PUSH32 0x4E487B7100000000000000000000000000000000000000000000000000000000 PUSH1 0x0 MSTORE PUSH1 0x11 PUSH1 0x4 MSTORE PUSH1 0x24 PUSH1 0x0 REVERT JUMPDEST PUSH1 0x0 PUSH3 0x12FA DUP3 PUSH3 0x12B4 JUMP JUMPDEST SWAP2 POP PUSH3 0x1307 DUP4 PUSH3 0x12B4 JUMP JUMPDEST SWAP3 POP DUP3 DUP3 LT ISZERO PUSH3 0x131D JUMPI PUSH3 0x131C PUSH3 0x12BE JUMP JUMPDEST JUMPDEST DUP3 DUP3 SUB SWAP1 POP SWAP3 SWAP2 POP POP JUMP JUMPDEST PUSH1 0x0 PUSH3 0x1335 DUP3 PUSH3 0x12B4 JUMP JUMPDEST SWAP2 POP PUSH3 0x1342 DUP4 PUSH3 0x12B4 JUMP JUMPDEST SWAP3 POP DUP3 PUSH32 0xFFFFFFFFFFFFFFFFFFFFFFFFFFFFFFFFFFFFFFFFFFFFFFFFFFFFFFFFFFFFFFFF SUB DUP3 GT ISZERO PUSH3 0x137A JUMPI PUSH3 0x1379 PUSH3 0x12BE JUMP JUMPDEST JUMPDEST DUP3 DUP3 ADD SWAP1 POP SWAP3 SWAP2 POP POP JUMP JUMPDEST PUSH32 0x4552433732313A20617070726F766520746F2063616C6C657200000000000000 PUSH1 0x0 DUP3 ADD MSTORE POP JUMP JUMPDEST PUSH1 0x0 PUSH3 0x13BD PUSH1 0x19 DUP4 PUSH3 0x11BF JUMP JUMPDEST SWAP2 POP PUSH3 0x13CA DUP3 PUSH3 0x1385 JUMP JUMPDEST PUSH1 0x20 DUP3 ADD SWAP1 POP SWAP2 SWAP1 POP JUMP JUMPDEST PUSH1 0x0 PUSH1 0x20 DUP3 ADD SWAP1 POP DUP2 DUP2 SUB PUSH1 0x0 DUP4 ADD MSTORE PUSH3 0x13F0 DUP2 PUSH3 0x13AE JUMP JUMPDEST SWAP1 POP SWAP2 SWAP1 POP JUMP JUMPDEST PUSH1 0x0 DUP2 ISZERO ISZERO SWAP1 POP SWAP2 SWAP1 POP JUMP JUMPDEST PUSH3 0x140E DUP2 PUSH3 0x13F7 JUMP JUMPDEST DUP3 MSTORE POP POP JUMP JUMPDEST PUSH1 0x0 PUSH1 0x20 DUP3 ADD SWAP1 POP PUSH3 0x142B PUSH1 0x0 DUP4 ADD DUP5 PUSH3 0x1403 JUMP JUMPDEST SWAP3 SWAP2 POP POP JUMP JUMPDEST PUSH1 0x0 DUP2 SWAP1 POP SWAP3 SWAP2 POP POP JUMP JUMPDEST PUSH32 0x416363657373436F6E74726F6C3A206163636F756E7420000000000000000000 PUSH1 0x0 DUP3 ADD MSTORE POP JUMP JUMPDEST PUSH1 0x0 PUSH3 0x1474 PUSH1 0x17 DUP4 PUSH3 0x1431 JUMP JUMPDEST SWAP2 POP PUSH3 0x1481 DUP3 PUSH3 0x143C JUMP JUMPDEST PUSH1 0x17 DUP3 ADD SWAP1 POP SWAP2 SWAP1 POP JUMP JUMPDEST PUSH1 0x0 DUP2 MLOAD SWAP1 POP SWAP2 SWAP1 POP JUMP JUMPDEST PUSH1 0x0 JUMPDEST DUP4 DUP2 LT ISZERO PUSH3 0x14B7 JUMPI DUP1 DUP3 ADD MLOAD DUP2 DUP5 ADD MSTORE PUSH1 0x20 DUP2 ADD SWAP1 POP PUSH3 0x149A JUMP JUMPDEST DUP4 DUP2 GT ISZERO PUSH3 0x14C7 JUMPI PUSH1 0x0 DUP5 DUP5 ADD MSTORE JUMPDEST POP POP POP POP JUMP JUMPDEST PUSH1 0x0 PUSH3 0x14DA DUP3 PUSH3 0x148C JUMP JUMPDEST PUSH3 0x14E6 DUP2 DUP6 PUSH3 0x1431 JUMP JUMPDEST SWAP4 POP PUSH3 0x14F8 DUP2 DUP6 PUSH1 0x20 DUP7 ADD PUSH3 0x1497 JUMP JUMPDEST DUP1 DUP5 ADD SWAP2 POP POP SWAP3 SWAP2 POP POP JUMP JUMPDEST PUSH32 0x206973206D697373696E6720726F6C6520000000000000000000000000000000 PUSH1 0x0 DUP3 ADD MSTORE POP JUMP JUMPDEST PUSH1 0x0 PUSH3 0x153C PUSH1 0x11 DUP4 PUSH3 0x1431 JUMP JUMPDEST SWAP2 POP PUSH3 0x1549 DUP3 PUSH3 0x1504 JUMP JUMPDEST PUSH1 0x11 DUP3 ADD SWAP1 POP SWAP2 SWAP1 POP JUMP JUMPDEST PUSH1 0x0 PUSH3 0x1561 DUP3 PUSH3 0x1465 JUMP JUMPDEST SWAP2 POP PUSH3 0x156F DUP3 DUP6 PUSH3 0x14CD JUMP JUMPDEST SWAP2 POP PUSH3 0x157C DUP3 PUSH3 0x152D JUMP JUMPDEST SWAP2 POP PUSH3 0x158A DUP3 DUP5 PUSH3 0x14CD JUMP JUMPDEST SWAP2 POP DUP2 SWAP1 POP SWAP4 SWAP3 POP POP POP JUMP JUMPDEST PUSH1 0x0 PUSH1 0x1F NOT PUSH1 0x1F DUP4 ADD AND SWAP1 POP SWAP2 SWAP1 POP JUMP JUMPDEST PUSH1 0x0 PUSH3 0x15B4 DUP3 PUSH3 0x148C JUMP JUMPDEST PUSH3 0x15C0 DUP2 DUP6 PUSH3 0x11BF JUMP JUMPDEST SWAP4 POP PUSH3 0x15D2 DUP2 DUP6 PUSH1 0x20 DUP7 ADD PUSH3 0x1497 JUMP JUMPDEST PUSH3 0x15DD DUP2 PUSH3 0x1596 JUMP JUMPDEST DUP5 ADD SWAP2 POP POP SWAP3 SWAP2 POP POP JUMP JUMPDEST PUSH1 0x0 PUSH1 0x20 DUP3 ADD SWAP1 POP DUP2 DUP2 SUB PUSH1 0x0 DUP4 ADD MSTORE PUSH3 0x1604 DUP2 DUP5 PUSH3 0x15A7 JUMP JUMPDEST SWAP1 POP SWAP3 SWAP2 POP POP JUMP JUMPDEST PUSH1 0x0 PUSH3 0x1619 DUP3 PUSH3 0x12B4 JUMP JUMPDEST SWAP2 POP PUSH3 0x1626 DUP4 PUSH3 0x12B4 JUMP JUMPDEST SWAP3 POP DUP2 PUSH32 0xFFFFFFFFFFFFFFFFFFFFFFFFFFFFFFFFFFFFFFFFFFFFFFFFFFFFFFFFFFFFFFFF DIV DUP4 GT DUP3 ISZERO ISZERO AND ISZERO PUSH3 0x1662 JUMPI PUSH3 0x1661 PUSH3 0x12BE JUMP JUMPDEST JUMPDEST DUP3 DUP3 MUL SWAP1 POP SWAP3 SWAP2 POP POP JUMP JUMPDEST PUSH32 0x4E487B7100000000000000000000000000000000000000000000000000000000 PUSH1 0x0 MSTORE PUSH1 0x41 PUSH1 0x4 MSTORE PUSH1 0x24 PUSH1 0x0 REVERT JUMPDEST PUSH32 0x4E487B7100000000000000000000000000000000000000000000000000000000 PUSH1 0x0 MSTORE PUSH1 0x32 PUSH1 0x4 MSTORE PUSH1 0x24 PUSH1 0x0 REVERT JUMPDEST PUSH1 0x0 PUSH3 0x16D8 DUP3 PUSH3 0x12B4 JUMP JUMPDEST SWAP2 POP PUSH1 0x0 DUP3 SUB PUSH3 0x16EE JUMPI PUSH3 0x16ED PUSH3 0x12BE JUMP JUMPDEST JUMPDEST PUSH1 0x1 DUP3 SUB SWAP1 POP SWAP2 SWAP1 POP JUMP JUMPDEST PUSH32 0x537472696E67733A20686578206C656E67746820696E73756666696369656E74 PUSH1 0x0 DUP3 ADD MSTORE POP JUMP JUMPDEST PUSH1 0x0 PUSH3 0x1731 PUSH1 0x20 DUP4 PUSH3 0x11BF JUMP JUMPDEST SWAP2 POP PUSH3 0x173E DUP3 PUSH3 0x16F9 JUMP JUMPDEST PUSH1 0x20 DUP3 ADD SWAP1 POP SWAP2 SWAP1 POP JUMP JUMPDEST PUSH1 0x0 PUSH1 0x20 DUP3 ADD SWAP1 POP DUP2 DUP2 SUB PUSH1 0x0 DUP4 ADD MSTORE PUSH3 0x1764 DUP2 PUSH3 0x1722 JUMP JUMPDEST SWAP1 POP SWAP2 SWAP1 POP JUMP JUMPDEST PUSH32 0x4E487B7100000000000000000000000000000000000000000000000000000000 PUSH1 0x0 MSTORE PUSH1 0x22 PUSH1 0x4 MSTORE PUSH1 0x24 PUSH1 0x0 REVERT JUMPDEST PUSH1 0x0 PUSH1 0x2 DUP3 DIV SWAP1 POP PUSH1 0x1 DUP3 AND DUP1 PUSH3 0x17B3 JUMPI PUSH1 0x7F DUP3 AND SWAP2 POP JUMPDEST PUSH1 0x20 DUP3 LT DUP2 SUB PUSH3 0x17C9 JUMPI PUSH3 0x17C8 PUSH3 0x176B JUMP JUMPDEST JUMPDEST POP SWAP2 SWAP1 POP JUMP JUMPDEST PUSH1 0x80 MLOAD PUSH2 0x493A PUSH3 0x1807 PUSH1 0x0 CODECOPY PUSH1 0x0 DUP2 DUP2 PUSH2 0xBD9 ADD MSTORE DUP2 DUP2 PUSH2 0x103D ADD MSTORE DUP2 DUP2 PUSH2 0x164B ADD MSTORE DUP2 DUP2 PUSH2 0x1692 ADD MSTORE PUSH2 0x2877 ADD MSTORE PUSH2 0x493A PUSH1 0x0 RETURN INVALID PUSH1 0x80 PUSH1 0x40 MSTORE CALLVALUE DUP1 ISZERO PUSH2 0x10 JUMPI PUSH1 0x0 DUP1 REVERT JUMPDEST POP PUSH1 0x4 CALLDATASIZE LT PUSH2 0x21C JUMPI PUSH1 0x0 CALLDATALOAD PUSH1 0xE0 SHR DUP1 PUSH4 0x95D89B41 GT PUSH2 0x125 JUMPI DUP1 PUSH4 0xCACA36E1 GT PUSH2 0xAD JUMPI DUP1 PUSH4 0xD547741F GT PUSH2 0x7C JUMPI DUP1 PUSH4 0xD547741F EQ PUSH2 0x654 JUMPI DUP1 PUSH4 0xE79EEE5E EQ PUSH2 0x670 JUMPI DUP1 PUSH4 0xE985E9C5 EQ PUSH2 0x6A0 JUMPI DUP1 PUSH4 0xF2FDE38B EQ PUSH2 0x6D0 JUMPI DUP1 PUSH4 0xFE9EF85F EQ PUSH2 0x6EC JUMPI PUSH2 0x21C JUMP JUMPDEST DUP1 PUSH4 0xCACA36E1 EQ PUSH2 0x5C5 JUMPI DUP1 PUSH4 0xCE41607A EQ PUSH2 0x5E1 JUMPI DUP1 PUSH4 0xCF35BDD0 EQ PUSH2 0x5FF JUMPI DUP1 PUSH4 0xD5391393 EQ PUSH2 0x636 JUMPI PUSH2 0x21C JUMP JUMPDEST DUP1 PUSH4 0xAEAF9020 GT PUSH2 0xF4 JUMPI DUP1 PUSH4 0xAEAF9020 EQ PUSH2 0x511 JUMPI DUP1 PUSH4 0xB19B5B4C EQ PUSH2 0x541 JUMPI DUP1 PUSH4 0xB88D4FDE EQ PUSH2 0x55D JUMPI DUP1 PUSH4 0xC0B1C627 EQ PUSH2 0x579 JUMPI DUP1 PUSH4 0xC87B56DD EQ PUSH2 0x595 JUMPI PUSH2 0x21C JUMP JUMPDEST DUP1 PUSH4 0x95D89B41 EQ PUSH2 0x49D JUMPI DUP1 PUSH4 0x9CFF6832 EQ PUSH2 0x4BB JUMPI DUP1 PUSH4 0xA217FDDF EQ PUSH2 0x4D7 JUMPI DUP1 PUSH4 0xA22CB465 EQ PUSH2 0x4F5 JUMPI PUSH2 0x21C JUMP JUMPDEST DUP1 PUSH4 0x3FE3347A GT PUSH2 0x1A8 JUMPI DUP1 PUSH4 0x70A08231 GT PUSH2 0x177 JUMPI DUP1 PUSH4 0x70A08231 EQ PUSH2 0x3E5 JUMPI DUP1 PUSH4 0x715018A6 EQ PUSH2 0x415 JUMPI DUP1 PUSH4 0x87FEC775 EQ PUSH2 0x41F JUMPI DUP1 PUSH4 0x8DA5CB5B EQ PUSH2 0x44F JUMPI DUP1 PUSH4 0x91D14854 EQ PUSH2 0x46D JUMPI PUSH2 0x21C JUMP JUMPDEST DUP1 PUSH4 0x3FE3347A EQ PUSH2 0x35D JUMPI DUP1 PUSH4 0x42842E0E EQ PUSH2 0x37B JUMPI DUP1 PUSH4 0x44DE240A EQ PUSH2 0x397 JUMPI DUP1 PUSH4 0x6352211E EQ PUSH2 0x3B5 JUMPI PUSH2 0x21C JUMP JUMPDEST DUP1 PUSH4 0x219A1D77 GT PUSH2 0x1EF JUMPI DUP1 PUSH4 0x219A1D77 EQ PUSH2 0x2BB JUMPI DUP1 PUSH4 0x23B872DD EQ PUSH2 0x2D9 JUMPI DUP1 PUSH4 0x248A9CA3 EQ PUSH2 0x2F5 JUMPI DUP1 PUSH4 0x2F2FF15D EQ PUSH2 0x325 JUMPI DUP1 PUSH4 0x36568ABE EQ PUSH2 0x341 JUMPI PUSH2 0x21C JUMP JUMPDEST DUP1 PUSH4 0x1FFC9A7 EQ PUSH2 0x221 JUMPI DUP1 PUSH4 0x6FDDE03 EQ PUSH2 0x251 JUMPI DUP1 PUSH4 0x81812FC EQ PUSH2 0x26F JUMPI DUP1 PUSH4 0x95EA7B3 EQ PUSH2 0x29F JUMPI JUMPDEST PUSH1 0x0 DUP1 REVERT JUMPDEST PUSH2 0x23B PUSH1 0x4 DUP1 CALLDATASIZE SUB DUP2 ADD SWAP1 PUSH2 0x236 SWAP2 SWAP1 PUSH2 0x307B JUMP JUMPDEST PUSH2 0x70A JUMP JUMPDEST PUSH1 0x40 MLOAD PUSH2 0x248 SWAP2 SWAP1 PUSH2 0x30C3 JUMP JUMPDEST PUSH1 0x40 MLOAD DUP1 SWAP2 SUB SWAP1 RETURN JUMPDEST PUSH2 0x259 PUSH2 0x71C JUMP JUMPDEST PUSH1 0x40 MLOAD PUSH2 0x266 SWAP2 SWAP1 PUSH2 0x3177 JUMP JUMPDEST PUSH1 0x40 MLOAD DUP1 SWAP2 SUB SWAP1 RETURN JUMPDEST PUSH2 0x289 PUSH1 0x4 DUP1 CALLDATASIZE SUB DUP2 ADD SWAP1 PUSH2 0x284 SWAP2 SWAP1 PUSH2 0x31CF JUMP JUMPDEST PUSH2 0x7AE JUMP JUMPDEST PUSH1 0x40 MLOAD PUSH2 0x296 SWAP2 SWAP1 PUSH2 0x323D JUMP JUMPDEST PUSH1 0x40 MLOAD DUP1 SWAP2 SUB SWAP1 RETURN JUMPDEST PUSH2 0x2B9 PUSH1 0x4 DUP1 CALLDATASIZE SUB DUP2 ADD SWAP1 PUSH2 0x2B4 SWAP2 SWAP1 PUSH2 0x3284 JUMP JUMPDEST PUSH2 0x7F4 JUMP JUMPDEST STOP JUMPDEST PUSH2 0x2C3 PUSH2 0x90B JUMP JUMPDEST PUSH1 0x40 MLOAD PUSH2 0x2D0 SWAP2 SWAP1 PUSH2 0x323D JUMP JUMPDEST PUSH1 0x40 MLOAD DUP1 SWAP2 SUB SWAP1 RETURN JUMPDEST PUSH2 0x2F3 PUSH1 0x4 DUP1 CALLDATASIZE SUB DUP2 ADD SWAP1 PUSH2 0x2EE SWAP2 SWAP1 PUSH2 0x32C4 JUMP JUMPDEST PUSH2 0x91A JUMP JUMPDEST STOP JUMPDEST PUSH2 0x30F PUSH1 0x4 DUP1 CALLDATASIZE SUB DUP2 ADD SWAP1 PUSH2 0x30A SWAP2 SWAP1 PUSH2 0x334D JUMP JUMPDEST PUSH2 0x97A JUMP JUMPDEST PUSH1 0x40 MLOAD PUSH2 0x31C SWAP2 SWAP1 PUSH2 0x3389 JUMP JUMPDEST PUSH1 0x40 MLOAD DUP1 SWAP2 SUB SWAP1 RETURN JUMPDEST PUSH2 0x33F PUSH1 0x4 DUP1 CALLDATASIZE SUB DUP2 ADD SWAP1 PUSH2 0x33A SWAP2 SWAP1 PUSH2 0x33A4 JUMP JUMPDEST PUSH2 0x99A JUMP JUMPDEST STOP JUMPDEST PUSH2 0x35B PUSH1 0x4 DUP1 CALLDATASIZE SUB DUP2 ADD SWAP1 PUSH2 0x356 SWAP2 SWAP1 PUSH2 0x33A4 JUMP JUMPDEST PUSH2 0x9BB JUMP JUMPDEST STOP JUMPDEST PUSH2 0x365 PUSH2 0xA3E JUMP JUMPDEST PUSH1 0x40 MLOAD PUSH2 0x372 SWAP2 SWAP1 PUSH2 0x345B JUMP JUMPDEST PUSH1 0x40 MLOAD DUP1 SWAP2 SUB SWAP1 RETURN JUMPDEST PUSH2 0x395 PUSH1 0x4 DUP1 CALLDATASIZE SUB DUP2 ADD SWAP1 PUSH2 0x390 SWAP2 SWAP1 PUSH2 0x32C4 JUMP JUMPDEST PUSH2 0xA51 JUMP JUMPDEST STOP JUMPDEST PUSH2 0x39F PUSH2 0xA71 JUMP JUMPDEST PUSH1 0x40 MLOAD PUSH2 0x3AC SWAP2 SWAP1 PUSH2 0x3492 JUMP JUMPDEST PUSH1 0x40 MLOAD DUP1 SWAP2 SUB SWAP1 RETURN JUMPDEST PUSH2 0x3CF PUSH1 0x4 DUP1 CALLDATASIZE SUB DUP2 ADD SWAP1 PUSH2 0x3CA SWAP2 SWAP1 PUSH2 0x31CF JUMP JUMPDEST PUSH2 0xA84 JUMP JUMPDEST PUSH1 0x40 MLOAD PUSH2 0x3DC SWAP2 SWAP1 PUSH2 0x323D JUMP JUMPDEST PUSH1 0x40 MLOAD DUP1 SWAP2 SUB SWAP1 RETURN JUMPDEST PUSH2 0x3FF PUSH1 0x4 DUP1 CALLDATASIZE SUB DUP2 ADD SWAP1 PUSH2 0x3FA SWAP2 SWAP1 PUSH2 0x34AD JUMP JUMPDEST PUSH2 0xB0A JUMP JUMPDEST PUSH1 0x40 MLOAD PUSH2 0x40C SWAP2 SWAP1 PUSH2 0x34E9 JUMP JUMPDEST PUSH1 0x40 MLOAD DUP1 SWAP2 SUB SWAP1 RETURN JUMPDEST PUSH2 0x41D PUSH2 0xBC1 JUMP JUMPDEST STOP JUMPDEST PUSH2 0x439 PUSH1 0x4 DUP1 CALLDATASIZE SUB DUP2 ADD SWAP1 PUSH2 0x434 SWAP2 SWAP1 PUSH2 0x355C JUMP JUMPDEST PUSH2 0xBD5 JUMP JUMPDEST PUSH1 0x40 MLOAD PUSH2 0x446 SWAP2 SWAP1 PUSH2 0x30C3 JUMP JUMPDEST PUSH1 0x40 MLOAD DUP1 SWAP2 SUB SWAP1 RETURN JUMPDEST PUSH2 0x457 PUSH2 0xC80 JUMP JUMPDEST PUSH1 0x40 MLOAD PUSH2 0x464 SWAP2 SWAP1 PUSH2 0x323D JUMP JUMPDEST PUSH1 0x40 MLOAD DUP1 SWAP2 SUB SWAP1 RETURN JUMPDEST PUSH2 0x487 PUSH1 0x4 DUP1 CALLDATASIZE SUB DUP2 ADD SWAP1 PUSH2 0x482 SWAP2 SWAP1 PUSH2 0x33A4 JUMP JUMPDEST PUSH2 0xCAA JUMP JUMPDEST PUSH1 0x40 MLOAD PUSH2 0x494 SWAP2 SWAP1 PUSH2 0x30C3 JUMP JUMPDEST PUSH1 0x40 MLOAD DUP1 SWAP2 SUB SWAP1 RETURN JUMPDEST PUSH2 0x4A5 PUSH2 0xD15 JUMP JUMPDEST PUSH1 0x40 MLOAD PUSH2 0x4B2 SWAP2 SWAP1 PUSH2 0x3177 JUMP JUMPDEST PUSH1 0x40 MLOAD DUP1 SWAP2 SUB SWAP1 RETURN JUMPDEST PUSH2 0x4D5 PUSH1 0x4 DUP1 CALLDATASIZE SUB DUP2 ADD SWAP1 PUSH2 0x4D0 SWAP2 SWAP1 PUSH2 0x34AD JUMP JUMPDEST PUSH2 0xDA7 JUMP JUMPDEST STOP JUMPDEST PUSH2 0x4DF PUSH2 0xDBB JUMP JUMPDEST PUSH1 0x40 MLOAD PUSH2 0x4EC SWAP2 SWAP1 PUSH2 0x3389 JUMP JUMPDEST PUSH1 0x40 MLOAD DUP1 SWAP2 SUB SWAP1 RETURN JUMPDEST PUSH2 0x50F PUSH1 0x4 DUP1 CALLDATASIZE SUB DUP2 ADD SWAP1 PUSH2 0x50A SWAP2 SWAP1 PUSH2 0x359C JUMP JUMPDEST PUSH2 0xDC2 JUMP JUMPDEST STOP JUMPDEST PUSH2 0x52B PUSH1 0x4 DUP1 CALLDATASIZE SUB DUP2 ADD SWAP1 PUSH2 0x526 SWAP2 SWAP1 PUSH2 0x35DC JUMP JUMPDEST PUSH2 0xDD8 JUMP JUMPDEST PUSH1 0x40 MLOAD PUSH2 0x538 SWAP2 SWAP1 PUSH2 0x30C3 JUMP JUMPDEST PUSH1 0x40 MLOAD DUP1 SWAP2 SUB SWAP1 RETURN JUMPDEST PUSH2 0x55B PUSH1 0x4 DUP1 CALLDATASIZE SUB DUP2 ADD SWAP1 PUSH2 0x556 SWAP2 SWAP1 PUSH2 0x3609 JUMP JUMPDEST PUSH2 0xE22 JUMP JUMPDEST STOP JUMPDEST PUSH2 0x577 PUSH1 0x4 DUP1 CALLDATASIZE SUB DUP2 ADD SWAP1 PUSH2 0x572 SWAP2 SWAP1 PUSH2 0x377E JUMP JUMPDEST PUSH2 0xFD9 JUMP JUMPDEST STOP JUMPDEST PUSH2 0x593 PUSH1 0x4 DUP1 CALLDATASIZE SUB DUP2 ADD SWAP1 PUSH2 0x58E SWAP2 SWAP1 PUSH2 0x38C1 JUMP JUMPDEST PUSH2 0x103B JUMP JUMPDEST STOP JUMPDEST PUSH2 0x5AF PUSH1 0x4 DUP1 CALLDATASIZE SUB DUP2 ADD SWAP1 PUSH2 0x5AA SWAP2 SWAP1 PUSH2 0x31CF JUMP JUMPDEST PUSH2 0x1301 JUMP JUMPDEST PUSH1 0x40 MLOAD PUSH2 0x5BC SWAP2 SWAP1 PUSH2 0x3177 JUMP JUMPDEST PUSH1 0x40 MLOAD DUP1 SWAP2 SUB SWAP1 RETURN JUMPDEST PUSH2 0x5DF PUSH1 0x4 DUP1 CALLDATASIZE SUB DUP2 ADD SWAP1 PUSH2 0x5DA SWAP2 SWAP1 PUSH2 0x3609 JUMP JUMPDEST PUSH2 0x1369 JUMP JUMPDEST STOP JUMPDEST PUSH2 0x5E9 PUSH2 0x1535 JUMP JUMPDEST PUSH1 0x40 MLOAD PUSH2 0x5F6 SWAP2 SWAP1 PUSH2 0x34E9 JUMP JUMPDEST PUSH1 0x40 MLOAD DUP1 SWAP2 SUB SWAP1 RETURN JUMPDEST PUSH2 0x619 PUSH1 0x4 DUP1 CALLDATASIZE SUB DUP2 ADD SWAP1 PUSH2 0x614 SWAP2 SWAP1 PUSH2 0x31CF JUMP JUMPDEST PUSH2 0x155E JUMP JUMPDEST PUSH1 0x40 MLOAD PUSH2 0x62D SWAP9 SWAP8 SWAP7 SWAP6 SWAP5 SWAP4 SWAP3 SWAP2 SWAP1 PUSH2 0x39B4 JUMP JUMPDEST PUSH1 0x40 MLOAD DUP1 SWAP2 SUB SWAP1 RETURN JUMPDEST PUSH2 0x63E PUSH2 0x1649 JUMP JUMPDEST PUSH1 0x40 MLOAD PUSH2 0x64B SWAP2 SWAP1 PUSH2 0x3389 JUMP JUMPDEST PUSH1 0x40 MLOAD DUP1 SWAP2 SUB SWAP1 RETURN JUMPDEST PUSH2 0x66E PUSH1 0x4 DUP1 CALLDATASIZE SUB DUP2 ADD SWAP1 PUSH2 0x669 SWAP2 SWAP1 PUSH2 0x33A4 JUMP JUMPDEST PUSH2 0x166D JUMP JUMPDEST STOP JUMPDEST PUSH2 0x68A PUSH1 0x4 DUP1 CALLDATASIZE SUB DUP2 ADD SWAP1 PUSH2 0x685 SWAP2 SWAP1 PUSH2 0x3A32 JUMP JUMPDEST PUSH2 0x168E JUMP JUMPDEST PUSH1 0x40 MLOAD PUSH2 0x697 SWAP2 SWAP1 PUSH2 0x3A72 JUMP JUMPDEST PUSH1 0x40 MLOAD DUP1 SWAP2 SUB SWAP1 RETURN JUMPDEST PUSH2 0x6BA PUSH1 0x4 DUP1 CALLDATASIZE SUB DUP2 ADD SWAP1 PUSH2 0x6B5 SWAP2 SWAP1 PUSH2 0x3A8D JUMP JUMPDEST PUSH2 0x1743 JUMP JUMPDEST PUSH1 0x40 MLOAD PUSH2 0x6C7 SWAP2 SWAP1 PUSH2 0x30C3 JUMP JUMPDEST PUSH1 0x40 MLOAD DUP1 SWAP2 SUB SWAP1 RETURN JUMPDEST PUSH2 0x6EA PUSH1 0x4 DUP1 CALLDATASIZE SUB DUP2 ADD SWAP1 PUSH2 0x6E5 SWAP2 SWAP1 PUSH2 0x34AD JUMP JUMPDEST PUSH2 0x17D7 JUMP JUMPDEST STOP JUMPDEST PUSH2 0x6F4 PUSH2 0x185A JUMP JUMPDEST PUSH1 0x40 MLOAD PUSH2 0x701 SWAP2 SWAP1 PUSH2 0x3ACD JUMP JUMPDEST PUSH1 0x40 MLOAD DUP1 SWAP2 SUB SWAP1 RETURN JUMPDEST PUSH1 0x0 PUSH2 0x715 DUP3 PUSH2 0x1AD6 JUMP JUMPDEST SWAP1 POP SWAP2 SWAP1 POP JUMP JUMPDEST PUSH1 0x60 PUSH1 0x0 DUP1 SLOAD PUSH2 0x72B SWAP1 PUSH2 0x3B17 JUMP JUMPDEST DUP1 PUSH1 0x1F ADD PUSH1 0x20 DUP1 SWAP2 DIV MUL PUSH1 0x20 ADD PUSH1 0x40 MLOAD SWAP1 DUP2 ADD PUSH1 0x40 MSTORE DUP1 SWAP3 SWAP2 SWAP1 DUP2 DUP2 MSTORE PUSH1 0x20 ADD DUP3 DUP1 SLOAD PUSH2 0x757 SWAP1 PUSH2 0x3B17 JUMP JUMPDEST DUP1 ISZERO PUSH2 0x7A4 JUMPI DUP1 PUSH1 0x1F LT PUSH2 0x779 JUMPI PUSH2 0x100 DUP1 DUP4 SLOAD DIV MUL DUP4 MSTORE SWAP2 PUSH1 0x20 ADD SWAP2 PUSH2 0x7A4 JUMP JUMPDEST DUP3 ADD SWAP2 SWAP1 PUSH1 0x0 MSTORE PUSH1 0x20 PUSH1 0x0 KECCAK256 SWAP1 JUMPDEST DUP2 SLOAD DUP2 MSTORE SWAP1 PUSH1 0x1 ADD SWAP1 PUSH1 0x20 ADD DUP1 DUP4 GT PUSH2 0x787 JUMPI DUP3 SWAP1 SUB PUSH1 0x1F AND DUP3 ADD SWAP2 JUMPDEST POP POP POP POP POP SWAP1 POP SWAP1 JUMP JUMPDEST PUSH1 0x0 PUSH2 0x7B9 DUP3 PUSH2 0x1B50 JUMP JUMPDEST PUSH1 0x4 PUSH1 0x0 DUP4 DUP2 MSTORE PUSH1 0x20 ADD SWAP1 DUP2 MSTORE PUSH1 0x20 ADD PUSH1 0x0 KECCAK256 PUSH1 0x0 SWAP1 SLOAD SWAP1 PUSH2 0x100 EXP SWAP1 DIV PUSH20 0xFFFFFFFFFFFFFFFFFFFFFFFFFFFFFFFFFFFFFFFF AND SWAP1 POP SWAP2 SWAP1 POP JUMP JUMPDEST PUSH1 0x0 PUSH2 0x7FF DUP3 PUSH2 0xA84 JUMP JUMPDEST SWAP1 POP DUP1 PUSH20 0xFFFFFFFFFFFFFFFFFFFFFFFFFFFFFFFFFFFFFFFF AND DUP4 PUSH20 0xFFFFFFFFFFFFFFFFFFFFFFFFFFFFFFFFFFFFFFFF AND SUB PUSH2 0x86F JUMPI PUSH1 0x40 MLOAD PUSH32 0x8C379A000000000000000000000000000000000000000000000000000000000 DUP2 MSTORE PUSH1 0x4 ADD PUSH2 0x866 SWAP1 PUSH2 0x3BBA JUMP JUMPDEST PUSH1 0x40 MLOAD DUP1 SWAP2 SUB SWAP1 REVERT JUMPDEST DUP1 PUSH20 0xFFFFFFFFFFFFFFFFFFFFFFFFFFFFFFFFFFFFFFFF AND PUSH2 0x88E PUSH2 0x1B9B JUMP JUMPDEST PUSH20 0xFFFFFFFFFFFFFFFFFFFFFFFFFFFFFFFFFFFFFFFF AND EQ DUP1 PUSH2 0x8BD JUMPI POP PUSH2 0x8BC DUP2 PUSH2 0x8B7 PUSH2 0x1B9B JUMP JUMPDEST PUSH2 0x1743 JUMP JUMPDEST JUMPDEST PUSH2 0x8FC JUMPI PUSH1 0x40 MLOAD PUSH32 0x8C379A000000000000000000000000000000000000000000000000000000000 DUP2 MSTORE PUSH1 0x4 ADD PUSH2 0x8F3 SWAP1 PUSH2 0x3C4C JUMP JUMPDEST PUSH1 0x40 MLOAD DUP1 SWAP2 SUB SWAP1 REVERT JUMPDEST PUSH2 0x906 DUP4 DUP4 PUSH2 0x1BA3 JUMP JUMPDEST POP POP POP JUMP JUMPDEST PUSH1 0x0 PUSH2 0x915 PUSH2 0xC80 JUMP JUMPDEST SWAP1 POP SWAP1 JUMP JUMPDEST PUSH2 0x92B PUSH2 0x925 PUSH2 0x1B9B JUMP JUMPDEST DUP3 PUSH2 0x1C5C JUMP JUMPDEST PUSH2 0x96A JUMPI PUSH1 0x40 MLOAD PUSH32 0x8C379A000000000000000000000000000000000000000000000000000000000 DUP2 MSTORE PUSH1 0x4 ADD PUSH2 0x961 SWAP1 PUSH2 0x3CDE JUMP JUMPDEST PUSH1 0x40 MLOAD DUP1 SWAP2 SUB SWAP1 REVERT JUMPDEST PUSH2 0x975 DUP4 DUP4 DUP4 PUSH2 0x1CF1 JUMP JUMPDEST POP POP POP JUMP JUMPDEST PUSH1 0x0 PUSH1 0x7 PUSH1 0x0 DUP4 DUP2 MSTORE PUSH1 0x20 ADD SWAP1 DUP2 MSTORE PUSH1 0x20 ADD PUSH1 0x0 KECCAK256 PUSH1 0x1 ADD SLOAD SWAP1 POP SWAP2 SWAP1 POP JUMP JUMPDEST PUSH2 0x9A3 DUP3 PUSH2 0x97A JUMP JUMPDEST PUSH2 0x9AC DUP2 PUSH2 0x1FEA JUMP JUMPDEST PUSH2 0x9B6 DUP4 DUP4 PUSH2 0x1FFE JUMP JUMPDEST POP POP POP JUMP JUMPDEST PUSH2 0x9C3 PUSH2 0x1B9B JUMP JUMPDEST PUSH20 0xFFFFFFFFFFFFFFFFFFFFFFFFFFFFFFFFFFFFFFFF AND DUP2 PUSH20 0xFFFFFFFFFFFFFFFFFFFFFFFFFFFFFFFFFFFFFFFF AND EQ PUSH2 0xA30 JUMPI PUSH1 0x40 MLOAD PUSH32 0x8C379A000000000000000000000000000000000000000000000000000000000 DUP2 MSTORE PUSH1 0x4 ADD PUSH2 0xA27 SWAP1 PUSH2 0x3D70 JUMP JUMPDEST PUSH1 0x40 MLOAD DUP1 SWAP2 SUB SWAP1 REVERT JUMPDEST PUSH2 0xA3A DUP3 DUP3 PUSH2 0x20DF JUMP JUMPDEST POP POP JUMP JUMPDEST PUSH1 0x8 PUSH1 0x2 SWAP1 SLOAD SWAP1 PUSH2 0x100 EXP SWAP1 DIV PUSH1 0xFF AND DUP2 JUMP JUMPDEST PUSH2 0xA6C DUP4 DUP4 DUP4 PUSH1 0x40 MLOAD DUP1 PUSH1 0x20 ADD PUSH1 0x40 MSTORE DUP1 PUSH1 0x0 DUP2 MSTORE POP PUSH2 0xFD9 JUMP JUMPDEST POP POP POP JUMP JUMPDEST PUSH1 0x8 PUSH1 0x0 SWAP1 SLOAD SWAP1 PUSH2 0x100 EXP SWAP1 DIV PUSH1 0xFF AND DUP2 JUMP JUMPDEST PUSH1 0x0 DUP1 PUSH2 0xA90 DUP4 PUSH2 0x21C1 JUMP JUMPDEST SWAP1 POP PUSH1 0x0 PUSH20 0xFFFFFFFFFFFFFFFFFFFFFFFFFFFFFFFFFFFFFFFF AND DUP2 PUSH20 0xFFFFFFFFFFFFFFFFFFFFFFFFFFFFFFFFFFFFFFFF AND SUB PUSH2 0xB01 JUMPI PUSH1 0x40 MLOAD PUSH32 0x8C379A000000000000000000000000000000000000000000000000000000000 DUP2 MSTORE PUSH1 0x4 ADD PUSH2 0xAF8 SWAP1 PUSH2 0x3DDC JUMP JUMPDEST PUSH1 0x40 MLOAD DUP1 SWAP2 SUB SWAP1 REVERT JUMPDEST DUP1 SWAP2 POP POP SWAP2 SWAP1 POP JUMP JUMPDEST PUSH1 0x0 DUP1 PUSH20 0xFFFFFFFFFFFFFFFFFFFFFFFFFFFFFFFFFFFFFFFF AND DUP3 PUSH20 0xFFFFFFFFFFFFFFFFFFFFFFFFFFFFFFFFFFFFFFFF AND SUB PUSH2 0xB7A JUMPI PUSH1 0x40 MLOAD PUSH32 0x8C379A000000000000000000000000000000000000000000000000000000000 DUP2 MSTORE PUSH1 0x4 ADD PUSH2 0xB71 SWAP1 PUSH2 0x3E6E JUMP JUMPDEST PUSH1 0x40 MLOAD DUP1 SWAP2 SUB SWAP1 REVERT JUMPDEST PUSH1 0x3 PUSH1 0x0 DUP4 PUSH20 0xFFFFFFFFFFFFFFFFFFFFFFFFFFFFFFFFFFFFFFFF AND PUSH20 0xFFFFFFFFFFFFFFFFFFFFFFFFFFFFFFFFFFFFFFFF AND DUP2 MSTORE PUSH1 0x20 ADD SWAP1 DUP2 MSTORE PUSH1 0x20 ADD PUSH1 0x0 KECCAK256 SLOAD SWAP1 POP SWAP2 SWAP1 POP JUMP JUMPDEST PUSH2 0xBC9 PUSH2 0x21FE JUMP JUMPDEST PUSH2 0xBD3 PUSH1 0x0 PUSH2 0x227C JUMP JUMPDEST JUMP JUMPDEST PUSH1 0x0 PUSH32 0x0 PUSH2 0xC01 DUP2 PUSH2 0x1FEA JUMP JUMPDEST DUP3 PUSH1 0x9 DUP6 PUSH1 0xFF AND DUP2 SLOAD DUP2 LT PUSH2 0xC19 JUMPI PUSH2 0xC18 PUSH2 0x3E8E JUMP JUMPDEST JUMPDEST SWAP1 PUSH1 0x0 MSTORE PUSH1 0x20 PUSH1 0x0 KECCAK256 SWAP1 PUSH1 0x2 MUL ADD PUSH1 0x0 ADD PUSH1 0x1E PUSH2 0x100 EXP DUP2 SLOAD DUP2 PUSH1 0xFF MUL NOT AND SWAP1 DUP4 ISZERO ISZERO MUL OR SWAP1 SSTORE POP PUSH1 0x9 DUP5 PUSH1 0xFF AND DUP2 SLOAD DUP2 LT PUSH2 0xC58 JUMPI PUSH2 0xC57 PUSH2 0x3E8E JUMP JUMPDEST JUMPDEST SWAP1 PUSH1 0x0 MSTORE PUSH1 0x20 PUSH1 0x0 KECCAK256 SWAP1 PUSH1 0x2 MUL ADD PUSH1 0x0 ADD PUSH1 0x1E SWAP1 SLOAD SWAP1 PUSH2 0x100 EXP SWAP1 DIV PUSH1 0xFF AND SWAP2 POP POP SWAP3 SWAP2 POP POP JUMP JUMPDEST PUSH1 0x0 PUSH1 0x6 PUSH1 0x0 SWAP1 SLOAD SWAP1 PUSH2 0x100 EXP SWAP1 DIV PUSH20 0xFFFFFFFFFFFFFFFFFFFFFFFFFFFFFFFFFFFFFFFF AND SWAP1 POP SWAP1 JUMP JUMPDEST PUSH1 0x0 PUSH1 0x7 PUSH1 0x0 DUP5 DUP2 MSTORE PUSH1 0x20 ADD SWAP1 DUP2 MSTORE PUSH1 0x20 ADD PUSH1 0x0 KECCAK256 PUSH1 0x0 ADD PUSH1 0x0 DUP4 PUSH20 0xFFFFFFFFFFFFFFFFFFFFFFFFFFFFFFFFFFFFFFFF AND PUSH20 0xFFFFFFFFFFFFFFFFFFFFFFFFFFFFFFFFFFFFFFFF AND DUP2 MSTORE PUSH1 0x20 ADD SWAP1 DUP2 MSTORE PUSH1 0x20 ADD PUSH1 0x0 KECCAK256 PUSH1 0x0 SWAP1 SLOAD SWAP1 PUSH2 0x100 EXP SWAP1 DIV PUSH1 0xFF AND SWAP1 POP SWAP3 SWAP2 POP POP JUMP JUMPDEST PUSH1 0x60 PUSH1 0x1 DUP1 SLOAD PUSH2 0xD24 SWAP1 PUSH2 0x3B17 JUMP JUMPDEST DUP1 PUSH1 0x1F ADD PUSH1 0x20 DUP1 SWAP2 DIV MUL PUSH1 0x20 ADD PUSH1 0x40 MLOAD SWAP1 DUP2 ADD PUSH1 0x40 MSTORE DUP1 SWAP3 SWAP2 SWAP1 DUP2 DUP2 MSTORE PUSH1 0x20 ADD DUP3 DUP1 SLOAD PUSH2 0xD50 SWAP1 PUSH2 0x3B17 JUMP JUMPDEST DUP1 ISZERO PUSH2 0xD9D JUMPI DUP1 PUSH1 0x1F LT PUSH2 0xD72 JUMPI PUSH2 0x100 DUP1 DUP4 SLOAD DIV MUL DUP4 MSTORE SWAP2 PUSH1 0x20 ADD SWAP2 PUSH2 0xD9D JUMP JUMPDEST DUP3 ADD SWAP2 SWAP1 PUSH1 0x0 MSTORE PUSH1 0x20 PUSH1 0x0 KECCAK256 SWAP1 JUMPDEST DUP2 SLOAD DUP2 MSTORE SWAP1 PUSH1 0x1 ADD SWAP1 PUSH1 0x20 ADD DUP1 DUP4 GT PUSH2 0xD80 JUMPI DUP3 SWAP1 SUB PUSH1 0x1F AND DUP3 ADD SWAP2 JUMPDEST POP POP POP POP POP SWAP1 POP SWAP1 JUMP JUMPDEST PUSH2 0xDAF PUSH2 0x21FE JUMP JUMPDEST PUSH2 0xDB8 DUP2 PUSH2 0x17D7 JUMP JUMPDEST POP JUMP JUMPDEST PUSH1 0x0 DUP1 SHL DUP2 JUMP JUMPDEST PUSH2 0xDD4 PUSH2 0xDCD PUSH2 0x1B9B JUMP JUMPDEST DUP4 DUP4 PUSH2 0x2342 JUMP JUMPDEST POP POP JUMP JUMPDEST PUSH1 0x0 DUP1 PUSH1 0x9 DUP4 PUSH1 0xFF AND DUP2 SLOAD DUP2 LT PUSH2 0xDF2 JUMPI PUSH2 0xDF1 PUSH2 0x3E8E JUMP JUMPDEST JUMPDEST SWAP1 PUSH1 0x0 MSTORE PUSH1 0x20 PUSH1 0x0 KECCAK256 SWAP1 PUSH1 0x2 MUL ADD PUSH1 0x0 ADD PUSH1 0x1A SWAP1 SLOAD SWAP1 PUSH2 0x100 EXP SWAP1 DIV PUSH4 0xFFFFFFFF AND PUSH4 0xFFFFFFFF AND EQ SWAP1 POP SWAP2 SWAP1 POP JUMP JUMPDEST DUP2 DUP2 PUSH1 0x9 DUP3 PUSH1 0xFF AND DUP2 SLOAD DUP2 LT PUSH2 0xE3B JUMPI PUSH2 0xE3A PUSH2 0x3E8E JUMP JUMPDEST JUMPDEST SWAP1 PUSH1 0x0 MSTORE PUSH1 0x20 PUSH1 0x0 KECCAK256 SWAP1 PUSH1 0x2 MUL ADD PUSH1 0x0 ADD PUSH1 0x0 SWAP1 SLOAD SWAP1 PUSH2 0x100 EXP SWAP1 DIV PUSH20 0xFFFFFFFFFFFFFFFFFFFFFFFFFFFFFFFFFFFFFFFF AND PUSH20 0xFFFFFFFFFFFFFFFFFFFFFFFFFFFFFFFFFFFFFFFF AND DUP2 PUSH20 0xFFFFFFFFFFFFFFFFFFFFFFFFFFFFFFFFFFFFFFFF AND EQ PUSH2 0xEDA JUMPI PUSH1 0x40 MLOAD PUSH32 0x8C379A000000000000000000000000000000000000000000000000000000000 DUP2 MSTORE PUSH1 0x4 ADD PUSH2 0xED1 SWAP1 PUSH2 0x3F2F JUMP JUMPDEST PUSH1 0x40 MLOAD DUP1 SWAP2 SUB SWAP1 REVERT JUMPDEST DUP4 PUSH1 0x9 DUP2 PUSH1 0xFF AND DUP2 SLOAD DUP2 LT PUSH2 0xEF2 JUMPI PUSH2 0xEF1 PUSH2 0x3E8E JUMP JUMPDEST JUMPDEST SWAP1 PUSH1 0x0 MSTORE PUSH1 0x20 PUSH1 0x0 KECCAK256 SWAP1 PUSH1 0x2 MUL ADD PUSH1 0x0 ADD PUSH1 0x17 SWAP1 SLOAD SWAP1 PUSH2 0x100 EXP SWAP1 DIV PUSH2 0xFFFF AND PUSH2 0xFFFF AND ADDRESS PUSH20 0xFFFFFFFFFFFFFFFFFFFFFFFFFFFFFFFFFFFFFFFF AND PUSH4 0xCE41607A PUSH1 0x40 MLOAD DUP2 PUSH4 0xFFFFFFFF AND PUSH1 0xE0 SHL DUP2 MSTORE PUSH1 0x4 ADD PUSH1 0x20 PUSH1 0x40 MLOAD DUP1 DUP4 SUB DUP2 DUP7 GAS STATICCALL ISZERO DUP1 ISZERO PUSH2 0xF61 JUMPI RETURNDATASIZE PUSH1 0x0 DUP1 RETURNDATACOPY RETURNDATASIZE PUSH1 0x0 REVERT JUMPDEST POP POP POP POP PUSH1 0x40 MLOAD RETURNDATASIZE PUSH1 0x1F NOT PUSH1 0x1F DUP3 ADD AND DUP3 ADD DUP1 PUSH1 0x40 MSTORE POP DUP2 ADD SWAP1 PUSH2 0xF85 SWAP2 SWAP1 PUSH2 0x3F64 JUMP JUMPDEST GT ISZERO PUSH2 0xFC6 JUMPI PUSH1 0x40 MLOAD PUSH32 0x8C379A000000000000000000000000000000000000000000000000000000000 DUP2 MSTORE PUSH1 0x4 ADD PUSH2 0xFBD SWAP1 PUSH2 0x3FDD JUMP JUMPDEST PUSH1 0x40 MLOAD DUP1 SWAP2 SUB SWAP1 REVERT JUMPDEST PUSH2 0xFD2 DUP6 PUSH1 0xFF AND PUSH2 0x24AE JUMP JUMPDEST POP POP POP POP POP JUMP JUMPDEST PUSH2 0xFEA PUSH2 0xFE4 PUSH2 0x1B9B JUMP JUMPDEST DUP4 PUSH2 0x1C5C JUMP JUMPDEST PUSH2 0x1029 JUMPI PUSH1 0x40 MLOAD PUSH32 0x8C379A000000000000000000000000000000000000000000000000000000000 DUP2 MSTORE PUSH1 0x4 ADD PUSH2 0x1020 SWAP1 PUSH2 0x3CDE JUMP JUMPDEST PUSH1 0x40 MLOAD DUP1 SWAP2 SUB SWAP1 REVERT JUMPDEST PUSH2 0x1035 DUP5 DUP5 DUP5 DUP5 PUSH2 0x25FC JUMP JUMPDEST POP POP POP POP JUMP JUMPDEST PUSH32 0x0 PUSH2 0x1065 DUP2 PUSH2 0x1FEA JUMP JUMPDEST PUSH1 0x0 PUSH1 0x8 PUSH1 0x0 DUP2 DUP2 SWAP1 SLOAD SWAP1 PUSH2 0x100 EXP SWAP1 DIV PUSH1 0xFF AND PUSH2 0x1082 SWAP1 PUSH2 0x402C JUMP JUMPDEST SWAP2 SWAP1 PUSH2 0x100 EXP DUP2 SLOAD DUP2 PUSH1 0xFF MUL NOT AND SWAP1 DUP4 PUSH1 0xFF AND MUL OR SWAP1 SSTORE SWAP1 POP PUSH1 0x9 PUSH1 0x40 MLOAD DUP1 PUSH2 0x100 ADD PUSH1 0x40 MSTORE DUP1 DUP11 PUSH20 0xFFFFFFFFFFFFFFFFFFFFFFFFFFFFFFFFFFFFFFFF AND DUP2 MSTORE PUSH1 0x20 ADD DUP10 PUSH1 0x1 DUP2 GT ISZERO PUSH2 0x10D8 JUMPI PUSH2 0x10D7 PUSH2 0x33E4 JUMP JUMPDEST JUMPDEST DUP2 MSTORE PUSH1 0x20 ADD DUP9 PUSH2 0xFFFF AND DUP2 MSTORE PUSH1 0x20 ADD DUP8 PUSH2 0xFFFF AND DUP2 MSTORE PUSH1 0x20 ADD DUP7 PUSH1 0x1 DUP2 GT ISZERO PUSH2 0x1104 JUMPI PUSH2 0x1103 PUSH2 0x33E4 JUMP JUMPDEST JUMPDEST DUP2 MSTORE PUSH1 0x20 ADD DUP6 PUSH4 0xFFFFFFFF AND DUP2 MSTORE PUSH1 0x20 ADD PUSH1 0x0 ISZERO ISZERO DUP2 MSTORE PUSH1 0x20 ADD DUP11 PUSH20 0xFFFFFFFFFFFFFFFFFFFFFFFFFFFFFFFFFFFFFFFF AND DUP2 MSTORE POP SWAP1 DUP1 PUSH1 0x1 DUP2 SLOAD ADD DUP1 DUP3 SSTORE DUP1 SWAP2 POP POP PUSH1 0x1 SWAP1 SUB SWAP1 PUSH1 0x0 MSTORE PUSH1 0x20 PUSH1 0x0 KECCAK256 SWAP1 PUSH1 0x2 MUL ADD PUSH1 0x0 SWAP1 SWAP2 SWAP1 SWAP2 SWAP1 SWAP2 POP PUSH1 0x0 DUP3 ADD MLOAD DUP2 PUSH1 0x0 ADD PUSH1 0x0 PUSH2 0x100 EXP DUP2 SLOAD DUP2 PUSH20 0xFFFFFFFFFFFFFFFFFFFFFFFFFFFFFFFFFFFFFFFF MUL NOT AND SWAP1 DUP4 PUSH20 0xFFFFFFFFFFFFFFFFFFFFFFFFFFFFFFFFFFFFFFFF AND MUL OR SWAP1 SSTORE POP PUSH1 0x20 DUP3 ADD MLOAD DUP2 PUSH1 0x0 ADD PUSH1 0x14 PUSH2 0x100 EXP DUP2 SLOAD DUP2 PUSH1 0xFF MUL NOT AND SWAP1 DUP4 PUSH1 0x1 DUP2 GT ISZERO PUSH2 0x11D3 JUMPI PUSH2 0x11D2 PUSH2 0x33E4 JUMP JUMPDEST JUMPDEST MUL OR SWAP1 SSTORE POP PUSH1 0x40 DUP3 ADD MLOAD DUP2 PUSH1 0x0 ADD PUSH1 0x15 PUSH2 0x100 EXP DUP2 SLOAD DUP2 PUSH2 0xFFFF MUL NOT AND SWAP1 DUP4 PUSH2 0xFFFF AND MUL OR SWAP1 SSTORE POP PUSH1 0x60 DUP3 ADD MLOAD DUP2 PUSH1 0x0 ADD PUSH1 0x17 PUSH2 0x100 EXP DUP2 SLOAD DUP2 PUSH2 0xFFFF MUL NOT AND SWAP1 DUP4 PUSH2 0xFFFF AND MUL OR SWAP1 SSTORE POP PUSH1 0x80 DUP3 ADD MLOAD DUP2 PUSH1 0x0 ADD PUSH1 0x19 PUSH2 0x100 EXP DUP2 SLOAD DUP2 PUSH1 0xFF MUL NOT AND SWAP1 DUP4 PUSH1 0x1 DUP2 GT ISZERO PUSH2 0x1249 JUMPI PUSH2 0x1248 PUSH2 0x33E4 JUMP JUMPDEST JUMPDEST MUL OR SWAP1 SSTORE POP PUSH1 0xA0 DUP3 ADD MLOAD DUP2 PUSH1 0x0 ADD PUSH1 0x1A PUSH2 0x100 EXP DUP2 SLOAD DUP2 PUSH4 0xFFFFFFFF MUL NOT AND SWAP1 DUP4 PUSH4 0xFFFFFFFF AND MUL OR SWAP1 SSTORE POP PUSH1 0xC0 DUP3 ADD MLOAD DUP2 PUSH1 0x0 ADD PUSH1 0x1E PUSH2 0x100 EXP DUP2 SLOAD DUP2 PUSH1 0xFF MUL NOT AND SWAP1 DUP4 ISZERO ISZERO MUL OR SWAP1 SSTORE POP PUSH1 0xE0 DUP3 ADD MLOAD DUP2 PUSH1 0x1 ADD PUSH1 0x0 PUSH2 0x100 EXP DUP2 SLOAD DUP2 PUSH20 0xFFFFFFFFFFFFFFFFFFFFFFFFFFFFFFFFFFFFFFFF MUL NOT AND SWAP1 DUP4 PUSH20 0xFFFFFFFFFFFFFFFFFFFFFFFFFFFFFFFFFFFFFFFF AND MUL OR SWAP1 SSTORE POP POP POP PUSH2 0x12EB DUP9 DUP3 PUSH1 0xFF AND PUSH2 0x2658 JUMP JUMPDEST PUSH2 0x12F7 DUP9 CALLER PUSH1 0x1 PUSH2 0x2875 JUMP JUMPDEST POP POP POP POP POP POP POP POP JUMP JUMPDEST PUSH1 0x60 PUSH2 0x130C DUP3 PUSH2 0x1B50 JUMP JUMPDEST PUSH1 0x0 PUSH2 0x1316 PUSH2 0x28B0 JUMP JUMPDEST SWAP1 POP PUSH1 0x0 DUP2 MLOAD GT PUSH2 0x1336 JUMPI PUSH1 0x40 MLOAD DUP1 PUSH1 0x20 ADD PUSH1 0x40 MSTORE DUP1 PUSH1 0x0 DUP2 MSTORE POP PUSH2 0x1361 JUMP JUMPDEST DUP1 PUSH2 0x1340 DUP5 PUSH2 0x28C7 JUMP JUMPDEST PUSH1 0x40 MLOAD PUSH1 0x20 ADD PUSH2 0x1351 SWAP3 SWAP2 SWAP1 PUSH2 0x4091 JUMP JUMPDEST PUSH1 0x40 MLOAD PUSH1 0x20 DUP2 DUP4 SUB SUB DUP2 MSTORE SWAP1 PUSH1 0x40 MSTORE JUMPDEST SWAP2 POP POP SWAP2 SWAP1 POP JUMP JUMPDEST PUSH2 0x1372 DUP3 PUSH2 0x2995 JUMP JUMPDEST PUSH2 0x13B1 JUMPI PUSH1 0x40 MLOAD PUSH32 0x8C379A000000000000000000000000000000000000000000000000000000000 DUP2 MSTORE PUSH1 0x4 ADD PUSH2 0x13A8 SWAP1 PUSH2 0x4127 JUMP JUMPDEST PUSH1 0x40 MLOAD DUP1 SWAP2 SUB SWAP1 REVERT JUMPDEST PUSH1 0x0 PUSH1 0x9 DUP4 PUSH1 0xFF AND DUP2 SLOAD DUP2 LT PUSH2 0x13CA JUMPI PUSH2 0x13C9 PUSH2 0x3E8E JUMP JUMPDEST JUMPDEST SWAP1 PUSH1 0x0 MSTORE PUSH1 0x20 PUSH1 0x0 KECCAK256 SWAP1 PUSH1 0x2 MUL ADD PUSH1 0x1 ADD PUSH1 0x0 SWAP1 SLOAD SWAP1 PUSH2 0x100 EXP SWAP1 DIV PUSH20 0xFFFFFFFFFFFFFFFFFFFFFFFFFFFFFFFFFFFFFFFF AND SWAP1 POP PUSH2 0x140A DUP2 CALLER PUSH1 0x1 PUSH2 0x2875 JUMP JUMPDEST PUSH2 0x1418 DUP2 DUP4 DUP6 PUSH1 0xFF AND PUSH2 0xA51 JUMP JUMPDEST DUP2 PUSH1 0x9 DUP5 PUSH1 0xFF AND DUP2 SLOAD DUP2 LT PUSH2 0x1430 JUMPI PUSH2 0x142F PUSH2 0x3E8E JUMP JUMPDEST JUMPDEST SWAP1 PUSH1 0x0 MSTORE PUSH1 0x20 PUSH1 0x0 KECCAK256 SWAP1 PUSH1 0x2 MUL ADD PUSH1 0x1 ADD PUSH1 0x0 PUSH2 0x100 EXP DUP2 SLOAD DUP2 PUSH20 0xFFFFFFFFFFFFFFFFFFFFFFFFFFFFFFFFFFFFFFFF MUL NOT AND SWAP1 DUP4 PUSH20 0xFFFFFFFFFFFFFFFFFFFFFFFFFFFFFFFFFFFFFFFF AND MUL OR SWAP1 SSTORE POP PUSH32 0x2E72E059585D8687C8E378E3C55BDD48912EA1DCBB4B26E097AF901E297AD285 DUP4 DUP4 DUP5 PUSH20 0xFFFFFFFFFFFFFFFFFFFFFFFFFFFFFFFFFFFFFFFF AND PUSH1 0x9 DUP8 PUSH1 0xFF AND DUP2 SLOAD DUP2 LT PUSH2 0x14D0 JUMPI PUSH2 0x14CF PUSH2 0x3E8E JUMP JUMPDEST JUMPDEST SWAP1 PUSH1 0x0 MSTORE PUSH1 0x20 PUSH1 0x0 KECCAK256 SWAP1 PUSH1 0x2 MUL ADD PUSH1 0x1 ADD PUSH1 0x0 SWAP1 SLOAD SWAP1 PUSH2 0x100 EXP SWAP1 DIV PUSH20 0xFFFFFFFFFFFFFFFFFFFFFFFFFFFFFFFFFFFFFFFF AND PUSH20 0xFFFFFFFFFFFFFFFFFFFFFFFFFFFFFFFFFFFFFFFF AND EQ PUSH1 0x40 MLOAD PUSH2 0x1528 SWAP4 SWAP3 SWAP2 SWAP1 PUSH2 0x4147 JUMP JUMPDEST PUSH1 0x40 MLOAD DUP1 SWAP2 SUB SWAP1 LOG1 POP POP POP JUMP JUMPDEST PUSH1 0x0 DUP1 PUSH2 0x7B2 PUSH4 0x1E187E0 TIMESTAMP PUSH2 0x154B SWAP2 SWAP1 PUSH2 0x41AD JUMP JUMPDEST PUSH2 0x1555 SWAP2 SWAP1 PUSH2 0x41DE JUMP JUMPDEST SWAP1 POP DUP1 SWAP2 POP POP SWAP1 JUMP JUMPDEST PUSH1 0x9 DUP2 DUP2 SLOAD DUP2 LT PUSH2 0x156E JUMPI PUSH1 0x0 DUP1 REVERT JUMPDEST SWAP1 PUSH1 0x0 MSTORE PUSH1 0x20 PUSH1 0x0 KECCAK256 SWAP1 PUSH1 0x2 MUL ADD PUSH1 0x0 SWAP2 POP SWAP1 POP DUP1 PUSH1 0x0 ADD PUSH1 0x0 SWAP1 SLOAD SWAP1 PUSH2 0x100 EXP SWAP1 DIV PUSH20 0xFFFFFFFFFFFFFFFFFFFFFFFFFFFFFFFFFFFFFFFF AND SWAP1 DUP1 PUSH1 0x0 ADD PUSH1 0x14 SWAP1 SLOAD SWAP1 PUSH2 0x100 EXP SWAP1 DIV PUSH1 0xFF AND SWAP1 DUP1 PUSH1 0x0 ADD PUSH1 0x15 SWAP1 SLOAD SWAP1 PUSH2 0x100 EXP SWAP1 DIV PUSH2 0xFFFF AND SWAP1 DUP1 PUSH1 0x0 ADD PUSH1 0x17 SWAP1 SLOAD SWAP1 PUSH2 0x100 EXP SWAP1 DIV PUSH2 0xFFFF AND SWAP1 DUP1 PUSH1 0x0 ADD PUSH1 0x19 SWAP1 SLOAD SWAP1 PUSH2 0x100 EXP SWAP1 DIV PUSH1 0xFF AND SWAP1 DUP1 PUSH1 0x0 ADD PUSH1 0x1A SWAP1 SLOAD SWAP1 PUSH2 0x100 EXP SWAP1 DIV PUSH4 0xFFFFFFFF AND SWAP1 DUP1 PUSH1 0x0 ADD PUSH1 0x1E SWAP1 SLOAD SWAP1 PUSH2 0x100 EXP SWAP1 DIV PUSH1 0xFF AND SWAP1 DUP1 PUSH1 0x1 ADD PUSH1 0x0 SWAP1 SLOAD SWAP1 PUSH2 0x100 EXP SWAP1 DIV PUSH20 0xFFFFFFFFFFFFFFFFFFFFFFFFFFFFFFFFFFFFFFFF AND SWAP1 POP DUP9 JUMP JUMPDEST PUSH32 0x0 DUP2 JUMP JUMPDEST PUSH2 0x1676 DUP3 PUSH2 0x97A JUMP JUMPDEST PUSH2 0x167F DUP2 PUSH2 0x1FEA JUMP JUMPDEST PUSH2 0x1689 DUP4 DUP4 PUSH2 0x20DF JUMP JUMPDEST POP POP POP JUMP JUMPDEST PUSH1 0x0 PUSH32 0x0 PUSH2 0x16BA DUP2 PUSH2 0x1FEA JUMP JUMPDEST DUP3 PUSH1 0x9 DUP6 PUSH1 0xFF AND DUP2 SLOAD DUP2 LT PUSH2 0x16D2 JUMPI PUSH2 0x16D1 PUSH2 0x3E8E JUMP JUMPDEST JUMPDEST SWAP1 PUSH1 0x0 MSTORE PUSH1 0x20 PUSH1 0x0 KECCAK256 SWAP1 PUSH1 0x2 MUL ADD PUSH1 0x0 ADD PUSH1 0x1A PUSH2 0x100 EXP DUP2 SLOAD DUP2 PUSH4 0xFFFFFFFF MUL NOT AND SWAP1 DUP4 PUSH4 0xFFFFFFFF AND MUL OR SWAP1 SSTORE POP PUSH1 0x9 DUP5 PUSH1 0xFF AND DUP2 SLOAD DUP2 LT PUSH2 0x1718 JUMPI PUSH2 0x1717 PUSH2 0x3E8E JUMP JUMPDEST JUMPDEST SWAP1 PUSH1 0x0 MSTORE PUSH1 0x20 PUSH1 0x0 KECCAK256 SWAP1 PUSH1 0x2 MUL ADD PUSH1 0x0 ADD PUSH1 0x1A SWAP1 SLOAD SWAP1 PUSH2 0x100 EXP SWAP1 DIV PUSH4 0xFFFFFFFF AND SWAP2 POP POP SWAP3 SWAP2 POP POP JUMP JUMPDEST PUSH1 0x0 PUSH1 0x5 PUSH1 0x0 DUP5 PUSH20 0xFFFFFFFFFFFFFFFFFFFFFFFFFFFFFFFFFFFFFFFF AND PUSH20 0xFFFFFFFFFFFFFFFFFFFFFFFFFFFFFFFFFFFFFFFF AND DUP2 MSTORE PUSH1 0x20 ADD SWAP1 DUP2 MSTORE PUSH1 0x20 ADD PUSH1 0x0 KECCAK256 PUSH1 0x0 DUP4 PUSH20 0xFFFFFFFFFFFFFFFFFFFFFFFFFFFFFFFFFFFFFFFF AND PUSH20 0xFFFFFFFFFFFFFFFFFFFFFFFFFFFFFFFFFFFFFFFF AND DUP2 MSTORE PUSH1 0x20 ADD SWAP1 DUP2 MSTORE PUSH1 0x20 ADD PUSH1 0x0 KECCAK256 PUSH1 0x0 SWAP1 SLOAD SWAP1 PUSH2 0x100 EXP SWAP1 DIV PUSH1 0xFF AND SWAP1 POP SWAP3 SWAP2 POP POP JUMP JUMPDEST PUSH2 0x17DF PUSH2 0x21FE JUMP JUMPDEST PUSH1 0x0 PUSH20 0xFFFFFFFFFFFFFFFFFFFFFFFFFFFFFFFFFFFFFFFF AND DUP2 PUSH20 0xFFFFFFFFFFFFFFFFFFFFFFFFFFFFFFFFFFFFFFFF AND SUB PUSH2 0x184E JUMPI PUSH1 0x40 MLOAD PUSH32 0x8C379A000000000000000000000000000000000000000000000000000000000 DUP2 MSTORE PUSH1 0x4 ADD PUSH2 0x1845 SWAP1 PUSH2 0x42A6 JUMP JUMPDEST PUSH1 0x40 MLOAD DUP1 SWAP2 SUB SWAP1 REVERT JUMPDEST PUSH2 0x1857 DUP2 PUSH2 0x227C JUMP JUMPDEST POP JUMP JUMPDEST PUSH1 0x8 PUSH1 0x3 SWAP1 SLOAD SWAP1 PUSH2 0x100 EXP SWAP1 DIV PUSH1 0xFF AND DUP2 JUMP JUMPDEST PUSH1 0x60 PUSH2 0x1893 DUP3 PUSH20 0xFFFFFFFFFFFFFFFFFFFFFFFFFFFFFFFFFFFFFFFF AND PUSH1 0x14 PUSH1 0xFF AND PUSH2 0x189A JUMP JUMPDEST SWAP1 POP SWAP2 SWAP1 POP JUMP JUMPDEST PUSH1 0x60 PUSH1 0x0 PUSH1 0x2 DUP4 PUSH1 0x2 PUSH2 0x18AD SWAP2 SWAP1 PUSH2 0x42C6 JUMP JUMPDEST PUSH2 0x18B7 SWAP2 SWAP1 PUSH2 0x41DE JUMP JUMPDEST PUSH8 0xFFFFFFFFFFFFFFFF DUP2 GT ISZERO PUSH2 0x18D0 JUMPI PUSH2 0x18CF PUSH2 0x3653 JUMP JUMPDEST JUMPDEST PUSH1 0x40 MLOAD SWAP1 DUP1 DUP3 MSTORE DUP1 PUSH1 0x1F ADD PUSH1 0x1F NOT AND PUSH1 0x20 ADD DUP3 ADD PUSH1 0x40 MSTORE DUP1 ISZERO PUSH2 0x1902 JUMPI DUP2 PUSH1 0x20 ADD PUSH1 0x1 DUP3 MUL DUP1 CALLDATASIZE DUP4 CALLDATACOPY DUP1 DUP3 ADD SWAP2 POP POP SWAP1 POP JUMPDEST POP SWAP1 POP PUSH32 0x3000000000000000000000000000000000000000000000000000000000000000 DUP2 PUSH1 0x0 DUP2 MLOAD DUP2 LT PUSH2 0x193A JUMPI PUSH2 0x1939 PUSH2 0x3E8E JUMP JUMPDEST JUMPDEST PUSH1 0x20 ADD ADD SWAP1 PUSH31 0xFFFFFFFFFFFFFFFFFFFFFFFFFFFFFFFFFFFFFFFFFFFFFFFFFFFFFFFFFFFFFF NOT AND SWAP1 DUP2 PUSH1 0x0 BYTE SWAP1 MSTORE8 POP PUSH32 0x7800000000000000000000000000000000000000000000000000000000000000 DUP2 PUSH1 0x1 DUP2 MLOAD DUP2 LT PUSH2 0x199E JUMPI PUSH2 0x199D PUSH2 0x3E8E JUMP JUMPDEST JUMPDEST PUSH1 0x20 ADD ADD SWAP1 PUSH31 0xFFFFFFFFFFFFFFFFFFFFFFFFFFFFFFFFFFFFFFFFFFFFFFFFFFFFFFFFFFFFFF NOT AND SWAP1 DUP2 PUSH1 0x0 BYTE SWAP1 MSTORE8 POP PUSH1 0x0 PUSH1 0x1 DUP5 PUSH1 0x2 PUSH2 0x19DE SWAP2 SWAP1 PUSH2 0x42C6 JUMP JUMPDEST PUSH2 0x19E8 SWAP2 SWAP1 PUSH2 0x41DE JUMP JUMPDEST SWAP1 POP JUMPDEST PUSH1 0x1 DUP2 GT ISZERO PUSH2 0x1A88 JUMPI PUSH32 0x3031323334353637383961626364656600000000000000000000000000000000 PUSH1 0xF DUP7 AND PUSH1 0x10 DUP2 LT PUSH2 0x1A2A JUMPI PUSH2 0x1A29 PUSH2 0x3E8E JUMP JUMPDEST JUMPDEST BYTE PUSH1 0xF8 SHL DUP3 DUP3 DUP2 MLOAD DUP2 LT PUSH2 0x1A41 JUMPI PUSH2 0x1A40 PUSH2 0x3E8E JUMP JUMPDEST JUMPDEST PUSH1 0x20 ADD ADD SWAP1 PUSH31 0xFFFFFFFFFFFFFFFFFFFFFFFFFFFFFFFFFFFFFFFFFFFFFFFFFFFFFFFFFFFFFF NOT AND SWAP1 DUP2 PUSH1 0x0 BYTE SWAP1 MSTORE8 POP PUSH1 0x4 DUP6 SWAP1 SHR SWAP5 POP DUP1 PUSH2 0x1A81 SWAP1 PUSH2 0x4320 JUMP JUMPDEST SWAP1 POP PUSH2 0x19EB JUMP JUMPDEST POP PUSH1 0x0 DUP5 EQ PUSH2 0x1ACC JUMPI PUSH1 0x40 MLOAD PUSH32 0x8C379A000000000000000000000000000000000000000000000000000000000 DUP2 MSTORE PUSH1 0x4 ADD PUSH2 0x1AC3 SWAP1 PUSH2 0x4395 JUMP JUMPDEST PUSH1 0x40 MLOAD DUP1 SWAP2 SUB SWAP1 REVERT JUMPDEST DUP1 SWAP2 POP POP SWAP3 SWAP2 POP POP JUMP JUMPDEST PUSH1 0x0 PUSH32 0x7965DB0B00000000000000000000000000000000000000000000000000000000 PUSH28 0xFFFFFFFFFFFFFFFFFFFFFFFFFFFFFFFFFFFFFFFFFFFFFFFFFFFFFFFF NOT AND DUP3 PUSH28 0xFFFFFFFFFFFFFFFFFFFFFFFFFFFFFFFFFFFFFFFFFFFFFFFFFFFFFFFF NOT AND EQ DUP1 PUSH2 0x1B49 JUMPI POP PUSH2 0x1B48 DUP3 PUSH2 0x29D4 JUMP JUMPDEST JUMPDEST SWAP1 POP SWAP2 SWAP1 POP JUMP JUMPDEST PUSH2 0x1B59 DUP2 PUSH2 0x2AB6 JUMP JUMPDEST PUSH2 0x1B98 JUMPI PUSH1 0x40 MLOAD PUSH32 0x8C379A000000000000000000000000000000000000000000000000000000000 DUP2 MSTORE PUSH1 0x4 ADD PUSH2 0x1B8F SWAP1 PUSH2 0x3DDC JUMP JUMPDEST PUSH1 0x40 MLOAD DUP1 SWAP2 SUB SWAP1 REVERT JUMPDEST POP JUMP JUMPDEST PUSH1 0x0 CALLER SWAP1 POP SWAP1 JUMP JUMPDEST DUP2 PUSH1 0x4 PUSH1 0x0 DUP4 DUP2 MSTORE PUSH1 0x20 ADD SWAP1 DUP2 MSTORE PUSH1 0x20 ADD PUSH1 0x0 KECCAK256 PUSH1 0x0 PUSH2 0x100 EXP DUP2 SLOAD DUP2 PUSH20 0xFFFFFFFFFFFFFFFFFFFFFFFFFFFFFFFFFFFFFFFF MUL NOT AND SWAP1 DUP4 PUSH20 0xFFFFFFFFFFFFFFFFFFFFFFFFFFFFFFFFFFFFFFFF AND MUL OR SWAP1 SSTORE POP DUP1 DUP3 PUSH20 0xFFFFFFFFFFFFFFFFFFFFFFFFFFFFFFFFFFFFFFFF AND PUSH2 0x1C16 DUP4 PUSH2 0xA84 JUMP JUMPDEST PUSH20 0xFFFFFFFFFFFFFFFFFFFFFFFFFFFFFFFFFFFFFFFF AND PUSH32 0x8C5BE1E5EBEC7D5BD14F71427D1E84F3DD0314C0F7B2291E5B200AC8C7C3B925 PUSH1 0x40 MLOAD PUSH1 0x40 MLOAD DUP1 SWAP2 SUB SWAP1 LOG4 POP POP JUMP JUMPDEST PUSH1 0x0 DUP1 PUSH2 0x1C68 DUP4 PUSH2 0xA84 JUMP JUMPDEST SWAP1 POP DUP1 PUSH20 0xFFFFFFFFFFFFFFFFFFFFFFFFFFFFFFFFFFFFFFFF AND DUP5 PUSH20 0xFFFFFFFFFFFFFFFFFFFFFFFFFFFFFFFFFFFFFFFF AND EQ DUP1 PUSH2 0x1CAA JUMPI POP PUSH2 0x1CA9 DUP2 DUP6 PUSH2 0x1743 JUMP JUMPDEST JUMPDEST DUP1 PUSH2 0x1CE8 JUMPI POP DUP4 PUSH20 0xFFFFFFFFFFFFFFFFFFFFFFFFFFFFFFFFFFFFFFFF AND PUSH2 0x1CD0 DUP5 PUSH2 0x7AE JUMP JUMPDEST PUSH20 0xFFFFFFFFFFFFFFFFFFFFFFFFFFFFFFFFFFFFFFFF AND EQ JUMPDEST SWAP2 POP POP SWAP3 SWAP2 POP POP JUMP JUMPDEST DUP3 PUSH20 0xFFFFFFFFFFFFFFFFFFFFFFFFFFFFFFFFFFFFFFFF AND PUSH2 0x1D11 DUP3 PUSH2 0xA84 JUMP JUMPDEST PUSH20 0xFFFFFFFFFFFFFFFFFFFFFFFFFFFFFFFFFFFFFFFF AND EQ PUSH2 0x1D67 JUMPI PUSH1 0x40 MLOAD PUSH32 0x8C379A000000000000000000000000000000000000000000000000000000000 DUP2 MSTORE PUSH1 0x4 ADD PUSH2 0x1D5E SWAP1 PUSH2 0x4427 JUMP JUMPDEST PUSH1 0x40 MLOAD DUP1 SWAP2 SUB SWAP1 REVERT JUMPDEST PUSH1 0x0 PUSH20 0xFFFFFFFFFFFFFFFFFFFFFFFFFFFFFFFFFFFFFFFF AND DUP3 PUSH20 0xFFFFFFFFFFFFFFFFFFFFFFFFFFFFFFFFFFFFFFFF AND SUB PUSH2 0x1DD6 JUMPI PUSH1 0x40 MLOAD PUSH32 0x8C379A000000000000000000000000000000000000000000000000000000000 DUP2 MSTORE PUSH1 0x4 ADD PUSH2 0x1DCD SWAP1 PUSH2 0x44B9 JUMP JUMPDEST PUSH1 0x40 MLOAD DUP1 SWAP2 SUB SWAP1 REVERT JUMPDEST PUSH2 0x1DE3 DUP4 DUP4 DUP4 PUSH1 0x1 PUSH2 0x2AF7 JUMP JUMPDEST DUP3 PUSH20 0xFFFFFFFFFFFFFFFFFFFFFFFFFFFFFFFFFFFFFFFF AND PUSH2 0x1E03 DUP3 PUSH2 0xA84 JUMP JUMPDEST PUSH20 0xFFFFFFFFFFFFFFFFFFFFFFFFFFFFFFFFFFFFFFFF AND EQ PUSH2 0x1E59 JUMPI PUSH1 0x40 MLOAD PUSH32 0x8C379A000000000000000000000000000000000000000000000000000000000 DUP2 MSTORE PUSH1 0x4 ADD PUSH2 0x1E50 SWAP1 PUSH2 0x4427 JUMP JUMPDEST PUSH1 0x40 MLOAD DUP1 SWAP2 SUB SWAP1 REVERT JUMPDEST PUSH1 0x4 PUSH1 0x0 DUP3 DUP2 MSTORE PUSH1 0x20 ADD SWAP1 DUP2 MSTORE PUSH1 0x20 ADD PUSH1 0x0 KECCAK256 PUSH1 0x0 PUSH2 0x100 EXP DUP2 SLOAD SWAP1 PUSH20 0xFFFFFFFFFFFFFFFFFFFFFFFFFFFFFFFFFFFFFFFF MUL NOT AND SWAP1 SSTORE PUSH1 0x1 PUSH1 0x3 PUSH1 0x0 DUP6 PUSH20 0xFFFFFFFFFFFFFFFFFFFFFFFFFFFFFFFFFFFFFFFF AND PUSH20 0xFFFFFFFFFFFFFFFFFFFFFFFFFFFFFFFFFFFFFFFF AND DUP2 MSTORE PUSH1 0x20 ADD SWAP1 DUP2 MSTORE PUSH1 0x20 ADD PUSH1 0x0 KECCAK256 PUSH1 0x0 DUP3 DUP3 SLOAD SUB SWAP3 POP POP DUP2 SWAP1 SSTORE POP PUSH1 0x1 PUSH1 0x3 PUSH1 0x0 DUP5 PUSH20 0xFFFFFFFFFFFFFFFFFFFFFFFFFFFFFFFFFFFFFFFF AND PUSH20 0xFFFFFFFFFFFFFFFFFFFFFFFFFFFFFFFFFFFFFFFF AND DUP2 MSTORE PUSH1 0x20 ADD SWAP1 DUP2 MSTORE PUSH1 0x20 ADD PUSH1 0x0 KECCAK256 PUSH1 0x0 DUP3 DUP3 SLOAD ADD SWAP3 POP POP DUP2 SWAP1 SSTORE POP DUP2 PUSH1 0x2 PUSH1 0x0 DUP4 DUP2 MSTORE PUSH1 0x20 ADD SWAP1 DUP2 MSTORE PUSH1 0x20 ADD PUSH1 0x0 KECCAK256 PUSH1 0x0 PUSH2 0x100 EXP DUP2 SLOAD DUP2 PUSH20 0xFFFFFFFFFFFFFFFFFFFFFFFFFFFFFFFFFFFFFFFF MUL NOT AND SWAP1 DUP4 PUSH20 0xFFFFFFFFFFFFFFFFFFFFFFFFFFFFFFFFFFFFFFFF AND MUL OR SWAP1 SSTORE POP DUP1 DUP3 PUSH20 0xFFFFFFFFFFFFFFFFFFFFFFFFFFFFFFFFFFFFFFFF AND DUP5 PUSH20 0xFFFFFFFFFFFFFFFFFFFFFFFFFFFFFFFFFFFFFFFF AND PUSH32 0xDDF252AD1BE2C89B69C2B068FC378DAA952BA7F163C4A11628F55A4DF523B3EF PUSH1 0x40 MLOAD PUSH1 0x40 MLOAD DUP1 SWAP2 SUB SWAP1 LOG4 PUSH2 0x1FE5 DUP4 DUP4 DUP4 PUSH1 0x1 PUSH2 0x2C1D JUMP JUMPDEST POP POP POP JUMP JUMPDEST PUSH2 0x1FFB DUP2 PUSH2 0x1FF6 PUSH2 0x1B9B JUMP JUMPDEST PUSH2 0x2C23 JUMP JUMPDEST POP JUMP JUMPDEST PUSH2 0x2008 DUP3 DUP3 PUSH2 0xCAA JUMP JUMPDEST PUSH2 0x20DB JUMPI PUSH1 0x1 PUSH1 0x7 PUSH1 0x0 DUP5 DUP2 MSTORE PUSH1 0x20 ADD SWAP1 DUP2 MSTORE PUSH1 0x20 ADD PUSH1 0x0 KECCAK256 PUSH1 0x0 ADD PUSH1 0x0 DUP4 PUSH20 0xFFFFFFFFFFFFFFFFFFFFFFFFFFFFFFFFFFFFFFFF AND PUSH20 0xFFFFFFFFFFFFFFFFFFFFFFFFFFFFFFFFFFFFFFFF AND DUP2 MSTORE PUSH1 0x20 ADD SWAP1 DUP2 MSTORE PUSH1 0x20 ADD PUSH1 0x0 KECCAK256 PUSH1 0x0 PUSH2 0x100 EXP DUP2 SLOAD DUP2 PUSH1 0xFF MUL NOT AND SWAP1 DUP4 ISZERO ISZERO MUL OR SWAP1 SSTORE POP PUSH2 0x2080 PUSH2 0x1B9B JUMP JUMPDEST PUSH20 0xFFFFFFFFFFFFFFFFFFFFFFFFFFFFFFFFFFFFFFFF AND DUP2 PUSH20 0xFFFFFFFFFFFFFFFFFFFFFFFFFFFFFFFFFFFFFFFF AND DUP4 PUSH32 0x2F8788117E7EFF1D82E926EC794901D17C78024A50270940304540A733656F0D PUSH1 0x40 MLOAD PUSH1 0x40 MLOAD DUP1 SWAP2 SUB SWAP1 LOG4 JUMPDEST POP POP JUMP JUMPDEST PUSH2 0x20E9 DUP3 DUP3 PUSH2 0xCAA JUMP JUMPDEST ISZERO PUSH2 0x21BD JUMPI PUSH1 0x0 PUSH1 0x7 PUSH1 0x0 DUP5 DUP2 MSTORE PUSH1 0x20 ADD SWAP1 DUP2 MSTORE PUSH1 0x20 ADD PUSH1 0x0 KECCAK256 PUSH1 0x0 ADD PUSH1 0x0 DUP4 PUSH20 0xFFFFFFFFFFFFFFFFFFFFFFFFFFFFFFFFFFFFFFFF AND PUSH20 0xFFFFFFFFFFFFFFFFFFFFFFFFFFFFFFFFFFFFFFFF AND DUP2 MSTORE PUSH1 0x20 ADD SWAP1 DUP2 MSTORE PUSH1 0x20 ADD PUSH1 0x0 KECCAK256 PUSH1 0x0 PUSH2 0x100 EXP DUP2 SLOAD DUP2 PUSH1 0xFF MUL NOT AND SWAP1 DUP4 ISZERO ISZERO MUL OR SWAP1 SSTORE POP PUSH2 0x2162 PUSH2 0x1B9B JUMP JUMPDEST PUSH20 0xFFFFFFFFFFFFFFFFFFFFFFFFFFFFFFFFFFFFFFFF AND DUP2 PUSH20 0xFFFFFFFFFFFFFFFFFFFFFFFFFFFFFFFFFFFFFFFF AND DUP4 PUSH32 0xF6391F5C32D9C69D2A47EA670B442974B53935D1EDC7FD64EB21E047A839171B PUSH1 0x40 MLOAD PUSH1 0x40 MLOAD DUP1 SWAP2 SUB SWAP1 LOG4 JUMPDEST POP POP JUMP JUMPDEST PUSH1 0x0 PUSH1 0x2 PUSH1 0x0 DUP4 DUP2 MSTORE PUSH1 0x20 ADD SWAP1 DUP2 MSTORE PUSH1 0x20 ADD PUSH1 0x0 KECCAK256 PUSH1 0x0 SWAP1 SLOAD SWAP1 PUSH2 0x100 EXP SWAP1 DIV PUSH20 0xFFFFFFFFFFFFFFFFFFFFFFFFFFFFFFFFFFFFFFFF AND SWAP1 POP SWAP2 SWAP1 POP JUMP JUMPDEST PUSH2 0x2206 PUSH2 0x1B9B JUMP JUMPDEST PUSH20 0xFFFFFFFFFFFFFFFFFFFFFFFFFFFFFFFFFFFFFFFF AND PUSH2 0x2224 PUSH2 0xC80 JUMP JUMPDEST PUSH20 0xFFFFFFFFFFFFFFFFFFFFFFFFFFFFFFFFFFFFFFFF AND EQ PUSH2 0x227A JUMPI PUSH1 0x40 MLOAD PUSH32 0x8C379A000000000000000000000000000000000000000000000000000000000 DUP2 MSTORE PUSH1 0x4 ADD PUSH2 0x2271 SWAP1 PUSH2 0x4525 JUMP JUMPDEST PUSH1 0x40 MLOAD DUP1 SWAP2 SUB SWAP1 REVERT JUMPDEST JUMP JUMPDEST PUSH1 0x0 PUSH1 0x6 PUSH1 0x0 SWAP1 SLOAD SWAP1 PUSH2 0x100 EXP SWAP1 DIV PUSH20 0xFFFFFFFFFFFFFFFFFFFFFFFFFFFFFFFFFFFFFFFF AND SWAP1 POP DUP2 PUSH1 0x6 PUSH1 0x0 PUSH2 0x100 EXP DUP2 SLOAD DUP2 PUSH20 0xFFFFFFFFFFFFFFFFFFFFFFFFFFFFFFFFFFFFFFFF MUL NOT AND SWAP1 DUP4 PUSH20 0xFFFFFFFFFFFFFFFFFFFFFFFFFFFFFFFFFFFFFFFF AND MUL OR SWAP1 SSTORE POP DUP2 PUSH20 0xFFFFFFFFFFFFFFFFFFFFFFFFFFFFFFFFFFFFFFFF AND DUP2 PUSH20 0xFFFFFFFFFFFFFFFFFFFFFFFFFFFFFFFFFFFFFFFF AND PUSH32 0x8BE0079C531659141344CD1FD0A4F28419497F9722A3DAAFE3B4186F6B6457E0 PUSH1 0x40 MLOAD PUSH1 0x40 MLOAD DUP1 SWAP2 SUB SWAP1 LOG3 POP POP JUMP JUMPDEST DUP2 PUSH20 0xFFFFFFFFFFFFFFFFFFFFFFFFFFFFFFFFFFFFFFFF AND DUP4 PUSH20 0xFFFFFFFFFFFFFFFFFFFFFFFFFFFFFFFFFFFFFFFF AND SUB PUSH2 0x23B0 JUMPI PUSH1 0x40 MLOAD PUSH32 0x8C379A000000000000000000000000000000000000000000000000000000000 DUP2 MSTORE PUSH1 0x4 ADD PUSH2 0x23A7 SWAP1 PUSH2 0x4591 JUMP JUMPDEST PUSH1 0x40 MLOAD DUP1 SWAP2 SUB SWAP1 REVERT JUMPDEST DUP1 PUSH1 0x5 PUSH1 0x0 DUP6 PUSH20 0xFFFFFFFFFFFFFFFFFFFFFFFFFFFFFFFFFFFFFFFF AND PUSH20 0xFFFFFFFFFFFFFFFFFFFFFFFFFFFFFFFFFFFFFFFF AND DUP2 MSTORE PUSH1 0x20 ADD SWAP1 DUP2 MSTORE PUSH1 0x20 ADD PUSH1 0x0 KECCAK256 PUSH1 0x0 DUP5 PUSH20 0xFFFFFFFFFFFFFFFFFFFFFFFFFFFFFFFFFFFFFFFF AND PUSH20 0xFFFFFFFFFFFFFFFFFFFFFFFFFFFFFFFFFFFFFFFF AND DUP2 MSTORE PUSH1 0x20 ADD SWAP1 DUP2 MSTORE PUSH1 0x20 ADD PUSH1 0x0 KECCAK256 PUSH1 0x0 PUSH2 0x100 EXP DUP2 SLOAD DUP2 PUSH1 0xFF MUL NOT AND SWAP1 DUP4 ISZERO ISZERO MUL OR SWAP1 SSTORE POP DUP2 PUSH20 0xFFFFFFFFFFFFFFFFFFFFFFFFFFFFFFFFFFFFFFFF AND DUP4 PUSH20 0xFFFFFFFFFFFFFFFFFFFFFFFFFFFFFFFFFFFFFFFF AND PUSH32 0x17307EAB39AB6107E8899845AD3D59BD9653F200F220920489CA2B5937696C31 DUP4 PUSH1 0x40 MLOAD PUSH2 0x24A1 SWAP2 SWAP1 PUSH2 0x30C3 JUMP JUMPDEST PUSH1 0x40 MLOAD DUP1 SWAP2 SUB SWAP1 LOG3 POP POP POP JUMP JUMPDEST PUSH1 0x0 PUSH2 0x24B9 DUP3 PUSH2 0xA84 JUMP JUMPDEST SWAP1 POP PUSH2 0x24C9 DUP2 PUSH1 0x0 DUP5 PUSH1 0x1 PUSH2 0x2AF7 JUMP JUMPDEST PUSH2 0x24D2 DUP3 PUSH2 0xA84 JUMP JUMPDEST SWAP1 POP PUSH1 0x4 PUSH1 0x0 DUP4 DUP2 MSTORE PUSH1 0x20 ADD SWAP1 DUP2 MSTORE PUSH1 0x20 ADD PUSH1 0x0 KECCAK256 PUSH1 0x0 PUSH2 0x100 EXP DUP2 SLOAD SWAP1 PUSH20 0xFFFFFFFFFFFFFFFFFFFFFFFFFFFFFFFFFFFFFFFF MUL NOT AND SWAP1 SSTORE PUSH1 0x1 PUSH1 0x3 PUSH1 0x0 DUP4 PUSH20 0xFFFFFFFFFFFFFFFFFFFFFFFFFFFFFFFFFFFFFFFF AND PUSH20 0xFFFFFFFFFFFFFFFFFFFFFFFFFFFFFFFFFFFFFFFF AND DUP2 MSTORE PUSH1 0x20 ADD SWAP1 DUP2 MSTORE PUSH1 0x20 ADD PUSH1 0x0 KECCAK256 PUSH1 0x0 DUP3 DUP3 SLOAD SUB SWAP3 POP POP DUP2 SWAP1 SSTORE POP PUSH1 0x2 PUSH1 0x0 DUP4 DUP2 MSTORE PUSH1 0x20 ADD SWAP1 DUP2 MSTORE PUSH1 0x20 ADD PUSH1 0x0 KECCAK256 PUSH1 0x0 PUSH2 0x100 EXP DUP2 SLOAD SWAP1 PUSH20 0xFFFFFFFFFFFFFFFFFFFFFFFFFFFFFFFFFFFFFFFF MUL NOT AND SWAP1 SSTORE DUP2 PUSH1 0x0 PUSH20 0xFFFFFFFFFFFFFFFFFFFFFFFFFFFFFFFFFFFFFFFF AND DUP3 PUSH20 0xFFFFFFFFFFFFFFFFFFFFFFFFFFFFFFFFFFFFFFFF AND PUSH32 0xDDF252AD1BE2C89B69C2B068FC378DAA952BA7F163C4A11628F55A4DF523B3EF PUSH1 0x40 MLOAD PUSH1 0x40 MLOAD DUP1 SWAP2 SUB SWAP1 LOG4 PUSH2 0x25F8 DUP2 PUSH1 0x0 DUP5 PUSH1 0x1 PUSH2 0x2C1D JUMP JUMPDEST POP POP JUMP JUMPDEST PUSH2 0x2607 DUP5 DUP5 DUP5 PUSH2 0x1CF1 JUMP JUMPDEST PUSH2 0x2613 DUP5 DUP5 DUP5 DUP5 PUSH2 0x2CA8 JUMP JUMPDEST PUSH2 0x2652 JUMPI PUSH1 0x40 MLOAD PUSH32 0x8C379A000000000000000000000000000000000000000000000000000000000 DUP2 MSTORE PUSH1 0x4 ADD PUSH2 0x2649 SWAP1 PUSH2 0x4623 JUMP JUMPDEST PUSH1 0x40 MLOAD DUP1 SWAP2 SUB SWAP1 REVERT JUMPDEST POP POP POP POP JUMP JUMPDEST PUSH1 0x0 PUSH20 0xFFFFFFFFFFFFFFFFFFFFFFFFFFFFFFFFFFFFFFFF AND DUP3 PUSH20 0xFFFFFFFFFFFFFFFFFFFFFFFFFFFFFFFFFFFFFFFF AND SUB PUSH2 0x26C7 JUMPI PUSH1 0x40 MLOAD PUSH32 0x8C379A000000000000000000000000000000000000000000000000000000000 DUP2 MSTORE PUSH1 0x4 ADD PUSH2 0x26BE SWAP1 PUSH2 0x468F JUMP JUMPDEST PUSH1 0x40 MLOAD DUP1 SWAP2 SUB SWAP1 REVERT JUMPDEST PUSH2 0x26D0 DUP2 PUSH2 0x2AB6 JUMP JUMPDEST ISZERO PUSH2 0x2710 JUMPI PUSH1 0x40 MLOAD PUSH32 0x8C379A000000000000000000000000000000000000000000000000000000000 DUP2 MSTORE PUSH1 0x4 ADD PUSH2 0x2707 SWAP1 PUSH2 0x46FB JUMP JUMPDEST PUSH1 0x40 MLOAD DUP1 SWAP2 SUB SWAP1 REVERT JUMPDEST PUSH2 0x271E PUSH1 0x0 DUP4 DUP4 PUSH1 0x1 PUSH2 0x2AF7 JUMP JUMPDEST PUSH2 0x2727 DUP2 PUSH2 0x2AB6 JUMP JUMPDEST ISZERO PUSH2 0x2767 JUMPI PUSH1 0x40 MLOAD PUSH32 0x8C379A000000000000000000000000000000000000000000000000000000000 DUP2 MSTORE PUSH1 0x4 ADD PUSH2 0x275E SWAP1 PUSH2 0x46FB JUMP JUMPDEST PUSH1 0x40 MLOAD DUP1 SWAP2 SUB SWAP1 REVERT JUMPDEST PUSH1 0x1 PUSH1 0x3 PUSH1 0x0 DUP5 PUSH20 0xFFFFFFFFFFFFFFFFFFFFFFFFFFFFFFFFFFFFFFFF AND PUSH20 0xFFFFFFFFFFFFFFFFFFFFFFFFFFFFFFFFFFFFFFFF AND DUP2 MSTORE PUSH1 0x20 ADD SWAP1 DUP2 MSTORE PUSH1 0x20 ADD PUSH1 0x0 KECCAK256 PUSH1 0x0 DUP3 DUP3 SLOAD ADD SWAP3 POP POP DUP2 SWAP1 SSTORE POP DUP2 PUSH1 0x2 PUSH1 0x0 DUP4 DUP2 MSTORE PUSH1 0x20 ADD SWAP1 DUP2 MSTORE PUSH1 0x20 ADD PUSH1 0x0 KECCAK256 PUSH1 0x0 PUSH2 0x100 EXP DUP2 SLOAD DUP2 PUSH20 0xFFFFFFFFFFFFFFFFFFFFFFFFFFFFFFFFFFFFFFFF MUL NOT AND SWAP1 DUP4 PUSH20 0xFFFFFFFFFFFFFFFFFFFFFFFFFFFFFFFFFFFFFFFF AND MUL OR SWAP1 SSTORE POP DUP1 DUP3 PUSH20 0xFFFFFFFFFFFFFFFFFFFFFFFFFFFFFFFFFFFFFFFF AND PUSH1 0x0 PUSH20 0xFFFFFFFFFFFFFFFFFFFFFFFFFFFFFFFFFFFFFFFF AND PUSH32 0xDDF252AD1BE2C89B69C2B068FC378DAA952BA7F163C4A11628F55A4DF523B3EF PUSH1 0x40 MLOAD PUSH1 0x40 MLOAD DUP1 SWAP2 SUB SWAP1 LOG4 PUSH2 0x2871 PUSH1 0x0 DUP4 DUP4 PUSH1 0x1 PUSH2 0x2C1D JUMP JUMPDEST POP POP JUMP JUMPDEST PUSH32 0x0 PUSH2 0x289F DUP2 PUSH2 0x1FEA JUMP JUMPDEST PUSH2 0x28AA DUP5 DUP5 DUP5 PUSH2 0x2342 JUMP JUMPDEST POP POP POP POP JUMP JUMPDEST PUSH1 0x60 PUSH1 0x40 MLOAD DUP1 PUSH1 0x20 ADD PUSH1 0x40 MSTORE DUP1 PUSH1 0x0 DUP2 MSTORE POP SWAP1 POP SWAP1 JUMP JUMPDEST PUSH1 0x60 PUSH1 0x0 PUSH1 0x1 PUSH2 0x28D6 DUP5 PUSH2 0x2E2F JUMP JUMPDEST ADD SWAP1 POP PUSH1 0x0 DUP2 PUSH8 0xFFFFFFFFFFFFFFFF DUP2 GT ISZERO PUSH2 0x28F5 JUMPI PUSH2 0x28F4 PUSH2 0x3653 JUMP JUMPDEST JUMPDEST PUSH1 0x40 MLOAD SWAP1 DUP1 DUP3 MSTORE DUP1 PUSH1 0x1F ADD PUSH1 0x1F NOT AND PUSH1 0x20 ADD DUP3 ADD PUSH1 0x40 MSTORE DUP1 ISZERO PUSH2 0x2927 JUMPI DUP2 PUSH1 0x20 ADD PUSH1 0x1 DUP3 MUL DUP1 CALLDATASIZE DUP4 CALLDATACOPY DUP1 DUP3 ADD SWAP2 POP POP SWAP1 POP JUMPDEST POP SWAP1 POP PUSH1 0x0 DUP3 PUSH1 0x20 ADD DUP3 ADD SWAP1 POP JUMPDEST PUSH1 0x1 ISZERO PUSH2 0x298A JUMPI DUP1 DUP1 PUSH1 0x1 SWAP1 SUB SWAP2 POP POP PUSH32 0x3031323334353637383961626364656600000000000000000000000000000000 PUSH1 0xA DUP7 MOD BYTE DUP2 MSTORE8 PUSH1 0xA DUP6 DUP2 PUSH2 0x297E JUMPI PUSH2 0x297D PUSH2 0x417E JUMP JUMPDEST JUMPDEST DIV SWAP5 POP PUSH1 0x0 DUP6 SUB PUSH2 0x2935 JUMPI JUMPDEST DUP2 SWAP4 POP POP POP POP SWAP2 SWAP1 POP JUMP JUMPDEST PUSH1 0x0 PUSH1 0x9 DUP3 PUSH1 0xFF AND DUP2 SLOAD DUP2 LT PUSH2 0x29AE JUMPI PUSH2 0x29AD PUSH2 0x3E8E JUMP JUMPDEST JUMPDEST SWAP1 PUSH1 0x0 MSTORE PUSH1 0x20 PUSH1 0x0 KECCAK256 SWAP1 PUSH1 0x2 MUL ADD PUSH1 0x0 ADD PUSH1 0x1E SWAP1 SLOAD SWAP1 PUSH2 0x100 EXP SWAP1 DIV PUSH1 0xFF AND SWAP1 POP SWAP2 SWAP1 POP JUMP JUMPDEST PUSH1 0x0 PUSH32 0x80AC58CD00000000000000000000000000000000000000000000000000000000 PUSH28 0xFFFFFFFFFFFFFFFFFFFFFFFFFFFFFFFFFFFFFFFFFFFFFFFFFFFFFFFF NOT AND DUP3 PUSH28 0xFFFFFFFFFFFFFFFFFFFFFFFFFFFFFFFFFFFFFFFFFFFFFFFFFFFFFFFF NOT AND EQ DUP1 PUSH2 0x2A9F JUMPI POP PUSH32 0x5B5E139F00000000000000000000000000000000000000000000000000000000 PUSH28 0xFFFFFFFFFFFFFFFFFFFFFFFFFFFFFFFFFFFFFFFFFFFFFFFFFFFFFFFF NOT AND DUP3 PUSH28 0xFFFFFFFFFFFFFFFFFFFFFFFFFFFFFFFFFFFFFFFFFFFFFFFFFFFFFFFF NOT AND EQ JUMPDEST DUP1 PUSH2 0x2AAF JUMPI POP PUSH2 0x2AAE DUP3 PUSH2 0x2F82 JUMP JUMPDEST JUMPDEST SWAP1 POP SWAP2 SWAP1 POP JUMP JUMPDEST PUSH1 0x0 DUP1 PUSH20 0xFFFFFFFFFFFFFFFFFFFFFFFFFFFFFFFFFFFFFFFF AND PUSH2 0x2AD8 DUP4 PUSH2 0x21C1 JUMP JUMPDEST PUSH20 0xFFFFFFFFFFFFFFFFFFFFFFFFFFFFFFFFFFFFFFFF AND EQ ISZERO SWAP1 POP SWAP2 SWAP1 POP JUMP JUMPDEST PUSH1 0x1 DUP2 GT ISZERO PUSH2 0x2C17 JUMPI PUSH1 0x0 PUSH20 0xFFFFFFFFFFFFFFFFFFFFFFFFFFFFFFFFFFFFFFFF AND DUP5 PUSH20 0xFFFFFFFFFFFFFFFFFFFFFFFFFFFFFFFFFFFFFFFF AND EQ PUSH2 0x2B8B JUMPI DUP1 PUSH1 0x3 PUSH1 0x0 DUP7 PUSH20 0xFFFFFFFFFFFFFFFFFFFFFFFFFFFFFFFFFFFFFFFF AND PUSH20 0xFFFFFFFFFFFFFFFFFFFFFFFFFFFFFFFFFFFFFFFF AND DUP2 MSTORE PUSH1 0x20 ADD SWAP1 DUP2 MSTORE PUSH1 0x20 ADD PUSH1 0x0 KECCAK256 PUSH1 0x0 DUP3 DUP3 SLOAD PUSH2 0x2B83 SWAP2 SWAP1 PUSH2 0x471B JUMP JUMPDEST SWAP3 POP POP DUP2 SWAP1 SSTORE POP JUMPDEST PUSH1 0x0 PUSH20 0xFFFFFFFFFFFFFFFFFFFFFFFFFFFFFFFFFFFFFFFF AND DUP4 PUSH20 0xFFFFFFFFFFFFFFFFFFFFFFFFFFFFFFFFFFFFFFFF AND EQ PUSH2 0x2C16 JUMPI DUP1 PUSH1 0x3 PUSH1 0x0 DUP6 PUSH20 0xFFFFFFFFFFFFFFFFFFFFFFFFFFFFFFFFFFFFFFFF AND PUSH20 0xFFFFFFFFFFFFFFFFFFFFFFFFFFFFFFFFFFFFFFFF AND DUP2 MSTORE PUSH1 0x20 ADD SWAP1 DUP2 MSTORE PUSH1 0x20 ADD PUSH1 0x0 KECCAK256 PUSH1 0x0 DUP3 DUP3 SLOAD PUSH2 0x2C0E SWAP2 SWAP1 PUSH2 0x41DE JUMP JUMPDEST SWAP3 POP POP DUP2 SWAP1 SSTORE POP JUMPDEST JUMPDEST POP POP POP POP JUMP JUMPDEST POP POP POP POP JUMP JUMPDEST PUSH2 0x2C2D DUP3 DUP3 PUSH2 0xCAA JUMP JUMPDEST PUSH2 0x2CA4 JUMPI PUSH2 0x2C3A DUP2 PUSH2 0x186D JUMP JUMPDEST PUSH2 0x2C48 DUP4 PUSH1 0x0 SHR PUSH1 0x20 PUSH2 0x189A JUMP JUMPDEST PUSH1 0x40 MLOAD PUSH1 0x20 ADD PUSH2 0x2C59 SWAP3 SWAP2 SWAP1 PUSH2 0x47E7 JUMP JUMPDEST PUSH1 0x40 MLOAD PUSH1 0x20 DUP2 DUP4 SUB SUB DUP2 MSTORE SWAP1 PUSH1 0x40 MSTORE PUSH1 0x40 MLOAD PUSH32 0x8C379A000000000000000000000000000000000000000000000000000000000 DUP2 MSTORE PUSH1 0x4 ADD PUSH2 0x2C9B SWAP2 SWAP1 PUSH2 0x3177 JUMP JUMPDEST PUSH1 0x40 MLOAD DUP1 SWAP2 SUB SWAP1 REVERT JUMPDEST POP POP JUMP JUMPDEST PUSH1 0x0 PUSH2 0x2CC9 DUP5 PUSH20 0xFFFFFFFFFFFFFFFFFFFFFFFFFFFFFFFFFFFFFFFF AND PUSH2 0x2FEC JUMP JUMPDEST ISZERO PUSH2 0x2E22 JUMPI DUP4 PUSH20 0xFFFFFFFFFFFFFFFFFFFFFFFFFFFFFFFFFFFFFFFF AND PUSH4 0x150B7A02 PUSH2 0x2CF2 PUSH2 0x1B9B JUMP JUMPDEST DUP8 DUP7 DUP7 PUSH1 0x40 MLOAD DUP6 PUSH4 0xFFFFFFFF AND PUSH1 0xE0 SHL DUP2 MSTORE PUSH1 0x4 ADD PUSH2 0x2D14 SWAP5 SWAP4 SWAP3 SWAP2 SWAP1 PUSH2 0x4876 JUMP JUMPDEST PUSH1 0x20 PUSH1 0x40 MLOAD DUP1 DUP4 SUB DUP2 PUSH1 0x0 DUP8 GAS CALL SWAP3 POP POP POP DUP1 ISZERO PUSH2 0x2D50 JUMPI POP PUSH1 0x40 MLOAD RETURNDATASIZE PUSH1 0x1F NOT PUSH1 0x1F DUP3 ADD AND DUP3 ADD DUP1 PUSH1 0x40 MSTORE POP DUP2 ADD SWAP1 PUSH2 0x2D4D SWAP2 SWAP1 PUSH2 0x48D7 JUMP JUMPDEST PUSH1 0x1 JUMPDEST PUSH2 0x2DD2 JUMPI RETURNDATASIZE DUP1 PUSH1 0x0 DUP2 EQ PUSH2 0x2D80 JUMPI PUSH1 0x40 MLOAD SWAP2 POP PUSH1 0x1F NOT PUSH1 0x3F RETURNDATASIZE ADD AND DUP3 ADD PUSH1 0x40 MSTORE RETURNDATASIZE DUP3 MSTORE RETURNDATASIZE PUSH1 0x0 PUSH1 0x20 DUP5 ADD RETURNDATACOPY PUSH2 0x2D85 JUMP JUMPDEST PUSH1 0x60 SWAP2 POP JUMPDEST POP PUSH1 0x0 DUP2 MLOAD SUB PUSH2 0x2DCA JUMPI PUSH1 0x40 MLOAD PUSH32 0x8C379A000000000000000000000000000000000000000000000000000000000 DUP2 MSTORE PUSH1 0x4 ADD PUSH2 0x2DC1 SWAP1 PUSH2 0x4623 JUMP JUMPDEST PUSH1 0x40 MLOAD DUP1 SWAP2 SUB SWAP1 REVERT JUMPDEST DUP1 MLOAD DUP2 PUSH1 0x20 ADD REVERT JUMPDEST PUSH4 0x150B7A02 PUSH1 0xE0 SHL PUSH28 0xFFFFFFFFFFFFFFFFFFFFFFFFFFFFFFFFFFFFFFFFFFFFFFFFFFFFFFFF NOT AND DUP2 PUSH28 0xFFFFFFFFFFFFFFFFFFFFFFFFFFFFFFFFFFFFFFFFFFFFFFFFFFFFFFFF NOT AND EQ SWAP2 POP POP PUSH2 0x2E27 JUMP JUMPDEST PUSH1 0x1 SWAP1 POP JUMPDEST SWAP5 SWAP4 POP POP POP POP JUMP JUMPDEST PUSH1 0x0 DUP1 PUSH1 0x0 SWAP1 POP PUSH27 0x184F03E93FF9F4DAA797ED6E38ED64BF6A1F010000000000000000 DUP4 LT PUSH2 0x2E8D JUMPI PUSH27 0x184F03E93FF9F4DAA797ED6E38ED64BF6A1F010000000000000000 DUP4 DUP2 PUSH2 0x2E83 JUMPI PUSH2 0x2E82 PUSH2 0x417E JUMP JUMPDEST JUMPDEST DIV SWAP3 POP PUSH1 0x40 DUP2 ADD SWAP1 POP JUMPDEST PUSH14 0x4EE2D6D415B85ACEF8100000000 DUP4 LT PUSH2 0x2ECA JUMPI PUSH14 0x4EE2D6D415B85ACEF8100000000 DUP4 DUP2 PUSH2 0x2EC0 JUMPI PUSH2 0x2EBF PUSH2 0x417E JUMP JUMPDEST JUMPDEST DIV SWAP3 POP PUSH1 0x20 DUP2 ADD SWAP1 POP JUMPDEST PUSH7 0x2386F26FC10000 DUP4 LT PUSH2 0x2EF9 JUMPI PUSH7 0x2386F26FC10000 DUP4 DUP2 PUSH2 0x2EEF JUMPI PUSH2 0x2EEE PUSH2 0x417E JUMP JUMPDEST JUMPDEST DIV SWAP3 POP PUSH1 0x10 DUP2 ADD SWAP1 POP JUMPDEST PUSH4 0x5F5E100 DUP4 LT PUSH2 0x2F22 JUMPI PUSH4 0x5F5E100 DUP4 DUP2 PUSH2 0x2F18 JUMPI PUSH2 0x2F17 PUSH2 0x417E JUMP JUMPDEST JUMPDEST DIV SWAP3 POP PUSH1 0x8 DUP2 ADD SWAP1 POP JUMPDEST PUSH2 0x2710 DUP4 LT PUSH2 0x2F47 JUMPI PUSH2 0x2710 DUP4 DUP2 PUSH2 0x2F3D JUMPI PUSH2 0x2F3C PUSH2 0x417E JUMP JUMPDEST JUMPDEST DIV SWAP3 POP PUSH1 0x4 DUP2 ADD SWAP1 POP JUMPDEST PUSH1 0x64 DUP4 LT PUSH2 0x2F6A JUMPI PUSH1 0x64 DUP4 DUP2 PUSH2 0x2F60 JUMPI PUSH2 0x2F5F PUSH2 0x417E JUMP JUMPDEST JUMPDEST DIV SWAP3 POP PUSH1 0x2 DUP2 ADD SWAP1 POP JUMPDEST PUSH1 0xA DUP4 LT PUSH2 0x2F79 JUMPI PUSH1 0x1 DUP2 ADD SWAP1 POP JUMPDEST DUP1 SWAP2 POP POP SWAP2 SWAP1 POP JUMP JUMPDEST PUSH1 0x0 PUSH32 0x1FFC9A700000000000000000000000000000000000000000000000000000000 PUSH28 0xFFFFFFFFFFFFFFFFFFFFFFFFFFFFFFFFFFFFFFFFFFFFFFFFFFFFFFFF NOT AND DUP3 PUSH28 0xFFFFFFFFFFFFFFFFFFFFFFFFFFFFFFFFFFFFFFFFFFFFFFFFFFFFFFFF NOT AND EQ SWAP1 POP SWAP2 SWAP1 POP JUMP JUMPDEST PUSH1 0x0 DUP1 DUP3 PUSH20 0xFFFFFFFFFFFFFFFFFFFFFFFFFFFFFFFFFFFFFFFF AND EXTCODESIZE GT SWAP1 POP SWAP2 SWAP1 POP JUMP JUMPDEST PUSH1 0x0 PUSH1 0x40 MLOAD SWAP1 POP SWAP1 JUMP JUMPDEST PUSH1 0x0 DUP1 REVERT JUMPDEST PUSH1 0x0 DUP1 REVERT JUMPDEST PUSH1 0x0 PUSH32 0xFFFFFFFF00000000000000000000000000000000000000000000000000000000 DUP3 AND SWAP1 POP SWAP2 SWAP1 POP JUMP JUMPDEST PUSH2 0x3058 DUP2 PUSH2 0x3023 JUMP JUMPDEST DUP2 EQ PUSH2 0x3063 JUMPI PUSH1 0x0 DUP1 REVERT JUMPDEST POP JUMP JUMPDEST PUSH1 0x0 DUP2 CALLDATALOAD SWAP1 POP PUSH2 0x3075 DUP2 PUSH2 0x304F JUMP JUMPDEST SWAP3 SWAP2 POP POP JUMP JUMPDEST PUSH1 0x0 PUSH1 0x20 DUP3 DUP5 SUB SLT ISZERO PUSH2 0x3091 JUMPI PUSH2 0x3090 PUSH2 0x3019 JUMP JUMPDEST JUMPDEST PUSH1 0x0 PUSH2 0x309F DUP5 DUP3 DUP6 ADD PUSH2 0x3066 JUMP JUMPDEST SWAP2 POP POP SWAP3 SWAP2 POP POP JUMP JUMPDEST PUSH1 0x0 DUP2 ISZERO ISZERO SWAP1 POP SWAP2 SWAP1 POP JUMP JUMPDEST PUSH2 0x30BD DUP2 PUSH2 0x30A8 JUMP JUMPDEST DUP3 MSTORE POP POP JUMP JUMPDEST PUSH1 0x0 PUSH1 0x20 DUP3 ADD SWAP1 POP PUSH2 0x30D8 PUSH1 0x0 DUP4 ADD DUP5 PUSH2 0x30B4 JUMP JUMPDEST SWAP3 SWAP2 POP POP JUMP JUMPDEST PUSH1 0x0 DUP2 MLOAD SWAP1 POP SWAP2 SWAP1 POP JUMP JUMPDEST PUSH1 0x0 DUP3 DUP3 MSTORE PUSH1 0x20 DUP3 ADD SWAP1 POP SWAP3 SWAP2 POP POP JUMP JUMPDEST PUSH1 0x0 JUMPDEST DUP4 DUP2 LT ISZERO PUSH2 0x3118 JUMPI DUP1 DUP3 ADD MLOAD DUP2 DUP5 ADD MSTORE PUSH1 0x20 DUP2 ADD SWAP1 POP PUSH2 0x30FD JUMP JUMPDEST DUP4 DUP2 GT ISZERO PUSH2 0x3127 JUMPI PUSH1 0x0 DUP5 DUP5 ADD MSTORE JUMPDEST POP POP POP POP JUMP JUMPDEST PUSH1 0x0 PUSH1 0x1F NOT PUSH1 0x1F DUP4 ADD AND SWAP1 POP SWAP2 SWAP1 POP JUMP JUMPDEST PUSH1 0x0 PUSH2 0x3149 DUP3 PUSH2 0x30DE JUMP JUMPDEST PUSH2 0x3153 DUP2 DUP6 PUSH2 0x30E9 JUMP JUMPDEST SWAP4 POP PUSH2 0x3163 DUP2 DUP6 PUSH1 0x20 DUP7 ADD PUSH2 0x30FA JUMP JUMPDEST PUSH2 0x316C DUP2 PUSH2 0x312D JUMP JUMPDEST DUP5 ADD SWAP2 POP POP SWAP3 SWAP2 POP POP JUMP JUMPDEST PUSH1 0x0 PUSH1 0x20 DUP3 ADD SWAP1 POP DUP2 DUP2 SUB PUSH1 0x0 DUP4 ADD MSTORE PUSH2 0x3191 DUP2 DUP5 PUSH2 0x313E JUMP JUMPDEST SWAP1 POP SWAP3 SWAP2 POP POP JUMP JUMPDEST PUSH1 0x0 DUP2 SWAP1 POP SWAP2 SWAP1 POP JUMP JUMPDEST PUSH2 0x31AC DUP2 PUSH2 0x3199 JUMP JUMPDEST DUP2 EQ PUSH2 0x31B7 JUMPI PUSH1 0x0 DUP1 REVERT JUMPDEST POP JUMP JUMPDEST PUSH1 0x0 DUP2 CALLDATALOAD SWAP1 POP PUSH2 0x31C9 DUP2 PUSH2 0x31A3 JUMP JUMPDEST SWAP3 SWAP2 POP POP JUMP JUMPDEST PUSH1 0x0 PUSH1 0x20 DUP3 DUP5 SUB SLT ISZERO PUSH2 0x31E5 JUMPI PUSH2 0x31E4 PUSH2 0x3019 JUMP JUMPDEST JUMPDEST PUSH1 0x0 PUSH2 0x31F3 DUP5 DUP3 DUP6 ADD PUSH2 0x31BA JUMP JUMPDEST SWAP2 POP POP SWAP3 SWAP2 POP POP JUMP JUMPDEST PUSH1 0x0 PUSH20 0xFFFFFFFFFFFFFFFFFFFFFFFFFFFFFFFFFFFFFFFF DUP3 AND SWAP1 POP SWAP2 SWAP1 POP JUMP JUMPDEST PUSH1 0x0 PUSH2 0x3227 DUP3 PUSH2 0x31FC JUMP JUMPDEST SWAP1 POP SWAP2 SWAP1 POP JUMP JUMPDEST PUSH2 0x3237 DUP2 PUSH2 0x321C JUMP JUMPDEST DUP3 MSTORE POP POP JUMP JUMPDEST PUSH1 0x0 PUSH1 0x20 DUP3 ADD SWAP1 POP PUSH2 0x3252 PUSH1 0x0 DUP4 ADD DUP5 PUSH2 0x322E JUMP JUMPDEST SWAP3 SWAP2 POP POP JUMP JUMPDEST PUSH2 0x3261 DUP2 PUSH2 0x321C JUMP JUMPDEST DUP2 EQ PUSH2 0x326C JUMPI PUSH1 0x0 DUP1 REVERT JUMPDEST POP JUMP JUMPDEST PUSH1 0x0 DUP2 CALLDATALOAD SWAP1 POP PUSH2 0x327E DUP2 PUSH2 0x3258 JUMP JUMPDEST SWAP3 SWAP2 POP POP JUMP JUMPDEST PUSH1 0x0 DUP1 PUSH1 0x40 DUP4 DUP6 SUB SLT ISZERO PUSH2 0x329B JUMPI PUSH2 0x329A PUSH2 0x3019 JUMP JUMPDEST JUMPDEST PUSH1 0x0 PUSH2 0x32A9 DUP6 DUP3 DUP7 ADD PUSH2 0x326F JUMP JUMPDEST SWAP3 POP POP PUSH1 0x20 PUSH2 0x32BA DUP6 DUP3 DUP7 ADD PUSH2 0x31BA JUMP JUMPDEST SWAP2 POP POP SWAP3 POP SWAP3 SWAP1 POP JUMP JUMPDEST PUSH1 0x0 DUP1 PUSH1 0x0 PUSH1 0x60 DUP5 DUP7 SUB SLT ISZERO PUSH2 0x32DD JUMPI PUSH2 0x32DC PUSH2 0x3019 JUMP JUMPDEST JUMPDEST PUSH1 0x0 PUSH2 0x32EB DUP7 DUP3 DUP8 ADD PUSH2 0x326F JUMP JUMPDEST SWAP4 POP POP PUSH1 0x20 PUSH2 0x32FC DUP7 DUP3 DUP8 ADD PUSH2 0x326F JUMP JUMPDEST SWAP3 POP POP PUSH1 0x40 PUSH2 0x330D DUP7 DUP3 DUP8 ADD PUSH2 0x31BA JUMP JUMPDEST SWAP2 POP POP SWAP3 POP SWAP3 POP SWAP3 JUMP JUMPDEST PUSH1 0x0 DUP2 SWAP1 POP SWAP2 SWAP1 POP JUMP JUMPDEST PUSH2 0x332A DUP2 PUSH2 0x3317 JUMP JUMPDEST DUP2 EQ PUSH2 0x3335 JUMPI PUSH1 0x0 DUP1 REVERT JUMPDEST POP JUMP JUMPDEST PUSH1 0x0 DUP2 CALLDATALOAD SWAP1 POP PUSH2 0x3347 DUP2 PUSH2 0x3321 JUMP JUMPDEST SWAP3 SWAP2 POP POP JUMP JUMPDEST PUSH1 0x0 PUSH1 0x20 DUP3 DUP5 SUB SLT ISZERO PUSH2 0x3363 JUMPI PUSH2 0x3362 PUSH2 0x3019 JUMP JUMPDEST JUMPDEST PUSH1 0x0 PUSH2 0x3371 DUP5 DUP3 DUP6 ADD PUSH2 0x3338 JUMP JUMPDEST SWAP2 POP POP SWAP3 SWAP2 POP POP JUMP JUMPDEST PUSH2 0x3383 DUP2 PUSH2 0x3317 JUMP JUMPDEST DUP3 MSTORE POP POP JUMP JUMPDEST PUSH1 0x0 PUSH1 0x20 DUP3 ADD SWAP1 POP PUSH2 0x339E PUSH1 0x0 DUP4 ADD DUP5 PUSH2 0x337A JUMP JUMPDEST SWAP3 SWAP2 POP POP JUMP JUMPDEST PUSH1 0x0 DUP1 PUSH1 0x40 DUP4 DUP6 SUB SLT ISZERO PUSH2 0x33BB JUMPI PUSH2 0x33BA PUSH2 0x3019 JUMP JUMPDEST JUMPDEST PUSH1 0x0 PUSH2 0x33C9 DUP6 DUP3 DUP7 ADD PUSH2 0x3338 JUMP JUMPDEST SWAP3 POP POP PUSH1 0x20 PUSH2 0x33DA DUP6 DUP3 DUP7 ADD PUSH2 0x326F JUMP JUMPDEST SWAP2 POP POP SWAP3 POP SWAP3 SWAP1 POP JUMP JUMPDEST PUSH32 0x4E487B7100000000000000000000000000000000000000000000000000000000 PUSH1 0x0 MSTORE PUSH1 0x21 PUSH1 0x4 MSTORE PUSH1 0x24 PUSH1 0x0 REVERT JUMPDEST PUSH1 0x2 DUP2 LT PUSH2 0x3424 JUMPI PUSH2 0x3423 PUSH2 0x33E4 JUMP JUMPDEST JUMPDEST POP JUMP JUMPDEST PUSH1 0x0 DUP2 SWAP1 POP PUSH2 0x3435 DUP3 PUSH2 0x3413 JUMP JUMPDEST SWAP2 SWAP1 POP JUMP JUMPDEST PUSH1 0x0 PUSH2 0x3445 DUP3 PUSH2 0x3427 JUMP JUMPDEST SWAP1 POP SWAP2 SWAP1 POP JUMP JUMPDEST PUSH2 0x3455 DUP2 PUSH2 0x343A JUMP JUMPDEST DUP3 MSTORE POP POP JUMP JUMPDEST PUSH1 0x0 PUSH1 0x20 DUP3 ADD SWAP1 POP PUSH2 0x3470 PUSH1 0x0 DUP4 ADD DUP5 PUSH2 0x344C JUMP JUMPDEST SWAP3 SWAP2 POP POP JUMP JUMPDEST PUSH1 0x0 PUSH1 0xFF DUP3 AND SWAP1 POP SWAP2 SWAP1 POP JUMP JUMPDEST PUSH2 0x348C DUP2 PUSH2 0x3476 JUMP JUMPDEST DUP3 MSTORE POP POP JUMP JUMPDEST PUSH1 0x0 PUSH1 0x20 DUP3 ADD SWAP1 POP PUSH2 0x34A7 PUSH1 0x0 DUP4 ADD DUP5 PUSH2 0x3483 JUMP JUMPDEST SWAP3 SWAP2 POP POP JUMP JUMPDEST PUSH1 0x0 PUSH1 0x20 DUP3 DUP5 SUB SLT ISZERO PUSH2 0x34C3 JUMPI PUSH2 0x34C2 PUSH2 0x3019 JUMP JUMPDEST JUMPDEST PUSH1 0x0 PUSH2 0x34D1 DUP5 DUP3 DUP6 ADD PUSH2 0x326F JUMP JUMPDEST SWAP2 POP POP SWAP3 SWAP2 POP POP JUMP JUMPDEST PUSH2 0x34E3 DUP2 PUSH2 0x3199 JUMP JUMPDEST DUP3 MSTORE POP POP JUMP JUMPDEST PUSH1 0x0 PUSH1 0x20 DUP3 ADD SWAP1 POP PUSH2 0x34FE PUSH1 0x0 DUP4 ADD DUP5 PUSH2 0x34DA JUMP JUMPDEST SWAP3 SWAP2 POP POP JUMP JUMPDEST PUSH2 0x350D DUP2 PUSH2 0x3476 JUMP JUMPDEST DUP2 EQ PUSH2 0x3518 JUMPI PUSH1 0x0 DUP1 REVERT JUMPDEST POP JUMP JUMPDEST PUSH1 0x0 DUP2 CALLDATALOAD SWAP1 POP PUSH2 0x352A DUP2 PUSH2 0x3504 JUMP JUMPDEST SWAP3 SWAP2 POP POP JUMP JUMPDEST PUSH2 0x3539 DUP2 PUSH2 0x30A8 JUMP JUMPDEST DUP2 EQ PUSH2 0x3544 JUMPI PUSH1 0x0 DUP1 REVERT JUMPDEST POP JUMP JUMPDEST PUSH1 0x0 DUP2 CALLDATALOAD SWAP1 POP PUSH2 0x3556 DUP2 PUSH2 0x3530 JUMP JUMPDEST SWAP3 SWAP2 POP POP JUMP JUMPDEST PUSH1 0x0 DUP1 PUSH1 0x40 DUP4 DUP6 SUB SLT ISZERO PUSH2 0x3573 JUMPI PUSH2 0x3572 PUSH2 0x3019 JUMP JUMPDEST JUMPDEST PUSH1 0x0 PUSH2 0x3581 DUP6 DUP3 DUP7 ADD PUSH2 0x351B JUMP JUMPDEST SWAP3 POP POP PUSH1 0x20 PUSH2 0x3592 DUP6 DUP3 DUP7 ADD PUSH2 0x3547 JUMP JUMPDEST SWAP2 POP POP SWAP3 POP SWAP3 SWAP1 POP JUMP JUMPDEST PUSH1 0x0 DUP1 PUSH1 0x40 DUP4 DUP6 SUB SLT ISZERO PUSH2 0x35B3 JUMPI PUSH2 0x35B2 PUSH2 0x3019 JUMP JUMPDEST JUMPDEST PUSH1 0x0 PUSH2 0x35C1 DUP6 DUP3 DUP7 ADD PUSH2 0x326F JUMP JUMPDEST SWAP3 POP POP PUSH1 0x20 PUSH2 0x35D2 DUP6 DUP3 DUP7 ADD PUSH2 0x3547 JUMP JUMPDEST SWAP2 POP POP SWAP3 POP SWAP3 SWAP1 POP JUMP JUMPDEST PUSH1 0x0 PUSH1 0x20 DUP3 DUP5 SUB SLT ISZERO PUSH2 0x35F2 JUMPI PUSH2 0x35F1 PUSH2 0x3019 JUMP JUMPDEST JUMPDEST PUSH1 0x0 PUSH2 0x3600 DUP5 DUP3 DUP6 ADD PUSH2 0x351B JUMP JUMPDEST SWAP2 POP POP SWAP3 SWAP2 POP POP JUMP JUMPDEST PUSH1 0x0 DUP1 PUSH1 0x40 DUP4 DUP6 SUB SLT ISZERO PUSH2 0x3620 JUMPI PUSH2 0x361F PUSH2 0x3019 JUMP JUMPDEST JUMPDEST PUSH1 0x0 PUSH2 0x362E DUP6 DUP3 DUP7 ADD PUSH2 0x351B JUMP JUMPDEST SWAP3 POP POP PUSH1 0x20 PUSH2 0x363F DUP6 DUP3 DUP7 ADD PUSH2 0x326F JUMP JUMPDEST SWAP2 POP POP SWAP3 POP SWAP3 SWAP1 POP JUMP JUMPDEST PUSH1 0x0 DUP1 REVERT JUMPDEST PUSH1 0x0 DUP1 REVERT JUMPDEST PUSH32 0x4E487B7100000000000000000000000000000000000000000000000000000000 PUSH1 0x0 MSTORE PUSH1 0x41 PUSH1 0x4 MSTORE PUSH1 0x24 PUSH1 0x0 REVERT JUMPDEST PUSH2 0x368B DUP3 PUSH2 0x312D JUMP JUMPDEST DUP2 ADD DUP2 DUP2 LT PUSH8 0xFFFFFFFFFFFFFFFF DUP3 GT OR ISZERO PUSH2 0x36AA JUMPI PUSH2 0x36A9 PUSH2 0x3653 JUMP JUMPDEST JUMPDEST DUP1 PUSH1 0x40 MSTORE POP POP POP JUMP JUMPDEST PUSH1 0x0 PUSH2 0x36BD PUSH2 0x300F JUMP JUMPDEST SWAP1 POP PUSH2 0x36C9 DUP3 DUP3 PUSH2 0x3682 JUMP JUMPDEST SWAP2 SWAP1 POP JUMP JUMPDEST PUSH1 0x0 PUSH8 0xFFFFFFFFFFFFFFFF DUP3 GT ISZERO PUSH2 0x36E9 JUMPI PUSH2 0x36E8 PUSH2 0x3653 JUMP JUMPDEST JUMPDEST PUSH2 0x36F2 DUP3 PUSH2 0x312D JUMP JUMPDEST SWAP1 POP PUSH1 0x20 DUP2 ADD SWAP1 POP SWAP2 SWAP1 POP JUMP JUMPDEST DUP3 DUP2 DUP4 CALLDATACOPY PUSH1 0x0 DUP4 DUP4 ADD MSTORE POP POP POP JUMP JUMPDEST PUSH1 0x0 PUSH2 0x3721 PUSH2 0x371C DUP5 PUSH2 0x36CE JUMP JUMPDEST PUSH2 0x36B3 JUMP JUMPDEST SWAP1 POP DUP3 DUP2 MSTORE PUSH1 0x20 DUP2 ADD DUP5 DUP5 DUP5 ADD GT ISZERO PUSH2 0x373D JUMPI PUSH2 0x373C PUSH2 0x364E JUMP JUMPDEST JUMPDEST PUSH2 0x3748 DUP5 DUP3 DUP6 PUSH2 0x36FF JUMP JUMPDEST POP SWAP4 SWAP3 POP POP POP JUMP JUMPDEST PUSH1 0x0 DUP3 PUSH1 0x1F DUP4 ADD SLT PUSH2 0x3765 JUMPI PUSH2 0x3764 PUSH2 0x3649 JUMP JUMPDEST JUMPDEST DUP2 CALLDATALOAD PUSH2 0x3775 DUP5 DUP3 PUSH1 0x20 DUP7 ADD PUSH2 0x370E JUMP JUMPDEST SWAP2 POP POP SWAP3 SWAP2 POP POP JUMP JUMPDEST PUSH1 0x0 DUP1 PUSH1 0x0 DUP1 PUSH1 0x80 DUP6 DUP8 SUB SLT ISZERO PUSH2 0x3798 JUMPI PUSH2 0x3797 PUSH2 0x3019 JUMP JUMPDEST JUMPDEST PUSH1 0x0 PUSH2 0x37A6 DUP8 DUP3 DUP9 ADD PUSH2 0x326F JUMP JUMPDEST SWAP5 POP POP PUSH1 0x20 PUSH2 0x37B7 DUP8 DUP3 DUP9 ADD PUSH2 0x326F JUMP JUMPDEST SWAP4 POP POP PUSH1 0x40 PUSH2 0x37C8 DUP8 DUP3 DUP9 ADD PUSH2 0x31BA JUMP JUMPDEST SWAP3 POP POP PUSH1 0x60 DUP6 ADD CALLDATALOAD PUSH8 0xFFFFFFFFFFFFFFFF DUP2 GT ISZERO PUSH2 0x37E9 JUMPI PUSH2 0x37E8 PUSH2 0x301E JUMP JUMPDEST JUMPDEST PUSH2 0x37F5 DUP8 DUP3 DUP9 ADD PUSH2 0x3750 JUMP JUMPDEST SWAP2 POP POP SWAP3 SWAP6 SWAP2 SWAP5 POP SWAP3 POP JUMP JUMPDEST PUSH1 0x2 DUP2 LT PUSH2 0x380E JUMPI PUSH1 0x0 DUP1 REVERT JUMPDEST POP JUMP JUMPDEST PUSH1 0x0 DUP2 CALLDATALOAD SWAP1 POP PUSH2 0x3820 DUP2 PUSH2 0x3801 JUMP JUMPDEST SWAP3 SWAP2 POP POP JUMP JUMPDEST PUSH1 0x0 PUSH2 0xFFFF DUP3 AND SWAP1 POP SWAP2 SWAP1 POP JUMP JUMPDEST PUSH2 0x383D DUP2 PUSH2 0x3826 JUMP JUMPDEST DUP2 EQ PUSH2 0x3848 JUMPI PUSH1 0x0 DUP1 REVERT JUMPDEST POP JUMP JUMPDEST PUSH1 0x0 DUP2 CALLDATALOAD SWAP1 POP PUSH2 0x385A DUP2 PUSH2 0x3834 JUMP JUMPDEST SWAP3 SWAP2 POP POP JUMP JUMPDEST PUSH1 0x2 DUP2 LT PUSH2 0x386D JUMPI PUSH1 0x0 DUP1 REVERT JUMPDEST POP JUMP JUMPDEST PUSH1 0x0 DUP2 CALLDATALOAD SWAP1 POP PUSH2 0x387F DUP2 PUSH2 0x3860 JUMP JUMPDEST SWAP3 SWAP2 POP POP JUMP JUMPDEST PUSH1 0x0 PUSH4 0xFFFFFFFF DUP3 AND SWAP1 POP SWAP2 SWAP1 POP JUMP JUMPDEST PUSH2 0x389E DUP2 PUSH2 0x3885 JUMP JUMPDEST DUP2 EQ PUSH2 0x38A9 JUMPI PUSH1 0x0 DUP1 REVERT JUMPDEST POP JUMP JUMPDEST PUSH1 0x0 DUP2 CALLDATALOAD SWAP1 POP PUSH2 0x38BB DUP2 PUSH2 0x3895 JUMP JUMPDEST SWAP3 SWAP2 POP POP JUMP JUMPDEST PUSH1 0x0 DUP1 PUSH1 0x0 DUP1 PUSH1 0x0 DUP1 PUSH1 0xC0 DUP8 DUP10 SUB SLT ISZERO PUSH2 0x38DE JUMPI PUSH2 0x38DD PUSH2 0x3019 JUMP JUMPDEST JUMPDEST PUSH1 0x0 PUSH2 0x38EC DUP10 DUP3 DUP11 ADD PUSH2 0x326F JUMP JUMPDEST SWAP7 POP POP PUSH1 0x20 PUSH2 0x38FD DUP10 DUP3 DUP11 ADD PUSH2 0x3811 JUMP JUMPDEST SWAP6 POP POP PUSH1 0x40 PUSH2 0x390E DUP10 DUP3 DUP11 ADD PUSH2 0x384B JUMP JUMPDEST SWAP5 POP POP PUSH1 0x60 PUSH2 0x391F DUP10 DUP3 DUP11 ADD PUSH2 0x384B JUMP JUMPDEST SWAP4 POP POP PUSH1 0x80 PUSH2 0x3930 DUP10 DUP3 DUP11 ADD PUSH2 0x3870 JUMP JUMPDEST SWAP3 POP POP PUSH1 0xA0 PUSH2 0x3941 DUP10 DUP3 DUP11 ADD PUSH2 0x38AC JUMP JUMPDEST SWAP2 POP POP SWAP3 SWAP6 POP SWAP3 SWAP6 POP SWAP3 SWAP6 JUMP JUMPDEST PUSH2 0x3957 DUP2 PUSH2 0x3826 JUMP JUMPDEST DUP3 MSTORE POP POP JUMP JUMPDEST PUSH1 0x2 DUP2 LT PUSH2 0x396E JUMPI PUSH2 0x396D PUSH2 0x33E4 JUMP JUMPDEST JUMPDEST POP JUMP JUMPDEST PUSH1 0x0 DUP2 SWAP1 POP PUSH2 0x397F DUP3 PUSH2 0x395D JUMP JUMPDEST SWAP2 SWAP1 POP JUMP JUMPDEST PUSH1 0x0 PUSH2 0x398F DUP3 PUSH2 0x3971 JUMP JUMPDEST SWAP1 POP SWAP2 SWAP1 POP JUMP JUMPDEST PUSH2 0x399F DUP2 PUSH2 0x3984 JUMP JUMPDEST DUP3 MSTORE POP POP JUMP JUMPDEST PUSH2 0x39AE DUP2 PUSH2 0x3885 JUMP JUMPDEST DUP3 MSTORE POP POP JUMP JUMPDEST PUSH1 0x0 PUSH2 0x100 DUP3 ADD SWAP1 POP PUSH2 0x39CA PUSH1 0x0 DUP4 ADD DUP12 PUSH2 0x322E JUMP JUMPDEST PUSH2 0x39D7 PUSH1 0x20 DUP4 ADD DUP11 PUSH2 0x344C JUMP JUMPDEST PUSH2 0x39E4 PUSH1 0x40 DUP4 ADD DUP10 PUSH2 0x394E JUMP JUMPDEST PUSH2 0x39F1 PUSH1 0x60 DUP4 ADD DUP9 PUSH2 0x394E JUMP JUMPDEST PUSH2 0x39FE PUSH1 0x80 DUP4 ADD DUP8 PUSH2 0x3996 JUMP JUMPDEST PUSH2 0x3A0B PUSH1 0xA0 DUP4 ADD DUP7 PUSH2 0x39A5 JUMP JUMPDEST PUSH2 0x3A18 PUSH1 0xC0 DUP4 ADD DUP6 PUSH2 0x30B4 JUMP JUMPDEST PUSH2 0x3A25 PUSH1 0xE0 DUP4 ADD DUP5 PUSH2 0x322E JUMP JUMPDEST SWAP10 SWAP9 POP POP POP POP POP POP POP POP POP JUMP JUMPDEST PUSH1 0x0 DUP1 PUSH1 0x40 DUP4 DUP6 SUB SLT ISZERO PUSH2 0x3A49 JUMPI PUSH2 0x3A48 PUSH2 0x3019 JUMP JUMPDEST JUMPDEST PUSH1 0x0 PUSH2 0x3A57 DUP6 DUP3 DUP7 ADD PUSH2 0x351B JUMP JUMPDEST SWAP3 POP POP PUSH1 0x20 PUSH2 0x3A68 DUP6 DUP3 DUP7 ADD PUSH2 0x38AC JUMP JUMPDEST SWAP2 POP POP SWAP3 POP SWAP3 SWAP1 POP JUMP JUMPDEST PUSH1 0x0 PUSH1 0x20 DUP3 ADD SWAP1 POP PUSH2 0x3A87 PUSH1 0x0 DUP4 ADD DUP5 PUSH2 0x39A5 JUMP JUMPDEST SWAP3 SWAP2 POP POP JUMP JUMPDEST PUSH1 0x0 DUP1 PUSH1 0x40 DUP4 DUP6 SUB SLT ISZERO PUSH2 0x3AA4 JUMPI PUSH2 0x3AA3 PUSH2 0x3019 JUMP JUMPDEST JUMPDEST PUSH1 0x0 PUSH2 0x3AB2 DUP6 DUP3 DUP7 ADD PUSH2 0x326F JUMP JUMPDEST SWAP3 POP POP PUSH1 0x20 PUSH2 0x3AC3 DUP6 DUP3 DUP7 ADD PUSH2 0x326F JUMP JUMPDEST SWAP2 POP POP SWAP3 POP SWAP3 SWAP1 POP JUMP JUMPDEST PUSH1 0x0 PUSH1 0x20 DUP3 ADD SWAP1 POP PUSH2 0x3AE2 PUSH1 0x0 DUP4 ADD DUP5 PUSH2 0x3996 JUMP JUMPDEST SWAP3 SWAP2 POP POP JUMP JUMPDEST PUSH32 0x4E487B7100000000000000000000000000000000000000000000000000000000 PUSH1 0x0 MSTORE PUSH1 0x22 PUSH1 0x4 MSTORE PUSH1 0x24 PUSH1 0x0 REVERT JUMPDEST PUSH1 0x0 PUSH1 0x2 DUP3 DIV SWAP1 POP PUSH1 0x1 DUP3 AND DUP1 PUSH2 0x3B2F JUMPI PUSH1 0x7F DUP3 AND SWAP2 POP JUMPDEST PUSH1 0x20 DUP3 LT DUP2 SUB PUSH2 0x3B42 JUMPI PUSH2 0x3B41 PUSH2 0x3AE8 JUMP JUMPDEST JUMPDEST POP SWAP2 SWAP1 POP JUMP JUMPDEST PUSH32 0x4552433732313A20617070726F76616C20746F2063757272656E74206F776E65 PUSH1 0x0 DUP3 ADD MSTORE PUSH32 0x7200000000000000000000000000000000000000000000000000000000000000 PUSH1 0x20 DUP3 ADD MSTORE POP JUMP JUMPDEST PUSH1 0x0 PUSH2 0x3BA4 PUSH1 0x21 DUP4 PUSH2 0x30E9 JUMP JUMPDEST SWAP2 POP PUSH2 0x3BAF DUP3 PUSH2 0x3B48 JUMP JUMPDEST PUSH1 0x40 DUP3 ADD SWAP1 POP SWAP2 SWAP1 POP JUMP JUMPDEST PUSH1 0x0 PUSH1 0x20 DUP3 ADD SWAP1 POP DUP2 DUP2 SUB PUSH1 0x0 DUP4 ADD MSTORE PUSH2 0x3BD3 DUP2 PUSH2 0x3B97 JUMP JUMPDEST SWAP1 POP SWAP2 SWAP1 POP JUMP JUMPDEST PUSH32 0x4552433732313A20617070726F76652063616C6C6572206973206E6F7420746F PUSH1 0x0 DUP3 ADD MSTORE PUSH32 0x6B656E206F776E6572206F7220617070726F76656420666F7220616C6C000000 PUSH1 0x20 DUP3 ADD MSTORE POP JUMP JUMPDEST PUSH1 0x0 PUSH2 0x3C36 PUSH1 0x3D DUP4 PUSH2 0x30E9 JUMP JUMPDEST SWAP2 POP PUSH2 0x3C41 DUP3 PUSH2 0x3BDA JUMP JUMPDEST PUSH1 0x40 DUP3 ADD SWAP1 POP SWAP2 SWAP1 POP JUMP JUMPDEST PUSH1 0x0 PUSH1 0x20 DUP3 ADD SWAP1 POP DUP2 DUP2 SUB PUSH1 0x0 DUP4 ADD MSTORE PUSH2 0x3C65 DUP2 PUSH2 0x3C29 JUMP JUMPDEST SWAP1 POP SWAP2 SWAP1 POP JUMP JUMPDEST PUSH32 0x4552433732313A2063616C6C6572206973206E6F7420746F6B656E206F776E65 PUSH1 0x0 DUP3 ADD MSTORE PUSH32 0x72206F7220617070726F76656400000000000000000000000000000000000000 PUSH1 0x20 DUP3 ADD MSTORE POP JUMP JUMPDEST PUSH1 0x0 PUSH2 0x3CC8 PUSH1 0x2D DUP4 PUSH2 0x30E9 JUMP JUMPDEST SWAP2 POP PUSH2 0x3CD3 DUP3 PUSH2 0x3C6C JUMP JUMPDEST PUSH1 0x40 DUP3 ADD SWAP1 POP SWAP2 SWAP1 POP JUMP JUMPDEST PUSH1 0x0 PUSH1 0x20 DUP3 ADD SWAP1 POP DUP2 DUP2 SUB PUSH1 0x0 DUP4 ADD MSTORE PUSH2 0x3CF7 DUP2 PUSH2 0x3CBB JUMP JUMPDEST SWAP1 POP SWAP2 SWAP1 POP JUMP JUMPDEST PUSH32 0x416363657373436F6E74726F6C3A2063616E206F6E6C792072656E6F756E6365 PUSH1 0x0 DUP3 ADD MSTORE PUSH32 0x20726F6C657320666F722073656C660000000000000000000000000000000000 PUSH1 0x20 DUP3 ADD MSTORE POP JUMP JUMPDEST PUSH1 0x0 PUSH2 0x3D5A PUSH1 0x2F DUP4 PUSH2 0x30E9 JUMP JUMPDEST SWAP2 POP PUSH2 0x3D65 DUP3 PUSH2 0x3CFE JUMP JUMPDEST PUSH1 0x40 DUP3 ADD SWAP1 POP SWAP2 SWAP1 POP JUMP JUMPDEST PUSH1 0x0 PUSH1 0x20 DUP3 ADD SWAP1 POP DUP2 DUP2 SUB PUSH1 0x0 DUP4 ADD MSTORE PUSH2 0x3D89 DUP2 PUSH2 0x3D4D JUMP JUMPDEST SWAP1 POP SWAP2 SWAP1 POP JUMP JUMPDEST PUSH32 0x4552433732313A20696E76616C696420746F6B656E2049440000000000000000 PUSH1 0x0 DUP3 ADD MSTORE POP JUMP JUMPDEST PUSH1 0x0 PUSH2 0x3DC6 PUSH1 0x18 DUP4 PUSH2 0x30E9 JUMP JUMPDEST SWAP2 POP PUSH2 0x3DD1 DUP3 PUSH2 0x3D90 JUMP JUMPDEST PUSH1 0x20 DUP3 ADD SWAP1 POP SWAP2 SWAP1 POP JUMP JUMPDEST PUSH1 0x0 PUSH1 0x20 DUP3 ADD SWAP1 POP DUP2 DUP2 SUB PUSH1 0x0 DUP4 ADD MSTORE PUSH2 0x3DF5 DUP2 PUSH2 0x3DB9 JUMP JUMPDEST SWAP1 POP SWAP2 SWAP1 POP JUMP JUMPDEST PUSH32 0x4552433732313A2061646472657373207A65726F206973206E6F742061207661 PUSH1 0x0 DUP3 ADD MSTORE PUSH32 0x6C6964206F776E65720000000000000000000000000000000000000000000000 PUSH1 0x20 DUP3 ADD MSTORE POP JUMP JUMPDEST PUSH1 0x0 PUSH2 0x3E58 PUSH1 0x29 DUP4 PUSH2 0x30E9 JUMP JUMPDEST SWAP2 POP PUSH2 0x3E63 DUP3 PUSH2 0x3DFC JUMP JUMPDEST PUSH1 0x40 DUP3 ADD SWAP1 POP SWAP2 SWAP1 POP JUMP JUMPDEST PUSH1 0x0 PUSH1 0x20 DUP3 ADD SWAP1 POP DUP2 DUP2 SUB PUSH1 0x0 DUP4 ADD MSTORE PUSH2 0x3E87 DUP2 PUSH2 0x3E4B JUMP JUMPDEST SWAP1 POP SWAP2 SWAP1 POP JUMP JUMPDEST PUSH32 0x4E487B7100000000000000000000000000000000000000000000000000000000 PUSH1 0x0 MSTORE PUSH1 0x32 PUSH1 0x4 MSTORE PUSH1 0x24 PUSH1 0x0 REVERT JUMPDEST PUSH32 0x4F6E6C7920666C6F72657374277320696E697469616C206F776E657220697320 PUSH1 0x0 DUP3 ADD MSTORE PUSH32 0x616C6C6F77656420666F72207468697320747800000000000000000000000000 PUSH1 0x20 DUP3 ADD MSTORE POP JUMP JUMPDEST PUSH1 0x0 PUSH2 0x3F19 PUSH1 0x33 DUP4 PUSH2 0x30E9 JUMP JUMPDEST SWAP2 POP PUSH2 0x3F24 DUP3 PUSH2 0x3EBD JUMP JUMPDEST PUSH1 0x40 DUP3 ADD SWAP1 POP SWAP2 SWAP1 POP JUMP JUMPDEST PUSH1 0x0 PUSH1 0x20 DUP3 ADD SWAP1 POP DUP2 DUP2 SUB PUSH1 0x0 DUP4 ADD MSTORE PUSH2 0x3F48 DUP2 PUSH2 0x3F0C JUMP JUMPDEST SWAP1 POP SWAP2 SWAP1 POP JUMP JUMPDEST PUSH1 0x0 DUP2 MLOAD SWAP1 POP PUSH2 0x3F5E DUP2 PUSH2 0x31A3 JUMP JUMPDEST SWAP3 SWAP2 POP POP JUMP JUMPDEST PUSH1 0x0 PUSH1 0x20 DUP3 DUP5 SUB SLT ISZERO PUSH2 0x3F7A JUMPI PUSH2 0x3F79 PUSH2 0x3019 JUMP JUMPDEST JUMPDEST PUSH1 0x0 PUSH2 0x3F88 DUP5 DUP3 DUP6 ADD PUSH2 0x3F4F JUMP JUMPDEST SWAP2 POP POP SWAP3 SWAP2 POP POP JUMP JUMPDEST PUSH32 0x70726F6A656374206973207374696C6C206F6E676F696E672100000000000000 PUSH1 0x0 DUP3 ADD MSTORE POP JUMP JUMPDEST PUSH1 0x0 PUSH2 0x3FC7 PUSH1 0x19 DUP4 PUSH2 0x30E9 JUMP JUMPDEST SWAP2 POP PUSH2 0x3FD2 DUP3 PUSH2 0x3F91 JUMP JUMPDEST PUSH1 0x20 DUP3 ADD SWAP1 POP SWAP2 SWAP1 POP JUMP JUMPDEST PUSH1 0x0 PUSH1 0x20 DUP3 ADD SWAP1 POP DUP2 DUP2 SUB PUSH1 0x0 DUP4 ADD MSTORE PUSH2 0x3FF6 DUP2 PUSH2 0x3FBA JUMP JUMPDEST SWAP1 POP SWAP2 SWAP1 POP JUMP JUMPDEST PUSH32 0x4E487B7100000000000000000000000000000000000000000000000000000000 PUSH1 0x0 MSTORE PUSH1 0x11 PUSH1 0x4 MSTORE PUSH1 0x24 PUSH1 0x0 REVERT JUMPDEST PUSH1 0x0 PUSH2 0x4037 DUP3 PUSH2 0x3476 JUMP JUMPDEST SWAP2 POP PUSH1 0xFF DUP3 SUB PUSH2 0x404A JUMPI PUSH2 0x4049 PUSH2 0x3FFD JUMP JUMPDEST JUMPDEST PUSH1 0x1 DUP3 ADD SWAP1 POP SWAP2 SWAP1 POP JUMP JUMPDEST PUSH1 0x0 DUP2 SWAP1 POP SWAP3 SWAP2 POP POP JUMP JUMPDEST PUSH1 0x0 PUSH2 0x406B DUP3 PUSH2 0x30DE JUMP JUMPDEST PUSH2 0x4075 DUP2 DUP6 PUSH2 0x4055 JUMP JUMPDEST SWAP4 POP PUSH2 0x4085 DUP2 DUP6 PUSH1 0x20 DUP7 ADD PUSH2 0x30FA JUMP JUMPDEST DUP1 DUP5 ADD SWAP2 POP POP SWAP3 SWAP2 POP POP JUMP JUMPDEST PUSH1 0x0 PUSH2 0x409D DUP3 DUP6 PUSH2 0x4060 JUMP JUMPDEST SWAP2 POP PUSH2 0x40A9 DUP3 DUP5 PUSH2 0x4060 JUMP JUMPDEST SWAP2 POP DUP2 SWAP1 POP SWAP4 SWAP3 POP POP POP JUMP JUMPDEST PUSH32 0x61737365742069732063757272656E746C79206E6F7420617661696C61626C65 PUSH1 0x0 DUP3 ADD MSTORE PUSH32 0x20666F72207472616E7366657200000000000000000000000000000000000000 PUSH1 0x20 DUP3 ADD MSTORE POP JUMP JUMPDEST PUSH1 0x0 PUSH2 0x4111 PUSH1 0x2D DUP4 PUSH2 0x30E9 JUMP JUMPDEST SWAP2 POP PUSH2 0x411C DUP3 PUSH2 0x40B5 JUMP JUMPDEST PUSH1 0x40 DUP3 ADD SWAP1 POP SWAP2 SWAP1 POP JUMP JUMPDEST PUSH1 0x0 PUSH1 0x20 DUP3 ADD SWAP1 POP DUP2 DUP2 SUB PUSH1 0x0 DUP4 ADD MSTORE PUSH2 0x4140 DUP2 PUSH2 0x4104 JUMP JUMPDEST SWAP1 POP SWAP2 SWAP1 POP JUMP JUMPDEST PUSH1 0x0 PUSH1 0x60 DUP3 ADD SWAP1 POP PUSH2 0x415C PUSH1 0x0 DUP4 ADD DUP7 PUSH2 0x3483 JUMP JUMPDEST PUSH2 0x4169 PUSH1 0x20 DUP4 ADD DUP6 PUSH2 0x322E JUMP JUMPDEST PUSH2 0x4176 PUSH1 0x40 DUP4 ADD DUP5 PUSH2 0x30B4 JUMP JUMPDEST SWAP5 SWAP4 POP POP POP POP JUMP JUMPDEST PUSH32 0x4E487B7100000000000000000000000000000000000000000000000000000000 PUSH1 0x0 MSTORE PUSH1 0x12 PUSH1 0x4 MSTORE PUSH1 0x24 PUSH1 0x0 REVERT JUMPDEST PUSH1 0x0 PUSH2 0x41B8 DUP3 PUSH2 0x3199 JUMP JUMPDEST SWAP2 POP PUSH2 0x41C3 DUP4 PUSH2 0x3199 JUMP JUMPDEST SWAP3 POP DUP3 PUSH2 0x41D3 JUMPI PUSH2 0x41D2 PUSH2 0x417E JUMP JUMPDEST JUMPDEST DUP3 DUP3 DIV SWAP1 POP SWAP3 SWAP2 POP POP JUMP JUMPDEST PUSH1 0x0 PUSH2 0x41E9 DUP3 PUSH2 0x3199 JUMP JUMPDEST SWAP2 POP PUSH2 0x41F4 DUP4 PUSH2 0x3199 JUMP JUMPDEST SWAP3 POP DUP3 PUSH32 0xFFFFFFFFFFFFFFFFFFFFFFFFFFFFFFFFFFFFFFFFFFFFFFFFFFFFFFFFFFFFFFFF SUB DUP3 GT ISZERO PUSH2 0x4229 JUMPI PUSH2 0x4228 PUSH2 0x3FFD JUMP JUMPDEST JUMPDEST DUP3 DUP3 ADD SWAP1 POP SWAP3 SWAP2 POP POP JUMP JUMPDEST PUSH32 0x4F776E61626C653A206E6577206F776E657220697320746865207A65726F2061 PUSH1 0x0 DUP3 ADD MSTORE PUSH32 0x6464726573730000000000000000000000000000000000000000000000000000 PUSH1 0x20 DUP3 ADD MSTORE POP JUMP JUMPDEST PUSH1 0x0 PUSH2 0x4290 PUSH1 0x26 DUP4 PUSH2 0x30E9 JUMP JUMPDEST SWAP2 POP PUSH2 0x429B DUP3 PUSH2 0x4234 JUMP JUMPDEST PUSH1 0x40 DUP3 ADD SWAP1 POP SWAP2 SWAP1 POP JUMP JUMPDEST PUSH1 0x0 PUSH1 0x20 DUP3 ADD SWAP1 POP DUP2 DUP2 SUB PUSH1 0x0 DUP4 ADD MSTORE PUSH2 0x42BF DUP2 PUSH2 0x4283 JUMP JUMPDEST SWAP1 POP SWAP2 SWAP1 POP JUMP JUMPDEST PUSH1 0x0 PUSH2 0x42D1 DUP3 PUSH2 0x3199 JUMP JUMPDEST SWAP2 POP PUSH2 0x42DC DUP4 PUSH2 0x3199 JUMP JUMPDEST SWAP3 POP DUP2 PUSH32 0xFFFFFFFFFFFFFFFFFFFFFFFFFFFFFFFFFFFFFFFFFFFFFFFFFFFFFFFFFFFFFFFF DIV DUP4 GT DUP3 ISZERO ISZERO AND ISZERO PUSH2 0x4315 JUMPI PUSH2 0x4314 PUSH2 0x3FFD JUMP JUMPDEST JUMPDEST DUP3 DUP3 MUL SWAP1 POP SWAP3 SWAP2 POP POP JUMP JUMPDEST PUSH1 0x0 PUSH2 0x432B DUP3 PUSH2 0x3199 JUMP JUMPDEST SWAP2 POP PUSH1 0x0 DUP3 SUB PUSH2 0x433E JUMPI PUSH2 0x433D PUSH2 0x3FFD JUMP JUMPDEST JUMPDEST PUSH1 0x1 DUP3 SUB SWAP1 POP SWAP2 SWAP1 POP JUMP JUMPDEST PUSH32 0x537472696E67733A20686578206C656E67746820696E73756666696369656E74 PUSH1 0x0 DUP3 ADD MSTORE POP JUMP JUMPDEST PUSH1 0x0 PUSH2 0x437F PUSH1 0x20 DUP4 PUSH2 0x30E9 JUMP JUMPDEST SWAP2 POP PUSH2 0x438A DUP3 PUSH2 0x4349 JUMP JUMPDEST PUSH1 0x20 DUP3 ADD SWAP1 POP SWAP2 SWAP1 POP JUMP JUMPDEST PUSH1 0x0 PUSH1 0x20 DUP3 ADD SWAP1 POP DUP2 DUP2 SUB PUSH1 0x0 DUP4 ADD MSTORE PUSH2 0x43AE DUP2 PUSH2 0x4372 JUMP JUMPDEST SWAP1 POP SWAP2 SWAP1 POP JUMP JUMPDEST PUSH32 0x4552433732313A207472616E736665722066726F6D20696E636F727265637420 PUSH1 0x0 DUP3 ADD MSTORE PUSH32 0x6F776E6572000000000000000000000000000000000000000000000000000000 PUSH1 0x20 DUP3 ADD MSTORE POP JUMP JUMPDEST PUSH1 0x0 PUSH2 0x4411 PUSH1 0x25 DUP4 PUSH2 0x30E9 JUMP JUMPDEST SWAP2 POP PUSH2 0x441C DUP3 PUSH2 0x43B5 JUMP JUMPDEST PUSH1 0x40 DUP3 ADD SWAP1 POP SWAP2 SWAP1 POP JUMP JUMPDEST PUSH1 0x0 PUSH1 0x20 DUP3 ADD SWAP1 POP DUP2 DUP2 SUB PUSH1 0x0 DUP4 ADD MSTORE PUSH2 0x4440 DUP2 PUSH2 0x4404 JUMP JUMPDEST SWAP1 POP SWAP2 SWAP1 POP JUMP JUMPDEST PUSH32 0x4552433732313A207472616E7366657220746F20746865207A65726F20616464 PUSH1 0x0 DUP3 ADD MSTORE PUSH32 0x7265737300000000000000000000000000000000000000000000000000000000 PUSH1 0x20 DUP3 ADD MSTORE POP JUMP JUMPDEST PUSH1 0x0 PUSH2 0x44A3 PUSH1 0x24 DUP4 PUSH2 0x30E9 JUMP JUMPDEST SWAP2 POP PUSH2 0x44AE DUP3 PUSH2 0x4447 JUMP JUMPDEST PUSH1 0x40 DUP3 ADD SWAP1 POP SWAP2 SWAP1 POP JUMP JUMPDEST PUSH1 0x0 PUSH1 0x20 DUP3 ADD SWAP1 POP DUP2 DUP2 SUB PUSH1 0x0 DUP4 ADD MSTORE PUSH2 0x44D2 DUP2 PUSH2 0x4496 JUMP JUMPDEST SWAP1 POP SWAP2 SWAP1 POP JUMP JUMPDEST PUSH32 0x4F776E61626C653A2063616C6C6572206973206E6F7420746865206F776E6572 PUSH1 0x0 DUP3 ADD MSTORE POP JUMP JUMPDEST PUSH1 0x0 PUSH2 0x450F PUSH1 0x20 DUP4 PUSH2 0x30E9 JUMP JUMPDEST SWAP2 POP PUSH2 0x451A DUP3 PUSH2 0x44D9 JUMP JUMPDEST PUSH1 0x20 DUP3 ADD SWAP1 POP SWAP2 SWAP1 POP JUMP JUMPDEST PUSH1 0x0 PUSH1 0x20 DUP3 ADD SWAP1 POP DUP2 DUP2 SUB PUSH1 0x0 DUP4 ADD MSTORE PUSH2 0x453E DUP2 PUSH2 0x4502 JUMP JUMPDEST SWAP1 POP SWAP2 SWAP1 POP JUMP JUMPDEST PUSH32 0x4552433732313A20617070726F766520746F2063616C6C657200000000000000 PUSH1 0x0 DUP3 ADD MSTORE POP JUMP JUMPDEST PUSH1 0x0 PUSH2 0x457B PUSH1 0x19 DUP4 PUSH2 0x30E9 JUMP JUMPDEST SWAP2 POP PUSH2 0x4586 DUP3 PUSH2 0x4545 JUMP JUMPDEST PUSH1 0x20 DUP3 ADD SWAP1 POP SWAP2 SWAP1 POP JUMP JUMPDEST PUSH1 0x0 PUSH1 0x20 DUP3 ADD SWAP1 POP DUP2 DUP2 SUB PUSH1 0x0 DUP4 ADD MSTORE PUSH2 0x45AA DUP2 PUSH2 0x456E JUMP JUMPDEST SWAP1 POP SWAP2 SWAP1 POP JUMP JUMPDEST PUSH32 0x4552433732313A207472616E7366657220746F206E6F6E204552433732315265 PUSH1 0x0 DUP3 ADD MSTORE PUSH32 0x63656976657220696D706C656D656E7465720000000000000000000000000000 PUSH1 0x20 DUP3 ADD MSTORE POP JUMP JUMPDEST PUSH1 0x0 PUSH2 0x460D PUSH1 0x32 DUP4 PUSH2 0x30E9 JUMP JUMPDEST SWAP2 POP PUSH2 0x4618 DUP3 PUSH2 0x45B1 JUMP JUMPDEST PUSH1 0x40 DUP3 ADD SWAP1 POP SWAP2 SWAP1 POP JUMP JUMPDEST PUSH1 0x0 PUSH1 0x20 DUP3 ADD SWAP1 POP DUP2 DUP2 SUB PUSH1 0x0 DUP4 ADD MSTORE PUSH2 0x463C DUP2 PUSH2 0x4600 JUMP JUMPDEST SWAP1 POP SWAP2 SWAP1 POP JUMP JUMPDEST PUSH32 0x4552433732313A206D696E7420746F20746865207A65726F2061646472657373 PUSH1 0x0 DUP3 ADD MSTORE POP JUMP JUMPDEST PUSH1 0x0 PUSH2 0x4679 PUSH1 0x20 DUP4 PUSH2 0x30E9 JUMP JUMPDEST SWAP2 POP PUSH2 0x4684 DUP3 PUSH2 0x4643 JUMP JUMPDEST PUSH1 0x20 DUP3 ADD SWAP1 POP SWAP2 SWAP1 POP JUMP JUMPDEST PUSH1 0x0 PUSH1 0x20 DUP3 ADD SWAP1 POP DUP2 DUP2 SUB PUSH1 0x0 DUP4 ADD MSTORE PUSH2 0x46A8 DUP2 PUSH2 0x466C JUMP JUMPDEST SWAP1 POP SWAP2 SWAP1 POP JUMP JUMPDEST PUSH32 0x4552433732313A20746F6B656E20616C7265616479206D696E74656400000000 PUSH1 0x0 DUP3 ADD MSTORE POP JUMP JUMPDEST PUSH1 0x0 PUSH2 0x46E5 PUSH1 0x1C DUP4 PUSH2 0x30E9 JUMP JUMPDEST SWAP2 POP PUSH2 0x46F0 DUP3 PUSH2 0x46AF JUMP JUMPDEST PUSH1 0x20 DUP3 ADD SWAP1 POP SWAP2 SWAP1 POP JUMP JUMPDEST PUSH1 0x0 PUSH1 0x20 DUP3 ADD SWAP1 POP DUP2 DUP2 SUB PUSH1 0x0 DUP4 ADD MSTORE PUSH2 0x4714 DUP2 PUSH2 0x46D8 JUMP JUMPDEST SWAP1 POP SWAP2 SWAP1 POP JUMP JUMPDEST PUSH1 0x0 PUSH2 0x4726 DUP3 PUSH2 0x3199 JUMP JUMPDEST SWAP2 POP PUSH2 0x4731 DUP4 PUSH2 0x3199 JUMP JUMPDEST SWAP3 POP DUP3 DUP3 LT ISZERO PUSH2 0x4744 JUMPI PUSH2 0x4743 PUSH2 0x3FFD JUMP JUMPDEST JUMPDEST DUP3 DUP3 SUB SWAP1 POP SWAP3 SWAP2 POP POP JUMP JUMPDEST PUSH32 0x416363657373436F6E74726F6C3A206163636F756E7420000000000000000000 PUSH1 0x0 DUP3 ADD MSTORE POP JUMP JUMPDEST PUSH1 0x0 PUSH2 0x4785 PUSH1 0x17 DUP4 PUSH2 0x4055 JUMP JUMPDEST SWAP2 POP PUSH2 0x4790 DUP3 PUSH2 0x474F JUMP JUMPDEST PUSH1 0x17 DUP3 ADD SWAP1 POP SWAP2 SWAP1 POP JUMP JUMPDEST PUSH32 0x206973206D697373696E6720726F6C6520000000000000000000000000000000 PUSH1 0x0 DUP3 ADD MSTORE POP JUMP JUMPDEST PUSH1 0x0 PUSH2 0x47D1 PUSH1 0x11 DUP4 PUSH2 0x4055 JUMP JUMPDEST SWAP2 POP PUSH2 0x47DC DUP3 PUSH2 0x479B JUMP JUMPDEST PUSH1 0x11 DUP3 ADD SWAP1 POP SWAP2 SWAP1 POP JUMP JUMPDEST PUSH1 0x0 PUSH2 0x47F2 DUP3 PUSH2 0x4778 JUMP JUMPDEST SWAP2 POP PUSH2 0x47FE DUP3 DUP6 PUSH2 0x4060 JUMP JUMPDEST SWAP2 POP PUSH2 0x4809 DUP3 PUSH2 0x47C4 JUMP JUMPDEST SWAP2 POP PUSH2 0x4815 DUP3 DUP5 PUSH2 0x4060 JUMP JUMPDEST SWAP2 POP DUP2 SWAP1 POP SWAP4 SWAP3 POP POP POP JUMP JUMPDEST PUSH1 0x0 DUP2 MLOAD SWAP1 POP SWAP2 SWAP1 POP JUMP JUMPDEST PUSH1 0x0 DUP3 DUP3 MSTORE PUSH1 0x20 DUP3 ADD SWAP1 POP SWAP3 SWAP2 POP POP JUMP JUMPDEST PUSH1 0x0 PUSH2 0x4848 DUP3 PUSH2 0x4821 JUMP JUMPDEST PUSH2 0x4852 DUP2 DUP6 PUSH2 0x482C JUMP JUMPDEST SWAP4 POP PUSH2 0x4862 DUP2 DUP6 PUSH1 0x20 DUP7 ADD PUSH2 0x30FA JUMP JUMPDEST PUSH2 0x486B DUP2 PUSH2 0x312D JUMP JUMPDEST DUP5 ADD SWAP2 POP POP SWAP3 SWAP2 POP POP JUMP JUMPDEST PUSH1 0x0 PUSH1 0x80 DUP3 ADD SWAP1 POP PUSH2 0x488B PUSH1 0x0 DUP4 ADD DUP8 PUSH2 0x322E JUMP JUMPDEST PUSH2 0x4898 PUSH1 0x20 DUP4 ADD DUP7 PUSH2 0x322E JUMP JUMPDEST PUSH2 0x48A5 PUSH1 0x40 DUP4 ADD DUP6 PUSH2 0x34DA JUMP JUMPDEST DUP2 DUP2 SUB PUSH1 0x60 DUP4 ADD MSTORE PUSH2 0x48B7 DUP2 DUP5 PUSH2 0x483D JUMP JUMPDEST SWAP1 POP SWAP6 SWAP5 POP POP POP POP POP JUMP JUMPDEST PUSH1 0x0 DUP2 MLOAD SWAP1 POP PUSH2 0x48D1 DUP2 PUSH2 0x304F JUMP JUMPDEST SWAP3 SWAP2 POP POP JUMP JUMPDEST PUSH1 0x0 PUSH1 0x20 DUP3 DUP5 SUB SLT ISZERO PUSH2 0x48ED JUMPI PUSH2 0x48EC PUSH2 0x3019 JUMP JUMPDEST JUMPDEST PUSH1 0x0 PUSH2 0x48FB DUP5 DUP3 DUP6 ADD PUSH2 0x48C2 JUMP JUMPDEST SWAP2 POP POP SWAP3 SWAP2 POP POP JUMP INVALID LOG2 PUSH5 0x6970667358 0x22 SLT KECCAK256 0x1F 0xD 0x2D 0x4C PUSH5 0xDE74DA8F1F 0xDD GASPRICE SAR 0xCE 0xAB EXP GASLIMIT 0xC2 CODECOPY DIV EQ PC CREATE2 SWAP13 PUSH4 0xC451A39D DUP5 INVALID 0xA9 PUSH5 0x736F6C6343 STOP ADDMOD 0xE STOP CALLER "
		},
		"gasEstimates": {
			"creation": {
				"codeDepositCost": "3749200",
				"executionCost": "infinite",
				"totalCost": "infinite"
			},
			"external": {
				"DEFAULT_ADMIN_ROLE()": "425",
				"MINTER_ROLE()": "infinite",
				"approve(address,uint256)": "infinite",
				"assetClassif()": "2742",
				"assetId()": "2561",
				"assetType()": "2656",
				"assets(uint256)": "infinite",
				"balanceOf(address)": "2921",
				"burn(uint8,address)": "infinite",
				"checkOwnership()": "2603",
				"getApproved(uint256)": "5323",
				"getCurrentYear()": "infinite",
				"getRoleAdmin(bytes32)": "infinite",
				"grantRole(bytes32,address)": "infinite",
				"hasAssetValuationBeenSet(uint8)": "5060",
				"hasRole(bytes32,address)": "3273",
				"isApprovedForAll(address,address)": "infinite",
				"mint(address,uint8,uint16,uint16,uint8,uint32)": "infinite",
				"name()": "infinite",
				"owner()": "2633",
				"ownerOf(uint256)": "3111",
				"renounceOwnership()": "30465",
				"renounceRole(bytes32,address)": "infinite",
				"revokeRole(bytes32,address)": "infinite",
				"safeTransferFrom(address,address,uint256)": "infinite",
				"safeTransferFrom(address,address,uint256,bytes)": "infinite",
				"setApprovalForAll(address,bool)": "infinite",
				"setAssetAvailabilityForTransfer(uint8,bool)": "infinite",
				"setAssetValuation(uint8,uint32)": "infinite",
				"supportsInterface(bytes4)": "952",
				"symbol()": "infinite",
				"tokenURI(uint256)": "3534",
				"transferAsset(uint8,address)": "infinite",
				"transferFrom(address,address,uint256)": "infinite",
				"transferOwnership(address)": "30854",
				"transferOwnershipInBadCase(address)": "infinite"
			},
			"internal": {
				"isAssetAvailableForTransfer(uint8)": "4420",
				"setApprovalToTransferAssets(address,address,bool)": "infinite"
			}
		},
		"methodIdentifiers": {
			"DEFAULT_ADMIN_ROLE()": "a217fddf",
			"MINTER_ROLE()": "d5391393",
			"approve(address,uint256)": "095ea7b3",
			"assetClassif()": "fe9ef85f",
			"assetId()": "44de240a",
			"assetType()": "3fe3347a",
			"assets(uint256)": "cf35bdd0",
			"balanceOf(address)": "70a08231",
			"burn(uint8,address)": "b19b5b4c",
			"checkOwnership()": "219a1d77",
			"getApproved(uint256)": "081812fc",
			"getCurrentYear()": "ce41607a",
			"getRoleAdmin(bytes32)": "248a9ca3",
			"grantRole(bytes32,address)": "2f2ff15d",
			"hasAssetValuationBeenSet(uint8)": "aeaf9020",
			"hasRole(bytes32,address)": "91d14854",
			"isApprovedForAll(address,address)": "e985e9c5",
			"mint(address,uint8,uint16,uint16,uint8,uint32)": "c0b1c627",
			"name()": "06fdde03",
			"owner()": "8da5cb5b",
			"ownerOf(uint256)": "6352211e",
			"renounceOwnership()": "715018a6",
			"renounceRole(bytes32,address)": "36568abe",
			"revokeRole(bytes32,address)": "d547741f",
			"safeTransferFrom(address,address,uint256)": "42842e0e",
			"safeTransferFrom(address,address,uint256,bytes)": "b88d4fde",
			"setApprovalForAll(address,bool)": "a22cb465",
			"setAssetAvailabilityForTransfer(uint8,bool)": "87fec775",
			"setAssetValuation(uint8,uint32)": "e79eee5e",
			"supportsInterface(bytes4)": "01ffc9a7",
			"symbol()": "95d89b41",
			"tokenURI(uint256)": "c87b56dd",
			"transferAsset(uint8,address)": "caca36e1",
			"transferFrom(address,address,uint256)": "23b872dd",
			"transferOwnership(address)": "f2fde38b",
			"transferOwnershipInBadCase(address)": "9cff6832"
		}
	},
	"abi": [
		{
			"inputs": [
				{
					"internalType": "address",
					"name": "_minter",
					"type": "address"
				},
				{
					"internalType": "address",
					"name": "_initialOwner",
					"type": "address"
				},
				{
					"internalType": "uint8",
					"name": "_assetType",
					"type": "uint8"
				},
				{
					"internalType": "uint16",
					"name": "_projectStart",
					"type": "uint16"
				},
				{
					"internalType": "uint16",
					"name": "_projectEnd",
					"type": "uint16"
				},
				{
					"internalType": "uint8",
					"name": "_assetclass",
					"type": "uint8"
				}
			],
			"stateMutability": "nonpayable",
			"type": "constructor"
		},
		{
			"anonymous": false,
			"inputs": [
				{
					"indexed": true,
					"internalType": "address",
					"name": "owner",
					"type": "address"
				},
				{
					"indexed": true,
					"internalType": "address",
					"name": "approved",
					"type": "address"
				},
				{
					"indexed": true,
					"internalType": "uint256",
					"name": "tokenId",
					"type": "uint256"
				}
			],
			"name": "Approval",
			"type": "event"
		},
		{
			"anonymous": false,
			"inputs": [
				{
					"indexed": true,
					"internalType": "address",
					"name": "owner",
					"type": "address"
				},
				{
					"indexed": true,
					"internalType": "address",
					"name": "operator",
					"type": "address"
				},
				{
					"indexed": false,
					"internalType": "bool",
					"name": "approved",
					"type": "bool"
				}
			],
			"name": "ApprovalForAll",
			"type": "event"
		},
		{
			"anonymous": false,
			"inputs": [
				{
					"indexed": false,
					"internalType": "bool",
					"name": "availability",
					"type": "bool"
				}
			],
			"name": "AssetAvailabilityUpdated",
			"type": "event"
		},
		{
			"anonymous": false,
			"inputs": [
				{
					"indexed": false,
					"internalType": "uint8",
					"name": "assetId",
					"type": "uint8"
				},
				{
					"indexed": false,
					"internalType": "bool",
					"name": "wasBurned",
					"type": "bool"
				}
			],
			"name": "AssetBurned",
			"type": "event"
		},
		{
			"anonymous": false,
			"inputs": [
				{
					"indexed": false,
					"internalType": "uint32",
					"name": "AssetId",
					"type": "uint32"
				},
				{
					"indexed": false,
					"internalType": "address",
					"name": "tokenOwner",
					"type": "address"
				},
				{
					"indexed": false,
					"internalType": "uint8",
					"name": "assetId",
					"type": "uint8"
				}
			],
			"name": "AssetMinted",
			"type": "event"
		},
		{
			"anonymous": false,
			"inputs": [
				{
					"indexed": false,
					"internalType": "uint8",
					"name": "assetId",
					"type": "uint8"
				},
				{
					"indexed": false,
					"internalType": "address",
					"name": "newOwner",
					"type": "address"
				},
				{
					"indexed": false,
					"internalType": "bool",
					"name": "transferred",
					"type": "bool"
				}
			],
			"name": "AssetTransferred",
			"type": "event"
		},
		{
			"anonymous": false,
			"inputs": [
				{
					"indexed": false,
					"internalType": "uint32",
					"name": "value",
					"type": "uint32"
				},
				{
					"indexed": false,
					"internalType": "bool",
					"name": "valuationSet",
					"type": "bool"
				}
			],
			"name": "AssetValuationWevent",
			"type": "event"
		},
		{
			"anonymous": false,
			"inputs": [
				{
					"indexed": true,
					"internalType": "address",
					"name": "previousOwner",
					"type": "address"
				},
				{
					"indexed": true,
					"internalType": "address",
					"name": "newOwner",
					"type": "address"
				}
			],
			"name": "OwnershipTransferred",
			"type": "event"
		},
		{
			"anonymous": false,
			"inputs": [
				{
					"indexed": true,
					"internalType": "bytes32",
					"name": "role",
					"type": "bytes32"
				},
				{
					"indexed": true,
					"internalType": "bytes32",
					"name": "previousAdminRole",
					"type": "bytes32"
				},
				{
					"indexed": true,
					"internalType": "bytes32",
					"name": "newAdminRole",
					"type": "bytes32"
				}
			],
			"name": "RoleAdminChanged",
			"type": "event"
		},
		{
			"anonymous": false,
			"inputs": [
				{
					"indexed": true,
					"internalType": "bytes32",
					"name": "role",
					"type": "bytes32"
				},
				{
					"indexed": true,
					"internalType": "address",
					"name": "account",
					"type": "address"
				},
				{
					"indexed": true,
					"internalType": "address",
					"name": "sender",
					"type": "address"
				}
			],
			"name": "RoleGranted",
			"type": "event"
		},
		{
			"anonymous": false,
			"inputs": [
				{
					"indexed": true,
					"internalType": "bytes32",
					"name": "role",
					"type": "bytes32"
				},
				{
					"indexed": true,
					"internalType": "address",
					"name": "account",
					"type": "address"
				},
				{
					"indexed": true,
					"internalType": "address",
					"name": "sender",
					"type": "address"
				}
			],
			"name": "RoleRevoked",
			"type": "event"
		},
		{
			"anonymous": false,
			"inputs": [
				{
					"indexed": true,
					"internalType": "address",
					"name": "from",
					"type": "address"
				},
				{
					"indexed": true,
					"internalType": "address",
					"name": "to",
					"type": "address"
				},
				{
					"indexed": true,
					"internalType": "uint256",
					"name": "tokenId",
					"type": "uint256"
				}
			],
			"name": "Transfer",
			"type": "event"
		},
		{
			"inputs": [],
			"name": "DEFAULT_ADMIN_ROLE",
			"outputs": [
				{
					"internalType": "bytes32",
					"name": "",
					"type": "bytes32"
				}
			],
			"stateMutability": "view",
			"type": "function"
		},
		{
			"inputs": [],
			"name": "MINTER_ROLE",
			"outputs": [
				{
					"internalType": "bytes32",
					"name": "",
					"type": "bytes32"
				}
			],
			"stateMutability": "view",
			"type": "function"
		},
		{
			"inputs": [
				{
					"internalType": "address",
					"name": "to",
					"type": "address"
				},
				{
					"internalType": "uint256",
					"name": "tokenId",
					"type": "uint256"
				}
			],
			"name": "approve",
			"outputs": [],
			"stateMutability": "nonpayable",
			"type": "function"
		},
		{
			"inputs": [],
			"name": "assetClassif",
			"outputs": [
				{
					"internalType": "enum COPF.AssetClassification",
					"name": "",
					"type": "uint8"
				}
			],
			"stateMutability": "view",
			"type": "function"
		},
		{
			"inputs": [],
			"name": "assetId",
			"outputs": [
				{
					"internalType": "uint8",
					"name": "",
					"type": "uint8"
				}
			],
			"stateMutability": "view",
			"type": "function"
		},
		{
			"inputs": [],
			"name": "assetType",
			"outputs": [
				{
					"internalType": "enum COPF.AssetType",
					"name": "",
					"type": "uint8"
				}
			],
			"stateMutability": "view",
			"type": "function"
		},
		{
			"inputs": [
				{
					"internalType": "uint256",
					"name": "",
					"type": "uint256"
				}
			],
			"name": "assets",
			"outputs": [
				{
					"internalType": "address",
					"name": "initialOwner",
					"type": "address"
				},
				{
					"internalType": "enum COPF.AssetType",
					"name": "assetType",
					"type": "uint8"
				},
				{
					"internalType": "uint16",
					"name": "projectStart",
					"type": "uint16"
				},
				{
					"internalType": "uint16",
					"name": "projectEnd",
					"type": "uint16"
				},
				{
					"internalType": "enum COPF.AssetClassification",
					"name": "assetClassification",
					"type": "uint8"
				},
				{
					"internalType": "uint32",
					"name": "AssetValuation",
					"type": "uint32"
				},
				{
					"internalType": "bool",
					"name": "isCurrentAssetAvailableForTransfer",
					"type": "bool"
				},
				{
					"internalType": "address",
					"name": "tokenOwner",
					"type": "address"
				}
			],
			"stateMutability": "view",
			"type": "function"
		},
		{
			"inputs": [
				{
					"internalType": "address",
					"name": "owner",
					"type": "address"
				}
			],
			"name": "balanceOf",
			"outputs": [
				{
					"internalType": "uint256",
					"name": "",
					"type": "uint256"
				}
			],
			"stateMutability": "view",
			"type": "function"
		},
		{
			"inputs": [
				{
					"internalType": "uint8",
					"name": "_assetId",
					"type": "uint8"
				},
				{
					"internalType": "address",
					"name": "_initialOwner",
					"type": "address"
				}
			],
			"name": "burn",
			"outputs": [],
			"stateMutability": "nonpayable",
			"type": "function"
		},
		{
			"inputs": [],
			"name": "checkOwnership",
			"outputs": [
				{
					"internalType": "address",
					"name": "",
					"type": "address"
				}
			],
			"stateMutability": "view",
			"type": "function"
		},
		{
			"inputs": [
				{
					"internalType": "uint256",
					"name": "tokenId",
					"type": "uint256"
				}
			],
			"name": "getApproved",
			"outputs": [
				{
					"internalType": "address",
					"name": "",
					"type": "address"
				}
			],
			"stateMutability": "view",
			"type": "function"
		},
		{
			"inputs": [],
			"name": "getCurrentYear",
			"outputs": [
				{
					"internalType": "uint256",
					"name": "",
					"type": "uint256"
				}
			],
			"stateMutability": "view",
			"type": "function"
		},
		{
			"inputs": [
				{
					"internalType": "bytes32",
					"name": "role",
					"type": "bytes32"
				}
			],
			"name": "getRoleAdmin",
			"outputs": [
				{
					"internalType": "bytes32",
					"name": "",
					"type": "bytes32"
				}
			],
			"stateMutability": "view",
			"type": "function"
		},
		{
			"inputs": [
				{
					"internalType": "bytes32",
					"name": "role",
					"type": "bytes32"
				},
				{
					"internalType": "address",
					"name": "account",
					"type": "address"
				}
			],
			"name": "grantRole",
			"outputs": [],
			"stateMutability": "nonpayable",
			"type": "function"
		},
		{
			"inputs": [
				{
					"internalType": "uint8",
					"name": "_assetId",
					"type": "uint8"
				}
			],
			"name": "hasAssetValuationBeenSet",
			"outputs": [
				{
					"internalType": "bool",
					"name": "",
					"type": "bool"
				}
			],
			"stateMutability": "view",
			"type": "function"
		},
		{
			"inputs": [
				{
					"internalType": "bytes32",
					"name": "role",
					"type": "bytes32"
				},
				{
					"internalType": "address",
					"name": "account",
					"type": "address"
				}
			],
			"name": "hasRole",
			"outputs": [
				{
					"internalType": "bool",
					"name": "",
					"type": "bool"
				}
			],
			"stateMutability": "view",
			"type": "function"
		},
		{
			"inputs": [
				{
					"internalType": "address",
					"name": "owner",
					"type": "address"
				},
				{
					"internalType": "address",
					"name": "operator",
					"type": "address"
				}
			],
			"name": "isApprovedForAll",
			"outputs": [
				{
					"internalType": "bool",
					"name": "",
					"type": "bool"
				}
			],
			"stateMutability": "view",
			"type": "function"
		},
		{
			"inputs": [
				{
					"internalType": "address",
					"name": "_initialOwner",
					"type": "address"
				},
				{
					"internalType": "enum COPF.AssetType",
					"name": "_assetType",
					"type": "uint8"
				},
				{
					"internalType": "uint16",
					"name": "_projectStart",
					"type": "uint16"
				},
				{
					"internalType": "uint16",
					"name": "_projectEnd",
					"type": "uint16"
				},
				{
					"internalType": "enum COPF.AssetClassification",
					"name": "_assetclass",
					"type": "uint8"
				},
				{
					"internalType": "uint32",
					"name": "_assetValuation",
					"type": "uint32"
				}
			],
			"name": "mint",
			"outputs": [],
			"stateMutability": "nonpayable",
			"type": "function"
		},
		{
			"inputs": [],
			"name": "name",
			"outputs": [
				{
					"internalType": "string",
					"name": "",
					"type": "string"
				}
			],
			"stateMutability": "view",
			"type": "function"
		},
		{
			"inputs": [],
			"name": "owner",
			"outputs": [
				{
					"internalType": "address",
					"name": "",
					"type": "address"
				}
			],
			"stateMutability": "view",
			"type": "function"
		},
		{
			"inputs": [
				{
					"internalType": "uint256",
					"name": "tokenId",
					"type": "uint256"
				}
			],
			"name": "ownerOf",
			"outputs": [
				{
					"internalType": "address",
					"name": "",
					"type": "address"
				}
			],
			"stateMutability": "view",
			"type": "function"
		},
		{
			"inputs": [],
			"name": "renounceOwnership",
			"outputs": [],
			"stateMutability": "nonpayable",
			"type": "function"
		},
		{
			"inputs": [
				{
					"internalType": "bytes32",
					"name": "role",
					"type": "bytes32"
				},
				{
					"internalType": "address",
					"name": "account",
					"type": "address"
				}
			],
			"name": "renounceRole",
			"outputs": [],
			"stateMutability": "nonpayable",
			"type": "function"
		},
		{
			"inputs": [
				{
					"internalType": "bytes32",
					"name": "role",
					"type": "bytes32"
				},
				{
					"internalType": "address",
					"name": "account",
					"type": "address"
				}
			],
			"name": "revokeRole",
			"outputs": [],
			"stateMutability": "nonpayable",
			"type": "function"
		},
		{
			"inputs": [
				{
					"internalType": "address",
					"name": "from",
					"type": "address"
				},
				{
					"internalType": "address",
					"name": "to",
					"type": "address"
				},
				{
					"internalType": "uint256",
					"name": "tokenId",
					"type": "uint256"
				}
			],
			"name": "safeTransferFrom",
			"outputs": [],
			"stateMutability": "nonpayable",
			"type": "function"
		},
		{
			"inputs": [
				{
					"internalType": "address",
					"name": "from",
					"type": "address"
				},
				{
					"internalType": "address",
					"name": "to",
					"type": "address"
				},
				{
					"internalType": "uint256",
					"name": "tokenId",
					"type": "uint256"
				},
				{
					"internalType": "bytes",
					"name": "data",
					"type": "bytes"
				}
			],
			"name": "safeTransferFrom",
			"outputs": [],
			"stateMutability": "nonpayable",
			"type": "function"
		},
		{
			"inputs": [
				{
					"internalType": "address",
					"name": "operator",
					"type": "address"
				},
				{
					"internalType": "bool",
					"name": "approved",
					"type": "bool"
				}
			],
			"name": "setApprovalForAll",
			"outputs": [],
			"stateMutability": "nonpayable",
			"type": "function"
		},
		{
			"inputs": [
				{
					"internalType": "uint8",
					"name": "_assetId",
					"type": "uint8"
				},
				{
					"internalType": "bool",
					"name": "_availability",
					"type": "bool"
				}
			],
			"name": "setAssetAvailabilityForTransfer",
			"outputs": [
				{
					"internalType": "bool",
					"name": "",
					"type": "bool"
				}
			],
			"stateMutability": "nonpayable",
			"type": "function"
		},
		{
			"inputs": [
				{
					"internalType": "uint8",
					"name": "_assetId",
					"type": "uint8"
				},
				{
					"internalType": "uint32",
					"name": "_assetValuation",
					"type": "uint32"
				}
			],
			"name": "setAssetValuation",
			"outputs": [
				{
					"internalType": "uint32",
					"name": "",
					"type": "uint32"
				}
			],
			"stateMutability": "nonpayable",
			"type": "function"
		},
		{
			"inputs": [
				{
					"internalType": "bytes4",
					"name": "interfaceId",
					"type": "bytes4"
				}
			],
			"name": "supportsInterface",
			"outputs": [
				{
					"internalType": "bool",
					"name": "",
					"type": "bool"
				}
			],
			"stateMutability": "view",
			"type": "function"
		},
		{
			"inputs": [],
			"name": "symbol",
			"outputs": [
				{
					"internalType": "string",
					"name": "",
					"type": "string"
				}
			],
			"stateMutability": "view",
			"type": "function"
		},
		{
			"inputs": [
				{
					"internalType": "uint256",
					"name": "tokenId",
					"type": "uint256"
				}
			],
			"name": "tokenURI",
			"outputs": [
				{
					"internalType": "string",
					"name": "",
					"type": "string"
				}
			],
			"stateMutability": "view",
			"type": "function"
		},
		{
			"inputs": [
				{
					"internalType": "uint8",
					"name": "_assetId",
					"type": "uint8"
				},
				{
					"internalType": "address",
					"name": "_newOwner",
					"type": "address"
				}
			],
			"name": "transferAsset",
			"outputs": [],
			"stateMutability": "nonpayable",
			"type": "function"
		},
		{
			"inputs": [
				{
					"internalType": "address",
					"name": "from",
					"type": "address"
				},
				{
					"internalType": "address",
					"name": "to",
					"type": "address"
				},
				{
					"internalType": "uint256",
					"name": "tokenId",
					"type": "uint256"
				}
			],
			"name": "transferFrom",
			"outputs": [],
			"stateMutability": "nonpayable",
			"type": "function"
		},
		{
			"inputs": [
				{
					"internalType": "address",
					"name": "newOwner",
					"type": "address"
				}
			],
			"name": "transferOwnership",
			"outputs": [],
			"stateMutability": "nonpayable",
			"type": "function"
		},
		{
			"inputs": [
				{
					"internalType": "address",
					"name": "_newOwner",
					"type": "address"
				}
			],
			"name": "transferOwnershipInBadCase",
			"outputs": [],
			"stateMutability": "nonpayable",
			"type": "function"
		}
	]
}